{
	".learneth/Deploy with Libraries/2_Generate_Metadata/2_contractSimpleLibrary.sol": {
		"sampleContract": {
			"abi": [
				{
					"constant": false,
					"inputs": [],
					"name": "get",
					"outputs": [],
					"payable": false,
					"stateMutability": "nonpayable",
					"type": "function"
				}
			],
			"devdoc": {
				"methods": {}
			},
			"evm": {
				"assembly": "    /* \".learneth/Deploy with Libraries/2_Generate_Metadata/2_contractSimpleLibrary.sol\":34:120  contract sampleContract {... */\n  mstore(0x40, 0x80)\n  callvalue\n    /* \"--CODEGEN--\":8:17   */\n  dup1\n    /* \"--CODEGEN--\":5:7   */\n  iszero\n  tag_1\n  jumpi\n    /* \"--CODEGEN--\":30:31   */\n  0x00\n    /* \"--CODEGEN--\":27:28   */\n  dup1\n    /* \"--CODEGEN--\":20:32   */\n  revert\n    /* \"--CODEGEN--\":5:7   */\ntag_1:\n    /* \".learneth/Deploy with Libraries/2_Generate_Metadata/2_contractSimpleLibrary.sol\":34:120  contract sampleContract {... */\n  pop\n  dataSize(sub_0)\n  dup1\n  dataOffset(sub_0)\n  0x00\n  codecopy\n  0x00\n  return\nstop\n\nsub_0: assembly {\n        /* \".learneth/Deploy with Libraries/2_Generate_Metadata/2_contractSimpleLibrary.sol\":34:120  contract sampleContract {... */\n      mstore(0x40, 0x80)\n      callvalue\n        /* \"--CODEGEN--\":8:17   */\n      dup1\n        /* \"--CODEGEN--\":5:7   */\n      iszero\n      tag_1\n      jumpi\n        /* \"--CODEGEN--\":30:31   */\n      0x00\n        /* \"--CODEGEN--\":27:28   */\n      dup1\n        /* \"--CODEGEN--\":20:32   */\n      revert\n        /* \"--CODEGEN--\":5:7   */\n    tag_1:\n        /* \".learneth/Deploy with Libraries/2_Generate_Metadata/2_contractSimpleLibrary.sol\":34:120  contract sampleContract {... */\n      pop\n      jumpi(tag_2, lt(calldatasize, 0x04))\n      shr(0xe0, calldataload(0x00))\n      dup1\n      0x6d4ce63c\n      eq\n      tag_3\n      jumpi\n    tag_2:\n      0x00\n      dup1\n      revert\n        /* \".learneth/Deploy with Libraries/2_Generate_Metadata/2_contractSimpleLibrary.sol\":64:118  function get () public {... */\n    tag_3:\n      tag_4\n      tag_5\n      jump\t// in\n    tag_4:\n      stop\n    tag_5:\n        /* \".learneth/Deploy with Libraries/2_Generate_Metadata/2_contractSimpleLibrary.sol\":97:101  aLib */\n      linkerSymbol(\"93262fa7f49847de99b1908617a7be2615549024f86f5bdedec8a813089a5b04\")\n        /* \".learneth/Deploy with Libraries/2_Generate_Metadata/2_contractSimpleLibrary.sol\":97:109  aLib.doStuff */\n      0x874f33a1\n        /* \".learneth/Deploy with Libraries/2_Generate_Metadata/2_contractSimpleLibrary.sol\":97:111  aLib.doStuff() */\n      mload(0x40)\n      dup2\n      0xffffffff\n      and\n      0xe0\n      shl\n      dup2\n      mstore\n      0x04\n      add\n      0x00\n      mload(0x40)\n      dup1\n      dup4\n      sub\n      dup2\n      dup7\n      dup1\n      extcodesize\n      iszero\n        /* \"--CODEGEN--\":8:17   */\n      dup1\n        /* \"--CODEGEN--\":5:7   */\n      iszero\n      tag_7\n      jumpi\n        /* \"--CODEGEN--\":30:31   */\n      0x00\n        /* \"--CODEGEN--\":27:28   */\n      dup1\n        /* \"--CODEGEN--\":20:32   */\n      revert\n        /* \"--CODEGEN--\":5:7   */\n    tag_7:\n        /* \".learneth/Deploy with Libraries/2_Generate_Metadata/2_contractSimpleLibrary.sol\":97:111  aLib.doStuff() */\n      pop\n      gas\n      delegatecall\n      iszero\n        /* \"--CODEGEN--\":8:17   */\n      dup1\n        /* \"--CODEGEN--\":5:7   */\n      iszero\n      tag_8\n      jumpi\n        /* \"--CODEGEN--\":45:61   */\n      returndatasize\n        /* \"--CODEGEN--\":42:43   */\n      0x00\n        /* \"--CODEGEN--\":39:40   */\n      dup1\n        /* \"--CODEGEN--\":24:62   */\n      returndatacopy\n        /* \"--CODEGEN--\":77:93   */\n      returndatasize\n        /* \"--CODEGEN--\":74:75   */\n      0x00\n        /* \"--CODEGEN--\":67:94   */\n      revert\n        /* \"--CODEGEN--\":5:7   */\n    tag_8:\n        /* \".learneth/Deploy with Libraries/2_Generate_Metadata/2_contractSimpleLibrary.sol\":97:111  aLib.doStuff() */\n      pop\n      pop\n      pop\n      pop\n        /* \".learneth/Deploy with Libraries/2_Generate_Metadata/2_contractSimpleLibrary.sol\":64:118  function get () public {... */\n      jump\t// out\n\n    auxdata: 0xa265627a7a723158209d1791a0f576473b616c442df68f7f62b6bf15b84f0e3d2b4f003f42045387c464736f6c63430005110032\n}\n",
				"bytecode": {
					"linkReferences": {
						".learneth/Deploy with Libraries/2_Generate_Metadata/2_contractSimpleLibrary.sol": {
							"aLib": [
								{
									"length": 20,
									"start": 86
								}
							]
						}
					},
					"object": "608060405234801561001057600080fd5b5060c68061001f6000396000f3fe6080604052348015600f57600080fd5b506004361060285760003560e01c80636d4ce63c14602d575b600080fd5b60336035565b005b73__$93262fa7f49847de99b1908617a7be2615$__63874f33a16040518163ffffffff1660e01b815260040160006040518083038186803b158015607857600080fd5b505af4158015608b573d6000803e3d6000fd5b5050505056fea265627a7a723158209d1791a0f576473b616c442df68f7f62b6bf15b84f0e3d2b4f003f42045387c464736f6c63430005110032",
					"opcodes": "PUSH1 0x80 PUSH1 0x40 MSTORE CALLVALUE DUP1 ISZERO PUSH2 0x10 JUMPI PUSH1 0x0 DUP1 REVERT JUMPDEST POP PUSH1 0xC6 DUP1 PUSH2 0x1F PUSH1 0x0 CODECOPY PUSH1 0x0 RETURN INVALID PUSH1 0x80 PUSH1 0x40 MSTORE CALLVALUE DUP1 ISZERO PUSH1 0xF JUMPI PUSH1 0x0 DUP1 REVERT JUMPDEST POP PUSH1 0x4 CALLDATASIZE LT PUSH1 0x28 JUMPI PUSH1 0x0 CALLDATALOAD PUSH1 0xE0 SHR DUP1 PUSH4 0x6D4CE63C EQ PUSH1 0x2D JUMPI JUMPDEST PUSH1 0x0 DUP1 REVERT JUMPDEST PUSH1 0x33 PUSH1 0x35 JUMP JUMPDEST STOP JUMPDEST PUSH20 0x0 PUSH4 0x874F33A1 PUSH1 0x40 MLOAD DUP2 PUSH4 0xFFFFFFFF AND PUSH1 0xE0 SHL DUP2 MSTORE PUSH1 0x4 ADD PUSH1 0x0 PUSH1 0x40 MLOAD DUP1 DUP4 SUB DUP2 DUP7 DUP1 EXTCODESIZE ISZERO DUP1 ISZERO PUSH1 0x78 JUMPI PUSH1 0x0 DUP1 REVERT JUMPDEST POP GAS DELEGATECALL ISZERO DUP1 ISZERO PUSH1 0x8B JUMPI RETURNDATASIZE PUSH1 0x0 DUP1 RETURNDATACOPY RETURNDATASIZE PUSH1 0x0 REVERT JUMPDEST POP POP POP POP JUMP INVALID LOG2 PUSH6 0x627A7A723158 KECCAK256 SWAP14 OR SWAP2 LOG0 CREATE2 PUSH23 0x473B616C442DF68F7F62B6BF15B84F0E3D2B4F003F4204 MSTORE8 DUP8 0xC4 PUSH5 0x736F6C6343 STOP SDIV GT STOP ORIGIN "
				},
				"gasEstimates": {
					"creation": {
						"codeDepositCost": "39600",
						"executionCost": "93",
						"totalCost": "39693"
					},
					"external": {
						"get()": "infinite"
					}
				},
				"methodIdentifiers": {
					"get()": "6d4ce63c"
				}
			},
			"storageLayout": {
				"storage": [],
				"types": null
			},
			"userdoc": {
				"methods": {}
			}
		}
	}
}