{
	"contracts/Quoter.sol": {
		"Quoter": {
			"abi": [
				{
					"inputs": [
						{
							"components": [
								{
									"internalType": "address",
									"name": "pool",
									"type": "address"
								},
								{
									"internalType": "uint256",
									"name": "amountIn",
									"type": "uint256"
								},
								{
									"internalType": "uint160",
									"name": "sqrtPriceLimitX96",
									"type": "uint160"
								},
								{
									"internalType": "bool",
									"name": "zeroForOne",
									"type": "bool"
								}
							],
							"internalType": "struct Quoter.QuoteParams",
							"name": "params",
							"type": "tuple"
						}
					],
					"name": "quote",
					"outputs": [
						{
							"internalType": "uint256",
							"name": "amountOut",
							"type": "uint256"
						},
						{
							"internalType": "uint160",
							"name": "sqrtPriceX96After",
							"type": "uint160"
						},
						{
							"internalType": "int24",
							"name": "tickAfter",
							"type": "int24"
						}
					],
					"stateMutability": "nonpayable",
					"type": "function"
				},
				{
					"inputs": [
						{
							"internalType": "int256",
							"name": "amount0Delta",
							"type": "int256"
						},
						{
							"internalType": "int256",
							"name": "amount1Delta",
							"type": "int256"
						},
						{
							"internalType": "bytes",
							"name": "data",
							"type": "bytes"
						}
					],
					"name": "swapCallback",
					"outputs": [],
					"stateMutability": "view",
					"type": "function"
				}
			],
			"devdoc": {
				"kind": "dev",
				"methods": {},
				"version": 1
			},
			"evm": {
				"assembly": "    /* \"contracts/Quoter.sol\":159:1821  contract Quoter{... */\n  mstore(0x40, 0x80)\n  callvalue\n  dup1\n  iszero\n  tag_1\n  jumpi\n  0x00\n  dup1\n  revert\ntag_1:\n  pop\n  dataSize(sub_0)\n  dup1\n  dataOffset(sub_0)\n  0x00\n  codecopy\n  0x00\n  return\nstop\n\nsub_0: assembly {\n        /* \"contracts/Quoter.sol\":159:1821  contract Quoter{... */\n      mstore(0x40, 0x80)\n      callvalue\n      dup1\n      iszero\n      tag_1\n      jumpi\n      0x00\n      dup1\n      revert\n    tag_1:\n      pop\n      jumpi(tag_2, lt(calldatasize, 0x04))\n      shr(0xe0, calldataload(0x00))\n      dup1\n      0x482a3dc6\n      eq\n      tag_3\n      jumpi\n      dup1\n      0xfa483e72\n      eq\n      tag_4\n      jumpi\n    tag_2:\n      0x00\n      dup1\n      revert\n        /* \"contracts/Quoter.sol\":328:1164  function quote(QuoteParams memory params)... */\n    tag_3:\n      tag_5\n      0x04\n      dup1\n      calldatasize\n      sub\n      dup2\n      add\n      swap1\n      tag_6\n      swap2\n      swap1\n      tag_7\n      jump\t// in\n    tag_6:\n      tag_8\n      jump\t// in\n    tag_5:\n      mload(0x40)\n      tag_9\n      swap4\n      swap3\n      swap2\n      swap1\n      tag_10\n      jump\t// in\n    tag_9:\n      mload(0x40)\n      dup1\n      swap2\n      sub\n      swap1\n      return\n        /* \"contracts/Quoter.sol\":1172:1818  function swapCallback(... */\n    tag_4:\n      tag_11\n      0x04\n      dup1\n      calldatasize\n      sub\n      dup2\n      add\n      swap1\n      tag_12\n      swap2\n      swap1\n      tag_13\n      jump\t// in\n    tag_12:\n      tag_14\n      jump\t// in\n    tag_11:\n      stop\n        /* \"contracts/Quoter.sol\":328:1164  function quote(QuoteParams memory params)... */\n    tag_8:\n        /* \"contracts/Quoter.sol\":418:435  uint256 amountOut */\n      0x00\n        /* \"contracts/Quoter.sol\":450:475  uint160 sqrtPriceX96After */\n      dup1\n        /* \"contracts/Quoter.sol\":490:505  int24 tickAfter */\n      0x00\n        /* \"contracts/Quoter.sol\":556:562  params */\n      dup4\n        /* \"contracts/Quoter.sol\":556:567  params.pool */\n      0x00\n      add\n      mload\n        /* \"contracts/Quoter.sol\":550:573  IPool(params.pool).swap */\n      0xffffffffffffffffffffffffffffffffffffffff\n      and\n      0xdd5a12d8\n        /* \"contracts/Quoter.sol\":600:604  this */\n      address\n        /* \"contracts/Quoter.sol\":624:630  params */\n      dup7\n        /* \"contracts/Quoter.sol\":624:641  params.zeroForOne */\n      0x60\n      add\n      mload\n        /* \"contracts/Quoter.sol\":660:666  params */\n      dup8\n        /* \"contracts/Quoter.sol\":660:675  params.amountIn */\n      0x20\n      add\n      mload\n        /* \"contracts/Quoter.sol\":722:723  0 */\n      0x00\n        /* \"contracts/Quoter.sol\":694:700  params */\n      dup10\n        /* \"contracts/Quoter.sol\":694:718  params.sqrtPriceLimitX96 */\n      0x40\n      add\n      mload\n        /* \"contracts/Quoter.sol\":694:723  params.sqrtPriceLimitX96 == 0 */\n      0xffffffffffffffffffffffffffffffffffffffff\n      and\n      eq\n        /* \"contracts/Quoter.sol\":694:980  params.sqrtPriceLimitX96 == 0... */\n      tag_16\n      jumpi\n        /* \"contracts/Quoter.sol\":956:962  params */\n      dup9\n        /* \"contracts/Quoter.sol\":956:980  params.sqrtPriceLimitX96 */\n      0x40\n      add\n      mload\n        /* \"contracts/Quoter.sol\":694:980  params.sqrtPriceLimitX96 == 0... */\n      jump(tag_17)\n    tag_16:\n        /* \"contracts/Quoter.sol\":774:780  params */\n      dup9\n        /* \"contracts/Quoter.sol\":774:791  params.zeroForOne */\n      0x60\n      add\n      mload\n        /* \"contracts/Quoter.sol\":774:909  params.zeroForOne... */\n      tag_18\n      jumpi\n        /* \"contracts/Quoter.sol\":908:909  1 */\n      0x01\n        /* \"libraries/TickMath.sol\":1012:1061  1461446703485210103287273052203988822378723970342 */\n      0xfffd8963efd1fc6a506488495d951d5263988d26\n        /* \"contracts/Quoter.sol\":882:909  TickMath.MAX_SQRT_RATIO - 1 */\n      tag_19\n      swap2\n      swap1\n      tag_20\n      jump\t// in\n    tag_19:\n        /* \"contracts/Quoter.sol\":774:909  params.zeroForOne... */\n      jump(tag_21)\n    tag_18:\n        /* \"contracts/Quoter.sol\":849:850  1 */\n      0x01\n        /* \"libraries/TickMath.sol\":830:840  4295128739 */\n      0x01000276a3\n        /* \"contracts/Quoter.sol\":823:850  TickMath.MIN_SQRT_RATIO + 1 */\n      tag_22\n      swap2\n      swap1\n      tag_23\n      jump\t// in\n    tag_22:\n        /* \"contracts/Quoter.sol\":774:909  params.zeroForOne... */\n    tag_21:\n        /* \"contracts/Quoter.sol\":694:980  params.sqrtPriceLimitX96 == 0... */\n    tag_17:\n        /* \"contracts/Quoter.sol\":1010:1016  params */\n      dup10\n        /* \"contracts/Quoter.sol\":1010:1021  params.pool */\n      0x00\n      add\n      mload\n        /* \"contracts/Quoter.sol\":999:1022  abi.encode(params.pool) */\n      add(0x20, mload(0x40))\n      tag_24\n      swap2\n      swap1\n      tag_25\n      jump\t// in\n    tag_24:\n      mload(0x40)\n      0x20\n      dup2\n      dup4\n      sub\n      sub\n      dup2\n      mstore\n      swap1\n      0x40\n      mstore\n        /* \"contracts/Quoter.sol\":550:1037  IPool(params.pool).swap(... */\n      mload(0x40)\n      dup7\n      0xffffffff\n      and\n      0xe0\n      shl\n      dup2\n      mstore\n      0x04\n      add\n      tag_26\n      swap6\n      swap5\n      swap4\n      swap3\n      swap2\n      swap1\n      tag_27\n      jump\t// in\n    tag_26:\n      0x40\n      dup1\n      mload\n      dup1\n      dup4\n      sub\n      dup2\n      0x00\n      dup8\n      gas\n      call\n      swap3\n      pop\n      pop\n      pop\n      dup1\n      iszero\n      tag_28\n      jumpi\n      pop\n      mload(0x40)\n      returndatasize\n      not(0x1f)\n      0x1f\n      dup3\n      add\n      and\n      dup3\n      add\n      dup1\n      0x40\n      mstore\n      pop\n      dup2\n      add\n      swap1\n      tag_29\n      swap2\n      swap1\n      tag_30\n      jump\t// in\n    tag_29:\n      0x01\n    tag_28:\n        /* \"contracts/Quoter.sol\":533:1157  try... */\n      tag_31\n      jumpi\n      returndatasize\n      dup1\n      0x00\n      dup2\n      eq\n      tag_36\n      jumpi\n      mload(0x40)\n      swap2\n      pop\n      and(add(returndatasize, 0x3f), not(0x1f))\n      dup3\n      add\n      0x40\n      mstore\n      returndatasize\n      dup3\n      mstore\n      returndatasize\n      0x00\n      0x20\n      dup5\n      add\n      returndatacopy\n      jump(tag_35)\n    tag_36:\n      0x60\n      swap2\n      pop\n    tag_35:\n      pop\n        /* \"contracts/Quoter.sol\":1111:1117  reason */\n      dup1\n        /* \"contracts/Quoter.sol\":1100:1145  abi.decode(reason, (uint256, uint160, int24)) */\n      dup1\n      0x20\n      add\n      swap1\n      mload\n      dup2\n      add\n      swap1\n      tag_37\n      swap2\n      swap1\n      tag_38\n      jump\t// in\n    tag_37:\n        /* \"contracts/Quoter.sol\":1093:1145  return abi.decode(reason, (uint256, uint160, int24)) */\n      swap4\n      pop\n      swap4\n      pop\n      swap4\n      pop\n      pop\n      jump(tag_15)\n        /* \"contracts/Quoter.sol\":533:1157  try... */\n    tag_31:\n      pop\n      pop\n        /* \"contracts/Quoter.sol\":328:1164  function quote(QuoteParams memory params)... */\n    tag_15:\n      swap2\n      swap4\n      swap1\n      swap3\n      pop\n      jump\t// out\n        /* \"contracts/Quoter.sol\":1172:1818  function swapCallback(... */\n    tag_14:\n        /* \"contracts/Quoter.sol\":1314:1326  address pool */\n      0x00\n        /* \"contracts/Quoter.sol\":1340:1344  data */\n      dup2\n        /* \"contracts/Quoter.sol\":1329:1356  abi.decode(data, (address)) */\n      dup1\n      0x20\n      add\n      swap1\n      mload\n      dup2\n      add\n      swap1\n      tag_41\n      swap2\n      swap1\n      tag_42\n      jump\t// in\n    tag_41:\n        /* \"contracts/Quoter.sol\":1314:1356  address pool = abi.decode(data, (address)) */\n      swap1\n      pop\n        /* \"contracts/Quoter.sol\":1369:1386  uint256 amountOut */\n      0x00\n        /* \"contracts/Quoter.sol\":1404:1405  0 */\n      dup1\n        /* \"contracts/Quoter.sol\":1389:1401  amount0Delta */\n      dup6\n        /* \"contracts/Quoter.sol\":1389:1405  amount0Delta > 0 */\n      sgt\n        /* \"contracts/Quoter.sol\":1389:1481  amount0Delta > 0... */\n      tag_43\n      jumpi\n        /* \"contracts/Quoter.sol\":1468:1480  amount0Delta */\n      dup5\n        /* \"contracts/Quoter.sol\":1467:1480  -amount0Delta */\n      tag_44\n      swap1\n      tag_45\n      jump\t// in\n    tag_44:\n        /* \"contracts/Quoter.sol\":1389:1481  amount0Delta > 0... */\n      jump(tag_46)\n    tag_43:\n        /* \"contracts/Quoter.sol\":1430:1442  amount1Delta */\n      dup4\n        /* \"contracts/Quoter.sol\":1429:1442  -amount1Delta */\n      tag_47\n      swap1\n      tag_45\n      jump\t// in\n    tag_47:\n        /* \"contracts/Quoter.sol\":1389:1481  amount0Delta > 0... */\n    tag_46:\n        /* \"contracts/Quoter.sol\":1369:1481  uint256 amountOut = amount0Delta > 0... */\n      swap1\n      pop\n        /* \"contracts/Quoter.sol\":1495:1520  uint160 sqrtPriceX96After */\n      0x00\n        /* \"contracts/Quoter.sol\":1522:1537  int24 tickAfter */\n      dup1\n        /* \"contracts/Quoter.sol\":1547:1551  pool */\n      dup4\n        /* \"contracts/Quoter.sol\":1541:1572  IPool(pool)... */\n      0xffffffffffffffffffffffffffffffffffffffff\n      and\n      0x3850c7bd\n        /* \"contracts/Quoter.sol\":1541:1574  IPool(pool)... */\n      mload(0x40)\n      dup2\n      0xffffffff\n      and\n      0xe0\n      shl\n      dup2\n      mstore\n      0x04\n      add\n      0x40\n      dup1\n      mload\n      dup1\n      dup4\n      sub\n      dup2\n      dup7\n      gas\n      staticcall\n      iszero\n      dup1\n      iszero\n      tag_49\n      jumpi\n      returndatasize\n      0x00\n      dup1\n      returndatacopy\n      revert(0x00, returndatasize)\n    tag_49:\n      pop\n      pop\n      pop\n      pop\n      mload(0x40)\n      returndatasize\n      not(0x1f)\n      0x1f\n      dup3\n      add\n      and\n      dup3\n      add\n      dup1\n      0x40\n      mstore\n      pop\n      dup2\n      add\n      swap1\n      tag_50\n      swap2\n      swap1\n      tag_51\n      jump\t// in\n    tag_50:\n        /* \"contracts/Quoter.sol\":1494:1574  (uint160 sqrtPriceX96After, int24 tickAfter) = IPool(pool)... */\n      swap2\n      pop\n      swap2\n      pop\n        /* \"contracts/Quoter.sol\":1628:1632  0x40 */\n      0x40\n        /* \"contracts/Quoter.sol\":1622:1633  mload(0x40) */\n      mload\n        /* \"contracts/Quoter.sol\":1659:1668  amountOut */\n      dup4\n        /* \"contracts/Quoter.sol\":1654:1657  ptr */\n      dup2\n        /* \"contracts/Quoter.sol\":1647:1669  mstore(ptr, amountOut) */\n      mstore\n        /* \"contracts/Quoter.sol\":1706:1723  sqrtPriceX96After */\n      dup3\n        /* \"contracts/Quoter.sol\":1699:1703  0x20 */\n      0x20\n        /* \"contracts/Quoter.sol\":1694:1697  ptr */\n      dup3\n        /* \"contracts/Quoter.sol\":1690:1704  add(ptr, 0x20) */\n      add\n        /* \"contracts/Quoter.sol\":1683:1724  mstore(add(ptr, 0x20), sqrtPriceX96After) */\n      mstore\n        /* \"contracts/Quoter.sol\":1761:1770  tickAfter */\n      dup2\n        /* \"contracts/Quoter.sol\":1754:1758  0x40 */\n      0x40\n        /* \"contracts/Quoter.sol\":1749:1752  ptr */\n      dup3\n        /* \"contracts/Quoter.sol\":1745:1759  add(ptr, 0x40) */\n      add\n        /* \"contracts/Quoter.sol\":1738:1771  mstore(add(ptr, 0x40), tickAfter) */\n      mstore\n        /* \"contracts/Quoter.sol\":1797:1799  96 */\n      0x60\n        /* \"contracts/Quoter.sol\":1792:1795  ptr */\n      dup2\n        /* \"contracts/Quoter.sol\":1785:1800  revert(ptr, 96) */\n      revert\n        /* \"#utility.yul\":7:82   */\n    tag_52:\n        /* \"#utility.yul\":40:46   */\n      0x00\n        /* \"#utility.yul\":73:75   */\n      0x40\n        /* \"#utility.yul\":67:76   */\n      mload\n        /* \"#utility.yul\":57:76   */\n      swap1\n      pop\n        /* \"#utility.yul\":7:82   */\n      swap1\n      jump\t// out\n        /* \"#utility.yul\":88:205   */\n    tag_53:\n        /* \"#utility.yul\":197:198   */\n      0x00\n        /* \"#utility.yul\":194:195   */\n      dup1\n        /* \"#utility.yul\":187:199   */\n      revert\n        /* \"#utility.yul\":211:328   */\n    tag_54:\n        /* \"#utility.yul\":320:321   */\n      0x00\n        /* \"#utility.yul\":317:318   */\n      dup1\n        /* \"#utility.yul\":310:322   */\n      revert\n        /* \"#utility.yul\":334:451   */\n    tag_55:\n        /* \"#utility.yul\":443:444   */\n      0x00\n        /* \"#utility.yul\":440:441   */\n      dup1\n        /* \"#utility.yul\":433:445   */\n      revert\n        /* \"#utility.yul\":457:559   */\n    tag_56:\n        /* \"#utility.yul\":498:504   */\n      0x00\n        /* \"#utility.yul\":549:551   */\n      0x1f\n        /* \"#utility.yul\":545:552   */\n      not\n        /* \"#utility.yul\":540:542   */\n      0x1f\n        /* \"#utility.yul\":533:538   */\n      dup4\n        /* \"#utility.yul\":529:543   */\n      add\n        /* \"#utility.yul\":525:553   */\n      and\n        /* \"#utility.yul\":515:553   */\n      swap1\n      pop\n        /* \"#utility.yul\":457:559   */\n      swap2\n      swap1\n      pop\n      jump\t// out\n        /* \"#utility.yul\":565:745   */\n    tag_57:\n        /* \"#utility.yul\":613:690   */\n      0x4e487b7100000000000000000000000000000000000000000000000000000000\n        /* \"#utility.yul\":610:611   */\n      0x00\n        /* \"#utility.yul\":603:691   */\n      mstore\n        /* \"#utility.yul\":710:714   */\n      0x41\n        /* \"#utility.yul\":707:708   */\n      0x04\n        /* \"#utility.yul\":700:715   */\n      mstore\n        /* \"#utility.yul\":734:738   */\n      0x24\n        /* \"#utility.yul\":731:732   */\n      0x00\n        /* \"#utility.yul\":724:739   */\n      revert\n        /* \"#utility.yul\":751:1032   */\n    tag_58:\n        /* \"#utility.yul\":834:861   */\n      tag_110\n        /* \"#utility.yul\":856:860   */\n      dup3\n        /* \"#utility.yul\":834:861   */\n      tag_56\n      jump\t// in\n    tag_110:\n        /* \"#utility.yul\":826:832   */\n      dup2\n        /* \"#utility.yul\":822:862   */\n      add\n        /* \"#utility.yul\":964:970   */\n      dup2\n        /* \"#utility.yul\":952:962   */\n      dup2\n        /* \"#utility.yul\":949:971   */\n      lt\n        /* \"#utility.yul\":928:946   */\n      0xffffffffffffffff\n        /* \"#utility.yul\":916:926   */\n      dup3\n        /* \"#utility.yul\":913:947   */\n      gt\n        /* \"#utility.yul\":910:972   */\n      or\n        /* \"#utility.yul\":907:995   */\n      iszero\n      tag_111\n      jumpi\n        /* \"#utility.yul\":975:993   */\n      tag_112\n      tag_57\n      jump\t// in\n    tag_112:\n        /* \"#utility.yul\":907:995   */\n    tag_111:\n        /* \"#utility.yul\":1015:1025   */\n      dup1\n        /* \"#utility.yul\":1011:1013   */\n      0x40\n        /* \"#utility.yul\":1004:1026   */\n      mstore\n        /* \"#utility.yul\":794:1032   */\n      pop\n        /* \"#utility.yul\":751:1032   */\n      pop\n      pop\n      jump\t// out\n        /* \"#utility.yul\":1038:1167   */\n    tag_59:\n        /* \"#utility.yul\":1072:1078   */\n      0x00\n        /* \"#utility.yul\":1099:1119   */\n      tag_114\n      tag_52\n      jump\t// in\n    tag_114:\n        /* \"#utility.yul\":1089:1119   */\n      swap1\n      pop\n        /* \"#utility.yul\":1128:1161   */\n      tag_115\n        /* \"#utility.yul\":1156:1160   */\n      dup3\n        /* \"#utility.yul\":1148:1154   */\n      dup3\n        /* \"#utility.yul\":1128:1161   */\n      tag_58\n      jump\t// in\n    tag_115:\n        /* \"#utility.yul\":1038:1167   */\n      swap2\n      swap1\n      pop\n      jump\t// out\n        /* \"#utility.yul\":1296:1422   */\n    tag_61:\n        /* \"#utility.yul\":1333:1340   */\n      0x00\n        /* \"#utility.yul\":1373:1415   */\n      0xffffffffffffffffffffffffffffffffffffffff\n        /* \"#utility.yul\":1366:1371   */\n      dup3\n        /* \"#utility.yul\":1362:1416   */\n      and\n        /* \"#utility.yul\":1351:1416   */\n      swap1\n      pop\n        /* \"#utility.yul\":1296:1422   */\n      swap2\n      swap1\n      pop\n      jump\t// out\n        /* \"#utility.yul\":1428:1524   */\n    tag_62:\n        /* \"#utility.yul\":1465:1472   */\n      0x00\n        /* \"#utility.yul\":1494:1518   */\n      tag_119\n        /* \"#utility.yul\":1512:1517   */\n      dup3\n        /* \"#utility.yul\":1494:1518   */\n      tag_61\n      jump\t// in\n    tag_119:\n        /* \"#utility.yul\":1483:1518   */\n      swap1\n      pop\n        /* \"#utility.yul\":1428:1524   */\n      swap2\n      swap1\n      pop\n      jump\t// out\n        /* \"#utility.yul\":1530:1652   */\n    tag_63:\n        /* \"#utility.yul\":1603:1627   */\n      tag_121\n        /* \"#utility.yul\":1621:1626   */\n      dup2\n        /* \"#utility.yul\":1603:1627   */\n      tag_62\n      jump\t// in\n    tag_121:\n        /* \"#utility.yul\":1596:1601   */\n      dup2\n        /* \"#utility.yul\":1593:1628   */\n      eq\n        /* \"#utility.yul\":1583:1646   */\n      tag_122\n      jumpi\n        /* \"#utility.yul\":1642:1643   */\n      0x00\n        /* \"#utility.yul\":1639:1640   */\n      dup1\n        /* \"#utility.yul\":1632:1644   */\n      revert\n        /* \"#utility.yul\":1583:1646   */\n    tag_122:\n        /* \"#utility.yul\":1530:1652   */\n      pop\n      jump\t// out\n        /* \"#utility.yul\":1658:1797   */\n    tag_64:\n        /* \"#utility.yul\":1704:1709   */\n      0x00\n        /* \"#utility.yul\":1742:1748   */\n      dup2\n        /* \"#utility.yul\":1729:1749   */\n      calldataload\n        /* \"#utility.yul\":1720:1749   */\n      swap1\n      pop\n        /* \"#utility.yul\":1758:1791   */\n      tag_124\n        /* \"#utility.yul\":1785:1790   */\n      dup2\n        /* \"#utility.yul\":1758:1791   */\n      tag_63\n      jump\t// in\n    tag_124:\n        /* \"#utility.yul\":1658:1797   */\n      swap3\n      swap2\n      pop\n      pop\n      jump\t// out\n        /* \"#utility.yul\":1803:1880   */\n    tag_65:\n        /* \"#utility.yul\":1840:1847   */\n      0x00\n        /* \"#utility.yul\":1869:1874   */\n      dup2\n        /* \"#utility.yul\":1858:1874   */\n      swap1\n      pop\n        /* \"#utility.yul\":1803:1880   */\n      swap2\n      swap1\n      pop\n      jump\t// out\n        /* \"#utility.yul\":1886:2008   */\n    tag_66:\n        /* \"#utility.yul\":1959:1983   */\n      tag_127\n        /* \"#utility.yul\":1977:1982   */\n      dup2\n        /* \"#utility.yul\":1959:1983   */\n      tag_65\n      jump\t// in\n    tag_127:\n        /* \"#utility.yul\":1952:1957   */\n      dup2\n        /* \"#utility.yul\":1949:1984   */\n      eq\n        /* \"#utility.yul\":1939:2002   */\n      tag_128\n      jumpi\n        /* \"#utility.yul\":1998:1999   */\n      0x00\n        /* \"#utility.yul\":1995:1996   */\n      dup1\n        /* \"#utility.yul\":1988:2000   */\n      revert\n        /* \"#utility.yul\":1939:2002   */\n    tag_128:\n        /* \"#utility.yul\":1886:2008   */\n      pop\n      jump\t// out\n        /* \"#utility.yul\":2014:2153   */\n    tag_67:\n        /* \"#utility.yul\":2060:2065   */\n      0x00\n        /* \"#utility.yul\":2098:2104   */\n      dup2\n        /* \"#utility.yul\":2085:2105   */\n      calldataload\n        /* \"#utility.yul\":2076:2105   */\n      swap1\n      pop\n        /* \"#utility.yul\":2114:2147   */\n      tag_130\n        /* \"#utility.yul\":2141:2146   */\n      dup2\n        /* \"#utility.yul\":2114:2147   */\n      tag_66\n      jump\t// in\n    tag_130:\n        /* \"#utility.yul\":2014:2153   */\n      swap3\n      swap2\n      pop\n      pop\n      jump\t// out\n        /* \"#utility.yul\":2159:2281   */\n    tag_68:\n        /* \"#utility.yul\":2232:2256   */\n      tag_132\n        /* \"#utility.yul\":2250:2255   */\n      dup2\n        /* \"#utility.yul\":2232:2256   */\n      tag_61\n      jump\t// in\n    tag_132:\n        /* \"#utility.yul\":2225:2230   */\n      dup2\n        /* \"#utility.yul\":2222:2257   */\n      eq\n        /* \"#utility.yul\":2212:2275   */\n      tag_133\n      jumpi\n        /* \"#utility.yul\":2271:2272   */\n      0x00\n        /* \"#utility.yul\":2268:2269   */\n      dup1\n        /* \"#utility.yul\":2261:2273   */\n      revert\n        /* \"#utility.yul\":2212:2275   */\n    tag_133:\n        /* \"#utility.yul\":2159:2281   */\n      pop\n      jump\t// out\n        /* \"#utility.yul\":2287:2426   */\n    tag_69:\n        /* \"#utility.yul\":2333:2338   */\n      0x00\n        /* \"#utility.yul\":2371:2377   */\n      dup2\n        /* \"#utility.yul\":2358:2378   */\n      calldataload\n        /* \"#utility.yul\":2349:2378   */\n      swap1\n      pop\n        /* \"#utility.yul\":2387:2420   */\n      tag_135\n        /* \"#utility.yul\":2414:2419   */\n      dup2\n        /* \"#utility.yul\":2387:2420   */\n      tag_68\n      jump\t// in\n    tag_135:\n        /* \"#utility.yul\":2287:2426   */\n      swap3\n      swap2\n      pop\n      pop\n      jump\t// out\n        /* \"#utility.yul\":2432:2522   */\n    tag_70:\n        /* \"#utility.yul\":2466:2473   */\n      0x00\n        /* \"#utility.yul\":2509:2514   */\n      dup2\n        /* \"#utility.yul\":2502:2515   */\n      iszero\n        /* \"#utility.yul\":2495:2516   */\n      iszero\n        /* \"#utility.yul\":2484:2516   */\n      swap1\n      pop\n        /* \"#utility.yul\":2432:2522   */\n      swap2\n      swap1\n      pop\n      jump\t// out\n        /* \"#utility.yul\":2528:2644   */\n    tag_71:\n        /* \"#utility.yul\":2598:2619   */\n      tag_138\n        /* \"#utility.yul\":2613:2618   */\n      dup2\n        /* \"#utility.yul\":2598:2619   */\n      tag_70\n      jump\t// in\n    tag_138:\n        /* \"#utility.yul\":2591:2596   */\n      dup2\n        /* \"#utility.yul\":2588:2620   */\n      eq\n        /* \"#utility.yul\":2578:2638   */\n      tag_139\n      jumpi\n        /* \"#utility.yul\":2634:2635   */\n      0x00\n        /* \"#utility.yul\":2631:2632   */\n      dup1\n        /* \"#utility.yul\":2624:2636   */\n      revert\n        /* \"#utility.yul\":2578:2638   */\n    tag_139:\n        /* \"#utility.yul\":2528:2644   */\n      pop\n      jump\t// out\n        /* \"#utility.yul\":2650:2783   */\n    tag_72:\n        /* \"#utility.yul\":2693:2698   */\n      0x00\n        /* \"#utility.yul\":2731:2737   */\n      dup2\n        /* \"#utility.yul\":2718:2738   */\n      calldataload\n        /* \"#utility.yul\":2709:2738   */\n      swap1\n      pop\n        /* \"#utility.yul\":2747:2777   */\n      tag_141\n        /* \"#utility.yul\":2771:2776   */\n      dup2\n        /* \"#utility.yul\":2747:2777   */\n      tag_71\n      jump\t// in\n    tag_141:\n        /* \"#utility.yul\":2650:2783   */\n      swap3\n      swap2\n      pop\n      pop\n      jump\t// out\n        /* \"#utility.yul\":2822:3740   */\n    tag_73:\n        /* \"#utility.yul\":2898:2903   */\n      0x00\n        /* \"#utility.yul\":2942:2946   */\n      0x80\n        /* \"#utility.yul\":2930:2939   */\n      dup3\n        /* \"#utility.yul\":2925:2928   */\n      dup5\n        /* \"#utility.yul\":2921:2940   */\n      sub\n        /* \"#utility.yul\":2917:2947   */\n      slt\n        /* \"#utility.yul\":2914:3031   */\n      iszero\n      tag_143\n      jumpi\n        /* \"#utility.yul\":2950:3029   */\n      tag_144\n      tag_55\n      jump\t// in\n    tag_144:\n        /* \"#utility.yul\":2914:3031   */\n    tag_143:\n        /* \"#utility.yul\":3049:3070   */\n      tag_145\n        /* \"#utility.yul\":3065:3069   */\n      0x80\n        /* \"#utility.yul\":3049:3070   */\n      tag_59\n      jump\t// in\n    tag_145:\n        /* \"#utility.yul\":3040:3070   */\n      swap1\n      pop\n        /* \"#utility.yul\":3129:3130   */\n      0x00\n        /* \"#utility.yul\":3169:3218   */\n      tag_146\n        /* \"#utility.yul\":3214:3217   */\n      dup5\n        /* \"#utility.yul\":3205:3211   */\n      dup3\n        /* \"#utility.yul\":3194:3203   */\n      dup6\n        /* \"#utility.yul\":3190:3212   */\n      add\n        /* \"#utility.yul\":3169:3218   */\n      tag_64\n      jump\t// in\n    tag_146:\n        /* \"#utility.yul\":3162:3166   */\n      0x00\n        /* \"#utility.yul\":3155:3160   */\n      dup4\n        /* \"#utility.yul\":3151:3167   */\n      add\n        /* \"#utility.yul\":3144:3219   */\n      mstore\n        /* \"#utility.yul\":3080:3230   */\n      pop\n        /* \"#utility.yul\":3293:3295   */\n      0x20\n        /* \"#utility.yul\":3334:3383   */\n      tag_147\n        /* \"#utility.yul\":3379:3382   */\n      dup5\n        /* \"#utility.yul\":3370:3376   */\n      dup3\n        /* \"#utility.yul\":3359:3368   */\n      dup6\n        /* \"#utility.yul\":3355:3377   */\n      add\n        /* \"#utility.yul\":3334:3383   */\n      tag_67\n      jump\t// in\n    tag_147:\n        /* \"#utility.yul\":3327:3331   */\n      0x20\n        /* \"#utility.yul\":3320:3325   */\n      dup4\n        /* \"#utility.yul\":3316:3332   */\n      add\n        /* \"#utility.yul\":3309:3384   */\n      mstore\n        /* \"#utility.yul\":3240:3395   */\n      pop\n        /* \"#utility.yul\":3467:3469   */\n      0x40\n        /* \"#utility.yul\":3508:3557   */\n      tag_148\n        /* \"#utility.yul\":3553:3556   */\n      dup5\n        /* \"#utility.yul\":3544:3550   */\n      dup3\n        /* \"#utility.yul\":3533:3542   */\n      dup6\n        /* \"#utility.yul\":3529:3551   */\n      add\n        /* \"#utility.yul\":3508:3557   */\n      tag_69\n      jump\t// in\n    tag_148:\n        /* \"#utility.yul\":3501:3505   */\n      0x40\n        /* \"#utility.yul\":3494:3499   */\n      dup4\n        /* \"#utility.yul\":3490:3506   */\n      add\n        /* \"#utility.yul\":3483:3558   */\n      mstore\n        /* \"#utility.yul\":3405:3569   */\n      pop\n        /* \"#utility.yul\":3634:3636   */\n      0x60\n        /* \"#utility.yul\":3675:3721   */\n      tag_149\n        /* \"#utility.yul\":3717:3720   */\n      dup5\n        /* \"#utility.yul\":3708:3714   */\n      dup3\n        /* \"#utility.yul\":3697:3706   */\n      dup6\n        /* \"#utility.yul\":3693:3715   */\n      add\n        /* \"#utility.yul\":3675:3721   */\n      tag_72\n      jump\t// in\n    tag_149:\n        /* \"#utility.yul\":3668:3672   */\n      0x60\n        /* \"#utility.yul\":3661:3666   */\n      dup4\n        /* \"#utility.yul\":3657:3673   */\n      add\n        /* \"#utility.yul\":3650:3722   */\n      mstore\n        /* \"#utility.yul\":3579:3733   */\n      pop\n        /* \"#utility.yul\":2822:3740   */\n      swap3\n      swap2\n      pop\n      pop\n      jump\t// out\n        /* \"#utility.yul\":3746:4130   */\n    tag_7:\n        /* \"#utility.yul\":3832:3838   */\n      0x00\n        /* \"#utility.yul\":3881:3884   */\n      0x80\n        /* \"#utility.yul\":3869:3878   */\n      dup3\n        /* \"#utility.yul\":3860:3867   */\n      dup5\n        /* \"#utility.yul\":3856:3879   */\n      sub\n        /* \"#utility.yul\":3852:3885   */\n      slt\n        /* \"#utility.yul\":3849:3969   */\n      iszero\n      tag_151\n      jumpi\n        /* \"#utility.yul\":3888:3967   */\n      tag_152\n      tag_53\n      jump\t// in\n    tag_152:\n        /* \"#utility.yul\":3849:3969   */\n    tag_151:\n        /* \"#utility.yul\":4008:4009   */\n      0x00\n        /* \"#utility.yul\":4033:4113   */\n      tag_153\n        /* \"#utility.yul\":4105:4112   */\n      dup5\n        /* \"#utility.yul\":4096:4102   */\n      dup3\n        /* \"#utility.yul\":4085:4094   */\n      dup6\n        /* \"#utility.yul\":4081:4103   */\n      add\n        /* \"#utility.yul\":4033:4113   */\n      tag_73\n      jump\t// in\n    tag_153:\n        /* \"#utility.yul\":4023:4113   */\n      swap2\n      pop\n        /* \"#utility.yul\":3979:4123   */\n      pop\n        /* \"#utility.yul\":3746:4130   */\n      swap3\n      swap2\n      pop\n      pop\n      jump\t// out\n        /* \"#utility.yul\":4136:4254   */\n    tag_74:\n        /* \"#utility.yul\":4223:4247   */\n      tag_155\n        /* \"#utility.yul\":4241:4246   */\n      dup2\n        /* \"#utility.yul\":4223:4247   */\n      tag_65\n      jump\t// in\n    tag_155:\n        /* \"#utility.yul\":4218:4221   */\n      dup3\n        /* \"#utility.yul\":4211:4248   */\n      mstore\n        /* \"#utility.yul\":4136:4254   */\n      pop\n      pop\n      jump\t// out\n        /* \"#utility.yul\":4260:4378   */\n    tag_75:\n        /* \"#utility.yul\":4347:4371   */\n      tag_157\n        /* \"#utility.yul\":4365:4370   */\n      dup2\n        /* \"#utility.yul\":4347:4371   */\n      tag_61\n      jump\t// in\n    tag_157:\n        /* \"#utility.yul\":4342:4345   */\n      dup3\n        /* \"#utility.yul\":4335:4372   */\n      mstore\n        /* \"#utility.yul\":4260:4378   */\n      pop\n      pop\n      jump\t// out\n        /* \"#utility.yul\":4384:4474   */\n    tag_76:\n        /* \"#utility.yul\":4419:4426   */\n      0x00\n        /* \"#utility.yul\":4462:4467   */\n      dup2\n        /* \"#utility.yul\":4459:4460   */\n      0x02\n        /* \"#utility.yul\":4448:4468   */\n      signextend\n        /* \"#utility.yul\":4437:4468   */\n      swap1\n      pop\n        /* \"#utility.yul\":4384:4474   */\n      swap2\n      swap1\n      pop\n      jump\t// out\n        /* \"#utility.yul\":4480:4592   */\n    tag_77:\n        /* \"#utility.yul\":4563:4585   */\n      tag_160\n        /* \"#utility.yul\":4579:4584   */\n      dup2\n        /* \"#utility.yul\":4563:4585   */\n      tag_76\n      jump\t// in\n    tag_160:\n        /* \"#utility.yul\":4558:4561   */\n      dup3\n        /* \"#utility.yul\":4551:4586   */\n      mstore\n        /* \"#utility.yul\":4480:4592   */\n      pop\n      pop\n      jump\t// out\n        /* \"#utility.yul\":4598:5032   */\n    tag_10:\n        /* \"#utility.yul\":4743:4747   */\n      0x00\n        /* \"#utility.yul\":4781:4783   */\n      0x60\n        /* \"#utility.yul\":4770:4779   */\n      dup3\n        /* \"#utility.yul\":4766:4784   */\n      add\n        /* \"#utility.yul\":4758:4784   */\n      swap1\n      pop\n        /* \"#utility.yul\":4794:4865   */\n      tag_162\n        /* \"#utility.yul\":4862:4863   */\n      0x00\n        /* \"#utility.yul\":4851:4860   */\n      dup4\n        /* \"#utility.yul\":4847:4864   */\n      add\n        /* \"#utility.yul\":4838:4844   */\n      dup7\n        /* \"#utility.yul\":4794:4865   */\n      tag_74\n      jump\t// in\n    tag_162:\n        /* \"#utility.yul\":4875:4947   */\n      tag_163\n        /* \"#utility.yul\":4943:4945   */\n      0x20\n        /* \"#utility.yul\":4932:4941   */\n      dup4\n        /* \"#utility.yul\":4928:4946   */\n      add\n        /* \"#utility.yul\":4919:4925   */\n      dup6\n        /* \"#utility.yul\":4875:4947   */\n      tag_75\n      jump\t// in\n    tag_163:\n        /* \"#utility.yul\":4957:5025   */\n      tag_164\n        /* \"#utility.yul\":5021:5023   */\n      0x40\n        /* \"#utility.yul\":5010:5019   */\n      dup4\n        /* \"#utility.yul\":5006:5024   */\n      add\n        /* \"#utility.yul\":4997:5003   */\n      dup5\n        /* \"#utility.yul\":4957:5025   */\n      tag_77\n      jump\t// in\n    tag_164:\n        /* \"#utility.yul\":4598:5032   */\n      swap5\n      swap4\n      pop\n      pop\n      pop\n      pop\n      jump\t// out\n        /* \"#utility.yul\":5038:5114   */\n    tag_78:\n        /* \"#utility.yul\":5074:5081   */\n      0x00\n        /* \"#utility.yul\":5103:5108   */\n      dup2\n        /* \"#utility.yul\":5092:5108   */\n      swap1\n      pop\n        /* \"#utility.yul\":5038:5114   */\n      swap2\n      swap1\n      pop\n      jump\t// out\n        /* \"#utility.yul\":5120:5240   */\n    tag_79:\n        /* \"#utility.yul\":5192:5215   */\n      tag_167\n        /* \"#utility.yul\":5209:5214   */\n      dup2\n        /* \"#utility.yul\":5192:5215   */\n      tag_78\n      jump\t// in\n    tag_167:\n        /* \"#utility.yul\":5185:5190   */\n      dup2\n        /* \"#utility.yul\":5182:5216   */\n      eq\n        /* \"#utility.yul\":5172:5234   */\n      tag_168\n      jumpi\n        /* \"#utility.yul\":5230:5231   */\n      0x00\n        /* \"#utility.yul\":5227:5228   */\n      dup1\n        /* \"#utility.yul\":5220:5232   */\n      revert\n        /* \"#utility.yul\":5172:5234   */\n    tag_168:\n        /* \"#utility.yul\":5120:5240   */\n      pop\n      jump\t// out\n        /* \"#utility.yul\":5246:5383   */\n    tag_80:\n        /* \"#utility.yul\":5291:5296   */\n      0x00\n        /* \"#utility.yul\":5329:5335   */\n      dup2\n        /* \"#utility.yul\":5316:5336   */\n      calldataload\n        /* \"#utility.yul\":5307:5336   */\n      swap1\n      pop\n        /* \"#utility.yul\":5345:5377   */\n      tag_170\n        /* \"#utility.yul\":5371:5376   */\n      dup2\n        /* \"#utility.yul\":5345:5377   */\n      tag_79\n      jump\t// in\n    tag_170:\n        /* \"#utility.yul\":5246:5383   */\n      swap3\n      swap2\n      pop\n      pop\n      jump\t// out\n        /* \"#utility.yul\":5389:5506   */\n    tag_81:\n        /* \"#utility.yul\":5498:5499   */\n      0x00\n        /* \"#utility.yul\":5495:5496   */\n      dup1\n        /* \"#utility.yul\":5488:5500   */\n      revert\n        /* \"#utility.yul\":5512:5629   */\n    tag_82:\n        /* \"#utility.yul\":5621:5622   */\n      0x00\n        /* \"#utility.yul\":5618:5619   */\n      dup1\n        /* \"#utility.yul\":5611:5623   */\n      revert\n        /* \"#utility.yul\":5635:5942   */\n    tag_83:\n        /* \"#utility.yul\":5696:5700   */\n      0x00\n        /* \"#utility.yul\":5786:5804   */\n      0xffffffffffffffff\n        /* \"#utility.yul\":5778:5784   */\n      dup3\n        /* \"#utility.yul\":5775:5805   */\n      gt\n        /* \"#utility.yul\":5772:5828   */\n      iszero\n      tag_174\n      jumpi\n        /* \"#utility.yul\":5808:5826   */\n      tag_175\n      tag_57\n      jump\t// in\n    tag_175:\n        /* \"#utility.yul\":5772:5828   */\n    tag_174:\n        /* \"#utility.yul\":5846:5875   */\n      tag_176\n        /* \"#utility.yul\":5868:5874   */\n      dup3\n        /* \"#utility.yul\":5846:5875   */\n      tag_56\n      jump\t// in\n    tag_176:\n        /* \"#utility.yul\":5838:5875   */\n      swap1\n      pop\n        /* \"#utility.yul\":5930:5934   */\n      0x20\n        /* \"#utility.yul\":5924:5928   */\n      dup2\n        /* \"#utility.yul\":5920:5935   */\n      add\n        /* \"#utility.yul\":5912:5935   */\n      swap1\n      pop\n        /* \"#utility.yul\":5635:5942   */\n      swap2\n      swap1\n      pop\n      jump\t// out\n        /* \"#utility.yul\":5948:6094   */\n    tag_84:\n        /* \"#utility.yul\":6045:6051   */\n      dup3\n        /* \"#utility.yul\":6040:6043   */\n      dup2\n        /* \"#utility.yul\":6035:6038   */\n      dup4\n        /* \"#utility.yul\":6022:6052   */\n      calldatacopy\n        /* \"#utility.yul\":6086:6087   */\n      0x00\n        /* \"#utility.yul\":6077:6083   */\n      dup4\n        /* \"#utility.yul\":6072:6075   */\n      dup4\n        /* \"#utility.yul\":6068:6084   */\n      add\n        /* \"#utility.yul\":6061:6088   */\n      mstore\n        /* \"#utility.yul\":5948:6094   */\n      pop\n      pop\n      pop\n      jump\t// out\n        /* \"#utility.yul\":6100:6523   */\n    tag_85:\n        /* \"#utility.yul\":6177:6182   */\n      0x00\n        /* \"#utility.yul\":6202:6267   */\n      tag_179\n        /* \"#utility.yul\":6218:6266   */\n      tag_180\n        /* \"#utility.yul\":6259:6265   */\n      dup5\n        /* \"#utility.yul\":6218:6266   */\n      tag_83\n      jump\t// in\n    tag_180:\n        /* \"#utility.yul\":6202:6267   */\n      tag_59\n      jump\t// in\n    tag_179:\n        /* \"#utility.yul\":6193:6267   */\n      swap1\n      pop\n        /* \"#utility.yul\":6290:6296   */\n      dup3\n        /* \"#utility.yul\":6283:6288   */\n      dup2\n        /* \"#utility.yul\":6276:6297   */\n      mstore\n        /* \"#utility.yul\":6328:6332   */\n      0x20\n        /* \"#utility.yul\":6321:6326   */\n      dup2\n        /* \"#utility.yul\":6317:6333   */\n      add\n        /* \"#utility.yul\":6366:6369   */\n      dup5\n        /* \"#utility.yul\":6357:6363   */\n      dup5\n        /* \"#utility.yul\":6352:6355   */\n      dup5\n        /* \"#utility.yul\":6348:6364   */\n      add\n        /* \"#utility.yul\":6345:6370   */\n      gt\n        /* \"#utility.yul\":6342:6454   */\n      iszero\n      tag_181\n      jumpi\n        /* \"#utility.yul\":6373:6452   */\n      tag_182\n      tag_82\n      jump\t// in\n    tag_182:\n        /* \"#utility.yul\":6342:6454   */\n    tag_181:\n        /* \"#utility.yul\":6463:6517   */\n      tag_183\n        /* \"#utility.yul\":6510:6516   */\n      dup5\n        /* \"#utility.yul\":6505:6508   */\n      dup3\n        /* \"#utility.yul\":6500:6503   */\n      dup6\n        /* \"#utility.yul\":6463:6517   */\n      tag_84\n      jump\t// in\n    tag_183:\n        /* \"#utility.yul\":6183:6523   */\n      pop\n        /* \"#utility.yul\":6100:6523   */\n      swap4\n      swap3\n      pop\n      pop\n      pop\n      jump\t// out\n        /* \"#utility.yul\":6542:6880   */\n    tag_86:\n        /* \"#utility.yul\":6597:6602   */\n      0x00\n        /* \"#utility.yul\":6646:6649   */\n      dup3\n        /* \"#utility.yul\":6639:6643   */\n      0x1f\n        /* \"#utility.yul\":6631:6637   */\n      dup4\n        /* \"#utility.yul\":6627:6644   */\n      add\n        /* \"#utility.yul\":6623:6650   */\n      slt\n        /* \"#utility.yul\":6613:6735   */\n      tag_185\n      jumpi\n        /* \"#utility.yul\":6654:6733   */\n      tag_186\n      tag_81\n      jump\t// in\n    tag_186:\n        /* \"#utility.yul\":6613:6735   */\n    tag_185:\n        /* \"#utility.yul\":6771:6777   */\n      dup2\n        /* \"#utility.yul\":6758:6778   */\n      calldataload\n        /* \"#utility.yul\":6796:6874   */\n      tag_187\n        /* \"#utility.yul\":6870:6873   */\n      dup5\n        /* \"#utility.yul\":6862:6868   */\n      dup3\n        /* \"#utility.yul\":6855:6859   */\n      0x20\n        /* \"#utility.yul\":6847:6853   */\n      dup7\n        /* \"#utility.yul\":6843:6860   */\n      add\n        /* \"#utility.yul\":6796:6874   */\n      tag_85\n      jump\t// in\n    tag_187:\n        /* \"#utility.yul\":6787:6874   */\n      swap2\n      pop\n        /* \"#utility.yul\":6603:6880   */\n      pop\n        /* \"#utility.yul\":6542:6880   */\n      swap3\n      swap2\n      pop\n      pop\n      jump\t// out\n        /* \"#utility.yul\":6886:7679   */\n    tag_13:\n        /* \"#utility.yul\":6970:6976   */\n      0x00\n        /* \"#utility.yul\":6978:6984   */\n      dup1\n        /* \"#utility.yul\":6986:6992   */\n      0x00\n        /* \"#utility.yul\":7035:7037   */\n      0x60\n        /* \"#utility.yul\":7023:7032   */\n      dup5\n        /* \"#utility.yul\":7014:7021   */\n      dup7\n        /* \"#utility.yul\":7010:7033   */\n      sub\n        /* \"#utility.yul\":7006:7038   */\n      slt\n        /* \"#utility.yul\":7003:7122   */\n      iszero\n      tag_189\n      jumpi\n        /* \"#utility.yul\":7041:7120   */\n      tag_190\n      tag_53\n      jump\t// in\n    tag_190:\n        /* \"#utility.yul\":7003:7122   */\n    tag_189:\n        /* \"#utility.yul\":7161:7162   */\n      0x00\n        /* \"#utility.yul\":7186:7238   */\n      tag_191\n        /* \"#utility.yul\":7230:7237   */\n      dup7\n        /* \"#utility.yul\":7221:7227   */\n      dup3\n        /* \"#utility.yul\":7210:7219   */\n      dup8\n        /* \"#utility.yul\":7206:7228   */\n      add\n        /* \"#utility.yul\":7186:7238   */\n      tag_80\n      jump\t// in\n    tag_191:\n        /* \"#utility.yul\":7176:7238   */\n      swap4\n      pop\n        /* \"#utility.yul\":7132:7248   */\n      pop\n        /* \"#utility.yul\":7287:7289   */\n      0x20\n        /* \"#utility.yul\":7313:7365   */\n      tag_192\n        /* \"#utility.yul\":7357:7364   */\n      dup7\n        /* \"#utility.yul\":7348:7354   */\n      dup3\n        /* \"#utility.yul\":7337:7346   */\n      dup8\n        /* \"#utility.yul\":7333:7355   */\n      add\n        /* \"#utility.yul\":7313:7365   */\n      tag_80\n      jump\t// in\n    tag_192:\n        /* \"#utility.yul\":7303:7365   */\n      swap3\n      pop\n        /* \"#utility.yul\":7258:7375   */\n      pop\n        /* \"#utility.yul\":7442:7444   */\n      0x40\n        /* \"#utility.yul\":7431:7440   */\n      dup5\n        /* \"#utility.yul\":7427:7445   */\n      add\n        /* \"#utility.yul\":7414:7446   */\n      calldataload\n        /* \"#utility.yul\":7473:7491   */\n      0xffffffffffffffff\n        /* \"#utility.yul\":7465:7471   */\n      dup2\n        /* \"#utility.yul\":7462:7492   */\n      gt\n        /* \"#utility.yul\":7459:7576   */\n      iszero\n      tag_193\n      jumpi\n        /* \"#utility.yul\":7495:7574   */\n      tag_194\n      tag_54\n      jump\t// in\n    tag_194:\n        /* \"#utility.yul\":7459:7576   */\n    tag_193:\n        /* \"#utility.yul\":7600:7662   */\n      tag_195\n        /* \"#utility.yul\":7654:7661   */\n      dup7\n        /* \"#utility.yul\":7645:7651   */\n      dup3\n        /* \"#utility.yul\":7634:7643   */\n      dup8\n        /* \"#utility.yul\":7630:7652   */\n      add\n        /* \"#utility.yul\":7600:7662   */\n      tag_86\n      jump\t// in\n    tag_195:\n        /* \"#utility.yul\":7590:7662   */\n      swap2\n      pop\n        /* \"#utility.yul\":7385:7672   */\n      pop\n        /* \"#utility.yul\":6886:7679   */\n      swap3\n      pop\n      swap3\n      pop\n      swap3\n      jump\t// out\n        /* \"#utility.yul\":7685:7865   */\n    tag_87:\n        /* \"#utility.yul\":7733:7810   */\n      0x4e487b7100000000000000000000000000000000000000000000000000000000\n        /* \"#utility.yul\":7730:7731   */\n      0x00\n        /* \"#utility.yul\":7723:7811   */\n      mstore\n        /* \"#utility.yul\":7830:7834   */\n      0x11\n        /* \"#utility.yul\":7827:7828   */\n      0x04\n        /* \"#utility.yul\":7820:7835   */\n      mstore\n        /* \"#utility.yul\":7854:7858   */\n      0x24\n        /* \"#utility.yul\":7851:7852   */\n      0x00\n        /* \"#utility.yul\":7844:7859   */\n      revert\n        /* \"#utility.yul\":7871:8106   */\n    tag_20:\n        /* \"#utility.yul\":7911:7915   */\n      0x00\n        /* \"#utility.yul\":7931:7951   */\n      tag_198\n        /* \"#utility.yul\":7949:7950   */\n      dup3\n        /* \"#utility.yul\":7931:7951   */\n      tag_61\n      jump\t// in\n    tag_198:\n        /* \"#utility.yul\":7926:7951   */\n      swap2\n      pop\n        /* \"#utility.yul\":7965:7985   */\n      tag_199\n        /* \"#utility.yul\":7983:7984   */\n      dup4\n        /* \"#utility.yul\":7965:7985   */\n      tag_61\n      jump\t// in\n    tag_199:\n        /* \"#utility.yul\":7960:7985   */\n      swap3\n      pop\n        /* \"#utility.yul\":8009:8010   */\n      dup3\n        /* \"#utility.yul\":8006:8007   */\n      dup3\n        /* \"#utility.yul\":8002:8011   */\n      sub\n        /* \"#utility.yul\":7994:8011   */\n      swap1\n      pop\n        /* \"#utility.yul\":8033:8075   */\n      0xffffffffffffffffffffffffffffffffffffffff\n        /* \"#utility.yul\":8027:8031   */\n      dup2\n        /* \"#utility.yul\":8024:8076   */\n      gt\n        /* \"#utility.yul\":8021:8099   */\n      iszero\n      tag_200\n      jumpi\n        /* \"#utility.yul\":8079:8097   */\n      tag_201\n      tag_87\n      jump\t// in\n    tag_201:\n        /* \"#utility.yul\":8021:8099   */\n    tag_200:\n        /* \"#utility.yul\":7871:8106   */\n      swap3\n      swap2\n      pop\n      pop\n      jump\t// out\n        /* \"#utility.yul\":8112:8344   */\n    tag_23:\n        /* \"#utility.yul\":8152:8155   */\n      0x00\n        /* \"#utility.yul\":8171:8191   */\n      tag_203\n        /* \"#utility.yul\":8189:8190   */\n      dup3\n        /* \"#utility.yul\":8171:8191   */\n      tag_61\n      jump\t// in\n    tag_203:\n        /* \"#utility.yul\":8166:8191   */\n      swap2\n      pop\n        /* \"#utility.yul\":8205:8225   */\n      tag_204\n        /* \"#utility.yul\":8223:8224   */\n      dup4\n        /* \"#utility.yul\":8205:8225   */\n      tag_61\n      jump\t// in\n    tag_204:\n        /* \"#utility.yul\":8200:8225   */\n      swap3\n      pop\n        /* \"#utility.yul\":8248:8249   */\n      dup3\n        /* \"#utility.yul\":8245:8246   */\n      dup3\n        /* \"#utility.yul\":8241:8250   */\n      add\n        /* \"#utility.yul\":8234:8250   */\n      swap1\n      pop\n        /* \"#utility.yul\":8271:8313   */\n      0xffffffffffffffffffffffffffffffffffffffff\n        /* \"#utility.yul\":8266:8269   */\n      dup2\n        /* \"#utility.yul\":8263:8314   */\n      gt\n        /* \"#utility.yul\":8260:8337   */\n      iszero\n      tag_205\n      jumpi\n        /* \"#utility.yul\":8317:8335   */\n      tag_206\n      tag_87\n      jump\t// in\n    tag_206:\n        /* \"#utility.yul\":8260:8337   */\n    tag_205:\n        /* \"#utility.yul\":8112:8344   */\n      swap3\n      swap2\n      pop\n      pop\n      jump\t// out\n        /* \"#utility.yul\":8350:8468   */\n    tag_88:\n        /* \"#utility.yul\":8437:8461   */\n      tag_208\n        /* \"#utility.yul\":8455:8460   */\n      dup2\n        /* \"#utility.yul\":8437:8461   */\n      tag_62\n      jump\t// in\n    tag_208:\n        /* \"#utility.yul\":8432:8435   */\n      dup3\n        /* \"#utility.yul\":8425:8462   */\n      mstore\n        /* \"#utility.yul\":8350:8468   */\n      pop\n      pop\n      jump\t// out\n        /* \"#utility.yul\":8474:8696   */\n    tag_25:\n        /* \"#utility.yul\":8567:8571   */\n      0x00\n        /* \"#utility.yul\":8605:8607   */\n      0x20\n        /* \"#utility.yul\":8594:8603   */\n      dup3\n        /* \"#utility.yul\":8590:8608   */\n      add\n        /* \"#utility.yul\":8582:8608   */\n      swap1\n      pop\n        /* \"#utility.yul\":8618:8689   */\n      tag_210\n        /* \"#utility.yul\":8686:8687   */\n      0x00\n        /* \"#utility.yul\":8675:8684   */\n      dup4\n        /* \"#utility.yul\":8671:8688   */\n      add\n        /* \"#utility.yul\":8662:8668   */\n      dup5\n        /* \"#utility.yul\":8618:8689   */\n      tag_88\n      jump\t// in\n    tag_210:\n        /* \"#utility.yul\":8474:8696   */\n      swap3\n      swap2\n      pop\n      pop\n      jump\t// out\n        /* \"#utility.yul\":8702:8811   */\n    tag_89:\n        /* \"#utility.yul\":8783:8804   */\n      tag_212\n        /* \"#utility.yul\":8798:8803   */\n      dup2\n        /* \"#utility.yul\":8783:8804   */\n      tag_70\n      jump\t// in\n    tag_212:\n        /* \"#utility.yul\":8778:8781   */\n      dup3\n        /* \"#utility.yul\":8771:8805   */\n      mstore\n        /* \"#utility.yul\":8702:8811   */\n      pop\n      pop\n      jump\t// out\n        /* \"#utility.yul\":8817:8915   */\n    tag_90:\n        /* \"#utility.yul\":8868:8874   */\n      0x00\n        /* \"#utility.yul\":8902:8907   */\n      dup2\n        /* \"#utility.yul\":8896:8908   */\n      mload\n        /* \"#utility.yul\":8886:8908   */\n      swap1\n      pop\n        /* \"#utility.yul\":8817:8915   */\n      swap2\n      swap1\n      pop\n      jump\t// out\n        /* \"#utility.yul\":8921:9089   */\n    tag_91:\n        /* \"#utility.yul\":9004:9015   */\n      0x00\n        /* \"#utility.yul\":9038:9044   */\n      dup3\n        /* \"#utility.yul\":9033:9036   */\n      dup3\n        /* \"#utility.yul\":9026:9045   */\n      mstore\n        /* \"#utility.yul\":9078:9082   */\n      0x20\n        /* \"#utility.yul\":9073:9076   */\n      dup3\n        /* \"#utility.yul\":9069:9083   */\n      add\n        /* \"#utility.yul\":9054:9083   */\n      swap1\n      pop\n        /* \"#utility.yul\":8921:9089   */\n      swap3\n      swap2\n      pop\n      pop\n      jump\t// out\n        /* \"#utility.yul\":9095:9341   */\n    tag_92:\n        /* \"#utility.yul\":9176:9177   */\n      0x00\n        /* \"#utility.yul\":9186:9299   */\n    tag_216:\n        /* \"#utility.yul\":9200:9206   */\n      dup4\n        /* \"#utility.yul\":9197:9198   */\n      dup2\n        /* \"#utility.yul\":9194:9207   */\n      lt\n        /* \"#utility.yul\":9186:9299   */\n      iszero\n      tag_218\n      jumpi\n        /* \"#utility.yul\":9285:9286   */\n      dup1\n        /* \"#utility.yul\":9280:9283   */\n      dup3\n        /* \"#utility.yul\":9276:9287   */\n      add\n        /* \"#utility.yul\":9270:9288   */\n      mload\n        /* \"#utility.yul\":9266:9267   */\n      dup2\n        /* \"#utility.yul\":9261:9264   */\n      dup5\n        /* \"#utility.yul\":9257:9268   */\n      add\n        /* \"#utility.yul\":9250:9289   */\n      mstore\n        /* \"#utility.yul\":9222:9224   */\n      0x20\n        /* \"#utility.yul\":9219:9220   */\n      dup2\n        /* \"#utility.yul\":9215:9225   */\n      add\n        /* \"#utility.yul\":9210:9225   */\n      swap1\n      pop\n        /* \"#utility.yul\":9186:9299   */\n      jump(tag_216)\n    tag_218:\n        /* \"#utility.yul\":9333:9334   */\n      0x00\n        /* \"#utility.yul\":9324:9330   */\n      dup5\n        /* \"#utility.yul\":9319:9322   */\n      dup5\n        /* \"#utility.yul\":9315:9331   */\n      add\n        /* \"#utility.yul\":9308:9335   */\n      mstore\n        /* \"#utility.yul\":9157:9341   */\n      pop\n        /* \"#utility.yul\":9095:9341   */\n      pop\n      pop\n      pop\n      jump\t// out\n        /* \"#utility.yul\":9347:9720   */\n    tag_93:\n        /* \"#utility.yul\":9433:9436   */\n      0x00\n        /* \"#utility.yul\":9461:9499   */\n      tag_220\n        /* \"#utility.yul\":9493:9498   */\n      dup3\n        /* \"#utility.yul\":9461:9499   */\n      tag_90\n      jump\t// in\n    tag_220:\n        /* \"#utility.yul\":9515:9585   */\n      tag_221\n        /* \"#utility.yul\":9578:9584   */\n      dup2\n        /* \"#utility.yul\":9573:9576   */\n      dup6\n        /* \"#utility.yul\":9515:9585   */\n      tag_91\n      jump\t// in\n    tag_221:\n        /* \"#utility.yul\":9508:9585   */\n      swap4\n      pop\n        /* \"#utility.yul\":9594:9659   */\n      tag_222\n        /* \"#utility.yul\":9652:9658   */\n      dup2\n        /* \"#utility.yul\":9647:9650   */\n      dup6\n        /* \"#utility.yul\":9640:9644   */\n      0x20\n        /* \"#utility.yul\":9633:9638   */\n      dup7\n        /* \"#utility.yul\":9629:9645   */\n      add\n        /* \"#utility.yul\":9594:9659   */\n      tag_92\n      jump\t// in\n    tag_222:\n        /* \"#utility.yul\":9684:9713   */\n      tag_223\n        /* \"#utility.yul\":9706:9712   */\n      dup2\n        /* \"#utility.yul\":9684:9713   */\n      tag_56\n      jump\t// in\n    tag_223:\n        /* \"#utility.yul\":9679:9682   */\n      dup5\n        /* \"#utility.yul\":9675:9714   */\n      add\n        /* \"#utility.yul\":9668:9714   */\n      swap2\n      pop\n        /* \"#utility.yul\":9437:9720   */\n      pop\n        /* \"#utility.yul\":9347:9720   */\n      swap3\n      swap2\n      pop\n      pop\n      jump\t// out\n        /* \"#utility.yul\":9726:10465   */\n    tag_27:\n        /* \"#utility.yul\":9943:9947   */\n      0x00\n        /* \"#utility.yul\":9981:9984   */\n      0xa0\n        /* \"#utility.yul\":9970:9979   */\n      dup3\n        /* \"#utility.yul\":9966:9985   */\n      add\n        /* \"#utility.yul\":9958:9985   */\n      swap1\n      pop\n        /* \"#utility.yul\":9995:10066   */\n      tag_225\n        /* \"#utility.yul\":10063:10064   */\n      0x00\n        /* \"#utility.yul\":10052:10061   */\n      dup4\n        /* \"#utility.yul\":10048:10065   */\n      add\n        /* \"#utility.yul\":10039:10045   */\n      dup9\n        /* \"#utility.yul\":9995:10066   */\n      tag_88\n      jump\t// in\n    tag_225:\n        /* \"#utility.yul\":10076:10142   */\n      tag_226\n        /* \"#utility.yul\":10138:10140   */\n      0x20\n        /* \"#utility.yul\":10127:10136   */\n      dup4\n        /* \"#utility.yul\":10123:10141   */\n      add\n        /* \"#utility.yul\":10114:10120   */\n      dup8\n        /* \"#utility.yul\":10076:10142   */\n      tag_89\n      jump\t// in\n    tag_226:\n        /* \"#utility.yul\":10152:10224   */\n      tag_227\n        /* \"#utility.yul\":10220:10222   */\n      0x40\n        /* \"#utility.yul\":10209:10218   */\n      dup4\n        /* \"#utility.yul\":10205:10223   */\n      add\n        /* \"#utility.yul\":10196:10202   */\n      dup7\n        /* \"#utility.yul\":10152:10224   */\n      tag_74\n      jump\t// in\n    tag_227:\n        /* \"#utility.yul\":10234:10306   */\n      tag_228\n        /* \"#utility.yul\":10302:10304   */\n      0x60\n        /* \"#utility.yul\":10291:10300   */\n      dup4\n        /* \"#utility.yul\":10287:10305   */\n      add\n        /* \"#utility.yul\":10278:10284   */\n      dup6\n        /* \"#utility.yul\":10234:10306   */\n      tag_75\n      jump\t// in\n    tag_228:\n        /* \"#utility.yul\":10354:10363   */\n      dup2\n        /* \"#utility.yul\":10348:10352   */\n      dup2\n        /* \"#utility.yul\":10344:10364   */\n      sub\n        /* \"#utility.yul\":10338:10341   */\n      0x80\n        /* \"#utility.yul\":10327:10336   */\n      dup4\n        /* \"#utility.yul\":10323:10342   */\n      add\n        /* \"#utility.yul\":10316:10365   */\n      mstore\n        /* \"#utility.yul\":10382:10458   */\n      tag_229\n        /* \"#utility.yul\":10453:10457   */\n      dup2\n        /* \"#utility.yul\":10444:10450   */\n      dup5\n        /* \"#utility.yul\":10382:10458   */\n      tag_93\n      jump\t// in\n    tag_229:\n        /* \"#utility.yul\":10374:10458   */\n      swap1\n      pop\n        /* \"#utility.yul\":9726:10465   */\n      swap7\n      swap6\n      pop\n      pop\n      pop\n      pop\n      pop\n      pop\n      jump\t// out\n        /* \"#utility.yul\":10471:10612   */\n    tag_94:\n        /* \"#utility.yul\":10527:10532   */\n      0x00\n        /* \"#utility.yul\":10558:10564   */\n      dup2\n        /* \"#utility.yul\":10552:10565   */\n      mload\n        /* \"#utility.yul\":10543:10565   */\n      swap1\n      pop\n        /* \"#utility.yul\":10574:10606   */\n      tag_231\n        /* \"#utility.yul\":10600:10605   */\n      dup2\n        /* \"#utility.yul\":10574:10606   */\n      tag_79\n      jump\t// in\n    tag_231:\n        /* \"#utility.yul\":10471:10612   */\n      swap3\n      swap2\n      pop\n      pop\n      jump\t// out\n        /* \"#utility.yul\":10618:11121   */\n    tag_30:\n        /* \"#utility.yul\":10695:10701   */\n      0x00\n        /* \"#utility.yul\":10703:10709   */\n      dup1\n        /* \"#utility.yul\":10752:10754   */\n      0x40\n        /* \"#utility.yul\":10740:10749   */\n      dup4\n        /* \"#utility.yul\":10731:10738   */\n      dup6\n        /* \"#utility.yul\":10727:10750   */\n      sub\n        /* \"#utility.yul\":10723:10755   */\n      slt\n        /* \"#utility.yul\":10720:10839   */\n      iszero\n      tag_233\n      jumpi\n        /* \"#utility.yul\":10758:10837   */\n      tag_234\n      tag_53\n      jump\t// in\n    tag_234:\n        /* \"#utility.yul\":10720:10839   */\n    tag_233:\n        /* \"#utility.yul\":10878:10879   */\n      0x00\n        /* \"#utility.yul\":10903:10966   */\n      tag_235\n        /* \"#utility.yul\":10958:10965   */\n      dup6\n        /* \"#utility.yul\":10949:10955   */\n      dup3\n        /* \"#utility.yul\":10938:10947   */\n      dup7\n        /* \"#utility.yul\":10934:10956   */\n      add\n        /* \"#utility.yul\":10903:10966   */\n      tag_94\n      jump\t// in\n    tag_235:\n        /* \"#utility.yul\":10893:10966   */\n      swap3\n      pop\n        /* \"#utility.yul\":10849:10976   */\n      pop\n        /* \"#utility.yul\":11015:11017   */\n      0x20\n        /* \"#utility.yul\":11041:11104   */\n      tag_236\n        /* \"#utility.yul\":11096:11103   */\n      dup6\n        /* \"#utility.yul\":11087:11093   */\n      dup3\n        /* \"#utility.yul\":11076:11085   */\n      dup7\n        /* \"#utility.yul\":11072:11094   */\n      add\n        /* \"#utility.yul\":11041:11104   */\n      tag_94\n      jump\t// in\n    tag_236:\n        /* \"#utility.yul\":11031:11104   */\n      swap2\n      pop\n        /* \"#utility.yul\":10986:11114   */\n      pop\n        /* \"#utility.yul\":10618:11121   */\n      swap3\n      pop\n      swap3\n      swap1\n      pop\n      jump\t// out\n        /* \"#utility.yul\":11127:11270   */\n    tag_95:\n        /* \"#utility.yul\":11184:11189   */\n      0x00\n        /* \"#utility.yul\":11215:11221   */\n      dup2\n        /* \"#utility.yul\":11209:11222   */\n      mload\n        /* \"#utility.yul\":11200:11222   */\n      swap1\n      pop\n        /* \"#utility.yul\":11231:11264   */\n      tag_238\n        /* \"#utility.yul\":11258:11263   */\n      dup2\n        /* \"#utility.yul\":11231:11264   */\n      tag_66\n      jump\t// in\n    tag_238:\n        /* \"#utility.yul\":11127:11270   */\n      swap3\n      swap2\n      pop\n      pop\n      jump\t// out\n        /* \"#utility.yul\":11276:11419   */\n    tag_96:\n        /* \"#utility.yul\":11333:11338   */\n      0x00\n        /* \"#utility.yul\":11364:11370   */\n      dup2\n        /* \"#utility.yul\":11358:11371   */\n      mload\n        /* \"#utility.yul\":11349:11371   */\n      swap1\n      pop\n        /* \"#utility.yul\":11380:11413   */\n      tag_240\n        /* \"#utility.yul\":11407:11412   */\n      dup2\n        /* \"#utility.yul\":11380:11413   */\n      tag_68\n      jump\t// in\n    tag_240:\n        /* \"#utility.yul\":11276:11419   */\n      swap3\n      swap2\n      pop\n      pop\n      jump\t// out\n        /* \"#utility.yul\":11425:11543   */\n    tag_97:\n        /* \"#utility.yul\":11496:11518   */\n      tag_242\n        /* \"#utility.yul\":11512:11517   */\n      dup2\n        /* \"#utility.yul\":11496:11518   */\n      tag_76\n      jump\t// in\n    tag_242:\n        /* \"#utility.yul\":11489:11494   */\n      dup2\n        /* \"#utility.yul\":11486:11519   */\n      eq\n        /* \"#utility.yul\":11476:11537   */\n      tag_243\n      jumpi\n        /* \"#utility.yul\":11533:11534   */\n      0x00\n        /* \"#utility.yul\":11530:11531   */\n      dup1\n        /* \"#utility.yul\":11523:11535   */\n      revert\n        /* \"#utility.yul\":11476:11537   */\n    tag_243:\n        /* \"#utility.yul\":11425:11543   */\n      pop\n      jump\t// out\n        /* \"#utility.yul\":11549:11688   */\n    tag_98:\n        /* \"#utility.yul\":11604:11609   */\n      0x00\n        /* \"#utility.yul\":11635:11641   */\n      dup2\n        /* \"#utility.yul\":11629:11642   */\n      mload\n        /* \"#utility.yul\":11620:11642   */\n      swap1\n      pop\n        /* \"#utility.yul\":11651:11682   */\n      tag_245\n        /* \"#utility.yul\":11676:11681   */\n      dup2\n        /* \"#utility.yul\":11651:11682   */\n      tag_97\n      jump\t// in\n    tag_245:\n        /* \"#utility.yul\":11549:11688   */\n      swap3\n      swap2\n      pop\n      pop\n      jump\t// out\n        /* \"#utility.yul\":11694:12353   */\n    tag_38:\n        /* \"#utility.yul\":11780:11786   */\n      0x00\n        /* \"#utility.yul\":11788:11794   */\n      dup1\n        /* \"#utility.yul\":11796:11802   */\n      0x00\n        /* \"#utility.yul\":11845:11847   */\n      0x60\n        /* \"#utility.yul\":11833:11842   */\n      dup5\n        /* \"#utility.yul\":11824:11831   */\n      dup7\n        /* \"#utility.yul\":11820:11843   */\n      sub\n        /* \"#utility.yul\":11816:11848   */\n      slt\n        /* \"#utility.yul\":11813:11932   */\n      iszero\n      tag_247\n      jumpi\n        /* \"#utility.yul\":11851:11930   */\n      tag_248\n      tag_53\n      jump\t// in\n    tag_248:\n        /* \"#utility.yul\":11813:11932   */\n    tag_247:\n        /* \"#utility.yul\":11971:11972   */\n      0x00\n        /* \"#utility.yul\":11996:12060   */\n      tag_249\n        /* \"#utility.yul\":12052:12059   */\n      dup7\n        /* \"#utility.yul\":12043:12049   */\n      dup3\n        /* \"#utility.yul\":12032:12041   */\n      dup8\n        /* \"#utility.yul\":12028:12050   */\n      add\n        /* \"#utility.yul\":11996:12060   */\n      tag_95\n      jump\t// in\n    tag_249:\n        /* \"#utility.yul\":11986:12060   */\n      swap4\n      pop\n        /* \"#utility.yul\":11942:12070   */\n      pop\n        /* \"#utility.yul\":12109:12111   */\n      0x20\n        /* \"#utility.yul\":12135:12199   */\n      tag_250\n        /* \"#utility.yul\":12191:12198   */\n      dup7\n        /* \"#utility.yul\":12182:12188   */\n      dup3\n        /* \"#utility.yul\":12171:12180   */\n      dup8\n        /* \"#utility.yul\":12167:12189   */\n      add\n        /* \"#utility.yul\":12135:12199   */\n      tag_96\n      jump\t// in\n    tag_250:\n        /* \"#utility.yul\":12125:12199   */\n      swap3\n      pop\n        /* \"#utility.yul\":12080:12209   */\n      pop\n        /* \"#utility.yul\":12248:12250   */\n      0x40\n        /* \"#utility.yul\":12274:12336   */\n      tag_251\n        /* \"#utility.yul\":12328:12335   */\n      dup7\n        /* \"#utility.yul\":12319:12325   */\n      dup3\n        /* \"#utility.yul\":12308:12317   */\n      dup8\n        /* \"#utility.yul\":12304:12326   */\n      add\n        /* \"#utility.yul\":12274:12336   */\n      tag_98\n      jump\t// in\n    tag_251:\n        /* \"#utility.yul\":12264:12336   */\n      swap2\n      pop\n        /* \"#utility.yul\":12219:12346   */\n      pop\n        /* \"#utility.yul\":11694:12353   */\n      swap3\n      pop\n      swap3\n      pop\n      swap3\n      jump\t// out\n        /* \"#utility.yul\":12359:12463   */\n    tag_99:\n        /* \"#utility.yul\":12404:12411   */\n      0x00\n        /* \"#utility.yul\":12433:12457   */\n      tag_253\n        /* \"#utility.yul\":12451:12456   */\n      dup3\n        /* \"#utility.yul\":12433:12457   */\n      tag_61\n      jump\t// in\n    tag_253:\n        /* \"#utility.yul\":12422:12457   */\n      swap1\n      pop\n        /* \"#utility.yul\":12359:12463   */\n      swap2\n      swap1\n      pop\n      jump\t// out\n        /* \"#utility.yul\":12469:12607   */\n    tag_100:\n        /* \"#utility.yul\":12550:12582   */\n      tag_255\n        /* \"#utility.yul\":12576:12581   */\n      dup2\n        /* \"#utility.yul\":12550:12582   */\n      tag_99\n      jump\t// in\n    tag_255:\n        /* \"#utility.yul\":12543:12548   */\n      dup2\n        /* \"#utility.yul\":12540:12583   */\n      eq\n        /* \"#utility.yul\":12530:12601   */\n      tag_256\n      jumpi\n        /* \"#utility.yul\":12597:12598   */\n      0x00\n        /* \"#utility.yul\":12594:12595   */\n      dup1\n        /* \"#utility.yul\":12587:12599   */\n      revert\n        /* \"#utility.yul\":12530:12601   */\n    tag_256:\n        /* \"#utility.yul\":12469:12607   */\n      pop\n      jump\t// out\n        /* \"#utility.yul\":12613:12772   */\n    tag_101:\n        /* \"#utility.yul\":12678:12683   */\n      0x00\n        /* \"#utility.yul\":12709:12715   */\n      dup2\n        /* \"#utility.yul\":12703:12716   */\n      mload\n        /* \"#utility.yul\":12694:12716   */\n      swap1\n      pop\n        /* \"#utility.yul\":12725:12766   */\n      tag_258\n        /* \"#utility.yul\":12760:12765   */\n      dup2\n        /* \"#utility.yul\":12725:12766   */\n      tag_100\n      jump\t// in\n    tag_258:\n        /* \"#utility.yul\":12613:12772   */\n      swap3\n      swap2\n      pop\n      pop\n      jump\t// out\n        /* \"#utility.yul\":12778:13145   */\n    tag_42:\n        /* \"#utility.yul\":12856:12862   */\n      0x00\n        /* \"#utility.yul\":12905:12907   */\n      0x20\n        /* \"#utility.yul\":12893:12902   */\n      dup3\n        /* \"#utility.yul\":12884:12891   */\n      dup5\n        /* \"#utility.yul\":12880:12903   */\n      sub\n        /* \"#utility.yul\":12876:12908   */\n      slt\n        /* \"#utility.yul\":12873:12992   */\n      iszero\n      tag_260\n      jumpi\n        /* \"#utility.yul\":12911:12990   */\n      tag_261\n      tag_53\n      jump\t// in\n    tag_261:\n        /* \"#utility.yul\":12873:12992   */\n    tag_260:\n        /* \"#utility.yul\":13031:13032   */\n      0x00\n        /* \"#utility.yul\":13056:13128   */\n      tag_262\n        /* \"#utility.yul\":13120:13127   */\n      dup5\n        /* \"#utility.yul\":13111:13117   */\n      dup3\n        /* \"#utility.yul\":13100:13109   */\n      dup6\n        /* \"#utility.yul\":13096:13118   */\n      add\n        /* \"#utility.yul\":13056:13128   */\n      tag_101\n      jump\t// in\n    tag_262:\n        /* \"#utility.yul\":13046:13128   */\n      swap2\n      pop\n        /* \"#utility.yul\":13002:13138   */\n      pop\n        /* \"#utility.yul\":12778:13145   */\n      swap3\n      swap2\n      pop\n      pop\n      jump\t// out\n        /* \"#utility.yul\":13151:13379   */\n    tag_45:\n        /* \"#utility.yul\":13186:13189   */\n      0x00\n        /* \"#utility.yul\":13209:13232   */\n      tag_264\n        /* \"#utility.yul\":13226:13231   */\n      dup3\n        /* \"#utility.yul\":13209:13232   */\n      tag_78\n      jump\t// in\n    tag_264:\n        /* \"#utility.yul\":13200:13232   */\n      swap2\n      pop\n        /* \"#utility.yul\":13254:13320   */\n      0x8000000000000000000000000000000000000000000000000000000000000000\n        /* \"#utility.yul\":13247:13252   */\n      dup3\n        /* \"#utility.yul\":13244:13321   */\n      sub\n        /* \"#utility.yul\":13241:13344   */\n      tag_265\n      jumpi\n        /* \"#utility.yul\":13324:13342   */\n      tag_266\n      tag_87\n      jump\t// in\n    tag_266:\n        /* \"#utility.yul\":13241:13344   */\n    tag_265:\n        /* \"#utility.yul\":13367:13372   */\n      dup2\n        /* \"#utility.yul\":13364:13365   */\n      0x00\n        /* \"#utility.yul\":13360:13373   */\n      sub\n        /* \"#utility.yul\":13353:13373   */\n      swap1\n      pop\n        /* \"#utility.yul\":13151:13379   */\n      swap2\n      swap1\n      pop\n      jump\t// out\n        /* \"#utility.yul\":13385:13888   */\n    tag_51:\n        /* \"#utility.yul\":13462:13468   */\n      0x00\n        /* \"#utility.yul\":13470:13476   */\n      dup1\n        /* \"#utility.yul\":13519:13521   */\n      0x40\n        /* \"#utility.yul\":13507:13516   */\n      dup4\n        /* \"#utility.yul\":13498:13505   */\n      dup6\n        /* \"#utility.yul\":13494:13517   */\n      sub\n        /* \"#utility.yul\":13490:13522   */\n      slt\n        /* \"#utility.yul\":13487:13606   */\n      iszero\n      tag_268\n      jumpi\n        /* \"#utility.yul\":13525:13604   */\n      tag_269\n      tag_53\n      jump\t// in\n    tag_269:\n        /* \"#utility.yul\":13487:13606   */\n    tag_268:\n        /* \"#utility.yul\":13645:13646   */\n      0x00\n        /* \"#utility.yul\":13670:13734   */\n      tag_270\n        /* \"#utility.yul\":13726:13733   */\n      dup6\n        /* \"#utility.yul\":13717:13723   */\n      dup3\n        /* \"#utility.yul\":13706:13715   */\n      dup7\n        /* \"#utility.yul\":13702:13724   */\n      add\n        /* \"#utility.yul\":13670:13734   */\n      tag_96\n      jump\t// in\n    tag_270:\n        /* \"#utility.yul\":13660:13734   */\n      swap3\n      pop\n        /* \"#utility.yul\":13616:13744   */\n      pop\n        /* \"#utility.yul\":13783:13785   */\n      0x20\n        /* \"#utility.yul\":13809:13871   */\n      tag_271\n        /* \"#utility.yul\":13863:13870   */\n      dup6\n        /* \"#utility.yul\":13854:13860   */\n      dup3\n        /* \"#utility.yul\":13843:13852   */\n      dup7\n        /* \"#utility.yul\":13839:13861   */\n      add\n        /* \"#utility.yul\":13809:13871   */\n      tag_98\n      jump\t// in\n    tag_271:\n        /* \"#utility.yul\":13799:13871   */\n      swap2\n      pop\n        /* \"#utility.yul\":13754:13881   */\n      pop\n        /* \"#utility.yul\":13385:13888   */\n      swap3\n      pop\n      swap3\n      swap1\n      pop\n      jump\t// out\n\n    auxdata: 0xa26469706673582212200477f69990f2d8dd59cddad9686724aeb5585f3f0bd876241e32729a7f9ece7464736f6c63430008180033\n}\n",
				"bytecode": {
					"linkReferences": {},
					"object": "608060405234801561000f575f80fd5b50610a828061001d5f395ff3fe608060405234801561000f575f80fd5b5060043610610034575f3560e01c8063482a3dc614610038578063fa483e721461006a575b5f80fd5b610052600480360381019061004d91906104be565b610086565b60405161006193929190610522565b60405180910390f35b610084600480360381019061007f919061063e565b6101fc565b005b5f805f835f015173ffffffffffffffffffffffffffffffffffffffff1663dd5a12d830866060015187602001515f896040015173ffffffffffffffffffffffffffffffffffffffff16146100de578860400151610121565b886060015161010d57600173fffd8963efd1fc6a506488495d951d5263988d2661010891906106d7565b610120565b60016401000276a361011f919061071e565b5b5b895f01516040516020016101359190610774565b6040516020818303038152906040526040518663ffffffff1660e01b8152600401610164959493929190610816565b60408051808303815f875af192505050801561019e57506040513d601f19601f8201168201806040525081019061019b9190610882565b60015b6101f2573d805f81146101cc576040519150601f19603f3d011682016040523d82523d5f602084013e6101d1565b606091505b50808060200190518101906101e69190610912565b935093509350506101f5565b50505b9193909250565b5f81806020019051810190610211919061099d565b90505f80851361022a5784610225906109c8565b610235565b83610234906109c8565b5b90505f808373ffffffffffffffffffffffffffffffffffffffff16633850c7bd6040518163ffffffff1660e01b81526004016040805180830381865afa158015610281573d5f803e3d5ffd5b505050506040513d601f19601f820116820180604052508101906102a59190610a0e565b91509150604051838152826020820152816040820152606081fd5b5f604051905090565b5f80fd5b5f80fd5b5f80fd5b5f601f19601f8301169050919050565b7f4e487b71000000000000000000000000000000000000000000000000000000005f52604160045260245ffd5b61031b826102d5565b810181811067ffffffffffffffff8211171561033a576103396102e5565b5b80604052505050565b5f61034c6102c0565b90506103588282610312565b919050565b5f73ffffffffffffffffffffffffffffffffffffffff82169050919050565b5f6103868261035d565b9050919050565b6103968161037c565b81146103a0575f80fd5b50565b5f813590506103b18161038d565b92915050565b5f819050919050565b6103c9816103b7565b81146103d3575f80fd5b50565b5f813590506103e4816103c0565b92915050565b6103f38161035d565b81146103fd575f80fd5b50565b5f8135905061040e816103ea565b92915050565b5f8115159050919050565b61042881610414565b8114610432575f80fd5b50565b5f813590506104438161041f565b92915050565b5f6080828403121561045e5761045d6102d1565b5b6104686080610343565b90505f610477848285016103a3565b5f83015250602061048a848285016103d6565b602083015250604061049e84828501610400565b60408301525060606104b284828501610435565b60608301525092915050565b5f608082840312156104d3576104d26102c9565b5b5f6104e084828501610449565b91505092915050565b6104f2816103b7565b82525050565b6105018161035d565b82525050565b5f8160020b9050919050565b61051c81610507565b82525050565b5f6060820190506105355f8301866104e9565b61054260208301856104f8565b61054f6040830184610513565b949350505050565b5f819050919050565b61056981610557565b8114610573575f80fd5b50565b5f8135905061058481610560565b92915050565b5f80fd5b5f80fd5b5f67ffffffffffffffff8211156105ac576105ab6102e5565b5b6105b5826102d5565b9050602081019050919050565b828183375f83830152505050565b5f6105e26105dd84610592565b610343565b9050828152602081018484840111156105fe576105fd61058e565b5b6106098482856105c2565b509392505050565b5f82601f8301126106255761062461058a565b5b81356106358482602086016105d0565b91505092915050565b5f805f60608486031215610655576106546102c9565b5b5f61066286828701610576565b935050602061067386828701610576565b925050604084013567ffffffffffffffff811115610694576106936102cd565b5b6106a086828701610611565b9150509250925092565b7f4e487b71000000000000000000000000000000000000000000000000000000005f52601160045260245ffd5b5f6106e18261035d565b91506106ec8361035d565b9250828203905073ffffffffffffffffffffffffffffffffffffffff811115610718576107176106aa565b5b92915050565b5f6107288261035d565b91506107338361035d565b9250828201905073ffffffffffffffffffffffffffffffffffffffff81111561075f5761075e6106aa565b5b92915050565b61076e8161037c565b82525050565b5f6020820190506107875f830184610765565b92915050565b61079681610414565b82525050565b5f81519050919050565b5f82825260208201905092915050565b5f5b838110156107d35780820151818401526020810190506107b8565b5f8484015250505050565b5f6107e88261079c565b6107f281856107a6565b93506108028185602086016107b6565b61080b816102d5565b840191505092915050565b5f60a0820190506108295f830188610765565b610836602083018761078d565b61084360408301866104e9565b61085060608301856104f8565b818103608083015261086281846107de565b90509695505050505050565b5f8151905061087c81610560565b92915050565b5f8060408385031215610898576108976102c9565b5b5f6108a58582860161086e565b92505060206108b68582860161086e565b9150509250929050565b5f815190506108ce816103c0565b92915050565b5f815190506108e2816103ea565b92915050565b6108f181610507565b81146108fb575f80fd5b50565b5f8151905061090c816108e8565b92915050565b5f805f60608486031215610929576109286102c9565b5b5f610936868287016108c0565b9350506020610947868287016108d4565b9250506040610958868287016108fe565b9150509250925092565b5f61096c8261035d565b9050919050565b61097c81610962565b8114610986575f80fd5b50565b5f8151905061099781610973565b92915050565b5f602082840312156109b2576109b16102c9565b5b5f6109bf84828501610989565b91505092915050565b5f6109d282610557565b91507f80000000000000000000000000000000000000000000000000000000000000008203610a0457610a036106aa565b5b815f039050919050565b5f8060408385031215610a2457610a236102c9565b5b5f610a31858286016108d4565b9250506020610a42858286016108fe565b915050925092905056fea26469706673582212200477f69990f2d8dd59cddad9686724aeb5585f3f0bd876241e32729a7f9ece7464736f6c63430008180033",
					"opcodes": "PUSH1 0x80 PUSH1 0x40 MSTORE CALLVALUE DUP1 ISZERO PUSH2 0xF JUMPI PUSH0 DUP1 REVERT JUMPDEST POP PUSH2 0xA82 DUP1 PUSH2 0x1D PUSH0 CODECOPY PUSH0 RETURN INVALID PUSH1 0x80 PUSH1 0x40 MSTORE CALLVALUE DUP1 ISZERO PUSH2 0xF JUMPI PUSH0 DUP1 REVERT JUMPDEST POP PUSH1 0x4 CALLDATASIZE LT PUSH2 0x34 JUMPI PUSH0 CALLDATALOAD PUSH1 0xE0 SHR DUP1 PUSH4 0x482A3DC6 EQ PUSH2 0x38 JUMPI DUP1 PUSH4 0xFA483E72 EQ PUSH2 0x6A JUMPI JUMPDEST PUSH0 DUP1 REVERT JUMPDEST PUSH2 0x52 PUSH1 0x4 DUP1 CALLDATASIZE SUB DUP2 ADD SWAP1 PUSH2 0x4D SWAP2 SWAP1 PUSH2 0x4BE JUMP JUMPDEST PUSH2 0x86 JUMP JUMPDEST PUSH1 0x40 MLOAD PUSH2 0x61 SWAP4 SWAP3 SWAP2 SWAP1 PUSH2 0x522 JUMP JUMPDEST PUSH1 0x40 MLOAD DUP1 SWAP2 SUB SWAP1 RETURN JUMPDEST PUSH2 0x84 PUSH1 0x4 DUP1 CALLDATASIZE SUB DUP2 ADD SWAP1 PUSH2 0x7F SWAP2 SWAP1 PUSH2 0x63E JUMP JUMPDEST PUSH2 0x1FC JUMP JUMPDEST STOP JUMPDEST PUSH0 DUP1 PUSH0 DUP4 PUSH0 ADD MLOAD PUSH20 0xFFFFFFFFFFFFFFFFFFFFFFFFFFFFFFFFFFFFFFFF AND PUSH4 0xDD5A12D8 ADDRESS DUP7 PUSH1 0x60 ADD MLOAD DUP8 PUSH1 0x20 ADD MLOAD PUSH0 DUP10 PUSH1 0x40 ADD MLOAD PUSH20 0xFFFFFFFFFFFFFFFFFFFFFFFFFFFFFFFFFFFFFFFF AND EQ PUSH2 0xDE JUMPI DUP9 PUSH1 0x40 ADD MLOAD PUSH2 0x121 JUMP JUMPDEST DUP9 PUSH1 0x60 ADD MLOAD PUSH2 0x10D JUMPI PUSH1 0x1 PUSH20 0xFFFD8963EFD1FC6A506488495D951D5263988D26 PUSH2 0x108 SWAP2 SWAP1 PUSH2 0x6D7 JUMP JUMPDEST PUSH2 0x120 JUMP JUMPDEST PUSH1 0x1 PUSH5 0x1000276A3 PUSH2 0x11F SWAP2 SWAP1 PUSH2 0x71E JUMP JUMPDEST JUMPDEST JUMPDEST DUP10 PUSH0 ADD MLOAD PUSH1 0x40 MLOAD PUSH1 0x20 ADD PUSH2 0x135 SWAP2 SWAP1 PUSH2 0x774 JUMP JUMPDEST PUSH1 0x40 MLOAD PUSH1 0x20 DUP2 DUP4 SUB SUB DUP2 MSTORE SWAP1 PUSH1 0x40 MSTORE PUSH1 0x40 MLOAD DUP7 PUSH4 0xFFFFFFFF AND PUSH1 0xE0 SHL DUP2 MSTORE PUSH1 0x4 ADD PUSH2 0x164 SWAP6 SWAP5 SWAP4 SWAP3 SWAP2 SWAP1 PUSH2 0x816 JUMP JUMPDEST PUSH1 0x40 DUP1 MLOAD DUP1 DUP4 SUB DUP2 PUSH0 DUP8 GAS CALL SWAP3 POP POP POP DUP1 ISZERO PUSH2 0x19E JUMPI POP PUSH1 0x40 MLOAD RETURNDATASIZE PUSH1 0x1F NOT PUSH1 0x1F DUP3 ADD AND DUP3 ADD DUP1 PUSH1 0x40 MSTORE POP DUP2 ADD SWAP1 PUSH2 0x19B SWAP2 SWAP1 PUSH2 0x882 JUMP JUMPDEST PUSH1 0x1 JUMPDEST PUSH2 0x1F2 JUMPI RETURNDATASIZE DUP1 PUSH0 DUP2 EQ PUSH2 0x1CC JUMPI PUSH1 0x40 MLOAD SWAP2 POP PUSH1 0x1F NOT PUSH1 0x3F RETURNDATASIZE ADD AND DUP3 ADD PUSH1 0x40 MSTORE RETURNDATASIZE DUP3 MSTORE RETURNDATASIZE PUSH0 PUSH1 0x20 DUP5 ADD RETURNDATACOPY PUSH2 0x1D1 JUMP JUMPDEST PUSH1 0x60 SWAP2 POP JUMPDEST POP DUP1 DUP1 PUSH1 0x20 ADD SWAP1 MLOAD DUP2 ADD SWAP1 PUSH2 0x1E6 SWAP2 SWAP1 PUSH2 0x912 JUMP JUMPDEST SWAP4 POP SWAP4 POP SWAP4 POP POP PUSH2 0x1F5 JUMP JUMPDEST POP POP JUMPDEST SWAP2 SWAP4 SWAP1 SWAP3 POP JUMP JUMPDEST PUSH0 DUP2 DUP1 PUSH1 0x20 ADD SWAP1 MLOAD DUP2 ADD SWAP1 PUSH2 0x211 SWAP2 SWAP1 PUSH2 0x99D JUMP JUMPDEST SWAP1 POP PUSH0 DUP1 DUP6 SGT PUSH2 0x22A JUMPI DUP5 PUSH2 0x225 SWAP1 PUSH2 0x9C8 JUMP JUMPDEST PUSH2 0x235 JUMP JUMPDEST DUP4 PUSH2 0x234 SWAP1 PUSH2 0x9C8 JUMP JUMPDEST JUMPDEST SWAP1 POP PUSH0 DUP1 DUP4 PUSH20 0xFFFFFFFFFFFFFFFFFFFFFFFFFFFFFFFFFFFFFFFF AND PUSH4 0x3850C7BD PUSH1 0x40 MLOAD DUP2 PUSH4 0xFFFFFFFF AND PUSH1 0xE0 SHL DUP2 MSTORE PUSH1 0x4 ADD PUSH1 0x40 DUP1 MLOAD DUP1 DUP4 SUB DUP2 DUP7 GAS STATICCALL ISZERO DUP1 ISZERO PUSH2 0x281 JUMPI RETURNDATASIZE PUSH0 DUP1 RETURNDATACOPY RETURNDATASIZE PUSH0 REVERT JUMPDEST POP POP POP POP PUSH1 0x40 MLOAD RETURNDATASIZE PUSH1 0x1F NOT PUSH1 0x1F DUP3 ADD AND DUP3 ADD DUP1 PUSH1 0x40 MSTORE POP DUP2 ADD SWAP1 PUSH2 0x2A5 SWAP2 SWAP1 PUSH2 0xA0E JUMP JUMPDEST SWAP2 POP SWAP2 POP PUSH1 0x40 MLOAD DUP4 DUP2 MSTORE DUP3 PUSH1 0x20 DUP3 ADD MSTORE DUP2 PUSH1 0x40 DUP3 ADD MSTORE PUSH1 0x60 DUP2 REVERT JUMPDEST PUSH0 PUSH1 0x40 MLOAD SWAP1 POP SWAP1 JUMP JUMPDEST PUSH0 DUP1 REVERT JUMPDEST PUSH0 DUP1 REVERT JUMPDEST PUSH0 DUP1 REVERT JUMPDEST PUSH0 PUSH1 0x1F NOT PUSH1 0x1F DUP4 ADD AND SWAP1 POP SWAP2 SWAP1 POP JUMP JUMPDEST PUSH32 0x4E487B7100000000000000000000000000000000000000000000000000000000 PUSH0 MSTORE PUSH1 0x41 PUSH1 0x4 MSTORE PUSH1 0x24 PUSH0 REVERT JUMPDEST PUSH2 0x31B DUP3 PUSH2 0x2D5 JUMP JUMPDEST DUP2 ADD DUP2 DUP2 LT PUSH8 0xFFFFFFFFFFFFFFFF DUP3 GT OR ISZERO PUSH2 0x33A JUMPI PUSH2 0x339 PUSH2 0x2E5 JUMP JUMPDEST JUMPDEST DUP1 PUSH1 0x40 MSTORE POP POP POP JUMP JUMPDEST PUSH0 PUSH2 0x34C PUSH2 0x2C0 JUMP JUMPDEST SWAP1 POP PUSH2 0x358 DUP3 DUP3 PUSH2 0x312 JUMP JUMPDEST SWAP2 SWAP1 POP JUMP JUMPDEST PUSH0 PUSH20 0xFFFFFFFFFFFFFFFFFFFFFFFFFFFFFFFFFFFFFFFF DUP3 AND SWAP1 POP SWAP2 SWAP1 POP JUMP JUMPDEST PUSH0 PUSH2 0x386 DUP3 PUSH2 0x35D JUMP JUMPDEST SWAP1 POP SWAP2 SWAP1 POP JUMP JUMPDEST PUSH2 0x396 DUP2 PUSH2 0x37C JUMP JUMPDEST DUP2 EQ PUSH2 0x3A0 JUMPI PUSH0 DUP1 REVERT JUMPDEST POP JUMP JUMPDEST PUSH0 DUP2 CALLDATALOAD SWAP1 POP PUSH2 0x3B1 DUP2 PUSH2 0x38D JUMP JUMPDEST SWAP3 SWAP2 POP POP JUMP JUMPDEST PUSH0 DUP2 SWAP1 POP SWAP2 SWAP1 POP JUMP JUMPDEST PUSH2 0x3C9 DUP2 PUSH2 0x3B7 JUMP JUMPDEST DUP2 EQ PUSH2 0x3D3 JUMPI PUSH0 DUP1 REVERT JUMPDEST POP JUMP JUMPDEST PUSH0 DUP2 CALLDATALOAD SWAP1 POP PUSH2 0x3E4 DUP2 PUSH2 0x3C0 JUMP JUMPDEST SWAP3 SWAP2 POP POP JUMP JUMPDEST PUSH2 0x3F3 DUP2 PUSH2 0x35D JUMP JUMPDEST DUP2 EQ PUSH2 0x3FD JUMPI PUSH0 DUP1 REVERT JUMPDEST POP JUMP JUMPDEST PUSH0 DUP2 CALLDATALOAD SWAP1 POP PUSH2 0x40E DUP2 PUSH2 0x3EA JUMP JUMPDEST SWAP3 SWAP2 POP POP JUMP JUMPDEST PUSH0 DUP2 ISZERO ISZERO SWAP1 POP SWAP2 SWAP1 POP JUMP JUMPDEST PUSH2 0x428 DUP2 PUSH2 0x414 JUMP JUMPDEST DUP2 EQ PUSH2 0x432 JUMPI PUSH0 DUP1 REVERT JUMPDEST POP JUMP JUMPDEST PUSH0 DUP2 CALLDATALOAD SWAP1 POP PUSH2 0x443 DUP2 PUSH2 0x41F JUMP JUMPDEST SWAP3 SWAP2 POP POP JUMP JUMPDEST PUSH0 PUSH1 0x80 DUP3 DUP5 SUB SLT ISZERO PUSH2 0x45E JUMPI PUSH2 0x45D PUSH2 0x2D1 JUMP JUMPDEST JUMPDEST PUSH2 0x468 PUSH1 0x80 PUSH2 0x343 JUMP JUMPDEST SWAP1 POP PUSH0 PUSH2 0x477 DUP5 DUP3 DUP6 ADD PUSH2 0x3A3 JUMP JUMPDEST PUSH0 DUP4 ADD MSTORE POP PUSH1 0x20 PUSH2 0x48A DUP5 DUP3 DUP6 ADD PUSH2 0x3D6 JUMP JUMPDEST PUSH1 0x20 DUP4 ADD MSTORE POP PUSH1 0x40 PUSH2 0x49E DUP5 DUP3 DUP6 ADD PUSH2 0x400 JUMP JUMPDEST PUSH1 0x40 DUP4 ADD MSTORE POP PUSH1 0x60 PUSH2 0x4B2 DUP5 DUP3 DUP6 ADD PUSH2 0x435 JUMP JUMPDEST PUSH1 0x60 DUP4 ADD MSTORE POP SWAP3 SWAP2 POP POP JUMP JUMPDEST PUSH0 PUSH1 0x80 DUP3 DUP5 SUB SLT ISZERO PUSH2 0x4D3 JUMPI PUSH2 0x4D2 PUSH2 0x2C9 JUMP JUMPDEST JUMPDEST PUSH0 PUSH2 0x4E0 DUP5 DUP3 DUP6 ADD PUSH2 0x449 JUMP JUMPDEST SWAP2 POP POP SWAP3 SWAP2 POP POP JUMP JUMPDEST PUSH2 0x4F2 DUP2 PUSH2 0x3B7 JUMP JUMPDEST DUP3 MSTORE POP POP JUMP JUMPDEST PUSH2 0x501 DUP2 PUSH2 0x35D JUMP JUMPDEST DUP3 MSTORE POP POP JUMP JUMPDEST PUSH0 DUP2 PUSH1 0x2 SIGNEXTEND SWAP1 POP SWAP2 SWAP1 POP JUMP JUMPDEST PUSH2 0x51C DUP2 PUSH2 0x507 JUMP JUMPDEST DUP3 MSTORE POP POP JUMP JUMPDEST PUSH0 PUSH1 0x60 DUP3 ADD SWAP1 POP PUSH2 0x535 PUSH0 DUP4 ADD DUP7 PUSH2 0x4E9 JUMP JUMPDEST PUSH2 0x542 PUSH1 0x20 DUP4 ADD DUP6 PUSH2 0x4F8 JUMP JUMPDEST PUSH2 0x54F PUSH1 0x40 DUP4 ADD DUP5 PUSH2 0x513 JUMP JUMPDEST SWAP5 SWAP4 POP POP POP POP JUMP JUMPDEST PUSH0 DUP2 SWAP1 POP SWAP2 SWAP1 POP JUMP JUMPDEST PUSH2 0x569 DUP2 PUSH2 0x557 JUMP JUMPDEST DUP2 EQ PUSH2 0x573 JUMPI PUSH0 DUP1 REVERT JUMPDEST POP JUMP JUMPDEST PUSH0 DUP2 CALLDATALOAD SWAP1 POP PUSH2 0x584 DUP2 PUSH2 0x560 JUMP JUMPDEST SWAP3 SWAP2 POP POP JUMP JUMPDEST PUSH0 DUP1 REVERT JUMPDEST PUSH0 DUP1 REVERT JUMPDEST PUSH0 PUSH8 0xFFFFFFFFFFFFFFFF DUP3 GT ISZERO PUSH2 0x5AC JUMPI PUSH2 0x5AB PUSH2 0x2E5 JUMP JUMPDEST JUMPDEST PUSH2 0x5B5 DUP3 PUSH2 0x2D5 JUMP JUMPDEST SWAP1 POP PUSH1 0x20 DUP2 ADD SWAP1 POP SWAP2 SWAP1 POP JUMP JUMPDEST DUP3 DUP2 DUP4 CALLDATACOPY PUSH0 DUP4 DUP4 ADD MSTORE POP POP POP JUMP JUMPDEST PUSH0 PUSH2 0x5E2 PUSH2 0x5DD DUP5 PUSH2 0x592 JUMP JUMPDEST PUSH2 0x343 JUMP JUMPDEST SWAP1 POP DUP3 DUP2 MSTORE PUSH1 0x20 DUP2 ADD DUP5 DUP5 DUP5 ADD GT ISZERO PUSH2 0x5FE JUMPI PUSH2 0x5FD PUSH2 0x58E JUMP JUMPDEST JUMPDEST PUSH2 0x609 DUP5 DUP3 DUP6 PUSH2 0x5C2 JUMP JUMPDEST POP SWAP4 SWAP3 POP POP POP JUMP JUMPDEST PUSH0 DUP3 PUSH1 0x1F DUP4 ADD SLT PUSH2 0x625 JUMPI PUSH2 0x624 PUSH2 0x58A JUMP JUMPDEST JUMPDEST DUP2 CALLDATALOAD PUSH2 0x635 DUP5 DUP3 PUSH1 0x20 DUP7 ADD PUSH2 0x5D0 JUMP JUMPDEST SWAP2 POP POP SWAP3 SWAP2 POP POP JUMP JUMPDEST PUSH0 DUP1 PUSH0 PUSH1 0x60 DUP5 DUP7 SUB SLT ISZERO PUSH2 0x655 JUMPI PUSH2 0x654 PUSH2 0x2C9 JUMP JUMPDEST JUMPDEST PUSH0 PUSH2 0x662 DUP7 DUP3 DUP8 ADD PUSH2 0x576 JUMP JUMPDEST SWAP4 POP POP PUSH1 0x20 PUSH2 0x673 DUP7 DUP3 DUP8 ADD PUSH2 0x576 JUMP JUMPDEST SWAP3 POP POP PUSH1 0x40 DUP5 ADD CALLDATALOAD PUSH8 0xFFFFFFFFFFFFFFFF DUP2 GT ISZERO PUSH2 0x694 JUMPI PUSH2 0x693 PUSH2 0x2CD JUMP JUMPDEST JUMPDEST PUSH2 0x6A0 DUP7 DUP3 DUP8 ADD PUSH2 0x611 JUMP JUMPDEST SWAP2 POP POP SWAP3 POP SWAP3 POP SWAP3 JUMP JUMPDEST PUSH32 0x4E487B7100000000000000000000000000000000000000000000000000000000 PUSH0 MSTORE PUSH1 0x11 PUSH1 0x4 MSTORE PUSH1 0x24 PUSH0 REVERT JUMPDEST PUSH0 PUSH2 0x6E1 DUP3 PUSH2 0x35D JUMP JUMPDEST SWAP2 POP PUSH2 0x6EC DUP4 PUSH2 0x35D JUMP JUMPDEST SWAP3 POP DUP3 DUP3 SUB SWAP1 POP PUSH20 0xFFFFFFFFFFFFFFFFFFFFFFFFFFFFFFFFFFFFFFFF DUP2 GT ISZERO PUSH2 0x718 JUMPI PUSH2 0x717 PUSH2 0x6AA JUMP JUMPDEST JUMPDEST SWAP3 SWAP2 POP POP JUMP JUMPDEST PUSH0 PUSH2 0x728 DUP3 PUSH2 0x35D JUMP JUMPDEST SWAP2 POP PUSH2 0x733 DUP4 PUSH2 0x35D JUMP JUMPDEST SWAP3 POP DUP3 DUP3 ADD SWAP1 POP PUSH20 0xFFFFFFFFFFFFFFFFFFFFFFFFFFFFFFFFFFFFFFFF DUP2 GT ISZERO PUSH2 0x75F JUMPI PUSH2 0x75E PUSH2 0x6AA JUMP JUMPDEST JUMPDEST SWAP3 SWAP2 POP POP JUMP JUMPDEST PUSH2 0x76E DUP2 PUSH2 0x37C JUMP JUMPDEST DUP3 MSTORE POP POP JUMP JUMPDEST PUSH0 PUSH1 0x20 DUP3 ADD SWAP1 POP PUSH2 0x787 PUSH0 DUP4 ADD DUP5 PUSH2 0x765 JUMP JUMPDEST SWAP3 SWAP2 POP POP JUMP JUMPDEST PUSH2 0x796 DUP2 PUSH2 0x414 JUMP JUMPDEST DUP3 MSTORE POP POP JUMP JUMPDEST PUSH0 DUP2 MLOAD SWAP1 POP SWAP2 SWAP1 POP JUMP JUMPDEST PUSH0 DUP3 DUP3 MSTORE PUSH1 0x20 DUP3 ADD SWAP1 POP SWAP3 SWAP2 POP POP JUMP JUMPDEST PUSH0 JUMPDEST DUP4 DUP2 LT ISZERO PUSH2 0x7D3 JUMPI DUP1 DUP3 ADD MLOAD DUP2 DUP5 ADD MSTORE PUSH1 0x20 DUP2 ADD SWAP1 POP PUSH2 0x7B8 JUMP JUMPDEST PUSH0 DUP5 DUP5 ADD MSTORE POP POP POP POP JUMP JUMPDEST PUSH0 PUSH2 0x7E8 DUP3 PUSH2 0x79C JUMP JUMPDEST PUSH2 0x7F2 DUP2 DUP6 PUSH2 0x7A6 JUMP JUMPDEST SWAP4 POP PUSH2 0x802 DUP2 DUP6 PUSH1 0x20 DUP7 ADD PUSH2 0x7B6 JUMP JUMPDEST PUSH2 0x80B DUP2 PUSH2 0x2D5 JUMP JUMPDEST DUP5 ADD SWAP2 POP POP SWAP3 SWAP2 POP POP JUMP JUMPDEST PUSH0 PUSH1 0xA0 DUP3 ADD SWAP1 POP PUSH2 0x829 PUSH0 DUP4 ADD DUP9 PUSH2 0x765 JUMP JUMPDEST PUSH2 0x836 PUSH1 0x20 DUP4 ADD DUP8 PUSH2 0x78D JUMP JUMPDEST PUSH2 0x843 PUSH1 0x40 DUP4 ADD DUP7 PUSH2 0x4E9 JUMP JUMPDEST PUSH2 0x850 PUSH1 0x60 DUP4 ADD DUP6 PUSH2 0x4F8 JUMP JUMPDEST DUP2 DUP2 SUB PUSH1 0x80 DUP4 ADD MSTORE PUSH2 0x862 DUP2 DUP5 PUSH2 0x7DE JUMP JUMPDEST SWAP1 POP SWAP7 SWAP6 POP POP POP POP POP POP JUMP JUMPDEST PUSH0 DUP2 MLOAD SWAP1 POP PUSH2 0x87C DUP2 PUSH2 0x560 JUMP JUMPDEST SWAP3 SWAP2 POP POP JUMP JUMPDEST PUSH0 DUP1 PUSH1 0x40 DUP4 DUP6 SUB SLT ISZERO PUSH2 0x898 JUMPI PUSH2 0x897 PUSH2 0x2C9 JUMP JUMPDEST JUMPDEST PUSH0 PUSH2 0x8A5 DUP6 DUP3 DUP7 ADD PUSH2 0x86E JUMP JUMPDEST SWAP3 POP POP PUSH1 0x20 PUSH2 0x8B6 DUP6 DUP3 DUP7 ADD PUSH2 0x86E JUMP JUMPDEST SWAP2 POP POP SWAP3 POP SWAP3 SWAP1 POP JUMP JUMPDEST PUSH0 DUP2 MLOAD SWAP1 POP PUSH2 0x8CE DUP2 PUSH2 0x3C0 JUMP JUMPDEST SWAP3 SWAP2 POP POP JUMP JUMPDEST PUSH0 DUP2 MLOAD SWAP1 POP PUSH2 0x8E2 DUP2 PUSH2 0x3EA JUMP JUMPDEST SWAP3 SWAP2 POP POP JUMP JUMPDEST PUSH2 0x8F1 DUP2 PUSH2 0x507 JUMP JUMPDEST DUP2 EQ PUSH2 0x8FB JUMPI PUSH0 DUP1 REVERT JUMPDEST POP JUMP JUMPDEST PUSH0 DUP2 MLOAD SWAP1 POP PUSH2 0x90C DUP2 PUSH2 0x8E8 JUMP JUMPDEST SWAP3 SWAP2 POP POP JUMP JUMPDEST PUSH0 DUP1 PUSH0 PUSH1 0x60 DUP5 DUP7 SUB SLT ISZERO PUSH2 0x929 JUMPI PUSH2 0x928 PUSH2 0x2C9 JUMP JUMPDEST JUMPDEST PUSH0 PUSH2 0x936 DUP7 DUP3 DUP8 ADD PUSH2 0x8C0 JUMP JUMPDEST SWAP4 POP POP PUSH1 0x20 PUSH2 0x947 DUP7 DUP3 DUP8 ADD PUSH2 0x8D4 JUMP JUMPDEST SWAP3 POP POP PUSH1 0x40 PUSH2 0x958 DUP7 DUP3 DUP8 ADD PUSH2 0x8FE JUMP JUMPDEST SWAP2 POP POP SWAP3 POP SWAP3 POP SWAP3 JUMP JUMPDEST PUSH0 PUSH2 0x96C DUP3 PUSH2 0x35D JUMP JUMPDEST SWAP1 POP SWAP2 SWAP1 POP JUMP JUMPDEST PUSH2 0x97C DUP2 PUSH2 0x962 JUMP JUMPDEST DUP2 EQ PUSH2 0x986 JUMPI PUSH0 DUP1 REVERT JUMPDEST POP JUMP JUMPDEST PUSH0 DUP2 MLOAD SWAP1 POP PUSH2 0x997 DUP2 PUSH2 0x973 JUMP JUMPDEST SWAP3 SWAP2 POP POP JUMP JUMPDEST PUSH0 PUSH1 0x20 DUP3 DUP5 SUB SLT ISZERO PUSH2 0x9B2 JUMPI PUSH2 0x9B1 PUSH2 0x2C9 JUMP JUMPDEST JUMPDEST PUSH0 PUSH2 0x9BF DUP5 DUP3 DUP6 ADD PUSH2 0x989 JUMP JUMPDEST SWAP2 POP POP SWAP3 SWAP2 POP POP JUMP JUMPDEST PUSH0 PUSH2 0x9D2 DUP3 PUSH2 0x557 JUMP JUMPDEST SWAP2 POP PUSH32 0x8000000000000000000000000000000000000000000000000000000000000000 DUP3 SUB PUSH2 0xA04 JUMPI PUSH2 0xA03 PUSH2 0x6AA JUMP JUMPDEST JUMPDEST DUP2 PUSH0 SUB SWAP1 POP SWAP2 SWAP1 POP JUMP JUMPDEST PUSH0 DUP1 PUSH1 0x40 DUP4 DUP6 SUB SLT ISZERO PUSH2 0xA24 JUMPI PUSH2 0xA23 PUSH2 0x2C9 JUMP JUMPDEST JUMPDEST PUSH0 PUSH2 0xA31 DUP6 DUP3 DUP7 ADD PUSH2 0x8D4 JUMP JUMPDEST SWAP3 POP POP PUSH1 0x20 PUSH2 0xA42 DUP6 DUP3 DUP7 ADD PUSH2 0x8FE JUMP JUMPDEST SWAP2 POP POP SWAP3 POP SWAP3 SWAP1 POP JUMP INVALID LOG2 PUSH5 0x6970667358 0x22 SLT KECCAK256 DIV PUSH24 0xF69990F2D8DD59CDDAD9686724AEB5585F3F0BD876241E32 PUSH19 0x9A7F9ECE7464736F6C63430008180033000000 "
				},
				"gasEstimates": {
					"creation": {
						"codeDepositCost": "538000",
						"executionCost": "573",
						"totalCost": "538573"
					},
					"external": {
						"quote((address,uint256,uint160,bool))": "infinite",
						"swapCallback(int256,int256,bytes)": "infinite"
					}
				},
				"methodIdentifiers": {
					"quote((address,uint256,uint160,bool))": "482a3dc6",
					"swapCallback(int256,int256,bytes)": "fa483e72"
				}
			},
			"storageLayout": {
				"storage": [],
				"types": null
			},
			"userdoc": {
				"kind": "user",
				"methods": {},
				"version": 1
			}
		}
	}
}