{
	"contracts/Manager.sol": {
		"Manager": {
			"abi": [
				{
					"inputs": [
						{
							"internalType": "uint256",
							"name": "x",
							"type": "uint256"
						},
						{
							"internalType": "uint256",
							"name": "y",
							"type": "uint256"
						},
						{
							"internalType": "uint256",
							"name": "denominator",
							"type": "uint256"
						}
					],
					"name": "PRBMath_MulDiv_Overflow",
					"type": "error"
				},
				{
					"inputs": [
						{
							"internalType": "uint256",
							"name": "amount0",
							"type": "uint256"
						},
						{
							"internalType": "uint256",
							"name": "amount1",
							"type": "uint256"
						}
					],
					"name": "SlippageCheckFailed",
					"type": "error"
				},
				{
					"inputs": [
						{
							"components": [
								{
									"internalType": "address",
									"name": "poolAddress",
									"type": "address"
								},
								{
									"internalType": "int24",
									"name": "lowerTick",
									"type": "int24"
								},
								{
									"internalType": "int24",
									"name": "upperTick",
									"type": "int24"
								},
								{
									"internalType": "uint256",
									"name": "amount0Desired",
									"type": "uint256"
								},
								{
									"internalType": "uint256",
									"name": "amount1Desired",
									"type": "uint256"
								},
								{
									"internalType": "uint256",
									"name": "amount0Min",
									"type": "uint256"
								},
								{
									"internalType": "uint256",
									"name": "amount1Min",
									"type": "uint256"
								}
							],
							"internalType": "struct IManager.MintParams",
							"name": "params",
							"type": "tuple"
						}
					],
					"name": "mint",
					"outputs": [
						{
							"internalType": "uint256",
							"name": "amount0",
							"type": "uint256"
						},
						{
							"internalType": "uint256",
							"name": "amount1",
							"type": "uint256"
						}
					],
					"stateMutability": "nonpayable",
					"type": "function"
				},
				{
					"inputs": [
						{
							"internalType": "uint256",
							"name": "amount0",
							"type": "uint256"
						},
						{
							"internalType": "uint256",
							"name": "amount1",
							"type": "uint256"
						},
						{
							"internalType": "bytes",
							"name": "data",
							"type": "bytes"
						}
					],
					"name": "mintCallback",
					"outputs": [],
					"stateMutability": "nonpayable",
					"type": "function"
				},
				{
					"inputs": [
						{
							"internalType": "address",
							"name": "poolAddress_",
							"type": "address"
						},
						{
							"internalType": "bool",
							"name": "zeroForOne",
							"type": "bool"
						},
						{
							"internalType": "uint256",
							"name": "amountSpecified",
							"type": "uint256"
						},
						{
							"internalType": "uint160",
							"name": "sqrtPriceLimitX96",
							"type": "uint160"
						},
						{
							"internalType": "bytes",
							"name": "data",
							"type": "bytes"
						}
					],
					"name": "swap",
					"outputs": [
						{
							"internalType": "int256",
							"name": "",
							"type": "int256"
						},
						{
							"internalType": "int256",
							"name": "",
							"type": "int256"
						}
					],
					"stateMutability": "nonpayable",
					"type": "function"
				},
				{
					"inputs": [
						{
							"internalType": "int256",
							"name": "amount0",
							"type": "int256"
						},
						{
							"internalType": "int256",
							"name": "amount1",
							"type": "int256"
						},
						{
							"internalType": "bytes",
							"name": "data",
							"type": "bytes"
						}
					],
					"name": "swapCallback",
					"outputs": [],
					"stateMutability": "nonpayable",
					"type": "function"
				}
			],
			"devdoc": {
				"kind": "dev",
				"methods": {},
				"version": 1
			},
			"evm": {
				"assembly": "    /* \"contracts/Manager.sol\":238:3312  contract Manager is IManager {... */\n  mstore(0x40, 0x80)\n  callvalue\n  dup1\n  iszero\n  tag_1\n  jumpi\n  0x00\n  dup1\n  revert\ntag_1:\n  pop\n  dataSize(sub_0)\n  dup1\n  dataOffset(sub_0)\n  0x00\n  codecopy\n  0x00\n  return\nstop\n\nsub_0: assembly {\n        /* \"contracts/Manager.sol\":238:3312  contract Manager is IManager {... */\n      mstore(0x40, 0x80)\n      callvalue\n      dup1\n      iszero\n      tag_1\n      jumpi\n      0x00\n      dup1\n      revert\n    tag_1:\n      pop\n      jumpi(tag_2, lt(calldatasize, 0x04))\n      shr(0xe0, calldataload(0x00))\n      dup1\n      0x190c1752\n      eq\n      tag_3\n      jumpi\n      dup1\n      0x9f382e9b\n      eq\n      tag_4\n      jumpi\n      dup1\n      0xdd5a12d8\n      eq\n      tag_5\n      jumpi\n      dup1\n      0xfa483e72\n      eq\n      tag_6\n      jumpi\n    tag_2:\n      0x00\n      dup1\n      revert\n        /* \"contracts/Manager.sol\":342:1550  function mint(MintParams calldata params)... */\n    tag_3:\n      tag_7\n      0x04\n      dup1\n      calldatasize\n      sub\n      dup2\n      add\n      swap1\n      tag_8\n      swap2\n      swap1\n      tag_9\n      jump\t// in\n    tag_8:\n      tag_10\n      jump\t// in\n    tag_7:\n      mload(0x40)\n      tag_11\n      swap3\n      swap2\n      swap1\n      tag_12\n      jump\t// in\n    tag_11:\n      mload(0x40)\n      dup1\n      swap2\n      sub\n      swap1\n      return\n        /* \"contracts/Manager.sol\":2257:2661  function mintCallback(... */\n    tag_4:\n      tag_13\n      0x04\n      dup1\n      calldatasize\n      sub\n      dup2\n      add\n      swap1\n      tag_14\n      swap2\n      swap1\n      tag_15\n      jump\t// in\n    tag_14:\n      tag_16\n      jump\t// in\n    tag_13:\n      stop\n        /* \"contracts/Manager.sol\":1560:2247  function swap(... */\n    tag_5:\n      tag_17\n      0x04\n      dup1\n      calldatasize\n      sub\n      dup2\n      add\n      swap1\n      tag_18\n      swap2\n      swap1\n      tag_19\n      jump\t// in\n    tag_18:\n      tag_20\n      jump\t// in\n    tag_17:\n      mload(0x40)\n      tag_21\n      swap3\n      swap2\n      swap1\n      tag_22\n      jump\t// in\n    tag_21:\n      mload(0x40)\n      dup1\n      swap2\n      sub\n      swap1\n      return\n        /* \"contracts/Manager.sol\":2669:3309  function swapCallback(... */\n    tag_6:\n      tag_23\n      0x04\n      dup1\n      calldatasize\n      sub\n      dup2\n      add\n      swap1\n      tag_24\n      swap2\n      swap1\n      tag_25\n      jump\t// in\n    tag_24:\n      tag_26\n      jump\t// in\n    tag_23:\n      stop\n        /* \"contracts/Manager.sol\":342:1550  function mint(MintParams calldata params)... */\n    tag_10:\n        /* \"contracts/Manager.sol\":418:433  uint256 amount0 */\n      0x00\n        /* \"contracts/Manager.sol\":435:450  uint256 amount1 */\n      dup1\n        /* \"contracts/Manager.sol\":468:478  IPool pool */\n      0x00\n        /* \"contracts/Manager.sol\":487:493  params */\n      dup4\n        /* \"contracts/Manager.sol\":487:505  params.poolAddress */\n      0x00\n      add\n      0x20\n      dup2\n      add\n      swap1\n      tag_28\n      swap2\n      swap1\n      tag_29\n      jump\t// in\n    tag_28:\n        /* \"contracts/Manager.sol\":468:506  IPool pool = IPool(params.poolAddress) */\n      swap1\n      pop\n        /* \"contracts/Manager.sol\":520:540  uint160 sqrtPriceX96 */\n      0x00\n        /* \"contracts/Manager.sol\":546:550  pool */\n      dup2\n        /* \"contracts/Manager.sol\":546:556  pool.slot0 */\n      0xffffffffffffffffffffffffffffffffffffffff\n      and\n      0x3850c7bd\n        /* \"contracts/Manager.sol\":546:558  pool.slot0() */\n      mload(0x40)\n      dup2\n      0xffffffff\n      and\n      0xe0\n      shl\n      dup2\n      mstore\n      0x04\n      add\n      0x40\n      dup1\n      mload\n      dup1\n      dup4\n      sub\n      dup2\n      dup7\n      gas\n      staticcall\n      iszero\n      dup1\n      iszero\n      tag_31\n      jumpi\n      returndatasize\n      0x00\n      dup1\n      returndatacopy\n      revert(0x00, returndatasize)\n    tag_31:\n      pop\n      pop\n      pop\n      pop\n      mload(0x40)\n      returndatasize\n      not(0x1f)\n      0x1f\n      dup3\n      add\n      and\n      dup3\n      add\n      dup1\n      0x40\n      mstore\n      pop\n      dup2\n      add\n      swap1\n      tag_32\n      swap2\n      swap1\n      tag_33\n      jump\t// in\n    tag_32:\n        /* \"contracts/Manager.sol\":519:558  (uint160 sqrtPriceX96, ) = pool.slot0() */\n      pop\n      swap1\n      pop\n        /* \"contracts/Manager.sol\":569:594  uint160 sqrtPriceLowerX96 */\n      0x00\n        /* \"contracts/Manager.sol\":597:666  TickMath.getSqrtRatioAtTick(... */\n      tag_34\n        /* \"contracts/Manager.sol\":639:645  params */\n      dup7\n        /* \"contracts/Manager.sol\":639:655  params.lowerTick */\n      0x20\n      add\n      0x20\n      dup2\n      add\n      swap1\n      tag_35\n      swap2\n      swap1\n      tag_36\n      jump\t// in\n    tag_35:\n        /* \"contracts/Manager.sol\":597:624  TickMath.getSqrtRatioAtTick */\n      tag_37\n        /* \"contracts/Manager.sol\":597:666  TickMath.getSqrtRatioAtTick(... */\n      jump\t// in\n    tag_34:\n        /* \"contracts/Manager.sol\":569:666  uint160 sqrtPriceLowerX96 = TickMath.getSqrtRatioAtTick(... */\n      swap1\n      pop\n        /* \"contracts/Manager.sol\":677:702  uint160 sqrtPriceUpperX96 */\n      0x00\n        /* \"contracts/Manager.sol\":705:774  TickMath.getSqrtRatioAtTick(... */\n      tag_38\n        /* \"contracts/Manager.sol\":747:753  params */\n      dup8\n        /* \"contracts/Manager.sol\":747:763  params.upperTick */\n      0x40\n      add\n      0x20\n      dup2\n      add\n      swap1\n      tag_39\n      swap2\n      swap1\n      tag_36\n      jump\t// in\n    tag_39:\n        /* \"contracts/Manager.sol\":705:732  TickMath.getSqrtRatioAtTick */\n      tag_37\n        /* \"contracts/Manager.sol\":705:774  TickMath.getSqrtRatioAtTick(... */\n      jump\t// in\n    tag_38:\n        /* \"contracts/Manager.sol\":677:774  uint160 sqrtPriceUpperX96 = TickMath.getSqrtRatioAtTick(... */\n      swap1\n      pop\n        /* \"contracts/Manager.sol\":787:804  uint128 liquidity */\n      0x00\n        /* \"contracts/Manager.sol\":807:1017  LiquidityMath.getLiquidityForAmounts(... */\n      tag_40\n        /* \"contracts/Manager.sol\":858:870  sqrtPriceX96 */\n      dup5\n        /* \"contracts/Manager.sol\":885:902  sqrtPriceLowerX96 */\n      dup5\n        /* \"contracts/Manager.sol\":917:934  sqrtPriceUpperX96 */\n      dup5\n        /* \"contracts/Manager.sol\":949:955  params */\n      dup12\n        /* \"contracts/Manager.sol\":949:970  params.amount0Desired */\n      0x60\n      add\n      calldataload\n        /* \"contracts/Manager.sol\":985:991  params */\n      dup13\n        /* \"contracts/Manager.sol\":985:1006  params.amount1Desired */\n      0x80\n      add\n      calldataload\n        /* \"contracts/Manager.sol\":807:843  LiquidityMath.getLiquidityForAmounts */\n      tag_41\n        /* \"contracts/Manager.sol\":807:1017  LiquidityMath.getLiquidityForAmounts(... */\n      jump\t// in\n    tag_40:\n        /* \"contracts/Manager.sol\":787:1017  uint128 liquidity = LiquidityMath.getLiquidityForAmounts(... */\n      swap1\n      pop\n        /* \"contracts/Manager.sol\":1051:1055  pool */\n      dup5\n        /* \"contracts/Manager.sol\":1051:1060  pool.mint */\n      0xffffffffffffffffffffffffffffffffffffffff\n      and\n      0x3c8a7d8d\n        /* \"contracts/Manager.sol\":1075:1085  msg.sender */\n      caller\n        /* \"contracts/Manager.sol\":1100:1106  params */\n      dup11\n        /* \"contracts/Manager.sol\":1100:1116  params.lowerTick */\n      0x20\n      add\n      0x20\n      dup2\n      add\n      swap1\n      tag_42\n      swap2\n      swap1\n      tag_36\n      jump\t// in\n    tag_42:\n        /* \"contracts/Manager.sol\":1131:1137  params */\n      dup12\n        /* \"contracts/Manager.sol\":1131:1147  params.upperTick */\n      0x40\n      add\n      0x20\n      dup2\n      add\n      swap1\n      tag_43\n      swap2\n      swap1\n      tag_36\n      jump\t// in\n    tag_43:\n        /* \"contracts/Manager.sol\":1162:1171  liquidity */\n      dup6\n        /* \"contracts/Manager.sol\":1215:1382  IPool.CallbackData({... */\n      mload(0x40)\n      dup1\n      0x60\n      add\n      0x40\n      mstore\n      dup1\n        /* \"contracts/Manager.sol\":1265:1269  pool */\n      dup13\n        /* \"contracts/Manager.sol\":1265:1276  pool.token0 */\n      0xffffffffffffffffffffffffffffffffffffffff\n      and\n      0x0dfe1681\n        /* \"contracts/Manager.sol\":1265:1278  pool.token0() */\n      mload(0x40)\n      dup2\n      0xffffffff\n      and\n      0xe0\n      shl\n      dup2\n      mstore\n      0x04\n      add\n      0x20\n      mload(0x40)\n      dup1\n      dup4\n      sub\n      dup2\n      dup7\n      gas\n      staticcall\n      iszero\n      dup1\n      iszero\n      tag_45\n      jumpi\n      returndatasize\n      0x00\n      dup1\n      returndatacopy\n      revert(0x00, returndatasize)\n    tag_45:\n      pop\n      pop\n      pop\n      pop\n      mload(0x40)\n      returndatasize\n      not(0x1f)\n      0x1f\n      dup3\n      add\n      and\n      dup3\n      add\n      dup1\n      0x40\n      mstore\n      pop\n      dup2\n      add\n      swap1\n      tag_46\n      swap2\n      swap1\n      tag_47\n      jump\t// in\n    tag_46:\n        /* \"contracts/Manager.sol\":1215:1382  IPool.CallbackData({... */\n      0xffffffffffffffffffffffffffffffffffffffff\n      and\n      dup2\n      mstore\n      0x20\n      add\n        /* \"contracts/Manager.sol\":1309:1313  pool */\n      dup13\n        /* \"contracts/Manager.sol\":1309:1320  pool.token1 */\n      0xffffffffffffffffffffffffffffffffffffffff\n      and\n      0xd21220a7\n        /* \"contracts/Manager.sol\":1309:1322  pool.token1() */\n      mload(0x40)\n      dup2\n      0xffffffff\n      and\n      0xe0\n      shl\n      dup2\n      mstore\n      0x04\n      add\n      0x20\n      mload(0x40)\n      dup1\n      dup4\n      sub\n      dup2\n      dup7\n      gas\n      staticcall\n      iszero\n      dup1\n      iszero\n      tag_49\n      jumpi\n      returndatasize\n      0x00\n      dup1\n      returndatacopy\n      revert(0x00, returndatasize)\n    tag_49:\n      pop\n      pop\n      pop\n      pop\n      mload(0x40)\n      returndatasize\n      not(0x1f)\n      0x1f\n      dup3\n      add\n      and\n      dup3\n      add\n      dup1\n      0x40\n      mstore\n      pop\n      dup2\n      add\n      swap1\n      tag_50\n      swap2\n      swap1\n      tag_47\n      jump\t// in\n    tag_50:\n        /* \"contracts/Manager.sol\":1215:1382  IPool.CallbackData({... */\n      0xffffffffffffffffffffffffffffffffffffffff\n      and\n      dup2\n      mstore\n      0x20\n      add\n        /* \"contracts/Manager.sol\":1352:1362  msg.sender */\n      caller\n        /* \"contracts/Manager.sol\":1215:1382  IPool.CallbackData({... */\n      0xffffffffffffffffffffffffffffffffffffffff\n      and\n      dup2\n      mstore\n      pop\n        /* \"contracts/Manager.sol\":1186:1397  abi.encode(... */\n      add(0x20, mload(0x40))\n      tag_51\n      swap2\n      swap1\n      tag_52\n      jump\t// in\n    tag_51:\n      mload(0x40)\n      0x20\n      dup2\n      dup4\n      sub\n      sub\n      dup2\n      mstore\n      swap1\n      0x40\n      mstore\n        /* \"contracts/Manager.sol\":1051:1408  pool.mint(... */\n      mload(0x40)\n      dup7\n      0xffffffff\n      and\n      0xe0\n      shl\n      dup2\n      mstore\n      0x04\n      add\n      tag_53\n      swap6\n      swap5\n      swap4\n      swap3\n      swap2\n      swap1\n      tag_54\n      jump\t// in\n    tag_53:\n      0x40\n      dup1\n      mload\n      dup1\n      dup4\n      sub\n      dup2\n      0x00\n      dup8\n      gas\n      call\n      iszero\n      dup1\n      iszero\n      tag_56\n      jumpi\n      returndatasize\n      0x00\n      dup1\n      returndatacopy\n      revert(0x00, returndatasize)\n    tag_56:\n      pop\n      pop\n      pop\n      pop\n      mload(0x40)\n      returndatasize\n      not(0x1f)\n      0x1f\n      dup3\n      add\n      and\n      dup3\n      add\n      dup1\n      0x40\n      mstore\n      pop\n      dup2\n      add\n      swap1\n      tag_57\n      swap2\n      swap1\n      tag_58\n      jump\t// in\n    tag_57:\n        /* \"contracts/Manager.sol\":1030:1408  (amount0, amount1) = pool.mint(... */\n      dup1\n      swap8\n      pop\n      dup2\n      swap9\n      pop\n      pop\n      pop\n        /* \"contracts/Manager.sol\":1435:1441  params */\n      dup8\n        /* \"contracts/Manager.sol\":1435:1452  params.amount0Min */\n      0xa0\n      add\n      calldataload\n        /* \"contracts/Manager.sol\":1425:1432  amount0 */\n      dup8\n        /* \"contracts/Manager.sol\":1425:1452  amount0 < params.amount0Min */\n      lt\n        /* \"contracts/Manager.sol\":1425:1483  amount0 < params.amount0Min || amount1 < params.amount1Min */\n      dup1\n      tag_59\n      jumpi\n      pop\n        /* \"contracts/Manager.sol\":1466:1472  params */\n      dup8\n        /* \"contracts/Manager.sol\":1466:1483  params.amount1Min */\n      0xc0\n      add\n      calldataload\n        /* \"contracts/Manager.sol\":1456:1463  amount1 */\n      dup7\n        /* \"contracts/Manager.sol\":1456:1483  amount1 < params.amount1Min */\n      lt\n        /* \"contracts/Manager.sol\":1425:1483  amount0 < params.amount0Min || amount1 < params.amount1Min */\n    tag_59:\n        /* \"contracts/Manager.sol\":1421:1542  if (amount0 < params.amount0Min || amount1 < params.amount1Min)... */\n      iszero\n      tag_60\n      jumpi\n        /* \"contracts/Manager.sol\":1525:1532  amount0 */\n      dup7\n        /* \"contracts/Manager.sol\":1534:1541  amount1 */\n      dup7\n        /* \"contracts/Manager.sol\":1505:1542  SlippageCheckFailed(amount0, amount1) */\n      mload(0x40)\n      0xa8f6c8d000000000000000000000000000000000000000000000000000000000\n      dup2\n      mstore\n      0x04\n      add\n      tag_61\n      swap3\n      swap2\n      swap1\n      tag_12\n      jump\t// in\n    tag_61:\n      mload(0x40)\n      dup1\n      swap2\n      sub\n      swap1\n      revert\n        /* \"contracts/Manager.sol\":1421:1542  if (amount0 < params.amount0Min || amount1 < params.amount1Min)... */\n    tag_60:\n        /* \"contracts/Manager.sol\":457:1550  {... */\n      pop\n      pop\n      pop\n      pop\n      pop\n        /* \"contracts/Manager.sol\":342:1550  function mint(MintParams calldata params)... */\n      swap2\n      pop\n      swap2\n      jump\t// out\n        /* \"contracts/Manager.sol\":2257:2661  function mintCallback(... */\n    tag_16:\n        /* \"contracts/Manager.sol\":2386:2417  IPool.CallbackData memory extra */\n      0x00\n        /* \"contracts/Manager.sol\":2445:2449  data */\n      dup3\n      dup3\n        /* \"contracts/Manager.sol\":2420:2495  abi.decode(... */\n      dup2\n      add\n      swap1\n      tag_63\n      swap2\n      swap1\n      tag_64\n      jump\t// in\n    tag_63:\n        /* \"contracts/Manager.sol\":2386:2495  IPool.CallbackData memory extra = abi.decode(... */\n      swap1\n      pop\n        /* \"contracts/Manager.sol\":2515:2520  extra */\n      dup1\n        /* \"contracts/Manager.sol\":2515:2527  extra.token0 */\n      0x00\n      add\n      mload\n        /* \"contracts/Manager.sol\":2508:2541  IERC20(extra.token0).transferFrom */\n      0xffffffffffffffffffffffffffffffffffffffff\n      and\n      0x23b872dd\n        /* \"contracts/Manager.sol\":2542:2547  extra */\n      dup3\n        /* \"contracts/Manager.sol\":2542:2553  extra.payer */\n      0x40\n      add\n      mload\n        /* \"contracts/Manager.sol\":2555:2565  msg.sender */\n      caller\n        /* \"contracts/Manager.sol\":2567:2574  amount0 */\n      dup9\n        /* \"contracts/Manager.sol\":2508:2575  IERC20(extra.token0).transferFrom(extra.payer, msg.sender, amount0) */\n      mload(0x40)\n      dup5\n      0xffffffff\n      and\n      0xe0\n      shl\n      dup2\n      mstore\n      0x04\n      add\n      tag_65\n      swap4\n      swap3\n      swap2\n      swap1\n      tag_66\n      jump\t// in\n    tag_65:\n      0x00\n      mload(0x40)\n      dup1\n      dup4\n      sub\n      dup2\n      0x00\n      dup8\n      dup1\n      extcodesize\n      iszero\n      dup1\n      iszero\n      tag_67\n      jumpi\n      0x00\n      dup1\n      revert\n    tag_67:\n      pop\n      gas\n      call\n      iszero\n      dup1\n      iszero\n      tag_69\n      jumpi\n      returndatasize\n      0x00\n      dup1\n      returndatacopy\n      revert(0x00, returndatasize)\n    tag_69:\n      pop\n      pop\n      pop\n      pop\n        /* \"contracts/Manager.sol\":2593:2598  extra */\n      dup1\n        /* \"contracts/Manager.sol\":2593:2605  extra.token1 */\n      0x20\n      add\n      mload\n        /* \"contracts/Manager.sol\":2586:2619  IERC20(extra.token1).transferFrom */\n      0xffffffffffffffffffffffffffffffffffffffff\n      and\n      0x23b872dd\n        /* \"contracts/Manager.sol\":2620:2625  extra */\n      dup3\n        /* \"contracts/Manager.sol\":2620:2631  extra.payer */\n      0x40\n      add\n      mload\n        /* \"contracts/Manager.sol\":2633:2643  msg.sender */\n      caller\n        /* \"contracts/Manager.sol\":2645:2652  amount1 */\n      dup8\n        /* \"contracts/Manager.sol\":2586:2653  IERC20(extra.token1).transferFrom(extra.payer, msg.sender, amount1) */\n      mload(0x40)\n      dup5\n      0xffffffff\n      and\n      0xe0\n      shl\n      dup2\n      mstore\n      0x04\n      add\n      tag_70\n      swap4\n      swap3\n      swap2\n      swap1\n      tag_66\n      jump\t// in\n    tag_70:\n      0x00\n      mload(0x40)\n      dup1\n      dup4\n      sub\n      dup2\n      0x00\n      dup8\n      dup1\n      extcodesize\n      iszero\n      dup1\n      iszero\n      tag_71\n      jumpi\n      0x00\n      dup1\n      revert\n    tag_71:\n      pop\n      gas\n      call\n      iszero\n      dup1\n      iszero\n      tag_73\n      jumpi\n      returndatasize\n      0x00\n      dup1\n      returndatacopy\n      revert(0x00, returndatasize)\n    tag_73:\n      pop\n      pop\n      pop\n      pop\n        /* \"contracts/Manager.sol\":2375:2661  {... */\n      pop\n        /* \"contracts/Manager.sol\":2257:2661  function mintCallback(... */\n      pop\n      pop\n      pop\n      pop\n      jump\t// out\n        /* \"contracts/Manager.sol\":1560:2247  function swap(... */\n    tag_20:\n        /* \"contracts/Manager.sol\":1754:1760  int256 */\n      0x00\n        /* \"contracts/Manager.sol\":1762:1768  int256 */\n      dup1\n        /* \"contracts/Manager.sol\":1807:1819  poolAddress_ */\n      dup8\n        /* \"contracts/Manager.sol\":1801:1825  IPool(poolAddress_).swap */\n      0xffffffffffffffffffffffffffffffffffffffff\n      and\n      0xdd5a12d8\n        /* \"contracts/Manager.sol\":1844:1854  msg.sender */\n      caller\n        /* \"contracts/Manager.sol\":1873:1883  zeroForOne */\n      dup10\n        /* \"contracts/Manager.sol\":1902:1917  amountSpecified */\n      dup10\n        /* \"contracts/Manager.sol\":1957:1958  0 */\n      0x00\n        /* \"contracts/Manager.sol\":1936:1953  sqrtPriceLimitX96 */\n      dup11\n        /* \"contracts/Manager.sol\":1936:1958  sqrtPriceLimitX96 == 0 */\n      0xffffffffffffffffffffffffffffffffffffffff\n      and\n      eq\n        /* \"contracts/Manager.sol\":1936:2201  sqrtPriceLimitX96 == 0... */\n      tag_75\n      jumpi\n        /* \"contracts/Manager.sol\":2184:2201  sqrtPriceLimitX96 */\n      dup10\n        /* \"contracts/Manager.sol\":1936:2201  sqrtPriceLimitX96 == 0... */\n      jump(tag_76)\n    tag_75:\n        /* \"contracts/Manager.sol\":2009:2019  zeroForOne */\n      dup12\n        /* \"contracts/Manager.sol\":2009:2137  zeroForOne... */\n      tag_77\n      jumpi\n        /* \"contracts/Manager.sol\":2136:2137  1 */\n      0x01\n        /* \"libraries/TickMath.sol\":1012:1061  1461446703485210103287273052203988822378723970342 */\n      0xfffd8963efd1fc6a506488495d951d5263988d26\n        /* \"contracts/Manager.sol\":2110:2137  TickMath.MAX_SQRT_RATIO - 1 */\n      tag_78\n      swap2\n      swap1\n      tag_79\n      jump\t// in\n    tag_78:\n        /* \"contracts/Manager.sol\":2009:2137  zeroForOne... */\n      jump(tag_80)\n    tag_77:\n        /* \"contracts/Manager.sol\":2077:2078  1 */\n      0x01\n        /* \"libraries/TickMath.sol\":830:840  4295128739 */\n      0x01000276a3\n        /* \"contracts/Manager.sol\":2051:2078  TickMath.MIN_SQRT_RATIO + 1 */\n      tag_81\n      swap2\n      swap1\n      tag_82\n      jump\t// in\n    tag_81:\n        /* \"contracts/Manager.sol\":2009:2137  zeroForOne... */\n    tag_80:\n        /* \"contracts/Manager.sol\":1936:2201  sqrtPriceLimitX96 == 0... */\n    tag_76:\n        /* \"contracts/Manager.sol\":2220:2224  data */\n      dup10\n      dup10\n        /* \"contracts/Manager.sol\":1801:2239  IPool(poolAddress_).swap(... */\n      mload(0x40)\n      dup8\n      0xffffffff\n      and\n      0xe0\n      shl\n      dup2\n      mstore\n      0x04\n      add\n      tag_83\n      swap7\n      swap6\n      swap5\n      swap4\n      swap3\n      swap2\n      swap1\n      tag_84\n      jump\t// in\n    tag_83:\n      0x40\n      dup1\n      mload\n      dup1\n      dup4\n      sub\n      dup2\n      0x00\n      dup8\n      gas\n      call\n      iszero\n      dup1\n      iszero\n      tag_86\n      jumpi\n      returndatasize\n      0x00\n      dup1\n      returndatacopy\n      revert(0x00, returndatasize)\n    tag_86:\n      pop\n      pop\n      pop\n      pop\n      mload(0x40)\n      returndatasize\n      not(0x1f)\n      0x1f\n      dup3\n      add\n      and\n      dup3\n      add\n      dup1\n      0x40\n      mstore\n      pop\n      dup2\n      add\n      swap1\n      tag_87\n      swap2\n      swap1\n      tag_88\n      jump\t// in\n    tag_87:\n        /* \"contracts/Manager.sol\":1781:2239  return... */\n      swap2\n      pop\n      swap2\n      pop\n        /* \"contracts/Manager.sol\":1560:2247  function swap(... */\n      swap7\n      pop\n      swap7\n      swap5\n      pop\n      pop\n      pop\n      pop\n      pop\n      jump\t// out\n        /* \"contracts/Manager.sol\":2669:3309  function swapCallback(... */\n    tag_26:\n        /* \"contracts/Manager.sol\":2796:2827  IPool.CallbackData memory extra */\n      0x00\n        /* \"contracts/Manager.sol\":2855:2859  data */\n      dup3\n      dup3\n        /* \"contracts/Manager.sol\":2830:2905  abi.decode(... */\n      dup2\n      add\n      swap1\n      tag_90\n      swap2\n      swap1\n      tag_64\n      jump\t// in\n    tag_90:\n        /* \"contracts/Manager.sol\":2796:2905  IPool.CallbackData memory extra = abi.decode(... */\n      swap1\n      pop\n        /* \"contracts/Manager.sol\":2932:2933  0 */\n      0x00\n        /* \"contracts/Manager.sol\":2922:2929  amount0 */\n      dup6\n        /* \"contracts/Manager.sol\":2922:2933  amount0 > 0 */\n      sgt\n        /* \"contracts/Manager.sol\":2918:3104  if (amount0 > 0) {... */\n      iszero\n      tag_91\n      jumpi\n        /* \"contracts/Manager.sol\":2957:2962  extra */\n      dup1\n        /* \"contracts/Manager.sol\":2957:2969  extra.token0 */\n      0x00\n      add\n      mload\n        /* \"contracts/Manager.sol\":2950:2983  IERC20(extra.token0).transferFrom */\n      0xffffffffffffffffffffffffffffffffffffffff\n      and\n      0x23b872dd\n        /* \"contracts/Manager.sol\":3002:3007  extra */\n      dup3\n        /* \"contracts/Manager.sol\":3002:3013  extra.payer */\n      0x40\n      add\n      mload\n        /* \"contracts/Manager.sol\":3032:3042  msg.sender */\n      caller\n        /* \"contracts/Manager.sol\":3069:3076  amount0 */\n      dup9\n        /* \"contracts/Manager.sol\":2950:3092  IERC20(extra.token0).transferFrom(... */\n      mload(0x40)\n      dup5\n      0xffffffff\n      and\n      0xe0\n      shl\n      dup2\n      mstore\n      0x04\n      add\n      tag_92\n      swap4\n      swap3\n      swap2\n      swap1\n      tag_66\n      jump\t// in\n    tag_92:\n      0x00\n      mload(0x40)\n      dup1\n      dup4\n      sub\n      dup2\n      0x00\n      dup8\n      dup1\n      extcodesize\n      iszero\n      dup1\n      iszero\n      tag_93\n      jumpi\n      0x00\n      dup1\n      revert\n    tag_93:\n      pop\n      gas\n      call\n      iszero\n      dup1\n      iszero\n      tag_95\n      jumpi\n      returndatasize\n      0x00\n      dup1\n      returndatacopy\n      revert(0x00, returndatasize)\n    tag_95:\n      pop\n      pop\n      pop\n      pop\n        /* \"contracts/Manager.sol\":2918:3104  if (amount0 > 0) {... */\n    tag_91:\n        /* \"contracts/Manager.sol\":3130:3131  0 */\n      0x00\n        /* \"contracts/Manager.sol\":3120:3127  amount1 */\n      dup5\n        /* \"contracts/Manager.sol\":3120:3131  amount1 > 0 */\n      sgt\n        /* \"contracts/Manager.sol\":3116:3302  if (amount1 > 0) {... */\n      iszero\n      tag_96\n      jumpi\n        /* \"contracts/Manager.sol\":3155:3160  extra */\n      dup1\n        /* \"contracts/Manager.sol\":3155:3167  extra.token1 */\n      0x20\n      add\n      mload\n        /* \"contracts/Manager.sol\":3148:3181  IERC20(extra.token1).transferFrom */\n      0xffffffffffffffffffffffffffffffffffffffff\n      and\n      0x23b872dd\n        /* \"contracts/Manager.sol\":3200:3205  extra */\n      dup3\n        /* \"contracts/Manager.sol\":3200:3211  extra.payer */\n      0x40\n      add\n      mload\n        /* \"contracts/Manager.sol\":3230:3240  msg.sender */\n      caller\n        /* \"contracts/Manager.sol\":3267:3274  amount1 */\n      dup8\n        /* \"contracts/Manager.sol\":3148:3290  IERC20(extra.token1).transferFrom(... */\n      mload(0x40)\n      dup5\n      0xffffffff\n      and\n      0xe0\n      shl\n      dup2\n      mstore\n      0x04\n      add\n      tag_97\n      swap4\n      swap3\n      swap2\n      swap1\n      tag_66\n      jump\t// in\n    tag_97:\n      0x00\n      mload(0x40)\n      dup1\n      dup4\n      sub\n      dup2\n      0x00\n      dup8\n      dup1\n      extcodesize\n      iszero\n      dup1\n      iszero\n      tag_98\n      jumpi\n      0x00\n      dup1\n      revert\n    tag_98:\n      pop\n      gas\n      call\n      iszero\n      dup1\n      iszero\n      tag_100\n      jumpi\n      returndatasize\n      0x00\n      dup1\n      returndatacopy\n      revert(0x00, returndatasize)\n    tag_100:\n      pop\n      pop\n      pop\n      pop\n        /* \"contracts/Manager.sol\":3116:3302  if (amount1 > 0) {... */\n    tag_96:\n        /* \"contracts/Manager.sol\":2785:3309  {... */\n      pop\n        /* \"contracts/Manager.sol\":2669:3309  function swapCallback(... */\n      pop\n      pop\n      pop\n      pop\n      jump\t// out\n        /* \"libraries/TickMath.sol\":1377:3996  function getSqrtRatioAtTick(int24 tick) internal pure returns (uint160 sqrtPriceX96) {... */\n    tag_37:\n        /* \"libraries/TickMath.sol\":1440:1460  uint160 sqrtPriceX96 */\n      0x00\n        /* \"libraries/TickMath.sol\":1473:1488  uint256 absTick */\n      dup1\n        /* \"libraries/TickMath.sol\":1498:1499  0 */\n      0x00\n        /* \"libraries/TickMath.sol\":1491:1495  tick */\n      dup4\n        /* \"libraries/TickMath.sol\":1491:1499  tick < 0 */\n      0x02\n      signextend\n      slt\n        /* \"libraries/TickMath.sol\":1491:1548  tick < 0 ? uint256(-int256(tick)) : uint256(int256(tick)) */\n      tag_102\n      jumpi\n        /* \"libraries/TickMath.sol\":1542:1546  tick */\n      dup3\n        /* \"libraries/TickMath.sol\":1535:1547  int256(tick) */\n      0x02\n      signextend\n        /* \"libraries/TickMath.sol\":1491:1548  tick < 0 ? uint256(-int256(tick)) : uint256(int256(tick)) */\n      jump(tag_103)\n    tag_102:\n        /* \"libraries/TickMath.sol\":1518:1522  tick */\n      dup3\n        /* \"libraries/TickMath.sol\":1511:1523  int256(tick) */\n      0x02\n      signextend\n        /* \"libraries/TickMath.sol\":1510:1523  -int256(tick) */\n      tag_104\n      swap1\n      tag_105\n      jump\t// in\n    tag_104:\n        /* \"libraries/TickMath.sol\":1491:1548  tick < 0 ? uint256(-int256(tick)) : uint256(int256(tick)) */\n    tag_103:\n        /* \"libraries/TickMath.sol\":1473:1548  uint256 absTick = tick < 0 ? uint256(-int256(tick)) : uint256(int256(tick)) */\n      swap1\n      pop\n        /* \"libraries/TickMath.sol\":485:492  -887272 */\n      0xfffffffffffffffffffffffffffffffffffffffffffffffffffffffffff27618\n        /* \"libraries/TickMath.sol\":647:656  -MIN_TICK */\n      tag_106\n      swap1\n      tag_107\n      jump\t// in\n    tag_106:\n        /* \"libraries/TickMath.sol\":1578:1603  uint256(uint24(MAX_TICK)) */\n      0xffffff\n      and\n        /* \"libraries/TickMath.sol\":1567:1574  absTick */\n      dup2\n        /* \"libraries/TickMath.sol\":1567:1603  absTick <= uint256(uint24(MAX_TICK)) */\n      gt\n      iszero\n        /* \"libraries/TickMath.sol\":1559:1609  require(absTick <= uint256(uint24(MAX_TICK)), 'T') */\n      tag_108\n      jumpi\n      mload(0x40)\n      0x08c379a000000000000000000000000000000000000000000000000000000000\n      dup2\n      mstore\n      0x04\n      add\n      tag_109\n      swap1\n      tag_110\n      jump\t// in\n    tag_109:\n      mload(0x40)\n      dup1\n      swap2\n      sub\n      swap1\n      revert\n    tag_108:\n        /* \"libraries/TickMath.sol\":1622:1635  uint256 ratio */\n      0x00\n        /* \"libraries/TickMath.sol\":1655:1656  0 */\n      dup1\n        /* \"libraries/TickMath.sol\":1648:1651  0x1 */\n      0x01\n        /* \"libraries/TickMath.sol\":1638:1645  absTick */\n      dup4\n        /* \"libraries/TickMath.sol\":1638:1651  absTick & 0x1 */\n      and\n        /* \"libraries/TickMath.sol\":1638:1656  absTick & 0x1 != 0 */\n      sub\n        /* \"libraries/TickMath.sol\":1638:1731  absTick & 0x1 != 0 ? 0xfffcb933bd6fad37aa2d162d1a594001 : 0x100000000000000000000000000000000 */\n      tag_111\n      jumpi\n        /* \"libraries/TickMath.sol\":1696:1731  0x100000000000000000000000000000000 */\n      0x0100000000000000000000000000000000\n        /* \"libraries/TickMath.sol\":1638:1731  absTick & 0x1 != 0 ? 0xfffcb933bd6fad37aa2d162d1a594001 : 0x100000000000000000000000000000000 */\n      jump(tag_112)\n    tag_111:\n        /* \"libraries/TickMath.sol\":1659:1693  0xfffcb933bd6fad37aa2d162d1a594001 */\n      0xfffcb933bd6fad37aa2d162d1a594001\n        /* \"libraries/TickMath.sol\":1638:1731  absTick & 0x1 != 0 ? 0xfffcb933bd6fad37aa2d162d1a594001 : 0x100000000000000000000000000000000 */\n    tag_112:\n        /* \"libraries/TickMath.sol\":1622:1731  uint256 ratio = absTick & 0x1 != 0 ? 0xfffcb933bd6fad37aa2d162d1a594001 : 0x100000000000000000000000000000000 */\n      0xffffffffffffffffffffffffffffffffff\n      and\n      swap1\n      pop\n        /* \"libraries/TickMath.sol\":1763:1764  0 */\n      0x00\n        /* \"libraries/TickMath.sol\":1756:1759  0x2 */\n      0x02\n        /* \"libraries/TickMath.sol\":1746:1753  absTick */\n      dup4\n        /* \"libraries/TickMath.sol\":1746:1759  absTick & 0x2 */\n      and\n        /* \"libraries/TickMath.sol\":1746:1764  absTick & 0x2 != 0 */\n      eq\n        /* \"libraries/TickMath.sol\":1742:1825  if (absTick & 0x2 != 0) ratio = (ratio * 0xfff97272373d413259a46990580e213a) >> 128 */\n      tag_113\n      jumpi\n        /* \"libraries/TickMath.sol\":1822:1825  128 */\n      0x80\n        /* \"libraries/TickMath.sol\":1783:1817  0xfff97272373d413259a46990580e213a */\n      0xfff97272373d413259a46990580e213a\n        /* \"libraries/TickMath.sol\":1775:1780  ratio */\n      dup3\n        /* \"libraries/TickMath.sol\":1775:1817  ratio * 0xfff97272373d413259a46990580e213a */\n      tag_114\n      swap2\n      swap1\n      tag_115\n      jump\t// in\n    tag_114:\n        /* \"libraries/TickMath.sol\":1774:1825  (ratio * 0xfff97272373d413259a46990580e213a) >> 128 */\n      swap1\n      shr\n        /* \"libraries/TickMath.sol\":1766:1825  ratio = (ratio * 0xfff97272373d413259a46990580e213a) >> 128 */\n      swap1\n      pop\n        /* \"libraries/TickMath.sol\":1742:1825  if (absTick & 0x2 != 0) ratio = (ratio * 0xfff97272373d413259a46990580e213a) >> 128 */\n    tag_113:\n        /* \"libraries/TickMath.sol\":1857:1858  0 */\n      0x00\n        /* \"libraries/TickMath.sol\":1850:1853  0x4 */\n      0x04\n        /* \"libraries/TickMath.sol\":1840:1847  absTick */\n      dup4\n        /* \"libraries/TickMath.sol\":1840:1853  absTick & 0x4 */\n      and\n        /* \"libraries/TickMath.sol\":1840:1858  absTick & 0x4 != 0 */\n      eq\n        /* \"libraries/TickMath.sol\":1836:1919  if (absTick & 0x4 != 0) ratio = (ratio * 0xfff2e50f5f656932ef12357cf3c7fdcc) >> 128 */\n      tag_116\n      jumpi\n        /* \"libraries/TickMath.sol\":1916:1919  128 */\n      0x80\n        /* \"libraries/TickMath.sol\":1877:1911  0xfff2e50f5f656932ef12357cf3c7fdcc */\n      0xfff2e50f5f656932ef12357cf3c7fdcc\n        /* \"libraries/TickMath.sol\":1869:1874  ratio */\n      dup3\n        /* \"libraries/TickMath.sol\":1869:1911  ratio * 0xfff2e50f5f656932ef12357cf3c7fdcc */\n      tag_117\n      swap2\n      swap1\n      tag_115\n      jump\t// in\n    tag_117:\n        /* \"libraries/TickMath.sol\":1868:1919  (ratio * 0xfff2e50f5f656932ef12357cf3c7fdcc) >> 128 */\n      swap1\n      shr\n        /* \"libraries/TickMath.sol\":1860:1919  ratio = (ratio * 0xfff2e50f5f656932ef12357cf3c7fdcc) >> 128 */\n      swap1\n      pop\n        /* \"libraries/TickMath.sol\":1836:1919  if (absTick & 0x4 != 0) ratio = (ratio * 0xfff2e50f5f656932ef12357cf3c7fdcc) >> 128 */\n    tag_116:\n        /* \"libraries/TickMath.sol\":1951:1952  0 */\n      0x00\n        /* \"libraries/TickMath.sol\":1944:1947  0x8 */\n      0x08\n        /* \"libraries/TickMath.sol\":1934:1941  absTick */\n      dup4\n        /* \"libraries/TickMath.sol\":1934:1947  absTick & 0x8 */\n      and\n        /* \"libraries/TickMath.sol\":1934:1952  absTick & 0x8 != 0 */\n      eq\n        /* \"libraries/TickMath.sol\":1930:2013  if (absTick & 0x8 != 0) ratio = (ratio * 0xffe5caca7e10e4e61c3624eaa0941cd0) >> 128 */\n      tag_118\n      jumpi\n        /* \"libraries/TickMath.sol\":2010:2013  128 */\n      0x80\n        /* \"libraries/TickMath.sol\":1971:2005  0xffe5caca7e10e4e61c3624eaa0941cd0 */\n      0xffe5caca7e10e4e61c3624eaa0941cd0\n        /* \"libraries/TickMath.sol\":1963:1968  ratio */\n      dup3\n        /* \"libraries/TickMath.sol\":1963:2005  ratio * 0xffe5caca7e10e4e61c3624eaa0941cd0 */\n      tag_119\n      swap2\n      swap1\n      tag_115\n      jump\t// in\n    tag_119:\n        /* \"libraries/TickMath.sol\":1962:2013  (ratio * 0xffe5caca7e10e4e61c3624eaa0941cd0) >> 128 */\n      swap1\n      shr\n        /* \"libraries/TickMath.sol\":1954:2013  ratio = (ratio * 0xffe5caca7e10e4e61c3624eaa0941cd0) >> 128 */\n      swap1\n      pop\n        /* \"libraries/TickMath.sol\":1930:2013  if (absTick & 0x8 != 0) ratio = (ratio * 0xffe5caca7e10e4e61c3624eaa0941cd0) >> 128 */\n    tag_118:\n        /* \"libraries/TickMath.sol\":2046:2047  0 */\n      0x00\n        /* \"libraries/TickMath.sol\":2038:2042  0x10 */\n      0x10\n        /* \"libraries/TickMath.sol\":2028:2035  absTick */\n      dup4\n        /* \"libraries/TickMath.sol\":2028:2042  absTick & 0x10 */\n      and\n        /* \"libraries/TickMath.sol\":2028:2047  absTick & 0x10 != 0 */\n      eq\n        /* \"libraries/TickMath.sol\":2024:2108  if (absTick & 0x10 != 0) ratio = (ratio * 0xffcb9843d60f6159c9db58835c926644) >> 128 */\n      tag_120\n      jumpi\n        /* \"libraries/TickMath.sol\":2105:2108  128 */\n      0x80\n        /* \"libraries/TickMath.sol\":2066:2100  0xffcb9843d60f6159c9db58835c926644 */\n      0xffcb9843d60f6159c9db58835c926644\n        /* \"libraries/TickMath.sol\":2058:2063  ratio */\n      dup3\n        /* \"libraries/TickMath.sol\":2058:2100  ratio * 0xffcb9843d60f6159c9db58835c926644 */\n      tag_121\n      swap2\n      swap1\n      tag_115\n      jump\t// in\n    tag_121:\n        /* \"libraries/TickMath.sol\":2057:2108  (ratio * 0xffcb9843d60f6159c9db58835c926644) >> 128 */\n      swap1\n      shr\n        /* \"libraries/TickMath.sol\":2049:2108  ratio = (ratio * 0xffcb9843d60f6159c9db58835c926644) >> 128 */\n      swap1\n      pop\n        /* \"libraries/TickMath.sol\":2024:2108  if (absTick & 0x10 != 0) ratio = (ratio * 0xffcb9843d60f6159c9db58835c926644) >> 128 */\n    tag_120:\n        /* \"libraries/TickMath.sol\":2141:2142  0 */\n      0x00\n        /* \"libraries/TickMath.sol\":2133:2137  0x20 */\n      0x20\n        /* \"libraries/TickMath.sol\":2123:2130  absTick */\n      dup4\n        /* \"libraries/TickMath.sol\":2123:2137  absTick & 0x20 */\n      and\n        /* \"libraries/TickMath.sol\":2123:2142  absTick & 0x20 != 0 */\n      eq\n        /* \"libraries/TickMath.sol\":2119:2203  if (absTick & 0x20 != 0) ratio = (ratio * 0xff973b41fa98c081472e6896dfb254c0) >> 128 */\n      tag_122\n      jumpi\n        /* \"libraries/TickMath.sol\":2200:2203  128 */\n      0x80\n        /* \"libraries/TickMath.sol\":2161:2195  0xff973b41fa98c081472e6896dfb254c0 */\n      0xff973b41fa98c081472e6896dfb254c0\n        /* \"libraries/TickMath.sol\":2153:2158  ratio */\n      dup3\n        /* \"libraries/TickMath.sol\":2153:2195  ratio * 0xff973b41fa98c081472e6896dfb254c0 */\n      tag_123\n      swap2\n      swap1\n      tag_115\n      jump\t// in\n    tag_123:\n        /* \"libraries/TickMath.sol\":2152:2203  (ratio * 0xff973b41fa98c081472e6896dfb254c0) >> 128 */\n      swap1\n      shr\n        /* \"libraries/TickMath.sol\":2144:2203  ratio = (ratio * 0xff973b41fa98c081472e6896dfb254c0) >> 128 */\n      swap1\n      pop\n        /* \"libraries/TickMath.sol\":2119:2203  if (absTick & 0x20 != 0) ratio = (ratio * 0xff973b41fa98c081472e6896dfb254c0) >> 128 */\n    tag_122:\n        /* \"libraries/TickMath.sol\":2236:2237  0 */\n      0x00\n        /* \"libraries/TickMath.sol\":2228:2232  0x40 */\n      0x40\n        /* \"libraries/TickMath.sol\":2218:2225  absTick */\n      dup4\n        /* \"libraries/TickMath.sol\":2218:2232  absTick & 0x40 */\n      and\n        /* \"libraries/TickMath.sol\":2218:2237  absTick & 0x40 != 0 */\n      eq\n        /* \"libraries/TickMath.sol\":2214:2298  if (absTick & 0x40 != 0) ratio = (ratio * 0xff2ea16466c96a3843ec78b326b52861) >> 128 */\n      tag_124\n      jumpi\n        /* \"libraries/TickMath.sol\":2295:2298  128 */\n      0x80\n        /* \"libraries/TickMath.sol\":2256:2290  0xff2ea16466c96a3843ec78b326b52861 */\n      0xff2ea16466c96a3843ec78b326b52861\n        /* \"libraries/TickMath.sol\":2248:2253  ratio */\n      dup3\n        /* \"libraries/TickMath.sol\":2248:2290  ratio * 0xff2ea16466c96a3843ec78b326b52861 */\n      tag_125\n      swap2\n      swap1\n      tag_115\n      jump\t// in\n    tag_125:\n        /* \"libraries/TickMath.sol\":2247:2298  (ratio * 0xff2ea16466c96a3843ec78b326b52861) >> 128 */\n      swap1\n      shr\n        /* \"libraries/TickMath.sol\":2239:2298  ratio = (ratio * 0xff2ea16466c96a3843ec78b326b52861) >> 128 */\n      swap1\n      pop\n        /* \"libraries/TickMath.sol\":2214:2298  if (absTick & 0x40 != 0) ratio = (ratio * 0xff2ea16466c96a3843ec78b326b52861) >> 128 */\n    tag_124:\n        /* \"libraries/TickMath.sol\":2331:2332  0 */\n      0x00\n        /* \"libraries/TickMath.sol\":2323:2327  0x80 */\n      0x80\n        /* \"libraries/TickMath.sol\":2313:2320  absTick */\n      dup4\n        /* \"libraries/TickMath.sol\":2313:2327  absTick & 0x80 */\n      and\n        /* \"libraries/TickMath.sol\":2313:2332  absTick & 0x80 != 0 */\n      eq\n        /* \"libraries/TickMath.sol\":2309:2393  if (absTick & 0x80 != 0) ratio = (ratio * 0xfe5dee046a99a2a811c461f1969c3053) >> 128 */\n      tag_126\n      jumpi\n        /* \"libraries/TickMath.sol\":2390:2393  128 */\n      0x80\n        /* \"libraries/TickMath.sol\":2351:2385  0xfe5dee046a99a2a811c461f1969c3053 */\n      0xfe5dee046a99a2a811c461f1969c3053\n        /* \"libraries/TickMath.sol\":2343:2348  ratio */\n      dup3\n        /* \"libraries/TickMath.sol\":2343:2385  ratio * 0xfe5dee046a99a2a811c461f1969c3053 */\n      tag_127\n      swap2\n      swap1\n      tag_115\n      jump\t// in\n    tag_127:\n        /* \"libraries/TickMath.sol\":2342:2393  (ratio * 0xfe5dee046a99a2a811c461f1969c3053) >> 128 */\n      swap1\n      shr\n        /* \"libraries/TickMath.sol\":2334:2393  ratio = (ratio * 0xfe5dee046a99a2a811c461f1969c3053) >> 128 */\n      swap1\n      pop\n        /* \"libraries/TickMath.sol\":2309:2393  if (absTick & 0x80 != 0) ratio = (ratio * 0xfe5dee046a99a2a811c461f1969c3053) >> 128 */\n    tag_126:\n        /* \"libraries/TickMath.sol\":2427:2428  0 */\n      0x00\n        /* \"libraries/TickMath.sol\":2418:2423  0x100 */\n      0x0100\n        /* \"libraries/TickMath.sol\":2408:2415  absTick */\n      dup4\n        /* \"libraries/TickMath.sol\":2408:2423  absTick & 0x100 */\n      and\n        /* \"libraries/TickMath.sol\":2408:2428  absTick & 0x100 != 0 */\n      eq\n        /* \"libraries/TickMath.sol\":2404:2489  if (absTick & 0x100 != 0) ratio = (ratio * 0xfcbe86c7900a88aedcffc83b479aa3a4) >> 128 */\n      tag_128\n      jumpi\n        /* \"libraries/TickMath.sol\":2486:2489  128 */\n      0x80\n        /* \"libraries/TickMath.sol\":2447:2481  0xfcbe86c7900a88aedcffc83b479aa3a4 */\n      0xfcbe86c7900a88aedcffc83b479aa3a4\n        /* \"libraries/TickMath.sol\":2439:2444  ratio */\n      dup3\n        /* \"libraries/TickMath.sol\":2439:2481  ratio * 0xfcbe86c7900a88aedcffc83b479aa3a4 */\n      tag_129\n      swap2\n      swap1\n      tag_115\n      jump\t// in\n    tag_129:\n        /* \"libraries/TickMath.sol\":2438:2489  (ratio * 0xfcbe86c7900a88aedcffc83b479aa3a4) >> 128 */\n      swap1\n      shr\n        /* \"libraries/TickMath.sol\":2430:2489  ratio = (ratio * 0xfcbe86c7900a88aedcffc83b479aa3a4) >> 128 */\n      swap1\n      pop\n        /* \"libraries/TickMath.sol\":2404:2489  if (absTick & 0x100 != 0) ratio = (ratio * 0xfcbe86c7900a88aedcffc83b479aa3a4) >> 128 */\n    tag_128:\n        /* \"libraries/TickMath.sol\":2523:2524  0 */\n      0x00\n        /* \"libraries/TickMath.sol\":2514:2519  0x200 */\n      0x0200\n        /* \"libraries/TickMath.sol\":2504:2511  absTick */\n      dup4\n        /* \"libraries/TickMath.sol\":2504:2519  absTick & 0x200 */\n      and\n        /* \"libraries/TickMath.sol\":2504:2524  absTick & 0x200 != 0 */\n      eq\n        /* \"libraries/TickMath.sol\":2500:2585  if (absTick & 0x200 != 0) ratio = (ratio * 0xf987a7253ac413176f2b074cf7815e54) >> 128 */\n      tag_130\n      jumpi\n        /* \"libraries/TickMath.sol\":2582:2585  128 */\n      0x80\n        /* \"libraries/TickMath.sol\":2543:2577  0xf987a7253ac413176f2b074cf7815e54 */\n      0xf987a7253ac413176f2b074cf7815e54\n        /* \"libraries/TickMath.sol\":2535:2540  ratio */\n      dup3\n        /* \"libraries/TickMath.sol\":2535:2577  ratio * 0xf987a7253ac413176f2b074cf7815e54 */\n      tag_131\n      swap2\n      swap1\n      tag_115\n      jump\t// in\n    tag_131:\n        /* \"libraries/TickMath.sol\":2534:2585  (ratio * 0xf987a7253ac413176f2b074cf7815e54) >> 128 */\n      swap1\n      shr\n        /* \"libraries/TickMath.sol\":2526:2585  ratio = (ratio * 0xf987a7253ac413176f2b074cf7815e54) >> 128 */\n      swap1\n      pop\n        /* \"libraries/TickMath.sol\":2500:2585  if (absTick & 0x200 != 0) ratio = (ratio * 0xf987a7253ac413176f2b074cf7815e54) >> 128 */\n    tag_130:\n        /* \"libraries/TickMath.sol\":2619:2620  0 */\n      0x00\n        /* \"libraries/TickMath.sol\":2610:2615  0x400 */\n      0x0400\n        /* \"libraries/TickMath.sol\":2600:2607  absTick */\n      dup4\n        /* \"libraries/TickMath.sol\":2600:2615  absTick & 0x400 */\n      and\n        /* \"libraries/TickMath.sol\":2600:2620  absTick & 0x400 != 0 */\n      eq\n        /* \"libraries/TickMath.sol\":2596:2681  if (absTick & 0x400 != 0) ratio = (ratio * 0xf3392b0822b70005940c7a398e4b70f3) >> 128 */\n      tag_132\n      jumpi\n        /* \"libraries/TickMath.sol\":2678:2681  128 */\n      0x80\n        /* \"libraries/TickMath.sol\":2639:2673  0xf3392b0822b70005940c7a398e4b70f3 */\n      0xf3392b0822b70005940c7a398e4b70f3\n        /* \"libraries/TickMath.sol\":2631:2636  ratio */\n      dup3\n        /* \"libraries/TickMath.sol\":2631:2673  ratio * 0xf3392b0822b70005940c7a398e4b70f3 */\n      tag_133\n      swap2\n      swap1\n      tag_115\n      jump\t// in\n    tag_133:\n        /* \"libraries/TickMath.sol\":2630:2681  (ratio * 0xf3392b0822b70005940c7a398e4b70f3) >> 128 */\n      swap1\n      shr\n        /* \"libraries/TickMath.sol\":2622:2681  ratio = (ratio * 0xf3392b0822b70005940c7a398e4b70f3) >> 128 */\n      swap1\n      pop\n        /* \"libraries/TickMath.sol\":2596:2681  if (absTick & 0x400 != 0) ratio = (ratio * 0xf3392b0822b70005940c7a398e4b70f3) >> 128 */\n    tag_132:\n        /* \"libraries/TickMath.sol\":2715:2716  0 */\n      0x00\n        /* \"libraries/TickMath.sol\":2706:2711  0x800 */\n      0x0800\n        /* \"libraries/TickMath.sol\":2696:2703  absTick */\n      dup4\n        /* \"libraries/TickMath.sol\":2696:2711  absTick & 0x800 */\n      and\n        /* \"libraries/TickMath.sol\":2696:2716  absTick & 0x800 != 0 */\n      eq\n        /* \"libraries/TickMath.sol\":2692:2777  if (absTick & 0x800 != 0) ratio = (ratio * 0xe7159475a2c29b7443b29c7fa6e889d9) >> 128 */\n      tag_134\n      jumpi\n        /* \"libraries/TickMath.sol\":2774:2777  128 */\n      0x80\n        /* \"libraries/TickMath.sol\":2735:2769  0xe7159475a2c29b7443b29c7fa6e889d9 */\n      0xe7159475a2c29b7443b29c7fa6e889d9\n        /* \"libraries/TickMath.sol\":2727:2732  ratio */\n      dup3\n        /* \"libraries/TickMath.sol\":2727:2769  ratio * 0xe7159475a2c29b7443b29c7fa6e889d9 */\n      tag_135\n      swap2\n      swap1\n      tag_115\n      jump\t// in\n    tag_135:\n        /* \"libraries/TickMath.sol\":2726:2777  (ratio * 0xe7159475a2c29b7443b29c7fa6e889d9) >> 128 */\n      swap1\n      shr\n        /* \"libraries/TickMath.sol\":2718:2777  ratio = (ratio * 0xe7159475a2c29b7443b29c7fa6e889d9) >> 128 */\n      swap1\n      pop\n        /* \"libraries/TickMath.sol\":2692:2777  if (absTick & 0x800 != 0) ratio = (ratio * 0xe7159475a2c29b7443b29c7fa6e889d9) >> 128 */\n    tag_134:\n        /* \"libraries/TickMath.sol\":2812:2813  0 */\n      0x00\n        /* \"libraries/TickMath.sol\":2802:2808  0x1000 */\n      0x1000\n        /* \"libraries/TickMath.sol\":2792:2799  absTick */\n      dup4\n        /* \"libraries/TickMath.sol\":2792:2808  absTick & 0x1000 */\n      and\n        /* \"libraries/TickMath.sol\":2792:2813  absTick & 0x1000 != 0 */\n      eq\n        /* \"libraries/TickMath.sol\":2788:2874  if (absTick & 0x1000 != 0) ratio = (ratio * 0xd097f3bdfd2022b8845ad8f792aa5825) >> 128 */\n      tag_136\n      jumpi\n        /* \"libraries/TickMath.sol\":2871:2874  128 */\n      0x80\n        /* \"libraries/TickMath.sol\":2832:2866  0xd097f3bdfd2022b8845ad8f792aa5825 */\n      0xd097f3bdfd2022b8845ad8f792aa5825\n        /* \"libraries/TickMath.sol\":2824:2829  ratio */\n      dup3\n        /* \"libraries/TickMath.sol\":2824:2866  ratio * 0xd097f3bdfd2022b8845ad8f792aa5825 */\n      tag_137\n      swap2\n      swap1\n      tag_115\n      jump\t// in\n    tag_137:\n        /* \"libraries/TickMath.sol\":2823:2874  (ratio * 0xd097f3bdfd2022b8845ad8f792aa5825) >> 128 */\n      swap1\n      shr\n        /* \"libraries/TickMath.sol\":2815:2874  ratio = (ratio * 0xd097f3bdfd2022b8845ad8f792aa5825) >> 128 */\n      swap1\n      pop\n        /* \"libraries/TickMath.sol\":2788:2874  if (absTick & 0x1000 != 0) ratio = (ratio * 0xd097f3bdfd2022b8845ad8f792aa5825) >> 128 */\n    tag_136:\n        /* \"libraries/TickMath.sol\":2909:2910  0 */\n      0x00\n        /* \"libraries/TickMath.sol\":2899:2905  0x2000 */\n      0x2000\n        /* \"libraries/TickMath.sol\":2889:2896  absTick */\n      dup4\n        /* \"libraries/TickMath.sol\":2889:2905  absTick & 0x2000 */\n      and\n        /* \"libraries/TickMath.sol\":2889:2910  absTick & 0x2000 != 0 */\n      eq\n        /* \"libraries/TickMath.sol\":2885:2971  if (absTick & 0x2000 != 0) ratio = (ratio * 0xa9f746462d870fdf8a65dc1f90e061e5) >> 128 */\n      tag_138\n      jumpi\n        /* \"libraries/TickMath.sol\":2968:2971  128 */\n      0x80\n        /* \"libraries/TickMath.sol\":2929:2963  0xa9f746462d870fdf8a65dc1f90e061e5 */\n      0xa9f746462d870fdf8a65dc1f90e061e5\n        /* \"libraries/TickMath.sol\":2921:2926  ratio */\n      dup3\n        /* \"libraries/TickMath.sol\":2921:2963  ratio * 0xa9f746462d870fdf8a65dc1f90e061e5 */\n      tag_139\n      swap2\n      swap1\n      tag_115\n      jump\t// in\n    tag_139:\n        /* \"libraries/TickMath.sol\":2920:2971  (ratio * 0xa9f746462d870fdf8a65dc1f90e061e5) >> 128 */\n      swap1\n      shr\n        /* \"libraries/TickMath.sol\":2912:2971  ratio = (ratio * 0xa9f746462d870fdf8a65dc1f90e061e5) >> 128 */\n      swap1\n      pop\n        /* \"libraries/TickMath.sol\":2885:2971  if (absTick & 0x2000 != 0) ratio = (ratio * 0xa9f746462d870fdf8a65dc1f90e061e5) >> 128 */\n    tag_138:\n        /* \"libraries/TickMath.sol\":3006:3007  0 */\n      0x00\n        /* \"libraries/TickMath.sol\":2996:3002  0x4000 */\n      0x4000\n        /* \"libraries/TickMath.sol\":2986:2993  absTick */\n      dup4\n        /* \"libraries/TickMath.sol\":2986:3002  absTick & 0x4000 */\n      and\n        /* \"libraries/TickMath.sol\":2986:3007  absTick & 0x4000 != 0 */\n      eq\n        /* \"libraries/TickMath.sol\":2982:3068  if (absTick & 0x4000 != 0) ratio = (ratio * 0x70d869a156d2a1b890bb3df62baf32f7) >> 128 */\n      tag_140\n      jumpi\n        /* \"libraries/TickMath.sol\":3065:3068  128 */\n      0x80\n        /* \"libraries/TickMath.sol\":3026:3060  0x70d869a156d2a1b890bb3df62baf32f7 */\n      0x70d869a156d2a1b890bb3df62baf32f7\n        /* \"libraries/TickMath.sol\":3018:3023  ratio */\n      dup3\n        /* \"libraries/TickMath.sol\":3018:3060  ratio * 0x70d869a156d2a1b890bb3df62baf32f7 */\n      tag_141\n      swap2\n      swap1\n      tag_115\n      jump\t// in\n    tag_141:\n        /* \"libraries/TickMath.sol\":3017:3068  (ratio * 0x70d869a156d2a1b890bb3df62baf32f7) >> 128 */\n      swap1\n      shr\n        /* \"libraries/TickMath.sol\":3009:3068  ratio = (ratio * 0x70d869a156d2a1b890bb3df62baf32f7) >> 128 */\n      swap1\n      pop\n        /* \"libraries/TickMath.sol\":2982:3068  if (absTick & 0x4000 != 0) ratio = (ratio * 0x70d869a156d2a1b890bb3df62baf32f7) >> 128 */\n    tag_140:\n        /* \"libraries/TickMath.sol\":3103:3104  0 */\n      0x00\n        /* \"libraries/TickMath.sol\":3093:3099  0x8000 */\n      0x8000\n        /* \"libraries/TickMath.sol\":3083:3090  absTick */\n      dup4\n        /* \"libraries/TickMath.sol\":3083:3099  absTick & 0x8000 */\n      and\n        /* \"libraries/TickMath.sol\":3083:3104  absTick & 0x8000 != 0 */\n      eq\n        /* \"libraries/TickMath.sol\":3079:3165  if (absTick & 0x8000 != 0) ratio = (ratio * 0x31be135f97d08fd981231505542fcfa6) >> 128 */\n      tag_142\n      jumpi\n        /* \"libraries/TickMath.sol\":3162:3165  128 */\n      0x80\n        /* \"libraries/TickMath.sol\":3123:3157  0x31be135f97d08fd981231505542fcfa6 */\n      0x31be135f97d08fd981231505542fcfa6\n        /* \"libraries/TickMath.sol\":3115:3120  ratio */\n      dup3\n        /* \"libraries/TickMath.sol\":3115:3157  ratio * 0x31be135f97d08fd981231505542fcfa6 */\n      tag_143\n      swap2\n      swap1\n      tag_115\n      jump\t// in\n    tag_143:\n        /* \"libraries/TickMath.sol\":3114:3165  (ratio * 0x31be135f97d08fd981231505542fcfa6) >> 128 */\n      swap1\n      shr\n        /* \"libraries/TickMath.sol\":3106:3165  ratio = (ratio * 0x31be135f97d08fd981231505542fcfa6) >> 128 */\n      swap1\n      pop\n        /* \"libraries/TickMath.sol\":3079:3165  if (absTick & 0x8000 != 0) ratio = (ratio * 0x31be135f97d08fd981231505542fcfa6) >> 128 */\n    tag_142:\n        /* \"libraries/TickMath.sol\":3201:3202  0 */\n      0x00\n        /* \"libraries/TickMath.sol\":3190:3197  0x10000 */\n      0x010000\n        /* \"libraries/TickMath.sol\":3180:3187  absTick */\n      dup4\n        /* \"libraries/TickMath.sol\":3180:3197  absTick & 0x10000 */\n      and\n        /* \"libraries/TickMath.sol\":3180:3202  absTick & 0x10000 != 0 */\n      eq\n        /* \"libraries/TickMath.sol\":3176:3262  if (absTick & 0x10000 != 0) ratio = (ratio * 0x9aa508b5b7a84e1c677de54f3e99bc9) >> 128 */\n      tag_144\n      jumpi\n        /* \"libraries/TickMath.sol\":3259:3262  128 */\n      0x80\n        /* \"libraries/TickMath.sol\":3221:3254  0x9aa508b5b7a84e1c677de54f3e99bc9 */\n      0x09aa508b5b7a84e1c677de54f3e99bc9\n        /* \"libraries/TickMath.sol\":3213:3218  ratio */\n      dup3\n        /* \"libraries/TickMath.sol\":3213:3254  ratio * 0x9aa508b5b7a84e1c677de54f3e99bc9 */\n      tag_145\n      swap2\n      swap1\n      tag_115\n      jump\t// in\n    tag_145:\n        /* \"libraries/TickMath.sol\":3212:3262  (ratio * 0x9aa508b5b7a84e1c677de54f3e99bc9) >> 128 */\n      swap1\n      shr\n        /* \"libraries/TickMath.sol\":3204:3262  ratio = (ratio * 0x9aa508b5b7a84e1c677de54f3e99bc9) >> 128 */\n      swap1\n      pop\n        /* \"libraries/TickMath.sol\":3176:3262  if (absTick & 0x10000 != 0) ratio = (ratio * 0x9aa508b5b7a84e1c677de54f3e99bc9) >> 128 */\n    tag_144:\n        /* \"libraries/TickMath.sol\":3298:3299  0 */\n      0x00\n        /* \"libraries/TickMath.sol\":3287:3294  0x20000 */\n      0x020000\n        /* \"libraries/TickMath.sol\":3277:3284  absTick */\n      dup4\n        /* \"libraries/TickMath.sol\":3277:3294  absTick & 0x20000 */\n      and\n        /* \"libraries/TickMath.sol\":3277:3299  absTick & 0x20000 != 0 */\n      eq\n        /* \"libraries/TickMath.sol\":3273:3358  if (absTick & 0x20000 != 0) ratio = (ratio * 0x5d6af8dedb81196699c329225ee604) >> 128 */\n      tag_146\n      jumpi\n        /* \"libraries/TickMath.sol\":3355:3358  128 */\n      0x80\n        /* \"libraries/TickMath.sol\":3318:3350  0x5d6af8dedb81196699c329225ee604 */\n      0x5d6af8dedb81196699c329225ee604\n        /* \"libraries/TickMath.sol\":3310:3315  ratio */\n      dup3\n        /* \"libraries/TickMath.sol\":3310:3350  ratio * 0x5d6af8dedb81196699c329225ee604 */\n      tag_147\n      swap2\n      swap1\n      tag_115\n      jump\t// in\n    tag_147:\n        /* \"libraries/TickMath.sol\":3309:3358  (ratio * 0x5d6af8dedb81196699c329225ee604) >> 128 */\n      swap1\n      shr\n        /* \"libraries/TickMath.sol\":3301:3358  ratio = (ratio * 0x5d6af8dedb81196699c329225ee604) >> 128 */\n      swap1\n      pop\n        /* \"libraries/TickMath.sol\":3273:3358  if (absTick & 0x20000 != 0) ratio = (ratio * 0x5d6af8dedb81196699c329225ee604) >> 128 */\n    tag_146:\n        /* \"libraries/TickMath.sol\":3394:3395  0 */\n      0x00\n        /* \"libraries/TickMath.sol\":3383:3390  0x40000 */\n      0x040000\n        /* \"libraries/TickMath.sol\":3373:3380  absTick */\n      dup4\n        /* \"libraries/TickMath.sol\":3373:3390  absTick & 0x40000 */\n      and\n        /* \"libraries/TickMath.sol\":3373:3395  absTick & 0x40000 != 0 */\n      eq\n        /* \"libraries/TickMath.sol\":3369:3452  if (absTick & 0x40000 != 0) ratio = (ratio * 0x2216e584f5fa1ea926041bedfe98) >> 128 */\n      tag_148\n      jumpi\n        /* \"libraries/TickMath.sol\":3449:3452  128 */\n      0x80\n        /* \"libraries/TickMath.sol\":3414:3444  0x2216e584f5fa1ea926041bedfe98 */\n      0x2216e584f5fa1ea926041bedfe98\n        /* \"libraries/TickMath.sol\":3406:3411  ratio */\n      dup3\n        /* \"libraries/TickMath.sol\":3406:3444  ratio * 0x2216e584f5fa1ea926041bedfe98 */\n      tag_149\n      swap2\n      swap1\n      tag_115\n      jump\t// in\n    tag_149:\n        /* \"libraries/TickMath.sol\":3405:3452  (ratio * 0x2216e584f5fa1ea926041bedfe98) >> 128 */\n      swap1\n      shr\n        /* \"libraries/TickMath.sol\":3397:3452  ratio = (ratio * 0x2216e584f5fa1ea926041bedfe98) >> 128 */\n      swap1\n      pop\n        /* \"libraries/TickMath.sol\":3369:3452  if (absTick & 0x40000 != 0) ratio = (ratio * 0x2216e584f5fa1ea926041bedfe98) >> 128 */\n    tag_148:\n        /* \"libraries/TickMath.sol\":3488:3489  0 */\n      0x00\n        /* \"libraries/TickMath.sol\":3477:3484  0x80000 */\n      0x080000\n        /* \"libraries/TickMath.sol\":3467:3474  absTick */\n      dup4\n        /* \"libraries/TickMath.sol\":3467:3484  absTick & 0x80000 */\n      and\n        /* \"libraries/TickMath.sol\":3467:3489  absTick & 0x80000 != 0 */\n      eq\n        /* \"libraries/TickMath.sol\":3463:3541  if (absTick & 0x80000 != 0) ratio = (ratio * 0x48a170391f7dc42444e8fa2) >> 128 */\n      tag_150\n      jumpi\n        /* \"libraries/TickMath.sol\":3538:3541  128 */\n      0x80\n        /* \"libraries/TickMath.sol\":3508:3533  0x48a170391f7dc42444e8fa2 */\n      0x048a170391f7dc42444e8fa2\n        /* \"libraries/TickMath.sol\":3500:3505  ratio */\n      dup3\n        /* \"libraries/TickMath.sol\":3500:3533  ratio * 0x48a170391f7dc42444e8fa2 */\n      tag_151\n      swap2\n      swap1\n      tag_115\n      jump\t// in\n    tag_151:\n        /* \"libraries/TickMath.sol\":3499:3541  (ratio * 0x48a170391f7dc42444e8fa2) >> 128 */\n      swap1\n      shr\n        /* \"libraries/TickMath.sol\":3491:3541  ratio = (ratio * 0x48a170391f7dc42444e8fa2) >> 128 */\n      swap1\n      pop\n        /* \"libraries/TickMath.sol\":3463:3541  if (absTick & 0x80000 != 0) ratio = (ratio * 0x48a170391f7dc42444e8fa2) >> 128 */\n    tag_150:\n        /* \"libraries/TickMath.sol\":3565:3566  0 */\n      0x00\n        /* \"libraries/TickMath.sol\":3558:3562  tick */\n      dup5\n        /* \"libraries/TickMath.sol\":3558:3566  tick > 0 */\n      0x02\n      signextend\n      sgt\n        /* \"libraries/TickMath.sol\":3554:3601  if (tick > 0) ratio = type(uint256).max / ratio */\n      iszero\n      tag_152\n      jumpi\n        /* \"libraries/TickMath.sol\":3596:3601  ratio */\n      dup1\n        /* \"libraries/TickMath.sol\":3576:3593  type(uint256).max */\n      0xffffffffffffffffffffffffffffffffffffffffffffffffffffffffffffffff\n        /* \"libraries/TickMath.sol\":3576:3601  type(uint256).max / ratio */\n      tag_153\n      swap2\n      swap1\n      tag_154\n      jump\t// in\n    tag_153:\n        /* \"libraries/TickMath.sol\":3568:3601  ratio = type(uint256).max / ratio */\n      swap1\n      pop\n        /* \"libraries/TickMath.sol\":3554:3601  if (tick > 0) ratio = type(uint256).max / ratio */\n    tag_152:\n        /* \"libraries/TickMath.sol\":3977:3978  0 */\n      0x00\n        /* \"libraries/TickMath.sol\":3965:3972  1 << 32 */\n      0x0100000000\n        /* \"libraries/TickMath.sol\":3956:3961  ratio */\n      dup3\n        /* \"libraries/TickMath.sol\":3956:3973  ratio % (1 << 32) */\n      tag_155\n      swap2\n      swap1\n      tag_156\n      jump\t// in\n    tag_155:\n        /* \"libraries/TickMath.sol\":3956:3978  ratio % (1 << 32) == 0 */\n      eq\n        /* \"libraries/TickMath.sol\":3956:3986  ratio % (1 << 32) == 0 ? 0 : 1 */\n      tag_157\n      jumpi\n        /* \"libraries/TickMath.sol\":3985:3986  1 */\n      0x01\n        /* \"libraries/TickMath.sol\":3956:3986  ratio % (1 << 32) == 0 ? 0 : 1 */\n      jump(tag_158)\n    tag_157:\n        /* \"libraries/TickMath.sol\":3981:3982  0 */\n      0x00\n        /* \"libraries/TickMath.sol\":3956:3986  ratio % (1 << 32) == 0 ? 0 : 1 */\n    tag_158:\n        /* \"libraries/TickMath.sol\":3939:3987  (ratio >> 32) + (ratio % (1 << 32) == 0 ? 0 : 1) */\n      0xff\n      and\n        /* \"libraries/TickMath.sol\":3949:3951  32 */\n      0x20\n        /* \"libraries/TickMath.sol\":3940:3945  ratio */\n      dup3\n        /* \"libraries/TickMath.sol\":3940:3951  ratio >> 32 */\n      swap1\n      shr\n        /* \"libraries/TickMath.sol\":3939:3987  (ratio >> 32) + (ratio % (1 << 32) == 0 ? 0 : 1) */\n      tag_159\n      swap2\n      swap1\n      tag_160\n      jump\t// in\n    tag_159:\n        /* \"libraries/TickMath.sol\":3916:3988  sqrtPriceX96 = uint160((ratio >> 32) + (ratio % (1 << 32) == 0 ? 0 : 1)) */\n      swap3\n      pop\n        /* \"libraries/TickMath.sol\":1462:3996  {... */\n      pop\n      pop\n        /* \"libraries/TickMath.sol\":1377:3996  function getSqrtRatioAtTick(int24 tick) internal pure returns (uint160 sqrtPriceX96) {... */\n      swap2\n      swap1\n      pop\n      jump\t// out\n        /* \"libraries/LiquidityMath.sol\":1389:2587  function getLiquidityForAmounts(... */\n    tag_41:\n        /* \"libraries/LiquidityMath.sol\":1598:1615  uint128 liquidity */\n      0x00\n        /* \"libraries/LiquidityMath.sol\":1648:1661  sqrtPriceBX96 */\n      dup4\n        /* \"libraries/LiquidityMath.sol\":1632:1661  sqrtPriceAX96 > sqrtPriceBX96 */\n      0xffffffffffffffffffffffffffffffffffffffff\n      and\n        /* \"libraries/LiquidityMath.sol\":1632:1645  sqrtPriceAX96 */\n      dup6\n        /* \"libraries/LiquidityMath.sol\":1632:1661  sqrtPriceAX96 > sqrtPriceBX96 */\n      0xffffffffffffffffffffffffffffffffffffffff\n      and\n      gt\n        /* \"libraries/LiquidityMath.sol\":1628:1739  if (sqrtPriceAX96 > sqrtPriceBX96)... */\n      iszero\n      tag_162\n      jumpi\n        /* \"libraries/LiquidityMath.sol\":1710:1723  sqrtPriceBX96 */\n      dup4\n        /* \"libraries/LiquidityMath.sol\":1725:1738  sqrtPriceAX96 */\n      dup6\n        /* \"libraries/LiquidityMath.sol\":1676:1739  (sqrtPriceAX96, sqrtPriceBX96) = (sqrtPriceBX96, sqrtPriceAX96) */\n      dup1\n      swap6\n      pop\n      dup2\n      swap7\n      pop\n      pop\n      pop\n        /* \"libraries/LiquidityMath.sol\":1628:1739  if (sqrtPriceAX96 > sqrtPriceBX96)... */\n    tag_162:\n        /* \"libraries/LiquidityMath.sol\":1772:1785  sqrtPriceAX96 */\n      dup5\n        /* \"libraries/LiquidityMath.sol\":1756:1785  sqrtPriceX96 <= sqrtPriceAX96 */\n      0xffffffffffffffffffffffffffffffffffffffff\n      and\n        /* \"libraries/LiquidityMath.sol\":1756:1768  sqrtPriceX96 */\n      dup7\n        /* \"libraries/LiquidityMath.sol\":1756:1785  sqrtPriceX96 <= sqrtPriceAX96 */\n      0xffffffffffffffffffffffffffffffffffffffff\n      and\n      gt\n        /* \"libraries/LiquidityMath.sol\":1752:2580  if (sqrtPriceX96 <= sqrtPriceAX96) {... */\n      tag_163\n      jumpi\n        /* \"libraries/LiquidityMath.sol\":1814:1941  getLiquidityForAmount0(... */\n      tag_164\n        /* \"libraries/LiquidityMath.sol\":1855:1868  sqrtPriceAX96 */\n      dup6\n        /* \"libraries/LiquidityMath.sol\":1887:1900  sqrtPriceBX96 */\n      dup6\n        /* \"libraries/LiquidityMath.sol\":1919:1926  amount0 */\n      dup6\n        /* \"libraries/LiquidityMath.sol\":1814:1836  getLiquidityForAmount0 */\n      tag_165\n        /* \"libraries/LiquidityMath.sol\":1814:1941  getLiquidityForAmount0(... */\n      jump\t// in\n    tag_164:\n        /* \"libraries/LiquidityMath.sol\":1802:1941  liquidity = getLiquidityForAmount0(... */\n      swap1\n      pop\n        /* \"libraries/LiquidityMath.sol\":1752:2580  if (sqrtPriceX96 <= sqrtPriceAX96) {... */\n      jump(tag_166)\n    tag_163:\n        /* \"libraries/LiquidityMath.sol\":1979:1992  sqrtPriceBX96 */\n      dup4\n        /* \"libraries/LiquidityMath.sol\":1963:1992  sqrtPriceX96 <= sqrtPriceBX96 */\n      0xffffffffffffffffffffffffffffffffffffffff\n      and\n        /* \"libraries/LiquidityMath.sol\":1963:1975  sqrtPriceX96 */\n      dup7\n        /* \"libraries/LiquidityMath.sol\":1963:1992  sqrtPriceX96 <= sqrtPriceBX96 */\n      0xffffffffffffffffffffffffffffffffffffffff\n      and\n      gt\n        /* \"libraries/LiquidityMath.sol\":1959:2580  if (sqrtPriceX96 <= sqrtPriceBX96) {... */\n      tag_167\n      jumpi\n        /* \"libraries/LiquidityMath.sol\":2009:2027  uint128 liquidity0 */\n      0x00\n        /* \"libraries/LiquidityMath.sol\":2030:2156  getLiquidityForAmount0(... */\n      tag_168\n        /* \"libraries/LiquidityMath.sol\":2071:2083  sqrtPriceX96 */\n      dup8\n        /* \"libraries/LiquidityMath.sol\":2102:2115  sqrtPriceBX96 */\n      dup7\n        /* \"libraries/LiquidityMath.sol\":2134:2141  amount0 */\n      dup7\n        /* \"libraries/LiquidityMath.sol\":2030:2052  getLiquidityForAmount0 */\n      tag_165\n        /* \"libraries/LiquidityMath.sol\":2030:2156  getLiquidityForAmount0(... */\n      jump\t// in\n    tag_168:\n        /* \"libraries/LiquidityMath.sol\":2009:2156  uint128 liquidity0 = getLiquidityForAmount0(... */\n      swap1\n      pop\n        /* \"libraries/LiquidityMath.sol\":2171:2189  uint128 liquidity1 */\n      0x00\n        /* \"libraries/LiquidityMath.sol\":2192:2318  getLiquidityForAmount1(... */\n      tag_169\n        /* \"libraries/LiquidityMath.sol\":2233:2246  sqrtPriceAX96 */\n      dup8\n        /* \"libraries/LiquidityMath.sol\":2265:2277  sqrtPriceX96 */\n      dup10\n        /* \"libraries/LiquidityMath.sol\":2296:2303  amount1 */\n      dup7\n        /* \"libraries/LiquidityMath.sol\":2192:2214  getLiquidityForAmount1 */\n      tag_170\n        /* \"libraries/LiquidityMath.sol\":2192:2318  getLiquidityForAmount1(... */\n      jump\t// in\n    tag_169:\n        /* \"libraries/LiquidityMath.sol\":2171:2318  uint128 liquidity1 = getLiquidityForAmount1(... */\n      swap1\n      pop\n        /* \"libraries/LiquidityMath.sol\":2360:2370  liquidity1 */\n      dup1\n        /* \"libraries/LiquidityMath.sol\":2347:2370  liquidity0 < liquidity1 */\n      0xffffffffffffffffffffffffffffffff\n      and\n        /* \"libraries/LiquidityMath.sol\":2347:2357  liquidity0 */\n      dup3\n        /* \"libraries/LiquidityMath.sol\":2347:2370  liquidity0 < liquidity1 */\n      0xffffffffffffffffffffffffffffffff\n      and\n      lt\n        /* \"libraries/LiquidityMath.sol\":2347:2396  liquidity0 < liquidity1 ? liquidity0 : liquidity1 */\n      tag_171\n      jumpi\n        /* \"libraries/LiquidityMath.sol\":2386:2396  liquidity1 */\n      dup1\n        /* \"libraries/LiquidityMath.sol\":2347:2396  liquidity0 < liquidity1 ? liquidity0 : liquidity1 */\n      jump(tag_172)\n    tag_171:\n        /* \"libraries/LiquidityMath.sol\":2373:2383  liquidity0 */\n      dup2\n        /* \"libraries/LiquidityMath.sol\":2347:2396  liquidity0 < liquidity1 ? liquidity0 : liquidity1 */\n    tag_172:\n        /* \"libraries/LiquidityMath.sol\":2335:2396  liquidity = liquidity0 < liquidity1 ? liquidity0 : liquidity1 */\n      swap3\n      pop\n        /* \"libraries/LiquidityMath.sol\":1994:2408  {... */\n      pop\n      pop\n        /* \"libraries/LiquidityMath.sol\":1959:2580  if (sqrtPriceX96 <= sqrtPriceBX96) {... */\n      jump(tag_173)\n    tag_167:\n        /* \"libraries/LiquidityMath.sol\":2441:2568  getLiquidityForAmount1(... */\n      tag_174\n        /* \"libraries/LiquidityMath.sol\":2482:2495  sqrtPriceAX96 */\n      dup6\n        /* \"libraries/LiquidityMath.sol\":2514:2527  sqrtPriceBX96 */\n      dup6\n        /* \"libraries/LiquidityMath.sol\":2546:2553  amount1 */\n      dup5\n        /* \"libraries/LiquidityMath.sol\":2441:2463  getLiquidityForAmount1 */\n      tag_170\n        /* \"libraries/LiquidityMath.sol\":2441:2568  getLiquidityForAmount1(... */\n      jump\t// in\n    tag_174:\n        /* \"libraries/LiquidityMath.sol\":2429:2568  liquidity = getLiquidityForAmount1(... */\n      swap1\n      pop\n        /* \"libraries/LiquidityMath.sol\":1959:2580  if (sqrtPriceX96 <= sqrtPriceBX96) {... */\n    tag_173:\n        /* \"libraries/LiquidityMath.sol\":1752:2580  if (sqrtPriceX96 <= sqrtPriceAX96) {... */\n    tag_166:\n        /* \"libraries/LiquidityMath.sol\":1389:2587  function getLiquidityForAmounts(... */\n      swap6\n      swap5\n      pop\n      pop\n      pop\n      pop\n      pop\n      jump\t// out\n        /* \"libraries/LiquidityMath.sol\":279:836  function getLiquidityForAmount0(... */\n    tag_165:\n        /* \"libraries/LiquidityMath.sol\":431:448  uint128 liquidity */\n      0x00\n        /* \"libraries/LiquidityMath.sol\":481:494  sqrtPriceBX96 */\n      dup3\n        /* \"libraries/LiquidityMath.sol\":465:494  sqrtPriceAX96 > sqrtPriceBX96 */\n      0xffffffffffffffffffffffffffffffffffffffff\n      and\n        /* \"libraries/LiquidityMath.sol\":465:478  sqrtPriceAX96 */\n      dup5\n        /* \"libraries/LiquidityMath.sol\":465:494  sqrtPriceAX96 > sqrtPriceBX96 */\n      0xffffffffffffffffffffffffffffffffffffffff\n      and\n      gt\n        /* \"libraries/LiquidityMath.sol\":461:572  if (sqrtPriceAX96 > sqrtPriceBX96)... */\n      iszero\n      tag_176\n      jumpi\n        /* \"libraries/LiquidityMath.sol\":543:556  sqrtPriceBX96 */\n      dup3\n        /* \"libraries/LiquidityMath.sol\":558:571  sqrtPriceAX96 */\n      dup5\n        /* \"libraries/LiquidityMath.sol\":509:572  (sqrtPriceAX96, sqrtPriceBX96) = (sqrtPriceBX96, sqrtPriceAX96) */\n      dup1\n      swap5\n      pop\n      dup2\n      swap6\n      pop\n      pop\n      pop\n        /* \"libraries/LiquidityMath.sol\":461:572  if (sqrtPriceAX96 > sqrtPriceBX96)... */\n    tag_176:\n        /* \"libraries/LiquidityMath.sol\":585:605  uint256 intermediate */\n      0x00\n        /* \"libraries/LiquidityMath.sol\":608:712  mulDiv(... */\n      tag_177\n        /* \"libraries/LiquidityMath.sol\":629:642  sqrtPriceAX96 */\n      dup6\n        /* \"libraries/LiquidityMath.sol\":608:712  mulDiv(... */\n      0xffffffffffffffffffffffffffffffffffffffff\n      and\n        /* \"libraries/LiquidityMath.sol\":657:670  sqrtPriceBX96 */\n      dup6\n        /* \"libraries/LiquidityMath.sol\":608:712  mulDiv(... */\n      0xffffffffffffffffffffffffffffffffffffffff\n      and\n        /* \"libraries/FixedPoint96.sol\":180:185  2**96 */\n      0x01000000000000000000000000\n        /* \"libraries/LiquidityMath.sol\":608:614  mulDiv */\n      tag_178\n        /* \"libraries/LiquidityMath.sol\":608:712  mulDiv(... */\n      jump\t// in\n    tag_177:\n        /* \"libraries/LiquidityMath.sol\":585:712  uint256 intermediate = mulDiv(... */\n      swap1\n      pop\n        /* \"libraries/LiquidityMath.sol\":757:817  mulDiv(amount0, intermediate, sqrtPriceBX96 - sqrtPriceAX96) */\n      tag_179\n        /* \"libraries/LiquidityMath.sol\":764:771  amount0 */\n      dup4\n        /* \"libraries/LiquidityMath.sol\":773:785  intermediate */\n      dup3\n        /* \"libraries/LiquidityMath.sol\":803:816  sqrtPriceAX96 */\n      dup8\n        /* \"libraries/LiquidityMath.sol\":787:800  sqrtPriceBX96 */\n      dup8\n        /* \"libraries/LiquidityMath.sol\":787:816  sqrtPriceBX96 - sqrtPriceAX96 */\n      tag_180\n      swap2\n      swap1\n      tag_79\n      jump\t// in\n    tag_180:\n        /* \"libraries/LiquidityMath.sol\":757:817  mulDiv(amount0, intermediate, sqrtPriceBX96 - sqrtPriceAX96) */\n      0xffffffffffffffffffffffffffffffffffffffff\n      and\n        /* \"libraries/LiquidityMath.sol\":757:763  mulDiv */\n      tag_178\n        /* \"libraries/LiquidityMath.sol\":757:817  mulDiv(amount0, intermediate, sqrtPriceBX96 - sqrtPriceAX96) */\n      jump\t// in\n    tag_179:\n        /* \"libraries/LiquidityMath.sol\":723:828  liquidity = uint128(... */\n      swap2\n      pop\n        /* \"libraries/LiquidityMath.sol\":450:836  {... */\n      pop\n        /* \"libraries/LiquidityMath.sol\":279:836  function getLiquidityForAmount0(... */\n      swap4\n      swap3\n      pop\n      pop\n      pop\n      jump\t// out\n        /* \"libraries/LiquidityMath.sol\":892:1381  function getLiquidityForAmount1(... */\n    tag_170:\n        /* \"libraries/LiquidityMath.sol\":1044:1061  uint128 liquidity */\n      0x00\n        /* \"libraries/LiquidityMath.sol\":1094:1107  sqrtPriceBX96 */\n      dup3\n        /* \"libraries/LiquidityMath.sol\":1078:1107  sqrtPriceAX96 > sqrtPriceBX96 */\n      0xffffffffffffffffffffffffffffffffffffffff\n      and\n        /* \"libraries/LiquidityMath.sol\":1078:1091  sqrtPriceAX96 */\n      dup5\n        /* \"libraries/LiquidityMath.sol\":1078:1107  sqrtPriceAX96 > sqrtPriceBX96 */\n      0xffffffffffffffffffffffffffffffffffffffff\n      and\n      gt\n        /* \"libraries/LiquidityMath.sol\":1074:1185  if (sqrtPriceAX96 > sqrtPriceBX96)... */\n      iszero\n      tag_182\n      jumpi\n        /* \"libraries/LiquidityMath.sol\":1156:1169  sqrtPriceBX96 */\n      dup3\n        /* \"libraries/LiquidityMath.sol\":1171:1184  sqrtPriceAX96 */\n      dup5\n        /* \"libraries/LiquidityMath.sol\":1122:1185  (sqrtPriceAX96, sqrtPriceBX96) = (sqrtPriceBX96, sqrtPriceAX96) */\n      dup1\n      swap5\n      pop\n      dup2\n      swap6\n      pop\n      pop\n      pop\n        /* \"libraries/LiquidityMath.sol\":1074:1185  if (sqrtPriceAX96 > sqrtPriceBX96)... */\n    tag_182:\n        /* \"libraries/LiquidityMath.sol\":1232:1362  mulDiv(... */\n      tag_183\n        /* \"libraries/LiquidityMath.sol\":1257:1264  amount1 */\n      dup3\n        /* \"libraries/FixedPoint96.sol\":180:185  2**96 */\n      0x01000000000000000000000000\n        /* \"libraries/LiquidityMath.sol\":1334:1347  sqrtPriceAX96 */\n      dup7\n        /* \"libraries/LiquidityMath.sol\":1318:1331  sqrtPriceBX96 */\n      dup7\n        /* \"libraries/LiquidityMath.sol\":1318:1347  sqrtPriceBX96 - sqrtPriceAX96 */\n      tag_184\n      swap2\n      swap1\n      tag_79\n      jump\t// in\n    tag_184:\n        /* \"libraries/LiquidityMath.sol\":1232:1362  mulDiv(... */\n      0xffffffffffffffffffffffffffffffffffffffff\n      and\n        /* \"libraries/LiquidityMath.sol\":1232:1238  mulDiv */\n      tag_178\n        /* \"libraries/LiquidityMath.sol\":1232:1362  mulDiv(... */\n      jump\t// in\n    tag_183:\n        /* \"libraries/LiquidityMath.sol\":1198:1373  liquidity = uint128(... */\n      swap1\n      pop\n        /* \"libraries/LiquidityMath.sol\":892:1381  function getLiquidityForAmount1(... */\n      swap4\n      swap3\n      pop\n      pop\n      pop\n      jump\t// out\n        /* \"https://github.com/PaulRBerg/prb-math/blob/main/src/Common.sol\":14474:18595  function mulDiv(uint256 x, uint256 y, uint256 denominator) pure returns (uint256 result) {... */\n    tag_178:\n        /* \"https://github.com/PaulRBerg/prb-math/blob/main/src/Common.sol\":14547:14561  uint256 result */\n      0x00\n        /* \"https://github.com/PaulRBerg/prb-math/blob/main/src/Common.sol\":14842:14855  uint256 prod0 */\n      dup1\n        /* \"https://github.com/PaulRBerg/prb-math/blob/main/src/Common.sol\":14906:14919  uint256 prod1 */\n      0x00\n        /* \"https://github.com/PaulRBerg/prb-math/blob/main/src/Common.sol\":15031:15032  0 */\n      dup1\n        /* \"https://github.com/PaulRBerg/prb-math/blob/main/src/Common.sol\":15027:15033  not(0) */\n      not\n        /* \"https://github.com/PaulRBerg/prb-math/blob/main/src/Common.sol\":15024:15025  y */\n      dup6\n        /* \"https://github.com/PaulRBerg/prb-math/blob/main/src/Common.sol\":15021:15022  x */\n      dup8\n        /* \"https://github.com/PaulRBerg/prb-math/blob/main/src/Common.sol\":15014:15034  mulmod(x, y, not(0)) */\n      mulmod\n        /* \"https://github.com/PaulRBerg/prb-math/blob/main/src/Common.sol\":15059:15060  y */\n      dup6\n        /* \"https://github.com/PaulRBerg/prb-math/blob/main/src/Common.sol\":15056:15057  x */\n      dup8\n        /* \"https://github.com/PaulRBerg/prb-math/blob/main/src/Common.sol\":15052:15061  mul(x, y) */\n      mul\n        /* \"https://github.com/PaulRBerg/prb-math/blob/main/src/Common.sol\":15043:15061  prod0 := mul(x, y) */\n      swap3\n      pop\n        /* \"https://github.com/PaulRBerg/prb-math/blob/main/src/Common.sol\":15106:15111  prod0 */\n      dup3\n        /* \"https://github.com/PaulRBerg/prb-math/blob/main/src/Common.sol\":15102:15104  mm */\n      dup2\n        /* \"https://github.com/PaulRBerg/prb-math/blob/main/src/Common.sol\":15099:15112  lt(mm, prod0) */\n      lt\n        /* \"https://github.com/PaulRBerg/prb-math/blob/main/src/Common.sol\":15091:15096  prod0 */\n      dup4\n        /* \"https://github.com/PaulRBerg/prb-math/blob/main/src/Common.sol\":15087:15089  mm */\n      dup3\n        /* \"https://github.com/PaulRBerg/prb-math/blob/main/src/Common.sol\":15083:15097  sub(mm, prod0) */\n      sub\n        /* \"https://github.com/PaulRBerg/prb-math/blob/main/src/Common.sol\":15079:15113  sub(sub(mm, prod0), lt(mm, prod0)) */\n      sub\n        /* \"https://github.com/PaulRBerg/prb-math/blob/main/src/Common.sol\":15070:15113  prod1 := sub(sub(mm, prod0), lt(mm, prod0)) */\n      swap2\n      pop\n        /* \"https://github.com/PaulRBerg/prb-math/blob/main/src/Common.sol\":14994:15119  {... */\n      pop\n        /* \"https://github.com/PaulRBerg/prb-math/blob/main/src/Common.sol\":15193:15194  0 */\n      0x00\n        /* \"https://github.com/PaulRBerg/prb-math/blob/main/src/Common.sol\":15184:15189  prod1 */\n      dup2\n        /* \"https://github.com/PaulRBerg/prb-math/blob/main/src/Common.sol\":15184:15194  prod1 == 0 */\n      sub\n        /* \"https://github.com/PaulRBerg/prb-math/blob/main/src/Common.sol\":15180:15273  if (prod1 == 0) {... */\n      tag_186\n      jumpi\n        /* \"https://github.com/PaulRBerg/prb-math/blob/main/src/Common.sol\":15245:15256  denominator */\n      dup4\n        /* \"https://github.com/PaulRBerg/prb-math/blob/main/src/Common.sol\":15237:15242  prod0 */\n      dup3\n        /* \"https://github.com/PaulRBerg/prb-math/blob/main/src/Common.sol\":15237:15256  prod0 / denominator */\n      dup2\n      tag_187\n      jumpi\n      tag_188\n      tag_189\n      jump\t// in\n    tag_188:\n    tag_187:\n      div\n        /* \"https://github.com/PaulRBerg/prb-math/blob/main/src/Common.sol\":15230:15256  return prod0 / denominator */\n      swap3\n      pop\n      pop\n      pop\n      jump(tag_185)\n        /* \"https://github.com/PaulRBerg/prb-math/blob/main/src/Common.sol\":15180:15273  if (prod1 == 0) {... */\n    tag_186:\n        /* \"https://github.com/PaulRBerg/prb-math/blob/main/src/Common.sol\":15372:15383  denominator */\n      dup4\n        /* \"https://github.com/PaulRBerg/prb-math/blob/main/src/Common.sol\":15363:15368  prod1 */\n      dup2\n        /* \"https://github.com/PaulRBerg/prb-math/blob/main/src/Common.sol\":15363:15383  prod1 >= denominator */\n      lt\n        /* \"https://github.com/PaulRBerg/prb-math/blob/main/src/Common.sol\":15359:15451  if (prod1 >= denominator) {... */\n      tag_190\n      jumpi\n        /* \"https://github.com/PaulRBerg/prb-math/blob/main/src/Common.sol\":15426:15427  x */\n      dup6\n        /* \"https://github.com/PaulRBerg/prb-math/blob/main/src/Common.sol\":15429:15430  y */\n      dup6\n        /* \"https://github.com/PaulRBerg/prb-math/blob/main/src/Common.sol\":15432:15443  denominator */\n      dup6\n        /* \"https://github.com/PaulRBerg/prb-math/blob/main/src/Common.sol\":15402:15444  PRBMath_MulDiv_Overflow(x, y, denominator) */\n      mload(0x40)\n      0x63a0577800000000000000000000000000000000000000000000000000000000\n      dup2\n      mstore\n      0x04\n      add\n      tag_191\n      swap4\n      swap3\n      swap2\n      swap1\n      tag_192\n      jump\t// in\n    tag_191:\n      mload(0x40)\n      dup1\n      swap2\n      sub\n      swap1\n      revert\n        /* \"https://github.com/PaulRBerg/prb-math/blob/main/src/Common.sol\":15359:15451  if (prod1 >= denominator) {... */\n    tag_190:\n        /* \"https://github.com/PaulRBerg/prb-math/blob/main/src/Common.sol\":15723:15740  uint256 remainder */\n      0x00\n        /* \"https://github.com/PaulRBerg/prb-math/blob/main/src/Common.sol\":15870:15881  denominator */\n      dup5\n        /* \"https://github.com/PaulRBerg/prb-math/blob/main/src/Common.sol\":15867:15868  y */\n      dup7\n        /* \"https://github.com/PaulRBerg/prb-math/blob/main/src/Common.sol\":15864:15865  x */\n      dup9\n        /* \"https://github.com/PaulRBerg/prb-math/blob/main/src/Common.sol\":15857:15882  mulmod(x, y, denominator) */\n      mulmod\n        /* \"https://github.com/PaulRBerg/prb-math/blob/main/src/Common.sol\":15844:15882  remainder := mulmod(x, y, denominator) */\n      swap1\n      pop\n        /* \"https://github.com/PaulRBerg/prb-math/blob/main/src/Common.sol\":15982:15987  prod0 */\n      dup3\n        /* \"https://github.com/PaulRBerg/prb-math/blob/main/src/Common.sol\":15971:15980  remainder */\n      dup2\n        /* \"https://github.com/PaulRBerg/prb-math/blob/main/src/Common.sol\":15968:15988  gt(remainder, prod0) */\n      gt\n        /* \"https://github.com/PaulRBerg/prb-math/blob/main/src/Common.sol\":15961:15966  prod1 */\n      dup3\n        /* \"https://github.com/PaulRBerg/prb-math/blob/main/src/Common.sol\":15957:15989  sub(prod1, gt(remainder, prod0)) */\n      sub\n        /* \"https://github.com/PaulRBerg/prb-math/blob/main/src/Common.sol\":15948:15989  prod1 := sub(prod1, gt(remainder, prod0)) */\n      swap2\n      pop\n        /* \"https://github.com/PaulRBerg/prb-math/blob/main/src/Common.sol\":16018:16027  remainder */\n      dup1\n        /* \"https://github.com/PaulRBerg/prb-math/blob/main/src/Common.sol\":16011:16016  prod0 */\n      dup4\n        /* \"https://github.com/PaulRBerg/prb-math/blob/main/src/Common.sol\":16007:16028  sub(prod0, remainder) */\n      sub\n        /* \"https://github.com/PaulRBerg/prb-math/blob/main/src/Common.sol\":15998:16028  prod0 := sub(prod0, remainder) */\n      swap3\n      pop\n        /* \"https://github.com/PaulRBerg/prb-math/blob/main/src/Common.sol\":16387:16402  uint256 lpotdod */\n      0x00\n        /* \"https://github.com/PaulRBerg/prb-math/blob/main/src/Common.sol\":16435:16436  1 */\n      0x01\n        /* \"https://github.com/PaulRBerg/prb-math/blob/main/src/Common.sol\":16421:16432  denominator */\n      dup7\n        /* \"https://github.com/PaulRBerg/prb-math/blob/main/src/Common.sol\":16420:16432  ~denominator */\n      not\n        /* \"https://github.com/PaulRBerg/prb-math/blob/main/src/Common.sol\":16420:16436  ~denominator + 1 */\n      add\n        /* \"https://github.com/PaulRBerg/prb-math/blob/main/src/Common.sol\":16405:16416  denominator */\n      dup7\n        /* \"https://github.com/PaulRBerg/prb-math/blob/main/src/Common.sol\":16405:16437  denominator & (~denominator + 1) */\n      and\n        /* \"https://github.com/PaulRBerg/prb-math/blob/main/src/Common.sol\":16387:16437  uint256 lpotdod = denominator & (~denominator + 1) */\n      swap1\n      pop\n        /* \"https://github.com/PaulRBerg/prb-math/blob/main/src/Common.sol\":16447:16469  uint256 flippedLpotdod */\n      0x00\n        /* \"https://github.com/PaulRBerg/prb-math/blob/main/src/Common.sol\":16607:16614  lpotdod */\n      dup2\n        /* \"https://github.com/PaulRBerg/prb-math/blob/main/src/Common.sol\":16594:16605  denominator */\n      dup8\n        /* \"https://github.com/PaulRBerg/prb-math/blob/main/src/Common.sol\":16590:16615  div(denominator, lpotdod) */\n      div\n        /* \"https://github.com/PaulRBerg/prb-math/blob/main/src/Common.sol\":16575:16615  denominator := div(denominator, lpotdod) */\n      swap7\n      pop\n        /* \"https://github.com/PaulRBerg/prb-math/blob/main/src/Common.sol\":16697:16704  lpotdod */\n      dup2\n        /* \"https://github.com/PaulRBerg/prb-math/blob/main/src/Common.sol\":16690:16695  prod0 */\n      dup6\n        /* \"https://github.com/PaulRBerg/prb-math/blob/main/src/Common.sol\":16686:16705  div(prod0, lpotdod) */\n      div\n        /* \"https://github.com/PaulRBerg/prb-math/blob/main/src/Common.sol\":16677:16705  prod0 := div(prod0, lpotdod) */\n      swap5\n      pop\n        /* \"https://github.com/PaulRBerg/prb-math/blob/main/src/Common.sol\":17135:17136  1 */\n      0x01\n        /* \"https://github.com/PaulRBerg/prb-math/blob/main/src/Common.sol\":17125:17132  lpotdod */\n      dup3\n        /* \"https://github.com/PaulRBerg/prb-math/blob/main/src/Common.sol\":17115:17122  lpotdod */\n      dup4\n        /* \"https://github.com/PaulRBerg/prb-math/blob/main/src/Common.sol\":17112:17113  0 */\n      0x00\n        /* \"https://github.com/PaulRBerg/prb-math/blob/main/src/Common.sol\":17108:17123  sub(0, lpotdod) */\n      sub\n        /* \"https://github.com/PaulRBerg/prb-math/blob/main/src/Common.sol\":17104:17133  div(sub(0, lpotdod), lpotdod) */\n      div\n        /* \"https://github.com/PaulRBerg/prb-math/blob/main/src/Common.sol\":17100:17137  add(div(sub(0, lpotdod), lpotdod), 1) */\n      add\n        /* \"https://github.com/PaulRBerg/prb-math/blob/main/src/Common.sol\":17082:17137  flippedLpotdod := add(div(sub(0, lpotdod), lpotdod), 1) */\n      swap1\n      pop\n        /* \"https://github.com/PaulRBerg/prb-math/blob/main/src/Common.sol\":17222:17236  flippedLpotdod */\n      dup1\n        /* \"https://github.com/PaulRBerg/prb-math/blob/main/src/Common.sol\":17214:17219  prod1 */\n      dup5\n        /* \"https://github.com/PaulRBerg/prb-math/blob/main/src/Common.sol\":17214:17236  prod1 * flippedLpotdod */\n      mul\n        /* \"https://github.com/PaulRBerg/prb-math/blob/main/src/Common.sol\":17205:17236  prod0 |= prod1 * flippedLpotdod */\n      dup6\n      or\n      swap5\n      pop\n        /* \"https://github.com/PaulRBerg/prb-math/blob/main/src/Common.sol\":17538:17553  uint256 inverse */\n      0x00\n        /* \"https://github.com/PaulRBerg/prb-math/blob/main/src/Common.sol\":17576:17577  2 */\n      0x02\n        /* \"https://github.com/PaulRBerg/prb-math/blob/main/src/Common.sol\":17561:17572  denominator */\n      dup9\n        /* \"https://github.com/PaulRBerg/prb-math/blob/main/src/Common.sol\":17557:17558  3 */\n      0x03\n        /* \"https://github.com/PaulRBerg/prb-math/blob/main/src/Common.sol\":17557:17572  3 * denominator */\n      mul\n        /* \"https://github.com/PaulRBerg/prb-math/blob/main/src/Common.sol\":17556:17577  (3 * denominator) ^ 2 */\n      xor\n        /* \"https://github.com/PaulRBerg/prb-math/blob/main/src/Common.sol\":17538:17577  uint256 inverse = (3 * denominator) ^ 2 */\n      swap1\n      pop\n        /* \"https://github.com/PaulRBerg/prb-math/blob/main/src/Common.sol\":17811:17818  inverse */\n      dup1\n        /* \"https://github.com/PaulRBerg/prb-math/blob/main/src/Common.sol\":17797:17808  denominator */\n      dup9\n        /* \"https://github.com/PaulRBerg/prb-math/blob/main/src/Common.sol\":17797:17818  denominator * inverse */\n      mul\n        /* \"https://github.com/PaulRBerg/prb-math/blob/main/src/Common.sol\":17793:17794  2 */\n      0x02\n        /* \"https://github.com/PaulRBerg/prb-math/blob/main/src/Common.sol\":17793:17818  2 - denominator * inverse */\n      sub\n        /* \"https://github.com/PaulRBerg/prb-math/blob/main/src/Common.sol\":17782:17818  inverse *= 2 - denominator * inverse */\n      dup2\n      mul\n      swap1\n      pop\n        /* \"https://github.com/PaulRBerg/prb-math/blob/main/src/Common.sol\":17876:17883  inverse */\n      dup1\n        /* \"https://github.com/PaulRBerg/prb-math/blob/main/src/Common.sol\":17862:17873  denominator */\n      dup9\n        /* \"https://github.com/PaulRBerg/prb-math/blob/main/src/Common.sol\":17862:17883  denominator * inverse */\n      mul\n        /* \"https://github.com/PaulRBerg/prb-math/blob/main/src/Common.sol\":17858:17859  2 */\n      0x02\n        /* \"https://github.com/PaulRBerg/prb-math/blob/main/src/Common.sol\":17858:17883  2 - denominator * inverse */\n      sub\n        /* \"https://github.com/PaulRBerg/prb-math/blob/main/src/Common.sol\":17847:17883  inverse *= 2 - denominator * inverse */\n      dup2\n      mul\n      swap1\n      pop\n        /* \"https://github.com/PaulRBerg/prb-math/blob/main/src/Common.sol\":17942:17949  inverse */\n      dup1\n        /* \"https://github.com/PaulRBerg/prb-math/blob/main/src/Common.sol\":17928:17939  denominator */\n      dup9\n        /* \"https://github.com/PaulRBerg/prb-math/blob/main/src/Common.sol\":17928:17949  denominator * inverse */\n      mul\n        /* \"https://github.com/PaulRBerg/prb-math/blob/main/src/Common.sol\":17924:17925  2 */\n      0x02\n        /* \"https://github.com/PaulRBerg/prb-math/blob/main/src/Common.sol\":17924:17949  2 - denominator * inverse */\n      sub\n        /* \"https://github.com/PaulRBerg/prb-math/blob/main/src/Common.sol\":17913:17949  inverse *= 2 - denominator * inverse */\n      dup2\n      mul\n      swap1\n      pop\n        /* \"https://github.com/PaulRBerg/prb-math/blob/main/src/Common.sol\":18008:18015  inverse */\n      dup1\n        /* \"https://github.com/PaulRBerg/prb-math/blob/main/src/Common.sol\":17994:18005  denominator */\n      dup9\n        /* \"https://github.com/PaulRBerg/prb-math/blob/main/src/Common.sol\":17994:18015  denominator * inverse */\n      mul\n        /* \"https://github.com/PaulRBerg/prb-math/blob/main/src/Common.sol\":17990:17991  2 */\n      0x02\n        /* \"https://github.com/PaulRBerg/prb-math/blob/main/src/Common.sol\":17990:18015  2 - denominator * inverse */\n      sub\n        /* \"https://github.com/PaulRBerg/prb-math/blob/main/src/Common.sol\":17979:18015  inverse *= 2 - denominator * inverse */\n      dup2\n      mul\n      swap1\n      pop\n        /* \"https://github.com/PaulRBerg/prb-math/blob/main/src/Common.sol\":18074:18081  inverse */\n      dup1\n        /* \"https://github.com/PaulRBerg/prb-math/blob/main/src/Common.sol\":18060:18071  denominator */\n      dup9\n        /* \"https://github.com/PaulRBerg/prb-math/blob/main/src/Common.sol\":18060:18081  denominator * inverse */\n      mul\n        /* \"https://github.com/PaulRBerg/prb-math/blob/main/src/Common.sol\":18056:18057  2 */\n      0x02\n        /* \"https://github.com/PaulRBerg/prb-math/blob/main/src/Common.sol\":18056:18081  2 - denominator * inverse */\n      sub\n        /* \"https://github.com/PaulRBerg/prb-math/blob/main/src/Common.sol\":18045:18081  inverse *= 2 - denominator * inverse */\n      dup2\n      mul\n      swap1\n      pop\n        /* \"https://github.com/PaulRBerg/prb-math/blob/main/src/Common.sol\":18141:18148  inverse */\n      dup1\n        /* \"https://github.com/PaulRBerg/prb-math/blob/main/src/Common.sol\":18127:18138  denominator */\n      dup9\n        /* \"https://github.com/PaulRBerg/prb-math/blob/main/src/Common.sol\":18127:18148  denominator * inverse */\n      mul\n        /* \"https://github.com/PaulRBerg/prb-math/blob/main/src/Common.sol\":18123:18124  2 */\n      0x02\n        /* \"https://github.com/PaulRBerg/prb-math/blob/main/src/Common.sol\":18123:18148  2 - denominator * inverse */\n      sub\n        /* \"https://github.com/PaulRBerg/prb-math/blob/main/src/Common.sol\":18112:18148  inverse *= 2 - denominator * inverse */\n      dup2\n      mul\n      swap1\n      pop\n        /* \"https://github.com/PaulRBerg/prb-math/blob/main/src/Common.sol\":18579:18586  inverse */\n      dup1\n        /* \"https://github.com/PaulRBerg/prb-math/blob/main/src/Common.sol\":18571:18576  prod0 */\n      dup7\n        /* \"https://github.com/PaulRBerg/prb-math/blob/main/src/Common.sol\":18571:18586  prod0 * inverse */\n      mul\n        /* \"https://github.com/PaulRBerg/prb-math/blob/main/src/Common.sol\":18562:18586  result = prod0 * inverse */\n      swap7\n      pop\n        /* \"https://github.com/PaulRBerg/prb-math/blob/main/src/Common.sol\":16040:18593  unchecked {... */\n      pop\n      pop\n      pop\n        /* \"https://github.com/PaulRBerg/prb-math/blob/main/src/Common.sol\":14563:18595  {... */\n      pop\n      pop\n      pop\n        /* \"https://github.com/PaulRBerg/prb-math/blob/main/src/Common.sol\":14474:18595  function mulDiv(uint256 x, uint256 y, uint256 denominator) pure returns (uint256 result) {... */\n    tag_185:\n      swap4\n      swap3\n      pop\n      pop\n      pop\n      jump\t// out\n        /* \"#utility.yul\":7:82   */\n    tag_193:\n        /* \"#utility.yul\":40:46   */\n      0x00\n        /* \"#utility.yul\":73:75   */\n      0x40\n        /* \"#utility.yul\":67:76   */\n      mload\n        /* \"#utility.yul\":57:76   */\n      swap1\n      pop\n        /* \"#utility.yul\":7:82   */\n      swap1\n      jump\t// out\n        /* \"#utility.yul\":88:205   */\n    tag_194:\n        /* \"#utility.yul\":197:198   */\n      0x00\n        /* \"#utility.yul\":194:195   */\n      dup1\n        /* \"#utility.yul\":187:199   */\n      revert\n        /* \"#utility.yul\":211:328   */\n    tag_195:\n        /* \"#utility.yul\":320:321   */\n      0x00\n        /* \"#utility.yul\":317:318   */\n      dup1\n        /* \"#utility.yul\":310:322   */\n      revert\n        /* \"#utility.yul\":334:451   */\n    tag_196:\n        /* \"#utility.yul\":443:444   */\n      0x00\n        /* \"#utility.yul\":440:441   */\n      dup1\n        /* \"#utility.yul\":433:445   */\n      revert\n        /* \"#utility.yul\":491:726   */\n    tag_197:\n        /* \"#utility.yul\":567:572   */\n      0x00\n        /* \"#utility.yul\":608:611   */\n      0xe0\n        /* \"#utility.yul\":599:605   */\n      dup3\n        /* \"#utility.yul\":594:597   */\n      dup5\n        /* \"#utility.yul\":590:606   */\n      sub\n        /* \"#utility.yul\":586:612   */\n      slt\n        /* \"#utility.yul\":583:696   */\n      iszero\n      tag_258\n      jumpi\n        /* \"#utility.yul\":615:694   */\n      tag_259\n      tag_196\n      jump\t// in\n    tag_259:\n        /* \"#utility.yul\":583:696   */\n    tag_258:\n        /* \"#utility.yul\":714:720   */\n      dup2\n        /* \"#utility.yul\":705:720   */\n      swap1\n      pop\n        /* \"#utility.yul\":491:726   */\n      swap3\n      swap2\n      pop\n      pop\n      jump\t// out\n        /* \"#utility.yul\":732:1122   */\n    tag_9:\n        /* \"#utility.yul\":821:827   */\n      0x00\n        /* \"#utility.yul\":870:873   */\n      0xe0\n        /* \"#utility.yul\":858:867   */\n      dup3\n        /* \"#utility.yul\":849:856   */\n      dup5\n        /* \"#utility.yul\":845:868   */\n      sub\n        /* \"#utility.yul\":841:874   */\n      slt\n        /* \"#utility.yul\":838:958   */\n      iszero\n      tag_261\n      jumpi\n        /* \"#utility.yul\":877:956   */\n      tag_262\n      tag_194\n      jump\t// in\n    tag_262:\n        /* \"#utility.yul\":838:958   */\n    tag_261:\n        /* \"#utility.yul\":997:998   */\n      0x00\n        /* \"#utility.yul\":1022:1105   */\n      tag_263\n        /* \"#utility.yul\":1097:1104   */\n      dup5\n        /* \"#utility.yul\":1088:1094   */\n      dup3\n        /* \"#utility.yul\":1077:1086   */\n      dup6\n        /* \"#utility.yul\":1073:1095   */\n      add\n        /* \"#utility.yul\":1022:1105   */\n      tag_197\n      jump\t// in\n    tag_263:\n        /* \"#utility.yul\":1012:1105   */\n      swap2\n      pop\n        /* \"#utility.yul\":968:1115   */\n      pop\n        /* \"#utility.yul\":732:1122   */\n      swap3\n      swap2\n      pop\n      pop\n      jump\t// out\n        /* \"#utility.yul\":1128:1205   */\n    tag_198:\n        /* \"#utility.yul\":1165:1172   */\n      0x00\n        /* \"#utility.yul\":1194:1199   */\n      dup2\n        /* \"#utility.yul\":1183:1199   */\n      swap1\n      pop\n        /* \"#utility.yul\":1128:1205   */\n      swap2\n      swap1\n      pop\n      jump\t// out\n        /* \"#utility.yul\":1211:1329   */\n    tag_199:\n        /* \"#utility.yul\":1298:1322   */\n      tag_266\n        /* \"#utility.yul\":1316:1321   */\n      dup2\n        /* \"#utility.yul\":1298:1322   */\n      tag_198\n      jump\t// in\n    tag_266:\n        /* \"#utility.yul\":1293:1296   */\n      dup3\n        /* \"#utility.yul\":1286:1323   */\n      mstore\n        /* \"#utility.yul\":1211:1329   */\n      pop\n      pop\n      jump\t// out\n        /* \"#utility.yul\":1335:1667   */\n    tag_12:\n        /* \"#utility.yul\":1456:1460   */\n      0x00\n        /* \"#utility.yul\":1494:1496   */\n      0x40\n        /* \"#utility.yul\":1483:1492   */\n      dup3\n        /* \"#utility.yul\":1479:1497   */\n      add\n        /* \"#utility.yul\":1471:1497   */\n      swap1\n      pop\n        /* \"#utility.yul\":1507:1578   */\n      tag_268\n        /* \"#utility.yul\":1575:1576   */\n      0x00\n        /* \"#utility.yul\":1564:1573   */\n      dup4\n        /* \"#utility.yul\":1560:1577   */\n      add\n        /* \"#utility.yul\":1551:1557   */\n      dup6\n        /* \"#utility.yul\":1507:1578   */\n      tag_199\n      jump\t// in\n    tag_268:\n        /* \"#utility.yul\":1588:1660   */\n      tag_269\n        /* \"#utility.yul\":1656:1658   */\n      0x20\n        /* \"#utility.yul\":1645:1654   */\n      dup4\n        /* \"#utility.yul\":1641:1659   */\n      add\n        /* \"#utility.yul\":1632:1638   */\n      dup5\n        /* \"#utility.yul\":1588:1660   */\n      tag_199\n      jump\t// in\n    tag_269:\n        /* \"#utility.yul\":1335:1667   */\n      swap4\n      swap3\n      pop\n      pop\n      pop\n      jump\t// out\n        /* \"#utility.yul\":1673:1795   */\n    tag_200:\n        /* \"#utility.yul\":1746:1770   */\n      tag_271\n        /* \"#utility.yul\":1764:1769   */\n      dup2\n        /* \"#utility.yul\":1746:1770   */\n      tag_198\n      jump\t// in\n    tag_271:\n        /* \"#utility.yul\":1739:1744   */\n      dup2\n        /* \"#utility.yul\":1736:1771   */\n      eq\n        /* \"#utility.yul\":1726:1789   */\n      tag_272\n      jumpi\n        /* \"#utility.yul\":1785:1786   */\n      0x00\n        /* \"#utility.yul\":1782:1783   */\n      dup1\n        /* \"#utility.yul\":1775:1787   */\n      revert\n        /* \"#utility.yul\":1726:1789   */\n    tag_272:\n        /* \"#utility.yul\":1673:1795   */\n      pop\n      jump\t// out\n        /* \"#utility.yul\":1801:1940   */\n    tag_201:\n        /* \"#utility.yul\":1847:1852   */\n      0x00\n        /* \"#utility.yul\":1885:1891   */\n      dup2\n        /* \"#utility.yul\":1872:1892   */\n      calldataload\n        /* \"#utility.yul\":1863:1892   */\n      swap1\n      pop\n        /* \"#utility.yul\":1901:1934   */\n      tag_274\n        /* \"#utility.yul\":1928:1933   */\n      dup2\n        /* \"#utility.yul\":1901:1934   */\n      tag_200\n      jump\t// in\n    tag_274:\n        /* \"#utility.yul\":1801:1940   */\n      swap3\n      swap2\n      pop\n      pop\n      jump\t// out\n        /* \"#utility.yul\":1946:2063   */\n    tag_202:\n        /* \"#utility.yul\":2055:2056   */\n      0x00\n        /* \"#utility.yul\":2052:2053   */\n      dup1\n        /* \"#utility.yul\":2045:2057   */\n      revert\n        /* \"#utility.yul\":2069:2186   */\n    tag_203:\n        /* \"#utility.yul\":2178:2179   */\n      0x00\n        /* \"#utility.yul\":2175:2176   */\n      dup1\n        /* \"#utility.yul\":2168:2180   */\n      revert\n        /* \"#utility.yul\":2192:2309   */\n    tag_204:\n        /* \"#utility.yul\":2301:2302   */\n      0x00\n        /* \"#utility.yul\":2298:2299   */\n      dup1\n        /* \"#utility.yul\":2291:2303   */\n      revert\n        /* \"#utility.yul\":2328:2880   */\n    tag_205:\n        /* \"#utility.yul\":2385:2393   */\n      0x00\n        /* \"#utility.yul\":2395:2401   */\n      dup1\n        /* \"#utility.yul\":2445:2448   */\n      dup4\n        /* \"#utility.yul\":2438:2442   */\n      0x1f\n        /* \"#utility.yul\":2430:2436   */\n      dup5\n        /* \"#utility.yul\":2426:2443   */\n      add\n        /* \"#utility.yul\":2422:2449   */\n      slt\n        /* \"#utility.yul\":2412:2534   */\n      tag_279\n      jumpi\n        /* \"#utility.yul\":2453:2532   */\n      tag_280\n      tag_202\n      jump\t// in\n    tag_280:\n        /* \"#utility.yul\":2412:2534   */\n    tag_279:\n        /* \"#utility.yul\":2566:2572   */\n      dup3\n        /* \"#utility.yul\":2553:2573   */\n      calldataload\n        /* \"#utility.yul\":2543:2573   */\n      swap1\n      pop\n        /* \"#utility.yul\":2596:2614   */\n      0xffffffffffffffff\n        /* \"#utility.yul\":2588:2594   */\n      dup2\n        /* \"#utility.yul\":2585:2615   */\n      gt\n        /* \"#utility.yul\":2582:2699   */\n      iszero\n      tag_281\n      jumpi\n        /* \"#utility.yul\":2618:2697   */\n      tag_282\n      tag_203\n      jump\t// in\n    tag_282:\n        /* \"#utility.yul\":2582:2699   */\n    tag_281:\n        /* \"#utility.yul\":2732:2736   */\n      0x20\n        /* \"#utility.yul\":2724:2730   */\n      dup4\n        /* \"#utility.yul\":2720:2737   */\n      add\n        /* \"#utility.yul\":2708:2737   */\n      swap2\n      pop\n        /* \"#utility.yul\":2786:2789   */\n      dup4\n        /* \"#utility.yul\":2778:2782   */\n      0x01\n        /* \"#utility.yul\":2770:2776   */\n      dup3\n        /* \"#utility.yul\":2766:2783   */\n      mul\n        /* \"#utility.yul\":2756:2764   */\n      dup4\n        /* \"#utility.yul\":2752:2784   */\n      add\n        /* \"#utility.yul\":2749:2790   */\n      gt\n        /* \"#utility.yul\":2746:2874   */\n      iszero\n      tag_283\n      jumpi\n        /* \"#utility.yul\":2793:2872   */\n      tag_284\n      tag_204\n      jump\t// in\n    tag_284:\n        /* \"#utility.yul\":2746:2874   */\n    tag_283:\n        /* \"#utility.yul\":2328:2880   */\n      swap3\n      pop\n      swap3\n      swap1\n      pop\n      jump\t// out\n        /* \"#utility.yul\":2886:3703   */\n    tag_15:\n        /* \"#utility.yul\":2974:2980   */\n      0x00\n        /* \"#utility.yul\":2982:2988   */\n      dup1\n        /* \"#utility.yul\":2990:2996   */\n      0x00\n        /* \"#utility.yul\":2998:3004   */\n      dup1\n        /* \"#utility.yul\":3047:3049   */\n      0x60\n        /* \"#utility.yul\":3035:3044   */\n      dup6\n        /* \"#utility.yul\":3026:3033   */\n      dup8\n        /* \"#utility.yul\":3022:3045   */\n      sub\n        /* \"#utility.yul\":3018:3050   */\n      slt\n        /* \"#utility.yul\":3015:3134   */\n      iszero\n      tag_286\n      jumpi\n        /* \"#utility.yul\":3053:3132   */\n      tag_287\n      tag_194\n      jump\t// in\n    tag_287:\n        /* \"#utility.yul\":3015:3134   */\n    tag_286:\n        /* \"#utility.yul\":3173:3174   */\n      0x00\n        /* \"#utility.yul\":3198:3251   */\n      tag_288\n        /* \"#utility.yul\":3243:3250   */\n      dup8\n        /* \"#utility.yul\":3234:3240   */\n      dup3\n        /* \"#utility.yul\":3223:3232   */\n      dup9\n        /* \"#utility.yul\":3219:3241   */\n      add\n        /* \"#utility.yul\":3198:3251   */\n      tag_201\n      jump\t// in\n    tag_288:\n        /* \"#utility.yul\":3188:3251   */\n      swap5\n      pop\n        /* \"#utility.yul\":3144:3261   */\n      pop\n        /* \"#utility.yul\":3300:3302   */\n      0x20\n        /* \"#utility.yul\":3326:3379   */\n      tag_289\n        /* \"#utility.yul\":3371:3378   */\n      dup8\n        /* \"#utility.yul\":3362:3368   */\n      dup3\n        /* \"#utility.yul\":3351:3360   */\n      dup9\n        /* \"#utility.yul\":3347:3369   */\n      add\n        /* \"#utility.yul\":3326:3379   */\n      tag_201\n      jump\t// in\n    tag_289:\n        /* \"#utility.yul\":3316:3379   */\n      swap4\n      pop\n        /* \"#utility.yul\":3271:3389   */\n      pop\n        /* \"#utility.yul\":3456:3458   */\n      0x40\n        /* \"#utility.yul\":3445:3454   */\n      dup6\n        /* \"#utility.yul\":3441:3459   */\n      add\n        /* \"#utility.yul\":3428:3460   */\n      calldataload\n        /* \"#utility.yul\":3487:3505   */\n      0xffffffffffffffff\n        /* \"#utility.yul\":3479:3485   */\n      dup2\n        /* \"#utility.yul\":3476:3506   */\n      gt\n        /* \"#utility.yul\":3473:3590   */\n      iszero\n      tag_290\n      jumpi\n        /* \"#utility.yul\":3509:3588   */\n      tag_291\n      tag_195\n      jump\t// in\n    tag_291:\n        /* \"#utility.yul\":3473:3590   */\n    tag_290:\n        /* \"#utility.yul\":3622:3686   */\n      tag_292\n        /* \"#utility.yul\":3678:3685   */\n      dup8\n        /* \"#utility.yul\":3669:3675   */\n      dup3\n        /* \"#utility.yul\":3658:3667   */\n      dup9\n        /* \"#utility.yul\":3654:3676   */\n      add\n        /* \"#utility.yul\":3622:3686   */\n      tag_205\n      jump\t// in\n    tag_292:\n        /* \"#utility.yul\":3604:3686   */\n      swap3\n      pop\n      swap3\n      pop\n        /* \"#utility.yul\":3399:3696   */\n      pop\n        /* \"#utility.yul\":2886:3703   */\n      swap3\n      swap6\n      swap2\n      swap5\n      pop\n      swap3\n      pop\n      jump\t// out\n        /* \"#utility.yul\":3709:3835   */\n    tag_206:\n        /* \"#utility.yul\":3746:3753   */\n      0x00\n        /* \"#utility.yul\":3786:3828   */\n      0xffffffffffffffffffffffffffffffffffffffff\n        /* \"#utility.yul\":3779:3784   */\n      dup3\n        /* \"#utility.yul\":3775:3829   */\n      and\n        /* \"#utility.yul\":3764:3829   */\n      swap1\n      pop\n        /* \"#utility.yul\":3709:3835   */\n      swap2\n      swap1\n      pop\n      jump\t// out\n        /* \"#utility.yul\":3841:3937   */\n    tag_207:\n        /* \"#utility.yul\":3878:3885   */\n      0x00\n        /* \"#utility.yul\":3907:3931   */\n      tag_295\n        /* \"#utility.yul\":3925:3930   */\n      dup3\n        /* \"#utility.yul\":3907:3931   */\n      tag_206\n      jump\t// in\n    tag_295:\n        /* \"#utility.yul\":3896:3931   */\n      swap1\n      pop\n        /* \"#utility.yul\":3841:3937   */\n      swap2\n      swap1\n      pop\n      jump\t// out\n        /* \"#utility.yul\":3943:4065   */\n    tag_208:\n        /* \"#utility.yul\":4016:4040   */\n      tag_297\n        /* \"#utility.yul\":4034:4039   */\n      dup2\n        /* \"#utility.yul\":4016:4040   */\n      tag_207\n      jump\t// in\n    tag_297:\n        /* \"#utility.yul\":4009:4014   */\n      dup2\n        /* \"#utility.yul\":4006:4041   */\n      eq\n        /* \"#utility.yul\":3996:4059   */\n      tag_298\n      jumpi\n        /* \"#utility.yul\":4055:4056   */\n      0x00\n        /* \"#utility.yul\":4052:4053   */\n      dup1\n        /* \"#utility.yul\":4045:4057   */\n      revert\n        /* \"#utility.yul\":3996:4059   */\n    tag_298:\n        /* \"#utility.yul\":3943:4065   */\n      pop\n      jump\t// out\n        /* \"#utility.yul\":4071:4210   */\n    tag_209:\n        /* \"#utility.yul\":4117:4122   */\n      0x00\n        /* \"#utility.yul\":4155:4161   */\n      dup2\n        /* \"#utility.yul\":4142:4162   */\n      calldataload\n        /* \"#utility.yul\":4133:4162   */\n      swap1\n      pop\n        /* \"#utility.yul\":4171:4204   */\n      tag_300\n        /* \"#utility.yul\":4198:4203   */\n      dup2\n        /* \"#utility.yul\":4171:4204   */\n      tag_208\n      jump\t// in\n    tag_300:\n        /* \"#utility.yul\":4071:4210   */\n      swap3\n      swap2\n      pop\n      pop\n      jump\t// out\n        /* \"#utility.yul\":4216:4306   */\n    tag_210:\n        /* \"#utility.yul\":4250:4257   */\n      0x00\n        /* \"#utility.yul\":4293:4298   */\n      dup2\n        /* \"#utility.yul\":4286:4299   */\n      iszero\n        /* \"#utility.yul\":4279:4300   */\n      iszero\n        /* \"#utility.yul\":4268:4300   */\n      swap1\n      pop\n        /* \"#utility.yul\":4216:4306   */\n      swap2\n      swap1\n      pop\n      jump\t// out\n        /* \"#utility.yul\":4312:4428   */\n    tag_211:\n        /* \"#utility.yul\":4382:4403   */\n      tag_303\n        /* \"#utility.yul\":4397:4402   */\n      dup2\n        /* \"#utility.yul\":4382:4403   */\n      tag_210\n      jump\t// in\n    tag_303:\n        /* \"#utility.yul\":4375:4380   */\n      dup2\n        /* \"#utility.yul\":4372:4404   */\n      eq\n        /* \"#utility.yul\":4362:4422   */\n      tag_304\n      jumpi\n        /* \"#utility.yul\":4418:4419   */\n      0x00\n        /* \"#utility.yul\":4415:4416   */\n      dup1\n        /* \"#utility.yul\":4408:4420   */\n      revert\n        /* \"#utility.yul\":4362:4422   */\n    tag_304:\n        /* \"#utility.yul\":4312:4428   */\n      pop\n      jump\t// out\n        /* \"#utility.yul\":4434:4567   */\n    tag_212:\n        /* \"#utility.yul\":4477:4482   */\n      0x00\n        /* \"#utility.yul\":4515:4521   */\n      dup2\n        /* \"#utility.yul\":4502:4522   */\n      calldataload\n        /* \"#utility.yul\":4493:4522   */\n      swap1\n      pop\n        /* \"#utility.yul\":4531:4561   */\n      tag_306\n        /* \"#utility.yul\":4555:4560   */\n      dup2\n        /* \"#utility.yul\":4531:4561   */\n      tag_211\n      jump\t// in\n    tag_306:\n        /* \"#utility.yul\":4434:4567   */\n      swap3\n      swap2\n      pop\n      pop\n      jump\t// out\n        /* \"#utility.yul\":4573:4695   */\n    tag_213:\n        /* \"#utility.yul\":4646:4670   */\n      tag_308\n        /* \"#utility.yul\":4664:4669   */\n      dup2\n        /* \"#utility.yul\":4646:4670   */\n      tag_206\n      jump\t// in\n    tag_308:\n        /* \"#utility.yul\":4639:4644   */\n      dup2\n        /* \"#utility.yul\":4636:4671   */\n      eq\n        /* \"#utility.yul\":4626:4689   */\n      tag_309\n      jumpi\n        /* \"#utility.yul\":4685:4686   */\n      0x00\n        /* \"#utility.yul\":4682:4683   */\n      dup1\n        /* \"#utility.yul\":4675:4687   */\n      revert\n        /* \"#utility.yul\":4626:4689   */\n    tag_309:\n        /* \"#utility.yul\":4573:4695   */\n      pop\n      jump\t// out\n        /* \"#utility.yul\":4701:4840   */\n    tag_214:\n        /* \"#utility.yul\":4747:4752   */\n      0x00\n        /* \"#utility.yul\":4785:4791   */\n      dup2\n        /* \"#utility.yul\":4772:4792   */\n      calldataload\n        /* \"#utility.yul\":4763:4792   */\n      swap1\n      pop\n        /* \"#utility.yul\":4801:4834   */\n      tag_311\n        /* \"#utility.yul\":4828:4833   */\n      dup2\n        /* \"#utility.yul\":4801:4834   */\n      tag_213\n      jump\t// in\n    tag_311:\n        /* \"#utility.yul\":4701:4840   */\n      swap3\n      swap2\n      pop\n      pop\n      jump\t// out\n        /* \"#utility.yul\":4846:5949   */\n    tag_19:\n        /* \"#utility.yul\":4949:4955   */\n      0x00\n        /* \"#utility.yul\":4957:4963   */\n      dup1\n        /* \"#utility.yul\":4965:4971   */\n      0x00\n        /* \"#utility.yul\":4973:4979   */\n      dup1\n        /* \"#utility.yul\":4981:4987   */\n      0x00\n        /* \"#utility.yul\":4989:4995   */\n      dup1\n        /* \"#utility.yul\":5038:5041   */\n      0xa0\n        /* \"#utility.yul\":5026:5035   */\n      dup8\n        /* \"#utility.yul\":5017:5024   */\n      dup10\n        /* \"#utility.yul\":5013:5036   */\n      sub\n        /* \"#utility.yul\":5009:5042   */\n      slt\n        /* \"#utility.yul\":5006:5126   */\n      iszero\n      tag_313\n      jumpi\n        /* \"#utility.yul\":5045:5124   */\n      tag_314\n      tag_194\n      jump\t// in\n    tag_314:\n        /* \"#utility.yul\":5006:5126   */\n    tag_313:\n        /* \"#utility.yul\":5165:5166   */\n      0x00\n        /* \"#utility.yul\":5190:5243   */\n      tag_315\n        /* \"#utility.yul\":5235:5242   */\n      dup10\n        /* \"#utility.yul\":5226:5232   */\n      dup3\n        /* \"#utility.yul\":5215:5224   */\n      dup11\n        /* \"#utility.yul\":5211:5233   */\n      add\n        /* \"#utility.yul\":5190:5243   */\n      tag_209\n      jump\t// in\n    tag_315:\n        /* \"#utility.yul\":5180:5243   */\n      swap7\n      pop\n        /* \"#utility.yul\":5136:5253   */\n      pop\n        /* \"#utility.yul\":5292:5294   */\n      0x20\n        /* \"#utility.yul\":5318:5368   */\n      tag_316\n        /* \"#utility.yul\":5360:5367   */\n      dup10\n        /* \"#utility.yul\":5351:5357   */\n      dup3\n        /* \"#utility.yul\":5340:5349   */\n      dup11\n        /* \"#utility.yul\":5336:5358   */\n      add\n        /* \"#utility.yul\":5318:5368   */\n      tag_212\n      jump\t// in\n    tag_316:\n        /* \"#utility.yul\":5308:5368   */\n      swap6\n      pop\n        /* \"#utility.yul\":5263:5378   */\n      pop\n        /* \"#utility.yul\":5417:5419   */\n      0x40\n        /* \"#utility.yul\":5443:5496   */\n      tag_317\n        /* \"#utility.yul\":5488:5495   */\n      dup10\n        /* \"#utility.yul\":5479:5485   */\n      dup3\n        /* \"#utility.yul\":5468:5477   */\n      dup11\n        /* \"#utility.yul\":5464:5486   */\n      add\n        /* \"#utility.yul\":5443:5496   */\n      tag_201\n      jump\t// in\n    tag_317:\n        /* \"#utility.yul\":5433:5496   */\n      swap5\n      pop\n        /* \"#utility.yul\":5388:5506   */\n      pop\n        /* \"#utility.yul\":5545:5547   */\n      0x60\n        /* \"#utility.yul\":5571:5624   */\n      tag_318\n        /* \"#utility.yul\":5616:5623   */\n      dup10\n        /* \"#utility.yul\":5607:5613   */\n      dup3\n        /* \"#utility.yul\":5596:5605   */\n      dup11\n        /* \"#utility.yul\":5592:5614   */\n      add\n        /* \"#utility.yul\":5571:5624   */\n      tag_214\n      jump\t// in\n    tag_318:\n        /* \"#utility.yul\":5561:5624   */\n      swap4\n      pop\n        /* \"#utility.yul\":5516:5634   */\n      pop\n        /* \"#utility.yul\":5701:5704   */\n      0x80\n        /* \"#utility.yul\":5690:5699   */\n      dup8\n        /* \"#utility.yul\":5686:5705   */\n      add\n        /* \"#utility.yul\":5673:5706   */\n      calldataload\n        /* \"#utility.yul\":5733:5751   */\n      0xffffffffffffffff\n        /* \"#utility.yul\":5725:5731   */\n      dup2\n        /* \"#utility.yul\":5722:5752   */\n      gt\n        /* \"#utility.yul\":5719:5836   */\n      iszero\n      tag_319\n      jumpi\n        /* \"#utility.yul\":5755:5834   */\n      tag_320\n      tag_195\n      jump\t// in\n    tag_320:\n        /* \"#utility.yul\":5719:5836   */\n    tag_319:\n        /* \"#utility.yul\":5868:5932   */\n      tag_321\n        /* \"#utility.yul\":5924:5931   */\n      dup10\n        /* \"#utility.yul\":5915:5921   */\n      dup3\n        /* \"#utility.yul\":5904:5913   */\n      dup11\n        /* \"#utility.yul\":5900:5922   */\n      add\n        /* \"#utility.yul\":5868:5932   */\n      tag_205\n      jump\t// in\n    tag_321:\n        /* \"#utility.yul\":5850:5932   */\n      swap3\n      pop\n      swap3\n      pop\n        /* \"#utility.yul\":5644:5942   */\n      pop\n        /* \"#utility.yul\":4846:5949   */\n      swap3\n      swap6\n      pop\n      swap3\n      swap6\n      pop\n      swap3\n      swap6\n      jump\t// out\n        /* \"#utility.yul\":5955:6031   */\n    tag_215:\n        /* \"#utility.yul\":5991:5998   */\n      0x00\n        /* \"#utility.yul\":6020:6025   */\n      dup2\n        /* \"#utility.yul\":6009:6025   */\n      swap1\n      pop\n        /* \"#utility.yul\":5955:6031   */\n      swap2\n      swap1\n      pop\n      jump\t// out\n        /* \"#utility.yul\":6037:6152   */\n    tag_216:\n        /* \"#utility.yul\":6122:6145   */\n      tag_324\n        /* \"#utility.yul\":6139:6144   */\n      dup2\n        /* \"#utility.yul\":6122:6145   */\n      tag_215\n      jump\t// in\n    tag_324:\n        /* \"#utility.yul\":6117:6120   */\n      dup3\n        /* \"#utility.yul\":6110:6146   */\n      mstore\n        /* \"#utility.yul\":6037:6152   */\n      pop\n      pop\n      jump\t// out\n        /* \"#utility.yul\":6158:6482   */\n    tag_22:\n        /* \"#utility.yul\":6275:6279   */\n      0x00\n        /* \"#utility.yul\":6313:6315   */\n      0x40\n        /* \"#utility.yul\":6302:6311   */\n      dup3\n        /* \"#utility.yul\":6298:6316   */\n      add\n        /* \"#utility.yul\":6290:6316   */\n      swap1\n      pop\n        /* \"#utility.yul\":6326:6395   */\n      tag_326\n        /* \"#utility.yul\":6392:6393   */\n      0x00\n        /* \"#utility.yul\":6381:6390   */\n      dup4\n        /* \"#utility.yul\":6377:6394   */\n      add\n        /* \"#utility.yul\":6368:6374   */\n      dup6\n        /* \"#utility.yul\":6326:6395   */\n      tag_216\n      jump\t// in\n    tag_326:\n        /* \"#utility.yul\":6405:6475   */\n      tag_327\n        /* \"#utility.yul\":6471:6473   */\n      0x20\n        /* \"#utility.yul\":6460:6469   */\n      dup4\n        /* \"#utility.yul\":6456:6474   */\n      add\n        /* \"#utility.yul\":6447:6453   */\n      dup5\n        /* \"#utility.yul\":6405:6475   */\n      tag_216\n      jump\t// in\n    tag_327:\n        /* \"#utility.yul\":6158:6482   */\n      swap4\n      swap3\n      pop\n      pop\n      pop\n      jump\t// out\n        /* \"#utility.yul\":6488:6608   */\n    tag_217:\n        /* \"#utility.yul\":6560:6583   */\n      tag_329\n        /* \"#utility.yul\":6577:6582   */\n      dup2\n        /* \"#utility.yul\":6560:6583   */\n      tag_215\n      jump\t// in\n    tag_329:\n        /* \"#utility.yul\":6553:6558   */\n      dup2\n        /* \"#utility.yul\":6550:6584   */\n      eq\n        /* \"#utility.yul\":6540:6602   */\n      tag_330\n      jumpi\n        /* \"#utility.yul\":6598:6599   */\n      0x00\n        /* \"#utility.yul\":6595:6596   */\n      dup1\n        /* \"#utility.yul\":6588:6600   */\n      revert\n        /* \"#utility.yul\":6540:6602   */\n    tag_330:\n        /* \"#utility.yul\":6488:6608   */\n      pop\n      jump\t// out\n        /* \"#utility.yul\":6614:6751   */\n    tag_218:\n        /* \"#utility.yul\":6659:6664   */\n      0x00\n        /* \"#utility.yul\":6697:6703   */\n      dup2\n        /* \"#utility.yul\":6684:6704   */\n      calldataload\n        /* \"#utility.yul\":6675:6704   */\n      swap1\n      pop\n        /* \"#utility.yul\":6713:6745   */\n      tag_332\n        /* \"#utility.yul\":6739:6744   */\n      dup2\n        /* \"#utility.yul\":6713:6745   */\n      tag_217\n      jump\t// in\n    tag_332:\n        /* \"#utility.yul\":6614:6751   */\n      swap3\n      swap2\n      pop\n      pop\n      jump\t// out\n        /* \"#utility.yul\":6757:7570   */\n    tag_25:\n        /* \"#utility.yul\":6843:6849   */\n      0x00\n        /* \"#utility.yul\":6851:6857   */\n      dup1\n        /* \"#utility.yul\":6859:6865   */\n      0x00\n        /* \"#utility.yul\":6867:6873   */\n      dup1\n        /* \"#utility.yul\":6916:6918   */\n      0x60\n        /* \"#utility.yul\":6904:6913   */\n      dup6\n        /* \"#utility.yul\":6895:6902   */\n      dup8\n        /* \"#utility.yul\":6891:6914   */\n      sub\n        /* \"#utility.yul\":6887:6919   */\n      slt\n        /* \"#utility.yul\":6884:7003   */\n      iszero\n      tag_334\n      jumpi\n        /* \"#utility.yul\":6922:7001   */\n      tag_335\n      tag_194\n      jump\t// in\n    tag_335:\n        /* \"#utility.yul\":6884:7003   */\n    tag_334:\n        /* \"#utility.yul\":7042:7043   */\n      0x00\n        /* \"#utility.yul\":7067:7119   */\n      tag_336\n        /* \"#utility.yul\":7111:7118   */\n      dup8\n        /* \"#utility.yul\":7102:7108   */\n      dup3\n        /* \"#utility.yul\":7091:7100   */\n      dup9\n        /* \"#utility.yul\":7087:7109   */\n      add\n        /* \"#utility.yul\":7067:7119   */\n      tag_218\n      jump\t// in\n    tag_336:\n        /* \"#utility.yul\":7057:7119   */\n      swap5\n      pop\n        /* \"#utility.yul\":7013:7129   */\n      pop\n        /* \"#utility.yul\":7168:7170   */\n      0x20\n        /* \"#utility.yul\":7194:7246   */\n      tag_337\n        /* \"#utility.yul\":7238:7245   */\n      dup8\n        /* \"#utility.yul\":7229:7235   */\n      dup3\n        /* \"#utility.yul\":7218:7227   */\n      dup9\n        /* \"#utility.yul\":7214:7236   */\n      add\n        /* \"#utility.yul\":7194:7246   */\n      tag_218\n      jump\t// in\n    tag_337:\n        /* \"#utility.yul\":7184:7246   */\n      swap4\n      pop\n        /* \"#utility.yul\":7139:7256   */\n      pop\n        /* \"#utility.yul\":7323:7325   */\n      0x40\n        /* \"#utility.yul\":7312:7321   */\n      dup6\n        /* \"#utility.yul\":7308:7326   */\n      add\n        /* \"#utility.yul\":7295:7327   */\n      calldataload\n        /* \"#utility.yul\":7354:7372   */\n      0xffffffffffffffff\n        /* \"#utility.yul\":7346:7352   */\n      dup2\n        /* \"#utility.yul\":7343:7373   */\n      gt\n        /* \"#utility.yul\":7340:7457   */\n      iszero\n      tag_338\n      jumpi\n        /* \"#utility.yul\":7376:7455   */\n      tag_339\n      tag_195\n      jump\t// in\n    tag_339:\n        /* \"#utility.yul\":7340:7457   */\n    tag_338:\n        /* \"#utility.yul\":7489:7553   */\n      tag_340\n        /* \"#utility.yul\":7545:7552   */\n      dup8\n        /* \"#utility.yul\":7536:7542   */\n      dup3\n        /* \"#utility.yul\":7525:7534   */\n      dup9\n        /* \"#utility.yul\":7521:7543   */\n      add\n        /* \"#utility.yul\":7489:7553   */\n      tag_205\n      jump\t// in\n    tag_340:\n        /* \"#utility.yul\":7471:7553   */\n      swap3\n      pop\n      swap3\n      pop\n        /* \"#utility.yul\":7266:7563   */\n      pop\n        /* \"#utility.yul\":6757:7570   */\n      swap3\n      swap6\n      swap2\n      swap5\n      pop\n      swap3\n      pop\n      jump\t// out\n        /* \"#utility.yul\":7576:7905   */\n    tag_29:\n        /* \"#utility.yul\":7635:7641   */\n      0x00\n        /* \"#utility.yul\":7684:7686   */\n      0x20\n        /* \"#utility.yul\":7672:7681   */\n      dup3\n        /* \"#utility.yul\":7663:7670   */\n      dup5\n        /* \"#utility.yul\":7659:7682   */\n      sub\n        /* \"#utility.yul\":7655:7687   */\n      slt\n        /* \"#utility.yul\":7652:7771   */\n      iszero\n      tag_342\n      jumpi\n        /* \"#utility.yul\":7690:7769   */\n      tag_343\n      tag_194\n      jump\t// in\n    tag_343:\n        /* \"#utility.yul\":7652:7771   */\n    tag_342:\n        /* \"#utility.yul\":7810:7811   */\n      0x00\n        /* \"#utility.yul\":7835:7888   */\n      tag_344\n        /* \"#utility.yul\":7880:7887   */\n      dup5\n        /* \"#utility.yul\":7871:7877   */\n      dup3\n        /* \"#utility.yul\":7860:7869   */\n      dup6\n        /* \"#utility.yul\":7856:7878   */\n      add\n        /* \"#utility.yul\":7835:7888   */\n      tag_209\n      jump\t// in\n    tag_344:\n        /* \"#utility.yul\":7825:7888   */\n      swap2\n      pop\n        /* \"#utility.yul\":7781:7898   */\n      pop\n        /* \"#utility.yul\":7576:7905   */\n      swap3\n      swap2\n      pop\n      pop\n      jump\t// out\n        /* \"#utility.yul\":7911:8054   */\n    tag_219:\n        /* \"#utility.yul\":7968:7973   */\n      0x00\n        /* \"#utility.yul\":7999:8005   */\n      dup2\n        /* \"#utility.yul\":7993:8006   */\n      mload\n        /* \"#utility.yul\":7984:8006   */\n      swap1\n      pop\n        /* \"#utility.yul\":8015:8048   */\n      tag_346\n        /* \"#utility.yul\":8042:8047   */\n      dup2\n        /* \"#utility.yul\":8015:8048   */\n      tag_213\n      jump\t// in\n    tag_346:\n        /* \"#utility.yul\":7911:8054   */\n      swap3\n      swap2\n      pop\n      pop\n      jump\t// out\n        /* \"#utility.yul\":8060:8150   */\n    tag_220:\n        /* \"#utility.yul\":8095:8102   */\n      0x00\n        /* \"#utility.yul\":8138:8143   */\n      dup2\n        /* \"#utility.yul\":8135:8136   */\n      0x02\n        /* \"#utility.yul\":8124:8144   */\n      signextend\n        /* \"#utility.yul\":8113:8144   */\n      swap1\n      pop\n        /* \"#utility.yul\":8060:8150   */\n      swap2\n      swap1\n      pop\n      jump\t// out\n        /* \"#utility.yul\":8156:8274   */\n    tag_221:\n        /* \"#utility.yul\":8227:8249   */\n      tag_349\n        /* \"#utility.yul\":8243:8248   */\n      dup2\n        /* \"#utility.yul\":8227:8249   */\n      tag_220\n      jump\t// in\n    tag_349:\n        /* \"#utility.yul\":8220:8225   */\n      dup2\n        /* \"#utility.yul\":8217:8250   */\n      eq\n        /* \"#utility.yul\":8207:8268   */\n      tag_350\n      jumpi\n        /* \"#utility.yul\":8264:8265   */\n      0x00\n        /* \"#utility.yul\":8261:8262   */\n      dup1\n        /* \"#utility.yul\":8254:8266   */\n      revert\n        /* \"#utility.yul\":8207:8268   */\n    tag_350:\n        /* \"#utility.yul\":8156:8274   */\n      pop\n      jump\t// out\n        /* \"#utility.yul\":8280:8419   */\n    tag_222:\n        /* \"#utility.yul\":8335:8340   */\n      0x00\n        /* \"#utility.yul\":8366:8372   */\n      dup2\n        /* \"#utility.yul\":8360:8373   */\n      mload\n        /* \"#utility.yul\":8351:8373   */\n      swap1\n      pop\n        /* \"#utility.yul\":8382:8413   */\n      tag_352\n        /* \"#utility.yul\":8407:8412   */\n      dup2\n        /* \"#utility.yul\":8382:8413   */\n      tag_221\n      jump\t// in\n    tag_352:\n        /* \"#utility.yul\":8280:8419   */\n      swap3\n      swap2\n      pop\n      pop\n      jump\t// out\n        /* \"#utility.yul\":8425:8928   */\n    tag_33:\n        /* \"#utility.yul\":8502:8508   */\n      0x00\n        /* \"#utility.yul\":8510:8516   */\n      dup1\n        /* \"#utility.yul\":8559:8561   */\n      0x40\n        /* \"#utility.yul\":8547:8556   */\n      dup4\n        /* \"#utility.yul\":8538:8545   */\n      dup6\n        /* \"#utility.yul\":8534:8557   */\n      sub\n        /* \"#utility.yul\":8530:8562   */\n      slt\n        /* \"#utility.yul\":8527:8646   */\n      iszero\n      tag_354\n      jumpi\n        /* \"#utility.yul\":8565:8644   */\n      tag_355\n      tag_194\n      jump\t// in\n    tag_355:\n        /* \"#utility.yul\":8527:8646   */\n    tag_354:\n        /* \"#utility.yul\":8685:8686   */\n      0x00\n        /* \"#utility.yul\":8710:8774   */\n      tag_356\n        /* \"#utility.yul\":8766:8773   */\n      dup6\n        /* \"#utility.yul\":8757:8763   */\n      dup3\n        /* \"#utility.yul\":8746:8755   */\n      dup7\n        /* \"#utility.yul\":8742:8764   */\n      add\n        /* \"#utility.yul\":8710:8774   */\n      tag_219\n      jump\t// in\n    tag_356:\n        /* \"#utility.yul\":8700:8774   */\n      swap3\n      pop\n        /* \"#utility.yul\":8656:8784   */\n      pop\n        /* \"#utility.yul\":8823:8825   */\n      0x20\n        /* \"#utility.yul\":8849:8911   */\n      tag_357\n        /* \"#utility.yul\":8903:8910   */\n      dup6\n        /* \"#utility.yul\":8894:8900   */\n      dup3\n        /* \"#utility.yul\":8883:8892   */\n      dup7\n        /* \"#utility.yul\":8879:8901   */\n      add\n        /* \"#utility.yul\":8849:8911   */\n      tag_222\n      jump\t// in\n    tag_357:\n        /* \"#utility.yul\":8839:8911   */\n      swap2\n      pop\n        /* \"#utility.yul\":8794:8921   */\n      pop\n        /* \"#utility.yul\":8425:8928   */\n      swap3\n      pop\n      swap3\n      swap1\n      pop\n      jump\t// out\n        /* \"#utility.yul\":8934:9069   */\n    tag_223:\n        /* \"#utility.yul\":8978:8983   */\n      0x00\n        /* \"#utility.yul\":9016:9022   */\n      dup2\n        /* \"#utility.yul\":9003:9023   */\n      calldataload\n        /* \"#utility.yul\":8994:9023   */\n      swap1\n      pop\n        /* \"#utility.yul\":9032:9063   */\n      tag_359\n        /* \"#utility.yul\":9057:9062   */\n      dup2\n        /* \"#utility.yul\":9032:9063   */\n      tag_221\n      jump\t// in\n    tag_359:\n        /* \"#utility.yul\":8934:9069   */\n      swap3\n      swap2\n      pop\n      pop\n      jump\t// out\n        /* \"#utility.yul\":9075:9400   */\n    tag_36:\n        /* \"#utility.yul\":9132:9138   */\n      0x00\n        /* \"#utility.yul\":9181:9183   */\n      0x20\n        /* \"#utility.yul\":9169:9178   */\n      dup3\n        /* \"#utility.yul\":9160:9167   */\n      dup5\n        /* \"#utility.yul\":9156:9179   */\n      sub\n        /* \"#utility.yul\":9152:9184   */\n      slt\n        /* \"#utility.yul\":9149:9268   */\n      iszero\n      tag_361\n      jumpi\n        /* \"#utility.yul\":9187:9266   */\n      tag_362\n      tag_194\n      jump\t// in\n    tag_362:\n        /* \"#utility.yul\":9149:9268   */\n    tag_361:\n        /* \"#utility.yul\":9307:9308   */\n      0x00\n        /* \"#utility.yul\":9332:9383   */\n      tag_363\n        /* \"#utility.yul\":9375:9382   */\n      dup5\n        /* \"#utility.yul\":9366:9372   */\n      dup3\n        /* \"#utility.yul\":9355:9364   */\n      dup6\n        /* \"#utility.yul\":9351:9373   */\n      add\n        /* \"#utility.yul\":9332:9383   */\n      tag_223\n      jump\t// in\n    tag_363:\n        /* \"#utility.yul\":9322:9383   */\n      swap2\n      pop\n        /* \"#utility.yul\":9278:9393   */\n      pop\n        /* \"#utility.yul\":9075:9400   */\n      swap3\n      swap2\n      pop\n      pop\n      jump\t// out\n        /* \"#utility.yul\":9406:9549   */\n    tag_224:\n        /* \"#utility.yul\":9463:9468   */\n      0x00\n        /* \"#utility.yul\":9494:9500   */\n      dup2\n        /* \"#utility.yul\":9488:9501   */\n      mload\n        /* \"#utility.yul\":9479:9501   */\n      swap1\n      pop\n        /* \"#utility.yul\":9510:9543   */\n      tag_365\n        /* \"#utility.yul\":9537:9542   */\n      dup2\n        /* \"#utility.yul\":9510:9543   */\n      tag_208\n      jump\t// in\n    tag_365:\n        /* \"#utility.yul\":9406:9549   */\n      swap3\n      swap2\n      pop\n      pop\n      jump\t// out\n        /* \"#utility.yul\":9555:9906   */\n    tag_47:\n        /* \"#utility.yul\":9625:9631   */\n      0x00\n        /* \"#utility.yul\":9674:9676   */\n      0x20\n        /* \"#utility.yul\":9662:9671   */\n      dup3\n        /* \"#utility.yul\":9653:9660   */\n      dup5\n        /* \"#utility.yul\":9649:9672   */\n      sub\n        /* \"#utility.yul\":9645:9677   */\n      slt\n        /* \"#utility.yul\":9642:9761   */\n      iszero\n      tag_367\n      jumpi\n        /* \"#utility.yul\":9680:9759   */\n      tag_368\n      tag_194\n      jump\t// in\n    tag_368:\n        /* \"#utility.yul\":9642:9761   */\n    tag_367:\n        /* \"#utility.yul\":9800:9801   */\n      0x00\n        /* \"#utility.yul\":9825:9889   */\n      tag_369\n        /* \"#utility.yul\":9881:9888   */\n      dup5\n        /* \"#utility.yul\":9872:9878   */\n      dup3\n        /* \"#utility.yul\":9861:9870   */\n      dup6\n        /* \"#utility.yul\":9857:9879   */\n      add\n        /* \"#utility.yul\":9825:9889   */\n      tag_224\n      jump\t// in\n    tag_369:\n        /* \"#utility.yul\":9815:9889   */\n      swap2\n      pop\n        /* \"#utility.yul\":9771:9899   */\n      pop\n        /* \"#utility.yul\":9555:9906   */\n      swap3\n      swap2\n      pop\n      pop\n      jump\t// out\n        /* \"#utility.yul\":9912:10020   */\n    tag_225:\n        /* \"#utility.yul\":9989:10013   */\n      tag_371\n        /* \"#utility.yul\":10007:10012   */\n      dup2\n        /* \"#utility.yul\":9989:10013   */\n      tag_207\n      jump\t// in\n    tag_371:\n        /* \"#utility.yul\":9984:9987   */\n      dup3\n        /* \"#utility.yul\":9977:10014   */\n      mstore\n        /* \"#utility.yul\":9912:10020   */\n      pop\n      pop\n      jump\t// out\n        /* \"#utility.yul\":10088:10784   */\n    tag_226:\n        /* \"#utility.yul\":10245:10249   */\n      0x60\n        /* \"#utility.yul\":10240:10243   */\n      dup3\n        /* \"#utility.yul\":10236:10250   */\n      add\n        /* \"#utility.yul\":10334:10338   */\n      0x00\n        /* \"#utility.yul\":10327:10332   */\n      dup3\n        /* \"#utility.yul\":10323:10339   */\n      add\n        /* \"#utility.yul\":10317:10340   */\n      mload\n        /* \"#utility.yul\":10353:10416   */\n      tag_373\n        /* \"#utility.yul\":10410:10414   */\n      0x00\n        /* \"#utility.yul\":10405:10408   */\n      dup6\n        /* \"#utility.yul\":10401:10415   */\n      add\n        /* \"#utility.yul\":10387:10399   */\n      dup3\n        /* \"#utility.yul\":10353:10416   */\n      tag_225\n      jump\t// in\n    tag_373:\n        /* \"#utility.yul\":10260:10426   */\n      pop\n        /* \"#utility.yul\":10510:10514   */\n      0x20\n        /* \"#utility.yul\":10503:10508   */\n      dup3\n        /* \"#utility.yul\":10499:10515   */\n      add\n        /* \"#utility.yul\":10493:10516   */\n      mload\n        /* \"#utility.yul\":10529:10592   */\n      tag_374\n        /* \"#utility.yul\":10586:10590   */\n      0x20\n        /* \"#utility.yul\":10581:10584   */\n      dup6\n        /* \"#utility.yul\":10577:10591   */\n      add\n        /* \"#utility.yul\":10563:10575   */\n      dup3\n        /* \"#utility.yul\":10529:10592   */\n      tag_225\n      jump\t// in\n    tag_374:\n        /* \"#utility.yul\":10436:10602   */\n      pop\n        /* \"#utility.yul\":10685:10689   */\n      0x40\n        /* \"#utility.yul\":10678:10683   */\n      dup3\n        /* \"#utility.yul\":10674:10690   */\n      add\n        /* \"#utility.yul\":10668:10691   */\n      mload\n        /* \"#utility.yul\":10704:10767   */\n      tag_375\n        /* \"#utility.yul\":10761:10765   */\n      0x40\n        /* \"#utility.yul\":10756:10759   */\n      dup6\n        /* \"#utility.yul\":10752:10766   */\n      add\n        /* \"#utility.yul\":10738:10750   */\n      dup3\n        /* \"#utility.yul\":10704:10767   */\n      tag_225\n      jump\t// in\n    tag_375:\n        /* \"#utility.yul\":10612:10777   */\n      pop\n        /* \"#utility.yul\":10214:10784   */\n      pop\n        /* \"#utility.yul\":10088:10784   */\n      pop\n      pop\n      jump\t// out\n        /* \"#utility.yul\":10790:11132   */\n    tag_52:\n        /* \"#utility.yul\":10943:10947   */\n      0x00\n        /* \"#utility.yul\":10981:10983   */\n      0x60\n        /* \"#utility.yul\":10970:10979   */\n      dup3\n        /* \"#utility.yul\":10966:10984   */\n      add\n        /* \"#utility.yul\":10958:10984   */\n      swap1\n      pop\n        /* \"#utility.yul\":10994:11125   */\n      tag_377\n        /* \"#utility.yul\":11122:11123   */\n      0x00\n        /* \"#utility.yul\":11111:11120   */\n      dup4\n        /* \"#utility.yul\":11107:11124   */\n      add\n        /* \"#utility.yul\":11098:11104   */\n      dup5\n        /* \"#utility.yul\":10994:11125   */\n      tag_226\n      jump\t// in\n    tag_377:\n        /* \"#utility.yul\":10790:11132   */\n      swap3\n      swap2\n      pop\n      pop\n      jump\t// out\n        /* \"#utility.yul\":11138:11256   */\n    tag_227:\n        /* \"#utility.yul\":11225:11249   */\n      tag_379\n        /* \"#utility.yul\":11243:11248   */\n      dup2\n        /* \"#utility.yul\":11225:11249   */\n      tag_207\n      jump\t// in\n    tag_379:\n        /* \"#utility.yul\":11220:11223   */\n      dup3\n        /* \"#utility.yul\":11213:11250   */\n      mstore\n        /* \"#utility.yul\":11138:11256   */\n      pop\n      pop\n      jump\t// out\n        /* \"#utility.yul\":11262:11374   */\n    tag_228:\n        /* \"#utility.yul\":11345:11367   */\n      tag_381\n        /* \"#utility.yul\":11361:11366   */\n      dup2\n        /* \"#utility.yul\":11345:11367   */\n      tag_220\n      jump\t// in\n    tag_381:\n        /* \"#utility.yul\":11340:11343   */\n      dup3\n        /* \"#utility.yul\":11333:11368   */\n      mstore\n        /* \"#utility.yul\":11262:11374   */\n      pop\n      pop\n      jump\t// out\n        /* \"#utility.yul\":11380:11498   */\n    tag_229:\n        /* \"#utility.yul\":11417:11424   */\n      0x00\n        /* \"#utility.yul\":11457:11491   */\n      0xffffffffffffffffffffffffffffffff\n        /* \"#utility.yul\":11450:11455   */\n      dup3\n        /* \"#utility.yul\":11446:11492   */\n      and\n        /* \"#utility.yul\":11435:11492   */\n      swap1\n      pop\n        /* \"#utility.yul\":11380:11498   */\n      swap2\n      swap1\n      pop\n      jump\t// out\n        /* \"#utility.yul\":11504:11622   */\n    tag_230:\n        /* \"#utility.yul\":11591:11615   */\n      tag_384\n        /* \"#utility.yul\":11609:11614   */\n      dup2\n        /* \"#utility.yul\":11591:11615   */\n      tag_229\n      jump\t// in\n    tag_384:\n        /* \"#utility.yul\":11586:11589   */\n      dup3\n        /* \"#utility.yul\":11579:11616   */\n      mstore\n        /* \"#utility.yul\":11504:11622   */\n      pop\n      pop\n      jump\t// out\n        /* \"#utility.yul\":11628:11726   */\n    tag_231:\n        /* \"#utility.yul\":11679:11685   */\n      0x00\n        /* \"#utility.yul\":11713:11718   */\n      dup2\n        /* \"#utility.yul\":11707:11719   */\n      mload\n        /* \"#utility.yul\":11697:11719   */\n      swap1\n      pop\n        /* \"#utility.yul\":11628:11726   */\n      swap2\n      swap1\n      pop\n      jump\t// out\n        /* \"#utility.yul\":11732:11900   */\n    tag_232:\n        /* \"#utility.yul\":11815:11826   */\n      0x00\n        /* \"#utility.yul\":11849:11855   */\n      dup3\n        /* \"#utility.yul\":11844:11847   */\n      dup3\n        /* \"#utility.yul\":11837:11856   */\n      mstore\n        /* \"#utility.yul\":11889:11893   */\n      0x20\n        /* \"#utility.yul\":11884:11887   */\n      dup3\n        /* \"#utility.yul\":11880:11894   */\n      add\n        /* \"#utility.yul\":11865:11894   */\n      swap1\n      pop\n        /* \"#utility.yul\":11732:11900   */\n      swap3\n      swap2\n      pop\n      pop\n      jump\t// out\n        /* \"#utility.yul\":11906:12152   */\n    tag_233:\n        /* \"#utility.yul\":11987:11988   */\n      0x00\n        /* \"#utility.yul\":11997:12110   */\n    tag_388:\n        /* \"#utility.yul\":12011:12017   */\n      dup4\n        /* \"#utility.yul\":12008:12009   */\n      dup2\n        /* \"#utility.yul\":12005:12018   */\n      lt\n        /* \"#utility.yul\":11997:12110   */\n      iszero\n      tag_390\n      jumpi\n        /* \"#utility.yul\":12096:12097   */\n      dup1\n        /* \"#utility.yul\":12091:12094   */\n      dup3\n        /* \"#utility.yul\":12087:12098   */\n      add\n        /* \"#utility.yul\":12081:12099   */\n      mload\n        /* \"#utility.yul\":12077:12078   */\n      dup2\n        /* \"#utility.yul\":12072:12075   */\n      dup5\n        /* \"#utility.yul\":12068:12079   */\n      add\n        /* \"#utility.yul\":12061:12100   */\n      mstore\n        /* \"#utility.yul\":12033:12035   */\n      0x20\n        /* \"#utility.yul\":12030:12031   */\n      dup2\n        /* \"#utility.yul\":12026:12036   */\n      add\n        /* \"#utility.yul\":12021:12036   */\n      swap1\n      pop\n        /* \"#utility.yul\":11997:12110   */\n      jump(tag_388)\n    tag_390:\n        /* \"#utility.yul\":12144:12145   */\n      0x00\n        /* \"#utility.yul\":12135:12141   */\n      dup5\n        /* \"#utility.yul\":12130:12133   */\n      dup5\n        /* \"#utility.yul\":12126:12142   */\n      add\n        /* \"#utility.yul\":12119:12146   */\n      mstore\n        /* \"#utility.yul\":11968:12152   */\n      pop\n        /* \"#utility.yul\":11906:12152   */\n      pop\n      pop\n      pop\n      jump\t// out\n        /* \"#utility.yul\":12158:12260   */\n    tag_234:\n        /* \"#utility.yul\":12199:12205   */\n      0x00\n        /* \"#utility.yul\":12250:12252   */\n      0x1f\n        /* \"#utility.yul\":12246:12253   */\n      not\n        /* \"#utility.yul\":12241:12243   */\n      0x1f\n        /* \"#utility.yul\":12234:12239   */\n      dup4\n        /* \"#utility.yul\":12230:12244   */\n      add\n        /* \"#utility.yul\":12226:12254   */\n      and\n        /* \"#utility.yul\":12216:12254   */\n      swap1\n      pop\n        /* \"#utility.yul\":12158:12260   */\n      swap2\n      swap1\n      pop\n      jump\t// out\n        /* \"#utility.yul\":12266:12639   */\n    tag_235:\n        /* \"#utility.yul\":12352:12355   */\n      0x00\n        /* \"#utility.yul\":12380:12418   */\n      tag_393\n        /* \"#utility.yul\":12412:12417   */\n      dup3\n        /* \"#utility.yul\":12380:12418   */\n      tag_231\n      jump\t// in\n    tag_393:\n        /* \"#utility.yul\":12434:12504   */\n      tag_394\n        /* \"#utility.yul\":12497:12503   */\n      dup2\n        /* \"#utility.yul\":12492:12495   */\n      dup6\n        /* \"#utility.yul\":12434:12504   */\n      tag_232\n      jump\t// in\n    tag_394:\n        /* \"#utility.yul\":12427:12504   */\n      swap4\n      pop\n        /* \"#utility.yul\":12513:12578   */\n      tag_395\n        /* \"#utility.yul\":12571:12577   */\n      dup2\n        /* \"#utility.yul\":12566:12569   */\n      dup6\n        /* \"#utility.yul\":12559:12563   */\n      0x20\n        /* \"#utility.yul\":12552:12557   */\n      dup7\n        /* \"#utility.yul\":12548:12564   */\n      add\n        /* \"#utility.yul\":12513:12578   */\n      tag_233\n      jump\t// in\n    tag_395:\n        /* \"#utility.yul\":12603:12632   */\n      tag_396\n        /* \"#utility.yul\":12625:12631   */\n      dup2\n        /* \"#utility.yul\":12603:12632   */\n      tag_234\n      jump\t// in\n    tag_396:\n        /* \"#utility.yul\":12598:12601   */\n      dup5\n        /* \"#utility.yul\":12594:12633   */\n      add\n        /* \"#utility.yul\":12587:12633   */\n      swap2\n      pop\n        /* \"#utility.yul\":12356:12639   */\n      pop\n        /* \"#utility.yul\":12266:12639   */\n      swap3\n      swap2\n      pop\n      pop\n      jump\t// out\n        /* \"#utility.yul\":12645:13380   */\n    tag_54:\n        /* \"#utility.yul\":12860:12864   */\n      0x00\n        /* \"#utility.yul\":12898:12901   */\n      0xa0\n        /* \"#utility.yul\":12887:12896   */\n      dup3\n        /* \"#utility.yul\":12883:12902   */\n      add\n        /* \"#utility.yul\":12875:12902   */\n      swap1\n      pop\n        /* \"#utility.yul\":12912:12983   */\n      tag_398\n        /* \"#utility.yul\":12980:12981   */\n      0x00\n        /* \"#utility.yul\":12969:12978   */\n      dup4\n        /* \"#utility.yul\":12965:12982   */\n      add\n        /* \"#utility.yul\":12956:12962   */\n      dup9\n        /* \"#utility.yul\":12912:12983   */\n      tag_227\n      jump\t// in\n    tag_398:\n        /* \"#utility.yul\":12993:13061   */\n      tag_399\n        /* \"#utility.yul\":13057:13059   */\n      0x20\n        /* \"#utility.yul\":13046:13055   */\n      dup4\n        /* \"#utility.yul\":13042:13060   */\n      add\n        /* \"#utility.yul\":13033:13039   */\n      dup8\n        /* \"#utility.yul\":12993:13061   */\n      tag_228\n      jump\t// in\n    tag_399:\n        /* \"#utility.yul\":13071:13139   */\n      tag_400\n        /* \"#utility.yul\":13135:13137   */\n      0x40\n        /* \"#utility.yul\":13124:13133   */\n      dup4\n        /* \"#utility.yul\":13120:13138   */\n      add\n        /* \"#utility.yul\":13111:13117   */\n      dup7\n        /* \"#utility.yul\":13071:13139   */\n      tag_228\n      jump\t// in\n    tag_400:\n        /* \"#utility.yul\":13149:13221   */\n      tag_401\n        /* \"#utility.yul\":13217:13219   */\n      0x60\n        /* \"#utility.yul\":13206:13215   */\n      dup4\n        /* \"#utility.yul\":13202:13220   */\n      add\n        /* \"#utility.yul\":13193:13199   */\n      dup6\n        /* \"#utility.yul\":13149:13221   */\n      tag_230\n      jump\t// in\n    tag_401:\n        /* \"#utility.yul\":13269:13278   */\n      dup2\n        /* \"#utility.yul\":13263:13267   */\n      dup2\n        /* \"#utility.yul\":13259:13279   */\n      sub\n        /* \"#utility.yul\":13253:13256   */\n      0x80\n        /* \"#utility.yul\":13242:13251   */\n      dup4\n        /* \"#utility.yul\":13238:13257   */\n      add\n        /* \"#utility.yul\":13231:13280   */\n      mstore\n        /* \"#utility.yul\":13297:13373   */\n      tag_402\n        /* \"#utility.yul\":13368:13372   */\n      dup2\n        /* \"#utility.yul\":13359:13365   */\n      dup5\n        /* \"#utility.yul\":13297:13373   */\n      tag_235\n      jump\t// in\n    tag_402:\n        /* \"#utility.yul\":13289:13373   */\n      swap1\n      pop\n        /* \"#utility.yul\":12645:13380   */\n      swap7\n      swap6\n      pop\n      pop\n      pop\n      pop\n      pop\n      pop\n      jump\t// out\n        /* \"#utility.yul\":13386:13529   */\n    tag_236:\n        /* \"#utility.yul\":13443:13448   */\n      0x00\n        /* \"#utility.yul\":13474:13480   */\n      dup2\n        /* \"#utility.yul\":13468:13481   */\n      mload\n        /* \"#utility.yul\":13459:13481   */\n      swap1\n      pop\n        /* \"#utility.yul\":13490:13523   */\n      tag_404\n        /* \"#utility.yul\":13517:13522   */\n      dup2\n        /* \"#utility.yul\":13490:13523   */\n      tag_200\n      jump\t// in\n    tag_404:\n        /* \"#utility.yul\":13386:13529   */\n      swap3\n      swap2\n      pop\n      pop\n      jump\t// out\n        /* \"#utility.yul\":13535:14042   */\n    tag_58:\n        /* \"#utility.yul\":13614:13620   */\n      0x00\n        /* \"#utility.yul\":13622:13628   */\n      dup1\n        /* \"#utility.yul\":13671:13673   */\n      0x40\n        /* \"#utility.yul\":13659:13668   */\n      dup4\n        /* \"#utility.yul\":13650:13657   */\n      dup6\n        /* \"#utility.yul\":13646:13669   */\n      sub\n        /* \"#utility.yul\":13642:13674   */\n      slt\n        /* \"#utility.yul\":13639:13758   */\n      iszero\n      tag_406\n      jumpi\n        /* \"#utility.yul\":13677:13756   */\n      tag_407\n      tag_194\n      jump\t// in\n    tag_407:\n        /* \"#utility.yul\":13639:13758   */\n    tag_406:\n        /* \"#utility.yul\":13797:13798   */\n      0x00\n        /* \"#utility.yul\":13822:13886   */\n      tag_408\n        /* \"#utility.yul\":13878:13885   */\n      dup6\n        /* \"#utility.yul\":13869:13875   */\n      dup3\n        /* \"#utility.yul\":13858:13867   */\n      dup7\n        /* \"#utility.yul\":13854:13876   */\n      add\n        /* \"#utility.yul\":13822:13886   */\n      tag_236\n      jump\t// in\n    tag_408:\n        /* \"#utility.yul\":13812:13886   */\n      swap3\n      pop\n        /* \"#utility.yul\":13768:13896   */\n      pop\n        /* \"#utility.yul\":13935:13937   */\n      0x20\n        /* \"#utility.yul\":13961:14025   */\n      tag_409\n        /* \"#utility.yul\":14017:14024   */\n      dup6\n        /* \"#utility.yul\":14008:14014   */\n      dup3\n        /* \"#utility.yul\":13997:14006   */\n      dup7\n        /* \"#utility.yul\":13993:14015   */\n      add\n        /* \"#utility.yul\":13961:14025   */\n      tag_236\n      jump\t// in\n    tag_409:\n        /* \"#utility.yul\":13951:14025   */\n      swap2\n      pop\n        /* \"#utility.yul\":13906:14035   */\n      pop\n        /* \"#utility.yul\":13535:14042   */\n      swap3\n      pop\n      swap3\n      swap1\n      pop\n      jump\t// out\n        /* \"#utility.yul\":14048:14165   */\n    tag_237:\n        /* \"#utility.yul\":14157:14158   */\n      0x00\n        /* \"#utility.yul\":14154:14155   */\n      dup1\n        /* \"#utility.yul\":14147:14159   */\n      revert\n        /* \"#utility.yul\":14171:14351   */\n    tag_238:\n        /* \"#utility.yul\":14219:14296   */\n      0x4e487b7100000000000000000000000000000000000000000000000000000000\n        /* \"#utility.yul\":14216:14217   */\n      0x00\n        /* \"#utility.yul\":14209:14297   */\n      mstore\n        /* \"#utility.yul\":14316:14320   */\n      0x41\n        /* \"#utility.yul\":14313:14314   */\n      0x04\n        /* \"#utility.yul\":14306:14321   */\n      mstore\n        /* \"#utility.yul\":14340:14344   */\n      0x24\n        /* \"#utility.yul\":14337:14338   */\n      0x00\n        /* \"#utility.yul\":14330:14345   */\n      revert\n        /* \"#utility.yul\":14357:14638   */\n    tag_239:\n        /* \"#utility.yul\":14440:14467   */\n      tag_413\n        /* \"#utility.yul\":14462:14466   */\n      dup3\n        /* \"#utility.yul\":14440:14467   */\n      tag_234\n      jump\t// in\n    tag_413:\n        /* \"#utility.yul\":14432:14438   */\n      dup2\n        /* \"#utility.yul\":14428:14468   */\n      add\n        /* \"#utility.yul\":14570:14576   */\n      dup2\n        /* \"#utility.yul\":14558:14568   */\n      dup2\n        /* \"#utility.yul\":14555:14577   */\n      lt\n        /* \"#utility.yul\":14534:14552   */\n      0xffffffffffffffff\n        /* \"#utility.yul\":14522:14532   */\n      dup3\n        /* \"#utility.yul\":14519:14553   */\n      gt\n        /* \"#utility.yul\":14516:14578   */\n      or\n        /* \"#utility.yul\":14513:14601   */\n      iszero\n      tag_414\n      jumpi\n        /* \"#utility.yul\":14581:14599   */\n      tag_415\n      tag_238\n      jump\t// in\n    tag_415:\n        /* \"#utility.yul\":14513:14601   */\n    tag_414:\n        /* \"#utility.yul\":14621:14631   */\n      dup1\n        /* \"#utility.yul\":14617:14619   */\n      0x40\n        /* \"#utility.yul\":14610:14632   */\n      mstore\n        /* \"#utility.yul\":14400:14638   */\n      pop\n        /* \"#utility.yul\":14357:14638   */\n      pop\n      pop\n      jump\t// out\n        /* \"#utility.yul\":14644:14773   */\n    tag_240:\n        /* \"#utility.yul\":14678:14684   */\n      0x00\n        /* \"#utility.yul\":14705:14725   */\n      tag_417\n      tag_193\n      jump\t// in\n    tag_417:\n        /* \"#utility.yul\":14695:14725   */\n      swap1\n      pop\n        /* \"#utility.yul\":14734:14767   */\n      tag_418\n        /* \"#utility.yul\":14762:14766   */\n      dup3\n        /* \"#utility.yul\":14754:14760   */\n      dup3\n        /* \"#utility.yul\":14734:14767   */\n      tag_239\n      jump\t// in\n    tag_418:\n        /* \"#utility.yul\":14644:14773   */\n      swap2\n      swap1\n      pop\n      jump\t// out\n        /* \"#utility.yul\":14935:15680   */\n    tag_242:\n        /* \"#utility.yul\":15014:15019   */\n      0x00\n        /* \"#utility.yul\":15058:15062   */\n      0x60\n        /* \"#utility.yul\":15046:15055   */\n      dup3\n        /* \"#utility.yul\":15041:15044   */\n      dup5\n        /* \"#utility.yul\":15037:15056   */\n      sub\n        /* \"#utility.yul\":15033:15063   */\n      slt\n        /* \"#utility.yul\":15030:15147   */\n      iszero\n      tag_421\n      jumpi\n        /* \"#utility.yul\":15066:15145   */\n      tag_422\n      tag_237\n      jump\t// in\n    tag_422:\n        /* \"#utility.yul\":15030:15147   */\n    tag_421:\n        /* \"#utility.yul\":15165:15186   */\n      tag_423\n        /* \"#utility.yul\":15181:15185   */\n      0x60\n        /* \"#utility.yul\":15165:15186   */\n      tag_240\n      jump\t// in\n    tag_423:\n        /* \"#utility.yul\":15156:15186   */\n      swap1\n      pop\n        /* \"#utility.yul\":15247:15248   */\n      0x00\n        /* \"#utility.yul\":15287:15336   */\n      tag_424\n        /* \"#utility.yul\":15332:15335   */\n      dup5\n        /* \"#utility.yul\":15323:15329   */\n      dup3\n        /* \"#utility.yul\":15312:15321   */\n      dup6\n        /* \"#utility.yul\":15308:15330   */\n      add\n        /* \"#utility.yul\":15287:15336   */\n      tag_209\n      jump\t// in\n    tag_424:\n        /* \"#utility.yul\":15280:15284   */\n      0x00\n        /* \"#utility.yul\":15273:15278   */\n      dup4\n        /* \"#utility.yul\":15269:15285   */\n      add\n        /* \"#utility.yul\":15262:15337   */\n      mstore\n        /* \"#utility.yul\":15196:15348   */\n      pop\n        /* \"#utility.yul\":15409:15411   */\n      0x20\n        /* \"#utility.yul\":15450:15499   */\n      tag_425\n        /* \"#utility.yul\":15495:15498   */\n      dup5\n        /* \"#utility.yul\":15486:15492   */\n      dup3\n        /* \"#utility.yul\":15475:15484   */\n      dup6\n        /* \"#utility.yul\":15471:15493   */\n      add\n        /* \"#utility.yul\":15450:15499   */\n      tag_209\n      jump\t// in\n    tag_425:\n        /* \"#utility.yul\":15443:15447   */\n      0x20\n        /* \"#utility.yul\":15436:15441   */\n      dup4\n        /* \"#utility.yul\":15432:15448   */\n      add\n        /* \"#utility.yul\":15425:15500   */\n      mstore\n        /* \"#utility.yul\":15358:15511   */\n      pop\n        /* \"#utility.yul\":15571:15573   */\n      0x40\n        /* \"#utility.yul\":15612:15661   */\n      tag_426\n        /* \"#utility.yul\":15657:15660   */\n      dup5\n        /* \"#utility.yul\":15648:15654   */\n      dup3\n        /* \"#utility.yul\":15637:15646   */\n      dup6\n        /* \"#utility.yul\":15633:15655   */\n      add\n        /* \"#utility.yul\":15612:15661   */\n      tag_209\n      jump\t// in\n    tag_426:\n        /* \"#utility.yul\":15605:15609   */\n      0x40\n        /* \"#utility.yul\":15598:15603   */\n      dup4\n        /* \"#utility.yul\":15594:15610   */\n      add\n        /* \"#utility.yul\":15587:15662   */\n      mstore\n        /* \"#utility.yul\":15521:15673   */\n      pop\n        /* \"#utility.yul\":14935:15680   */\n      swap3\n      swap2\n      pop\n      pop\n      jump\t// out\n        /* \"#utility.yul\":15686:16075   */\n    tag_64:\n        /* \"#utility.yul\":15775:15781   */\n      0x00\n        /* \"#utility.yul\":15824:15826   */\n      0x60\n        /* \"#utility.yul\":15812:15821   */\n      dup3\n        /* \"#utility.yul\":15803:15810   */\n      dup5\n        /* \"#utility.yul\":15799:15822   */\n      sub\n        /* \"#utility.yul\":15795:15827   */\n      slt\n        /* \"#utility.yul\":15792:15911   */\n      iszero\n      tag_428\n      jumpi\n        /* \"#utility.yul\":15830:15909   */\n      tag_429\n      tag_194\n      jump\t// in\n    tag_429:\n        /* \"#utility.yul\":15792:15911   */\n    tag_428:\n        /* \"#utility.yul\":15950:15951   */\n      0x00\n        /* \"#utility.yul\":15975:16058   */\n      tag_430\n        /* \"#utility.yul\":16050:16057   */\n      dup5\n        /* \"#utility.yul\":16041:16047   */\n      dup3\n        /* \"#utility.yul\":16030:16039   */\n      dup6\n        /* \"#utility.yul\":16026:16048   */\n      add\n        /* \"#utility.yul\":15975:16058   */\n      tag_242\n      jump\t// in\n    tag_430:\n        /* \"#utility.yul\":15965:16058   */\n      swap2\n      pop\n        /* \"#utility.yul\":15921:16068   */\n      pop\n        /* \"#utility.yul\":15686:16075   */\n      swap3\n      swap2\n      pop\n      pop\n      jump\t// out\n        /* \"#utility.yul\":16081:16523   */\n    tag_66:\n        /* \"#utility.yul\":16230:16234   */\n      0x00\n        /* \"#utility.yul\":16268:16270   */\n      0x60\n        /* \"#utility.yul\":16257:16266   */\n      dup3\n        /* \"#utility.yul\":16253:16271   */\n      add\n        /* \"#utility.yul\":16245:16271   */\n      swap1\n      pop\n        /* \"#utility.yul\":16281:16352   */\n      tag_432\n        /* \"#utility.yul\":16349:16350   */\n      0x00\n        /* \"#utility.yul\":16338:16347   */\n      dup4\n        /* \"#utility.yul\":16334:16351   */\n      add\n        /* \"#utility.yul\":16325:16331   */\n      dup7\n        /* \"#utility.yul\":16281:16352   */\n      tag_227\n      jump\t// in\n    tag_432:\n        /* \"#utility.yul\":16362:16434   */\n      tag_433\n        /* \"#utility.yul\":16430:16432   */\n      0x20\n        /* \"#utility.yul\":16419:16428   */\n      dup4\n        /* \"#utility.yul\":16415:16433   */\n      add\n        /* \"#utility.yul\":16406:16412   */\n      dup6\n        /* \"#utility.yul\":16362:16434   */\n      tag_227\n      jump\t// in\n    tag_433:\n        /* \"#utility.yul\":16444:16516   */\n      tag_434\n        /* \"#utility.yul\":16512:16514   */\n      0x40\n        /* \"#utility.yul\":16501:16510   */\n      dup4\n        /* \"#utility.yul\":16497:16515   */\n      add\n        /* \"#utility.yul\":16488:16494   */\n      dup5\n        /* \"#utility.yul\":16444:16516   */\n      tag_199\n      jump\t// in\n    tag_434:\n        /* \"#utility.yul\":16081:16523   */\n      swap5\n      swap4\n      pop\n      pop\n      pop\n      pop\n      jump\t// out\n        /* \"#utility.yul\":16529:16709   */\n    tag_243:\n        /* \"#utility.yul\":16577:16654   */\n      0x4e487b7100000000000000000000000000000000000000000000000000000000\n        /* \"#utility.yul\":16574:16575   */\n      0x00\n        /* \"#utility.yul\":16567:16655   */\n      mstore\n        /* \"#utility.yul\":16674:16678   */\n      0x11\n        /* \"#utility.yul\":16671:16672   */\n      0x04\n        /* \"#utility.yul\":16664:16679   */\n      mstore\n        /* \"#utility.yul\":16698:16702   */\n      0x24\n        /* \"#utility.yul\":16695:16696   */\n      0x00\n        /* \"#utility.yul\":16688:16703   */\n      revert\n        /* \"#utility.yul\":16715:16950   */\n    tag_79:\n        /* \"#utility.yul\":16755:16759   */\n      0x00\n        /* \"#utility.yul\":16775:16795   */\n      tag_437\n        /* \"#utility.yul\":16793:16794   */\n      dup3\n        /* \"#utility.yul\":16775:16795   */\n      tag_206\n      jump\t// in\n    tag_437:\n        /* \"#utility.yul\":16770:16795   */\n      swap2\n      pop\n        /* \"#utility.yul\":16809:16829   */\n      tag_438\n        /* \"#utility.yul\":16827:16828   */\n      dup4\n        /* \"#utility.yul\":16809:16829   */\n      tag_206\n      jump\t// in\n    tag_438:\n        /* \"#utility.yul\":16804:16829   */\n      swap3\n      pop\n        /* \"#utility.yul\":16853:16854   */\n      dup3\n        /* \"#utility.yul\":16850:16851   */\n      dup3\n        /* \"#utility.yul\":16846:16855   */\n      sub\n        /* \"#utility.yul\":16838:16855   */\n      swap1\n      pop\n        /* \"#utility.yul\":16877:16919   */\n      0xffffffffffffffffffffffffffffffffffffffff\n        /* \"#utility.yul\":16871:16875   */\n      dup2\n        /* \"#utility.yul\":16868:16920   */\n      gt\n        /* \"#utility.yul\":16865:16943   */\n      iszero\n      tag_439\n      jumpi\n        /* \"#utility.yul\":16923:16941   */\n      tag_440\n      tag_243\n      jump\t// in\n    tag_440:\n        /* \"#utility.yul\":16865:16943   */\n    tag_439:\n        /* \"#utility.yul\":16715:16950   */\n      swap3\n      swap2\n      pop\n      pop\n      jump\t// out\n        /* \"#utility.yul\":16956:17188   */\n    tag_82:\n        /* \"#utility.yul\":16996:16999   */\n      0x00\n        /* \"#utility.yul\":17015:17035   */\n      tag_442\n        /* \"#utility.yul\":17033:17034   */\n      dup3\n        /* \"#utility.yul\":17015:17035   */\n      tag_206\n      jump\t// in\n    tag_442:\n        /* \"#utility.yul\":17010:17035   */\n      swap2\n      pop\n        /* \"#utility.yul\":17049:17069   */\n      tag_443\n        /* \"#utility.yul\":17067:17068   */\n      dup4\n        /* \"#utility.yul\":17049:17069   */\n      tag_206\n      jump\t// in\n    tag_443:\n        /* \"#utility.yul\":17044:17069   */\n      swap3\n      pop\n        /* \"#utility.yul\":17092:17093   */\n      dup3\n        /* \"#utility.yul\":17089:17090   */\n      dup3\n        /* \"#utility.yul\":17085:17094   */\n      add\n        /* \"#utility.yul\":17078:17094   */\n      swap1\n      pop\n        /* \"#utility.yul\":17115:17157   */\n      0xffffffffffffffffffffffffffffffffffffffff\n        /* \"#utility.yul\":17110:17113   */\n      dup2\n        /* \"#utility.yul\":17107:17158   */\n      gt\n        /* \"#utility.yul\":17104:17181   */\n      iszero\n      tag_444\n      jumpi\n        /* \"#utility.yul\":17161:17179   */\n      tag_445\n      tag_243\n      jump\t// in\n    tag_445:\n        /* \"#utility.yul\":17104:17181   */\n    tag_444:\n        /* \"#utility.yul\":16956:17188   */\n      swap3\n      swap2\n      pop\n      pop\n      jump\t// out\n        /* \"#utility.yul\":17194:17303   */\n    tag_244:\n        /* \"#utility.yul\":17275:17296   */\n      tag_447\n        /* \"#utility.yul\":17290:17295   */\n      dup2\n        /* \"#utility.yul\":17275:17296   */\n      tag_210\n      jump\t// in\n    tag_447:\n        /* \"#utility.yul\":17270:17273   */\n      dup3\n        /* \"#utility.yul\":17263:17297   */\n      mstore\n        /* \"#utility.yul\":17194:17303   */\n      pop\n      pop\n      jump\t// out\n        /* \"#utility.yul\":17309:17427   */\n    tag_245:\n        /* \"#utility.yul\":17396:17420   */\n      tag_449\n        /* \"#utility.yul\":17414:17419   */\n      dup2\n        /* \"#utility.yul\":17396:17420   */\n      tag_206\n      jump\t// in\n    tag_449:\n        /* \"#utility.yul\":17391:17394   */\n      dup3\n        /* \"#utility.yul\":17384:17421   */\n      mstore\n        /* \"#utility.yul\":17309:17427   */\n      pop\n      pop\n      jump\t// out\n        /* \"#utility.yul\":17433:17579   */\n    tag_246:\n        /* \"#utility.yul\":17530:17536   */\n      dup3\n        /* \"#utility.yul\":17525:17528   */\n      dup2\n        /* \"#utility.yul\":17520:17523   */\n      dup4\n        /* \"#utility.yul\":17507:17537   */\n      calldatacopy\n        /* \"#utility.yul\":17571:17572   */\n      0x00\n        /* \"#utility.yul\":17562:17568   */\n      dup4\n        /* \"#utility.yul\":17557:17560   */\n      dup4\n        /* \"#utility.yul\":17553:17569   */\n      add\n        /* \"#utility.yul\":17546:17573   */\n      mstore\n        /* \"#utility.yul\":17433:17579   */\n      pop\n      pop\n      pop\n      jump\t// out\n        /* \"#utility.yul\":17607:17921   */\n    tag_247:\n        /* \"#utility.yul\":17703:17706   */\n      0x00\n        /* \"#utility.yul\":17724:17794   */\n      tag_452\n        /* \"#utility.yul\":17787:17793   */\n      dup4\n        /* \"#utility.yul\":17782:17785   */\n      dup6\n        /* \"#utility.yul\":17724:17794   */\n      tag_232\n      jump\t// in\n    tag_452:\n        /* \"#utility.yul\":17717:17794   */\n      swap4\n      pop\n        /* \"#utility.yul\":17804:17860   */\n      tag_453\n        /* \"#utility.yul\":17853:17859   */\n      dup4\n        /* \"#utility.yul\":17848:17851   */\n      dup6\n        /* \"#utility.yul\":17841:17846   */\n      dup5\n        /* \"#utility.yul\":17804:17860   */\n      tag_246\n      jump\t// in\n    tag_453:\n        /* \"#utility.yul\":17885:17914   */\n      tag_454\n        /* \"#utility.yul\":17907:17913   */\n      dup4\n        /* \"#utility.yul\":17885:17914   */\n      tag_234\n      jump\t// in\n    tag_454:\n        /* \"#utility.yul\":17880:17883   */\n      dup5\n        /* \"#utility.yul\":17876:17915   */\n      add\n        /* \"#utility.yul\":17869:17915   */\n      swap1\n      pop\n        /* \"#utility.yul\":17607:17921   */\n      swap4\n      swap3\n      pop\n      pop\n      pop\n      jump\t// out\n        /* \"#utility.yul\":17927:18686   */\n    tag_84:\n        /* \"#utility.yul\":18154:18158   */\n      0x00\n        /* \"#utility.yul\":18192:18195   */\n      0xa0\n        /* \"#utility.yul\":18181:18190   */\n      dup3\n        /* \"#utility.yul\":18177:18196   */\n      add\n        /* \"#utility.yul\":18169:18196   */\n      swap1\n      pop\n        /* \"#utility.yul\":18206:18277   */\n      tag_456\n        /* \"#utility.yul\":18274:18275   */\n      0x00\n        /* \"#utility.yul\":18263:18272   */\n      dup4\n        /* \"#utility.yul\":18259:18276   */\n      add\n        /* \"#utility.yul\":18250:18256   */\n      dup10\n        /* \"#utility.yul\":18206:18277   */\n      tag_227\n      jump\t// in\n    tag_456:\n        /* \"#utility.yul\":18287:18353   */\n      tag_457\n        /* \"#utility.yul\":18349:18351   */\n      0x20\n        /* \"#utility.yul\":18338:18347   */\n      dup4\n        /* \"#utility.yul\":18334:18352   */\n      add\n        /* \"#utility.yul\":18325:18331   */\n      dup9\n        /* \"#utility.yul\":18287:18353   */\n      tag_244\n      jump\t// in\n    tag_457:\n        /* \"#utility.yul\":18363:18435   */\n      tag_458\n        /* \"#utility.yul\":18431:18433   */\n      0x40\n        /* \"#utility.yul\":18420:18429   */\n      dup4\n        /* \"#utility.yul\":18416:18434   */\n      add\n        /* \"#utility.yul\":18407:18413   */\n      dup8\n        /* \"#utility.yul\":18363:18435   */\n      tag_199\n      jump\t// in\n    tag_458:\n        /* \"#utility.yul\":18445:18517   */\n      tag_459\n        /* \"#utility.yul\":18513:18515   */\n      0x60\n        /* \"#utility.yul\":18502:18511   */\n      dup4\n        /* \"#utility.yul\":18498:18516   */\n      add\n        /* \"#utility.yul\":18489:18495   */\n      dup7\n        /* \"#utility.yul\":18445:18517   */\n      tag_245\n      jump\t// in\n    tag_459:\n        /* \"#utility.yul\":18565:18574   */\n      dup2\n        /* \"#utility.yul\":18559:18563   */\n      dup2\n        /* \"#utility.yul\":18555:18575   */\n      sub\n        /* \"#utility.yul\":18549:18552   */\n      0x80\n        /* \"#utility.yul\":18538:18547   */\n      dup4\n        /* \"#utility.yul\":18534:18553   */\n      add\n        /* \"#utility.yul\":18527:18576   */\n      mstore\n        /* \"#utility.yul\":18593:18679   */\n      tag_460\n        /* \"#utility.yul\":18674:18678   */\n      dup2\n        /* \"#utility.yul\":18665:18671   */\n      dup5\n        /* \"#utility.yul\":18657:18663   */\n      dup7\n        /* \"#utility.yul\":18593:18679   */\n      tag_247\n      jump\t// in\n    tag_460:\n        /* \"#utility.yul\":18585:18679   */\n      swap1\n      pop\n        /* \"#utility.yul\":17927:18686   */\n      swap8\n      swap7\n      pop\n      pop\n      pop\n      pop\n      pop\n      pop\n      pop\n      jump\t// out\n        /* \"#utility.yul\":18692:18833   */\n    tag_248:\n        /* \"#utility.yul\":18748:18753   */\n      0x00\n        /* \"#utility.yul\":18779:18785   */\n      dup2\n        /* \"#utility.yul\":18773:18786   */\n      mload\n        /* \"#utility.yul\":18764:18786   */\n      swap1\n      pop\n        /* \"#utility.yul\":18795:18827   */\n      tag_462\n        /* \"#utility.yul\":18821:18826   */\n      dup2\n        /* \"#utility.yul\":18795:18827   */\n      tag_217\n      jump\t// in\n    tag_462:\n        /* \"#utility.yul\":18692:18833   */\n      swap3\n      swap2\n      pop\n      pop\n      jump\t// out\n        /* \"#utility.yul\":18839:19342   */\n    tag_88:\n        /* \"#utility.yul\":18916:18922   */\n      0x00\n        /* \"#utility.yul\":18924:18930   */\n      dup1\n        /* \"#utility.yul\":18973:18975   */\n      0x40\n        /* \"#utility.yul\":18961:18970   */\n      dup4\n        /* \"#utility.yul\":18952:18959   */\n      dup6\n        /* \"#utility.yul\":18948:18971   */\n      sub\n        /* \"#utility.yul\":18944:18976   */\n      slt\n        /* \"#utility.yul\":18941:19060   */\n      iszero\n      tag_464\n      jumpi\n        /* \"#utility.yul\":18979:19058   */\n      tag_465\n      tag_194\n      jump\t// in\n    tag_465:\n        /* \"#utility.yul\":18941:19060   */\n    tag_464:\n        /* \"#utility.yul\":19099:19100   */\n      0x00\n        /* \"#utility.yul\":19124:19187   */\n      tag_466\n        /* \"#utility.yul\":19179:19186   */\n      dup6\n        /* \"#utility.yul\":19170:19176   */\n      dup3\n        /* \"#utility.yul\":19159:19168   */\n      dup7\n        /* \"#utility.yul\":19155:19177   */\n      add\n        /* \"#utility.yul\":19124:19187   */\n      tag_248\n      jump\t// in\n    tag_466:\n        /* \"#utility.yul\":19114:19187   */\n      swap3\n      pop\n        /* \"#utility.yul\":19070:19197   */\n      pop\n        /* \"#utility.yul\":19236:19238   */\n      0x20\n        /* \"#utility.yul\":19262:19325   */\n      tag_467\n        /* \"#utility.yul\":19317:19324   */\n      dup6\n        /* \"#utility.yul\":19308:19314   */\n      dup3\n        /* \"#utility.yul\":19297:19306   */\n      dup7\n        /* \"#utility.yul\":19293:19315   */\n      add\n        /* \"#utility.yul\":19262:19325   */\n      tag_248\n      jump\t// in\n    tag_467:\n        /* \"#utility.yul\":19252:19325   */\n      swap2\n      pop\n        /* \"#utility.yul\":19207:19335   */\n      pop\n        /* \"#utility.yul\":18839:19342   */\n      swap3\n      pop\n      swap3\n      swap1\n      pop\n      jump\t// out\n        /* \"#utility.yul\":19348:19576   */\n    tag_105:\n        /* \"#utility.yul\":19383:19386   */\n      0x00\n        /* \"#utility.yul\":19406:19429   */\n      tag_469\n        /* \"#utility.yul\":19423:19428   */\n      dup3\n        /* \"#utility.yul\":19406:19429   */\n      tag_215\n      jump\t// in\n    tag_469:\n        /* \"#utility.yul\":19397:19429   */\n      swap2\n      pop\n        /* \"#utility.yul\":19451:19517   */\n      0x8000000000000000000000000000000000000000000000000000000000000000\n        /* \"#utility.yul\":19444:19449   */\n      dup3\n        /* \"#utility.yul\":19441:19518   */\n      sub\n        /* \"#utility.yul\":19438:19541   */\n      tag_470\n      jumpi\n        /* \"#utility.yul\":19521:19539   */\n      tag_471\n      tag_243\n      jump\t// in\n    tag_471:\n        /* \"#utility.yul\":19438:19541   */\n    tag_470:\n        /* \"#utility.yul\":19564:19569   */\n      dup2\n        /* \"#utility.yul\":19561:19562   */\n      0x00\n        /* \"#utility.yul\":19557:19570   */\n      sub\n        /* \"#utility.yul\":19550:19570   */\n      swap1\n      pop\n        /* \"#utility.yul\":19348:19576   */\n      swap2\n      swap1\n      pop\n      jump\t// out\n        /* \"#utility.yul\":19582:19808   */\n    tag_107:\n        /* \"#utility.yul\":19616:19619   */\n      0x00\n        /* \"#utility.yul\":19639:19661   */\n      tag_473\n        /* \"#utility.yul\":19655:19660   */\n      dup3\n        /* \"#utility.yul\":19639:19661   */\n      tag_220\n      jump\t// in\n    tag_473:\n        /* \"#utility.yul\":19630:19661   */\n      swap2\n      pop\n        /* \"#utility.yul\":19683:19749   */\n      0xffffffffffffffffffffffffffffffffffffffffffffffffffffffffff800000\n        /* \"#utility.yul\":19676:19681   */\n      dup3\n        /* \"#utility.yul\":19673:19750   */\n      sub\n        /* \"#utility.yul\":19670:19773   */\n      tag_474\n      jumpi\n        /* \"#utility.yul\":19753:19771   */\n      tag_475\n      tag_243\n      jump\t// in\n    tag_475:\n        /* \"#utility.yul\":19670:19773   */\n    tag_474:\n        /* \"#utility.yul\":19796:19801   */\n      dup2\n        /* \"#utility.yul\":19793:19794   */\n      0x00\n        /* \"#utility.yul\":19789:19802   */\n      sub\n        /* \"#utility.yul\":19782:19802   */\n      swap1\n      pop\n        /* \"#utility.yul\":19582:19808   */\n      swap2\n      swap1\n      pop\n      jump\t// out\n        /* \"#utility.yul\":19814:19983   */\n    tag_249:\n        /* \"#utility.yul\":19898:19909   */\n      0x00\n        /* \"#utility.yul\":19932:19938   */\n      dup3\n        /* \"#utility.yul\":19927:19930   */\n      dup3\n        /* \"#utility.yul\":19920:19939   */\n      mstore\n        /* \"#utility.yul\":19972:19976   */\n      0x20\n        /* \"#utility.yul\":19967:19970   */\n      dup3\n        /* \"#utility.yul\":19963:19977   */\n      add\n        /* \"#utility.yul\":19948:19977   */\n      swap1\n      pop\n        /* \"#utility.yul\":19814:19983   */\n      swap3\n      swap2\n      pop\n      pop\n      jump\t// out\n        /* \"#utility.yul\":19989:20140   */\n    tag_250:\n        /* \"#utility.yul\":20129:20132   */\n      0x5400000000000000000000000000000000000000000000000000000000000000\n        /* \"#utility.yul\":20125:20126   */\n      0x00\n        /* \"#utility.yul\":20117:20123   */\n      dup3\n        /* \"#utility.yul\":20113:20127   */\n      add\n        /* \"#utility.yul\":20106:20133   */\n      mstore\n        /* \"#utility.yul\":19989:20140   */\n      pop\n      jump\t// out\n        /* \"#utility.yul\":20146:20511   */\n    tag_251:\n        /* \"#utility.yul\":20288:20291   */\n      0x00\n        /* \"#utility.yul\":20309:20375   */\n      tag_479\n        /* \"#utility.yul\":20373:20374   */\n      0x01\n        /* \"#utility.yul\":20368:20371   */\n      dup4\n        /* \"#utility.yul\":20309:20375   */\n      tag_249\n      jump\t// in\n    tag_479:\n        /* \"#utility.yul\":20302:20375   */\n      swap2\n      pop\n        /* \"#utility.yul\":20384:20477   */\n      tag_480\n        /* \"#utility.yul\":20473:20476   */\n      dup3\n        /* \"#utility.yul\":20384:20477   */\n      tag_250\n      jump\t// in\n    tag_480:\n        /* \"#utility.yul\":20502:20504   */\n      0x20\n        /* \"#utility.yul\":20497:20500   */\n      dup3\n        /* \"#utility.yul\":20493:20505   */\n      add\n        /* \"#utility.yul\":20486:20505   */\n      swap1\n      pop\n        /* \"#utility.yul\":20146:20511   */\n      swap2\n      swap1\n      pop\n      jump\t// out\n        /* \"#utility.yul\":20517:20936   */\n    tag_110:\n        /* \"#utility.yul\":20683:20687   */\n      0x00\n        /* \"#utility.yul\":20721:20723   */\n      0x20\n        /* \"#utility.yul\":20710:20719   */\n      dup3\n        /* \"#utility.yul\":20706:20724   */\n      add\n        /* \"#utility.yul\":20698:20724   */\n      swap1\n      pop\n        /* \"#utility.yul\":20770:20779   */\n      dup2\n        /* \"#utility.yul\":20764:20768   */\n      dup2\n        /* \"#utility.yul\":20760:20780   */\n      sub\n        /* \"#utility.yul\":20756:20757   */\n      0x00\n        /* \"#utility.yul\":20745:20754   */\n      dup4\n        /* \"#utility.yul\":20741:20758   */\n      add\n        /* \"#utility.yul\":20734:20781   */\n      mstore\n        /* \"#utility.yul\":20798:20929   */\n      tag_482\n        /* \"#utility.yul\":20924:20928   */\n      dup2\n        /* \"#utility.yul\":20798:20929   */\n      tag_251\n      jump\t// in\n    tag_482:\n        /* \"#utility.yul\":20790:20929   */\n      swap1\n      pop\n        /* \"#utility.yul\":20517:20936   */\n      swap2\n      swap1\n      pop\n      jump\t// out\n        /* \"#utility.yul\":20942:21352   */\n    tag_115:\n        /* \"#utility.yul\":20982:20989   */\n      0x00\n        /* \"#utility.yul\":21005:21025   */\n      tag_484\n        /* \"#utility.yul\":21023:21024   */\n      dup3\n        /* \"#utility.yul\":21005:21025   */\n      tag_198\n      jump\t// in\n    tag_484:\n        /* \"#utility.yul\":21000:21025   */\n      swap2\n      pop\n        /* \"#utility.yul\":21039:21059   */\n      tag_485\n        /* \"#utility.yul\":21057:21058   */\n      dup4\n        /* \"#utility.yul\":21039:21059   */\n      tag_198\n      jump\t// in\n    tag_485:\n        /* \"#utility.yul\":21034:21059   */\n      swap3\n      pop\n        /* \"#utility.yul\":21094:21095   */\n      dup3\n        /* \"#utility.yul\":21091:21092   */\n      dup3\n        /* \"#utility.yul\":21087:21096   */\n      mul\n        /* \"#utility.yul\":21116:21146   */\n      tag_486\n        /* \"#utility.yul\":21134:21145   */\n      dup2\n        /* \"#utility.yul\":21116:21146   */\n      tag_198\n      jump\t// in\n    tag_486:\n        /* \"#utility.yul\":21105:21146   */\n      swap2\n      pop\n        /* \"#utility.yul\":21295:21296   */\n      dup3\n        /* \"#utility.yul\":21286:21293   */\n      dup3\n        /* \"#utility.yul\":21282:21297   */\n      div\n        /* \"#utility.yul\":21279:21280   */\n      dup5\n        /* \"#utility.yul\":21276:21298   */\n      eq\n        /* \"#utility.yul\":21256:21257   */\n      dup4\n        /* \"#utility.yul\":21249:21258   */\n      iszero\n        /* \"#utility.yul\":21229:21312   */\n      or\n        /* \"#utility.yul\":21206:21345   */\n      tag_487\n      jumpi\n        /* \"#utility.yul\":21325:21343   */\n      tag_488\n      tag_243\n      jump\t// in\n    tag_488:\n        /* \"#utility.yul\":21206:21345   */\n    tag_487:\n        /* \"#utility.yul\":20990:21352   */\n      pop\n        /* \"#utility.yul\":20942:21352   */\n      swap3\n      swap2\n      pop\n      pop\n      jump\t// out\n        /* \"#utility.yul\":21358:21538   */\n    tag_189:\n        /* \"#utility.yul\":21406:21483   */\n      0x4e487b7100000000000000000000000000000000000000000000000000000000\n        /* \"#utility.yul\":21403:21404   */\n      0x00\n        /* \"#utility.yul\":21396:21484   */\n      mstore\n        /* \"#utility.yul\":21503:21507   */\n      0x12\n        /* \"#utility.yul\":21500:21501   */\n      0x04\n        /* \"#utility.yul\":21493:21508   */\n      mstore\n        /* \"#utility.yul\":21527:21531   */\n      0x24\n        /* \"#utility.yul\":21524:21525   */\n      0x00\n        /* \"#utility.yul\":21517:21532   */\n      revert\n        /* \"#utility.yul\":21544:21729   */\n    tag_154:\n        /* \"#utility.yul\":21584:21585   */\n      0x00\n        /* \"#utility.yul\":21601:21621   */\n      tag_491\n        /* \"#utility.yul\":21619:21620   */\n      dup3\n        /* \"#utility.yul\":21601:21621   */\n      tag_198\n      jump\t// in\n    tag_491:\n        /* \"#utility.yul\":21596:21621   */\n      swap2\n      pop\n        /* \"#utility.yul\":21635:21655   */\n      tag_492\n        /* \"#utility.yul\":21653:21654   */\n      dup4\n        /* \"#utility.yul\":21635:21655   */\n      tag_198\n      jump\t// in\n    tag_492:\n        /* \"#utility.yul\":21630:21655   */\n      swap3\n      pop\n        /* \"#utility.yul\":21674:21675   */\n      dup3\n        /* \"#utility.yul\":21664:21699   */\n      tag_493\n      jumpi\n        /* \"#utility.yul\":21679:21697   */\n      tag_494\n      tag_189\n      jump\t// in\n    tag_494:\n        /* \"#utility.yul\":21664:21699   */\n    tag_493:\n        /* \"#utility.yul\":21721:21722   */\n      dup3\n        /* \"#utility.yul\":21718:21719   */\n      dup3\n        /* \"#utility.yul\":21714:21723   */\n      div\n        /* \"#utility.yul\":21709:21723   */\n      swap1\n      pop\n        /* \"#utility.yul\":21544:21729   */\n      swap3\n      swap2\n      pop\n      pop\n      jump\t// out\n        /* \"#utility.yul\":21735:21911   */\n    tag_156:\n        /* \"#utility.yul\":21767:21768   */\n      0x00\n        /* \"#utility.yul\":21784:21804   */\n      tag_496\n        /* \"#utility.yul\":21802:21803   */\n      dup3\n        /* \"#utility.yul\":21784:21804   */\n      tag_198\n      jump\t// in\n    tag_496:\n        /* \"#utility.yul\":21779:21804   */\n      swap2\n      pop\n        /* \"#utility.yul\":21818:21838   */\n      tag_497\n        /* \"#utility.yul\":21836:21837   */\n      dup4\n        /* \"#utility.yul\":21818:21838   */\n      tag_198\n      jump\t// in\n    tag_497:\n        /* \"#utility.yul\":21813:21838   */\n      swap3\n      pop\n        /* \"#utility.yul\":21857:21858   */\n      dup3\n        /* \"#utility.yul\":21847:21882   */\n      tag_498\n      jumpi\n        /* \"#utility.yul\":21862:21880   */\n      tag_499\n      tag_189\n      jump\t// in\n    tag_499:\n        /* \"#utility.yul\":21847:21882   */\n    tag_498:\n        /* \"#utility.yul\":21903:21904   */\n      dup3\n        /* \"#utility.yul\":21900:21901   */\n      dup3\n        /* \"#utility.yul\":21896:21905   */\n      mod\n        /* \"#utility.yul\":21891:21905   */\n      swap1\n      pop\n        /* \"#utility.yul\":21735:21911   */\n      swap3\n      swap2\n      pop\n      pop\n      jump\t// out\n        /* \"#utility.yul\":21917:22108   */\n    tag_160:\n        /* \"#utility.yul\":21957:21960   */\n      0x00\n        /* \"#utility.yul\":21976:21996   */\n      tag_501\n        /* \"#utility.yul\":21994:21995   */\n      dup3\n        /* \"#utility.yul\":21976:21996   */\n      tag_198\n      jump\t// in\n    tag_501:\n        /* \"#utility.yul\":21971:21996   */\n      swap2\n      pop\n        /* \"#utility.yul\":22010:22030   */\n      tag_502\n        /* \"#utility.yul\":22028:22029   */\n      dup4\n        /* \"#utility.yul\":22010:22030   */\n      tag_198\n      jump\t// in\n    tag_502:\n        /* \"#utility.yul\":22005:22030   */\n      swap3\n      pop\n        /* \"#utility.yul\":22053:22054   */\n      dup3\n        /* \"#utility.yul\":22050:22051   */\n      dup3\n        /* \"#utility.yul\":22046:22055   */\n      add\n        /* \"#utility.yul\":22039:22055   */\n      swap1\n      pop\n        /* \"#utility.yul\":22074:22077   */\n      dup1\n        /* \"#utility.yul\":22071:22072   */\n      dup3\n        /* \"#utility.yul\":22068:22078   */\n      gt\n        /* \"#utility.yul\":22065:22101   */\n      iszero\n      tag_503\n      jumpi\n        /* \"#utility.yul\":22081:22099   */\n      tag_504\n      tag_243\n      jump\t// in\n    tag_504:\n        /* \"#utility.yul\":22065:22101   */\n    tag_503:\n        /* \"#utility.yul\":21917:22108   */\n      swap3\n      swap2\n      pop\n      pop\n      jump\t// out\n        /* \"#utility.yul\":22114:22556   */\n    tag_192:\n        /* \"#utility.yul\":22263:22267   */\n      0x00\n        /* \"#utility.yul\":22301:22303   */\n      0x60\n        /* \"#utility.yul\":22290:22299   */\n      dup3\n        /* \"#utility.yul\":22286:22304   */\n      add\n        /* \"#utility.yul\":22278:22304   */\n      swap1\n      pop\n        /* \"#utility.yul\":22314:22385   */\n      tag_506\n        /* \"#utility.yul\":22382:22383   */\n      0x00\n        /* \"#utility.yul\":22371:22380   */\n      dup4\n        /* \"#utility.yul\":22367:22384   */\n      add\n        /* \"#utility.yul\":22358:22364   */\n      dup7\n        /* \"#utility.yul\":22314:22385   */\n      tag_199\n      jump\t// in\n    tag_506:\n        /* \"#utility.yul\":22395:22467   */\n      tag_507\n        /* \"#utility.yul\":22463:22465   */\n      0x20\n        /* \"#utility.yul\":22452:22461   */\n      dup4\n        /* \"#utility.yul\":22448:22466   */\n      add\n        /* \"#utility.yul\":22439:22445   */\n      dup6\n        /* \"#utility.yul\":22395:22467   */\n      tag_199\n      jump\t// in\n    tag_507:\n        /* \"#utility.yul\":22477:22549   */\n      tag_508\n        /* \"#utility.yul\":22545:22547   */\n      0x40\n        /* \"#utility.yul\":22534:22543   */\n      dup4\n        /* \"#utility.yul\":22530:22548   */\n      add\n        /* \"#utility.yul\":22521:22527   */\n      dup5\n        /* \"#utility.yul\":22477:22549   */\n      tag_199\n      jump\t// in\n    tag_508:\n        /* \"#utility.yul\":22114:22556   */\n      swap5\n      swap4\n      pop\n      pop\n      pop\n      pop\n      jump\t// out\n\n    auxdata: 0xa2646970667358221220b5477e555e98780aa0e5297c588455120141df25f673933dc6e87e99956fcac564736f6c63430008130033\n}\n",
				"bytecode": {
					"linkReferences": {},
					"object": "608060405234801561001057600080fd5b50611c59806100206000396000f3fe608060405234801561001057600080fd5b506004361061004c5760003560e01c8063190c1752146100515780639f382e9b14610082578063dd5a12d81461009e578063fa483e72146100cf575b600080fd5b61006b60048036038101906100669190610fe1565b6100eb565b604051610079929190611027565b60405180910390f35b61009c600480360381019061009791906110e1565b610438565b005b6100b860048036038101906100b39190611217565b610540565b6040516100c69291906112ca565b60405180910390f35b6100e960048036038101906100e4919061131f565b610639565b005b60008060008360000160208101906101039190611393565b905060008173ffffffffffffffffffffffffffffffffffffffff16633850c7bd6040518163ffffffff1660e01b81526004016040805180830381865afa158015610151573d6000803e3d6000fd5b505050506040513d601f19601f82011682018060405250810190610175919061140e565b50905060006101958660200160208101906101909190611463565b610755565b905060006101b48760400160208101906101af9190611463565b610755565b905060006101cd8484848b606001358c60800135610c22565b90508473ffffffffffffffffffffffffffffffffffffffff16633c8a7d8d338a60200160208101906101ff9190611463565b8b60400160208101906102129190611463565b8560405180606001604052808c73ffffffffffffffffffffffffffffffffffffffff16630dfe16816040518163ffffffff1660e01b8152600401602060405180830381865afa158015610269573d6000803e3d6000fd5b505050506040513d601f19601f8201168201806040525081019061028d91906114a5565b73ffffffffffffffffffffffffffffffffffffffff1681526020018c73ffffffffffffffffffffffffffffffffffffffff1663d21220a76040518163ffffffff1660e01b8152600401602060405180830381865afa1580156102f3573d6000803e3d6000fd5b505050506040513d601f19601f8201168201806040525081019061031791906114a5565b73ffffffffffffffffffffffffffffffffffffffff1681526020013373ffffffffffffffffffffffffffffffffffffffff1681525060405160200161035c9190611523565b6040516020818303038152906040526040518663ffffffff1660e01b815260040161038b959493929190611617565b60408051808303816000875af11580156103a9573d6000803e3d6000fd5b505050506040513d601f19601f820116820180604052508101906103cd9190611686565b80975081985050508760a001358710806103ea57508760c0013586105b1561042e5786866040517fa8f6c8d0000000000000000000000000000000000000000000000000000000008152600401610425929190611027565b60405180910390fd5b5050505050915091565b6000828281019061044991906117aa565b9050806000015173ffffffffffffffffffffffffffffffffffffffff166323b872dd826040015133886040518463ffffffff1660e01b8152600401610490939291906117d7565b600060405180830381600087803b1580156104aa57600080fd5b505af11580156104be573d6000803e3d6000fd5b50505050806020015173ffffffffffffffffffffffffffffffffffffffff166323b872dd826040015133876040518463ffffffff1660e01b8152600401610507939291906117d7565b600060405180830381600087803b15801561052157600080fd5b505af1158015610535573d6000803e3d6000fd5b505050505050505050565b6000808773ffffffffffffffffffffffffffffffffffffffff1663dd5a12d833898960008a73ffffffffffffffffffffffffffffffffffffffff161461058657896105c5565b8b6105b157600173fffd8963efd1fc6a506488495d951d5263988d266105ac919061183d565b6105c4565b60016401000276a36105c39190611885565b5b5b89896040518763ffffffff1660e01b81526004016105e896959493929190611927565b60408051808303816000875af1158015610606573d6000803e3d6000fd5b505050506040513d601f19601f8201168201806040525081019061062a9190611998565b91509150965096945050505050565b6000828281019061064a91906117aa565b905060008513156106cd57806000015173ffffffffffffffffffffffffffffffffffffffff166323b872dd826040015133886040518463ffffffff1660e01b815260040161069a939291906117d7565b600060405180830381600087803b1580156106b457600080fd5b505af11580156106c8573d6000803e3d6000fd5b505050505b600084131561074e57806020015173ffffffffffffffffffffffffffffffffffffffff166323b872dd826040015133876040518463ffffffff1660e01b815260040161071b939291906117d7565b600060405180830381600087803b15801561073557600080fd5b505af1158015610749573d6000803e3d6000fd5b505050505b5050505050565b60008060008360020b1261076c578260020b61077a565b8260020b610779906119d8565b5b90507ffffffffffffffffffffffffffffffffffffffffffffffffffffffffffff276186107a690611a20565b62ffffff168111156107ed576040517f08c379a00000000000000000000000000000000000000000000000000000000081526004016107e490611ac5565b60405180910390fd5b600080600183160361081057700100000000000000000000000000000000610822565b6ffffcb933bd6fad37aa2d162d1a5940015b70ffffffffffffffffffffffffffffffffff169050600060028316146108655760806ffff97272373d413259a46990580e213a826108609190611ae5565b901c90505b600060048316146108935760806ffff2e50f5f656932ef12357cf3c7fdcc8261088e9190611ae5565b901c90505b600060088316146108c15760806fffe5caca7e10e4e61c3624eaa0941cd0826108bc9190611ae5565b901c90505b600060108316146108ef5760806fffcb9843d60f6159c9db58835c926644826108ea9190611ae5565b901c90505b6000602083161461091d5760806fff973b41fa98c081472e6896dfb254c0826109189190611ae5565b901c90505b6000604083161461094b5760806fff2ea16466c96a3843ec78b326b52861826109469190611ae5565b901c90505b600060808316146109795760806ffe5dee046a99a2a811c461f1969c3053826109749190611ae5565b901c90505b60006101008316146109a85760806ffcbe86c7900a88aedcffc83b479aa3a4826109a39190611ae5565b901c90505b60006102008316146109d75760806ff987a7253ac413176f2b074cf7815e54826109d29190611ae5565b901c90505b6000610400831614610a065760806ff3392b0822b70005940c7a398e4b70f382610a019190611ae5565b901c90505b6000610800831614610a355760806fe7159475a2c29b7443b29c7fa6e889d982610a309190611ae5565b901c90505b6000611000831614610a645760806fd097f3bdfd2022b8845ad8f792aa582582610a5f9190611ae5565b901c90505b6000612000831614610a935760806fa9f746462d870fdf8a65dc1f90e061e582610a8e9190611ae5565b901c90505b6000614000831614610ac25760806f70d869a156d2a1b890bb3df62baf32f782610abd9190611ae5565b901c90505b6000618000831614610af15760806f31be135f97d08fd981231505542fcfa682610aec9190611ae5565b901c90505b600062010000831614610b215760806f09aa508b5b7a84e1c677de54f3e99bc982610b1c9190611ae5565b901c90505b600062020000831614610b505760806e5d6af8dedb81196699c329225ee60482610b4b9190611ae5565b901c90505b600062040000831614610b7e5760806d2216e584f5fa1ea926041bedfe9882610b799190611ae5565b901c90505b600062080000831614610baa5760806b048a170391f7dc42444e8fa282610ba59190611ae5565b901c90505b60008460020b1315610be557807fffffffffffffffffffffffffffffffffffffffffffffffffffffffffffffffff610be29190611b56565b90505b600064010000000082610bf89190611b87565b14610c04576001610c07565b60005b60ff16602082901c610c199190611bb8565b92505050919050565b60008373ffffffffffffffffffffffffffffffffffffffff168573ffffffffffffffffffffffffffffffffffffffff161115610c6357838580955081965050505b8473ffffffffffffffffffffffffffffffffffffffff168673ffffffffffffffffffffffffffffffffffffffff1611610ca857610ca1858585610d4d565b9050610d44565b8373ffffffffffffffffffffffffffffffffffffffff168673ffffffffffffffffffffffffffffffffffffffff1611610d35576000610ce8878686610d4d565b90506000610cf7878986610e0c565b9050806fffffffffffffffffffffffffffffffff16826fffffffffffffffffffffffffffffffff1610610d2a5780610d2c565b815b92505050610d43565b610d40858584610e0c565b90505b5b95945050505050565b60008273ffffffffffffffffffffffffffffffffffffffff168473ffffffffffffffffffffffffffffffffffffffff161115610d8e57828480945081955050505b6000610dd48573ffffffffffffffffffffffffffffffffffffffff168573ffffffffffffffffffffffffffffffffffffffff166c01000000000000000000000000610e8f565b9050610e0283828787610de7919061183d565b73ffffffffffffffffffffffffffffffffffffffff16610e8f565b9150509392505050565b60008273ffffffffffffffffffffffffffffffffffffffff168473ffffffffffffffffffffffffffffffffffffffff161115610e4d57828480945081955050505b610e86826c010000000000000000000000008686610e6b919061183d565b73ffffffffffffffffffffffffffffffffffffffff16610e8f565b90509392505050565b6000806000801985870985870292508281108382030391505060008103610eca57838281610ec057610ebf611b27565b5b0492505050610fa2565b838110610f12578585856040517f63a05778000000000000000000000000000000000000000000000000000000008152600401610f0993929190611bec565b60405180910390fd5b60008486880990508281118203915080830392506000600186190186169050600081870496508185049450600182836000030401905080840285179450600060028860030218905080880260020381029050808802600203810290508088026002038102905080880260020381029050808802600203810290508088026002038102905080860296505050505050505b9392505050565b6000604051905090565b600080fd5b600080fd5b600080fd5b600060e08284031215610fd857610fd7610fbd565b5b81905092915050565b600060e08284031215610ff757610ff6610fb3565b5b600061100584828501610fc2565b91505092915050565b6000819050919050565b6110218161100e565b82525050565b600060408201905061103c6000830185611018565b6110496020830184611018565b9392505050565b6110598161100e565b811461106457600080fd5b50565b60008135905061107681611050565b92915050565b600080fd5b600080fd5b600080fd5b60008083601f8401126110a1576110a061107c565b5b8235905067ffffffffffffffff8111156110be576110bd611081565b5b6020830191508360018202830111156110da576110d9611086565b5b9250929050565b600080600080606085870312156110fb576110fa610fb3565b5b600061110987828801611067565b945050602061111a87828801611067565b935050604085013567ffffffffffffffff81111561113b5761113a610fb8565b5b6111478782880161108b565b925092505092959194509250565b600073ffffffffffffffffffffffffffffffffffffffff82169050919050565b600061118082611155565b9050919050565b61119081611175565b811461119b57600080fd5b50565b6000813590506111ad81611187565b92915050565b60008115159050919050565b6111c8816111b3565b81146111d357600080fd5b50565b6000813590506111e5816111bf565b92915050565b6111f481611155565b81146111ff57600080fd5b50565b600081359050611211816111eb565b92915050565b60008060008060008060a0878903121561123457611233610fb3565b5b600061124289828a0161119e565b965050602061125389828a016111d6565b955050604061126489828a01611067565b945050606061127589828a01611202565b935050608087013567ffffffffffffffff81111561129657611295610fb8565b5b6112a289828a0161108b565b92509250509295509295509295565b6000819050919050565b6112c4816112b1565b82525050565b60006040820190506112df60008301856112bb565b6112ec60208301846112bb565b9392505050565b6112fc816112b1565b811461130757600080fd5b50565b600081359050611319816112f3565b92915050565b6000806000806060858703121561133957611338610fb3565b5b60006113478782880161130a565b94505060206113588782880161130a565b935050604085013567ffffffffffffffff81111561137957611378610fb8565b5b6113858782880161108b565b925092505092959194509250565b6000602082840312156113a9576113a8610fb3565b5b60006113b78482850161119e565b91505092915050565b6000815190506113cf816111eb565b92915050565b60008160020b9050919050565b6113eb816113d5565b81146113f657600080fd5b50565b600081519050611408816113e2565b92915050565b6000806040838503121561142557611424610fb3565b5b6000611433858286016113c0565b9250506020611444858286016113f9565b9150509250929050565b60008135905061145d816113e2565b92915050565b60006020828403121561147957611478610fb3565b5b60006114878482850161144e565b91505092915050565b60008151905061149f81611187565b92915050565b6000602082840312156114bb576114ba610fb3565b5b60006114c984828501611490565b91505092915050565b6114db81611175565b82525050565b6060820160008201516114f760008501826114d2565b50602082015161150a60208501826114d2565b50604082015161151d60408501826114d2565b50505050565b600060608201905061153860008301846114e1565b92915050565b61154781611175565b82525050565b611556816113d5565b82525050565b60006fffffffffffffffffffffffffffffffff82169050919050565b6115818161155c565b82525050565b600081519050919050565b600082825260208201905092915050565b60005b838110156115c15780820151818401526020810190506115a6565b60008484015250505050565b6000601f19601f8301169050919050565b60006115e982611587565b6115f38185611592565b93506116038185602086016115a3565b61160c816115cd565b840191505092915050565b600060a08201905061162c600083018861153e565b611639602083018761154d565b611646604083018661154d565b6116536060830185611578565b818103608083015261166581846115de565b90509695505050505050565b60008151905061168081611050565b92915050565b6000806040838503121561169d5761169c610fb3565b5b60006116ab85828601611671565b92505060206116bc85828601611671565b9150509250929050565b600080fd5b7f4e487b7100000000000000000000000000000000000000000000000000000000600052604160045260246000fd5b611703826115cd565b810181811067ffffffffffffffff82111715611722576117216116cb565b5b80604052505050565b6000611735610fa9565b905061174182826116fa565b919050565b60006060828403121561175c5761175b6116c6565b5b611766606061172b565b905060006117768482850161119e565b600083015250602061178a8482850161119e565b602083015250604061179e8482850161119e565b60408301525092915050565b6000606082840312156117c0576117bf610fb3565b5b60006117ce84828501611746565b91505092915050565b60006060820190506117ec600083018661153e565b6117f9602083018561153e565b6118066040830184611018565b949350505050565b7f4e487b7100000000000000000000000000000000000000000000000000000000600052601160045260246000fd5b600061184882611155565b915061185383611155565b9250828203905073ffffffffffffffffffffffffffffffffffffffff81111561187f5761187e61180e565b5b92915050565b600061189082611155565b915061189b83611155565b9250828201905073ffffffffffffffffffffffffffffffffffffffff8111156118c7576118c661180e565b5b92915050565b6118d6816111b3565b82525050565b6118e581611155565b82525050565b82818337600083830152505050565b60006119068385611592565b93506119138385846118eb565b61191c836115cd565b840190509392505050565b600060a08201905061193c600083018961153e565b61194960208301886118cd565b6119566040830187611018565b61196360608301866118dc565b81810360808301526119768184866118fa565b9050979650505050505050565b600081519050611992816112f3565b92915050565b600080604083850312156119af576119ae610fb3565b5b60006119bd85828601611983565b92505060206119ce85828601611983565b9150509250929050565b60006119e3826112b1565b91507f80000000000000000000000000000000000000000000000000000000000000008203611a1557611a1461180e565b5b816000039050919050565b6000611a2b826113d5565b91507fffffffffffffffffffffffffffffffffffffffffffffffffffffffffff8000008203611a5d57611a5c61180e565b5b816000039050919050565b600082825260208201905092915050565b7f5400000000000000000000000000000000000000000000000000000000000000600082015250565b6000611aaf600183611a68565b9150611aba82611a79565b602082019050919050565b60006020820190508181036000830152611ade81611aa2565b9050919050565b6000611af08261100e565b9150611afb8361100e565b9250828202611b098161100e565b91508282048414831517611b2057611b1f61180e565b5b5092915050565b7f4e487b7100000000000000000000000000000000000000000000000000000000600052601260045260246000fd5b6000611b618261100e565b9150611b6c8361100e565b925082611b7c57611b7b611b27565b5b828204905092915050565b6000611b928261100e565b9150611b9d8361100e565b925082611bad57611bac611b27565b5b828206905092915050565b6000611bc38261100e565b9150611bce8361100e565b9250828201905080821115611be657611be561180e565b5b92915050565b6000606082019050611c016000830186611018565b611c0e6020830185611018565b611c1b6040830184611018565b94935050505056fea2646970667358221220b5477e555e98780aa0e5297c588455120141df25f673933dc6e87e99956fcac564736f6c63430008130033",
					"opcodes": "PUSH1 0x80 PUSH1 0x40 MSTORE CALLVALUE DUP1 ISZERO PUSH2 0x10 JUMPI PUSH1 0x0 DUP1 REVERT JUMPDEST POP PUSH2 0x1C59 DUP1 PUSH2 0x20 PUSH1 0x0 CODECOPY PUSH1 0x0 RETURN INVALID PUSH1 0x80 PUSH1 0x40 MSTORE CALLVALUE DUP1 ISZERO PUSH2 0x10 JUMPI PUSH1 0x0 DUP1 REVERT JUMPDEST POP PUSH1 0x4 CALLDATASIZE LT PUSH2 0x4C JUMPI PUSH1 0x0 CALLDATALOAD PUSH1 0xE0 SHR DUP1 PUSH4 0x190C1752 EQ PUSH2 0x51 JUMPI DUP1 PUSH4 0x9F382E9B EQ PUSH2 0x82 JUMPI DUP1 PUSH4 0xDD5A12D8 EQ PUSH2 0x9E JUMPI DUP1 PUSH4 0xFA483E72 EQ PUSH2 0xCF JUMPI JUMPDEST PUSH1 0x0 DUP1 REVERT JUMPDEST PUSH2 0x6B PUSH1 0x4 DUP1 CALLDATASIZE SUB DUP2 ADD SWAP1 PUSH2 0x66 SWAP2 SWAP1 PUSH2 0xFE1 JUMP JUMPDEST PUSH2 0xEB JUMP JUMPDEST PUSH1 0x40 MLOAD PUSH2 0x79 SWAP3 SWAP2 SWAP1 PUSH2 0x1027 JUMP JUMPDEST PUSH1 0x40 MLOAD DUP1 SWAP2 SUB SWAP1 RETURN JUMPDEST PUSH2 0x9C PUSH1 0x4 DUP1 CALLDATASIZE SUB DUP2 ADD SWAP1 PUSH2 0x97 SWAP2 SWAP1 PUSH2 0x10E1 JUMP JUMPDEST PUSH2 0x438 JUMP JUMPDEST STOP JUMPDEST PUSH2 0xB8 PUSH1 0x4 DUP1 CALLDATASIZE SUB DUP2 ADD SWAP1 PUSH2 0xB3 SWAP2 SWAP1 PUSH2 0x1217 JUMP JUMPDEST PUSH2 0x540 JUMP JUMPDEST PUSH1 0x40 MLOAD PUSH2 0xC6 SWAP3 SWAP2 SWAP1 PUSH2 0x12CA JUMP JUMPDEST PUSH1 0x40 MLOAD DUP1 SWAP2 SUB SWAP1 RETURN JUMPDEST PUSH2 0xE9 PUSH1 0x4 DUP1 CALLDATASIZE SUB DUP2 ADD SWAP1 PUSH2 0xE4 SWAP2 SWAP1 PUSH2 0x131F JUMP JUMPDEST PUSH2 0x639 JUMP JUMPDEST STOP JUMPDEST PUSH1 0x0 DUP1 PUSH1 0x0 DUP4 PUSH1 0x0 ADD PUSH1 0x20 DUP2 ADD SWAP1 PUSH2 0x103 SWAP2 SWAP1 PUSH2 0x1393 JUMP JUMPDEST SWAP1 POP PUSH1 0x0 DUP2 PUSH20 0xFFFFFFFFFFFFFFFFFFFFFFFFFFFFFFFFFFFFFFFF AND PUSH4 0x3850C7BD PUSH1 0x40 MLOAD DUP2 PUSH4 0xFFFFFFFF AND PUSH1 0xE0 SHL DUP2 MSTORE PUSH1 0x4 ADD PUSH1 0x40 DUP1 MLOAD DUP1 DUP4 SUB DUP2 DUP7 GAS STATICCALL ISZERO DUP1 ISZERO PUSH2 0x151 JUMPI RETURNDATASIZE PUSH1 0x0 DUP1 RETURNDATACOPY RETURNDATASIZE PUSH1 0x0 REVERT JUMPDEST POP POP POP POP PUSH1 0x40 MLOAD RETURNDATASIZE PUSH1 0x1F NOT PUSH1 0x1F DUP3 ADD AND DUP3 ADD DUP1 PUSH1 0x40 MSTORE POP DUP2 ADD SWAP1 PUSH2 0x175 SWAP2 SWAP1 PUSH2 0x140E JUMP JUMPDEST POP SWAP1 POP PUSH1 0x0 PUSH2 0x195 DUP7 PUSH1 0x20 ADD PUSH1 0x20 DUP2 ADD SWAP1 PUSH2 0x190 SWAP2 SWAP1 PUSH2 0x1463 JUMP JUMPDEST PUSH2 0x755 JUMP JUMPDEST SWAP1 POP PUSH1 0x0 PUSH2 0x1B4 DUP8 PUSH1 0x40 ADD PUSH1 0x20 DUP2 ADD SWAP1 PUSH2 0x1AF SWAP2 SWAP1 PUSH2 0x1463 JUMP JUMPDEST PUSH2 0x755 JUMP JUMPDEST SWAP1 POP PUSH1 0x0 PUSH2 0x1CD DUP5 DUP5 DUP5 DUP12 PUSH1 0x60 ADD CALLDATALOAD DUP13 PUSH1 0x80 ADD CALLDATALOAD PUSH2 0xC22 JUMP JUMPDEST SWAP1 POP DUP5 PUSH20 0xFFFFFFFFFFFFFFFFFFFFFFFFFFFFFFFFFFFFFFFF AND PUSH4 0x3C8A7D8D CALLER DUP11 PUSH1 0x20 ADD PUSH1 0x20 DUP2 ADD SWAP1 PUSH2 0x1FF SWAP2 SWAP1 PUSH2 0x1463 JUMP JUMPDEST DUP12 PUSH1 0x40 ADD PUSH1 0x20 DUP2 ADD SWAP1 PUSH2 0x212 SWAP2 SWAP1 PUSH2 0x1463 JUMP JUMPDEST DUP6 PUSH1 0x40 MLOAD DUP1 PUSH1 0x60 ADD PUSH1 0x40 MSTORE DUP1 DUP13 PUSH20 0xFFFFFFFFFFFFFFFFFFFFFFFFFFFFFFFFFFFFFFFF AND PUSH4 0xDFE1681 PUSH1 0x40 MLOAD DUP2 PUSH4 0xFFFFFFFF AND PUSH1 0xE0 SHL DUP2 MSTORE PUSH1 0x4 ADD PUSH1 0x20 PUSH1 0x40 MLOAD DUP1 DUP4 SUB DUP2 DUP7 GAS STATICCALL ISZERO DUP1 ISZERO PUSH2 0x269 JUMPI RETURNDATASIZE PUSH1 0x0 DUP1 RETURNDATACOPY RETURNDATASIZE PUSH1 0x0 REVERT JUMPDEST POP POP POP POP PUSH1 0x40 MLOAD RETURNDATASIZE PUSH1 0x1F NOT PUSH1 0x1F DUP3 ADD AND DUP3 ADD DUP1 PUSH1 0x40 MSTORE POP DUP2 ADD SWAP1 PUSH2 0x28D SWAP2 SWAP1 PUSH2 0x14A5 JUMP JUMPDEST PUSH20 0xFFFFFFFFFFFFFFFFFFFFFFFFFFFFFFFFFFFFFFFF AND DUP2 MSTORE PUSH1 0x20 ADD DUP13 PUSH20 0xFFFFFFFFFFFFFFFFFFFFFFFFFFFFFFFFFFFFFFFF AND PUSH4 0xD21220A7 PUSH1 0x40 MLOAD DUP2 PUSH4 0xFFFFFFFF AND PUSH1 0xE0 SHL DUP2 MSTORE PUSH1 0x4 ADD PUSH1 0x20 PUSH1 0x40 MLOAD DUP1 DUP4 SUB DUP2 DUP7 GAS STATICCALL ISZERO DUP1 ISZERO PUSH2 0x2F3 JUMPI RETURNDATASIZE PUSH1 0x0 DUP1 RETURNDATACOPY RETURNDATASIZE PUSH1 0x0 REVERT JUMPDEST POP POP POP POP PUSH1 0x40 MLOAD RETURNDATASIZE PUSH1 0x1F NOT PUSH1 0x1F DUP3 ADD AND DUP3 ADD DUP1 PUSH1 0x40 MSTORE POP DUP2 ADD SWAP1 PUSH2 0x317 SWAP2 SWAP1 PUSH2 0x14A5 JUMP JUMPDEST PUSH20 0xFFFFFFFFFFFFFFFFFFFFFFFFFFFFFFFFFFFFFFFF AND DUP2 MSTORE PUSH1 0x20 ADD CALLER PUSH20 0xFFFFFFFFFFFFFFFFFFFFFFFFFFFFFFFFFFFFFFFF AND DUP2 MSTORE POP PUSH1 0x40 MLOAD PUSH1 0x20 ADD PUSH2 0x35C SWAP2 SWAP1 PUSH2 0x1523 JUMP JUMPDEST PUSH1 0x40 MLOAD PUSH1 0x20 DUP2 DUP4 SUB SUB DUP2 MSTORE SWAP1 PUSH1 0x40 MSTORE PUSH1 0x40 MLOAD DUP7 PUSH4 0xFFFFFFFF AND PUSH1 0xE0 SHL DUP2 MSTORE PUSH1 0x4 ADD PUSH2 0x38B SWAP6 SWAP5 SWAP4 SWAP3 SWAP2 SWAP1 PUSH2 0x1617 JUMP JUMPDEST PUSH1 0x40 DUP1 MLOAD DUP1 DUP4 SUB DUP2 PUSH1 0x0 DUP8 GAS CALL ISZERO DUP1 ISZERO PUSH2 0x3A9 JUMPI RETURNDATASIZE PUSH1 0x0 DUP1 RETURNDATACOPY RETURNDATASIZE PUSH1 0x0 REVERT JUMPDEST POP POP POP POP PUSH1 0x40 MLOAD RETURNDATASIZE PUSH1 0x1F NOT PUSH1 0x1F DUP3 ADD AND DUP3 ADD DUP1 PUSH1 0x40 MSTORE POP DUP2 ADD SWAP1 PUSH2 0x3CD SWAP2 SWAP1 PUSH2 0x1686 JUMP JUMPDEST DUP1 SWAP8 POP DUP2 SWAP9 POP POP POP DUP8 PUSH1 0xA0 ADD CALLDATALOAD DUP8 LT DUP1 PUSH2 0x3EA JUMPI POP DUP8 PUSH1 0xC0 ADD CALLDATALOAD DUP7 LT JUMPDEST ISZERO PUSH2 0x42E JUMPI DUP7 DUP7 PUSH1 0x40 MLOAD PUSH32 0xA8F6C8D000000000000000000000000000000000000000000000000000000000 DUP2 MSTORE PUSH1 0x4 ADD PUSH2 0x425 SWAP3 SWAP2 SWAP1 PUSH2 0x1027 JUMP JUMPDEST PUSH1 0x40 MLOAD DUP1 SWAP2 SUB SWAP1 REVERT JUMPDEST POP POP POP POP POP SWAP2 POP SWAP2 JUMP JUMPDEST PUSH1 0x0 DUP3 DUP3 DUP2 ADD SWAP1 PUSH2 0x449 SWAP2 SWAP1 PUSH2 0x17AA JUMP JUMPDEST SWAP1 POP DUP1 PUSH1 0x0 ADD MLOAD PUSH20 0xFFFFFFFFFFFFFFFFFFFFFFFFFFFFFFFFFFFFFFFF AND PUSH4 0x23B872DD DUP3 PUSH1 0x40 ADD MLOAD CALLER DUP9 PUSH1 0x40 MLOAD DUP5 PUSH4 0xFFFFFFFF AND PUSH1 0xE0 SHL DUP2 MSTORE PUSH1 0x4 ADD PUSH2 0x490 SWAP4 SWAP3 SWAP2 SWAP1 PUSH2 0x17D7 JUMP JUMPDEST PUSH1 0x0 PUSH1 0x40 MLOAD DUP1 DUP4 SUB DUP2 PUSH1 0x0 DUP8 DUP1 EXTCODESIZE ISZERO DUP1 ISZERO PUSH2 0x4AA JUMPI PUSH1 0x0 DUP1 REVERT JUMPDEST POP GAS CALL ISZERO DUP1 ISZERO PUSH2 0x4BE JUMPI RETURNDATASIZE PUSH1 0x0 DUP1 RETURNDATACOPY RETURNDATASIZE PUSH1 0x0 REVERT JUMPDEST POP POP POP POP DUP1 PUSH1 0x20 ADD MLOAD PUSH20 0xFFFFFFFFFFFFFFFFFFFFFFFFFFFFFFFFFFFFFFFF AND PUSH4 0x23B872DD DUP3 PUSH1 0x40 ADD MLOAD CALLER DUP8 PUSH1 0x40 MLOAD DUP5 PUSH4 0xFFFFFFFF AND PUSH1 0xE0 SHL DUP2 MSTORE PUSH1 0x4 ADD PUSH2 0x507 SWAP4 SWAP3 SWAP2 SWAP1 PUSH2 0x17D7 JUMP JUMPDEST PUSH1 0x0 PUSH1 0x40 MLOAD DUP1 DUP4 SUB DUP2 PUSH1 0x0 DUP8 DUP1 EXTCODESIZE ISZERO DUP1 ISZERO PUSH2 0x521 JUMPI PUSH1 0x0 DUP1 REVERT JUMPDEST POP GAS CALL ISZERO DUP1 ISZERO PUSH2 0x535 JUMPI RETURNDATASIZE PUSH1 0x0 DUP1 RETURNDATACOPY RETURNDATASIZE PUSH1 0x0 REVERT JUMPDEST POP POP POP POP POP POP POP POP POP JUMP JUMPDEST PUSH1 0x0 DUP1 DUP8 PUSH20 0xFFFFFFFFFFFFFFFFFFFFFFFFFFFFFFFFFFFFFFFF AND PUSH4 0xDD5A12D8 CALLER DUP10 DUP10 PUSH1 0x0 DUP11 PUSH20 0xFFFFFFFFFFFFFFFFFFFFFFFFFFFFFFFFFFFFFFFF AND EQ PUSH2 0x586 JUMPI DUP10 PUSH2 0x5C5 JUMP JUMPDEST DUP12 PUSH2 0x5B1 JUMPI PUSH1 0x1 PUSH20 0xFFFD8963EFD1FC6A506488495D951D5263988D26 PUSH2 0x5AC SWAP2 SWAP1 PUSH2 0x183D JUMP JUMPDEST PUSH2 0x5C4 JUMP JUMPDEST PUSH1 0x1 PUSH5 0x1000276A3 PUSH2 0x5C3 SWAP2 SWAP1 PUSH2 0x1885 JUMP JUMPDEST JUMPDEST JUMPDEST DUP10 DUP10 PUSH1 0x40 MLOAD DUP8 PUSH4 0xFFFFFFFF AND PUSH1 0xE0 SHL DUP2 MSTORE PUSH1 0x4 ADD PUSH2 0x5E8 SWAP7 SWAP6 SWAP5 SWAP4 SWAP3 SWAP2 SWAP1 PUSH2 0x1927 JUMP JUMPDEST PUSH1 0x40 DUP1 MLOAD DUP1 DUP4 SUB DUP2 PUSH1 0x0 DUP8 GAS CALL ISZERO DUP1 ISZERO PUSH2 0x606 JUMPI RETURNDATASIZE PUSH1 0x0 DUP1 RETURNDATACOPY RETURNDATASIZE PUSH1 0x0 REVERT JUMPDEST POP POP POP POP PUSH1 0x40 MLOAD RETURNDATASIZE PUSH1 0x1F NOT PUSH1 0x1F DUP3 ADD AND DUP3 ADD DUP1 PUSH1 0x40 MSTORE POP DUP2 ADD SWAP1 PUSH2 0x62A SWAP2 SWAP1 PUSH2 0x1998 JUMP JUMPDEST SWAP2 POP SWAP2 POP SWAP7 POP SWAP7 SWAP5 POP POP POP POP POP JUMP JUMPDEST PUSH1 0x0 DUP3 DUP3 DUP2 ADD SWAP1 PUSH2 0x64A SWAP2 SWAP1 PUSH2 0x17AA JUMP JUMPDEST SWAP1 POP PUSH1 0x0 DUP6 SGT ISZERO PUSH2 0x6CD JUMPI DUP1 PUSH1 0x0 ADD MLOAD PUSH20 0xFFFFFFFFFFFFFFFFFFFFFFFFFFFFFFFFFFFFFFFF AND PUSH4 0x23B872DD DUP3 PUSH1 0x40 ADD MLOAD CALLER DUP9 PUSH1 0x40 MLOAD DUP5 PUSH4 0xFFFFFFFF AND PUSH1 0xE0 SHL DUP2 MSTORE PUSH1 0x4 ADD PUSH2 0x69A SWAP4 SWAP3 SWAP2 SWAP1 PUSH2 0x17D7 JUMP JUMPDEST PUSH1 0x0 PUSH1 0x40 MLOAD DUP1 DUP4 SUB DUP2 PUSH1 0x0 DUP8 DUP1 EXTCODESIZE ISZERO DUP1 ISZERO PUSH2 0x6B4 JUMPI PUSH1 0x0 DUP1 REVERT JUMPDEST POP GAS CALL ISZERO DUP1 ISZERO PUSH2 0x6C8 JUMPI RETURNDATASIZE PUSH1 0x0 DUP1 RETURNDATACOPY RETURNDATASIZE PUSH1 0x0 REVERT JUMPDEST POP POP POP POP JUMPDEST PUSH1 0x0 DUP5 SGT ISZERO PUSH2 0x74E JUMPI DUP1 PUSH1 0x20 ADD MLOAD PUSH20 0xFFFFFFFFFFFFFFFFFFFFFFFFFFFFFFFFFFFFFFFF AND PUSH4 0x23B872DD DUP3 PUSH1 0x40 ADD MLOAD CALLER DUP8 PUSH1 0x40 MLOAD DUP5 PUSH4 0xFFFFFFFF AND PUSH1 0xE0 SHL DUP2 MSTORE PUSH1 0x4 ADD PUSH2 0x71B SWAP4 SWAP3 SWAP2 SWAP1 PUSH2 0x17D7 JUMP JUMPDEST PUSH1 0x0 PUSH1 0x40 MLOAD DUP1 DUP4 SUB DUP2 PUSH1 0x0 DUP8 DUP1 EXTCODESIZE ISZERO DUP1 ISZERO PUSH2 0x735 JUMPI PUSH1 0x0 DUP1 REVERT JUMPDEST POP GAS CALL ISZERO DUP1 ISZERO PUSH2 0x749 JUMPI RETURNDATASIZE PUSH1 0x0 DUP1 RETURNDATACOPY RETURNDATASIZE PUSH1 0x0 REVERT JUMPDEST POP POP POP POP JUMPDEST POP POP POP POP POP JUMP JUMPDEST PUSH1 0x0 DUP1 PUSH1 0x0 DUP4 PUSH1 0x2 SIGNEXTEND SLT PUSH2 0x76C JUMPI DUP3 PUSH1 0x2 SIGNEXTEND PUSH2 0x77A JUMP JUMPDEST DUP3 PUSH1 0x2 SIGNEXTEND PUSH2 0x779 SWAP1 PUSH2 0x19D8 JUMP JUMPDEST JUMPDEST SWAP1 POP PUSH32 0xFFFFFFFFFFFFFFFFFFFFFFFFFFFFFFFFFFFFFFFFFFFFFFFFFFFFFFFFFFF27618 PUSH2 0x7A6 SWAP1 PUSH2 0x1A20 JUMP JUMPDEST PUSH3 0xFFFFFF AND DUP2 GT ISZERO PUSH2 0x7ED JUMPI PUSH1 0x40 MLOAD PUSH32 0x8C379A000000000000000000000000000000000000000000000000000000000 DUP2 MSTORE PUSH1 0x4 ADD PUSH2 0x7E4 SWAP1 PUSH2 0x1AC5 JUMP JUMPDEST PUSH1 0x40 MLOAD DUP1 SWAP2 SUB SWAP1 REVERT JUMPDEST PUSH1 0x0 DUP1 PUSH1 0x1 DUP4 AND SUB PUSH2 0x810 JUMPI PUSH17 0x100000000000000000000000000000000 PUSH2 0x822 JUMP JUMPDEST PUSH16 0xFFFCB933BD6FAD37AA2D162D1A594001 JUMPDEST PUSH17 0xFFFFFFFFFFFFFFFFFFFFFFFFFFFFFFFFFF AND SWAP1 POP PUSH1 0x0 PUSH1 0x2 DUP4 AND EQ PUSH2 0x865 JUMPI PUSH1 0x80 PUSH16 0xFFF97272373D413259A46990580E213A DUP3 PUSH2 0x860 SWAP2 SWAP1 PUSH2 0x1AE5 JUMP JUMPDEST SWAP1 SHR SWAP1 POP JUMPDEST PUSH1 0x0 PUSH1 0x4 DUP4 AND EQ PUSH2 0x893 JUMPI PUSH1 0x80 PUSH16 0xFFF2E50F5F656932EF12357CF3C7FDCC DUP3 PUSH2 0x88E SWAP2 SWAP1 PUSH2 0x1AE5 JUMP JUMPDEST SWAP1 SHR SWAP1 POP JUMPDEST PUSH1 0x0 PUSH1 0x8 DUP4 AND EQ PUSH2 0x8C1 JUMPI PUSH1 0x80 PUSH16 0xFFE5CACA7E10E4E61C3624EAA0941CD0 DUP3 PUSH2 0x8BC SWAP2 SWAP1 PUSH2 0x1AE5 JUMP JUMPDEST SWAP1 SHR SWAP1 POP JUMPDEST PUSH1 0x0 PUSH1 0x10 DUP4 AND EQ PUSH2 0x8EF JUMPI PUSH1 0x80 PUSH16 0xFFCB9843D60F6159C9DB58835C926644 DUP3 PUSH2 0x8EA SWAP2 SWAP1 PUSH2 0x1AE5 JUMP JUMPDEST SWAP1 SHR SWAP1 POP JUMPDEST PUSH1 0x0 PUSH1 0x20 DUP4 AND EQ PUSH2 0x91D JUMPI PUSH1 0x80 PUSH16 0xFF973B41FA98C081472E6896DFB254C0 DUP3 PUSH2 0x918 SWAP2 SWAP1 PUSH2 0x1AE5 JUMP JUMPDEST SWAP1 SHR SWAP1 POP JUMPDEST PUSH1 0x0 PUSH1 0x40 DUP4 AND EQ PUSH2 0x94B JUMPI PUSH1 0x80 PUSH16 0xFF2EA16466C96A3843EC78B326B52861 DUP3 PUSH2 0x946 SWAP2 SWAP1 PUSH2 0x1AE5 JUMP JUMPDEST SWAP1 SHR SWAP1 POP JUMPDEST PUSH1 0x0 PUSH1 0x80 DUP4 AND EQ PUSH2 0x979 JUMPI PUSH1 0x80 PUSH16 0xFE5DEE046A99A2A811C461F1969C3053 DUP3 PUSH2 0x974 SWAP2 SWAP1 PUSH2 0x1AE5 JUMP JUMPDEST SWAP1 SHR SWAP1 POP JUMPDEST PUSH1 0x0 PUSH2 0x100 DUP4 AND EQ PUSH2 0x9A8 JUMPI PUSH1 0x80 PUSH16 0xFCBE86C7900A88AEDCFFC83B479AA3A4 DUP3 PUSH2 0x9A3 SWAP2 SWAP1 PUSH2 0x1AE5 JUMP JUMPDEST SWAP1 SHR SWAP1 POP JUMPDEST PUSH1 0x0 PUSH2 0x200 DUP4 AND EQ PUSH2 0x9D7 JUMPI PUSH1 0x80 PUSH16 0xF987A7253AC413176F2B074CF7815E54 DUP3 PUSH2 0x9D2 SWAP2 SWAP1 PUSH2 0x1AE5 JUMP JUMPDEST SWAP1 SHR SWAP1 POP JUMPDEST PUSH1 0x0 PUSH2 0x400 DUP4 AND EQ PUSH2 0xA06 JUMPI PUSH1 0x80 PUSH16 0xF3392B0822B70005940C7A398E4B70F3 DUP3 PUSH2 0xA01 SWAP2 SWAP1 PUSH2 0x1AE5 JUMP JUMPDEST SWAP1 SHR SWAP1 POP JUMPDEST PUSH1 0x0 PUSH2 0x800 DUP4 AND EQ PUSH2 0xA35 JUMPI PUSH1 0x80 PUSH16 0xE7159475A2C29B7443B29C7FA6E889D9 DUP3 PUSH2 0xA30 SWAP2 SWAP1 PUSH2 0x1AE5 JUMP JUMPDEST SWAP1 SHR SWAP1 POP JUMPDEST PUSH1 0x0 PUSH2 0x1000 DUP4 AND EQ PUSH2 0xA64 JUMPI PUSH1 0x80 PUSH16 0xD097F3BDFD2022B8845AD8F792AA5825 DUP3 PUSH2 0xA5F SWAP2 SWAP1 PUSH2 0x1AE5 JUMP JUMPDEST SWAP1 SHR SWAP1 POP JUMPDEST PUSH1 0x0 PUSH2 0x2000 DUP4 AND EQ PUSH2 0xA93 JUMPI PUSH1 0x80 PUSH16 0xA9F746462D870FDF8A65DC1F90E061E5 DUP3 PUSH2 0xA8E SWAP2 SWAP1 PUSH2 0x1AE5 JUMP JUMPDEST SWAP1 SHR SWAP1 POP JUMPDEST PUSH1 0x0 PUSH2 0x4000 DUP4 AND EQ PUSH2 0xAC2 JUMPI PUSH1 0x80 PUSH16 0x70D869A156D2A1B890BB3DF62BAF32F7 DUP3 PUSH2 0xABD SWAP2 SWAP1 PUSH2 0x1AE5 JUMP JUMPDEST SWAP1 SHR SWAP1 POP JUMPDEST PUSH1 0x0 PUSH2 0x8000 DUP4 AND EQ PUSH2 0xAF1 JUMPI PUSH1 0x80 PUSH16 0x31BE135F97D08FD981231505542FCFA6 DUP3 PUSH2 0xAEC SWAP2 SWAP1 PUSH2 0x1AE5 JUMP JUMPDEST SWAP1 SHR SWAP1 POP JUMPDEST PUSH1 0x0 PUSH3 0x10000 DUP4 AND EQ PUSH2 0xB21 JUMPI PUSH1 0x80 PUSH16 0x9AA508B5B7A84E1C677DE54F3E99BC9 DUP3 PUSH2 0xB1C SWAP2 SWAP1 PUSH2 0x1AE5 JUMP JUMPDEST SWAP1 SHR SWAP1 POP JUMPDEST PUSH1 0x0 PUSH3 0x20000 DUP4 AND EQ PUSH2 0xB50 JUMPI PUSH1 0x80 PUSH15 0x5D6AF8DEDB81196699C329225EE604 DUP3 PUSH2 0xB4B SWAP2 SWAP1 PUSH2 0x1AE5 JUMP JUMPDEST SWAP1 SHR SWAP1 POP JUMPDEST PUSH1 0x0 PUSH3 0x40000 DUP4 AND EQ PUSH2 0xB7E JUMPI PUSH1 0x80 PUSH14 0x2216E584F5FA1EA926041BEDFE98 DUP3 PUSH2 0xB79 SWAP2 SWAP1 PUSH2 0x1AE5 JUMP JUMPDEST SWAP1 SHR SWAP1 POP JUMPDEST PUSH1 0x0 PUSH3 0x80000 DUP4 AND EQ PUSH2 0xBAA JUMPI PUSH1 0x80 PUSH12 0x48A170391F7DC42444E8FA2 DUP3 PUSH2 0xBA5 SWAP2 SWAP1 PUSH2 0x1AE5 JUMP JUMPDEST SWAP1 SHR SWAP1 POP JUMPDEST PUSH1 0x0 DUP5 PUSH1 0x2 SIGNEXTEND SGT ISZERO PUSH2 0xBE5 JUMPI DUP1 PUSH32 0xFFFFFFFFFFFFFFFFFFFFFFFFFFFFFFFFFFFFFFFFFFFFFFFFFFFFFFFFFFFFFFFF PUSH2 0xBE2 SWAP2 SWAP1 PUSH2 0x1B56 JUMP JUMPDEST SWAP1 POP JUMPDEST PUSH1 0x0 PUSH5 0x100000000 DUP3 PUSH2 0xBF8 SWAP2 SWAP1 PUSH2 0x1B87 JUMP JUMPDEST EQ PUSH2 0xC04 JUMPI PUSH1 0x1 PUSH2 0xC07 JUMP JUMPDEST PUSH1 0x0 JUMPDEST PUSH1 0xFF AND PUSH1 0x20 DUP3 SWAP1 SHR PUSH2 0xC19 SWAP2 SWAP1 PUSH2 0x1BB8 JUMP JUMPDEST SWAP3 POP POP POP SWAP2 SWAP1 POP JUMP JUMPDEST PUSH1 0x0 DUP4 PUSH20 0xFFFFFFFFFFFFFFFFFFFFFFFFFFFFFFFFFFFFFFFF AND DUP6 PUSH20 0xFFFFFFFFFFFFFFFFFFFFFFFFFFFFFFFFFFFFFFFF AND GT ISZERO PUSH2 0xC63 JUMPI DUP4 DUP6 DUP1 SWAP6 POP DUP2 SWAP7 POP POP POP JUMPDEST DUP5 PUSH20 0xFFFFFFFFFFFFFFFFFFFFFFFFFFFFFFFFFFFFFFFF AND DUP7 PUSH20 0xFFFFFFFFFFFFFFFFFFFFFFFFFFFFFFFFFFFFFFFF AND GT PUSH2 0xCA8 JUMPI PUSH2 0xCA1 DUP6 DUP6 DUP6 PUSH2 0xD4D JUMP JUMPDEST SWAP1 POP PUSH2 0xD44 JUMP JUMPDEST DUP4 PUSH20 0xFFFFFFFFFFFFFFFFFFFFFFFFFFFFFFFFFFFFFFFF AND DUP7 PUSH20 0xFFFFFFFFFFFFFFFFFFFFFFFFFFFFFFFFFFFFFFFF AND GT PUSH2 0xD35 JUMPI PUSH1 0x0 PUSH2 0xCE8 DUP8 DUP7 DUP7 PUSH2 0xD4D JUMP JUMPDEST SWAP1 POP PUSH1 0x0 PUSH2 0xCF7 DUP8 DUP10 DUP7 PUSH2 0xE0C JUMP JUMPDEST SWAP1 POP DUP1 PUSH16 0xFFFFFFFFFFFFFFFFFFFFFFFFFFFFFFFF AND DUP3 PUSH16 0xFFFFFFFFFFFFFFFFFFFFFFFFFFFFFFFF AND LT PUSH2 0xD2A JUMPI DUP1 PUSH2 0xD2C JUMP JUMPDEST DUP2 JUMPDEST SWAP3 POP POP POP PUSH2 0xD43 JUMP JUMPDEST PUSH2 0xD40 DUP6 DUP6 DUP5 PUSH2 0xE0C JUMP JUMPDEST SWAP1 POP JUMPDEST JUMPDEST SWAP6 SWAP5 POP POP POP POP POP JUMP JUMPDEST PUSH1 0x0 DUP3 PUSH20 0xFFFFFFFFFFFFFFFFFFFFFFFFFFFFFFFFFFFFFFFF AND DUP5 PUSH20 0xFFFFFFFFFFFFFFFFFFFFFFFFFFFFFFFFFFFFFFFF AND GT ISZERO PUSH2 0xD8E JUMPI DUP3 DUP5 DUP1 SWAP5 POP DUP2 SWAP6 POP POP POP JUMPDEST PUSH1 0x0 PUSH2 0xDD4 DUP6 PUSH20 0xFFFFFFFFFFFFFFFFFFFFFFFFFFFFFFFFFFFFFFFF AND DUP6 PUSH20 0xFFFFFFFFFFFFFFFFFFFFFFFFFFFFFFFFFFFFFFFF AND PUSH13 0x1000000000000000000000000 PUSH2 0xE8F JUMP JUMPDEST SWAP1 POP PUSH2 0xE02 DUP4 DUP3 DUP8 DUP8 PUSH2 0xDE7 SWAP2 SWAP1 PUSH2 0x183D JUMP JUMPDEST PUSH20 0xFFFFFFFFFFFFFFFFFFFFFFFFFFFFFFFFFFFFFFFF AND PUSH2 0xE8F JUMP JUMPDEST SWAP2 POP POP SWAP4 SWAP3 POP POP POP JUMP JUMPDEST PUSH1 0x0 DUP3 PUSH20 0xFFFFFFFFFFFFFFFFFFFFFFFFFFFFFFFFFFFFFFFF AND DUP5 PUSH20 0xFFFFFFFFFFFFFFFFFFFFFFFFFFFFFFFFFFFFFFFF AND GT ISZERO PUSH2 0xE4D JUMPI DUP3 DUP5 DUP1 SWAP5 POP DUP2 SWAP6 POP POP POP JUMPDEST PUSH2 0xE86 DUP3 PUSH13 0x1000000000000000000000000 DUP7 DUP7 PUSH2 0xE6B SWAP2 SWAP1 PUSH2 0x183D JUMP JUMPDEST PUSH20 0xFFFFFFFFFFFFFFFFFFFFFFFFFFFFFFFFFFFFFFFF AND PUSH2 0xE8F JUMP JUMPDEST SWAP1 POP SWAP4 SWAP3 POP POP POP JUMP JUMPDEST PUSH1 0x0 DUP1 PUSH1 0x0 DUP1 NOT DUP6 DUP8 MULMOD DUP6 DUP8 MUL SWAP3 POP DUP3 DUP2 LT DUP4 DUP3 SUB SUB SWAP2 POP POP PUSH1 0x0 DUP2 SUB PUSH2 0xECA JUMPI DUP4 DUP3 DUP2 PUSH2 0xEC0 JUMPI PUSH2 0xEBF PUSH2 0x1B27 JUMP JUMPDEST JUMPDEST DIV SWAP3 POP POP POP PUSH2 0xFA2 JUMP JUMPDEST DUP4 DUP2 LT PUSH2 0xF12 JUMPI DUP6 DUP6 DUP6 PUSH1 0x40 MLOAD PUSH32 0x63A0577800000000000000000000000000000000000000000000000000000000 DUP2 MSTORE PUSH1 0x4 ADD PUSH2 0xF09 SWAP4 SWAP3 SWAP2 SWAP1 PUSH2 0x1BEC JUMP JUMPDEST PUSH1 0x40 MLOAD DUP1 SWAP2 SUB SWAP1 REVERT JUMPDEST PUSH1 0x0 DUP5 DUP7 DUP9 MULMOD SWAP1 POP DUP3 DUP2 GT DUP3 SUB SWAP2 POP DUP1 DUP4 SUB SWAP3 POP PUSH1 0x0 PUSH1 0x1 DUP7 NOT ADD DUP7 AND SWAP1 POP PUSH1 0x0 DUP2 DUP8 DIV SWAP7 POP DUP2 DUP6 DIV SWAP5 POP PUSH1 0x1 DUP3 DUP4 PUSH1 0x0 SUB DIV ADD SWAP1 POP DUP1 DUP5 MUL DUP6 OR SWAP5 POP PUSH1 0x0 PUSH1 0x2 DUP9 PUSH1 0x3 MUL XOR SWAP1 POP DUP1 DUP9 MUL PUSH1 0x2 SUB DUP2 MUL SWAP1 POP DUP1 DUP9 MUL PUSH1 0x2 SUB DUP2 MUL SWAP1 POP DUP1 DUP9 MUL PUSH1 0x2 SUB DUP2 MUL SWAP1 POP DUP1 DUP9 MUL PUSH1 0x2 SUB DUP2 MUL SWAP1 POP DUP1 DUP9 MUL PUSH1 0x2 SUB DUP2 MUL SWAP1 POP DUP1 DUP9 MUL PUSH1 0x2 SUB DUP2 MUL SWAP1 POP DUP1 DUP7 MUL SWAP7 POP POP POP POP POP POP POP JUMPDEST SWAP4 SWAP3 POP POP POP JUMP JUMPDEST PUSH1 0x0 PUSH1 0x40 MLOAD SWAP1 POP SWAP1 JUMP JUMPDEST PUSH1 0x0 DUP1 REVERT JUMPDEST PUSH1 0x0 DUP1 REVERT JUMPDEST PUSH1 0x0 DUP1 REVERT JUMPDEST PUSH1 0x0 PUSH1 0xE0 DUP3 DUP5 SUB SLT ISZERO PUSH2 0xFD8 JUMPI PUSH2 0xFD7 PUSH2 0xFBD JUMP JUMPDEST JUMPDEST DUP2 SWAP1 POP SWAP3 SWAP2 POP POP JUMP JUMPDEST PUSH1 0x0 PUSH1 0xE0 DUP3 DUP5 SUB SLT ISZERO PUSH2 0xFF7 JUMPI PUSH2 0xFF6 PUSH2 0xFB3 JUMP JUMPDEST JUMPDEST PUSH1 0x0 PUSH2 0x1005 DUP5 DUP3 DUP6 ADD PUSH2 0xFC2 JUMP JUMPDEST SWAP2 POP POP SWAP3 SWAP2 POP POP JUMP JUMPDEST PUSH1 0x0 DUP2 SWAP1 POP SWAP2 SWAP1 POP JUMP JUMPDEST PUSH2 0x1021 DUP2 PUSH2 0x100E JUMP JUMPDEST DUP3 MSTORE POP POP JUMP JUMPDEST PUSH1 0x0 PUSH1 0x40 DUP3 ADD SWAP1 POP PUSH2 0x103C PUSH1 0x0 DUP4 ADD DUP6 PUSH2 0x1018 JUMP JUMPDEST PUSH2 0x1049 PUSH1 0x20 DUP4 ADD DUP5 PUSH2 0x1018 JUMP JUMPDEST SWAP4 SWAP3 POP POP POP JUMP JUMPDEST PUSH2 0x1059 DUP2 PUSH2 0x100E JUMP JUMPDEST DUP2 EQ PUSH2 0x1064 JUMPI PUSH1 0x0 DUP1 REVERT JUMPDEST POP JUMP JUMPDEST PUSH1 0x0 DUP2 CALLDATALOAD SWAP1 POP PUSH2 0x1076 DUP2 PUSH2 0x1050 JUMP JUMPDEST SWAP3 SWAP2 POP POP JUMP JUMPDEST PUSH1 0x0 DUP1 REVERT JUMPDEST PUSH1 0x0 DUP1 REVERT JUMPDEST PUSH1 0x0 DUP1 REVERT JUMPDEST PUSH1 0x0 DUP1 DUP4 PUSH1 0x1F DUP5 ADD SLT PUSH2 0x10A1 JUMPI PUSH2 0x10A0 PUSH2 0x107C JUMP JUMPDEST JUMPDEST DUP3 CALLDATALOAD SWAP1 POP PUSH8 0xFFFFFFFFFFFFFFFF DUP2 GT ISZERO PUSH2 0x10BE JUMPI PUSH2 0x10BD PUSH2 0x1081 JUMP JUMPDEST JUMPDEST PUSH1 0x20 DUP4 ADD SWAP2 POP DUP4 PUSH1 0x1 DUP3 MUL DUP4 ADD GT ISZERO PUSH2 0x10DA JUMPI PUSH2 0x10D9 PUSH2 0x1086 JUMP JUMPDEST JUMPDEST SWAP3 POP SWAP3 SWAP1 POP JUMP JUMPDEST PUSH1 0x0 DUP1 PUSH1 0x0 DUP1 PUSH1 0x60 DUP6 DUP8 SUB SLT ISZERO PUSH2 0x10FB JUMPI PUSH2 0x10FA PUSH2 0xFB3 JUMP JUMPDEST JUMPDEST PUSH1 0x0 PUSH2 0x1109 DUP8 DUP3 DUP9 ADD PUSH2 0x1067 JUMP JUMPDEST SWAP5 POP POP PUSH1 0x20 PUSH2 0x111A DUP8 DUP3 DUP9 ADD PUSH2 0x1067 JUMP JUMPDEST SWAP4 POP POP PUSH1 0x40 DUP6 ADD CALLDATALOAD PUSH8 0xFFFFFFFFFFFFFFFF DUP2 GT ISZERO PUSH2 0x113B JUMPI PUSH2 0x113A PUSH2 0xFB8 JUMP JUMPDEST JUMPDEST PUSH2 0x1147 DUP8 DUP3 DUP9 ADD PUSH2 0x108B JUMP JUMPDEST SWAP3 POP SWAP3 POP POP SWAP3 SWAP6 SWAP2 SWAP5 POP SWAP3 POP JUMP JUMPDEST PUSH1 0x0 PUSH20 0xFFFFFFFFFFFFFFFFFFFFFFFFFFFFFFFFFFFFFFFF DUP3 AND SWAP1 POP SWAP2 SWAP1 POP JUMP JUMPDEST PUSH1 0x0 PUSH2 0x1180 DUP3 PUSH2 0x1155 JUMP JUMPDEST SWAP1 POP SWAP2 SWAP1 POP JUMP JUMPDEST PUSH2 0x1190 DUP2 PUSH2 0x1175 JUMP JUMPDEST DUP2 EQ PUSH2 0x119B JUMPI PUSH1 0x0 DUP1 REVERT JUMPDEST POP JUMP JUMPDEST PUSH1 0x0 DUP2 CALLDATALOAD SWAP1 POP PUSH2 0x11AD DUP2 PUSH2 0x1187 JUMP JUMPDEST SWAP3 SWAP2 POP POP JUMP JUMPDEST PUSH1 0x0 DUP2 ISZERO ISZERO SWAP1 POP SWAP2 SWAP1 POP JUMP JUMPDEST PUSH2 0x11C8 DUP2 PUSH2 0x11B3 JUMP JUMPDEST DUP2 EQ PUSH2 0x11D3 JUMPI PUSH1 0x0 DUP1 REVERT JUMPDEST POP JUMP JUMPDEST PUSH1 0x0 DUP2 CALLDATALOAD SWAP1 POP PUSH2 0x11E5 DUP2 PUSH2 0x11BF JUMP JUMPDEST SWAP3 SWAP2 POP POP JUMP JUMPDEST PUSH2 0x11F4 DUP2 PUSH2 0x1155 JUMP JUMPDEST DUP2 EQ PUSH2 0x11FF JUMPI PUSH1 0x0 DUP1 REVERT JUMPDEST POP JUMP JUMPDEST PUSH1 0x0 DUP2 CALLDATALOAD SWAP1 POP PUSH2 0x1211 DUP2 PUSH2 0x11EB JUMP JUMPDEST SWAP3 SWAP2 POP POP JUMP JUMPDEST PUSH1 0x0 DUP1 PUSH1 0x0 DUP1 PUSH1 0x0 DUP1 PUSH1 0xA0 DUP8 DUP10 SUB SLT ISZERO PUSH2 0x1234 JUMPI PUSH2 0x1233 PUSH2 0xFB3 JUMP JUMPDEST JUMPDEST PUSH1 0x0 PUSH2 0x1242 DUP10 DUP3 DUP11 ADD PUSH2 0x119E JUMP JUMPDEST SWAP7 POP POP PUSH1 0x20 PUSH2 0x1253 DUP10 DUP3 DUP11 ADD PUSH2 0x11D6 JUMP JUMPDEST SWAP6 POP POP PUSH1 0x40 PUSH2 0x1264 DUP10 DUP3 DUP11 ADD PUSH2 0x1067 JUMP JUMPDEST SWAP5 POP POP PUSH1 0x60 PUSH2 0x1275 DUP10 DUP3 DUP11 ADD PUSH2 0x1202 JUMP JUMPDEST SWAP4 POP POP PUSH1 0x80 DUP8 ADD CALLDATALOAD PUSH8 0xFFFFFFFFFFFFFFFF DUP2 GT ISZERO PUSH2 0x1296 JUMPI PUSH2 0x1295 PUSH2 0xFB8 JUMP JUMPDEST JUMPDEST PUSH2 0x12A2 DUP10 DUP3 DUP11 ADD PUSH2 0x108B JUMP JUMPDEST SWAP3 POP SWAP3 POP POP SWAP3 SWAP6 POP SWAP3 SWAP6 POP SWAP3 SWAP6 JUMP JUMPDEST PUSH1 0x0 DUP2 SWAP1 POP SWAP2 SWAP1 POP JUMP JUMPDEST PUSH2 0x12C4 DUP2 PUSH2 0x12B1 JUMP JUMPDEST DUP3 MSTORE POP POP JUMP JUMPDEST PUSH1 0x0 PUSH1 0x40 DUP3 ADD SWAP1 POP PUSH2 0x12DF PUSH1 0x0 DUP4 ADD DUP6 PUSH2 0x12BB JUMP JUMPDEST PUSH2 0x12EC PUSH1 0x20 DUP4 ADD DUP5 PUSH2 0x12BB JUMP JUMPDEST SWAP4 SWAP3 POP POP POP JUMP JUMPDEST PUSH2 0x12FC DUP2 PUSH2 0x12B1 JUMP JUMPDEST DUP2 EQ PUSH2 0x1307 JUMPI PUSH1 0x0 DUP1 REVERT JUMPDEST POP JUMP JUMPDEST PUSH1 0x0 DUP2 CALLDATALOAD SWAP1 POP PUSH2 0x1319 DUP2 PUSH2 0x12F3 JUMP JUMPDEST SWAP3 SWAP2 POP POP JUMP JUMPDEST PUSH1 0x0 DUP1 PUSH1 0x0 DUP1 PUSH1 0x60 DUP6 DUP8 SUB SLT ISZERO PUSH2 0x1339 JUMPI PUSH2 0x1338 PUSH2 0xFB3 JUMP JUMPDEST JUMPDEST PUSH1 0x0 PUSH2 0x1347 DUP8 DUP3 DUP9 ADD PUSH2 0x130A JUMP JUMPDEST SWAP5 POP POP PUSH1 0x20 PUSH2 0x1358 DUP8 DUP3 DUP9 ADD PUSH2 0x130A JUMP JUMPDEST SWAP4 POP POP PUSH1 0x40 DUP6 ADD CALLDATALOAD PUSH8 0xFFFFFFFFFFFFFFFF DUP2 GT ISZERO PUSH2 0x1379 JUMPI PUSH2 0x1378 PUSH2 0xFB8 JUMP JUMPDEST JUMPDEST PUSH2 0x1385 DUP8 DUP3 DUP9 ADD PUSH2 0x108B JUMP JUMPDEST SWAP3 POP SWAP3 POP POP SWAP3 SWAP6 SWAP2 SWAP5 POP SWAP3 POP JUMP JUMPDEST PUSH1 0x0 PUSH1 0x20 DUP3 DUP5 SUB SLT ISZERO PUSH2 0x13A9 JUMPI PUSH2 0x13A8 PUSH2 0xFB3 JUMP JUMPDEST JUMPDEST PUSH1 0x0 PUSH2 0x13B7 DUP5 DUP3 DUP6 ADD PUSH2 0x119E JUMP JUMPDEST SWAP2 POP POP SWAP3 SWAP2 POP POP JUMP JUMPDEST PUSH1 0x0 DUP2 MLOAD SWAP1 POP PUSH2 0x13CF DUP2 PUSH2 0x11EB JUMP JUMPDEST SWAP3 SWAP2 POP POP JUMP JUMPDEST PUSH1 0x0 DUP2 PUSH1 0x2 SIGNEXTEND SWAP1 POP SWAP2 SWAP1 POP JUMP JUMPDEST PUSH2 0x13EB DUP2 PUSH2 0x13D5 JUMP JUMPDEST DUP2 EQ PUSH2 0x13F6 JUMPI PUSH1 0x0 DUP1 REVERT JUMPDEST POP JUMP JUMPDEST PUSH1 0x0 DUP2 MLOAD SWAP1 POP PUSH2 0x1408 DUP2 PUSH2 0x13E2 JUMP JUMPDEST SWAP3 SWAP2 POP POP JUMP JUMPDEST PUSH1 0x0 DUP1 PUSH1 0x40 DUP4 DUP6 SUB SLT ISZERO PUSH2 0x1425 JUMPI PUSH2 0x1424 PUSH2 0xFB3 JUMP JUMPDEST JUMPDEST PUSH1 0x0 PUSH2 0x1433 DUP6 DUP3 DUP7 ADD PUSH2 0x13C0 JUMP JUMPDEST SWAP3 POP POP PUSH1 0x20 PUSH2 0x1444 DUP6 DUP3 DUP7 ADD PUSH2 0x13F9 JUMP JUMPDEST SWAP2 POP POP SWAP3 POP SWAP3 SWAP1 POP JUMP JUMPDEST PUSH1 0x0 DUP2 CALLDATALOAD SWAP1 POP PUSH2 0x145D DUP2 PUSH2 0x13E2 JUMP JUMPDEST SWAP3 SWAP2 POP POP JUMP JUMPDEST PUSH1 0x0 PUSH1 0x20 DUP3 DUP5 SUB SLT ISZERO PUSH2 0x1479 JUMPI PUSH2 0x1478 PUSH2 0xFB3 JUMP JUMPDEST JUMPDEST PUSH1 0x0 PUSH2 0x1487 DUP5 DUP3 DUP6 ADD PUSH2 0x144E JUMP JUMPDEST SWAP2 POP POP SWAP3 SWAP2 POP POP JUMP JUMPDEST PUSH1 0x0 DUP2 MLOAD SWAP1 POP PUSH2 0x149F DUP2 PUSH2 0x1187 JUMP JUMPDEST SWAP3 SWAP2 POP POP JUMP JUMPDEST PUSH1 0x0 PUSH1 0x20 DUP3 DUP5 SUB SLT ISZERO PUSH2 0x14BB JUMPI PUSH2 0x14BA PUSH2 0xFB3 JUMP JUMPDEST JUMPDEST PUSH1 0x0 PUSH2 0x14C9 DUP5 DUP3 DUP6 ADD PUSH2 0x1490 JUMP JUMPDEST SWAP2 POP POP SWAP3 SWAP2 POP POP JUMP JUMPDEST PUSH2 0x14DB DUP2 PUSH2 0x1175 JUMP JUMPDEST DUP3 MSTORE POP POP JUMP JUMPDEST PUSH1 0x60 DUP3 ADD PUSH1 0x0 DUP3 ADD MLOAD PUSH2 0x14F7 PUSH1 0x0 DUP6 ADD DUP3 PUSH2 0x14D2 JUMP JUMPDEST POP PUSH1 0x20 DUP3 ADD MLOAD PUSH2 0x150A PUSH1 0x20 DUP6 ADD DUP3 PUSH2 0x14D2 JUMP JUMPDEST POP PUSH1 0x40 DUP3 ADD MLOAD PUSH2 0x151D PUSH1 0x40 DUP6 ADD DUP3 PUSH2 0x14D2 JUMP JUMPDEST POP POP POP POP JUMP JUMPDEST PUSH1 0x0 PUSH1 0x60 DUP3 ADD SWAP1 POP PUSH2 0x1538 PUSH1 0x0 DUP4 ADD DUP5 PUSH2 0x14E1 JUMP JUMPDEST SWAP3 SWAP2 POP POP JUMP JUMPDEST PUSH2 0x1547 DUP2 PUSH2 0x1175 JUMP JUMPDEST DUP3 MSTORE POP POP JUMP JUMPDEST PUSH2 0x1556 DUP2 PUSH2 0x13D5 JUMP JUMPDEST DUP3 MSTORE POP POP JUMP JUMPDEST PUSH1 0x0 PUSH16 0xFFFFFFFFFFFFFFFFFFFFFFFFFFFFFFFF DUP3 AND SWAP1 POP SWAP2 SWAP1 POP JUMP JUMPDEST PUSH2 0x1581 DUP2 PUSH2 0x155C JUMP JUMPDEST DUP3 MSTORE POP POP JUMP JUMPDEST PUSH1 0x0 DUP2 MLOAD SWAP1 POP SWAP2 SWAP1 POP JUMP JUMPDEST PUSH1 0x0 DUP3 DUP3 MSTORE PUSH1 0x20 DUP3 ADD SWAP1 POP SWAP3 SWAP2 POP POP JUMP JUMPDEST PUSH1 0x0 JUMPDEST DUP4 DUP2 LT ISZERO PUSH2 0x15C1 JUMPI DUP1 DUP3 ADD MLOAD DUP2 DUP5 ADD MSTORE PUSH1 0x20 DUP2 ADD SWAP1 POP PUSH2 0x15A6 JUMP JUMPDEST PUSH1 0x0 DUP5 DUP5 ADD MSTORE POP POP POP POP JUMP JUMPDEST PUSH1 0x0 PUSH1 0x1F NOT PUSH1 0x1F DUP4 ADD AND SWAP1 POP SWAP2 SWAP1 POP JUMP JUMPDEST PUSH1 0x0 PUSH2 0x15E9 DUP3 PUSH2 0x1587 JUMP JUMPDEST PUSH2 0x15F3 DUP2 DUP6 PUSH2 0x1592 JUMP JUMPDEST SWAP4 POP PUSH2 0x1603 DUP2 DUP6 PUSH1 0x20 DUP7 ADD PUSH2 0x15A3 JUMP JUMPDEST PUSH2 0x160C DUP2 PUSH2 0x15CD JUMP JUMPDEST DUP5 ADD SWAP2 POP POP SWAP3 SWAP2 POP POP JUMP JUMPDEST PUSH1 0x0 PUSH1 0xA0 DUP3 ADD SWAP1 POP PUSH2 0x162C PUSH1 0x0 DUP4 ADD DUP9 PUSH2 0x153E JUMP JUMPDEST PUSH2 0x1639 PUSH1 0x20 DUP4 ADD DUP8 PUSH2 0x154D JUMP JUMPDEST PUSH2 0x1646 PUSH1 0x40 DUP4 ADD DUP7 PUSH2 0x154D JUMP JUMPDEST PUSH2 0x1653 PUSH1 0x60 DUP4 ADD DUP6 PUSH2 0x1578 JUMP JUMPDEST DUP2 DUP2 SUB PUSH1 0x80 DUP4 ADD MSTORE PUSH2 0x1665 DUP2 DUP5 PUSH2 0x15DE JUMP JUMPDEST SWAP1 POP SWAP7 SWAP6 POP POP POP POP POP POP JUMP JUMPDEST PUSH1 0x0 DUP2 MLOAD SWAP1 POP PUSH2 0x1680 DUP2 PUSH2 0x1050 JUMP JUMPDEST SWAP3 SWAP2 POP POP JUMP JUMPDEST PUSH1 0x0 DUP1 PUSH1 0x40 DUP4 DUP6 SUB SLT ISZERO PUSH2 0x169D JUMPI PUSH2 0x169C PUSH2 0xFB3 JUMP JUMPDEST JUMPDEST PUSH1 0x0 PUSH2 0x16AB DUP6 DUP3 DUP7 ADD PUSH2 0x1671 JUMP JUMPDEST SWAP3 POP POP PUSH1 0x20 PUSH2 0x16BC DUP6 DUP3 DUP7 ADD PUSH2 0x1671 JUMP JUMPDEST SWAP2 POP POP SWAP3 POP SWAP3 SWAP1 POP JUMP JUMPDEST PUSH1 0x0 DUP1 REVERT JUMPDEST PUSH32 0x4E487B7100000000000000000000000000000000000000000000000000000000 PUSH1 0x0 MSTORE PUSH1 0x41 PUSH1 0x4 MSTORE PUSH1 0x24 PUSH1 0x0 REVERT JUMPDEST PUSH2 0x1703 DUP3 PUSH2 0x15CD JUMP JUMPDEST DUP2 ADD DUP2 DUP2 LT PUSH8 0xFFFFFFFFFFFFFFFF DUP3 GT OR ISZERO PUSH2 0x1722 JUMPI PUSH2 0x1721 PUSH2 0x16CB JUMP JUMPDEST JUMPDEST DUP1 PUSH1 0x40 MSTORE POP POP POP JUMP JUMPDEST PUSH1 0x0 PUSH2 0x1735 PUSH2 0xFA9 JUMP JUMPDEST SWAP1 POP PUSH2 0x1741 DUP3 DUP3 PUSH2 0x16FA JUMP JUMPDEST SWAP2 SWAP1 POP JUMP JUMPDEST PUSH1 0x0 PUSH1 0x60 DUP3 DUP5 SUB SLT ISZERO PUSH2 0x175C JUMPI PUSH2 0x175B PUSH2 0x16C6 JUMP JUMPDEST JUMPDEST PUSH2 0x1766 PUSH1 0x60 PUSH2 0x172B JUMP JUMPDEST SWAP1 POP PUSH1 0x0 PUSH2 0x1776 DUP5 DUP3 DUP6 ADD PUSH2 0x119E JUMP JUMPDEST PUSH1 0x0 DUP4 ADD MSTORE POP PUSH1 0x20 PUSH2 0x178A DUP5 DUP3 DUP6 ADD PUSH2 0x119E JUMP JUMPDEST PUSH1 0x20 DUP4 ADD MSTORE POP PUSH1 0x40 PUSH2 0x179E DUP5 DUP3 DUP6 ADD PUSH2 0x119E JUMP JUMPDEST PUSH1 0x40 DUP4 ADD MSTORE POP SWAP3 SWAP2 POP POP JUMP JUMPDEST PUSH1 0x0 PUSH1 0x60 DUP3 DUP5 SUB SLT ISZERO PUSH2 0x17C0 JUMPI PUSH2 0x17BF PUSH2 0xFB3 JUMP JUMPDEST JUMPDEST PUSH1 0x0 PUSH2 0x17CE DUP5 DUP3 DUP6 ADD PUSH2 0x1746 JUMP JUMPDEST SWAP2 POP POP SWAP3 SWAP2 POP POP JUMP JUMPDEST PUSH1 0x0 PUSH1 0x60 DUP3 ADD SWAP1 POP PUSH2 0x17EC PUSH1 0x0 DUP4 ADD DUP7 PUSH2 0x153E JUMP JUMPDEST PUSH2 0x17F9 PUSH1 0x20 DUP4 ADD DUP6 PUSH2 0x153E JUMP JUMPDEST PUSH2 0x1806 PUSH1 0x40 DUP4 ADD DUP5 PUSH2 0x1018 JUMP JUMPDEST SWAP5 SWAP4 POP POP POP POP JUMP JUMPDEST PUSH32 0x4E487B7100000000000000000000000000000000000000000000000000000000 PUSH1 0x0 MSTORE PUSH1 0x11 PUSH1 0x4 MSTORE PUSH1 0x24 PUSH1 0x0 REVERT JUMPDEST PUSH1 0x0 PUSH2 0x1848 DUP3 PUSH2 0x1155 JUMP JUMPDEST SWAP2 POP PUSH2 0x1853 DUP4 PUSH2 0x1155 JUMP JUMPDEST SWAP3 POP DUP3 DUP3 SUB SWAP1 POP PUSH20 0xFFFFFFFFFFFFFFFFFFFFFFFFFFFFFFFFFFFFFFFF DUP2 GT ISZERO PUSH2 0x187F JUMPI PUSH2 0x187E PUSH2 0x180E JUMP JUMPDEST JUMPDEST SWAP3 SWAP2 POP POP JUMP JUMPDEST PUSH1 0x0 PUSH2 0x1890 DUP3 PUSH2 0x1155 JUMP JUMPDEST SWAP2 POP PUSH2 0x189B DUP4 PUSH2 0x1155 JUMP JUMPDEST SWAP3 POP DUP3 DUP3 ADD SWAP1 POP PUSH20 0xFFFFFFFFFFFFFFFFFFFFFFFFFFFFFFFFFFFFFFFF DUP2 GT ISZERO PUSH2 0x18C7 JUMPI PUSH2 0x18C6 PUSH2 0x180E JUMP JUMPDEST JUMPDEST SWAP3 SWAP2 POP POP JUMP JUMPDEST PUSH2 0x18D6 DUP2 PUSH2 0x11B3 JUMP JUMPDEST DUP3 MSTORE POP POP JUMP JUMPDEST PUSH2 0x18E5 DUP2 PUSH2 0x1155 JUMP JUMPDEST DUP3 MSTORE POP POP JUMP JUMPDEST DUP3 DUP2 DUP4 CALLDATACOPY PUSH1 0x0 DUP4 DUP4 ADD MSTORE POP POP POP JUMP JUMPDEST PUSH1 0x0 PUSH2 0x1906 DUP4 DUP6 PUSH2 0x1592 JUMP JUMPDEST SWAP4 POP PUSH2 0x1913 DUP4 DUP6 DUP5 PUSH2 0x18EB JUMP JUMPDEST PUSH2 0x191C DUP4 PUSH2 0x15CD JUMP JUMPDEST DUP5 ADD SWAP1 POP SWAP4 SWAP3 POP POP POP JUMP JUMPDEST PUSH1 0x0 PUSH1 0xA0 DUP3 ADD SWAP1 POP PUSH2 0x193C PUSH1 0x0 DUP4 ADD DUP10 PUSH2 0x153E JUMP JUMPDEST PUSH2 0x1949 PUSH1 0x20 DUP4 ADD DUP9 PUSH2 0x18CD JUMP JUMPDEST PUSH2 0x1956 PUSH1 0x40 DUP4 ADD DUP8 PUSH2 0x1018 JUMP JUMPDEST PUSH2 0x1963 PUSH1 0x60 DUP4 ADD DUP7 PUSH2 0x18DC JUMP JUMPDEST DUP2 DUP2 SUB PUSH1 0x80 DUP4 ADD MSTORE PUSH2 0x1976 DUP2 DUP5 DUP7 PUSH2 0x18FA JUMP JUMPDEST SWAP1 POP SWAP8 SWAP7 POP POP POP POP POP POP POP JUMP JUMPDEST PUSH1 0x0 DUP2 MLOAD SWAP1 POP PUSH2 0x1992 DUP2 PUSH2 0x12F3 JUMP JUMPDEST SWAP3 SWAP2 POP POP JUMP JUMPDEST PUSH1 0x0 DUP1 PUSH1 0x40 DUP4 DUP6 SUB SLT ISZERO PUSH2 0x19AF JUMPI PUSH2 0x19AE PUSH2 0xFB3 JUMP JUMPDEST JUMPDEST PUSH1 0x0 PUSH2 0x19BD DUP6 DUP3 DUP7 ADD PUSH2 0x1983 JUMP JUMPDEST SWAP3 POP POP PUSH1 0x20 PUSH2 0x19CE DUP6 DUP3 DUP7 ADD PUSH2 0x1983 JUMP JUMPDEST SWAP2 POP POP SWAP3 POP SWAP3 SWAP1 POP JUMP JUMPDEST PUSH1 0x0 PUSH2 0x19E3 DUP3 PUSH2 0x12B1 JUMP JUMPDEST SWAP2 POP PUSH32 0x8000000000000000000000000000000000000000000000000000000000000000 DUP3 SUB PUSH2 0x1A15 JUMPI PUSH2 0x1A14 PUSH2 0x180E JUMP JUMPDEST JUMPDEST DUP2 PUSH1 0x0 SUB SWAP1 POP SWAP2 SWAP1 POP JUMP JUMPDEST PUSH1 0x0 PUSH2 0x1A2B DUP3 PUSH2 0x13D5 JUMP JUMPDEST SWAP2 POP PUSH32 0xFFFFFFFFFFFFFFFFFFFFFFFFFFFFFFFFFFFFFFFFFFFFFFFFFFFFFFFFFF800000 DUP3 SUB PUSH2 0x1A5D JUMPI PUSH2 0x1A5C PUSH2 0x180E JUMP JUMPDEST JUMPDEST DUP2 PUSH1 0x0 SUB SWAP1 POP SWAP2 SWAP1 POP JUMP JUMPDEST PUSH1 0x0 DUP3 DUP3 MSTORE PUSH1 0x20 DUP3 ADD SWAP1 POP SWAP3 SWAP2 POP POP JUMP JUMPDEST PUSH32 0x5400000000000000000000000000000000000000000000000000000000000000 PUSH1 0x0 DUP3 ADD MSTORE POP JUMP JUMPDEST PUSH1 0x0 PUSH2 0x1AAF PUSH1 0x1 DUP4 PUSH2 0x1A68 JUMP JUMPDEST SWAP2 POP PUSH2 0x1ABA DUP3 PUSH2 0x1A79 JUMP JUMPDEST PUSH1 0x20 DUP3 ADD SWAP1 POP SWAP2 SWAP1 POP JUMP JUMPDEST PUSH1 0x0 PUSH1 0x20 DUP3 ADD SWAP1 POP DUP2 DUP2 SUB PUSH1 0x0 DUP4 ADD MSTORE PUSH2 0x1ADE DUP2 PUSH2 0x1AA2 JUMP JUMPDEST SWAP1 POP SWAP2 SWAP1 POP JUMP JUMPDEST PUSH1 0x0 PUSH2 0x1AF0 DUP3 PUSH2 0x100E JUMP JUMPDEST SWAP2 POP PUSH2 0x1AFB DUP4 PUSH2 0x100E JUMP JUMPDEST SWAP3 POP DUP3 DUP3 MUL PUSH2 0x1B09 DUP2 PUSH2 0x100E JUMP JUMPDEST SWAP2 POP DUP3 DUP3 DIV DUP5 EQ DUP4 ISZERO OR PUSH2 0x1B20 JUMPI PUSH2 0x1B1F PUSH2 0x180E JUMP JUMPDEST JUMPDEST POP SWAP3 SWAP2 POP POP JUMP JUMPDEST PUSH32 0x4E487B7100000000000000000000000000000000000000000000000000000000 PUSH1 0x0 MSTORE PUSH1 0x12 PUSH1 0x4 MSTORE PUSH1 0x24 PUSH1 0x0 REVERT JUMPDEST PUSH1 0x0 PUSH2 0x1B61 DUP3 PUSH2 0x100E JUMP JUMPDEST SWAP2 POP PUSH2 0x1B6C DUP4 PUSH2 0x100E JUMP JUMPDEST SWAP3 POP DUP3 PUSH2 0x1B7C JUMPI PUSH2 0x1B7B PUSH2 0x1B27 JUMP JUMPDEST JUMPDEST DUP3 DUP3 DIV SWAP1 POP SWAP3 SWAP2 POP POP JUMP JUMPDEST PUSH1 0x0 PUSH2 0x1B92 DUP3 PUSH2 0x100E JUMP JUMPDEST SWAP2 POP PUSH2 0x1B9D DUP4 PUSH2 0x100E JUMP JUMPDEST SWAP3 POP DUP3 PUSH2 0x1BAD JUMPI PUSH2 0x1BAC PUSH2 0x1B27 JUMP JUMPDEST JUMPDEST DUP3 DUP3 MOD SWAP1 POP SWAP3 SWAP2 POP POP JUMP JUMPDEST PUSH1 0x0 PUSH2 0x1BC3 DUP3 PUSH2 0x100E JUMP JUMPDEST SWAP2 POP PUSH2 0x1BCE DUP4 PUSH2 0x100E JUMP JUMPDEST SWAP3 POP DUP3 DUP3 ADD SWAP1 POP DUP1 DUP3 GT ISZERO PUSH2 0x1BE6 JUMPI PUSH2 0x1BE5 PUSH2 0x180E JUMP JUMPDEST JUMPDEST SWAP3 SWAP2 POP POP JUMP JUMPDEST PUSH1 0x0 PUSH1 0x60 DUP3 ADD SWAP1 POP PUSH2 0x1C01 PUSH1 0x0 DUP4 ADD DUP7 PUSH2 0x1018 JUMP JUMPDEST PUSH2 0x1C0E PUSH1 0x20 DUP4 ADD DUP6 PUSH2 0x1018 JUMP JUMPDEST PUSH2 0x1C1B PUSH1 0x40 DUP4 ADD DUP5 PUSH2 0x1018 JUMP JUMPDEST SWAP5 SWAP4 POP POP POP POP JUMP INVALID LOG2 PUSH5 0x6970667358 0x22 SLT KECCAK256 0xB5 SELFBALANCE PUSH31 0x555E98780AA0E5297C588455120141DF25F673933DC6E87E99956FCAC56473 PUSH16 0x6C634300081300330000000000000000 "
				},
				"gasEstimates": {
					"creation": {
						"codeDepositCost": "1451400",
						"executionCost": "1513",
						"totalCost": "1452913"
					},
					"external": {
						"mint((address,int24,int24,uint256,uint256,uint256,uint256))": "infinite",
						"mintCallback(uint256,uint256,bytes)": "infinite",
						"swap(address,bool,uint256,uint160,bytes)": "infinite",
						"swapCallback(int256,int256,bytes)": "infinite"
					}
				},
				"methodIdentifiers": {
					"mint((address,int24,int24,uint256,uint256,uint256,uint256))": "190c1752",
					"mintCallback(uint256,uint256,bytes)": "9f382e9b",
					"swap(address,bool,uint256,uint160,bytes)": "dd5a12d8",
					"swapCallback(int256,int256,bytes)": "fa483e72"
				}
			},
			"storageLayout": {
				"storage": [],
				"types": null
			},
			"userdoc": {
				"errors": {
					"PRBMath_MulDiv_Overflow(uint256,uint256,uint256)": [
						{
							"notice": "Thrown when the resultant value in {mulDiv} overflows uint256."
						}
					]
				},
				"kind": "user",
				"methods": {},
				"version": 1
			}
		}
	}
}