{
	"data": {
		"bytecode": {
			"linkReferences": {},
			"object": "608060405234801561000f575f80fd5b50600a60035f6101f462ffffff1681526020019081526020015f205f6101000a81548162ffffff021916908362ffffff160217905550603c60035f610bb862ffffff1681526020019081526020015f205f6101000a81548162ffffff021916908362ffffff1602179055506177f7806100875f395ff3fe608060405234801562000010575f80fd5b50600436106200005c575f3560e01c80636441c78014620000605780638903573014620000965780638f14e2c614620000bc578063a167129514620000e2578063bae0d9181462000118575b5f80fd5b6200007e600480360381019062000078919062000a08565b6200014e565b6040516200008d919062000a49565b60405180910390f35b620000a06200016d565b604051620000b395949392919062000aa7565b60405180910390f35b620000c662000179565b604051620000d995949392919062000aa7565b60405180910390f35b620001006004803603810190620000fa919062000b31565b62000216565b6040516200010f919062000b8a565b60405180910390f35b62000136600480360381019062000130919062000b31565b62000971565b60405162000145919062000b8a565b60405180910390f35b6003602052805f5260405f205f915054906101000a900462ffffff1681565b5f805f805f9091929394565b5f805f015f9054906101000a900473ffffffffffffffffffffffffffffffffffffffff1690806001015f9054906101000a900473ffffffffffffffffffffffffffffffffffffffff1690806002015f9054906101000a900473ffffffffffffffffffffffffffffffffffffffff16908060020160149054906101000a900462ffffff16908060020160179054906101000a900462ffffff16905085565b5f8273ffffffffffffffffffffffffffffffffffffffff168473ffffffffffffffffffffffffffffffffffffffff16036200027d576040517ffbfc7a9100000000000000000000000000000000000000000000000000000000815260040160405180910390fd5b5f60035f8462ffffff1662ffffff1681526020019081526020015f205f9054906101000a900462ffffff1662ffffff1603620002e5576040517f271d3eec00000000000000000000000000000000000000000000000000000000815260040160405180910390fd5b8273ffffffffffffffffffffffffffffffffffffffff168473ffffffffffffffffffffffffffffffffffffffff16106200032157828462000324565b83835b80945081955050505f73ffffffffffffffffffffffffffffffffffffffff168473ffffffffffffffffffffffffffffffffffffffff160362000392576040517f8579befe00000000000000000000000000000000000000000000000000000000815260040160405180910390fd5b5f73ffffffffffffffffffffffffffffffffffffffff1660045f8673ffffffffffffffffffffffffffffffffffffffff1673ffffffffffffffffffffffffffffffffffffffff1681526020019081526020015f205f8573ffffffffffffffffffffffffffffffffffffffff1673ffffffffffffffffffffffffffffffffffffffff1681526020019081526020015f205f8462ffffff1662ffffff1681526020019081526020015f205f9054906101000a900473ffffffffffffffffffffffffffffffffffffffff1673ffffffffffffffffffffffffffffffffffffffff1614620004a8576040517f0311932200000000000000000000000000000000000000000000000000000000815260040160405180910390fd5b6040518060a001604052803073ffffffffffffffffffffffffffffffffffffffff1681526020018573ffffffffffffffffffffffffffffffffffffffff1681526020018473ffffffffffffffffffffffffffffffffffffffff16815260200160035f8562ffffff1662ffffff1681526020019081526020015f205f9054906101000a900462ffffff1662ffffff1681526020018362ffffff168152505f80820151815f015f6101000a81548173ffffffffffffffffffffffffffffffffffffffff021916908373ffffffffffffffffffffffffffffffffffffffff1602179055506020820151816001015f6101000a81548173ffffffffffffffffffffffffffffffffffffffff021916908373ffffffffffffffffffffffffffffffffffffffff1602179055506040820151816002015f6101000a81548173ffffffffffffffffffffffffffffffffffffffff021916908373ffffffffffffffffffffffffffffffffffffffff16021790555060608201518160020160146101000a81548162ffffff021916908362ffffff16021790555060808201518160020160176101000a81548162ffffff021916908362ffffff160217905550905050838383604051602001620006799392919062000c2c565b604051602081830303815290604052805190602001206040516200069d90620009b9565b8190604051809103905ff5905080158015620006bb573d5f803e3d5ffd5b5090505f805f82015f6101000a81549073ffffffffffffffffffffffffffffffffffffffff0219169055600182015f6101000a81549073ffffffffffffffffffffffffffffffffffffffff0219169055600282015f6101000a81549073ffffffffffffffffffffffffffffffffffffffff02191690556002820160146101000a81549062ffffff02191690556002820160176101000a81549062ffffff021916905550508060045f8673ffffffffffffffffffffffffffffffffffffffff1673ffffffffffffffffffffffffffffffffffffffff1681526020019081526020015f205f8573ffffffffffffffffffffffffffffffffffffffff1673ffffffffffffffffffffffffffffffffffffffff1681526020019081526020015f205f8462ffffff1662ffffff1681526020019081526020015f205f6101000a81548173ffffffffffffffffffffffffffffffffffffffff021916908373ffffffffffffffffffffffffffffffffffffffff1602179055508060045f8573ffffffffffffffffffffffffffffffffffffffff1673ffffffffffffffffffffffffffffffffffffffff1681526020019081526020015f205f8673ffffffffffffffffffffffffffffffffffffffff1673ffffffffffffffffffffffffffffffffffffffff1681526020019081526020015f205f8462ffffff1662ffffff1681526020019081526020015f205f6101000a81548173ffffffffffffffffffffffffffffffffffffffff021916908373ffffffffffffffffffffffffffffffffffffffff1602179055508162ffffff168373ffffffffffffffffffffffffffffffffffffffff168573ffffffffffffffffffffffffffffffffffffffff167f97d23878912fda7f82bd5a8502f2c6e9086f5a4728f9054627788b3162f86ced8460405162000962919062000b8a565b60405180910390a49392505050565b6004602052825f5260405f20602052815f5260405f20602052805f5260405f205f92509250509054906101000a900473ffffffffffffffffffffffffffffffffffffffff1681565b616b538062000c6f83390190565b5f80fd5b5f62ffffff82169050919050565b620009e481620009cb565b8114620009ef575f80fd5b50565b5f8135905062000a0281620009d9565b92915050565b5f6020828403121562000a205762000a1f620009c7565b5b5f62000a2f84828501620009f2565b91505092915050565b62000a4381620009cb565b82525050565b5f60208201905062000a5e5f83018462000a38565b92915050565b5f73ffffffffffffffffffffffffffffffffffffffff82169050919050565b5f62000a8f8262000a64565b9050919050565b62000aa18162000a83565b82525050565b5f60a08201905062000abc5f83018862000a96565b62000acb602083018762000a96565b62000ada604083018662000a96565b62000ae9606083018562000a38565b62000af8608083018462000a38565b9695505050505050565b62000b0d8162000a83565b811462000b18575f80fd5b50565b5f8135905062000b2b8162000b02565b92915050565b5f805f6060848603121562000b4b5762000b4a620009c7565b5b5f62000b5a8682870162000b1b565b935050602062000b6d8682870162000b1b565b925050604062000b8086828701620009f2565b9150509250925092565b5f60208201905062000b9f5f83018462000a96565b92915050565b5f8160601b9050919050565b5f62000bbd8262000ba5565b9050919050565b5f62000bd08262000bb1565b9050919050565b62000bec62000be68262000a83565b62000bc4565b82525050565b5f8160e81b9050919050565b5f62000c0a8262000bf2565b9050919050565b62000c2662000c2082620009cb565b62000bfe565b82525050565b5f62000c39828662000bd7565b60148201915062000c4b828562000bd7565b60148201915062000c5d828462000c11565b60038201915081905094935050505056fe61012060405234801562000011575f80fd5b503373ffffffffffffffffffffffffffffffffffffffff1663890357306040518163ffffffff1660e01b815260040160a060405180830381865afa1580156200005c573d5f803e3d5ffd5b505050506040513d601f19601f82011682018060405250810190620000829190620001eb565b8062ffffff166101009062ffffff168152508162ffffff1660e09062ffffff168152508273ffffffffffffffffffffffffffffffffffffffff1660c09073ffffffffffffffffffffffffffffffffffffffff168152508373ffffffffffffffffffffffffffffffffffffffff1660a09073ffffffffffffffffffffffffffffffffffffffff168152508473ffffffffffffffffffffffffffffffffffffffff1660809073ffffffffffffffffffffffffffffffffffffffff1681525050505050506200026f565b5f80fd5b5f73ffffffffffffffffffffffffffffffffffffffff82169050919050565b5f62000178826200014d565b9050919050565b6200018a816200016c565b811462000195575f80fd5b50565b5f81519050620001a8816200017f565b92915050565b5f62ffffff82169050919050565b620001c781620001ae565b8114620001d2575f80fd5b50565b5f81519050620001e581620001bc565b92915050565b5f805f805f60a0868803121562000207576200020662000149565b5b5f620002168882890162000198565b9550506020620002298882890162000198565b94505060406200023c8882890162000198565b93505060606200024f88828901620001d5565b92505060806200026288828901620001d5565b9150509295509295909350565b60805160a05160c05160e051610100516168286200032b5f395f818161090b015281816109410152818161197f015261220401525f81816114e20152818161185901528181612652015261269301525f8181610a0f01528181610b4301528181610d21015281816110d70152818161150601528181611ea101526128e901525f818161045f0152818161097301528181610ab201528181610c4401528181610fcf01528181611ffb015261284a01525f6114be01526168285ff3fe608060405234801561000f575f80fd5b5060043610610135575f3560e01c80635339c296116100b6578063d21220a71161007a578063d21220a714610382578063dd5a12d8146103a0578063ddca3f43146103d1578063f3058399146103ef578063f30dba931461040d578063f637731d1461044157610135565b80635339c296146102b5578063883bdbfd146102e5578063a34123a714610315578063c45a015514610346578063d0c93a7c1461036457610135565b80633c8a7d8d116100fd5780633c8a7d8d146101e557806346141319146102165780634a182392146102345780634f1eb3d814610250578063514ea4bf1461028157610135565b80630dfe1681146101395780631a68650214610157578063252c09d71461017557806332148f67146101a75780633850c7bd146101c3575b5f80fd5b61014161045d565b60405161014e9190614f74565b60405180910390f35b61015f610481565b60405161016c9190614fb7565b60405180910390f35b61018f600480360381019061018a919061500b565b6104a2565b60405161019e93929190615089565b60405180910390f35b6101c160048036038101906101bc91906150f5565b6104f4565b005b6101cb610590565b6040516101dc959493929190615159565b60405180910390f35b6101ff60048036038101906101fa9190615289565b610605565b60405161020d92919061532e565b60405180910390f35b61021e6108fe565b60405161022b9190615355565b60405180910390f35b61024e6004803603810190610249919061536e565b610904565b005b61026a600480360381019061026591906153df565b610e4a565b604051610278929190615456565b60405180910390f35b61029b600480360381019061029691906154b0565b6111c3565b6040516102ac9594939291906154db565b60405180910390f35b6102cf60048036038101906102ca9190615562565b611247565b6040516102dc9190615355565b60405180910390f35b6102ff60048036038101906102fa91906155e2565b61125c565b60405161030c91906156e4565b60405180910390f35b61032f600480360381019061032a9190615704565b6112fe565b60405161033d92919061532e565b60405180910390f35b61034e6114bc565b60405161035b9190614f74565b60405180910390f35b61036c6114e0565b6040516103799190615771565b60405180910390f35b61038a611504565b6040516103979190614f74565b60405180910390f35b6103ba60048036038101906103b591906157de565b611528565b6040516103c892919061588c565b60405180910390f35b6103d9612202565b6040516103e69190615771565b60405180910390f35b6103f7612226565b6040516104049190615355565b60405180910390f35b610427600480360381019061042291906158b3565b61222b565b6040516104389594939291906158f9565b60405180910390f35b61045b6004803603810190610456919061594a565b612290565b005b7f000000000000000000000000000000000000000000000000000000000000000081565b60035f9054906101000a90046fffffffffffffffffffffffffffffffff1681565b60078161ffff81106104b2575f80fd5b015f91509050805f015f9054906101000a900463ffffffff1690805f0160049054906101000a900460060b90805f01600b9054906101000a900460ff16905083565b5f60025f01601b9054906101000a900461ffff1690505f610521828460076124579092919063ffffffff16565b90508161ffff168161ffff161461058b578060025f01601b6101000a81548161ffff021916908361ffff1602179055507fac49e518f90a358f652e4400164f05a5d8f7e35e7747279bc3a93dbf584e125a8282604051610582929190615975565b60405180910390a15b505050565b6002805f015f9054906101000a900473ffffffffffffffffffffffffffffffffffffffff1690805f0160149054906101000a900460020b90805f0160179054906101000a900461ffff1690805f0160199054906101000a900461ffff1690805f01601b9054906101000a900461ffff16905085565b5f808560020b8760020b12158061064157507ffffffffffffffffffffffffffffffffffffffffffffffffffffffffffff2761860020b8760020b125b8061067a57507ffffffffffffffffffffffffffffffffffffffffffffffffffffffffffff27618610671906159c9565b60020b8660020b135b156106b1576040517f064847d000000000000000000000000000000000000000000000000000000000815260040160405180910390fd5b5f856fffffffffffffffffffffffffffffffff16036106fc576040517f1007454800000000000000000000000000000000000000000000000000000000815260040160405180910390fd5b5f8061074660405180608001604052808c73ffffffffffffffffffffffffffffffffffffffff1681526020018b60020b81526020018a60020b815260200189600f0b8152506124d7565b92509250508193508092505f805f86111561076657610763612847565b91505b5f851115610779576107766128e6565b90505b3373ffffffffffffffffffffffffffffffffffffffff16639f382e9b87878b8b6040518563ffffffff1660e01b81526004016107b89493929190615a69565b5f604051808303815f87803b1580156107cf575f80fd5b505af11580156107e1573d5f803e3d5ffd5b505050505f8611801561080557506107f7612847565b86836108039190615aa7565b115b1561083c576040517f098fb56100000000000000000000000000000000000000000000000000000000815260040160405180910390fd5b5f8511801561085c575061084e6128e6565b858261085a9190615aa7565b115b15610893576040517f098fb56100000000000000000000000000000000000000000000000000000000815260040160405180910390fd5b8960020b8b60020b8d73ffffffffffffffffffffffffffffffffffffffff167f7a53080ba414158be7ec69b987b5fb7d07dee101fe85488f0853ae16239d0bde338d8b8b6040516108e79493929190615ada565b60405180910390a450505050965096945050505050565b60015481565b5f610938857f000000000000000000000000000000000000000000000000000000000000000062ffffff16620f4240612985565b90505f61096e857f000000000000000000000000000000000000000000000000000000000000000062ffffff16620f4240612985565b90505f7f000000000000000000000000000000000000000000000000000000000000000073ffffffffffffffffffffffffffffffffffffffff166370a08231306040518263ffffffff1660e01b81526004016109ca9190614f74565b6020604051808303815f875af11580156109e6573d5f803e3d5ffd5b505050506040513d601f19601f82011682018060405250810190610a0a9190615b31565b90505f7f000000000000000000000000000000000000000000000000000000000000000073ffffffffffffffffffffffffffffffffffffffff166370a08231306040518263ffffffff1660e01b8152600401610a669190614f74565b6020604051808303815f875af1158015610a82573d5f803e3d5ffd5b505050506040513d601f19601f82011682018060405250810190610aa69190615b31565b90505f881115610b39577f000000000000000000000000000000000000000000000000000000000000000073ffffffffffffffffffffffffffffffffffffffff1663a9059cbb338a6040518363ffffffff1660e01b8152600401610b0b929190615b5c565b5f604051808303815f87803b158015610b22575f80fd5b505af1158015610b34573d5f803e3d5ffd5b505050505b5f871115610bca577f000000000000000000000000000000000000000000000000000000000000000073ffffffffffffffffffffffffffffffffffffffff1663a9059cbb33896040518363ffffffff1660e01b8152600401610b9c929190615b5c565b5f604051808303815f87803b158015610bb3575f80fd5b505af1158015610bc5573d5f803e3d5ffd5b505050505b3373ffffffffffffffffffffffffffffffffffffffff1663c3924ed6858589896040518563ffffffff1660e01b8152600401610c099493929190615a69565b5f604051808303815f87803b158015610c20575f80fd5b505af1158015610c32573d5f803e3d5ffd5b505050508382610c429190615aa7565b7f000000000000000000000000000000000000000000000000000000000000000073ffffffffffffffffffffffffffffffffffffffff166370a08231306040518263ffffffff1660e01b8152600401610c9b9190614f74565b6020604051808303815f875af1158015610cb7573d5f803e3d5ffd5b505050506040513d601f19601f82011682018060405250810190610cdb9190615b31565b1015610d13576040517f7bc35e0500000000000000000000000000000000000000000000000000000000815260040160405180910390fd5b8281610d1f9190615aa7565b7f000000000000000000000000000000000000000000000000000000000000000073ffffffffffffffffffffffffffffffffffffffff166370a08231306040518263ffffffff1660e01b8152600401610d789190614f74565b6020604051808303815f875af1158015610d94573d5f803e3d5ffd5b505050506040513d601f19601f82011682018060405250810190610db89190615b31565b1015610df0576040517f7bc35e0500000000000000000000000000000000000000000000000000000000815260040160405180910390fd5b3373ffffffffffffffffffffffffffffffffffffffff167f1c1db1f1d6a01e51fec24bb54087b65fe5430f692280e70d92f718eb72ae76b78989604051610e3892919061532e565b60405180910390a25050505050505050565b5f805f610e6533888860066129ed909392919063ffffffff16565b9050806003015f9054906101000a90046fffffffffffffffffffffffffffffffff166fffffffffffffffffffffffffffffffff16856fffffffffffffffffffffffffffffffff1611610eb75784610ed8565b806003015f9054906101000a90046fffffffffffffffffffffffffffffffff165b92508060030160109054906101000a90046fffffffffffffffffffffffffffffffff166fffffffffffffffffffffffffffffffff16846fffffffffffffffffffffffffffffffff1611610f2b5783610f4d565b8060030160109054906101000a90046fffffffffffffffffffffffffffffffff165b91505f836fffffffffffffffffffffffffffffffff1611156110565782816003015f8282829054906101000a90046fffffffffffffffffffffffffffffffff16610f979190615b83565b92506101000a8154816fffffffffffffffffffffffffffffffff02191690836fffffffffffffffffffffffffffffffff1602179055507f000000000000000000000000000000000000000000000000000000000000000073ffffffffffffffffffffffffffffffffffffffff1663a9059cbb89856040518363ffffffff1660e01b8152600401611028929190615bff565b5f604051808303815f87803b15801561103f575f80fd5b505af1158015611051573d5f803e3d5ffd5b505050505b5f826fffffffffffffffffffffffffffffffff16111561115e57818160030160108282829054906101000a90046fffffffffffffffffffffffffffffffff1661109f9190615b83565b92506101000a8154816fffffffffffffffffffffffffffffffff02191690836fffffffffffffffffffffffffffffffff1602179055507f000000000000000000000000000000000000000000000000000000000000000073ffffffffffffffffffffffffffffffffffffffff1663a9059cbb89846040518363ffffffff1660e01b8152600401611130929190615bff565b5f604051808303815f87803b158015611147575f80fd5b505af1158015611159573d5f803e3d5ffd5b505050505b8560020b8760020b3373ffffffffffffffffffffffffffffffffffffffff167fa89c1c8a741251492622c95237828c75d1dbb03ea956f09e3792ff2a14f4fe628b87876040516111b093929190615c26565b60405180910390a4509550959350505050565b6006602052805f5260405f205f91509050805f015f9054906101000a90046fffffffffffffffffffffffffffffffff1690806001015490806002015490806003015f9054906101000a90046fffffffffffffffffffffffffffffffff16908060030160109054906101000a90046fffffffffffffffffffffffffffffffff16905085565b6005602052805f5260405f205f915090505481565b60606112f6611269612a32565b8484808060200260200160405190810160405280939291908181526020018383602002808284375f81840152601f19601f8201169050808301925050505050505060025f0160149054906101000a900460020b60025f0160179054906101000a900461ffff1660025f0160199054906101000a900461ffff166007612a399095949392919063ffffffff16565b905092915050565b5f805f805f61135460405180608001604052803373ffffffffffffffffffffffffffffffffffffffff1681526020018a60020b81526020018960020b81526020018861134990615c5b565b600f0b8152506124d7565b9250925092508161136490615ca1565b94508061137090615ca1565b93505f85118061137f57505f84115b156114575784836003015f9054906101000a90046fffffffffffffffffffffffffffffffff166113af9190615ce7565b848460030160109054906101000a90046fffffffffffffffffffffffffffffffff166113db9190615ce7565b846003015f8660030160108491906101000a8154816fffffffffffffffffffffffffffffffff02191690836fffffffffffffffffffffffffffffffff1602179055508391906101000a8154816fffffffffffffffffffffffffffffffff02191690836fffffffffffffffffffffffffffffffff16021790555050505b8660020b8860020b3373ffffffffffffffffffffffffffffffffffffffff167f0c396cd989a39f4459b5fa1aed6a9a8dcdbc45908acfd67e028cd568da98982c8989896040516114a993929190615d2a565b60405180910390a4505050935093915050565b7f000000000000000000000000000000000000000000000000000000000000000081565b7f000000000000000000000000000000000000000000000000000000000000000081565b7f000000000000000000000000000000000000000000000000000000000000000081565b5f805f60026040518060a00160405290815f82015f9054906101000a900473ffffffffffffffffffffffffffffffffffffffff1673ffffffffffffffffffffffffffffffffffffffff1673ffffffffffffffffffffffffffffffffffffffff1681526020015f820160149054906101000a900460020b60020b60020b81526020015f820160179054906101000a900461ffff1661ffff1661ffff1681526020015f820160199054906101000a900461ffff1661ffff1661ffff1681526020015f8201601b9054906101000a900461ffff1661ffff1661ffff168152505090505f60035f9054906101000a90046fffffffffffffffffffffffffffffffff169050886116ae57815f015173ffffffffffffffffffffffffffffffffffffffff168773ffffffffffffffffffffffffffffffffffffffff1610806116a9575073fffd8963efd1fc6a506488495d951d5263988d2673ffffffffffffffffffffffffffffffffffffffff168773ffffffffffffffffffffffffffffffffffffffff16115b61171c565b815f015173ffffffffffffffffffffffffffffffffffffffff168773ffffffffffffffffffffffffffffffffffffffff16118061171b57506401000276a373ffffffffffffffffffffffffffffffffffffffff168773ffffffffffffffffffffffffffffffffffffffff16105b5b15611753576040517fb53bbacc00000000000000000000000000000000000000000000000000000000815260040160405180910390fd5b5f6040518060c001604052808a81526020015f8152602001845f015173ffffffffffffffffffffffffffffffffffffffff168152602001846020015160020b81526020018b6117a4576001546117a7565b5f545b8152602001836fffffffffffffffffffffffffffffffff1681525090505b5f815f015111801561180757508773ffffffffffffffffffffffffffffffffffffffff16816040015173ffffffffffffffffffffffffffffffffffffffff1614155b15611c6757611814614ea5565b8160400151815f019073ffffffffffffffffffffffffffffffffffffffff16908173ffffffffffffffffffffffffffffffffffffffff168152505061188b82606001517f00000000000000000000000000000000000000000000000000000000000000008d6005612af9909392919063ffffffff16565b826020018360400182151515158152508260020b60020b81525050506118b48160200151612cd7565b816060019073ffffffffffffffffffffffffffffffffffffffff16908173ffffffffffffffffffffffffffffffffffffffff16815250506119a382604001518c611930578a73ffffffffffffffffffffffffffffffffffffffff16836060015173ffffffffffffffffffffffffffffffffffffffff1611611964565b8a73ffffffffffffffffffffffffffffffffffffffff16836060015173ffffffffffffffffffffffffffffffffffffffff16105b611972578260600151611974565b8a5b8460a00151855f01517f000000000000000000000000000000000000000000000000000000000000000061318b565b85604001856080018660a0018760c0018481525084815250848152508473ffffffffffffffffffffffffffffffffffffffff1673ffffffffffffffffffffffffffffffffffffffff16815250505050508060c001518160800151611a079190615aa7565b825f01818151611a179190615d5f565b915081815250508060a0015182602001818151611a349190615aa7565b915081815250505f8260a001516fffffffffffffffffffffffffffffffff161115611aa857611a8f8160c001517001000000000000000000000000000000008460a001516fffffffffffffffffffffffffffffffff16613308565b82608001818151611aa09190615aa7565b915081815250505b806060015173ffffffffffffffffffffffffffffffffffffffff16826040015173ffffffffffffffffffffffffffffffffffffffff1603611c0757806040015115611bd0575f611b2d82602001518d611b02575f54611b08565b84608001515b8e611b17578560800151611b1b565b6001545b600461341a909392919063ffffffff16565b90508b15611b425780611b3f90615c5b565b90505b611b508360a0015182613480565b8360a001906fffffffffffffffffffffffffffffffff1690816fffffffffffffffffffffffffffffffff16815250505f8360a001516fffffffffffffffffffffffffffffffff1603611bce576040517f4323a55500000000000000000000000000000000000000000000000000000000815260040160405180910390fd5b505b8a611bdf578060200151611bf1565b60018160200151611bf09190615d92565b5b826060019060020b908160020b81525050611c61565b805f015173ffffffffffffffffffffffffffffffffffffffff16826040015173ffffffffffffffffffffffffffffffffffffffff1614611c6057611c4e82604001516134bd565b826060019060020b908160020b815250505b5b506117c5565b826020015160020b816060015160020b14611d78575f80611cb18560400151611c8e612a32565b87602001518860600151896080015160076138b49095949392919063ffffffff16565b9150915082604001518360600151838360025f015f60025f01601460025f01601760025f0160198891906101000a81548161ffff021916908361ffff1602179055508791906101000a81548161ffff021916908361ffff1602179055508691906101000a81548162ffffff021916908360020b62ffffff1602179055508591906101000a81548173ffffffffffffffffffffffffffffffffffffffff021916908373ffffffffffffffffffffffffffffffffffffffff160217905550505050505050611dbf565b806040015160025f015f6101000a81548173ffffffffffffffffffffffffffffffffffffffff021916908373ffffffffffffffffffffffffffffffffffffffff1602179055505b8060a001516fffffffffffffffffffffffffffffffff16826fffffffffffffffffffffffffffffffff1614611e2b578060a0015160035f6101000a8154816fffffffffffffffffffffffffffffffff02191690836fffffffffffffffffffffffffffffffff1602179055505b8915611e405780608001515f81905550611e4c565b80608001516001819055505b89611e73578060200151611e5f90615ca1565b815f01518a611e6e9190615d5f565b611e91565b805f015189611e829190615d5f565b8160200151611e9090615ca1565b5b80955081965050508915611ff9577f000000000000000000000000000000000000000000000000000000000000000073ffffffffffffffffffffffffffffffffffffffff1663a9059cbb8c86611ee690615ca1565b6040518363ffffffff1660e01b8152600401611f03929190615b5c565b5f604051808303815f87803b158015611f1a575f80fd5b505af1158015611f2c573d5f803e3d5ffd5b505050505f611f39612847565b90503373ffffffffffffffffffffffffffffffffffffffff1663fa483e7287878b8b6040518563ffffffff1660e01b8152600401611f7a9493929190615dec565b5f604051808303815f87803b158015611f91575f80fd5b505af1158015611fa3573d5f803e3d5ffd5b50505050611faf612847565b8682611fbb9190615aa7565b1115611ff3576040517f098fb56100000000000000000000000000000000000000000000000000000000815260040160405180910390fd5b5061214f565b7f000000000000000000000000000000000000000000000000000000000000000073ffffffffffffffffffffffffffffffffffffffff1663a9059cbb8c8761204090615ca1565b6040518363ffffffff1660e01b815260040161205d929190615b5c565b5f604051808303815f87803b158015612074575f80fd5b505af1158015612086573d5f803e3d5ffd5b505050505f6120936128e6565b90503373ffffffffffffffffffffffffffffffffffffffff1663fa483e7287878b8b6040518563ffffffff1660e01b81526004016120d49493929190615dec565b5f604051808303815f87803b1580156120eb575f80fd5b505af11580156120fd573d5f803e3d5ffd5b505050506121096128e6565b85826121159190615aa7565b111561214d576040517f098fb56100000000000000000000000000000000000000000000000000000000815260040160405180910390fd5b505b8a73ffffffffffffffffffffffffffffffffffffffff163373ffffffffffffffffffffffffffffffffffffffff167fc42079f94a6350d7e6235f29174924f928cc2ac818eb64fed8004e115fbcca67878760025f015f9054906101000a900473ffffffffffffffffffffffffffffffffffffffff168660a0015160025f0160149054906101000a900460020b6040516121ec959493929190615e2a565b60405180910390a3505050965096945050505050565b7f000000000000000000000000000000000000000000000000000000000000000081565b5f5481565b6004602052805f5260405f205f91509050805f015f9054906101000a900460ff1690805f0160019054906101000a90046fffffffffffffffffffffffffffffffff1690806001015f9054906101000a9004600f0b908060020154908060030154905085565b5f60025f015f9054906101000a900473ffffffffffffffffffffffffffffffffffffffff1673ffffffffffffffffffffffffffffffffffffffff1614612302576040517f0dc149f000000000000000000000000000000000000000000000000000000000815260040160405180910390fd5b5f61230c826134bd565b90505f8061232b61231b612a32565b6007613a5490919063ffffffff16565b915091506040518060a001604052808573ffffffffffffffffffffffffffffffffffffffff1681526020018460020b81526020015f61ffff1681526020018361ffff1681526020018261ffff1681525060025f820151815f015f6101000a81548173ffffffffffffffffffffffffffffffffffffffff021916908373ffffffffffffffffffffffffffffffffffffffff1602179055506020820151815f0160146101000a81548162ffffff021916908360020b62ffffff1602179055506040820151815f0160176101000a81548161ffff021916908361ffff1602179055506060820151815f0160196101000a81548161ffff021916908361ffff1602179055506080820151815f01601b6101000a81548161ffff021916908361ffff16021790555090505050505050565b5f8261ffff168261ffff161161246f578290506124d0565b5f8390505b8261ffff168161ffff1610156124cb576001858261ffff1661ffff811061249e5761249d615e7b565b5b015f015f6101000a81548163ffffffff021916908363ffffffff1602179055508080600101915050612474565b508190505b9392505050565b5f805f8060026040518060a00160405290815f82015f9054906101000a900473ffffffffffffffffffffffffffffffffffffffff1673ffffffffffffffffffffffffffffffffffffffff1673ffffffffffffffffffffffffffffffffffffffff1681526020015f820160149054906101000a900460020b60020b60020b81526020015f820160179054906101000a900461ffff1661ffff1661ffff1681526020015f820160199054906101000a900461ffff1661ffff1661ffff1681526020015f8201601b9054906101000a900461ffff1661ffff1661ffff168152505090505f805490505f60015490506125e5875f01518860200151896040015160066129ed909392919063ffffffff16565b95505f612612886020015185602001518a6060015186865f6004613b16909695949392919063ffffffff16565b90505f612640896040015186602001518b60600151878760016004613b16909695949392919063ffffffff16565b905081156126835761268289602001517f00000000000000000000000000000000000000000000000000000000000000006005613cba9092919063ffffffff16565b5b80156126c4576126c389604001517f00000000000000000000000000000000000000000000000000000000000000006005613cba9092919063ffffffff16565b5b5f806126ee8b602001518c60400151896020015189896004613d239095949392919063ffffffff16565b9150915061270d8b6060015183838d613e29909392919063ffffffff16565b8a6020015160020b876020015160020b12156127515761274a6127338c60200151612cd7565b6127408d60400151612cd7565b8d6060015161405f565b9850612839565b8a6040015160020b876020015160020b121561280e57612785875f015161277b8d60400151612cd7565b8d6060015161405f565b98506127a56127978c60200151612cd7565b885f01518d606001516140a4565b97506127d260035f9054906101000a90046fffffffffffffffffffffffffffffffff168c60600151613480565b60035f6101000a8154816fffffffffffffffffffffffffffffffff02191690836fffffffffffffffffffffffffffffffff160217905550612838565b61283561281e8c60200151612cd7565b61282b8d60400151612cd7565b8d606001516140a4565b97505b5b505050505050509193909250565b5f7f000000000000000000000000000000000000000000000000000000000000000073ffffffffffffffffffffffffffffffffffffffff166370a08231306040518263ffffffff1660e01b81526004016128a19190614f74565b6020604051808303815f875af11580156128bd573d5f803e3d5ffd5b505050506040513d601f19601f820116820180604052508101906128e19190615b31565b905090565b5f7f000000000000000000000000000000000000000000000000000000000000000073ffffffffffffffffffffffffffffffffffffffff166370a08231306040518263ffffffff1660e01b81526004016129409190614f74565b6020604051808303815f875af115801561295c573d5f803e3d5ffd5b505050506040513d601f19601f820116820180604052508101906129809190615b31565b905090565b5f612991848484613308565b90505f82806129a3576129a2615ea8565b5b84860911156129e6577fffffffffffffffffffffffffffffffffffffffffffffffffffffffffffffffff81106129d7575f80fd5b80806129e290615ed5565b9150505b9392505050565b5f845f858585604051602001612a0593929190615f95565b6040516020818303038152906040528051906020012081526020019081526020015f209050949350505050565b5f42905090565b6060845167ffffffffffffffff811115612a5657612a55615fd1565b5b604051908082528060200260200182016040528015612a845781602001602082028036833780820191505090505b5090505f5b8551811015612aee57612aba8888888481518110612aaa57612aa9615e7b565b5b60200260200101518888886140e9565b828281518110612acd57612acc615e7b565b5b602002602001019060060b908160060b815250508080600101915050612a89565b509695505050505050565b5f805f8486612b089190615ffe565b90505f8660020b128015612b2a57505f8587612b249190616066565b60020b14155b15612b3e578080612b3a90616096565b9150505b8315612bfb575f80612b4f83614294565b915091505f8160ff166001901b60018360ff166001901b612b709190615d5f565b612b7a9190615aa7565b90505f818b5f8660010b60010b81526020019081526020015f20541690505f811415955085612bc257888360ff1686612bb39190615d92565b612bbd91906160dd565b612bf0565b88612bcc826142b5565b84612bd79190616125565b60ff1686612be59190615d92565b612bef91906160dd565b5b965050505050612ccd565b5f80612c12600184612c0d9190616159565b614294565b915091505f60018260ff166001901b612c2b9190615d5f565b1990505f818b5f8660010b60010b81526020019081526020015f20541690505f811415955085612c8c57888360ff612c639190616125565b60ff16600187612c739190616159565b612c7d9190616159565b612c8791906160dd565b612cc6565b8883612c97836143d6565b612ca19190616125565b60ff16600187612cb19190616159565b612cbb9190616159565b612cc591906160dd565b5b9650505050505b5094509492505050565b5f805f8360020b12612cec578260020b612cfa565b8260020b612cf990615ca1565b5b90507ffffffffffffffffffffffffffffffffffffffffffffffffffffffffffff27618612d26906159c9565b62ffffff16811115612d6d576040517f08c379a0000000000000000000000000000000000000000000000000000000008152600401612d649061620d565b60405180910390fd5b5f806001831603612d8f57700100000000000000000000000000000000612da1565b6ffffcb933bd6fad37aa2d162d1a5940015b70ffffffffffffffffffffffffffffffffff1690505f6002831614612de35760806ffff97272373d413259a46990580e213a82612dde919061622b565b901c90505b5f6004831614612e105760806ffff2e50f5f656932ef12357cf3c7fdcc82612e0b919061622b565b901c90505b5f6008831614612e3d5760806fffe5caca7e10e4e61c3624eaa0941cd082612e38919061622b565b901c90505b5f6010831614612e6a5760806fffcb9843d60f6159c9db58835c92664482612e65919061622b565b901c90505b5f6020831614612e975760806fff973b41fa98c081472e6896dfb254c082612e92919061622b565b901c90505b5f6040831614612ec45760806fff2ea16466c96a3843ec78b326b5286182612ebf919061622b565b901c90505b5f6080831614612ef15760806ffe5dee046a99a2a811c461f1969c305382612eec919061622b565b901c90505b5f610100831614612f1f5760806ffcbe86c7900a88aedcffc83b479aa3a482612f1a919061622b565b901c90505b5f610200831614612f4d5760806ff987a7253ac413176f2b074cf7815e5482612f48919061622b565b901c90505b5f610400831614612f7b5760806ff3392b0822b70005940c7a398e4b70f382612f76919061622b565b901c90505b5f610800831614612fa95760806fe7159475a2c29b7443b29c7fa6e889d982612fa4919061622b565b901c90505b5f611000831614612fd75760806fd097f3bdfd2022b8845ad8f792aa582582612fd2919061622b565b901c90505b5f6120008316146130055760806fa9f746462d870fdf8a65dc1f90e061e582613000919061622b565b901c90505b5f6140008316146130335760806f70d869a156d2a1b890bb3df62baf32f78261302e919061622b565b901c90505b5f6180008316146130615760806f31be135f97d08fd981231505542fcfa68261305c919061622b565b901c90505b5f620100008316146130905760806f09aa508b5b7a84e1c677de54f3e99bc98261308b919061622b565b901c90505b5f620200008316146130be5760806e5d6af8dedb81196699c329225ee604826130b9919061622b565b901c90505b5f620400008316146130eb5760806d2216e584f5fa1ea926041bedfe98826130e6919061622b565b901c90505b5f620800008316146131165760806b048a170391f7dc42444e8fa282613111919061622b565b901c90505b5f8460020b131561315057807fffffffffffffffffffffffffffffffffffffffffffffffffffffffffffffffff61314d919061626c565b90505b5f64010000000082613162919061629c565b1461316e576001613170565b5f5b60ff16602082901c6131829190615aa7565b92505050919050565b5f805f805f8873ffffffffffffffffffffffffffffffffffffffff168a73ffffffffffffffffffffffffffffffffffffffff16101590505f6131e48888620f42406131d691906162cc565b62ffffff16620f4240613308565b9050816131fd576131f88b8b8b600161453b565b61320b565b61320a8b8b8b6001614629565b5b945084811061321c5789955061322b565b6132288b8a8385614768565b95505b5f8a73ffffffffffffffffffffffffffffffffffffffff168773ffffffffffffffffffffffffffffffffffffffff161490508215613291578061327a576132758c888c6001614629565b61327c565b855b955061328a8c888c5f61453b565b94506132bb565b806132a8576132a38c888c600161453b565b6132aa565b855b95506132b88c888c5f614629565b94505b806132d35785896132cc9190615d5f565b93506132f9565b6132f6868962ffffff168a620f42406132ec91906162cc565b62ffffff16612985565b93505b50505095509550955095915050565b5f805f80198587098587029250828110838203039150505f81036133405783828161333657613335615ea8565b5b0492505050613413565b838110613388578585856040517f63a0577800000000000000000000000000000000000000000000000000000000815260040161337f93929190616302565b60405180910390fd5b5f8486880990508281118203915080830392505f6001861901861690505f81870496508185049450600182835f0304019050808402851794505f60028860030218905080880260020381029050808802600203810290508088026002038102905080880260020381029050808802600203810290508088026002038102905080860296505050505050505b9392505050565b5f80855f8660020b60020b81526020019081526020015f2090508060020154846134449190615d5f565b816002018190555080600301548361345c9190615d5f565b8160030181905550806001015f9054906101000a9004600f0b915050949350505050565b5f8082600f0b12156134a8578161349690615c5b565b836134a19190615b83565b90506134b7565b81836134b49190615ce7565b90505b92915050565b5f6401000276a373ffffffffffffffffffffffffffffffffffffffff168273ffffffffffffffffffffffffffffffffffffffff161015801561353e575073fffd8963efd1fc6a506488495d951d5263988d2673ffffffffffffffffffffffffffffffffffffffff168273ffffffffffffffffffffffffffffffffffffffff16105b61357d576040517f08c379a000000000000000000000000000000000000000000000000000000000815260040161357490616381565b60405180910390fd5b5f60208373ffffffffffffffffffffffffffffffffffffffff16901b90505f8190505f6fffffffffffffffffffffffffffffffff821160071b808217915082811c92505067ffffffffffffffff821160061b808217915082811c92505063ffffffff821160051b808217915082811c92505061ffff821160041b808217915082811c92505060ff821160031b808217915082811c925050600f821160021b808217915082811c9250506003821160011b808217915082811c925050600182118082179150506080811061366157607f816136579190615d5f565b83901c9150613674565b80607f61366e9190615d5f565b83901b91505b5f6040608083613684919061639f565b901b9050828302607f1c92508260801c80603f1b8217915083811c935050828302607f1c92508260801c80603e1b8217915083811c935050828302607f1c92508260801c80603d1b8217915083811c935050828302607f1c92508260801c80603c1b8217915083811c935050828302607f1c92508260801c80603b1b8217915083811c935050828302607f1c92508260801c80603a1b8217915083811c935050828302607f1c92508260801c8060391b8217915083811c935050828302607f1c92508260801c8060381b8217915083811c935050828302607f1c92508260801c8060371b8217915083811c935050828302607f1c92508260801c8060361b8217915083811c935050828302607f1c92508260801c8060351b8217915083811c935050828302607f1c92508260801c8060341b8217915083811c935050828302607f1c92508260801c8060331b8217915083811c935050828302607f1c92508260801c8060321b82179150505f693627a301d71055774c858261380691906163df565b90505f60806f028f6481ab7f045a5af012a19d003aaa83613827919061639f565b901d90505f60806fdb2df09e81959a81455e260799a0632f8461384a9190616455565b901d90508060020b8260020b146138a4578873ffffffffffffffffffffffffffffffffffffffff1661387b82612cd7565b73ffffffffffffffffffffffffffffffffffffffff16111561389d578161389f565b805b6138a6565b815b975050505050505050919050565b5f805f888861ffff1661ffff81106138cf576138ce615e7b565b5b016040518060600160405290815f82015f9054906101000a900463ffffffff1663ffffffff1663ffffffff1681526020015f820160049054906101000a900460060b60060b60060b81526020015f8201600b9054906101000a900460ff16151515158152505090508663ffffffff16815f015163ffffffff16036139595787859250925050613a49565b8461ffff168461ffff1611801561398357506001856139789190616496565b61ffff168861ffff16145b1561399057839150613994565b8491505b816001896139a291906164cb565b6139ac9190616500565b92506139b9818888614794565b898461ffff1661ffff81106139d1576139d0615e7b565b5b015f820151815f015f6101000a81548163ffffffff021916908363ffffffff1602179055506020820151815f0160046101000a81548166ffffffffffffff021916908360060b66ffffffffffffff1602179055506040820151815f01600b6101000a81548160ff021916908315150217905550905050505b965096945050505050565b5f8060405180606001604052808463ffffffff1681526020015f60060b815260200160011515815250845f61ffff8110613a9157613a90615e7b565b5b015f820151815f015f6101000a81548163ffffffff021916908363ffffffff1602179055506020820151815f0160046101000a81548166ffffffffffffff021916908360060b66ffffffffffffff1602179055506040820151815f01600b6101000a81548160ff02191690831515021790555090505060019150600190509250929050565b5f80885f8960020b60020b81526020019081526020015f2090505f815f0160019054906101000a90046fffffffffffffffffffffffffffffffff1690505f613b5e8289613480565b90505f826fffffffffffffffffffffffffffffffff161415155f826fffffffffffffffffffffffffffffffff16141515141593505f826fffffffffffffffffffffffffffffffff1603613be7578860020b8a60020b13613bcb578683600201819055508583600301819055505b6001835f015f6101000a81548160ff0219169083151502179055505b80835f0160016101000a8154816fffffffffffffffffffffffffffffffff02191690836fffffffffffffffffffffffffffffffff16021790555084613c4d5787600f0b836001015f9054906101000a9004600f0b600f0b613c489190616455565b613c70565b87600f0b836001015f9054906101000a9004600f0b600f0b613c6f919061639f565b5b836001015f6101000a8154816fffffffffffffffffffffffffffffffff0219169083600f0b6fffffffffffffffffffffffffffffffff160217905550505050979650505050505050565b5f8183613cc79190616066565b60020b14613cd3575f80fd5b5f80613ce98385613ce49190615ffe565b614294565b915091505f8160ff166001901b905080865f8560010b60010b81526020019081526020015f205f8282541892505081905550505050505050565b5f805f885f8960020b60020b81526020019081526020015f2090505f895f8960020b60020b81526020019081526020015f2090505f808a60020b8960020b12613d79578360020154915083600301549050613d9e565b836002015488613d899190615d5f565b9150836003015487613d9b9190615d5f565b90505b5f808b60020b8b60020b1215613dc1578460020154915084600301549050613de6565b84600201548a613dd19190615d5f565b9150846003015489613de39190615d5f565b90505b81848b613df39190615d5f565b613dfd9190615d5f565b975080838a613e0c9190615d5f565b613e169190615d5f565b9650505050505050965096945050505050565b5f613e85856001015484613e3d9190615d5f565b865f015f9054906101000a90046fffffffffffffffffffffffffffffffff166fffffffffffffffffffffffffffffffff16700100000000000000000000000000000000613308565b90505f613ee3866002015484613e9b9190615d5f565b875f015f9054906101000a90046fffffffffffffffffffffffffffffffff166fffffffffffffffffffffffffffffffff16700100000000000000000000000000000000613308565b9050613f0d865f015f9054906101000a90046fffffffffffffffffffffffffffffffff1686613480565b865f015f6101000a8154816fffffffffffffffffffffffffffffffff02191690836fffffffffffffffffffffffffffffffff1602179055508386600101819055508286600201819055505f826fffffffffffffffffffffffffffffffff161180613f8857505f816fffffffffffffffffffffffffffffffff16115b156140575781866003015f8282829054906101000a90046fffffffffffffffffffffffffffffffff16613fbb9190615ce7565b92506101000a8154816fffffffffffffffffffffffffffffffff02191690836fffffffffffffffffffffffffffffffff160217905550808660030160108282829054906101000a90046fffffffffffffffffffffffffffffffff166140209190615ce7565b92506101000a8154816fffffffffffffffffffffffffffffffff02191690836fffffffffffffffffffffffffffffffff1602179055505b505050505050565b5f8082600f0b1261407c576140778484846001614629565b61409b565b61409184848461408b90615c5b565b5f614629565b61409a90615ca1565b5b90509392505050565b5f8082600f0b126140c1576140bc848484600161453b565b6140e0565b6140d68484846140d090615c5b565b5f61453b565b6140df90615ca1565b5b90509392505050565b5f808563ffffffff16036141a9575f878461ffff1661ffff81106141105761410f615e7b565b5b016040518060600160405290815f82015f9054906101000a900463ffffffff1663ffffffff1663ffffffff1681526020015f820160049054906101000a900460060b60060b60060b81526020015f8201600b9054906101000a900460ff16151515158152505090508663ffffffff16815f015163ffffffff161461419c57614199818887614794565b90505b806020015191505061428a565b5f85876141b69190616530565b90505f806141c88a8a858a8a8a614802565b91509150815f015163ffffffff168363ffffffff16036141f1578160200151935050505061428a565b805f015163ffffffff168363ffffffff1603614216578060200151935050505061428a565b5f825f0151825f01516142299190616530565b63ffffffff1690505f835f0151856142419190616530565b63ffffffff16905080828560200151856020015161425f9190616567565b61426991906165c5565b614273919061662d565b84602001516142829190616669565b955050505050505b9695505050505050565b5f8060088360020b901d9150610100836142ae9190616066565b9050915091565b5f8082116142c1575f80fd5b70010000000000000000000000000000000082106142f057608082901c91506080816142ed91906166c7565b90505b68010000000000000000821061431757604082901c915060408161431491906166c7565b90505b640100000000821061433a57602082901c915060208161433791906166c7565b90505b62010000821061435b57601082901c915060108161435891906166c7565b90505b610100821061437b57600882901c915060088161437891906166c7565b90505b6010821061439a57600482901c915060048161439791906166c7565b90505b600482106143b957600282901c91506002816143b691906166c7565b90505b600282106143d1576001816143ce91906166c7565b90505b919050565b5f8082116143e2575f80fd5b60ff90505f6fffffffffffffffffffffffffffffffff8016831611156144165760808161440f9190616125565b905061441e565b608082901c91505b5f67ffffffffffffffff8016831611156144465760408161443f9190616125565b905061444e565b604082901c91505b5f63ffffffff8016831611156144725760208161446b9190616125565b905061447a565b602082901c91505b5f61ffff80168316111561449c576010816144959190616125565b90506144a4565b601082901c91505b5f60ff8016831611156144c5576008816144be9190616125565b90506144cd565b600882901c91505b5f600f831611156144ec576004816144e59190616125565b90506144f4565b600482901c91505b5f6003831611156145135760028161450c9190616125565b905061451b565b600282901c91505b5f600183161115614536576001816145339190616125565b90505b919050565b5f8373ffffffffffffffffffffffffffffffffffffffff168573ffffffffffffffffffffffffffffffffffffffff16111561457b57838580955081965050505b81156145d3576145cc836fffffffffffffffffffffffffffffffff1686866145a391906166fb565b73ffffffffffffffffffffffffffffffffffffffff166c01000000000000000000000000612985565b9050614621565b61461e836fffffffffffffffffffffffffffffffff1686866145f591906166fb565b73ffffffffffffffffffffffffffffffffffffffff166c01000000000000000000000000613308565b90505b949350505050565b5f8373ffffffffffffffffffffffffffffffffffffffff168573ffffffffffffffffffffffffffffffffffffffff16111561466957838580955081965050505b5f8573ffffffffffffffffffffffffffffffffffffffff161161468a575f80fd5b5f606060ff16846fffffffffffffffffffffffffffffffff16901b90505f86866146b491906166fb565b73ffffffffffffffffffffffffffffffffffffffff1690508315614719576147126146f683838973ffffffffffffffffffffffffffffffffffffffff16612985565b8873ffffffffffffffffffffffffffffffffffffffff16614a58565b925061475e565b8673ffffffffffffffffffffffffffffffffffffffff1661475183838973ffffffffffffffffffffffffffffffffffffffff16613308565b61475b919061626c565b92505b5050949350505050565b5f8161477e57614779858585614a6a565b61478a565b614789858585614abf565b5b9050949350505050565b61479c614f0c565b5f845f0151846147ac9190616530565b63ffffffff16905060405180606001604052808563ffffffff168152602001828560020b6147da919061662d565b87602001516147e99190616669565b60060b8152602001600115158152509150509392505050565b61480a614f0c565b614812614f0c565b878461ffff1661ffff811061482a57614829615e7b565b5b016040518060600160405290815f82015f9054906101000a900463ffffffff1663ffffffff1663ffffffff1681526020015f820160049054906101000a900460060b60060b60060b81526020015f8201600b9054906101000a900460ff16151515158152505091506148a087835f015188614baf565b156148d1578563ffffffff16825f015163ffffffff160315614a4d57816148c8838888614794565b91509150614a4d565b87836001866148e091906164cb565b6148ea9190616500565b61ffff1661ffff8110614900576148ff615e7b565b5b016040518060600160405290815f82015f9054906101000a900463ffffffff1663ffffffff1663ffffffff1681526020015f820160049054906101000a900460060b60060b60060b81526020015f8201600b9054906101000a900460ff161515151581525050915081604001516149ee57875f61ffff811061498557614984615e7b565b5b016040518060600160405290815f82015f9054906101000a900463ffffffff1663ffffffff1663ffffffff1681526020015f820160049054906101000a900460060b60060b60060b81526020015f8201600b9054906101000a900460ff16151515158152505091505b6149fc87835f015188614baf565b614a3b576040517f08c379a0000000000000000000000000000000000000000000000000000000008152600401614a329061678c565b60405180910390fd5b614a488888888787614c86565b915091505b965096945050505050565b5f808284061182840401905092915050565b5f614a95826c01000000000000000000000000856fffffffffffffffffffffffffffffffff16613308565b8473ffffffffffffffffffffffffffffffffffffffff16614ab69190615aa7565b90509392505050565b5f80606060ff16846fffffffffffffffffffffffffffffffff16901b90505f8573ffffffffffffffffffffffffffffffffffffffff1684614b00919061622b565b90508573ffffffffffffffffffffffffffffffffffffffff168482614b25919061626c565b03614b6d575f8183614b379190615aa7565b9050828110614b6b57614b61838873ffffffffffffffffffffffffffffffffffffffff1683612985565b9350505050614ba8565b505b614ba382858873ffffffffffffffffffffffffffffffffffffffff1685614b94919061626c565b614b9e9190615aa7565b614a58565b925050505b9392505050565b5f8363ffffffff168363ffffffff1611158015614bd857508363ffffffff168263ffffffff1611155b15614bf4578163ffffffff168363ffffffff1611159050614c7f565b5f8463ffffffff168463ffffffff1611614c24576401000000008463ffffffff16614c1f91906167ba565b614c2c565b8363ffffffff165b64ffffffffff1690505f8563ffffffff168463ffffffff1611614c65576401000000008463ffffffff16614c6091906167ba565b614c6d565b8363ffffffff165b64ffffffffff16905080821115925050505b9392505050565b614c8e614f0c565b614c96614f0c565b5f83600186614ca591906164cb565b614caf9190616500565b61ffff1690505f60018561ffff1683614cc89190615aa7565b614cd29190615d5f565b90505f5b600115614e985760028284614ceb9190615aa7565b614cf5919061626c565b9050898661ffff1682614d08919061629c565b61ffff8110614d1a57614d19615e7b565b5b016040518060600160405290815f82015f9054906101000a900463ffffffff1663ffffffff1663ffffffff1681526020015f820160049054906101000a900460060b60060b60060b81526020015f8201600b9054906101000a900460ff16151515158152505094508460400151614d9f57600181614d989190615aa7565b9250614cd6565b898661ffff16600183614db29190615aa7565b614dbc919061629c565b61ffff8110614dce57614dcd615e7b565b5b016040518060600160405290815f82015f9054906101000a900463ffffffff1663ffffffff1663ffffffff1681526020015f820160049054906101000a900460060b60060b60060b81526020015f8201600b9054906101000a900460ff16151515158152505093505f614e458a875f01518b614baf565b9050808015614e5e5750614e5d8a8a875f0151614baf565b5b15614e695750614e98565b80614e8257600182614e7b9190615d5f565b9250614e92565b600182614e8f9190615aa7565b93505b50614cd6565b5050509550959350505050565b6040518060e001604052805f73ffffffffffffffffffffffffffffffffffffffff1681526020015f60020b81526020015f151581526020015f73ffffffffffffffffffffffffffffffffffffffff1681526020015f81526020015f81526020015f81525090565b60405180606001604052805f63ffffffff1681526020015f60060b81526020015f151581525090565b5f73ffffffffffffffffffffffffffffffffffffffff82169050919050565b5f614f5e82614f35565b9050919050565b614f6e81614f54565b82525050565b5f602082019050614f875f830184614f65565b92915050565b5f6fffffffffffffffffffffffffffffffff82169050919050565b614fb181614f8d565b82525050565b5f602082019050614fca5f830184614fa8565b92915050565b5f80fd5b5f80fd5b5f819050919050565b614fea81614fd8565b8114614ff4575f80fd5b50565b5f8135905061500581614fe1565b92915050565b5f602082840312156150205761501f614fd0565b5b5f61502d84828501614ff7565b91505092915050565b5f63ffffffff82169050919050565b61504e81615036565b82525050565b5f8160060b9050919050565b61506981615054565b82525050565b5f8115159050919050565b6150838161506f565b82525050565b5f60608201905061509c5f830186615045565b6150a96020830185615060565b6150b6604083018461507a565b949350505050565b5f61ffff82169050919050565b6150d4816150be565b81146150de575f80fd5b50565b5f813590506150ef816150cb565b92915050565b5f6020828403121561510a57615109614fd0565b5b5f615117848285016150e1565b91505092915050565b61512981614f35565b82525050565b5f8160020b9050919050565b6151448161512f565b82525050565b615153816150be565b82525050565b5f60a08201905061516c5f830188615120565b615179602083018761513b565b615186604083018661514a565b615193606083018561514a565b6151a0608083018461514a565b9695505050505050565b6151b381614f54565b81146151bd575f80fd5b50565b5f813590506151ce816151aa565b92915050565b6151dd8161512f565b81146151e7575f80fd5b50565b5f813590506151f8816151d4565b92915050565b61520781614f8d565b8114615211575f80fd5b50565b5f81359050615222816151fe565b92915050565b5f80fd5b5f80fd5b5f80fd5b5f8083601f84011261524957615248615228565b5b8235905067ffffffffffffffff8111156152665761526561522c565b5b60208301915083600182028301111561528257615281615230565b5b9250929050565b5f805f805f8060a087890312156152a3576152a2614fd0565b5b5f6152b089828a016151c0565b96505060206152c189828a016151ea565b95505060406152d289828a016151ea565b94505060606152e389828a01615214565b935050608087013567ffffffffffffffff81111561530457615303614fd4565b5b61531089828a01615234565b92509250509295509295509295565b61532881614fd8565b82525050565b5f6040820190506153415f83018561531f565b61534e602083018461531f565b9392505050565b5f6020820190506153685f83018461531f565b92915050565b5f805f806060858703121561538657615385614fd0565b5b5f61539387828801614ff7565b94505060206153a487828801614ff7565b935050604085013567ffffffffffffffff8111156153c5576153c4614fd4565b5b6153d187828801615234565b925092505092959194509250565b5f805f805f60a086880312156153f8576153f7614fd0565b5b5f615405888289016151c0565b9550506020615416888289016151ea565b9450506040615427888289016151ea565b935050606061543888828901615214565b925050608061544988828901615214565b9150509295509295909350565b5f6040820190506154695f830185614fa8565b6154766020830184614fa8565b9392505050565b5f819050919050565b61548f8161547d565b8114615499575f80fd5b50565b5f813590506154aa81615486565b92915050565b5f602082840312156154c5576154c4614fd0565b5b5f6154d28482850161549c565b91505092915050565b5f60a0820190506154ee5f830188614fa8565b6154fb602083018761531f565b615508604083018661531f565b6155156060830185614fa8565b6155226080830184614fa8565b9695505050505050565b5f8160010b9050919050565b6155418161552c565b811461554b575f80fd5b50565b5f8135905061555c81615538565b92915050565b5f6020828403121561557757615576614fd0565b5b5f6155848482850161554e565b91505092915050565b5f8083601f8401126155a2576155a1615228565b5b8235905067ffffffffffffffff8111156155bf576155be61522c565b5b6020830191508360208202830111156155db576155da615230565b5b9250929050565b5f80602083850312156155f8576155f7614fd0565b5b5f83013567ffffffffffffffff81111561561557615614614fd4565b5b6156218582860161558d565b92509250509250929050565b5f81519050919050565b5f82825260208201905092915050565b5f819050602082019050919050565b61565f81615054565b82525050565b5f6156708383615656565b60208301905092915050565b5f602082019050919050565b5f6156928261562d565b61569c8185615637565b93506156a783615647565b805f5b838110156156d75781516156be8882615665565b97506156c98361567c565b9250506001810190506156aa565b5085935050505092915050565b5f6020820190508181035f8301526156fc8184615688565b905092915050565b5f805f6060848603121561571b5761571a614fd0565b5b5f615728868287016151ea565b9350506020615739868287016151ea565b925050604061574a86828701615214565b9150509250925092565b5f62ffffff82169050919050565b61576b81615754565b82525050565b5f6020820190506157845f830184615762565b92915050565b6157938161506f565b811461579d575f80fd5b50565b5f813590506157ae8161578a565b92915050565b6157bd81614f35565b81146157c7575f80fd5b50565b5f813590506157d8816157b4565b92915050565b5f805f805f8060a087890312156157f8576157f7614fd0565b5b5f61580589828a016151c0565b965050602061581689828a016157a0565b955050604061582789828a01614ff7565b945050606061583889828a016157ca565b935050608087013567ffffffffffffffff81111561585957615858614fd4565b5b61586589828a01615234565b92509250509295509295509295565b5f819050919050565b61588681615874565b82525050565b5f60408201905061589f5f83018561587d565b6158ac602083018461587d565b9392505050565b5f602082840312156158c8576158c7614fd0565b5b5f6158d5848285016151ea565b91505092915050565b5f81600f0b9050919050565b6158f3816158de565b82525050565b5f60a08201905061590c5f83018861507a565b6159196020830187614fa8565b61592660408301866158ea565b615933606083018561531f565b615940608083018461531f565b9695505050505050565b5f6020828403121561595f5761595e614fd0565b5b5f61596c848285016157ca565b91505092915050565b5f6040820190506159885f83018561514a565b615995602083018461514a565b9392505050565b7f4e487b71000000000000000000000000000000000000000000000000000000005f52601160045260245ffd5b5f6159d38261512f565b91507fffffffffffffffffffffffffffffffffffffffffffffffffffffffffff8000008203615a0557615a0461599c565b5b815f039050919050565b5f82825260208201905092915050565b828183375f83830152505050565b5f601f19601f8301169050919050565b5f615a488385615a0f565b9350615a55838584615a1f565b615a5e83615a2d565b840190509392505050565b5f606082019050615a7c5f83018761531f565b615a89602083018661531f565b8181036040830152615a9c818486615a3d565b905095945050505050565b5f615ab182614fd8565b9150615abc83614fd8565b9250828201905080821115615ad457615ad361599c565b5b92915050565b5f608082019050615aed5f830187614f65565b615afa6020830186614fa8565b615b07604083018561531f565b615b14606083018461531f565b95945050505050565b5f81519050615b2b81614fe1565b92915050565b5f60208284031215615b4657615b45614fd0565b5b5f615b5384828501615b1d565b91505092915050565b5f604082019050615b6f5f830185614f65565b615b7c602083018461531f565b9392505050565b5f615b8d82614f8d565b9150615b9883614f8d565b925082820390506fffffffffffffffffffffffffffffffff811115615bc057615bbf61599c565b5b92915050565b5f819050919050565b5f615be9615be4615bdf84614f8d565b615bc6565b614fd8565b9050919050565b615bf981615bcf565b82525050565b5f604082019050615c125f830185614f65565b615c1f6020830184615bf0565b9392505050565b5f606082019050615c395f830186614f65565b615c466020830185615bf0565b615c536040830184615bf0565b949350505050565b5f615c65826158de565b91507fffffffffffffffffffffffffffffffff800000000000000000000000000000008203615c9757615c9661599c565b5b815f039050919050565b5f615cab82615874565b91507f80000000000000000000000000000000000000000000000000000000000000008203615cdd57615cdc61599c565b5b815f039050919050565b5f615cf182614f8d565b9150615cfc83614f8d565b925082820190506fffffffffffffffffffffffffffffffff811115615d2457615d2361599c565b5b92915050565b5f606082019050615d3d5f830186614fa8565b615d4a602083018561531f565b615d57604083018461531f565b949350505050565b5f615d6982614fd8565b9150615d7483614fd8565b9250828203905081811115615d8c57615d8b61599c565b5b92915050565b5f615d9c8261512f565b9150615da78361512f565b92508282039050627fffff81137fffffffffffffffffffffffffffffffffffffffffffffffffffffffffff80000082121715615de657615de561599c565b5b92915050565b5f606082019050615dff5f83018761587d565b615e0c602083018661587d565b8181036040830152615e1f818486615a3d565b905095945050505050565b5f60a082019050615e3d5f83018861587d565b615e4a602083018761587d565b615e576040830186615120565b615e646060830185614fa8565b615e71608083018461513b565b9695505050505050565b7f4e487b71000000000000000000000000000000000000000000000000000000005f52603260045260245ffd5b7f4e487b71000000000000000000000000000000000000000000000000000000005f52601260045260245ffd5b5f615edf82614fd8565b91507fffffffffffffffffffffffffffffffffffffffffffffffffffffffffffffffff8203615f1157615f1061599c565b5b600182019050919050565b5f8160601b9050919050565b5f615f3282615f1c565b9050919050565b5f615f4382615f28565b9050919050565b615f5b615f5682614f54565b615f39565b82525050565b5f8160e81b9050919050565b5f615f7782615f61565b9050919050565b615f8f615f8a8261512f565b615f6d565b82525050565b5f615fa08286615f4a565b601482019150615fb08285615f7e565b600382019150615fc08284615f7e565b600382019150819050949350505050565b7f4e487b71000000000000000000000000000000000000000000000000000000005f52604160045260245ffd5b5f6160088261512f565b91506160138361512f565b92508261602357616022615ea8565b5b60015f0383147fffffffffffffffffffffffffffffffffffffffffffffffffffffffffff8000008314161561605b5761605a61599c565b5b828205905092915050565b5f6160708261512f565b915061607b8361512f565b92508261608b5761608a615ea8565b5b828207905092915050565b5f6160a08261512f565b91507fffffffffffffffffffffffffffffffffffffffffffffffffffffffffff80000082036160d2576160d161599c565b5b600182039050919050565b5f6160e78261512f565b91506160f28361512f565b92508282026161008161512f565b91508082146161125761611161599c565b5b5092915050565b5f60ff82169050919050565b5f61612f82616119565b915061613a83616119565b9250828203905060ff8111156161535761615261599c565b5b92915050565b5f6161638261512f565b915061616e8361512f565b925082820190507fffffffffffffffffffffffffffffffffffffffffffffffffffffffffff8000008112627fffff821317156161ad576161ac61599c565b5b92915050565b5f82825260208201905092915050565b7f54000000000000000000000000000000000000000000000000000000000000005f82015250565b5f6161f76001836161b3565b9150616202826161c3565b602082019050919050565b5f6020820190508181035f830152616224816161eb565b9050919050565b5f61623582614fd8565b915061624083614fd8565b925082820261624e81614fd8565b915082820484148315176162655761626461599c565b5b5092915050565b5f61627682614fd8565b915061628183614fd8565b92508261629157616290615ea8565b5b828204905092915050565b5f6162a682614fd8565b91506162b183614fd8565b9250826162c1576162c0615ea8565b5b828206905092915050565b5f6162d682615754565b91506162e183615754565b9250828203905062ffffff8111156162fc576162fb61599c565b5b92915050565b5f6060820190506163155f83018661531f565b616322602083018561531f565b61632f604083018461531f565b949350505050565b7f52000000000000000000000000000000000000000000000000000000000000005f82015250565b5f61636b6001836161b3565b915061637682616337565b602082019050919050565b5f6020820190508181035f8301526163988161635f565b9050919050565b5f6163a982615874565b91506163b483615874565b925082820390508181125f8412168282135f8512151617156163d9576163d861599c565b5b92915050565b5f6163e982615874565b91506163f483615874565b925082820261640281615874565b91507f800000000000000000000000000000000000000000000000000000000000000084145f841216156164395761643861599c565b5b828205841483151761644e5761644d61599c565b5b5092915050565b5f61645f82615874565b915061646a83615874565b92508282019050828112155f8312168382125f8412151617156164905761648f61599c565b5b92915050565b5f6164a0826150be565b91506164ab836150be565b9250828203905061ffff8111156164c5576164c461599c565b5b92915050565b5f6164d5826150be565b91506164e0836150be565b9250828201905061ffff8111156164fa576164f961599c565b5b92915050565b5f61650a826150be565b9150616515836150be565b92508261652557616524615ea8565b5b828206905092915050565b5f61653a82615036565b915061654583615036565b9250828203905063ffffffff8111156165615761656061599c565b5b92915050565b5f61657182615054565b915061657c83615054565b92508282039050667fffffffffffff81137fffffffffffffffffffffffffffffffffffffffffffffffffff80000000000000821217156165bf576165be61599c565b5b92915050565b5f6165cf82615054565b91506165da83615054565b9250826165ea576165e9615ea8565b5b60015f0383147fffffffffffffffffffffffffffffffffffffffffffffffffff80000000000000831416156166225761662161599c565b5b828205905092915050565b5f61663782615054565b915061664283615054565b925082820261665081615054565b91508082146166625761666161599c565b5b5092915050565b5f61667382615054565b915061667e83615054565b925082820190507fffffffffffffffffffffffffffffffffffffffffffffffffff800000000000008112667fffffffffffff821317156166c1576166c061599c565b5b92915050565b5f6166d182616119565b91506166dc83616119565b9250828201905060ff8111156166f5576166f461599c565b5b92915050565b5f61670582614f35565b915061671083614f35565b9250828203905073ffffffffffffffffffffffffffffffffffffffff81111561673c5761673b61599c565b5b92915050565b7f4f4c4400000000000000000000000000000000000000000000000000000000005f82015250565b5f6167766003836161b3565b915061678182616742565b602082019050919050565b5f6020820190508181035f8301526167a38161676a565b9050919050565b5f64ffffffffff82169050919050565b5f6167c4826167aa565b91506167cf836167aa565b9250828201905064ffffffffff8111156167ec576167eb61599c565b5b9291505056fea264697066735822122025f1df0e13245e983ea475c2cf9cb72940fc8144e8ef5c6015a01f5e6dac692b64736f6c63430008160033a2646970667358221220b8cfa029d99dbd570a42711d52dcedbcd411ddd19bd20aa429354af3cee9a7fb64736f6c63430008160033",
			"opcodes": "PUSH1 0x80 PUSH1 0x40 MSTORE CALLVALUE DUP1 ISZERO PUSH2 0xF JUMPI PUSH0 DUP1 REVERT JUMPDEST POP PUSH1 0xA PUSH1 0x3 PUSH0 PUSH2 0x1F4 PUSH3 0xFFFFFF AND DUP2 MSTORE PUSH1 0x20 ADD SWAP1 DUP2 MSTORE PUSH1 0x20 ADD PUSH0 KECCAK256 PUSH0 PUSH2 0x100 EXP DUP2 SLOAD DUP2 PUSH3 0xFFFFFF MUL NOT AND SWAP1 DUP4 PUSH3 0xFFFFFF AND MUL OR SWAP1 SSTORE POP PUSH1 0x3C PUSH1 0x3 PUSH0 PUSH2 0xBB8 PUSH3 0xFFFFFF AND DUP2 MSTORE PUSH1 0x20 ADD SWAP1 DUP2 MSTORE PUSH1 0x20 ADD PUSH0 KECCAK256 PUSH0 PUSH2 0x100 EXP DUP2 SLOAD DUP2 PUSH3 0xFFFFFF MUL NOT AND SWAP1 DUP4 PUSH3 0xFFFFFF AND MUL OR SWAP1 SSTORE POP PUSH2 0x77F7 DUP1 PUSH2 0x87 PUSH0 CODECOPY PUSH0 RETURN INVALID PUSH1 0x80 PUSH1 0x40 MSTORE CALLVALUE DUP1 ISZERO PUSH3 0x10 JUMPI PUSH0 DUP1 REVERT JUMPDEST POP PUSH1 0x4 CALLDATASIZE LT PUSH3 0x5C JUMPI PUSH0 CALLDATALOAD PUSH1 0xE0 SHR DUP1 PUSH4 0x6441C780 EQ PUSH3 0x60 JUMPI DUP1 PUSH4 0x89035730 EQ PUSH3 0x96 JUMPI DUP1 PUSH4 0x8F14E2C6 EQ PUSH3 0xBC JUMPI DUP1 PUSH4 0xA1671295 EQ PUSH3 0xE2 JUMPI DUP1 PUSH4 0xBAE0D918 EQ PUSH3 0x118 JUMPI JUMPDEST PUSH0 DUP1 REVERT JUMPDEST PUSH3 0x7E PUSH1 0x4 DUP1 CALLDATASIZE SUB DUP2 ADD SWAP1 PUSH3 0x78 SWAP2 SWAP1 PUSH3 0xA08 JUMP JUMPDEST PUSH3 0x14E JUMP JUMPDEST PUSH1 0x40 MLOAD PUSH3 0x8D SWAP2 SWAP1 PUSH3 0xA49 JUMP JUMPDEST PUSH1 0x40 MLOAD DUP1 SWAP2 SUB SWAP1 RETURN JUMPDEST PUSH3 0xA0 PUSH3 0x16D JUMP JUMPDEST PUSH1 0x40 MLOAD PUSH3 0xB3 SWAP6 SWAP5 SWAP4 SWAP3 SWAP2 SWAP1 PUSH3 0xAA7 JUMP JUMPDEST PUSH1 0x40 MLOAD DUP1 SWAP2 SUB SWAP1 RETURN JUMPDEST PUSH3 0xC6 PUSH3 0x179 JUMP JUMPDEST PUSH1 0x40 MLOAD PUSH3 0xD9 SWAP6 SWAP5 SWAP4 SWAP3 SWAP2 SWAP1 PUSH3 0xAA7 JUMP JUMPDEST PUSH1 0x40 MLOAD DUP1 SWAP2 SUB SWAP1 RETURN JUMPDEST PUSH3 0x100 PUSH1 0x4 DUP1 CALLDATASIZE SUB DUP2 ADD SWAP1 PUSH3 0xFA SWAP2 SWAP1 PUSH3 0xB31 JUMP JUMPDEST PUSH3 0x216 JUMP JUMPDEST PUSH1 0x40 MLOAD PUSH3 0x10F SWAP2 SWAP1 PUSH3 0xB8A JUMP JUMPDEST PUSH1 0x40 MLOAD DUP1 SWAP2 SUB SWAP1 RETURN JUMPDEST PUSH3 0x136 PUSH1 0x4 DUP1 CALLDATASIZE SUB DUP2 ADD SWAP1 PUSH3 0x130 SWAP2 SWAP1 PUSH3 0xB31 JUMP JUMPDEST PUSH3 0x971 JUMP JUMPDEST PUSH1 0x40 MLOAD PUSH3 0x145 SWAP2 SWAP1 PUSH3 0xB8A JUMP JUMPDEST PUSH1 0x40 MLOAD DUP1 SWAP2 SUB SWAP1 RETURN JUMPDEST PUSH1 0x3 PUSH1 0x20 MSTORE DUP1 PUSH0 MSTORE PUSH1 0x40 PUSH0 KECCAK256 PUSH0 SWAP2 POP SLOAD SWAP1 PUSH2 0x100 EXP SWAP1 DIV PUSH3 0xFFFFFF AND DUP2 JUMP JUMPDEST PUSH0 DUP1 PUSH0 DUP1 PUSH0 SWAP1 SWAP2 SWAP3 SWAP4 SWAP5 JUMP JUMPDEST PUSH0 DUP1 PUSH0 ADD PUSH0 SWAP1 SLOAD SWAP1 PUSH2 0x100 EXP SWAP1 DIV PUSH20 0xFFFFFFFFFFFFFFFFFFFFFFFFFFFFFFFFFFFFFFFF AND SWAP1 DUP1 PUSH1 0x1 ADD PUSH0 SWAP1 SLOAD SWAP1 PUSH2 0x100 EXP SWAP1 DIV PUSH20 0xFFFFFFFFFFFFFFFFFFFFFFFFFFFFFFFFFFFFFFFF AND SWAP1 DUP1 PUSH1 0x2 ADD PUSH0 SWAP1 SLOAD SWAP1 PUSH2 0x100 EXP SWAP1 DIV PUSH20 0xFFFFFFFFFFFFFFFFFFFFFFFFFFFFFFFFFFFFFFFF AND SWAP1 DUP1 PUSH1 0x2 ADD PUSH1 0x14 SWAP1 SLOAD SWAP1 PUSH2 0x100 EXP SWAP1 DIV PUSH3 0xFFFFFF AND SWAP1 DUP1 PUSH1 0x2 ADD PUSH1 0x17 SWAP1 SLOAD SWAP1 PUSH2 0x100 EXP SWAP1 DIV PUSH3 0xFFFFFF AND SWAP1 POP DUP6 JUMP JUMPDEST PUSH0 DUP3 PUSH20 0xFFFFFFFFFFFFFFFFFFFFFFFFFFFFFFFFFFFFFFFF AND DUP5 PUSH20 0xFFFFFFFFFFFFFFFFFFFFFFFFFFFFFFFFFFFFFFFF AND SUB PUSH3 0x27D JUMPI PUSH1 0x40 MLOAD PUSH32 0xFBFC7A9100000000000000000000000000000000000000000000000000000000 DUP2 MSTORE PUSH1 0x4 ADD PUSH1 0x40 MLOAD DUP1 SWAP2 SUB SWAP1 REVERT JUMPDEST PUSH0 PUSH1 0x3 PUSH0 DUP5 PUSH3 0xFFFFFF AND PUSH3 0xFFFFFF AND DUP2 MSTORE PUSH1 0x20 ADD SWAP1 DUP2 MSTORE PUSH1 0x20 ADD PUSH0 KECCAK256 PUSH0 SWAP1 SLOAD SWAP1 PUSH2 0x100 EXP SWAP1 DIV PUSH3 0xFFFFFF AND PUSH3 0xFFFFFF AND SUB PUSH3 0x2E5 JUMPI PUSH1 0x40 MLOAD PUSH32 0x271D3EEC00000000000000000000000000000000000000000000000000000000 DUP2 MSTORE PUSH1 0x4 ADD PUSH1 0x40 MLOAD DUP1 SWAP2 SUB SWAP1 REVERT JUMPDEST DUP3 PUSH20 0xFFFFFFFFFFFFFFFFFFFFFFFFFFFFFFFFFFFFFFFF AND DUP5 PUSH20 0xFFFFFFFFFFFFFFFFFFFFFFFFFFFFFFFFFFFFFFFF AND LT PUSH3 0x321 JUMPI DUP3 DUP5 PUSH3 0x324 JUMP JUMPDEST DUP4 DUP4 JUMPDEST DUP1 SWAP5 POP DUP2 SWAP6 POP POP POP PUSH0 PUSH20 0xFFFFFFFFFFFFFFFFFFFFFFFFFFFFFFFFFFFFFFFF AND DUP5 PUSH20 0xFFFFFFFFFFFFFFFFFFFFFFFFFFFFFFFFFFFFFFFF AND SUB PUSH3 0x392 JUMPI PUSH1 0x40 MLOAD PUSH32 0x8579BEFE00000000000000000000000000000000000000000000000000000000 DUP2 MSTORE PUSH1 0x4 ADD PUSH1 0x40 MLOAD DUP1 SWAP2 SUB SWAP1 REVERT JUMPDEST PUSH0 PUSH20 0xFFFFFFFFFFFFFFFFFFFFFFFFFFFFFFFFFFFFFFFF AND PUSH1 0x4 PUSH0 DUP7 PUSH20 0xFFFFFFFFFFFFFFFFFFFFFFFFFFFFFFFFFFFFFFFF AND PUSH20 0xFFFFFFFFFFFFFFFFFFFFFFFFFFFFFFFFFFFFFFFF AND DUP2 MSTORE PUSH1 0x20 ADD SWAP1 DUP2 MSTORE PUSH1 0x20 ADD PUSH0 KECCAK256 PUSH0 DUP6 PUSH20 0xFFFFFFFFFFFFFFFFFFFFFFFFFFFFFFFFFFFFFFFF AND PUSH20 0xFFFFFFFFFFFFFFFFFFFFFFFFFFFFFFFFFFFFFFFF AND DUP2 MSTORE PUSH1 0x20 ADD SWAP1 DUP2 MSTORE PUSH1 0x20 ADD PUSH0 KECCAK256 PUSH0 DUP5 PUSH3 0xFFFFFF AND PUSH3 0xFFFFFF AND DUP2 MSTORE PUSH1 0x20 ADD SWAP1 DUP2 MSTORE PUSH1 0x20 ADD PUSH0 KECCAK256 PUSH0 SWAP1 SLOAD SWAP1 PUSH2 0x100 EXP SWAP1 DIV PUSH20 0xFFFFFFFFFFFFFFFFFFFFFFFFFFFFFFFFFFFFFFFF AND PUSH20 0xFFFFFFFFFFFFFFFFFFFFFFFFFFFFFFFFFFFFFFFF AND EQ PUSH3 0x4A8 JUMPI PUSH1 0x40 MLOAD PUSH32 0x311932200000000000000000000000000000000000000000000000000000000 DUP2 MSTORE PUSH1 0x4 ADD PUSH1 0x40 MLOAD DUP1 SWAP2 SUB SWAP1 REVERT JUMPDEST PUSH1 0x40 MLOAD DUP1 PUSH1 0xA0 ADD PUSH1 0x40 MSTORE DUP1 ADDRESS PUSH20 0xFFFFFFFFFFFFFFFFFFFFFFFFFFFFFFFFFFFFFFFF AND DUP2 MSTORE PUSH1 0x20 ADD DUP6 PUSH20 0xFFFFFFFFFFFFFFFFFFFFFFFFFFFFFFFFFFFFFFFF AND DUP2 MSTORE PUSH1 0x20 ADD DUP5 PUSH20 0xFFFFFFFFFFFFFFFFFFFFFFFFFFFFFFFFFFFFFFFF AND DUP2 MSTORE PUSH1 0x20 ADD PUSH1 0x3 PUSH0 DUP6 PUSH3 0xFFFFFF AND PUSH3 0xFFFFFF AND DUP2 MSTORE PUSH1 0x20 ADD SWAP1 DUP2 MSTORE PUSH1 0x20 ADD PUSH0 KECCAK256 PUSH0 SWAP1 SLOAD SWAP1 PUSH2 0x100 EXP SWAP1 DIV PUSH3 0xFFFFFF AND PUSH3 0xFFFFFF AND DUP2 MSTORE PUSH1 0x20 ADD DUP4 PUSH3 0xFFFFFF AND DUP2 MSTORE POP PUSH0 DUP1 DUP3 ADD MLOAD DUP2 PUSH0 ADD PUSH0 PUSH2 0x100 EXP DUP2 SLOAD DUP2 PUSH20 0xFFFFFFFFFFFFFFFFFFFFFFFFFFFFFFFFFFFFFFFF MUL NOT AND SWAP1 DUP4 PUSH20 0xFFFFFFFFFFFFFFFFFFFFFFFFFFFFFFFFFFFFFFFF AND MUL OR SWAP1 SSTORE POP PUSH1 0x20 DUP3 ADD MLOAD DUP2 PUSH1 0x1 ADD PUSH0 PUSH2 0x100 EXP DUP2 SLOAD DUP2 PUSH20 0xFFFFFFFFFFFFFFFFFFFFFFFFFFFFFFFFFFFFFFFF MUL NOT AND SWAP1 DUP4 PUSH20 0xFFFFFFFFFFFFFFFFFFFFFFFFFFFFFFFFFFFFFFFF AND MUL OR SWAP1 SSTORE POP PUSH1 0x40 DUP3 ADD MLOAD DUP2 PUSH1 0x2 ADD PUSH0 PUSH2 0x100 EXP DUP2 SLOAD DUP2 PUSH20 0xFFFFFFFFFFFFFFFFFFFFFFFFFFFFFFFFFFFFFFFF MUL NOT AND SWAP1 DUP4 PUSH20 0xFFFFFFFFFFFFFFFFFFFFFFFFFFFFFFFFFFFFFFFF AND MUL OR SWAP1 SSTORE POP PUSH1 0x60 DUP3 ADD MLOAD DUP2 PUSH1 0x2 ADD PUSH1 0x14 PUSH2 0x100 EXP DUP2 SLOAD DUP2 PUSH3 0xFFFFFF MUL NOT AND SWAP1 DUP4 PUSH3 0xFFFFFF AND MUL OR SWAP1 SSTORE POP PUSH1 0x80 DUP3 ADD MLOAD DUP2 PUSH1 0x2 ADD PUSH1 0x17 PUSH2 0x100 EXP DUP2 SLOAD DUP2 PUSH3 0xFFFFFF MUL NOT AND SWAP1 DUP4 PUSH3 0xFFFFFF AND MUL OR SWAP1 SSTORE POP SWAP1 POP POP DUP4 DUP4 DUP4 PUSH1 0x40 MLOAD PUSH1 0x20 ADD PUSH3 0x679 SWAP4 SWAP3 SWAP2 SWAP1 PUSH3 0xC2C JUMP JUMPDEST PUSH1 0x40 MLOAD PUSH1 0x20 DUP2 DUP4 SUB SUB DUP2 MSTORE SWAP1 PUSH1 0x40 MSTORE DUP1 MLOAD SWAP1 PUSH1 0x20 ADD KECCAK256 PUSH1 0x40 MLOAD PUSH3 0x69D SWAP1 PUSH3 0x9B9 JUMP JUMPDEST DUP2 SWAP1 PUSH1 0x40 MLOAD DUP1 SWAP2 SUB SWAP1 PUSH0 CREATE2 SWAP1 POP DUP1 ISZERO DUP1 ISZERO PUSH3 0x6BB JUMPI RETURNDATASIZE PUSH0 DUP1 RETURNDATACOPY RETURNDATASIZE PUSH0 REVERT JUMPDEST POP SWAP1 POP PUSH0 DUP1 PUSH0 DUP3 ADD PUSH0 PUSH2 0x100 EXP DUP2 SLOAD SWAP1 PUSH20 0xFFFFFFFFFFFFFFFFFFFFFFFFFFFFFFFFFFFFFFFF MUL NOT AND SWAP1 SSTORE PUSH1 0x1 DUP3 ADD PUSH0 PUSH2 0x100 EXP DUP2 SLOAD SWAP1 PUSH20 0xFFFFFFFFFFFFFFFFFFFFFFFFFFFFFFFFFFFFFFFF MUL NOT AND SWAP1 SSTORE PUSH1 0x2 DUP3 ADD PUSH0 PUSH2 0x100 EXP DUP2 SLOAD SWAP1 PUSH20 0xFFFFFFFFFFFFFFFFFFFFFFFFFFFFFFFFFFFFFFFF MUL NOT AND SWAP1 SSTORE PUSH1 0x2 DUP3 ADD PUSH1 0x14 PUSH2 0x100 EXP DUP2 SLOAD SWAP1 PUSH3 0xFFFFFF MUL NOT AND SWAP1 SSTORE PUSH1 0x2 DUP3 ADD PUSH1 0x17 PUSH2 0x100 EXP DUP2 SLOAD SWAP1 PUSH3 0xFFFFFF MUL NOT AND SWAP1 SSTORE POP POP DUP1 PUSH1 0x4 PUSH0 DUP7 PUSH20 0xFFFFFFFFFFFFFFFFFFFFFFFFFFFFFFFFFFFFFFFF AND PUSH20 0xFFFFFFFFFFFFFFFFFFFFFFFFFFFFFFFFFFFFFFFF AND DUP2 MSTORE PUSH1 0x20 ADD SWAP1 DUP2 MSTORE PUSH1 0x20 ADD PUSH0 KECCAK256 PUSH0 DUP6 PUSH20 0xFFFFFFFFFFFFFFFFFFFFFFFFFFFFFFFFFFFFFFFF AND PUSH20 0xFFFFFFFFFFFFFFFFFFFFFFFFFFFFFFFFFFFFFFFF AND DUP2 MSTORE PUSH1 0x20 ADD SWAP1 DUP2 MSTORE PUSH1 0x20 ADD PUSH0 KECCAK256 PUSH0 DUP5 PUSH3 0xFFFFFF AND PUSH3 0xFFFFFF AND DUP2 MSTORE PUSH1 0x20 ADD SWAP1 DUP2 MSTORE PUSH1 0x20 ADD PUSH0 KECCAK256 PUSH0 PUSH2 0x100 EXP DUP2 SLOAD DUP2 PUSH20 0xFFFFFFFFFFFFFFFFFFFFFFFFFFFFFFFFFFFFFFFF MUL NOT AND SWAP1 DUP4 PUSH20 0xFFFFFFFFFFFFFFFFFFFFFFFFFFFFFFFFFFFFFFFF AND MUL OR SWAP1 SSTORE POP DUP1 PUSH1 0x4 PUSH0 DUP6 PUSH20 0xFFFFFFFFFFFFFFFFFFFFFFFFFFFFFFFFFFFFFFFF AND PUSH20 0xFFFFFFFFFFFFFFFFFFFFFFFFFFFFFFFFFFFFFFFF AND DUP2 MSTORE PUSH1 0x20 ADD SWAP1 DUP2 MSTORE PUSH1 0x20 ADD PUSH0 KECCAK256 PUSH0 DUP7 PUSH20 0xFFFFFFFFFFFFFFFFFFFFFFFFFFFFFFFFFFFFFFFF AND PUSH20 0xFFFFFFFFFFFFFFFFFFFFFFFFFFFFFFFFFFFFFFFF AND DUP2 MSTORE PUSH1 0x20 ADD SWAP1 DUP2 MSTORE PUSH1 0x20 ADD PUSH0 KECCAK256 PUSH0 DUP5 PUSH3 0xFFFFFF AND PUSH3 0xFFFFFF AND DUP2 MSTORE PUSH1 0x20 ADD SWAP1 DUP2 MSTORE PUSH1 0x20 ADD PUSH0 KECCAK256 PUSH0 PUSH2 0x100 EXP DUP2 SLOAD DUP2 PUSH20 0xFFFFFFFFFFFFFFFFFFFFFFFFFFFFFFFFFFFFFFFF MUL NOT AND SWAP1 DUP4 PUSH20 0xFFFFFFFFFFFFFFFFFFFFFFFFFFFFFFFFFFFFFFFF AND MUL OR SWAP1 SSTORE POP DUP2 PUSH3 0xFFFFFF AND DUP4 PUSH20 0xFFFFFFFFFFFFFFFFFFFFFFFFFFFFFFFFFFFFFFFF AND DUP6 PUSH20 0xFFFFFFFFFFFFFFFFFFFFFFFFFFFFFFFFFFFFFFFF AND PUSH32 0x97D23878912FDA7F82BD5A8502F2C6E9086F5A4728F9054627788B3162F86CED DUP5 PUSH1 0x40 MLOAD PUSH3 0x962 SWAP2 SWAP1 PUSH3 0xB8A JUMP JUMPDEST PUSH1 0x40 MLOAD DUP1 SWAP2 SUB SWAP1 LOG4 SWAP4 SWAP3 POP POP POP JUMP JUMPDEST PUSH1 0x4 PUSH1 0x20 MSTORE DUP3 PUSH0 MSTORE PUSH1 0x40 PUSH0 KECCAK256 PUSH1 0x20 MSTORE DUP2 PUSH0 MSTORE PUSH1 0x40 PUSH0 KECCAK256 PUSH1 0x20 MSTORE DUP1 PUSH0 MSTORE PUSH1 0x40 PUSH0 KECCAK256 PUSH0 SWAP3 POP SWAP3 POP POP SWAP1 SLOAD SWAP1 PUSH2 0x100 EXP SWAP1 DIV PUSH20 0xFFFFFFFFFFFFFFFFFFFFFFFFFFFFFFFFFFFFFFFF AND DUP2 JUMP JUMPDEST PUSH2 0x6B53 DUP1 PUSH3 0xC6F DUP4 CODECOPY ADD SWAP1 JUMP JUMPDEST PUSH0 DUP1 REVERT JUMPDEST PUSH0 PUSH3 0xFFFFFF DUP3 AND SWAP1 POP SWAP2 SWAP1 POP JUMP JUMPDEST PUSH3 0x9E4 DUP2 PUSH3 0x9CB JUMP JUMPDEST DUP2 EQ PUSH3 0x9EF JUMPI PUSH0 DUP1 REVERT JUMPDEST POP JUMP JUMPDEST PUSH0 DUP2 CALLDATALOAD SWAP1 POP PUSH3 0xA02 DUP2 PUSH3 0x9D9 JUMP JUMPDEST SWAP3 SWAP2 POP POP JUMP JUMPDEST PUSH0 PUSH1 0x20 DUP3 DUP5 SUB SLT ISZERO PUSH3 0xA20 JUMPI PUSH3 0xA1F PUSH3 0x9C7 JUMP JUMPDEST JUMPDEST PUSH0 PUSH3 0xA2F DUP5 DUP3 DUP6 ADD PUSH3 0x9F2 JUMP JUMPDEST SWAP2 POP POP SWAP3 SWAP2 POP POP JUMP JUMPDEST PUSH3 0xA43 DUP2 PUSH3 0x9CB JUMP JUMPDEST DUP3 MSTORE POP POP JUMP JUMPDEST PUSH0 PUSH1 0x20 DUP3 ADD SWAP1 POP PUSH3 0xA5E PUSH0 DUP4 ADD DUP5 PUSH3 0xA38 JUMP JUMPDEST SWAP3 SWAP2 POP POP JUMP JUMPDEST PUSH0 PUSH20 0xFFFFFFFFFFFFFFFFFFFFFFFFFFFFFFFFFFFFFFFF DUP3 AND SWAP1 POP SWAP2 SWAP1 POP JUMP JUMPDEST PUSH0 PUSH3 0xA8F DUP3 PUSH3 0xA64 JUMP JUMPDEST SWAP1 POP SWAP2 SWAP1 POP JUMP JUMPDEST PUSH3 0xAA1 DUP2 PUSH3 0xA83 JUMP JUMPDEST DUP3 MSTORE POP POP JUMP JUMPDEST PUSH0 PUSH1 0xA0 DUP3 ADD SWAP1 POP PUSH3 0xABC PUSH0 DUP4 ADD DUP9 PUSH3 0xA96 JUMP JUMPDEST PUSH3 0xACB PUSH1 0x20 DUP4 ADD DUP8 PUSH3 0xA96 JUMP JUMPDEST PUSH3 0xADA PUSH1 0x40 DUP4 ADD DUP7 PUSH3 0xA96 JUMP JUMPDEST PUSH3 0xAE9 PUSH1 0x60 DUP4 ADD DUP6 PUSH3 0xA38 JUMP JUMPDEST PUSH3 0xAF8 PUSH1 0x80 DUP4 ADD DUP5 PUSH3 0xA38 JUMP JUMPDEST SWAP7 SWAP6 POP POP POP POP POP POP JUMP JUMPDEST PUSH3 0xB0D DUP2 PUSH3 0xA83 JUMP JUMPDEST DUP2 EQ PUSH3 0xB18 JUMPI PUSH0 DUP1 REVERT JUMPDEST POP JUMP JUMPDEST PUSH0 DUP2 CALLDATALOAD SWAP1 POP PUSH3 0xB2B DUP2 PUSH3 0xB02 JUMP JUMPDEST SWAP3 SWAP2 POP POP JUMP JUMPDEST PUSH0 DUP1 PUSH0 PUSH1 0x60 DUP5 DUP7 SUB SLT ISZERO PUSH3 0xB4B JUMPI PUSH3 0xB4A PUSH3 0x9C7 JUMP JUMPDEST JUMPDEST PUSH0 PUSH3 0xB5A DUP7 DUP3 DUP8 ADD PUSH3 0xB1B JUMP JUMPDEST SWAP4 POP POP PUSH1 0x20 PUSH3 0xB6D DUP7 DUP3 DUP8 ADD PUSH3 0xB1B JUMP JUMPDEST SWAP3 POP POP PUSH1 0x40 PUSH3 0xB80 DUP7 DUP3 DUP8 ADD PUSH3 0x9F2 JUMP JUMPDEST SWAP2 POP POP SWAP3 POP SWAP3 POP SWAP3 JUMP JUMPDEST PUSH0 PUSH1 0x20 DUP3 ADD SWAP1 POP PUSH3 0xB9F PUSH0 DUP4 ADD DUP5 PUSH3 0xA96 JUMP JUMPDEST SWAP3 SWAP2 POP POP JUMP JUMPDEST PUSH0 DUP2 PUSH1 0x60 SHL SWAP1 POP SWAP2 SWAP1 POP JUMP JUMPDEST PUSH0 PUSH3 0xBBD DUP3 PUSH3 0xBA5 JUMP JUMPDEST SWAP1 POP SWAP2 SWAP1 POP JUMP JUMPDEST PUSH0 PUSH3 0xBD0 DUP3 PUSH3 0xBB1 JUMP JUMPDEST SWAP1 POP SWAP2 SWAP1 POP JUMP JUMPDEST PUSH3 0xBEC PUSH3 0xBE6 DUP3 PUSH3 0xA83 JUMP JUMPDEST PUSH3 0xBC4 JUMP JUMPDEST DUP3 MSTORE POP POP JUMP JUMPDEST PUSH0 DUP2 PUSH1 0xE8 SHL SWAP1 POP SWAP2 SWAP1 POP JUMP JUMPDEST PUSH0 PUSH3 0xC0A DUP3 PUSH3 0xBF2 JUMP JUMPDEST SWAP1 POP SWAP2 SWAP1 POP JUMP JUMPDEST PUSH3 0xC26 PUSH3 0xC20 DUP3 PUSH3 0x9CB JUMP JUMPDEST PUSH3 0xBFE JUMP JUMPDEST DUP3 MSTORE POP POP JUMP JUMPDEST PUSH0 PUSH3 0xC39 DUP3 DUP7 PUSH3 0xBD7 JUMP JUMPDEST PUSH1 0x14 DUP3 ADD SWAP2 POP PUSH3 0xC4B DUP3 DUP6 PUSH3 0xBD7 JUMP JUMPDEST PUSH1 0x14 DUP3 ADD SWAP2 POP PUSH3 0xC5D DUP3 DUP5 PUSH3 0xC11 JUMP JUMPDEST PUSH1 0x3 DUP3 ADD SWAP2 POP DUP2 SWAP1 POP SWAP5 SWAP4 POP POP POP POP JUMP INVALID PUSH2 0x120 PUSH1 0x40 MSTORE CALLVALUE DUP1 ISZERO PUSH3 0x11 JUMPI PUSH0 DUP1 REVERT JUMPDEST POP CALLER PUSH20 0xFFFFFFFFFFFFFFFFFFFFFFFFFFFFFFFFFFFFFFFF AND PUSH4 0x89035730 PUSH1 0x40 MLOAD DUP2 PUSH4 0xFFFFFFFF AND PUSH1 0xE0 SHL DUP2 MSTORE PUSH1 0x4 ADD PUSH1 0xA0 PUSH1 0x40 MLOAD DUP1 DUP4 SUB DUP2 DUP7 GAS STATICCALL ISZERO DUP1 ISZERO PUSH3 0x5C JUMPI RETURNDATASIZE PUSH0 DUP1 RETURNDATACOPY RETURNDATASIZE PUSH0 REVERT JUMPDEST POP POP POP POP PUSH1 0x40 MLOAD RETURNDATASIZE PUSH1 0x1F NOT PUSH1 0x1F DUP3 ADD AND DUP3 ADD DUP1 PUSH1 0x40 MSTORE POP DUP2 ADD SWAP1 PUSH3 0x82 SWAP2 SWAP1 PUSH3 0x1EB JUMP JUMPDEST DUP1 PUSH3 0xFFFFFF AND PUSH2 0x100 SWAP1 PUSH3 0xFFFFFF AND DUP2 MSTORE POP DUP2 PUSH3 0xFFFFFF AND PUSH1 0xE0 SWAP1 PUSH3 0xFFFFFF AND DUP2 MSTORE POP DUP3 PUSH20 0xFFFFFFFFFFFFFFFFFFFFFFFFFFFFFFFFFFFFFFFF AND PUSH1 0xC0 SWAP1 PUSH20 0xFFFFFFFFFFFFFFFFFFFFFFFFFFFFFFFFFFFFFFFF AND DUP2 MSTORE POP DUP4 PUSH20 0xFFFFFFFFFFFFFFFFFFFFFFFFFFFFFFFFFFFFFFFF AND PUSH1 0xA0 SWAP1 PUSH20 0xFFFFFFFFFFFFFFFFFFFFFFFFFFFFFFFFFFFFFFFF AND DUP2 MSTORE POP DUP5 PUSH20 0xFFFFFFFFFFFFFFFFFFFFFFFFFFFFFFFFFFFFFFFF AND PUSH1 0x80 SWAP1 PUSH20 0xFFFFFFFFFFFFFFFFFFFFFFFFFFFFFFFFFFFFFFFF AND DUP2 MSTORE POP POP POP POP POP POP PUSH3 0x26F JUMP JUMPDEST PUSH0 DUP1 REVERT JUMPDEST PUSH0 PUSH20 0xFFFFFFFFFFFFFFFFFFFFFFFFFFFFFFFFFFFFFFFF DUP3 AND SWAP1 POP SWAP2 SWAP1 POP JUMP JUMPDEST PUSH0 PUSH3 0x178 DUP3 PUSH3 0x14D JUMP JUMPDEST SWAP1 POP SWAP2 SWAP1 POP JUMP JUMPDEST PUSH3 0x18A DUP2 PUSH3 0x16C JUMP JUMPDEST DUP2 EQ PUSH3 0x195 JUMPI PUSH0 DUP1 REVERT JUMPDEST POP JUMP JUMPDEST PUSH0 DUP2 MLOAD SWAP1 POP PUSH3 0x1A8 DUP2 PUSH3 0x17F JUMP JUMPDEST SWAP3 SWAP2 POP POP JUMP JUMPDEST PUSH0 PUSH3 0xFFFFFF DUP3 AND SWAP1 POP SWAP2 SWAP1 POP JUMP JUMPDEST PUSH3 0x1C7 DUP2 PUSH3 0x1AE JUMP JUMPDEST DUP2 EQ PUSH3 0x1D2 JUMPI PUSH0 DUP1 REVERT JUMPDEST POP JUMP JUMPDEST PUSH0 DUP2 MLOAD SWAP1 POP PUSH3 0x1E5 DUP2 PUSH3 0x1BC JUMP JUMPDEST SWAP3 SWAP2 POP POP JUMP JUMPDEST PUSH0 DUP1 PUSH0 DUP1 PUSH0 PUSH1 0xA0 DUP7 DUP9 SUB SLT ISZERO PUSH3 0x207 JUMPI PUSH3 0x206 PUSH3 0x149 JUMP JUMPDEST JUMPDEST PUSH0 PUSH3 0x216 DUP9 DUP3 DUP10 ADD PUSH3 0x198 JUMP JUMPDEST SWAP6 POP POP PUSH1 0x20 PUSH3 0x229 DUP9 DUP3 DUP10 ADD PUSH3 0x198 JUMP JUMPDEST SWAP5 POP POP PUSH1 0x40 PUSH3 0x23C DUP9 DUP3 DUP10 ADD PUSH3 0x198 JUMP JUMPDEST SWAP4 POP POP PUSH1 0x60 PUSH3 0x24F DUP9 DUP3 DUP10 ADD PUSH3 0x1D5 JUMP JUMPDEST SWAP3 POP POP PUSH1 0x80 PUSH3 0x262 DUP9 DUP3 DUP10 ADD PUSH3 0x1D5 JUMP JUMPDEST SWAP2 POP POP SWAP3 SWAP6 POP SWAP3 SWAP6 SWAP1 SWAP4 POP JUMP JUMPDEST PUSH1 0x80 MLOAD PUSH1 0xA0 MLOAD PUSH1 0xC0 MLOAD PUSH1 0xE0 MLOAD PUSH2 0x100 MLOAD PUSH2 0x6828 PUSH3 0x32B PUSH0 CODECOPY PUSH0 DUP2 DUP2 PUSH2 0x90B ADD MSTORE DUP2 DUP2 PUSH2 0x941 ADD MSTORE DUP2 DUP2 PUSH2 0x197F ADD MSTORE PUSH2 0x2204 ADD MSTORE PUSH0 DUP2 DUP2 PUSH2 0x14E2 ADD MSTORE DUP2 DUP2 PUSH2 0x1859 ADD MSTORE DUP2 DUP2 PUSH2 0x2652 ADD MSTORE PUSH2 0x2693 ADD MSTORE PUSH0 DUP2 DUP2 PUSH2 0xA0F ADD MSTORE DUP2 DUP2 PUSH2 0xB43 ADD MSTORE DUP2 DUP2 PUSH2 0xD21 ADD MSTORE DUP2 DUP2 PUSH2 0x10D7 ADD MSTORE DUP2 DUP2 PUSH2 0x1506 ADD MSTORE DUP2 DUP2 PUSH2 0x1EA1 ADD MSTORE PUSH2 0x28E9 ADD MSTORE PUSH0 DUP2 DUP2 PUSH2 0x45F ADD MSTORE DUP2 DUP2 PUSH2 0x973 ADD MSTORE DUP2 DUP2 PUSH2 0xAB2 ADD MSTORE DUP2 DUP2 PUSH2 0xC44 ADD MSTORE DUP2 DUP2 PUSH2 0xFCF ADD MSTORE DUP2 DUP2 PUSH2 0x1FFB ADD MSTORE PUSH2 0x284A ADD MSTORE PUSH0 PUSH2 0x14BE ADD MSTORE PUSH2 0x6828 PUSH0 RETURN INVALID PUSH1 0x80 PUSH1 0x40 MSTORE CALLVALUE DUP1 ISZERO PUSH2 0xF JUMPI PUSH0 DUP1 REVERT JUMPDEST POP PUSH1 0x4 CALLDATASIZE LT PUSH2 0x135 JUMPI PUSH0 CALLDATALOAD PUSH1 0xE0 SHR DUP1 PUSH4 0x5339C296 GT PUSH2 0xB6 JUMPI DUP1 PUSH4 0xD21220A7 GT PUSH2 0x7A JUMPI DUP1 PUSH4 0xD21220A7 EQ PUSH2 0x382 JUMPI DUP1 PUSH4 0xDD5A12D8 EQ PUSH2 0x3A0 JUMPI DUP1 PUSH4 0xDDCA3F43 EQ PUSH2 0x3D1 JUMPI DUP1 PUSH4 0xF3058399 EQ PUSH2 0x3EF JUMPI DUP1 PUSH4 0xF30DBA93 EQ PUSH2 0x40D JUMPI DUP1 PUSH4 0xF637731D EQ PUSH2 0x441 JUMPI PUSH2 0x135 JUMP JUMPDEST DUP1 PUSH4 0x5339C296 EQ PUSH2 0x2B5 JUMPI DUP1 PUSH4 0x883BDBFD EQ PUSH2 0x2E5 JUMPI DUP1 PUSH4 0xA34123A7 EQ PUSH2 0x315 JUMPI DUP1 PUSH4 0xC45A0155 EQ PUSH2 0x346 JUMPI DUP1 PUSH4 0xD0C93A7C EQ PUSH2 0x364 JUMPI PUSH2 0x135 JUMP JUMPDEST DUP1 PUSH4 0x3C8A7D8D GT PUSH2 0xFD JUMPI DUP1 PUSH4 0x3C8A7D8D EQ PUSH2 0x1E5 JUMPI DUP1 PUSH4 0x46141319 EQ PUSH2 0x216 JUMPI DUP1 PUSH4 0x4A182392 EQ PUSH2 0x234 JUMPI DUP1 PUSH4 0x4F1EB3D8 EQ PUSH2 0x250 JUMPI DUP1 PUSH4 0x514EA4BF EQ PUSH2 0x281 JUMPI PUSH2 0x135 JUMP JUMPDEST DUP1 PUSH4 0xDFE1681 EQ PUSH2 0x139 JUMPI DUP1 PUSH4 0x1A686502 EQ PUSH2 0x157 JUMPI DUP1 PUSH4 0x252C09D7 EQ PUSH2 0x175 JUMPI DUP1 PUSH4 0x32148F67 EQ PUSH2 0x1A7 JUMPI DUP1 PUSH4 0x3850C7BD EQ PUSH2 0x1C3 JUMPI JUMPDEST PUSH0 DUP1 REVERT JUMPDEST PUSH2 0x141 PUSH2 0x45D JUMP JUMPDEST PUSH1 0x40 MLOAD PUSH2 0x14E SWAP2 SWAP1 PUSH2 0x4F74 JUMP JUMPDEST PUSH1 0x40 MLOAD DUP1 SWAP2 SUB SWAP1 RETURN JUMPDEST PUSH2 0x15F PUSH2 0x481 JUMP JUMPDEST PUSH1 0x40 MLOAD PUSH2 0x16C SWAP2 SWAP1 PUSH2 0x4FB7 JUMP JUMPDEST PUSH1 0x40 MLOAD DUP1 SWAP2 SUB SWAP1 RETURN JUMPDEST PUSH2 0x18F PUSH1 0x4 DUP1 CALLDATASIZE SUB DUP2 ADD SWAP1 PUSH2 0x18A SWAP2 SWAP1 PUSH2 0x500B JUMP JUMPDEST PUSH2 0x4A2 JUMP JUMPDEST PUSH1 0x40 MLOAD PUSH2 0x19E SWAP4 SWAP3 SWAP2 SWAP1 PUSH2 0x5089 JUMP JUMPDEST PUSH1 0x40 MLOAD DUP1 SWAP2 SUB SWAP1 RETURN JUMPDEST PUSH2 0x1C1 PUSH1 0x4 DUP1 CALLDATASIZE SUB DUP2 ADD SWAP1 PUSH2 0x1BC SWAP2 SWAP1 PUSH2 0x50F5 JUMP JUMPDEST PUSH2 0x4F4 JUMP JUMPDEST STOP JUMPDEST PUSH2 0x1CB PUSH2 0x590 JUMP JUMPDEST PUSH1 0x40 MLOAD PUSH2 0x1DC SWAP6 SWAP5 SWAP4 SWAP3 SWAP2 SWAP1 PUSH2 0x5159 JUMP JUMPDEST PUSH1 0x40 MLOAD DUP1 SWAP2 SUB SWAP1 RETURN JUMPDEST PUSH2 0x1FF PUSH1 0x4 DUP1 CALLDATASIZE SUB DUP2 ADD SWAP1 PUSH2 0x1FA SWAP2 SWAP1 PUSH2 0x5289 JUMP JUMPDEST PUSH2 0x605 JUMP JUMPDEST PUSH1 0x40 MLOAD PUSH2 0x20D SWAP3 SWAP2 SWAP1 PUSH2 0x532E JUMP JUMPDEST PUSH1 0x40 MLOAD DUP1 SWAP2 SUB SWAP1 RETURN JUMPDEST PUSH2 0x21E PUSH2 0x8FE JUMP JUMPDEST PUSH1 0x40 MLOAD PUSH2 0x22B SWAP2 SWAP1 PUSH2 0x5355 JUMP JUMPDEST PUSH1 0x40 MLOAD DUP1 SWAP2 SUB SWAP1 RETURN JUMPDEST PUSH2 0x24E PUSH1 0x4 DUP1 CALLDATASIZE SUB DUP2 ADD SWAP1 PUSH2 0x249 SWAP2 SWAP1 PUSH2 0x536E JUMP JUMPDEST PUSH2 0x904 JUMP JUMPDEST STOP JUMPDEST PUSH2 0x26A PUSH1 0x4 DUP1 CALLDATASIZE SUB DUP2 ADD SWAP1 PUSH2 0x265 SWAP2 SWAP1 PUSH2 0x53DF JUMP JUMPDEST PUSH2 0xE4A JUMP JUMPDEST PUSH1 0x40 MLOAD PUSH2 0x278 SWAP3 SWAP2 SWAP1 PUSH2 0x5456 JUMP JUMPDEST PUSH1 0x40 MLOAD DUP1 SWAP2 SUB SWAP1 RETURN JUMPDEST PUSH2 0x29B PUSH1 0x4 DUP1 CALLDATASIZE SUB DUP2 ADD SWAP1 PUSH2 0x296 SWAP2 SWAP1 PUSH2 0x54B0 JUMP JUMPDEST PUSH2 0x11C3 JUMP JUMPDEST PUSH1 0x40 MLOAD PUSH2 0x2AC SWAP6 SWAP5 SWAP4 SWAP3 SWAP2 SWAP1 PUSH2 0x54DB JUMP JUMPDEST PUSH1 0x40 MLOAD DUP1 SWAP2 SUB SWAP1 RETURN JUMPDEST PUSH2 0x2CF PUSH1 0x4 DUP1 CALLDATASIZE SUB DUP2 ADD SWAP1 PUSH2 0x2CA SWAP2 SWAP1 PUSH2 0x5562 JUMP JUMPDEST PUSH2 0x1247 JUMP JUMPDEST PUSH1 0x40 MLOAD PUSH2 0x2DC SWAP2 SWAP1 PUSH2 0x5355 JUMP JUMPDEST PUSH1 0x40 MLOAD DUP1 SWAP2 SUB SWAP1 RETURN JUMPDEST PUSH2 0x2FF PUSH1 0x4 DUP1 CALLDATASIZE SUB DUP2 ADD SWAP1 PUSH2 0x2FA SWAP2 SWAP1 PUSH2 0x55E2 JUMP JUMPDEST PUSH2 0x125C JUMP JUMPDEST PUSH1 0x40 MLOAD PUSH2 0x30C SWAP2 SWAP1 PUSH2 0x56E4 JUMP JUMPDEST PUSH1 0x40 MLOAD DUP1 SWAP2 SUB SWAP1 RETURN JUMPDEST PUSH2 0x32F PUSH1 0x4 DUP1 CALLDATASIZE SUB DUP2 ADD SWAP1 PUSH2 0x32A SWAP2 SWAP1 PUSH2 0x5704 JUMP JUMPDEST PUSH2 0x12FE JUMP JUMPDEST PUSH1 0x40 MLOAD PUSH2 0x33D SWAP3 SWAP2 SWAP1 PUSH2 0x532E JUMP JUMPDEST PUSH1 0x40 MLOAD DUP1 SWAP2 SUB SWAP1 RETURN JUMPDEST PUSH2 0x34E PUSH2 0x14BC JUMP JUMPDEST PUSH1 0x40 MLOAD PUSH2 0x35B SWAP2 SWAP1 PUSH2 0x4F74 JUMP JUMPDEST PUSH1 0x40 MLOAD DUP1 SWAP2 SUB SWAP1 RETURN JUMPDEST PUSH2 0x36C PUSH2 0x14E0 JUMP JUMPDEST PUSH1 0x40 MLOAD PUSH2 0x379 SWAP2 SWAP1 PUSH2 0x5771 JUMP JUMPDEST PUSH1 0x40 MLOAD DUP1 SWAP2 SUB SWAP1 RETURN JUMPDEST PUSH2 0x38A PUSH2 0x1504 JUMP JUMPDEST PUSH1 0x40 MLOAD PUSH2 0x397 SWAP2 SWAP1 PUSH2 0x4F74 JUMP JUMPDEST PUSH1 0x40 MLOAD DUP1 SWAP2 SUB SWAP1 RETURN JUMPDEST PUSH2 0x3BA PUSH1 0x4 DUP1 CALLDATASIZE SUB DUP2 ADD SWAP1 PUSH2 0x3B5 SWAP2 SWAP1 PUSH2 0x57DE JUMP JUMPDEST PUSH2 0x1528 JUMP JUMPDEST PUSH1 0x40 MLOAD PUSH2 0x3C8 SWAP3 SWAP2 SWAP1 PUSH2 0x588C JUMP JUMPDEST PUSH1 0x40 MLOAD DUP1 SWAP2 SUB SWAP1 RETURN JUMPDEST PUSH2 0x3D9 PUSH2 0x2202 JUMP JUMPDEST PUSH1 0x40 MLOAD PUSH2 0x3E6 SWAP2 SWAP1 PUSH2 0x5771 JUMP JUMPDEST PUSH1 0x40 MLOAD DUP1 SWAP2 SUB SWAP1 RETURN JUMPDEST PUSH2 0x3F7 PUSH2 0x2226 JUMP JUMPDEST PUSH1 0x40 MLOAD PUSH2 0x404 SWAP2 SWAP1 PUSH2 0x5355 JUMP JUMPDEST PUSH1 0x40 MLOAD DUP1 SWAP2 SUB SWAP1 RETURN JUMPDEST PUSH2 0x427 PUSH1 0x4 DUP1 CALLDATASIZE SUB DUP2 ADD SWAP1 PUSH2 0x422 SWAP2 SWAP1 PUSH2 0x58B3 JUMP JUMPDEST PUSH2 0x222B JUMP JUMPDEST PUSH1 0x40 MLOAD PUSH2 0x438 SWAP6 SWAP5 SWAP4 SWAP3 SWAP2 SWAP1 PUSH2 0x58F9 JUMP JUMPDEST PUSH1 0x40 MLOAD DUP1 SWAP2 SUB SWAP1 RETURN JUMPDEST PUSH2 0x45B PUSH1 0x4 DUP1 CALLDATASIZE SUB DUP2 ADD SWAP1 PUSH2 0x456 SWAP2 SWAP1 PUSH2 0x594A JUMP JUMPDEST PUSH2 0x2290 JUMP JUMPDEST STOP JUMPDEST PUSH32 0x0 DUP2 JUMP JUMPDEST PUSH1 0x3 PUSH0 SWAP1 SLOAD SWAP1 PUSH2 0x100 EXP SWAP1 DIV PUSH16 0xFFFFFFFFFFFFFFFFFFFFFFFFFFFFFFFF AND DUP2 JUMP JUMPDEST PUSH1 0x7 DUP2 PUSH2 0xFFFF DUP2 LT PUSH2 0x4B2 JUMPI PUSH0 DUP1 REVERT JUMPDEST ADD PUSH0 SWAP2 POP SWAP1 POP DUP1 PUSH0 ADD PUSH0 SWAP1 SLOAD SWAP1 PUSH2 0x100 EXP SWAP1 DIV PUSH4 0xFFFFFFFF AND SWAP1 DUP1 PUSH0 ADD PUSH1 0x4 SWAP1 SLOAD SWAP1 PUSH2 0x100 EXP SWAP1 DIV PUSH1 0x6 SIGNEXTEND SWAP1 DUP1 PUSH0 ADD PUSH1 0xB SWAP1 SLOAD SWAP1 PUSH2 0x100 EXP SWAP1 DIV PUSH1 0xFF AND SWAP1 POP DUP4 JUMP JUMPDEST PUSH0 PUSH1 0x2 PUSH0 ADD PUSH1 0x1B SWAP1 SLOAD SWAP1 PUSH2 0x100 EXP SWAP1 DIV PUSH2 0xFFFF AND SWAP1 POP PUSH0 PUSH2 0x521 DUP3 DUP5 PUSH1 0x7 PUSH2 0x2457 SWAP1 SWAP3 SWAP2 SWAP1 PUSH4 0xFFFFFFFF AND JUMP JUMPDEST SWAP1 POP DUP2 PUSH2 0xFFFF AND DUP2 PUSH2 0xFFFF AND EQ PUSH2 0x58B JUMPI DUP1 PUSH1 0x2 PUSH0 ADD PUSH1 0x1B PUSH2 0x100 EXP DUP2 SLOAD DUP2 PUSH2 0xFFFF MUL NOT AND SWAP1 DUP4 PUSH2 0xFFFF AND MUL OR SWAP1 SSTORE POP PUSH32 0xAC49E518F90A358F652E4400164F05A5D8F7E35E7747279BC3A93DBF584E125A DUP3 DUP3 PUSH1 0x40 MLOAD PUSH2 0x582 SWAP3 SWAP2 SWAP1 PUSH2 0x5975 JUMP JUMPDEST PUSH1 0x40 MLOAD DUP1 SWAP2 SUB SWAP1 LOG1 JUMPDEST POP POP POP JUMP JUMPDEST PUSH1 0x2 DUP1 PUSH0 ADD PUSH0 SWAP1 SLOAD SWAP1 PUSH2 0x100 EXP SWAP1 DIV PUSH20 0xFFFFFFFFFFFFFFFFFFFFFFFFFFFFFFFFFFFFFFFF AND SWAP1 DUP1 PUSH0 ADD PUSH1 0x14 SWAP1 SLOAD SWAP1 PUSH2 0x100 EXP SWAP1 DIV PUSH1 0x2 SIGNEXTEND SWAP1 DUP1 PUSH0 ADD PUSH1 0x17 SWAP1 SLOAD SWAP1 PUSH2 0x100 EXP SWAP1 DIV PUSH2 0xFFFF AND SWAP1 DUP1 PUSH0 ADD PUSH1 0x19 SWAP1 SLOAD SWAP1 PUSH2 0x100 EXP SWAP1 DIV PUSH2 0xFFFF AND SWAP1 DUP1 PUSH0 ADD PUSH1 0x1B SWAP1 SLOAD SWAP1 PUSH2 0x100 EXP SWAP1 DIV PUSH2 0xFFFF AND SWAP1 POP DUP6 JUMP JUMPDEST PUSH0 DUP1 DUP6 PUSH1 0x2 SIGNEXTEND DUP8 PUSH1 0x2 SIGNEXTEND SLT ISZERO DUP1 PUSH2 0x641 JUMPI POP PUSH32 0xFFFFFFFFFFFFFFFFFFFFFFFFFFFFFFFFFFFFFFFFFFFFFFFFFFFFFFFFFFF27618 PUSH1 0x2 SIGNEXTEND DUP8 PUSH1 0x2 SIGNEXTEND SLT JUMPDEST DUP1 PUSH2 0x67A JUMPI POP PUSH32 0xFFFFFFFFFFFFFFFFFFFFFFFFFFFFFFFFFFFFFFFFFFFFFFFFFFFFFFFFFFF27618 PUSH2 0x671 SWAP1 PUSH2 0x59C9 JUMP JUMPDEST PUSH1 0x2 SIGNEXTEND DUP7 PUSH1 0x2 SIGNEXTEND SGT JUMPDEST ISZERO PUSH2 0x6B1 JUMPI PUSH1 0x40 MLOAD PUSH32 0x64847D000000000000000000000000000000000000000000000000000000000 DUP2 MSTORE PUSH1 0x4 ADD PUSH1 0x40 MLOAD DUP1 SWAP2 SUB SWAP1 REVERT JUMPDEST PUSH0 DUP6 PUSH16 0xFFFFFFFFFFFFFFFFFFFFFFFFFFFFFFFF AND SUB PUSH2 0x6FC JUMPI PUSH1 0x40 MLOAD PUSH32 0x1007454800000000000000000000000000000000000000000000000000000000 DUP2 MSTORE PUSH1 0x4 ADD PUSH1 0x40 MLOAD DUP1 SWAP2 SUB SWAP1 REVERT JUMPDEST PUSH0 DUP1 PUSH2 0x746 PUSH1 0x40 MLOAD DUP1 PUSH1 0x80 ADD PUSH1 0x40 MSTORE DUP1 DUP13 PUSH20 0xFFFFFFFFFFFFFFFFFFFFFFFFFFFFFFFFFFFFFFFF AND DUP2 MSTORE PUSH1 0x20 ADD DUP12 PUSH1 0x2 SIGNEXTEND DUP2 MSTORE PUSH1 0x20 ADD DUP11 PUSH1 0x2 SIGNEXTEND DUP2 MSTORE PUSH1 0x20 ADD DUP10 PUSH1 0xF SIGNEXTEND DUP2 MSTORE POP PUSH2 0x24D7 JUMP JUMPDEST SWAP3 POP SWAP3 POP POP DUP2 SWAP4 POP DUP1 SWAP3 POP PUSH0 DUP1 PUSH0 DUP7 GT ISZERO PUSH2 0x766 JUMPI PUSH2 0x763 PUSH2 0x2847 JUMP JUMPDEST SWAP2 POP JUMPDEST PUSH0 DUP6 GT ISZERO PUSH2 0x779 JUMPI PUSH2 0x776 PUSH2 0x28E6 JUMP JUMPDEST SWAP1 POP JUMPDEST CALLER PUSH20 0xFFFFFFFFFFFFFFFFFFFFFFFFFFFFFFFFFFFFFFFF AND PUSH4 0x9F382E9B DUP8 DUP8 DUP12 DUP12 PUSH1 0x40 MLOAD DUP6 PUSH4 0xFFFFFFFF AND PUSH1 0xE0 SHL DUP2 MSTORE PUSH1 0x4 ADD PUSH2 0x7B8 SWAP5 SWAP4 SWAP3 SWAP2 SWAP1 PUSH2 0x5A69 JUMP JUMPDEST PUSH0 PUSH1 0x40 MLOAD DUP1 DUP4 SUB DUP2 PUSH0 DUP8 DUP1 EXTCODESIZE ISZERO DUP1 ISZERO PUSH2 0x7CF JUMPI PUSH0 DUP1 REVERT JUMPDEST POP GAS CALL ISZERO DUP1 ISZERO PUSH2 0x7E1 JUMPI RETURNDATASIZE PUSH0 DUP1 RETURNDATACOPY RETURNDATASIZE PUSH0 REVERT JUMPDEST POP POP POP POP PUSH0 DUP7 GT DUP1 ISZERO PUSH2 0x805 JUMPI POP PUSH2 0x7F7 PUSH2 0x2847 JUMP JUMPDEST DUP7 DUP4 PUSH2 0x803 SWAP2 SWAP1 PUSH2 0x5AA7 JUMP JUMPDEST GT JUMPDEST ISZERO PUSH2 0x83C JUMPI PUSH1 0x40 MLOAD PUSH32 0x98FB56100000000000000000000000000000000000000000000000000000000 DUP2 MSTORE PUSH1 0x4 ADD PUSH1 0x40 MLOAD DUP1 SWAP2 SUB SWAP1 REVERT JUMPDEST PUSH0 DUP6 GT DUP1 ISZERO PUSH2 0x85C JUMPI POP PUSH2 0x84E PUSH2 0x28E6 JUMP JUMPDEST DUP6 DUP3 PUSH2 0x85A SWAP2 SWAP1 PUSH2 0x5AA7 JUMP JUMPDEST GT JUMPDEST ISZERO PUSH2 0x893 JUMPI PUSH1 0x40 MLOAD PUSH32 0x98FB56100000000000000000000000000000000000000000000000000000000 DUP2 MSTORE PUSH1 0x4 ADD PUSH1 0x40 MLOAD DUP1 SWAP2 SUB SWAP1 REVERT JUMPDEST DUP10 PUSH1 0x2 SIGNEXTEND DUP12 PUSH1 0x2 SIGNEXTEND DUP14 PUSH20 0xFFFFFFFFFFFFFFFFFFFFFFFFFFFFFFFFFFFFFFFF AND PUSH32 0x7A53080BA414158BE7EC69B987B5FB7D07DEE101FE85488F0853AE16239D0BDE CALLER DUP14 DUP12 DUP12 PUSH1 0x40 MLOAD PUSH2 0x8E7 SWAP5 SWAP4 SWAP3 SWAP2 SWAP1 PUSH2 0x5ADA JUMP JUMPDEST PUSH1 0x40 MLOAD DUP1 SWAP2 SUB SWAP1 LOG4 POP POP POP POP SWAP7 POP SWAP7 SWAP5 POP POP POP POP POP JUMP JUMPDEST PUSH1 0x1 SLOAD DUP2 JUMP JUMPDEST PUSH0 PUSH2 0x938 DUP6 PUSH32 0x0 PUSH3 0xFFFFFF AND PUSH3 0xF4240 PUSH2 0x2985 JUMP JUMPDEST SWAP1 POP PUSH0 PUSH2 0x96E DUP6 PUSH32 0x0 PUSH3 0xFFFFFF AND PUSH3 0xF4240 PUSH2 0x2985 JUMP JUMPDEST SWAP1 POP PUSH0 PUSH32 0x0 PUSH20 0xFFFFFFFFFFFFFFFFFFFFFFFFFFFFFFFFFFFFFFFF AND PUSH4 0x70A08231 ADDRESS PUSH1 0x40 MLOAD DUP3 PUSH4 0xFFFFFFFF AND PUSH1 0xE0 SHL DUP2 MSTORE PUSH1 0x4 ADD PUSH2 0x9CA SWAP2 SWAP1 PUSH2 0x4F74 JUMP JUMPDEST PUSH1 0x20 PUSH1 0x40 MLOAD DUP1 DUP4 SUB DUP2 PUSH0 DUP8 GAS CALL ISZERO DUP1 ISZERO PUSH2 0x9E6 JUMPI RETURNDATASIZE PUSH0 DUP1 RETURNDATACOPY RETURNDATASIZE PUSH0 REVERT JUMPDEST POP POP POP POP PUSH1 0x40 MLOAD RETURNDATASIZE PUSH1 0x1F NOT PUSH1 0x1F DUP3 ADD AND DUP3 ADD DUP1 PUSH1 0x40 MSTORE POP DUP2 ADD SWAP1 PUSH2 0xA0A SWAP2 SWAP1 PUSH2 0x5B31 JUMP JUMPDEST SWAP1 POP PUSH0 PUSH32 0x0 PUSH20 0xFFFFFFFFFFFFFFFFFFFFFFFFFFFFFFFFFFFFFFFF AND PUSH4 0x70A08231 ADDRESS PUSH1 0x40 MLOAD DUP3 PUSH4 0xFFFFFFFF AND PUSH1 0xE0 SHL DUP2 MSTORE PUSH1 0x4 ADD PUSH2 0xA66 SWAP2 SWAP1 PUSH2 0x4F74 JUMP JUMPDEST PUSH1 0x20 PUSH1 0x40 MLOAD DUP1 DUP4 SUB DUP2 PUSH0 DUP8 GAS CALL ISZERO DUP1 ISZERO PUSH2 0xA82 JUMPI RETURNDATASIZE PUSH0 DUP1 RETURNDATACOPY RETURNDATASIZE PUSH0 REVERT JUMPDEST POP POP POP POP PUSH1 0x40 MLOAD RETURNDATASIZE PUSH1 0x1F NOT PUSH1 0x1F DUP3 ADD AND DUP3 ADD DUP1 PUSH1 0x40 MSTORE POP DUP2 ADD SWAP1 PUSH2 0xAA6 SWAP2 SWAP1 PUSH2 0x5B31 JUMP JUMPDEST SWAP1 POP PUSH0 DUP9 GT ISZERO PUSH2 0xB39 JUMPI PUSH32 0x0 PUSH20 0xFFFFFFFFFFFFFFFFFFFFFFFFFFFFFFFFFFFFFFFF AND PUSH4 0xA9059CBB CALLER DUP11 PUSH1 0x40 MLOAD DUP4 PUSH4 0xFFFFFFFF AND PUSH1 0xE0 SHL DUP2 MSTORE PUSH1 0x4 ADD PUSH2 0xB0B SWAP3 SWAP2 SWAP1 PUSH2 0x5B5C JUMP JUMPDEST PUSH0 PUSH1 0x40 MLOAD DUP1 DUP4 SUB DUP2 PUSH0 DUP8 DUP1 EXTCODESIZE ISZERO DUP1 ISZERO PUSH2 0xB22 JUMPI PUSH0 DUP1 REVERT JUMPDEST POP GAS CALL ISZERO DUP1 ISZERO PUSH2 0xB34 JUMPI RETURNDATASIZE PUSH0 DUP1 RETURNDATACOPY RETURNDATASIZE PUSH0 REVERT JUMPDEST POP POP POP POP JUMPDEST PUSH0 DUP8 GT ISZERO PUSH2 0xBCA JUMPI PUSH32 0x0 PUSH20 0xFFFFFFFFFFFFFFFFFFFFFFFFFFFFFFFFFFFFFFFF AND PUSH4 0xA9059CBB CALLER DUP10 PUSH1 0x40 MLOAD DUP4 PUSH4 0xFFFFFFFF AND PUSH1 0xE0 SHL DUP2 MSTORE PUSH1 0x4 ADD PUSH2 0xB9C SWAP3 SWAP2 SWAP1 PUSH2 0x5B5C JUMP JUMPDEST PUSH0 PUSH1 0x40 MLOAD DUP1 DUP4 SUB DUP2 PUSH0 DUP8 DUP1 EXTCODESIZE ISZERO DUP1 ISZERO PUSH2 0xBB3 JUMPI PUSH0 DUP1 REVERT JUMPDEST POP GAS CALL ISZERO DUP1 ISZERO PUSH2 0xBC5 JUMPI RETURNDATASIZE PUSH0 DUP1 RETURNDATACOPY RETURNDATASIZE PUSH0 REVERT JUMPDEST POP POP POP POP JUMPDEST CALLER PUSH20 0xFFFFFFFFFFFFFFFFFFFFFFFFFFFFFFFFFFFFFFFF AND PUSH4 0xC3924ED6 DUP6 DUP6 DUP10 DUP10 PUSH1 0x40 MLOAD DUP6 PUSH4 0xFFFFFFFF AND PUSH1 0xE0 SHL DUP2 MSTORE PUSH1 0x4 ADD PUSH2 0xC09 SWAP5 SWAP4 SWAP3 SWAP2 SWAP1 PUSH2 0x5A69 JUMP JUMPDEST PUSH0 PUSH1 0x40 MLOAD DUP1 DUP4 SUB DUP2 PUSH0 DUP8 DUP1 EXTCODESIZE ISZERO DUP1 ISZERO PUSH2 0xC20 JUMPI PUSH0 DUP1 REVERT JUMPDEST POP GAS CALL ISZERO DUP1 ISZERO PUSH2 0xC32 JUMPI RETURNDATASIZE PUSH0 DUP1 RETURNDATACOPY RETURNDATASIZE PUSH0 REVERT JUMPDEST POP POP POP POP DUP4 DUP3 PUSH2 0xC42 SWAP2 SWAP1 PUSH2 0x5AA7 JUMP JUMPDEST PUSH32 0x0 PUSH20 0xFFFFFFFFFFFFFFFFFFFFFFFFFFFFFFFFFFFFFFFF AND PUSH4 0x70A08231 ADDRESS PUSH1 0x40 MLOAD DUP3 PUSH4 0xFFFFFFFF AND PUSH1 0xE0 SHL DUP2 MSTORE PUSH1 0x4 ADD PUSH2 0xC9B SWAP2 SWAP1 PUSH2 0x4F74 JUMP JUMPDEST PUSH1 0x20 PUSH1 0x40 MLOAD DUP1 DUP4 SUB DUP2 PUSH0 DUP8 GAS CALL ISZERO DUP1 ISZERO PUSH2 0xCB7 JUMPI RETURNDATASIZE PUSH0 DUP1 RETURNDATACOPY RETURNDATASIZE PUSH0 REVERT JUMPDEST POP POP POP POP PUSH1 0x40 MLOAD RETURNDATASIZE PUSH1 0x1F NOT PUSH1 0x1F DUP3 ADD AND DUP3 ADD DUP1 PUSH1 0x40 MSTORE POP DUP2 ADD SWAP1 PUSH2 0xCDB SWAP2 SWAP1 PUSH2 0x5B31 JUMP JUMPDEST LT ISZERO PUSH2 0xD13 JUMPI PUSH1 0x40 MLOAD PUSH32 0x7BC35E0500000000000000000000000000000000000000000000000000000000 DUP2 MSTORE PUSH1 0x4 ADD PUSH1 0x40 MLOAD DUP1 SWAP2 SUB SWAP1 REVERT JUMPDEST DUP3 DUP2 PUSH2 0xD1F SWAP2 SWAP1 PUSH2 0x5AA7 JUMP JUMPDEST PUSH32 0x0 PUSH20 0xFFFFFFFFFFFFFFFFFFFFFFFFFFFFFFFFFFFFFFFF AND PUSH4 0x70A08231 ADDRESS PUSH1 0x40 MLOAD DUP3 PUSH4 0xFFFFFFFF AND PUSH1 0xE0 SHL DUP2 MSTORE PUSH1 0x4 ADD PUSH2 0xD78 SWAP2 SWAP1 PUSH2 0x4F74 JUMP JUMPDEST PUSH1 0x20 PUSH1 0x40 MLOAD DUP1 DUP4 SUB DUP2 PUSH0 DUP8 GAS CALL ISZERO DUP1 ISZERO PUSH2 0xD94 JUMPI RETURNDATASIZE PUSH0 DUP1 RETURNDATACOPY RETURNDATASIZE PUSH0 REVERT JUMPDEST POP POP POP POP PUSH1 0x40 MLOAD RETURNDATASIZE PUSH1 0x1F NOT PUSH1 0x1F DUP3 ADD AND DUP3 ADD DUP1 PUSH1 0x40 MSTORE POP DUP2 ADD SWAP1 PUSH2 0xDB8 SWAP2 SWAP1 PUSH2 0x5B31 JUMP JUMPDEST LT ISZERO PUSH2 0xDF0 JUMPI PUSH1 0x40 MLOAD PUSH32 0x7BC35E0500000000000000000000000000000000000000000000000000000000 DUP2 MSTORE PUSH1 0x4 ADD PUSH1 0x40 MLOAD DUP1 SWAP2 SUB SWAP1 REVERT JUMPDEST CALLER PUSH20 0xFFFFFFFFFFFFFFFFFFFFFFFFFFFFFFFFFFFFFFFF AND PUSH32 0x1C1DB1F1D6A01E51FEC24BB54087B65FE5430F692280E70D92F718EB72AE76B7 DUP10 DUP10 PUSH1 0x40 MLOAD PUSH2 0xE38 SWAP3 SWAP2 SWAP1 PUSH2 0x532E JUMP JUMPDEST PUSH1 0x40 MLOAD DUP1 SWAP2 SUB SWAP1 LOG2 POP POP POP POP POP POP POP POP JUMP JUMPDEST PUSH0 DUP1 PUSH0 PUSH2 0xE65 CALLER DUP9 DUP9 PUSH1 0x6 PUSH2 0x29ED SWAP1 SWAP4 SWAP3 SWAP2 SWAP1 PUSH4 0xFFFFFFFF AND JUMP JUMPDEST SWAP1 POP DUP1 PUSH1 0x3 ADD PUSH0 SWAP1 SLOAD SWAP1 PUSH2 0x100 EXP SWAP1 DIV PUSH16 0xFFFFFFFFFFFFFFFFFFFFFFFFFFFFFFFF AND PUSH16 0xFFFFFFFFFFFFFFFFFFFFFFFFFFFFFFFF AND DUP6 PUSH16 0xFFFFFFFFFFFFFFFFFFFFFFFFFFFFFFFF AND GT PUSH2 0xEB7 JUMPI DUP5 PUSH2 0xED8 JUMP JUMPDEST DUP1 PUSH1 0x3 ADD PUSH0 SWAP1 SLOAD SWAP1 PUSH2 0x100 EXP SWAP1 DIV PUSH16 0xFFFFFFFFFFFFFFFFFFFFFFFFFFFFFFFF AND JUMPDEST SWAP3 POP DUP1 PUSH1 0x3 ADD PUSH1 0x10 SWAP1 SLOAD SWAP1 PUSH2 0x100 EXP SWAP1 DIV PUSH16 0xFFFFFFFFFFFFFFFFFFFFFFFFFFFFFFFF AND PUSH16 0xFFFFFFFFFFFFFFFFFFFFFFFFFFFFFFFF AND DUP5 PUSH16 0xFFFFFFFFFFFFFFFFFFFFFFFFFFFFFFFF AND GT PUSH2 0xF2B JUMPI DUP4 PUSH2 0xF4D JUMP JUMPDEST DUP1 PUSH1 0x3 ADD PUSH1 0x10 SWAP1 SLOAD SWAP1 PUSH2 0x100 EXP SWAP1 DIV PUSH16 0xFFFFFFFFFFFFFFFFFFFFFFFFFFFFFFFF AND JUMPDEST SWAP2 POP PUSH0 DUP4 PUSH16 0xFFFFFFFFFFFFFFFFFFFFFFFFFFFFFFFF AND GT ISZERO PUSH2 0x1056 JUMPI DUP3 DUP2 PUSH1 0x3 ADD PUSH0 DUP3 DUP3 DUP3 SWAP1 SLOAD SWAP1 PUSH2 0x100 EXP SWAP1 DIV PUSH16 0xFFFFFFFFFFFFFFFFFFFFFFFFFFFFFFFF AND PUSH2 0xF97 SWAP2 SWAP1 PUSH2 0x5B83 JUMP JUMPDEST SWAP3 POP PUSH2 0x100 EXP DUP2 SLOAD DUP2 PUSH16 0xFFFFFFFFFFFFFFFFFFFFFFFFFFFFFFFF MUL NOT AND SWAP1 DUP4 PUSH16 0xFFFFFFFFFFFFFFFFFFFFFFFFFFFFFFFF AND MUL OR SWAP1 SSTORE POP PUSH32 0x0 PUSH20 0xFFFFFFFFFFFFFFFFFFFFFFFFFFFFFFFFFFFFFFFF AND PUSH4 0xA9059CBB DUP10 DUP6 PUSH1 0x40 MLOAD DUP4 PUSH4 0xFFFFFFFF AND PUSH1 0xE0 SHL DUP2 MSTORE PUSH1 0x4 ADD PUSH2 0x1028 SWAP3 SWAP2 SWAP1 PUSH2 0x5BFF JUMP JUMPDEST PUSH0 PUSH1 0x40 MLOAD DUP1 DUP4 SUB DUP2 PUSH0 DUP8 DUP1 EXTCODESIZE ISZERO DUP1 ISZERO PUSH2 0x103F JUMPI PUSH0 DUP1 REVERT JUMPDEST POP GAS CALL ISZERO DUP1 ISZERO PUSH2 0x1051 JUMPI RETURNDATASIZE PUSH0 DUP1 RETURNDATACOPY RETURNDATASIZE PUSH0 REVERT JUMPDEST POP POP POP POP JUMPDEST PUSH0 DUP3 PUSH16 0xFFFFFFFFFFFFFFFFFFFFFFFFFFFFFFFF AND GT ISZERO PUSH2 0x115E JUMPI DUP2 DUP2 PUSH1 0x3 ADD PUSH1 0x10 DUP3 DUP3 DUP3 SWAP1 SLOAD SWAP1 PUSH2 0x100 EXP SWAP1 DIV PUSH16 0xFFFFFFFFFFFFFFFFFFFFFFFFFFFFFFFF AND PUSH2 0x109F SWAP2 SWAP1 PUSH2 0x5B83 JUMP JUMPDEST SWAP3 POP PUSH2 0x100 EXP DUP2 SLOAD DUP2 PUSH16 0xFFFFFFFFFFFFFFFFFFFFFFFFFFFFFFFF MUL NOT AND SWAP1 DUP4 PUSH16 0xFFFFFFFFFFFFFFFFFFFFFFFFFFFFFFFF AND MUL OR SWAP1 SSTORE POP PUSH32 0x0 PUSH20 0xFFFFFFFFFFFFFFFFFFFFFFFFFFFFFFFFFFFFFFFF AND PUSH4 0xA9059CBB DUP10 DUP5 PUSH1 0x40 MLOAD DUP4 PUSH4 0xFFFFFFFF AND PUSH1 0xE0 SHL DUP2 MSTORE PUSH1 0x4 ADD PUSH2 0x1130 SWAP3 SWAP2 SWAP1 PUSH2 0x5BFF JUMP JUMPDEST PUSH0 PUSH1 0x40 MLOAD DUP1 DUP4 SUB DUP2 PUSH0 DUP8 DUP1 EXTCODESIZE ISZERO DUP1 ISZERO PUSH2 0x1147 JUMPI PUSH0 DUP1 REVERT JUMPDEST POP GAS CALL ISZERO DUP1 ISZERO PUSH2 0x1159 JUMPI RETURNDATASIZE PUSH0 DUP1 RETURNDATACOPY RETURNDATASIZE PUSH0 REVERT JUMPDEST POP POP POP POP JUMPDEST DUP6 PUSH1 0x2 SIGNEXTEND DUP8 PUSH1 0x2 SIGNEXTEND CALLER PUSH20 0xFFFFFFFFFFFFFFFFFFFFFFFFFFFFFFFFFFFFFFFF AND PUSH32 0xA89C1C8A741251492622C95237828C75D1DBB03EA956F09E3792FF2A14F4FE62 DUP12 DUP8 DUP8 PUSH1 0x40 MLOAD PUSH2 0x11B0 SWAP4 SWAP3 SWAP2 SWAP1 PUSH2 0x5C26 JUMP JUMPDEST PUSH1 0x40 MLOAD DUP1 SWAP2 SUB SWAP1 LOG4 POP SWAP6 POP SWAP6 SWAP4 POP POP POP POP JUMP JUMPDEST PUSH1 0x6 PUSH1 0x20 MSTORE DUP1 PUSH0 MSTORE PUSH1 0x40 PUSH0 KECCAK256 PUSH0 SWAP2 POP SWAP1 POP DUP1 PUSH0 ADD PUSH0 SWAP1 SLOAD SWAP1 PUSH2 0x100 EXP SWAP1 DIV PUSH16 0xFFFFFFFFFFFFFFFFFFFFFFFFFFFFFFFF AND SWAP1 DUP1 PUSH1 0x1 ADD SLOAD SWAP1 DUP1 PUSH1 0x2 ADD SLOAD SWAP1 DUP1 PUSH1 0x3 ADD PUSH0 SWAP1 SLOAD SWAP1 PUSH2 0x100 EXP SWAP1 DIV PUSH16 0xFFFFFFFFFFFFFFFFFFFFFFFFFFFFFFFF AND SWAP1 DUP1 PUSH1 0x3 ADD PUSH1 0x10 SWAP1 SLOAD SWAP1 PUSH2 0x100 EXP SWAP1 DIV PUSH16 0xFFFFFFFFFFFFFFFFFFFFFFFFFFFFFFFF AND SWAP1 POP DUP6 JUMP JUMPDEST PUSH1 0x5 PUSH1 0x20 MSTORE DUP1 PUSH0 MSTORE PUSH1 0x40 PUSH0 KECCAK256 PUSH0 SWAP2 POP SWAP1 POP SLOAD DUP2 JUMP JUMPDEST PUSH1 0x60 PUSH2 0x12F6 PUSH2 0x1269 PUSH2 0x2A32 JUMP JUMPDEST DUP5 DUP5 DUP1 DUP1 PUSH1 0x20 MUL PUSH1 0x20 ADD PUSH1 0x40 MLOAD SWAP1 DUP2 ADD PUSH1 0x40 MSTORE DUP1 SWAP4 SWAP3 SWAP2 SWAP1 DUP2 DUP2 MSTORE PUSH1 0x20 ADD DUP4 DUP4 PUSH1 0x20 MUL DUP1 DUP3 DUP5 CALLDATACOPY PUSH0 DUP2 DUP5 ADD MSTORE PUSH1 0x1F NOT PUSH1 0x1F DUP3 ADD AND SWAP1 POP DUP1 DUP4 ADD SWAP3 POP POP POP POP POP POP POP PUSH1 0x2 PUSH0 ADD PUSH1 0x14 SWAP1 SLOAD SWAP1 PUSH2 0x100 EXP SWAP1 DIV PUSH1 0x2 SIGNEXTEND PUSH1 0x2 PUSH0 ADD PUSH1 0x17 SWAP1 SLOAD SWAP1 PUSH2 0x100 EXP SWAP1 DIV PUSH2 0xFFFF AND PUSH1 0x2 PUSH0 ADD PUSH1 0x19 SWAP1 SLOAD SWAP1 PUSH2 0x100 EXP SWAP1 DIV PUSH2 0xFFFF AND PUSH1 0x7 PUSH2 0x2A39 SWAP1 SWAP6 SWAP5 SWAP4 SWAP3 SWAP2 SWAP1 PUSH4 0xFFFFFFFF AND JUMP JUMPDEST SWAP1 POP SWAP3 SWAP2 POP POP JUMP JUMPDEST PUSH0 DUP1 PUSH0 DUP1 PUSH0 PUSH2 0x1354 PUSH1 0x40 MLOAD DUP1 PUSH1 0x80 ADD PUSH1 0x40 MSTORE DUP1 CALLER PUSH20 0xFFFFFFFFFFFFFFFFFFFFFFFFFFFFFFFFFFFFFFFF AND DUP2 MSTORE PUSH1 0x20 ADD DUP11 PUSH1 0x2 SIGNEXTEND DUP2 MSTORE PUSH1 0x20 ADD DUP10 PUSH1 0x2 SIGNEXTEND DUP2 MSTORE PUSH1 0x20 ADD DUP9 PUSH2 0x1349 SWAP1 PUSH2 0x5C5B JUMP JUMPDEST PUSH1 0xF SIGNEXTEND DUP2 MSTORE POP PUSH2 0x24D7 JUMP JUMPDEST SWAP3 POP SWAP3 POP SWAP3 POP DUP2 PUSH2 0x1364 SWAP1 PUSH2 0x5CA1 JUMP JUMPDEST SWAP5 POP DUP1 PUSH2 0x1370 SWAP1 PUSH2 0x5CA1 JUMP JUMPDEST SWAP4 POP PUSH0 DUP6 GT DUP1 PUSH2 0x137F JUMPI POP PUSH0 DUP5 GT JUMPDEST ISZERO PUSH2 0x1457 JUMPI DUP5 DUP4 PUSH1 0x3 ADD PUSH0 SWAP1 SLOAD SWAP1 PUSH2 0x100 EXP SWAP1 DIV PUSH16 0xFFFFFFFFFFFFFFFFFFFFFFFFFFFFFFFF AND PUSH2 0x13AF SWAP2 SWAP1 PUSH2 0x5CE7 JUMP JUMPDEST DUP5 DUP5 PUSH1 0x3 ADD PUSH1 0x10 SWAP1 SLOAD SWAP1 PUSH2 0x100 EXP SWAP1 DIV PUSH16 0xFFFFFFFFFFFFFFFFFFFFFFFFFFFFFFFF AND PUSH2 0x13DB SWAP2 SWAP1 PUSH2 0x5CE7 JUMP JUMPDEST DUP5 PUSH1 0x3 ADD PUSH0 DUP7 PUSH1 0x3 ADD PUSH1 0x10 DUP5 SWAP2 SWAP1 PUSH2 0x100 EXP DUP2 SLOAD DUP2 PUSH16 0xFFFFFFFFFFFFFFFFFFFFFFFFFFFFFFFF MUL NOT AND SWAP1 DUP4 PUSH16 0xFFFFFFFFFFFFFFFFFFFFFFFFFFFFFFFF AND MUL OR SWAP1 SSTORE POP DUP4 SWAP2 SWAP1 PUSH2 0x100 EXP DUP2 SLOAD DUP2 PUSH16 0xFFFFFFFFFFFFFFFFFFFFFFFFFFFFFFFF MUL NOT AND SWAP1 DUP4 PUSH16 0xFFFFFFFFFFFFFFFFFFFFFFFFFFFFFFFF AND MUL OR SWAP1 SSTORE POP POP POP JUMPDEST DUP7 PUSH1 0x2 SIGNEXTEND DUP9 PUSH1 0x2 SIGNEXTEND CALLER PUSH20 0xFFFFFFFFFFFFFFFFFFFFFFFFFFFFFFFFFFFFFFFF AND PUSH32 0xC396CD989A39F4459B5FA1AED6A9A8DCDBC45908ACFD67E028CD568DA98982C DUP10 DUP10 DUP10 PUSH1 0x40 MLOAD PUSH2 0x14A9 SWAP4 SWAP3 SWAP2 SWAP1 PUSH2 0x5D2A JUMP JUMPDEST PUSH1 0x40 MLOAD DUP1 SWAP2 SUB SWAP1 LOG4 POP POP POP SWAP4 POP SWAP4 SWAP2 POP POP JUMP JUMPDEST PUSH32 0x0 DUP2 JUMP JUMPDEST PUSH32 0x0 DUP2 JUMP JUMPDEST PUSH32 0x0 DUP2 JUMP JUMPDEST PUSH0 DUP1 PUSH0 PUSH1 0x2 PUSH1 0x40 MLOAD DUP1 PUSH1 0xA0 ADD PUSH1 0x40 MSTORE SWAP1 DUP2 PUSH0 DUP3 ADD PUSH0 SWAP1 SLOAD SWAP1 PUSH2 0x100 EXP SWAP1 DIV PUSH20 0xFFFFFFFFFFFFFFFFFFFFFFFFFFFFFFFFFFFFFFFF AND PUSH20 0xFFFFFFFFFFFFFFFFFFFFFFFFFFFFFFFFFFFFFFFF AND PUSH20 0xFFFFFFFFFFFFFFFFFFFFFFFFFFFFFFFFFFFFFFFF AND DUP2 MSTORE PUSH1 0x20 ADD PUSH0 DUP3 ADD PUSH1 0x14 SWAP1 SLOAD SWAP1 PUSH2 0x100 EXP SWAP1 DIV PUSH1 0x2 SIGNEXTEND PUSH1 0x2 SIGNEXTEND PUSH1 0x2 SIGNEXTEND DUP2 MSTORE PUSH1 0x20 ADD PUSH0 DUP3 ADD PUSH1 0x17 SWAP1 SLOAD SWAP1 PUSH2 0x100 EXP SWAP1 DIV PUSH2 0xFFFF AND PUSH2 0xFFFF AND PUSH2 0xFFFF AND DUP2 MSTORE PUSH1 0x20 ADD PUSH0 DUP3 ADD PUSH1 0x19 SWAP1 SLOAD SWAP1 PUSH2 0x100 EXP SWAP1 DIV PUSH2 0xFFFF AND PUSH2 0xFFFF AND PUSH2 0xFFFF AND DUP2 MSTORE PUSH1 0x20 ADD PUSH0 DUP3 ADD PUSH1 0x1B SWAP1 SLOAD SWAP1 PUSH2 0x100 EXP SWAP1 DIV PUSH2 0xFFFF AND PUSH2 0xFFFF AND PUSH2 0xFFFF AND DUP2 MSTORE POP POP SWAP1 POP PUSH0 PUSH1 0x3 PUSH0 SWAP1 SLOAD SWAP1 PUSH2 0x100 EXP SWAP1 DIV PUSH16 0xFFFFFFFFFFFFFFFFFFFFFFFFFFFFFFFF AND SWAP1 POP DUP9 PUSH2 0x16AE JUMPI DUP2 PUSH0 ADD MLOAD PUSH20 0xFFFFFFFFFFFFFFFFFFFFFFFFFFFFFFFFFFFFFFFF AND DUP8 PUSH20 0xFFFFFFFFFFFFFFFFFFFFFFFFFFFFFFFFFFFFFFFF AND LT DUP1 PUSH2 0x16A9 JUMPI POP PUSH20 0xFFFD8963EFD1FC6A506488495D951D5263988D26 PUSH20 0xFFFFFFFFFFFFFFFFFFFFFFFFFFFFFFFFFFFFFFFF AND DUP8 PUSH20 0xFFFFFFFFFFFFFFFFFFFFFFFFFFFFFFFFFFFFFFFF AND GT JUMPDEST PUSH2 0x171C JUMP JUMPDEST DUP2 PUSH0 ADD MLOAD PUSH20 0xFFFFFFFFFFFFFFFFFFFFFFFFFFFFFFFFFFFFFFFF AND DUP8 PUSH20 0xFFFFFFFFFFFFFFFFFFFFFFFFFFFFFFFFFFFFFFFF AND GT DUP1 PUSH2 0x171B JUMPI POP PUSH5 0x1000276A3 PUSH20 0xFFFFFFFFFFFFFFFFFFFFFFFFFFFFFFFFFFFFFFFF AND DUP8 PUSH20 0xFFFFFFFFFFFFFFFFFFFFFFFFFFFFFFFFFFFFFFFF AND LT JUMPDEST JUMPDEST ISZERO PUSH2 0x1753 JUMPI PUSH1 0x40 MLOAD PUSH32 0xB53BBACC00000000000000000000000000000000000000000000000000000000 DUP2 MSTORE PUSH1 0x4 ADD PUSH1 0x40 MLOAD DUP1 SWAP2 SUB SWAP1 REVERT JUMPDEST PUSH0 PUSH1 0x40 MLOAD DUP1 PUSH1 0xC0 ADD PUSH1 0x40 MSTORE DUP1 DUP11 DUP2 MSTORE PUSH1 0x20 ADD PUSH0 DUP2 MSTORE PUSH1 0x20 ADD DUP5 PUSH0 ADD MLOAD PUSH20 0xFFFFFFFFFFFFFFFFFFFFFFFFFFFFFFFFFFFFFFFF AND DUP2 MSTORE PUSH1 0x20 ADD DUP5 PUSH1 0x20 ADD MLOAD PUSH1 0x2 SIGNEXTEND DUP2 MSTORE PUSH1 0x20 ADD DUP12 PUSH2 0x17A4 JUMPI PUSH1 0x1 SLOAD PUSH2 0x17A7 JUMP JUMPDEST PUSH0 SLOAD JUMPDEST DUP2 MSTORE PUSH1 0x20 ADD DUP4 PUSH16 0xFFFFFFFFFFFFFFFFFFFFFFFFFFFFFFFF AND DUP2 MSTORE POP SWAP1 POP JUMPDEST PUSH0 DUP2 PUSH0 ADD MLOAD GT DUP1 ISZERO PUSH2 0x1807 JUMPI POP DUP8 PUSH20 0xFFFFFFFFFFFFFFFFFFFFFFFFFFFFFFFFFFFFFFFF AND DUP2 PUSH1 0x40 ADD MLOAD PUSH20 0xFFFFFFFFFFFFFFFFFFFFFFFFFFFFFFFFFFFFFFFF AND EQ ISZERO JUMPDEST ISZERO PUSH2 0x1C67 JUMPI PUSH2 0x1814 PUSH2 0x4EA5 JUMP JUMPDEST DUP2 PUSH1 0x40 ADD MLOAD DUP2 PUSH0 ADD SWAP1 PUSH20 0xFFFFFFFFFFFFFFFFFFFFFFFFFFFFFFFFFFFFFFFF AND SWAP1 DUP2 PUSH20 0xFFFFFFFFFFFFFFFFFFFFFFFFFFFFFFFFFFFFFFFF AND DUP2 MSTORE POP POP PUSH2 0x188B DUP3 PUSH1 0x60 ADD MLOAD PUSH32 0x0 DUP14 PUSH1 0x5 PUSH2 0x2AF9 SWAP1 SWAP4 SWAP3 SWAP2 SWAP1 PUSH4 0xFFFFFFFF AND JUMP JUMPDEST DUP3 PUSH1 0x20 ADD DUP4 PUSH1 0x40 ADD DUP3 ISZERO ISZERO ISZERO ISZERO DUP2 MSTORE POP DUP3 PUSH1 0x2 SIGNEXTEND PUSH1 0x2 SIGNEXTEND DUP2 MSTORE POP POP POP PUSH2 0x18B4 DUP2 PUSH1 0x20 ADD MLOAD PUSH2 0x2CD7 JUMP JUMPDEST DUP2 PUSH1 0x60 ADD SWAP1 PUSH20 0xFFFFFFFFFFFFFFFFFFFFFFFFFFFFFFFFFFFFFFFF AND SWAP1 DUP2 PUSH20 0xFFFFFFFFFFFFFFFFFFFFFFFFFFFFFFFFFFFFFFFF AND DUP2 MSTORE POP POP PUSH2 0x19A3 DUP3 PUSH1 0x40 ADD MLOAD DUP13 PUSH2 0x1930 JUMPI DUP11 PUSH20 0xFFFFFFFFFFFFFFFFFFFFFFFFFFFFFFFFFFFFFFFF AND DUP4 PUSH1 0x60 ADD MLOAD PUSH20 0xFFFFFFFFFFFFFFFFFFFFFFFFFFFFFFFFFFFFFFFF AND GT PUSH2 0x1964 JUMP JUMPDEST DUP11 PUSH20 0xFFFFFFFFFFFFFFFFFFFFFFFFFFFFFFFFFFFFFFFF AND DUP4 PUSH1 0x60 ADD MLOAD PUSH20 0xFFFFFFFFFFFFFFFFFFFFFFFFFFFFFFFFFFFFFFFF AND LT JUMPDEST PUSH2 0x1972 JUMPI DUP3 PUSH1 0x60 ADD MLOAD PUSH2 0x1974 JUMP JUMPDEST DUP11 JUMPDEST DUP5 PUSH1 0xA0 ADD MLOAD DUP6 PUSH0 ADD MLOAD PUSH32 0x0 PUSH2 0x318B JUMP JUMPDEST DUP6 PUSH1 0x40 ADD DUP6 PUSH1 0x80 ADD DUP7 PUSH1 0xA0 ADD DUP8 PUSH1 0xC0 ADD DUP5 DUP2 MSTORE POP DUP5 DUP2 MSTORE POP DUP5 DUP2 MSTORE POP DUP5 PUSH20 0xFFFFFFFFFFFFFFFFFFFFFFFFFFFFFFFFFFFFFFFF AND PUSH20 0xFFFFFFFFFFFFFFFFFFFFFFFFFFFFFFFFFFFFFFFF AND DUP2 MSTORE POP POP POP POP POP DUP1 PUSH1 0xC0 ADD MLOAD DUP2 PUSH1 0x80 ADD MLOAD PUSH2 0x1A07 SWAP2 SWAP1 PUSH2 0x5AA7 JUMP JUMPDEST DUP3 PUSH0 ADD DUP2 DUP2 MLOAD PUSH2 0x1A17 SWAP2 SWAP1 PUSH2 0x5D5F JUMP JUMPDEST SWAP2 POP DUP2 DUP2 MSTORE POP POP DUP1 PUSH1 0xA0 ADD MLOAD DUP3 PUSH1 0x20 ADD DUP2 DUP2 MLOAD PUSH2 0x1A34 SWAP2 SWAP1 PUSH2 0x5AA7 JUMP JUMPDEST SWAP2 POP DUP2 DUP2 MSTORE POP POP PUSH0 DUP3 PUSH1 0xA0 ADD MLOAD PUSH16 0xFFFFFFFFFFFFFFFFFFFFFFFFFFFFFFFF AND GT ISZERO PUSH2 0x1AA8 JUMPI PUSH2 0x1A8F DUP2 PUSH1 0xC0 ADD MLOAD PUSH17 0x100000000000000000000000000000000 DUP5 PUSH1 0xA0 ADD MLOAD PUSH16 0xFFFFFFFFFFFFFFFFFFFFFFFFFFFFFFFF AND PUSH2 0x3308 JUMP JUMPDEST DUP3 PUSH1 0x80 ADD DUP2 DUP2 MLOAD PUSH2 0x1AA0 SWAP2 SWAP1 PUSH2 0x5AA7 JUMP JUMPDEST SWAP2 POP DUP2 DUP2 MSTORE POP POP JUMPDEST DUP1 PUSH1 0x60 ADD MLOAD PUSH20 0xFFFFFFFFFFFFFFFFFFFFFFFFFFFFFFFFFFFFFFFF AND DUP3 PUSH1 0x40 ADD MLOAD PUSH20 0xFFFFFFFFFFFFFFFFFFFFFFFFFFFFFFFFFFFFFFFF AND SUB PUSH2 0x1C07 JUMPI DUP1 PUSH1 0x40 ADD MLOAD ISZERO PUSH2 0x1BD0 JUMPI PUSH0 PUSH2 0x1B2D DUP3 PUSH1 0x20 ADD MLOAD DUP14 PUSH2 0x1B02 JUMPI PUSH0 SLOAD PUSH2 0x1B08 JUMP JUMPDEST DUP5 PUSH1 0x80 ADD MLOAD JUMPDEST DUP15 PUSH2 0x1B17 JUMPI DUP6 PUSH1 0x80 ADD MLOAD PUSH2 0x1B1B JUMP JUMPDEST PUSH1 0x1 SLOAD JUMPDEST PUSH1 0x4 PUSH2 0x341A SWAP1 SWAP4 SWAP3 SWAP2 SWAP1 PUSH4 0xFFFFFFFF AND JUMP JUMPDEST SWAP1 POP DUP12 ISZERO PUSH2 0x1B42 JUMPI DUP1 PUSH2 0x1B3F SWAP1 PUSH2 0x5C5B JUMP JUMPDEST SWAP1 POP JUMPDEST PUSH2 0x1B50 DUP4 PUSH1 0xA0 ADD MLOAD DUP3 PUSH2 0x3480 JUMP JUMPDEST DUP4 PUSH1 0xA0 ADD SWAP1 PUSH16 0xFFFFFFFFFFFFFFFFFFFFFFFFFFFFFFFF AND SWAP1 DUP2 PUSH16 0xFFFFFFFFFFFFFFFFFFFFFFFFFFFFFFFF AND DUP2 MSTORE POP POP PUSH0 DUP4 PUSH1 0xA0 ADD MLOAD PUSH16 0xFFFFFFFFFFFFFFFFFFFFFFFFFFFFFFFF AND SUB PUSH2 0x1BCE JUMPI PUSH1 0x40 MLOAD PUSH32 0x4323A55500000000000000000000000000000000000000000000000000000000 DUP2 MSTORE PUSH1 0x4 ADD PUSH1 0x40 MLOAD DUP1 SWAP2 SUB SWAP1 REVERT JUMPDEST POP JUMPDEST DUP11 PUSH2 0x1BDF JUMPI DUP1 PUSH1 0x20 ADD MLOAD PUSH2 0x1BF1 JUMP JUMPDEST PUSH1 0x1 DUP2 PUSH1 0x20 ADD MLOAD PUSH2 0x1BF0 SWAP2 SWAP1 PUSH2 0x5D92 JUMP JUMPDEST JUMPDEST DUP3 PUSH1 0x60 ADD SWAP1 PUSH1 0x2 SIGNEXTEND SWAP1 DUP2 PUSH1 0x2 SIGNEXTEND DUP2 MSTORE POP POP PUSH2 0x1C61 JUMP JUMPDEST DUP1 PUSH0 ADD MLOAD PUSH20 0xFFFFFFFFFFFFFFFFFFFFFFFFFFFFFFFFFFFFFFFF AND DUP3 PUSH1 0x40 ADD MLOAD PUSH20 0xFFFFFFFFFFFFFFFFFFFFFFFFFFFFFFFFFFFFFFFF AND EQ PUSH2 0x1C60 JUMPI PUSH2 0x1C4E DUP3 PUSH1 0x40 ADD MLOAD PUSH2 0x34BD JUMP JUMPDEST DUP3 PUSH1 0x60 ADD SWAP1 PUSH1 0x2 SIGNEXTEND SWAP1 DUP2 PUSH1 0x2 SIGNEXTEND DUP2 MSTORE POP POP JUMPDEST JUMPDEST POP PUSH2 0x17C5 JUMP JUMPDEST DUP3 PUSH1 0x20 ADD MLOAD PUSH1 0x2 SIGNEXTEND DUP2 PUSH1 0x60 ADD MLOAD PUSH1 0x2 SIGNEXTEND EQ PUSH2 0x1D78 JUMPI PUSH0 DUP1 PUSH2 0x1CB1 DUP6 PUSH1 0x40 ADD MLOAD PUSH2 0x1C8E PUSH2 0x2A32 JUMP JUMPDEST DUP8 PUSH1 0x20 ADD MLOAD DUP9 PUSH1 0x60 ADD MLOAD DUP10 PUSH1 0x80 ADD MLOAD PUSH1 0x7 PUSH2 0x38B4 SWAP1 SWAP6 SWAP5 SWAP4 SWAP3 SWAP2 SWAP1 PUSH4 0xFFFFFFFF AND JUMP JUMPDEST SWAP2 POP SWAP2 POP DUP3 PUSH1 0x40 ADD MLOAD DUP4 PUSH1 0x60 ADD MLOAD DUP4 DUP4 PUSH1 0x2 PUSH0 ADD PUSH0 PUSH1 0x2 PUSH0 ADD PUSH1 0x14 PUSH1 0x2 PUSH0 ADD PUSH1 0x17 PUSH1 0x2 PUSH0 ADD PUSH1 0x19 DUP9 SWAP2 SWAP1 PUSH2 0x100 EXP DUP2 SLOAD DUP2 PUSH2 0xFFFF MUL NOT AND SWAP1 DUP4 PUSH2 0xFFFF AND MUL OR SWAP1 SSTORE POP DUP8 SWAP2 SWAP1 PUSH2 0x100 EXP DUP2 SLOAD DUP2 PUSH2 0xFFFF MUL NOT AND SWAP1 DUP4 PUSH2 0xFFFF AND MUL OR SWAP1 SSTORE POP DUP7 SWAP2 SWAP1 PUSH2 0x100 EXP DUP2 SLOAD DUP2 PUSH3 0xFFFFFF MUL NOT AND SWAP1 DUP4 PUSH1 0x2 SIGNEXTEND PUSH3 0xFFFFFF AND MUL OR SWAP1 SSTORE POP DUP6 SWAP2 SWAP1 PUSH2 0x100 EXP DUP2 SLOAD DUP2 PUSH20 0xFFFFFFFFFFFFFFFFFFFFFFFFFFFFFFFFFFFFFFFF MUL NOT AND SWAP1 DUP4 PUSH20 0xFFFFFFFFFFFFFFFFFFFFFFFFFFFFFFFFFFFFFFFF AND MUL OR SWAP1 SSTORE POP POP POP POP POP POP POP PUSH2 0x1DBF JUMP JUMPDEST DUP1 PUSH1 0x40 ADD MLOAD PUSH1 0x2 PUSH0 ADD PUSH0 PUSH2 0x100 EXP DUP2 SLOAD DUP2 PUSH20 0xFFFFFFFFFFFFFFFFFFFFFFFFFFFFFFFFFFFFFFFF MUL NOT AND SWAP1 DUP4 PUSH20 0xFFFFFFFFFFFFFFFFFFFFFFFFFFFFFFFFFFFFFFFF AND MUL OR SWAP1 SSTORE POP JUMPDEST DUP1 PUSH1 0xA0 ADD MLOAD PUSH16 0xFFFFFFFFFFFFFFFFFFFFFFFFFFFFFFFF AND DUP3 PUSH16 0xFFFFFFFFFFFFFFFFFFFFFFFFFFFFFFFF AND EQ PUSH2 0x1E2B JUMPI DUP1 PUSH1 0xA0 ADD MLOAD PUSH1 0x3 PUSH0 PUSH2 0x100 EXP DUP2 SLOAD DUP2 PUSH16 0xFFFFFFFFFFFFFFFFFFFFFFFFFFFFFFFF MUL NOT AND SWAP1 DUP4 PUSH16 0xFFFFFFFFFFFFFFFFFFFFFFFFFFFFFFFF AND MUL OR SWAP1 SSTORE POP JUMPDEST DUP10 ISZERO PUSH2 0x1E40 JUMPI DUP1 PUSH1 0x80 ADD MLOAD PUSH0 DUP2 SWAP1 SSTORE POP PUSH2 0x1E4C JUMP JUMPDEST DUP1 PUSH1 0x80 ADD MLOAD PUSH1 0x1 DUP2 SWAP1 SSTORE POP JUMPDEST DUP10 PUSH2 0x1E73 JUMPI DUP1 PUSH1 0x20 ADD MLOAD PUSH2 0x1E5F SWAP1 PUSH2 0x5CA1 JUMP JUMPDEST DUP2 PUSH0 ADD MLOAD DUP11 PUSH2 0x1E6E SWAP2 SWAP1 PUSH2 0x5D5F JUMP JUMPDEST PUSH2 0x1E91 JUMP JUMPDEST DUP1 PUSH0 ADD MLOAD DUP10 PUSH2 0x1E82 SWAP2 SWAP1 PUSH2 0x5D5F JUMP JUMPDEST DUP2 PUSH1 0x20 ADD MLOAD PUSH2 0x1E90 SWAP1 PUSH2 0x5CA1 JUMP JUMPDEST JUMPDEST DUP1 SWAP6 POP DUP2 SWAP7 POP POP POP DUP10 ISZERO PUSH2 0x1FF9 JUMPI PUSH32 0x0 PUSH20 0xFFFFFFFFFFFFFFFFFFFFFFFFFFFFFFFFFFFFFFFF AND PUSH4 0xA9059CBB DUP13 DUP7 PUSH2 0x1EE6 SWAP1 PUSH2 0x5CA1 JUMP JUMPDEST PUSH1 0x40 MLOAD DUP4 PUSH4 0xFFFFFFFF AND PUSH1 0xE0 SHL DUP2 MSTORE PUSH1 0x4 ADD PUSH2 0x1F03 SWAP3 SWAP2 SWAP1 PUSH2 0x5B5C JUMP JUMPDEST PUSH0 PUSH1 0x40 MLOAD DUP1 DUP4 SUB DUP2 PUSH0 DUP8 DUP1 EXTCODESIZE ISZERO DUP1 ISZERO PUSH2 0x1F1A JUMPI PUSH0 DUP1 REVERT JUMPDEST POP GAS CALL ISZERO DUP1 ISZERO PUSH2 0x1F2C JUMPI RETURNDATASIZE PUSH0 DUP1 RETURNDATACOPY RETURNDATASIZE PUSH0 REVERT JUMPDEST POP POP POP POP PUSH0 PUSH2 0x1F39 PUSH2 0x2847 JUMP JUMPDEST SWAP1 POP CALLER PUSH20 0xFFFFFFFFFFFFFFFFFFFFFFFFFFFFFFFFFFFFFFFF AND PUSH4 0xFA483E72 DUP8 DUP8 DUP12 DUP12 PUSH1 0x40 MLOAD DUP6 PUSH4 0xFFFFFFFF AND PUSH1 0xE0 SHL DUP2 MSTORE PUSH1 0x4 ADD PUSH2 0x1F7A SWAP5 SWAP4 SWAP3 SWAP2 SWAP1 PUSH2 0x5DEC JUMP JUMPDEST PUSH0 PUSH1 0x40 MLOAD DUP1 DUP4 SUB DUP2 PUSH0 DUP8 DUP1 EXTCODESIZE ISZERO DUP1 ISZERO PUSH2 0x1F91 JUMPI PUSH0 DUP1 REVERT JUMPDEST POP GAS CALL ISZERO DUP1 ISZERO PUSH2 0x1FA3 JUMPI RETURNDATASIZE PUSH0 DUP1 RETURNDATACOPY RETURNDATASIZE PUSH0 REVERT JUMPDEST POP POP POP POP PUSH2 0x1FAF PUSH2 0x2847 JUMP JUMPDEST DUP7 DUP3 PUSH2 0x1FBB SWAP2 SWAP1 PUSH2 0x5AA7 JUMP JUMPDEST GT ISZERO PUSH2 0x1FF3 JUMPI PUSH1 0x40 MLOAD PUSH32 0x98FB56100000000000000000000000000000000000000000000000000000000 DUP2 MSTORE PUSH1 0x4 ADD PUSH1 0x40 MLOAD DUP1 SWAP2 SUB SWAP1 REVERT JUMPDEST POP PUSH2 0x214F JUMP JUMPDEST PUSH32 0x0 PUSH20 0xFFFFFFFFFFFFFFFFFFFFFFFFFFFFFFFFFFFFFFFF AND PUSH4 0xA9059CBB DUP13 DUP8 PUSH2 0x2040 SWAP1 PUSH2 0x5CA1 JUMP JUMPDEST PUSH1 0x40 MLOAD DUP4 PUSH4 0xFFFFFFFF AND PUSH1 0xE0 SHL DUP2 MSTORE PUSH1 0x4 ADD PUSH2 0x205D SWAP3 SWAP2 SWAP1 PUSH2 0x5B5C JUMP JUMPDEST PUSH0 PUSH1 0x40 MLOAD DUP1 DUP4 SUB DUP2 PUSH0 DUP8 DUP1 EXTCODESIZE ISZERO DUP1 ISZERO PUSH2 0x2074 JUMPI PUSH0 DUP1 REVERT JUMPDEST POP GAS CALL ISZERO DUP1 ISZERO PUSH2 0x2086 JUMPI RETURNDATASIZE PUSH0 DUP1 RETURNDATACOPY RETURNDATASIZE PUSH0 REVERT JUMPDEST POP POP POP POP PUSH0 PUSH2 0x2093 PUSH2 0x28E6 JUMP JUMPDEST SWAP1 POP CALLER PUSH20 0xFFFFFFFFFFFFFFFFFFFFFFFFFFFFFFFFFFFFFFFF AND PUSH4 0xFA483E72 DUP8 DUP8 DUP12 DUP12 PUSH1 0x40 MLOAD DUP6 PUSH4 0xFFFFFFFF AND PUSH1 0xE0 SHL DUP2 MSTORE PUSH1 0x4 ADD PUSH2 0x20D4 SWAP5 SWAP4 SWAP3 SWAP2 SWAP1 PUSH2 0x5DEC JUMP JUMPDEST PUSH0 PUSH1 0x40 MLOAD DUP1 DUP4 SUB DUP2 PUSH0 DUP8 DUP1 EXTCODESIZE ISZERO DUP1 ISZERO PUSH2 0x20EB JUMPI PUSH0 DUP1 REVERT JUMPDEST POP GAS CALL ISZERO DUP1 ISZERO PUSH2 0x20FD JUMPI RETURNDATASIZE PUSH0 DUP1 RETURNDATACOPY RETURNDATASIZE PUSH0 REVERT JUMPDEST POP POP POP POP PUSH2 0x2109 PUSH2 0x28E6 JUMP JUMPDEST DUP6 DUP3 PUSH2 0x2115 SWAP2 SWAP1 PUSH2 0x5AA7 JUMP JUMPDEST GT ISZERO PUSH2 0x214D JUMPI PUSH1 0x40 MLOAD PUSH32 0x98FB56100000000000000000000000000000000000000000000000000000000 DUP2 MSTORE PUSH1 0x4 ADD PUSH1 0x40 MLOAD DUP1 SWAP2 SUB SWAP1 REVERT JUMPDEST POP JUMPDEST DUP11 PUSH20 0xFFFFFFFFFFFFFFFFFFFFFFFFFFFFFFFFFFFFFFFF AND CALLER PUSH20 0xFFFFFFFFFFFFFFFFFFFFFFFFFFFFFFFFFFFFFFFF AND PUSH32 0xC42079F94A6350D7E6235F29174924F928CC2AC818EB64FED8004E115FBCCA67 DUP8 DUP8 PUSH1 0x2 PUSH0 ADD PUSH0 SWAP1 SLOAD SWAP1 PUSH2 0x100 EXP SWAP1 DIV PUSH20 0xFFFFFFFFFFFFFFFFFFFFFFFFFFFFFFFFFFFFFFFF AND DUP7 PUSH1 0xA0 ADD MLOAD PUSH1 0x2 PUSH0 ADD PUSH1 0x14 SWAP1 SLOAD SWAP1 PUSH2 0x100 EXP SWAP1 DIV PUSH1 0x2 SIGNEXTEND PUSH1 0x40 MLOAD PUSH2 0x21EC SWAP6 SWAP5 SWAP4 SWAP3 SWAP2 SWAP1 PUSH2 0x5E2A JUMP JUMPDEST PUSH1 0x40 MLOAD DUP1 SWAP2 SUB SWAP1 LOG3 POP POP POP SWAP7 POP SWAP7 SWAP5 POP POP POP POP POP JUMP JUMPDEST PUSH32 0x0 DUP2 JUMP JUMPDEST PUSH0 SLOAD DUP2 JUMP JUMPDEST PUSH1 0x4 PUSH1 0x20 MSTORE DUP1 PUSH0 MSTORE PUSH1 0x40 PUSH0 KECCAK256 PUSH0 SWAP2 POP SWAP1 POP DUP1 PUSH0 ADD PUSH0 SWAP1 SLOAD SWAP1 PUSH2 0x100 EXP SWAP1 DIV PUSH1 0xFF AND SWAP1 DUP1 PUSH0 ADD PUSH1 0x1 SWAP1 SLOAD SWAP1 PUSH2 0x100 EXP SWAP1 DIV PUSH16 0xFFFFFFFFFFFFFFFFFFFFFFFFFFFFFFFF AND SWAP1 DUP1 PUSH1 0x1 ADD PUSH0 SWAP1 SLOAD SWAP1 PUSH2 0x100 EXP SWAP1 DIV PUSH1 0xF SIGNEXTEND SWAP1 DUP1 PUSH1 0x2 ADD SLOAD SWAP1 DUP1 PUSH1 0x3 ADD SLOAD SWAP1 POP DUP6 JUMP JUMPDEST PUSH0 PUSH1 0x2 PUSH0 ADD PUSH0 SWAP1 SLOAD SWAP1 PUSH2 0x100 EXP SWAP1 DIV PUSH20 0xFFFFFFFFFFFFFFFFFFFFFFFFFFFFFFFFFFFFFFFF AND PUSH20 0xFFFFFFFFFFFFFFFFFFFFFFFFFFFFFFFFFFFFFFFF AND EQ PUSH2 0x2302 JUMPI PUSH1 0x40 MLOAD PUSH32 0xDC149F000000000000000000000000000000000000000000000000000000000 DUP2 MSTORE PUSH1 0x4 ADD PUSH1 0x40 MLOAD DUP1 SWAP2 SUB SWAP1 REVERT JUMPDEST PUSH0 PUSH2 0x230C DUP3 PUSH2 0x34BD JUMP JUMPDEST SWAP1 POP PUSH0 DUP1 PUSH2 0x232B PUSH2 0x231B PUSH2 0x2A32 JUMP JUMPDEST PUSH1 0x7 PUSH2 0x3A54 SWAP1 SWAP2 SWAP1 PUSH4 0xFFFFFFFF AND JUMP JUMPDEST SWAP2 POP SWAP2 POP PUSH1 0x40 MLOAD DUP1 PUSH1 0xA0 ADD PUSH1 0x40 MSTORE DUP1 DUP6 PUSH20 0xFFFFFFFFFFFFFFFFFFFFFFFFFFFFFFFFFFFFFFFF AND DUP2 MSTORE PUSH1 0x20 ADD DUP5 PUSH1 0x2 SIGNEXTEND DUP2 MSTORE PUSH1 0x20 ADD PUSH0 PUSH2 0xFFFF AND DUP2 MSTORE PUSH1 0x20 ADD DUP4 PUSH2 0xFFFF AND DUP2 MSTORE PUSH1 0x20 ADD DUP3 PUSH2 0xFFFF AND DUP2 MSTORE POP PUSH1 0x2 PUSH0 DUP3 ADD MLOAD DUP2 PUSH0 ADD PUSH0 PUSH2 0x100 EXP DUP2 SLOAD DUP2 PUSH20 0xFFFFFFFFFFFFFFFFFFFFFFFFFFFFFFFFFFFFFFFF MUL NOT AND SWAP1 DUP4 PUSH20 0xFFFFFFFFFFFFFFFFFFFFFFFFFFFFFFFFFFFFFFFF AND MUL OR SWAP1 SSTORE POP PUSH1 0x20 DUP3 ADD MLOAD DUP2 PUSH0 ADD PUSH1 0x14 PUSH2 0x100 EXP DUP2 SLOAD DUP2 PUSH3 0xFFFFFF MUL NOT AND SWAP1 DUP4 PUSH1 0x2 SIGNEXTEND PUSH3 0xFFFFFF AND MUL OR SWAP1 SSTORE POP PUSH1 0x40 DUP3 ADD MLOAD DUP2 PUSH0 ADD PUSH1 0x17 PUSH2 0x100 EXP DUP2 SLOAD DUP2 PUSH2 0xFFFF MUL NOT AND SWAP1 DUP4 PUSH2 0xFFFF AND MUL OR SWAP1 SSTORE POP PUSH1 0x60 DUP3 ADD MLOAD DUP2 PUSH0 ADD PUSH1 0x19 PUSH2 0x100 EXP DUP2 SLOAD DUP2 PUSH2 0xFFFF MUL NOT AND SWAP1 DUP4 PUSH2 0xFFFF AND MUL OR SWAP1 SSTORE POP PUSH1 0x80 DUP3 ADD MLOAD DUP2 PUSH0 ADD PUSH1 0x1B PUSH2 0x100 EXP DUP2 SLOAD DUP2 PUSH2 0xFFFF MUL NOT AND SWAP1 DUP4 PUSH2 0xFFFF AND MUL OR SWAP1 SSTORE POP SWAP1 POP POP POP POP POP POP JUMP JUMPDEST PUSH0 DUP3 PUSH2 0xFFFF AND DUP3 PUSH2 0xFFFF AND GT PUSH2 0x246F JUMPI DUP3 SWAP1 POP PUSH2 0x24D0 JUMP JUMPDEST PUSH0 DUP4 SWAP1 POP JUMPDEST DUP3 PUSH2 0xFFFF AND DUP2 PUSH2 0xFFFF AND LT ISZERO PUSH2 0x24CB JUMPI PUSH1 0x1 DUP6 DUP3 PUSH2 0xFFFF AND PUSH2 0xFFFF DUP2 LT PUSH2 0x249E JUMPI PUSH2 0x249D PUSH2 0x5E7B JUMP JUMPDEST JUMPDEST ADD PUSH0 ADD PUSH0 PUSH2 0x100 EXP DUP2 SLOAD DUP2 PUSH4 0xFFFFFFFF MUL NOT AND SWAP1 DUP4 PUSH4 0xFFFFFFFF AND MUL OR SWAP1 SSTORE POP DUP1 DUP1 PUSH1 0x1 ADD SWAP2 POP POP PUSH2 0x2474 JUMP JUMPDEST POP DUP2 SWAP1 POP JUMPDEST SWAP4 SWAP3 POP POP POP JUMP JUMPDEST PUSH0 DUP1 PUSH0 DUP1 PUSH1 0x2 PUSH1 0x40 MLOAD DUP1 PUSH1 0xA0 ADD PUSH1 0x40 MSTORE SWAP1 DUP2 PUSH0 DUP3 ADD PUSH0 SWAP1 SLOAD SWAP1 PUSH2 0x100 EXP SWAP1 DIV PUSH20 0xFFFFFFFFFFFFFFFFFFFFFFFFFFFFFFFFFFFFFFFF AND PUSH20 0xFFFFFFFFFFFFFFFFFFFFFFFFFFFFFFFFFFFFFFFF AND PUSH20 0xFFFFFFFFFFFFFFFFFFFFFFFFFFFFFFFFFFFFFFFF AND DUP2 MSTORE PUSH1 0x20 ADD PUSH0 DUP3 ADD PUSH1 0x14 SWAP1 SLOAD SWAP1 PUSH2 0x100 EXP SWAP1 DIV PUSH1 0x2 SIGNEXTEND PUSH1 0x2 SIGNEXTEND PUSH1 0x2 SIGNEXTEND DUP2 MSTORE PUSH1 0x20 ADD PUSH0 DUP3 ADD PUSH1 0x17 SWAP1 SLOAD SWAP1 PUSH2 0x100 EXP SWAP1 DIV PUSH2 0xFFFF AND PUSH2 0xFFFF AND PUSH2 0xFFFF AND DUP2 MSTORE PUSH1 0x20 ADD PUSH0 DUP3 ADD PUSH1 0x19 SWAP1 SLOAD SWAP1 PUSH2 0x100 EXP SWAP1 DIV PUSH2 0xFFFF AND PUSH2 0xFFFF AND PUSH2 0xFFFF AND DUP2 MSTORE PUSH1 0x20 ADD PUSH0 DUP3 ADD PUSH1 0x1B SWAP1 SLOAD SWAP1 PUSH2 0x100 EXP SWAP1 DIV PUSH2 0xFFFF AND PUSH2 0xFFFF AND PUSH2 0xFFFF AND DUP2 MSTORE POP POP SWAP1 POP PUSH0 DUP1 SLOAD SWAP1 POP PUSH0 PUSH1 0x1 SLOAD SWAP1 POP PUSH2 0x25E5 DUP8 PUSH0 ADD MLOAD DUP9 PUSH1 0x20 ADD MLOAD DUP10 PUSH1 0x40 ADD MLOAD PUSH1 0x6 PUSH2 0x29ED SWAP1 SWAP4 SWAP3 SWAP2 SWAP1 PUSH4 0xFFFFFFFF AND JUMP JUMPDEST SWAP6 POP PUSH0 PUSH2 0x2612 DUP9 PUSH1 0x20 ADD MLOAD DUP6 PUSH1 0x20 ADD MLOAD DUP11 PUSH1 0x60 ADD MLOAD DUP7 DUP7 PUSH0 PUSH1 0x4 PUSH2 0x3B16 SWAP1 SWAP7 SWAP6 SWAP5 SWAP4 SWAP3 SWAP2 SWAP1 PUSH4 0xFFFFFFFF AND JUMP JUMPDEST SWAP1 POP PUSH0 PUSH2 0x2640 DUP10 PUSH1 0x40 ADD MLOAD DUP7 PUSH1 0x20 ADD MLOAD DUP12 PUSH1 0x60 ADD MLOAD DUP8 DUP8 PUSH1 0x1 PUSH1 0x4 PUSH2 0x3B16 SWAP1 SWAP7 SWAP6 SWAP5 SWAP4 SWAP3 SWAP2 SWAP1 PUSH4 0xFFFFFFFF AND JUMP JUMPDEST SWAP1 POP DUP2 ISZERO PUSH2 0x2683 JUMPI PUSH2 0x2682 DUP10 PUSH1 0x20 ADD MLOAD PUSH32 0x0 PUSH1 0x5 PUSH2 0x3CBA SWAP1 SWAP3 SWAP2 SWAP1 PUSH4 0xFFFFFFFF AND JUMP JUMPDEST JUMPDEST DUP1 ISZERO PUSH2 0x26C4 JUMPI PUSH2 0x26C3 DUP10 PUSH1 0x40 ADD MLOAD PUSH32 0x0 PUSH1 0x5 PUSH2 0x3CBA SWAP1 SWAP3 SWAP2 SWAP1 PUSH4 0xFFFFFFFF AND JUMP JUMPDEST JUMPDEST PUSH0 DUP1 PUSH2 0x26EE DUP12 PUSH1 0x20 ADD MLOAD DUP13 PUSH1 0x40 ADD MLOAD DUP10 PUSH1 0x20 ADD MLOAD DUP10 DUP10 PUSH1 0x4 PUSH2 0x3D23 SWAP1 SWAP6 SWAP5 SWAP4 SWAP3 SWAP2 SWAP1 PUSH4 0xFFFFFFFF AND JUMP JUMPDEST SWAP2 POP SWAP2 POP PUSH2 0x270D DUP12 PUSH1 0x60 ADD MLOAD DUP4 DUP4 DUP14 PUSH2 0x3E29 SWAP1 SWAP4 SWAP3 SWAP2 SWAP1 PUSH4 0xFFFFFFFF AND JUMP JUMPDEST DUP11 PUSH1 0x20 ADD MLOAD PUSH1 0x2 SIGNEXTEND DUP8 PUSH1 0x20 ADD MLOAD PUSH1 0x2 SIGNEXTEND SLT ISZERO PUSH2 0x2751 JUMPI PUSH2 0x274A PUSH2 0x2733 DUP13 PUSH1 0x20 ADD MLOAD PUSH2 0x2CD7 JUMP JUMPDEST PUSH2 0x2740 DUP14 PUSH1 0x40 ADD MLOAD PUSH2 0x2CD7 JUMP JUMPDEST DUP14 PUSH1 0x60 ADD MLOAD PUSH2 0x405F JUMP JUMPDEST SWAP9 POP PUSH2 0x2839 JUMP JUMPDEST DUP11 PUSH1 0x40 ADD MLOAD PUSH1 0x2 SIGNEXTEND DUP8 PUSH1 0x20 ADD MLOAD PUSH1 0x2 SIGNEXTEND SLT ISZERO PUSH2 0x280E JUMPI PUSH2 0x2785 DUP8 PUSH0 ADD MLOAD PUSH2 0x277B DUP14 PUSH1 0x40 ADD MLOAD PUSH2 0x2CD7 JUMP JUMPDEST DUP14 PUSH1 0x60 ADD MLOAD PUSH2 0x405F JUMP JUMPDEST SWAP9 POP PUSH2 0x27A5 PUSH2 0x2797 DUP13 PUSH1 0x20 ADD MLOAD PUSH2 0x2CD7 JUMP JUMPDEST DUP9 PUSH0 ADD MLOAD DUP14 PUSH1 0x60 ADD MLOAD PUSH2 0x40A4 JUMP JUMPDEST SWAP8 POP PUSH2 0x27D2 PUSH1 0x3 PUSH0 SWAP1 SLOAD SWAP1 PUSH2 0x100 EXP SWAP1 DIV PUSH16 0xFFFFFFFFFFFFFFFFFFFFFFFFFFFFFFFF AND DUP13 PUSH1 0x60 ADD MLOAD PUSH2 0x3480 JUMP JUMPDEST PUSH1 0x3 PUSH0 PUSH2 0x100 EXP DUP2 SLOAD DUP2 PUSH16 0xFFFFFFFFFFFFFFFFFFFFFFFFFFFFFFFF MUL NOT AND SWAP1 DUP4 PUSH16 0xFFFFFFFFFFFFFFFFFFFFFFFFFFFFFFFF AND MUL OR SWAP1 SSTORE POP PUSH2 0x2838 JUMP JUMPDEST PUSH2 0x2835 PUSH2 0x281E DUP13 PUSH1 0x20 ADD MLOAD PUSH2 0x2CD7 JUMP JUMPDEST PUSH2 0x282B DUP14 PUSH1 0x40 ADD MLOAD PUSH2 0x2CD7 JUMP JUMPDEST DUP14 PUSH1 0x60 ADD MLOAD PUSH2 0x40A4 JUMP JUMPDEST SWAP8 POP JUMPDEST JUMPDEST POP POP POP POP POP POP POP SWAP2 SWAP4 SWAP1 SWAP3 POP JUMP JUMPDEST PUSH0 PUSH32 0x0 PUSH20 0xFFFFFFFFFFFFFFFFFFFFFFFFFFFFFFFFFFFFFFFF AND PUSH4 0x70A08231 ADDRESS PUSH1 0x40 MLOAD DUP3 PUSH4 0xFFFFFFFF AND PUSH1 0xE0 SHL DUP2 MSTORE PUSH1 0x4 ADD PUSH2 0x28A1 SWAP2 SWAP1 PUSH2 0x4F74 JUMP JUMPDEST PUSH1 0x20 PUSH1 0x40 MLOAD DUP1 DUP4 SUB DUP2 PUSH0 DUP8 GAS CALL ISZERO DUP1 ISZERO PUSH2 0x28BD JUMPI RETURNDATASIZE PUSH0 DUP1 RETURNDATACOPY RETURNDATASIZE PUSH0 REVERT JUMPDEST POP POP POP POP PUSH1 0x40 MLOAD RETURNDATASIZE PUSH1 0x1F NOT PUSH1 0x1F DUP3 ADD AND DUP3 ADD DUP1 PUSH1 0x40 MSTORE POP DUP2 ADD SWAP1 PUSH2 0x28E1 SWAP2 SWAP1 PUSH2 0x5B31 JUMP JUMPDEST SWAP1 POP SWAP1 JUMP JUMPDEST PUSH0 PUSH32 0x0 PUSH20 0xFFFFFFFFFFFFFFFFFFFFFFFFFFFFFFFFFFFFFFFF AND PUSH4 0x70A08231 ADDRESS PUSH1 0x40 MLOAD DUP3 PUSH4 0xFFFFFFFF AND PUSH1 0xE0 SHL DUP2 MSTORE PUSH1 0x4 ADD PUSH2 0x2940 SWAP2 SWAP1 PUSH2 0x4F74 JUMP JUMPDEST PUSH1 0x20 PUSH1 0x40 MLOAD DUP1 DUP4 SUB DUP2 PUSH0 DUP8 GAS CALL ISZERO DUP1 ISZERO PUSH2 0x295C JUMPI RETURNDATASIZE PUSH0 DUP1 RETURNDATACOPY RETURNDATASIZE PUSH0 REVERT JUMPDEST POP POP POP POP PUSH1 0x40 MLOAD RETURNDATASIZE PUSH1 0x1F NOT PUSH1 0x1F DUP3 ADD AND DUP3 ADD DUP1 PUSH1 0x40 MSTORE POP DUP2 ADD SWAP1 PUSH2 0x2980 SWAP2 SWAP1 PUSH2 0x5B31 JUMP JUMPDEST SWAP1 POP SWAP1 JUMP JUMPDEST PUSH0 PUSH2 0x2991 DUP5 DUP5 DUP5 PUSH2 0x3308 JUMP JUMPDEST SWAP1 POP PUSH0 DUP3 DUP1 PUSH2 0x29A3 JUMPI PUSH2 0x29A2 PUSH2 0x5EA8 JUMP JUMPDEST JUMPDEST DUP5 DUP7 MULMOD GT ISZERO PUSH2 0x29E6 JUMPI PUSH32 0xFFFFFFFFFFFFFFFFFFFFFFFFFFFFFFFFFFFFFFFFFFFFFFFFFFFFFFFFFFFFFFFF DUP2 LT PUSH2 0x29D7 JUMPI PUSH0 DUP1 REVERT JUMPDEST DUP1 DUP1 PUSH2 0x29E2 SWAP1 PUSH2 0x5ED5 JUMP JUMPDEST SWAP2 POP POP JUMPDEST SWAP4 SWAP3 POP POP POP JUMP JUMPDEST PUSH0 DUP5 PUSH0 DUP6 DUP6 DUP6 PUSH1 0x40 MLOAD PUSH1 0x20 ADD PUSH2 0x2A05 SWAP4 SWAP3 SWAP2 SWAP1 PUSH2 0x5F95 JUMP JUMPDEST PUSH1 0x40 MLOAD PUSH1 0x20 DUP2 DUP4 SUB SUB DUP2 MSTORE SWAP1 PUSH1 0x40 MSTORE DUP1 MLOAD SWAP1 PUSH1 0x20 ADD KECCAK256 DUP2 MSTORE PUSH1 0x20 ADD SWAP1 DUP2 MSTORE PUSH1 0x20 ADD PUSH0 KECCAK256 SWAP1 POP SWAP5 SWAP4 POP POP POP POP JUMP JUMPDEST PUSH0 TIMESTAMP SWAP1 POP SWAP1 JUMP JUMPDEST PUSH1 0x60 DUP5 MLOAD PUSH8 0xFFFFFFFFFFFFFFFF DUP2 GT ISZERO PUSH2 0x2A56 JUMPI PUSH2 0x2A55 PUSH2 0x5FD1 JUMP JUMPDEST JUMPDEST PUSH1 0x40 MLOAD SWAP1 DUP1 DUP3 MSTORE DUP1 PUSH1 0x20 MUL PUSH1 0x20 ADD DUP3 ADD PUSH1 0x40 MSTORE DUP1 ISZERO PUSH2 0x2A84 JUMPI DUP2 PUSH1 0x20 ADD PUSH1 0x20 DUP3 MUL DUP1 CALLDATASIZE DUP4 CALLDATACOPY DUP1 DUP3 ADD SWAP2 POP POP SWAP1 POP JUMPDEST POP SWAP1 POP PUSH0 JUMPDEST DUP6 MLOAD DUP2 LT ISZERO PUSH2 0x2AEE JUMPI PUSH2 0x2ABA DUP9 DUP9 DUP9 DUP5 DUP2 MLOAD DUP2 LT PUSH2 0x2AAA JUMPI PUSH2 0x2AA9 PUSH2 0x5E7B JUMP JUMPDEST JUMPDEST PUSH1 0x20 MUL PUSH1 0x20 ADD ADD MLOAD DUP9 DUP9 DUP9 PUSH2 0x40E9 JUMP JUMPDEST DUP3 DUP3 DUP2 MLOAD DUP2 LT PUSH2 0x2ACD JUMPI PUSH2 0x2ACC PUSH2 0x5E7B JUMP JUMPDEST JUMPDEST PUSH1 0x20 MUL PUSH1 0x20 ADD ADD SWAP1 PUSH1 0x6 SIGNEXTEND SWAP1 DUP2 PUSH1 0x6 SIGNEXTEND DUP2 MSTORE POP POP DUP1 DUP1 PUSH1 0x1 ADD SWAP2 POP POP PUSH2 0x2A89 JUMP JUMPDEST POP SWAP7 SWAP6 POP POP POP POP POP POP JUMP JUMPDEST PUSH0 DUP1 PUSH0 DUP5 DUP7 PUSH2 0x2B08 SWAP2 SWAP1 PUSH2 0x5FFE JUMP JUMPDEST SWAP1 POP PUSH0 DUP7 PUSH1 0x2 SIGNEXTEND SLT DUP1 ISZERO PUSH2 0x2B2A JUMPI POP PUSH0 DUP6 DUP8 PUSH2 0x2B24 SWAP2 SWAP1 PUSH2 0x6066 JUMP JUMPDEST PUSH1 0x2 SIGNEXTEND EQ ISZERO JUMPDEST ISZERO PUSH2 0x2B3E JUMPI DUP1 DUP1 PUSH2 0x2B3A SWAP1 PUSH2 0x6096 JUMP JUMPDEST SWAP2 POP POP JUMPDEST DUP4 ISZERO PUSH2 0x2BFB JUMPI PUSH0 DUP1 PUSH2 0x2B4F DUP4 PUSH2 0x4294 JUMP JUMPDEST SWAP2 POP SWAP2 POP PUSH0 DUP2 PUSH1 0xFF AND PUSH1 0x1 SWAP1 SHL PUSH1 0x1 DUP4 PUSH1 0xFF AND PUSH1 0x1 SWAP1 SHL PUSH2 0x2B70 SWAP2 SWAP1 PUSH2 0x5D5F JUMP JUMPDEST PUSH2 0x2B7A SWAP2 SWAP1 PUSH2 0x5AA7 JUMP JUMPDEST SWAP1 POP PUSH0 DUP2 DUP12 PUSH0 DUP7 PUSH1 0x1 SIGNEXTEND PUSH1 0x1 SIGNEXTEND DUP2 MSTORE PUSH1 0x20 ADD SWAP1 DUP2 MSTORE PUSH1 0x20 ADD PUSH0 KECCAK256 SLOAD AND SWAP1 POP PUSH0 DUP2 EQ ISZERO SWAP6 POP DUP6 PUSH2 0x2BC2 JUMPI DUP9 DUP4 PUSH1 0xFF AND DUP7 PUSH2 0x2BB3 SWAP2 SWAP1 PUSH2 0x5D92 JUMP JUMPDEST PUSH2 0x2BBD SWAP2 SWAP1 PUSH2 0x60DD JUMP JUMPDEST PUSH2 0x2BF0 JUMP JUMPDEST DUP9 PUSH2 0x2BCC DUP3 PUSH2 0x42B5 JUMP JUMPDEST DUP5 PUSH2 0x2BD7 SWAP2 SWAP1 PUSH2 0x6125 JUMP JUMPDEST PUSH1 0xFF AND DUP7 PUSH2 0x2BE5 SWAP2 SWAP1 PUSH2 0x5D92 JUMP JUMPDEST PUSH2 0x2BEF SWAP2 SWAP1 PUSH2 0x60DD JUMP JUMPDEST JUMPDEST SWAP7 POP POP POP POP POP PUSH2 0x2CCD JUMP JUMPDEST PUSH0 DUP1 PUSH2 0x2C12 PUSH1 0x1 DUP5 PUSH2 0x2C0D SWAP2 SWAP1 PUSH2 0x6159 JUMP JUMPDEST PUSH2 0x4294 JUMP JUMPDEST SWAP2 POP SWAP2 POP PUSH0 PUSH1 0x1 DUP3 PUSH1 0xFF AND PUSH1 0x1 SWAP1 SHL PUSH2 0x2C2B SWAP2 SWAP1 PUSH2 0x5D5F JUMP JUMPDEST NOT SWAP1 POP PUSH0 DUP2 DUP12 PUSH0 DUP7 PUSH1 0x1 SIGNEXTEND PUSH1 0x1 SIGNEXTEND DUP2 MSTORE PUSH1 0x20 ADD SWAP1 DUP2 MSTORE PUSH1 0x20 ADD PUSH0 KECCAK256 SLOAD AND SWAP1 POP PUSH0 DUP2 EQ ISZERO SWAP6 POP DUP6 PUSH2 0x2C8C JUMPI DUP9 DUP4 PUSH1 0xFF PUSH2 0x2C63 SWAP2 SWAP1 PUSH2 0x6125 JUMP JUMPDEST PUSH1 0xFF AND PUSH1 0x1 DUP8 PUSH2 0x2C73 SWAP2 SWAP1 PUSH2 0x6159 JUMP JUMPDEST PUSH2 0x2C7D SWAP2 SWAP1 PUSH2 0x6159 JUMP JUMPDEST PUSH2 0x2C87 SWAP2 SWAP1 PUSH2 0x60DD JUMP JUMPDEST PUSH2 0x2CC6 JUMP JUMPDEST DUP9 DUP4 PUSH2 0x2C97 DUP4 PUSH2 0x43D6 JUMP JUMPDEST PUSH2 0x2CA1 SWAP2 SWAP1 PUSH2 0x6125 JUMP JUMPDEST PUSH1 0xFF AND PUSH1 0x1 DUP8 PUSH2 0x2CB1 SWAP2 SWAP1 PUSH2 0x6159 JUMP JUMPDEST PUSH2 0x2CBB SWAP2 SWAP1 PUSH2 0x6159 JUMP JUMPDEST PUSH2 0x2CC5 SWAP2 SWAP1 PUSH2 0x60DD JUMP JUMPDEST JUMPDEST SWAP7 POP POP POP POP POP JUMPDEST POP SWAP5 POP SWAP5 SWAP3 POP POP POP JUMP JUMPDEST PUSH0 DUP1 PUSH0 DUP4 PUSH1 0x2 SIGNEXTEND SLT PUSH2 0x2CEC JUMPI DUP3 PUSH1 0x2 SIGNEXTEND PUSH2 0x2CFA JUMP JUMPDEST DUP3 PUSH1 0x2 SIGNEXTEND PUSH2 0x2CF9 SWAP1 PUSH2 0x5CA1 JUMP JUMPDEST JUMPDEST SWAP1 POP PUSH32 0xFFFFFFFFFFFFFFFFFFFFFFFFFFFFFFFFFFFFFFFFFFFFFFFFFFFFFFFFFFF27618 PUSH2 0x2D26 SWAP1 PUSH2 0x59C9 JUMP JUMPDEST PUSH3 0xFFFFFF AND DUP2 GT ISZERO PUSH2 0x2D6D JUMPI PUSH1 0x40 MLOAD PUSH32 0x8C379A000000000000000000000000000000000000000000000000000000000 DUP2 MSTORE PUSH1 0x4 ADD PUSH2 0x2D64 SWAP1 PUSH2 0x620D JUMP JUMPDEST PUSH1 0x40 MLOAD DUP1 SWAP2 SUB SWAP1 REVERT JUMPDEST PUSH0 DUP1 PUSH1 0x1 DUP4 AND SUB PUSH2 0x2D8F JUMPI PUSH17 0x100000000000000000000000000000000 PUSH2 0x2DA1 JUMP JUMPDEST PUSH16 0xFFFCB933BD6FAD37AA2D162D1A594001 JUMPDEST PUSH17 0xFFFFFFFFFFFFFFFFFFFFFFFFFFFFFFFFFF AND SWAP1 POP PUSH0 PUSH1 0x2 DUP4 AND EQ PUSH2 0x2DE3 JUMPI PUSH1 0x80 PUSH16 0xFFF97272373D413259A46990580E213A DUP3 PUSH2 0x2DDE SWAP2 SWAP1 PUSH2 0x622B JUMP JUMPDEST SWAP1 SHR SWAP1 POP JUMPDEST PUSH0 PUSH1 0x4 DUP4 AND EQ PUSH2 0x2E10 JUMPI PUSH1 0x80 PUSH16 0xFFF2E50F5F656932EF12357CF3C7FDCC DUP3 PUSH2 0x2E0B SWAP2 SWAP1 PUSH2 0x622B JUMP JUMPDEST SWAP1 SHR SWAP1 POP JUMPDEST PUSH0 PUSH1 0x8 DUP4 AND EQ PUSH2 0x2E3D JUMPI PUSH1 0x80 PUSH16 0xFFE5CACA7E10E4E61C3624EAA0941CD0 DUP3 PUSH2 0x2E38 SWAP2 SWAP1 PUSH2 0x622B JUMP JUMPDEST SWAP1 SHR SWAP1 POP JUMPDEST PUSH0 PUSH1 0x10 DUP4 AND EQ PUSH2 0x2E6A JUMPI PUSH1 0x80 PUSH16 0xFFCB9843D60F6159C9DB58835C926644 DUP3 PUSH2 0x2E65 SWAP2 SWAP1 PUSH2 0x622B JUMP JUMPDEST SWAP1 SHR SWAP1 POP JUMPDEST PUSH0 PUSH1 0x20 DUP4 AND EQ PUSH2 0x2E97 JUMPI PUSH1 0x80 PUSH16 0xFF973B41FA98C081472E6896DFB254C0 DUP3 PUSH2 0x2E92 SWAP2 SWAP1 PUSH2 0x622B JUMP JUMPDEST SWAP1 SHR SWAP1 POP JUMPDEST PUSH0 PUSH1 0x40 DUP4 AND EQ PUSH2 0x2EC4 JUMPI PUSH1 0x80 PUSH16 0xFF2EA16466C96A3843EC78B326B52861 DUP3 PUSH2 0x2EBF SWAP2 SWAP1 PUSH2 0x622B JUMP JUMPDEST SWAP1 SHR SWAP1 POP JUMPDEST PUSH0 PUSH1 0x80 DUP4 AND EQ PUSH2 0x2EF1 JUMPI PUSH1 0x80 PUSH16 0xFE5DEE046A99A2A811C461F1969C3053 DUP3 PUSH2 0x2EEC SWAP2 SWAP1 PUSH2 0x622B JUMP JUMPDEST SWAP1 SHR SWAP1 POP JUMPDEST PUSH0 PUSH2 0x100 DUP4 AND EQ PUSH2 0x2F1F JUMPI PUSH1 0x80 PUSH16 0xFCBE86C7900A88AEDCFFC83B479AA3A4 DUP3 PUSH2 0x2F1A SWAP2 SWAP1 PUSH2 0x622B JUMP JUMPDEST SWAP1 SHR SWAP1 POP JUMPDEST PUSH0 PUSH2 0x200 DUP4 AND EQ PUSH2 0x2F4D JUMPI PUSH1 0x80 PUSH16 0xF987A7253AC413176F2B074CF7815E54 DUP3 PUSH2 0x2F48 SWAP2 SWAP1 PUSH2 0x622B JUMP JUMPDEST SWAP1 SHR SWAP1 POP JUMPDEST PUSH0 PUSH2 0x400 DUP4 AND EQ PUSH2 0x2F7B JUMPI PUSH1 0x80 PUSH16 0xF3392B0822B70005940C7A398E4B70F3 DUP3 PUSH2 0x2F76 SWAP2 SWAP1 PUSH2 0x622B JUMP JUMPDEST SWAP1 SHR SWAP1 POP JUMPDEST PUSH0 PUSH2 0x800 DUP4 AND EQ PUSH2 0x2FA9 JUMPI PUSH1 0x80 PUSH16 0xE7159475A2C29B7443B29C7FA6E889D9 DUP3 PUSH2 0x2FA4 SWAP2 SWAP1 PUSH2 0x622B JUMP JUMPDEST SWAP1 SHR SWAP1 POP JUMPDEST PUSH0 PUSH2 0x1000 DUP4 AND EQ PUSH2 0x2FD7 JUMPI PUSH1 0x80 PUSH16 0xD097F3BDFD2022B8845AD8F792AA5825 DUP3 PUSH2 0x2FD2 SWAP2 SWAP1 PUSH2 0x622B JUMP JUMPDEST SWAP1 SHR SWAP1 POP JUMPDEST PUSH0 PUSH2 0x2000 DUP4 AND EQ PUSH2 0x3005 JUMPI PUSH1 0x80 PUSH16 0xA9F746462D870FDF8A65DC1F90E061E5 DUP3 PUSH2 0x3000 SWAP2 SWAP1 PUSH2 0x622B JUMP JUMPDEST SWAP1 SHR SWAP1 POP JUMPDEST PUSH0 PUSH2 0x4000 DUP4 AND EQ PUSH2 0x3033 JUMPI PUSH1 0x80 PUSH16 0x70D869A156D2A1B890BB3DF62BAF32F7 DUP3 PUSH2 0x302E SWAP2 SWAP1 PUSH2 0x622B JUMP JUMPDEST SWAP1 SHR SWAP1 POP JUMPDEST PUSH0 PUSH2 0x8000 DUP4 AND EQ PUSH2 0x3061 JUMPI PUSH1 0x80 PUSH16 0x31BE135F97D08FD981231505542FCFA6 DUP3 PUSH2 0x305C SWAP2 SWAP1 PUSH2 0x622B JUMP JUMPDEST SWAP1 SHR SWAP1 POP JUMPDEST PUSH0 PUSH3 0x10000 DUP4 AND EQ PUSH2 0x3090 JUMPI PUSH1 0x80 PUSH16 0x9AA508B5B7A84E1C677DE54F3E99BC9 DUP3 PUSH2 0x308B SWAP2 SWAP1 PUSH2 0x622B JUMP JUMPDEST SWAP1 SHR SWAP1 POP JUMPDEST PUSH0 PUSH3 0x20000 DUP4 AND EQ PUSH2 0x30BE JUMPI PUSH1 0x80 PUSH15 0x5D6AF8DEDB81196699C329225EE604 DUP3 PUSH2 0x30B9 SWAP2 SWAP1 PUSH2 0x622B JUMP JUMPDEST SWAP1 SHR SWAP1 POP JUMPDEST PUSH0 PUSH3 0x40000 DUP4 AND EQ PUSH2 0x30EB JUMPI PUSH1 0x80 PUSH14 0x2216E584F5FA1EA926041BEDFE98 DUP3 PUSH2 0x30E6 SWAP2 SWAP1 PUSH2 0x622B JUMP JUMPDEST SWAP1 SHR SWAP1 POP JUMPDEST PUSH0 PUSH3 0x80000 DUP4 AND EQ PUSH2 0x3116 JUMPI PUSH1 0x80 PUSH12 0x48A170391F7DC42444E8FA2 DUP3 PUSH2 0x3111 SWAP2 SWAP1 PUSH2 0x622B JUMP JUMPDEST SWAP1 SHR SWAP1 POP JUMPDEST PUSH0 DUP5 PUSH1 0x2 SIGNEXTEND SGT ISZERO PUSH2 0x3150 JUMPI DUP1 PUSH32 0xFFFFFFFFFFFFFFFFFFFFFFFFFFFFFFFFFFFFFFFFFFFFFFFFFFFFFFFFFFFFFFFF PUSH2 0x314D SWAP2 SWAP1 PUSH2 0x626C JUMP JUMPDEST SWAP1 POP JUMPDEST PUSH0 PUSH5 0x100000000 DUP3 PUSH2 0x3162 SWAP2 SWAP1 PUSH2 0x629C JUMP JUMPDEST EQ PUSH2 0x316E JUMPI PUSH1 0x1 PUSH2 0x3170 JUMP JUMPDEST PUSH0 JUMPDEST PUSH1 0xFF AND PUSH1 0x20 DUP3 SWAP1 SHR PUSH2 0x3182 SWAP2 SWAP1 PUSH2 0x5AA7 JUMP JUMPDEST SWAP3 POP POP POP SWAP2 SWAP1 POP JUMP JUMPDEST PUSH0 DUP1 PUSH0 DUP1 PUSH0 DUP9 PUSH20 0xFFFFFFFFFFFFFFFFFFFFFFFFFFFFFFFFFFFFFFFF AND DUP11 PUSH20 0xFFFFFFFFFFFFFFFFFFFFFFFFFFFFFFFFFFFFFFFF AND LT ISZERO SWAP1 POP PUSH0 PUSH2 0x31E4 DUP9 DUP9 PUSH3 0xF4240 PUSH2 0x31D6 SWAP2 SWAP1 PUSH2 0x62CC JUMP JUMPDEST PUSH3 0xFFFFFF AND PUSH3 0xF4240 PUSH2 0x3308 JUMP JUMPDEST SWAP1 POP DUP2 PUSH2 0x31FD JUMPI PUSH2 0x31F8 DUP12 DUP12 DUP12 PUSH1 0x1 PUSH2 0x453B JUMP JUMPDEST PUSH2 0x320B JUMP JUMPDEST PUSH2 0x320A DUP12 DUP12 DUP12 PUSH1 0x1 PUSH2 0x4629 JUMP JUMPDEST JUMPDEST SWAP5 POP DUP5 DUP2 LT PUSH2 0x321C JUMPI DUP10 SWAP6 POP PUSH2 0x322B JUMP JUMPDEST PUSH2 0x3228 DUP12 DUP11 DUP4 DUP6 PUSH2 0x4768 JUMP JUMPDEST SWAP6 POP JUMPDEST PUSH0 DUP11 PUSH20 0xFFFFFFFFFFFFFFFFFFFFFFFFFFFFFFFFFFFFFFFF AND DUP8 PUSH20 0xFFFFFFFFFFFFFFFFFFFFFFFFFFFFFFFFFFFFFFFF AND EQ SWAP1 POP DUP3 ISZERO PUSH2 0x3291 JUMPI DUP1 PUSH2 0x327A JUMPI PUSH2 0x3275 DUP13 DUP9 DUP13 PUSH1 0x1 PUSH2 0x4629 JUMP JUMPDEST PUSH2 0x327C JUMP JUMPDEST DUP6 JUMPDEST SWAP6 POP PUSH2 0x328A DUP13 DUP9 DUP13 PUSH0 PUSH2 0x453B JUMP JUMPDEST SWAP5 POP PUSH2 0x32BB JUMP JUMPDEST DUP1 PUSH2 0x32A8 JUMPI PUSH2 0x32A3 DUP13 DUP9 DUP13 PUSH1 0x1 PUSH2 0x453B JUMP JUMPDEST PUSH2 0x32AA JUMP JUMPDEST DUP6 JUMPDEST SWAP6 POP PUSH2 0x32B8 DUP13 DUP9 DUP13 PUSH0 PUSH2 0x4629 JUMP JUMPDEST SWAP5 POP JUMPDEST DUP1 PUSH2 0x32D3 JUMPI DUP6 DUP10 PUSH2 0x32CC SWAP2 SWAP1 PUSH2 0x5D5F JUMP JUMPDEST SWAP4 POP PUSH2 0x32F9 JUMP JUMPDEST PUSH2 0x32F6 DUP7 DUP10 PUSH3 0xFFFFFF AND DUP11 PUSH3 0xF4240 PUSH2 0x32EC SWAP2 SWAP1 PUSH2 0x62CC JUMP JUMPDEST PUSH3 0xFFFFFF AND PUSH2 0x2985 JUMP JUMPDEST SWAP4 POP JUMPDEST POP POP POP SWAP6 POP SWAP6 POP SWAP6 POP SWAP6 SWAP2 POP POP JUMP JUMPDEST PUSH0 DUP1 PUSH0 DUP1 NOT DUP6 DUP8 MULMOD DUP6 DUP8 MUL SWAP3 POP DUP3 DUP2 LT DUP4 DUP3 SUB SUB SWAP2 POP POP PUSH0 DUP2 SUB PUSH2 0x3340 JUMPI DUP4 DUP3 DUP2 PUSH2 0x3336 JUMPI PUSH2 0x3335 PUSH2 0x5EA8 JUMP JUMPDEST JUMPDEST DIV SWAP3 POP POP POP PUSH2 0x3413 JUMP JUMPDEST DUP4 DUP2 LT PUSH2 0x3388 JUMPI DUP6 DUP6 DUP6 PUSH1 0x40 MLOAD PUSH32 0x63A0577800000000000000000000000000000000000000000000000000000000 DUP2 MSTORE PUSH1 0x4 ADD PUSH2 0x337F SWAP4 SWAP3 SWAP2 SWAP1 PUSH2 0x6302 JUMP JUMPDEST PUSH1 0x40 MLOAD DUP1 SWAP2 SUB SWAP1 REVERT JUMPDEST PUSH0 DUP5 DUP7 DUP9 MULMOD SWAP1 POP DUP3 DUP2 GT DUP3 SUB SWAP2 POP DUP1 DUP4 SUB SWAP3 POP PUSH0 PUSH1 0x1 DUP7 NOT ADD DUP7 AND SWAP1 POP PUSH0 DUP2 DUP8 DIV SWAP7 POP DUP2 DUP6 DIV SWAP5 POP PUSH1 0x1 DUP3 DUP4 PUSH0 SUB DIV ADD SWAP1 POP DUP1 DUP5 MUL DUP6 OR SWAP5 POP PUSH0 PUSH1 0x2 DUP9 PUSH1 0x3 MUL XOR SWAP1 POP DUP1 DUP9 MUL PUSH1 0x2 SUB DUP2 MUL SWAP1 POP DUP1 DUP9 MUL PUSH1 0x2 SUB DUP2 MUL SWAP1 POP DUP1 DUP9 MUL PUSH1 0x2 SUB DUP2 MUL SWAP1 POP DUP1 DUP9 MUL PUSH1 0x2 SUB DUP2 MUL SWAP1 POP DUP1 DUP9 MUL PUSH1 0x2 SUB DUP2 MUL SWAP1 POP DUP1 DUP9 MUL PUSH1 0x2 SUB DUP2 MUL SWAP1 POP DUP1 DUP7 MUL SWAP7 POP POP POP POP POP POP POP JUMPDEST SWAP4 SWAP3 POP POP POP JUMP JUMPDEST PUSH0 DUP1 DUP6 PUSH0 DUP7 PUSH1 0x2 SIGNEXTEND PUSH1 0x2 SIGNEXTEND DUP2 MSTORE PUSH1 0x20 ADD SWAP1 DUP2 MSTORE PUSH1 0x20 ADD PUSH0 KECCAK256 SWAP1 POP DUP1 PUSH1 0x2 ADD SLOAD DUP5 PUSH2 0x3444 SWAP2 SWAP1 PUSH2 0x5D5F JUMP JUMPDEST DUP2 PUSH1 0x2 ADD DUP2 SWAP1 SSTORE POP DUP1 PUSH1 0x3 ADD SLOAD DUP4 PUSH2 0x345C SWAP2 SWAP1 PUSH2 0x5D5F JUMP JUMPDEST DUP2 PUSH1 0x3 ADD DUP2 SWAP1 SSTORE POP DUP1 PUSH1 0x1 ADD PUSH0 SWAP1 SLOAD SWAP1 PUSH2 0x100 EXP SWAP1 DIV PUSH1 0xF SIGNEXTEND SWAP2 POP POP SWAP5 SWAP4 POP POP POP POP JUMP JUMPDEST PUSH0 DUP1 DUP3 PUSH1 0xF SIGNEXTEND SLT ISZERO PUSH2 0x34A8 JUMPI DUP2 PUSH2 0x3496 SWAP1 PUSH2 0x5C5B JUMP JUMPDEST DUP4 PUSH2 0x34A1 SWAP2 SWAP1 PUSH2 0x5B83 JUMP JUMPDEST SWAP1 POP PUSH2 0x34B7 JUMP JUMPDEST DUP2 DUP4 PUSH2 0x34B4 SWAP2 SWAP1 PUSH2 0x5CE7 JUMP JUMPDEST SWAP1 POP JUMPDEST SWAP3 SWAP2 POP POP JUMP JUMPDEST PUSH0 PUSH5 0x1000276A3 PUSH20 0xFFFFFFFFFFFFFFFFFFFFFFFFFFFFFFFFFFFFFFFF AND DUP3 PUSH20 0xFFFFFFFFFFFFFFFFFFFFFFFFFFFFFFFFFFFFFFFF AND LT ISZERO DUP1 ISZERO PUSH2 0x353E JUMPI POP PUSH20 0xFFFD8963EFD1FC6A506488495D951D5263988D26 PUSH20 0xFFFFFFFFFFFFFFFFFFFFFFFFFFFFFFFFFFFFFFFF AND DUP3 PUSH20 0xFFFFFFFFFFFFFFFFFFFFFFFFFFFFFFFFFFFFFFFF AND LT JUMPDEST PUSH2 0x357D JUMPI PUSH1 0x40 MLOAD PUSH32 0x8C379A000000000000000000000000000000000000000000000000000000000 DUP2 MSTORE PUSH1 0x4 ADD PUSH2 0x3574 SWAP1 PUSH2 0x6381 JUMP JUMPDEST PUSH1 0x40 MLOAD DUP1 SWAP2 SUB SWAP1 REVERT JUMPDEST PUSH0 PUSH1 0x20 DUP4 PUSH20 0xFFFFFFFFFFFFFFFFFFFFFFFFFFFFFFFFFFFFFFFF AND SWAP1 SHL SWAP1 POP PUSH0 DUP2 SWAP1 POP PUSH0 PUSH16 0xFFFFFFFFFFFFFFFFFFFFFFFFFFFFFFFF DUP3 GT PUSH1 0x7 SHL DUP1 DUP3 OR SWAP2 POP DUP3 DUP2 SHR SWAP3 POP POP PUSH8 0xFFFFFFFFFFFFFFFF DUP3 GT PUSH1 0x6 SHL DUP1 DUP3 OR SWAP2 POP DUP3 DUP2 SHR SWAP3 POP POP PUSH4 0xFFFFFFFF DUP3 GT PUSH1 0x5 SHL DUP1 DUP3 OR SWAP2 POP DUP3 DUP2 SHR SWAP3 POP POP PUSH2 0xFFFF DUP3 GT PUSH1 0x4 SHL DUP1 DUP3 OR SWAP2 POP DUP3 DUP2 SHR SWAP3 POP POP PUSH1 0xFF DUP3 GT PUSH1 0x3 SHL DUP1 DUP3 OR SWAP2 POP DUP3 DUP2 SHR SWAP3 POP POP PUSH1 0xF DUP3 GT PUSH1 0x2 SHL DUP1 DUP3 OR SWAP2 POP DUP3 DUP2 SHR SWAP3 POP POP PUSH1 0x3 DUP3 GT PUSH1 0x1 SHL DUP1 DUP3 OR SWAP2 POP DUP3 DUP2 SHR SWAP3 POP POP PUSH1 0x1 DUP3 GT DUP1 DUP3 OR SWAP2 POP POP PUSH1 0x80 DUP2 LT PUSH2 0x3661 JUMPI PUSH1 0x7F DUP2 PUSH2 0x3657 SWAP2 SWAP1 PUSH2 0x5D5F JUMP JUMPDEST DUP4 SWAP1 SHR SWAP2 POP PUSH2 0x3674 JUMP JUMPDEST DUP1 PUSH1 0x7F PUSH2 0x366E SWAP2 SWAP1 PUSH2 0x5D5F JUMP JUMPDEST DUP4 SWAP1 SHL SWAP2 POP JUMPDEST PUSH0 PUSH1 0x40 PUSH1 0x80 DUP4 PUSH2 0x3684 SWAP2 SWAP1 PUSH2 0x639F JUMP JUMPDEST SWAP1 SHL SWAP1 POP DUP3 DUP4 MUL PUSH1 0x7F SHR SWAP3 POP DUP3 PUSH1 0x80 SHR DUP1 PUSH1 0x3F SHL DUP3 OR SWAP2 POP DUP4 DUP2 SHR SWAP4 POP POP DUP3 DUP4 MUL PUSH1 0x7F SHR SWAP3 POP DUP3 PUSH1 0x80 SHR DUP1 PUSH1 0x3E SHL DUP3 OR SWAP2 POP DUP4 DUP2 SHR SWAP4 POP POP DUP3 DUP4 MUL PUSH1 0x7F SHR SWAP3 POP DUP3 PUSH1 0x80 SHR DUP1 PUSH1 0x3D SHL DUP3 OR SWAP2 POP DUP4 DUP2 SHR SWAP4 POP POP DUP3 DUP4 MUL PUSH1 0x7F SHR SWAP3 POP DUP3 PUSH1 0x80 SHR DUP1 PUSH1 0x3C SHL DUP3 OR SWAP2 POP DUP4 DUP2 SHR SWAP4 POP POP DUP3 DUP4 MUL PUSH1 0x7F SHR SWAP3 POP DUP3 PUSH1 0x80 SHR DUP1 PUSH1 0x3B SHL DUP3 OR SWAP2 POP DUP4 DUP2 SHR SWAP4 POP POP DUP3 DUP4 MUL PUSH1 0x7F SHR SWAP3 POP DUP3 PUSH1 0x80 SHR DUP1 PUSH1 0x3A SHL DUP3 OR SWAP2 POP DUP4 DUP2 SHR SWAP4 POP POP DUP3 DUP4 MUL PUSH1 0x7F SHR SWAP3 POP DUP3 PUSH1 0x80 SHR DUP1 PUSH1 0x39 SHL DUP3 OR SWAP2 POP DUP4 DUP2 SHR SWAP4 POP POP DUP3 DUP4 MUL PUSH1 0x7F SHR SWAP3 POP DUP3 PUSH1 0x80 SHR DUP1 PUSH1 0x38 SHL DUP3 OR SWAP2 POP DUP4 DUP2 SHR SWAP4 POP POP DUP3 DUP4 MUL PUSH1 0x7F SHR SWAP3 POP DUP3 PUSH1 0x80 SHR DUP1 PUSH1 0x37 SHL DUP3 OR SWAP2 POP DUP4 DUP2 SHR SWAP4 POP POP DUP3 DUP4 MUL PUSH1 0x7F SHR SWAP3 POP DUP3 PUSH1 0x80 SHR DUP1 PUSH1 0x36 SHL DUP3 OR SWAP2 POP DUP4 DUP2 SHR SWAP4 POP POP DUP3 DUP4 MUL PUSH1 0x7F SHR SWAP3 POP DUP3 PUSH1 0x80 SHR DUP1 PUSH1 0x35 SHL DUP3 OR SWAP2 POP DUP4 DUP2 SHR SWAP4 POP POP DUP3 DUP4 MUL PUSH1 0x7F SHR SWAP3 POP DUP3 PUSH1 0x80 SHR DUP1 PUSH1 0x34 SHL DUP3 OR SWAP2 POP DUP4 DUP2 SHR SWAP4 POP POP DUP3 DUP4 MUL PUSH1 0x7F SHR SWAP3 POP DUP3 PUSH1 0x80 SHR DUP1 PUSH1 0x33 SHL DUP3 OR SWAP2 POP DUP4 DUP2 SHR SWAP4 POP POP DUP3 DUP4 MUL PUSH1 0x7F SHR SWAP3 POP DUP3 PUSH1 0x80 SHR DUP1 PUSH1 0x32 SHL DUP3 OR SWAP2 POP POP PUSH0 PUSH10 0x3627A301D71055774C85 DUP3 PUSH2 0x3806 SWAP2 SWAP1 PUSH2 0x63DF JUMP JUMPDEST SWAP1 POP PUSH0 PUSH1 0x80 PUSH16 0x28F6481AB7F045A5AF012A19D003AAA DUP4 PUSH2 0x3827 SWAP2 SWAP1 PUSH2 0x639F JUMP JUMPDEST SWAP1 SAR SWAP1 POP PUSH0 PUSH1 0x80 PUSH16 0xDB2DF09E81959A81455E260799A0632F DUP5 PUSH2 0x384A SWAP2 SWAP1 PUSH2 0x6455 JUMP JUMPDEST SWAP1 SAR SWAP1 POP DUP1 PUSH1 0x2 SIGNEXTEND DUP3 PUSH1 0x2 SIGNEXTEND EQ PUSH2 0x38A4 JUMPI DUP9 PUSH20 0xFFFFFFFFFFFFFFFFFFFFFFFFFFFFFFFFFFFFFFFF AND PUSH2 0x387B DUP3 PUSH2 0x2CD7 JUMP JUMPDEST PUSH20 0xFFFFFFFFFFFFFFFFFFFFFFFFFFFFFFFFFFFFFFFF AND GT ISZERO PUSH2 0x389D JUMPI DUP2 PUSH2 0x389F JUMP JUMPDEST DUP1 JUMPDEST PUSH2 0x38A6 JUMP JUMPDEST DUP2 JUMPDEST SWAP8 POP POP POP POP POP POP POP POP SWAP2 SWAP1 POP JUMP JUMPDEST PUSH0 DUP1 PUSH0 DUP9 DUP9 PUSH2 0xFFFF AND PUSH2 0xFFFF DUP2 LT PUSH2 0x38CF JUMPI PUSH2 0x38CE PUSH2 0x5E7B JUMP JUMPDEST JUMPDEST ADD PUSH1 0x40 MLOAD DUP1 PUSH1 0x60 ADD PUSH1 0x40 MSTORE SWAP1 DUP2 PUSH0 DUP3 ADD PUSH0 SWAP1 SLOAD SWAP1 PUSH2 0x100 EXP SWAP1 DIV PUSH4 0xFFFFFFFF AND PUSH4 0xFFFFFFFF AND PUSH4 0xFFFFFFFF AND DUP2 MSTORE PUSH1 0x20 ADD PUSH0 DUP3 ADD PUSH1 0x4 SWAP1 SLOAD SWAP1 PUSH2 0x100 EXP SWAP1 DIV PUSH1 0x6 SIGNEXTEND PUSH1 0x6 SIGNEXTEND PUSH1 0x6 SIGNEXTEND DUP2 MSTORE PUSH1 0x20 ADD PUSH0 DUP3 ADD PUSH1 0xB SWAP1 SLOAD SWAP1 PUSH2 0x100 EXP SWAP1 DIV PUSH1 0xFF AND ISZERO ISZERO ISZERO ISZERO DUP2 MSTORE POP POP SWAP1 POP DUP7 PUSH4 0xFFFFFFFF AND DUP2 PUSH0 ADD MLOAD PUSH4 0xFFFFFFFF AND SUB PUSH2 0x3959 JUMPI DUP8 DUP6 SWAP3 POP SWAP3 POP POP PUSH2 0x3A49 JUMP JUMPDEST DUP5 PUSH2 0xFFFF AND DUP5 PUSH2 0xFFFF AND GT DUP1 ISZERO PUSH2 0x3983 JUMPI POP PUSH1 0x1 DUP6 PUSH2 0x3978 SWAP2 SWAP1 PUSH2 0x6496 JUMP JUMPDEST PUSH2 0xFFFF AND DUP9 PUSH2 0xFFFF AND EQ JUMPDEST ISZERO PUSH2 0x3990 JUMPI DUP4 SWAP2 POP PUSH2 0x3994 JUMP JUMPDEST DUP5 SWAP2 POP JUMPDEST DUP2 PUSH1 0x1 DUP10 PUSH2 0x39A2 SWAP2 SWAP1 PUSH2 0x64CB JUMP JUMPDEST PUSH2 0x39AC SWAP2 SWAP1 PUSH2 0x6500 JUMP JUMPDEST SWAP3 POP PUSH2 0x39B9 DUP2 DUP9 DUP9 PUSH2 0x4794 JUMP JUMPDEST DUP10 DUP5 PUSH2 0xFFFF AND PUSH2 0xFFFF DUP2 LT PUSH2 0x39D1 JUMPI PUSH2 0x39D0 PUSH2 0x5E7B JUMP JUMPDEST JUMPDEST ADD PUSH0 DUP3 ADD MLOAD DUP2 PUSH0 ADD PUSH0 PUSH2 0x100 EXP DUP2 SLOAD DUP2 PUSH4 0xFFFFFFFF MUL NOT AND SWAP1 DUP4 PUSH4 0xFFFFFFFF AND MUL OR SWAP1 SSTORE POP PUSH1 0x20 DUP3 ADD MLOAD DUP2 PUSH0 ADD PUSH1 0x4 PUSH2 0x100 EXP DUP2 SLOAD DUP2 PUSH7 0xFFFFFFFFFFFFFF MUL NOT AND SWAP1 DUP4 PUSH1 0x6 SIGNEXTEND PUSH7 0xFFFFFFFFFFFFFF AND MUL OR SWAP1 SSTORE POP PUSH1 0x40 DUP3 ADD MLOAD DUP2 PUSH0 ADD PUSH1 0xB PUSH2 0x100 EXP DUP2 SLOAD DUP2 PUSH1 0xFF MUL NOT AND SWAP1 DUP4 ISZERO ISZERO MUL OR SWAP1 SSTORE POP SWAP1 POP POP POP JUMPDEST SWAP7 POP SWAP7 SWAP5 POP POP POP POP POP JUMP JUMPDEST PUSH0 DUP1 PUSH1 0x40 MLOAD DUP1 PUSH1 0x60 ADD PUSH1 0x40 MSTORE DUP1 DUP5 PUSH4 0xFFFFFFFF AND DUP2 MSTORE PUSH1 0x20 ADD PUSH0 PUSH1 0x6 SIGNEXTEND DUP2 MSTORE PUSH1 0x20 ADD PUSH1 0x1 ISZERO ISZERO DUP2 MSTORE POP DUP5 PUSH0 PUSH2 0xFFFF DUP2 LT PUSH2 0x3A91 JUMPI PUSH2 0x3A90 PUSH2 0x5E7B JUMP JUMPDEST JUMPDEST ADD PUSH0 DUP3 ADD MLOAD DUP2 PUSH0 ADD PUSH0 PUSH2 0x100 EXP DUP2 SLOAD DUP2 PUSH4 0xFFFFFFFF MUL NOT AND SWAP1 DUP4 PUSH4 0xFFFFFFFF AND MUL OR SWAP1 SSTORE POP PUSH1 0x20 DUP3 ADD MLOAD DUP2 PUSH0 ADD PUSH1 0x4 PUSH2 0x100 EXP DUP2 SLOAD DUP2 PUSH7 0xFFFFFFFFFFFFFF MUL NOT AND SWAP1 DUP4 PUSH1 0x6 SIGNEXTEND PUSH7 0xFFFFFFFFFFFFFF AND MUL OR SWAP1 SSTORE POP PUSH1 0x40 DUP3 ADD MLOAD DUP2 PUSH0 ADD PUSH1 0xB PUSH2 0x100 EXP DUP2 SLOAD DUP2 PUSH1 0xFF MUL NOT AND SWAP1 DUP4 ISZERO ISZERO MUL OR SWAP1 SSTORE POP SWAP1 POP POP PUSH1 0x1 SWAP2 POP PUSH1 0x1 SWAP1 POP SWAP3 POP SWAP3 SWAP1 POP JUMP JUMPDEST PUSH0 DUP1 DUP9 PUSH0 DUP10 PUSH1 0x2 SIGNEXTEND PUSH1 0x2 SIGNEXTEND DUP2 MSTORE PUSH1 0x20 ADD SWAP1 DUP2 MSTORE PUSH1 0x20 ADD PUSH0 KECCAK256 SWAP1 POP PUSH0 DUP2 PUSH0 ADD PUSH1 0x1 SWAP1 SLOAD SWAP1 PUSH2 0x100 EXP SWAP1 DIV PUSH16 0xFFFFFFFFFFFFFFFFFFFFFFFFFFFFFFFF AND SWAP1 POP PUSH0 PUSH2 0x3B5E DUP3 DUP10 PUSH2 0x3480 JUMP JUMPDEST SWAP1 POP PUSH0 DUP3 PUSH16 0xFFFFFFFFFFFFFFFFFFFFFFFFFFFFFFFF AND EQ ISZERO ISZERO PUSH0 DUP3 PUSH16 0xFFFFFFFFFFFFFFFFFFFFFFFFFFFFFFFF AND EQ ISZERO ISZERO EQ ISZERO SWAP4 POP PUSH0 DUP3 PUSH16 0xFFFFFFFFFFFFFFFFFFFFFFFFFFFFFFFF AND SUB PUSH2 0x3BE7 JUMPI DUP9 PUSH1 0x2 SIGNEXTEND DUP11 PUSH1 0x2 SIGNEXTEND SGT PUSH2 0x3BCB JUMPI DUP7 DUP4 PUSH1 0x2 ADD DUP2 SWAP1 SSTORE POP DUP6 DUP4 PUSH1 0x3 ADD DUP2 SWAP1 SSTORE POP JUMPDEST PUSH1 0x1 DUP4 PUSH0 ADD PUSH0 PUSH2 0x100 EXP DUP2 SLOAD DUP2 PUSH1 0xFF MUL NOT AND SWAP1 DUP4 ISZERO ISZERO MUL OR SWAP1 SSTORE POP JUMPDEST DUP1 DUP4 PUSH0 ADD PUSH1 0x1 PUSH2 0x100 EXP DUP2 SLOAD DUP2 PUSH16 0xFFFFFFFFFFFFFFFFFFFFFFFFFFFFFFFF MUL NOT AND SWAP1 DUP4 PUSH16 0xFFFFFFFFFFFFFFFFFFFFFFFFFFFFFFFF AND MUL OR SWAP1 SSTORE POP DUP5 PUSH2 0x3C4D JUMPI DUP8 PUSH1 0xF SIGNEXTEND DUP4 PUSH1 0x1 ADD PUSH0 SWAP1 SLOAD SWAP1 PUSH2 0x100 EXP SWAP1 DIV PUSH1 0xF SIGNEXTEND PUSH1 0xF SIGNEXTEND PUSH2 0x3C48 SWAP2 SWAP1 PUSH2 0x6455 JUMP JUMPDEST PUSH2 0x3C70 JUMP JUMPDEST DUP8 PUSH1 0xF SIGNEXTEND DUP4 PUSH1 0x1 ADD PUSH0 SWAP1 SLOAD SWAP1 PUSH2 0x100 EXP SWAP1 DIV PUSH1 0xF SIGNEXTEND PUSH1 0xF SIGNEXTEND PUSH2 0x3C6F SWAP2 SWAP1 PUSH2 0x639F JUMP JUMPDEST JUMPDEST DUP4 PUSH1 0x1 ADD PUSH0 PUSH2 0x100 EXP DUP2 SLOAD DUP2 PUSH16 0xFFFFFFFFFFFFFFFFFFFFFFFFFFFFFFFF MUL NOT AND SWAP1 DUP4 PUSH1 0xF SIGNEXTEND PUSH16 0xFFFFFFFFFFFFFFFFFFFFFFFFFFFFFFFF AND MUL OR SWAP1 SSTORE POP POP POP POP SWAP8 SWAP7 POP POP POP POP POP POP POP JUMP JUMPDEST PUSH0 DUP2 DUP4 PUSH2 0x3CC7 SWAP2 SWAP1 PUSH2 0x6066 JUMP JUMPDEST PUSH1 0x2 SIGNEXTEND EQ PUSH2 0x3CD3 JUMPI PUSH0 DUP1 REVERT JUMPDEST PUSH0 DUP1 PUSH2 0x3CE9 DUP4 DUP6 PUSH2 0x3CE4 SWAP2 SWAP1 PUSH2 0x5FFE JUMP JUMPDEST PUSH2 0x4294 JUMP JUMPDEST SWAP2 POP SWAP2 POP PUSH0 DUP2 PUSH1 0xFF AND PUSH1 0x1 SWAP1 SHL SWAP1 POP DUP1 DUP7 PUSH0 DUP6 PUSH1 0x1 SIGNEXTEND PUSH1 0x1 SIGNEXTEND DUP2 MSTORE PUSH1 0x20 ADD SWAP1 DUP2 MSTORE PUSH1 0x20 ADD PUSH0 KECCAK256 PUSH0 DUP3 DUP3 SLOAD XOR SWAP3 POP POP DUP2 SWAP1 SSTORE POP POP POP POP POP POP POP JUMP JUMPDEST PUSH0 DUP1 PUSH0 DUP9 PUSH0 DUP10 PUSH1 0x2 SIGNEXTEND PUSH1 0x2 SIGNEXTEND DUP2 MSTORE PUSH1 0x20 ADD SWAP1 DUP2 MSTORE PUSH1 0x20 ADD PUSH0 KECCAK256 SWAP1 POP PUSH0 DUP10 PUSH0 DUP10 PUSH1 0x2 SIGNEXTEND PUSH1 0x2 SIGNEXTEND DUP2 MSTORE PUSH1 0x20 ADD SWAP1 DUP2 MSTORE PUSH1 0x20 ADD PUSH0 KECCAK256 SWAP1 POP PUSH0 DUP1 DUP11 PUSH1 0x2 SIGNEXTEND DUP10 PUSH1 0x2 SIGNEXTEND SLT PUSH2 0x3D79 JUMPI DUP4 PUSH1 0x2 ADD SLOAD SWAP2 POP DUP4 PUSH1 0x3 ADD SLOAD SWAP1 POP PUSH2 0x3D9E JUMP JUMPDEST DUP4 PUSH1 0x2 ADD SLOAD DUP9 PUSH2 0x3D89 SWAP2 SWAP1 PUSH2 0x5D5F JUMP JUMPDEST SWAP2 POP DUP4 PUSH1 0x3 ADD SLOAD DUP8 PUSH2 0x3D9B SWAP2 SWAP1 PUSH2 0x5D5F JUMP JUMPDEST SWAP1 POP JUMPDEST PUSH0 DUP1 DUP12 PUSH1 0x2 SIGNEXTEND DUP12 PUSH1 0x2 SIGNEXTEND SLT ISZERO PUSH2 0x3DC1 JUMPI DUP5 PUSH1 0x2 ADD SLOAD SWAP2 POP DUP5 PUSH1 0x3 ADD SLOAD SWAP1 POP PUSH2 0x3DE6 JUMP JUMPDEST DUP5 PUSH1 0x2 ADD SLOAD DUP11 PUSH2 0x3DD1 SWAP2 SWAP1 PUSH2 0x5D5F JUMP JUMPDEST SWAP2 POP DUP5 PUSH1 0x3 ADD SLOAD DUP10 PUSH2 0x3DE3 SWAP2 SWAP1 PUSH2 0x5D5F JUMP JUMPDEST SWAP1 POP JUMPDEST DUP2 DUP5 DUP12 PUSH2 0x3DF3 SWAP2 SWAP1 PUSH2 0x5D5F JUMP JUMPDEST PUSH2 0x3DFD SWAP2 SWAP1 PUSH2 0x5D5F JUMP JUMPDEST SWAP8 POP DUP1 DUP4 DUP11 PUSH2 0x3E0C SWAP2 SWAP1 PUSH2 0x5D5F JUMP JUMPDEST PUSH2 0x3E16 SWAP2 SWAP1 PUSH2 0x5D5F JUMP JUMPDEST SWAP7 POP POP POP POP POP POP POP SWAP7 POP SWAP7 SWAP5 POP POP POP POP POP JUMP JUMPDEST PUSH0 PUSH2 0x3E85 DUP6 PUSH1 0x1 ADD SLOAD DUP5 PUSH2 0x3E3D SWAP2 SWAP1 PUSH2 0x5D5F JUMP JUMPDEST DUP7 PUSH0 ADD PUSH0 SWAP1 SLOAD SWAP1 PUSH2 0x100 EXP SWAP1 DIV PUSH16 0xFFFFFFFFFFFFFFFFFFFFFFFFFFFFFFFF AND PUSH16 0xFFFFFFFFFFFFFFFFFFFFFFFFFFFFFFFF AND PUSH17 0x100000000000000000000000000000000 PUSH2 0x3308 JUMP JUMPDEST SWAP1 POP PUSH0 PUSH2 0x3EE3 DUP7 PUSH1 0x2 ADD SLOAD DUP5 PUSH2 0x3E9B SWAP2 SWAP1 PUSH2 0x5D5F JUMP JUMPDEST DUP8 PUSH0 ADD PUSH0 SWAP1 SLOAD SWAP1 PUSH2 0x100 EXP SWAP1 DIV PUSH16 0xFFFFFFFFFFFFFFFFFFFFFFFFFFFFFFFF AND PUSH16 0xFFFFFFFFFFFFFFFFFFFFFFFFFFFFFFFF AND PUSH17 0x100000000000000000000000000000000 PUSH2 0x3308 JUMP JUMPDEST SWAP1 POP PUSH2 0x3F0D DUP7 PUSH0 ADD PUSH0 SWAP1 SLOAD SWAP1 PUSH2 0x100 EXP SWAP1 DIV PUSH16 0xFFFFFFFFFFFFFFFFFFFFFFFFFFFFFFFF AND DUP7 PUSH2 0x3480 JUMP JUMPDEST DUP7 PUSH0 ADD PUSH0 PUSH2 0x100 EXP DUP2 SLOAD DUP2 PUSH16 0xFFFFFFFFFFFFFFFFFFFFFFFFFFFFFFFF MUL NOT AND SWAP1 DUP4 PUSH16 0xFFFFFFFFFFFFFFFFFFFFFFFFFFFFFFFF AND MUL OR SWAP1 SSTORE POP DUP4 DUP7 PUSH1 0x1 ADD DUP2 SWAP1 SSTORE POP DUP3 DUP7 PUSH1 0x2 ADD DUP2 SWAP1 SSTORE POP PUSH0 DUP3 PUSH16 0xFFFFFFFFFFFFFFFFFFFFFFFFFFFFFFFF AND GT DUP1 PUSH2 0x3F88 JUMPI POP PUSH0 DUP2 PUSH16 0xFFFFFFFFFFFFFFFFFFFFFFFFFFFFFFFF AND GT JUMPDEST ISZERO PUSH2 0x4057 JUMPI DUP2 DUP7 PUSH1 0x3 ADD PUSH0 DUP3 DUP3 DUP3 SWAP1 SLOAD SWAP1 PUSH2 0x100 EXP SWAP1 DIV PUSH16 0xFFFFFFFFFFFFFFFFFFFFFFFFFFFFFFFF AND PUSH2 0x3FBB SWAP2 SWAP1 PUSH2 0x5CE7 JUMP JUMPDEST SWAP3 POP PUSH2 0x100 EXP DUP2 SLOAD DUP2 PUSH16 0xFFFFFFFFFFFFFFFFFFFFFFFFFFFFFFFF MUL NOT AND SWAP1 DUP4 PUSH16 0xFFFFFFFFFFFFFFFFFFFFFFFFFFFFFFFF AND MUL OR SWAP1 SSTORE POP DUP1 DUP7 PUSH1 0x3 ADD PUSH1 0x10 DUP3 DUP3 DUP3 SWAP1 SLOAD SWAP1 PUSH2 0x100 EXP SWAP1 DIV PUSH16 0xFFFFFFFFFFFFFFFFFFFFFFFFFFFFFFFF AND PUSH2 0x4020 SWAP2 SWAP1 PUSH2 0x5CE7 JUMP JUMPDEST SWAP3 POP PUSH2 0x100 EXP DUP2 SLOAD DUP2 PUSH16 0xFFFFFFFFFFFFFFFFFFFFFFFFFFFFFFFF MUL NOT AND SWAP1 DUP4 PUSH16 0xFFFFFFFFFFFFFFFFFFFFFFFFFFFFFFFF AND MUL OR SWAP1 SSTORE POP JUMPDEST POP POP POP POP POP POP JUMP JUMPDEST PUSH0 DUP1 DUP3 PUSH1 0xF SIGNEXTEND SLT PUSH2 0x407C JUMPI PUSH2 0x4077 DUP5 DUP5 DUP5 PUSH1 0x1 PUSH2 0x4629 JUMP JUMPDEST PUSH2 0x409B JUMP JUMPDEST PUSH2 0x4091 DUP5 DUP5 DUP5 PUSH2 0x408B SWAP1 PUSH2 0x5C5B JUMP JUMPDEST PUSH0 PUSH2 0x4629 JUMP JUMPDEST PUSH2 0x409A SWAP1 PUSH2 0x5CA1 JUMP JUMPDEST JUMPDEST SWAP1 POP SWAP4 SWAP3 POP POP POP JUMP JUMPDEST PUSH0 DUP1 DUP3 PUSH1 0xF SIGNEXTEND SLT PUSH2 0x40C1 JUMPI PUSH2 0x40BC DUP5 DUP5 DUP5 PUSH1 0x1 PUSH2 0x453B JUMP JUMPDEST PUSH2 0x40E0 JUMP JUMPDEST PUSH2 0x40D6 DUP5 DUP5 DUP5 PUSH2 0x40D0 SWAP1 PUSH2 0x5C5B JUMP JUMPDEST PUSH0 PUSH2 0x453B JUMP JUMPDEST PUSH2 0x40DF SWAP1 PUSH2 0x5CA1 JUMP JUMPDEST JUMPDEST SWAP1 POP SWAP4 SWAP3 POP POP POP JUMP JUMPDEST PUSH0 DUP1 DUP6 PUSH4 0xFFFFFFFF AND SUB PUSH2 0x41A9 JUMPI PUSH0 DUP8 DUP5 PUSH2 0xFFFF AND PUSH2 0xFFFF DUP2 LT PUSH2 0x4110 JUMPI PUSH2 0x410F PUSH2 0x5E7B JUMP JUMPDEST JUMPDEST ADD PUSH1 0x40 MLOAD DUP1 PUSH1 0x60 ADD PUSH1 0x40 MSTORE SWAP1 DUP2 PUSH0 DUP3 ADD PUSH0 SWAP1 SLOAD SWAP1 PUSH2 0x100 EXP SWAP1 DIV PUSH4 0xFFFFFFFF AND PUSH4 0xFFFFFFFF AND PUSH4 0xFFFFFFFF AND DUP2 MSTORE PUSH1 0x20 ADD PUSH0 DUP3 ADD PUSH1 0x4 SWAP1 SLOAD SWAP1 PUSH2 0x100 EXP SWAP1 DIV PUSH1 0x6 SIGNEXTEND PUSH1 0x6 SIGNEXTEND PUSH1 0x6 SIGNEXTEND DUP2 MSTORE PUSH1 0x20 ADD PUSH0 DUP3 ADD PUSH1 0xB SWAP1 SLOAD SWAP1 PUSH2 0x100 EXP SWAP1 DIV PUSH1 0xFF AND ISZERO ISZERO ISZERO ISZERO DUP2 MSTORE POP POP SWAP1 POP DUP7 PUSH4 0xFFFFFFFF AND DUP2 PUSH0 ADD MLOAD PUSH4 0xFFFFFFFF AND EQ PUSH2 0x419C JUMPI PUSH2 0x4199 DUP2 DUP9 DUP8 PUSH2 0x4794 JUMP JUMPDEST SWAP1 POP JUMPDEST DUP1 PUSH1 0x20 ADD MLOAD SWAP2 POP POP PUSH2 0x428A JUMP JUMPDEST PUSH0 DUP6 DUP8 PUSH2 0x41B6 SWAP2 SWAP1 PUSH2 0x6530 JUMP JUMPDEST SWAP1 POP PUSH0 DUP1 PUSH2 0x41C8 DUP11 DUP11 DUP6 DUP11 DUP11 DUP11 PUSH2 0x4802 JUMP JUMPDEST SWAP2 POP SWAP2 POP DUP2 PUSH0 ADD MLOAD PUSH4 0xFFFFFFFF AND DUP4 PUSH4 0xFFFFFFFF AND SUB PUSH2 0x41F1 JUMPI DUP2 PUSH1 0x20 ADD MLOAD SWAP4 POP POP POP POP PUSH2 0x428A JUMP JUMPDEST DUP1 PUSH0 ADD MLOAD PUSH4 0xFFFFFFFF AND DUP4 PUSH4 0xFFFFFFFF AND SUB PUSH2 0x4216 JUMPI DUP1 PUSH1 0x20 ADD MLOAD SWAP4 POP POP POP POP PUSH2 0x428A JUMP JUMPDEST PUSH0 DUP3 PUSH0 ADD MLOAD DUP3 PUSH0 ADD MLOAD PUSH2 0x4229 SWAP2 SWAP1 PUSH2 0x6530 JUMP JUMPDEST PUSH4 0xFFFFFFFF AND SWAP1 POP PUSH0 DUP4 PUSH0 ADD MLOAD DUP6 PUSH2 0x4241 SWAP2 SWAP1 PUSH2 0x6530 JUMP JUMPDEST PUSH4 0xFFFFFFFF AND SWAP1 POP DUP1 DUP3 DUP6 PUSH1 0x20 ADD MLOAD DUP6 PUSH1 0x20 ADD MLOAD PUSH2 0x425F SWAP2 SWAP1 PUSH2 0x6567 JUMP JUMPDEST PUSH2 0x4269 SWAP2 SWAP1 PUSH2 0x65C5 JUMP JUMPDEST PUSH2 0x4273 SWAP2 SWAP1 PUSH2 0x662D JUMP JUMPDEST DUP5 PUSH1 0x20 ADD MLOAD PUSH2 0x4282 SWAP2 SWAP1 PUSH2 0x6669 JUMP JUMPDEST SWAP6 POP POP POP POP POP POP JUMPDEST SWAP7 SWAP6 POP POP POP POP POP POP JUMP JUMPDEST PUSH0 DUP1 PUSH1 0x8 DUP4 PUSH1 0x2 SIGNEXTEND SWAP1 SAR SWAP2 POP PUSH2 0x100 DUP4 PUSH2 0x42AE SWAP2 SWAP1 PUSH2 0x6066 JUMP JUMPDEST SWAP1 POP SWAP2 POP SWAP2 JUMP JUMPDEST PUSH0 DUP1 DUP3 GT PUSH2 0x42C1 JUMPI PUSH0 DUP1 REVERT JUMPDEST PUSH17 0x100000000000000000000000000000000 DUP3 LT PUSH2 0x42F0 JUMPI PUSH1 0x80 DUP3 SWAP1 SHR SWAP2 POP PUSH1 0x80 DUP2 PUSH2 0x42ED SWAP2 SWAP1 PUSH2 0x66C7 JUMP JUMPDEST SWAP1 POP JUMPDEST PUSH9 0x10000000000000000 DUP3 LT PUSH2 0x4317 JUMPI PUSH1 0x40 DUP3 SWAP1 SHR SWAP2 POP PUSH1 0x40 DUP2 PUSH2 0x4314 SWAP2 SWAP1 PUSH2 0x66C7 JUMP JUMPDEST SWAP1 POP JUMPDEST PUSH5 0x100000000 DUP3 LT PUSH2 0x433A JUMPI PUSH1 0x20 DUP3 SWAP1 SHR SWAP2 POP PUSH1 0x20 DUP2 PUSH2 0x4337 SWAP2 SWAP1 PUSH2 0x66C7 JUMP JUMPDEST SWAP1 POP JUMPDEST PUSH3 0x10000 DUP3 LT PUSH2 0x435B JUMPI PUSH1 0x10 DUP3 SWAP1 SHR SWAP2 POP PUSH1 0x10 DUP2 PUSH2 0x4358 SWAP2 SWAP1 PUSH2 0x66C7 JUMP JUMPDEST SWAP1 POP JUMPDEST PUSH2 0x100 DUP3 LT PUSH2 0x437B JUMPI PUSH1 0x8 DUP3 SWAP1 SHR SWAP2 POP PUSH1 0x8 DUP2 PUSH2 0x4378 SWAP2 SWAP1 PUSH2 0x66C7 JUMP JUMPDEST SWAP1 POP JUMPDEST PUSH1 0x10 DUP3 LT PUSH2 0x439A JUMPI PUSH1 0x4 DUP3 SWAP1 SHR SWAP2 POP PUSH1 0x4 DUP2 PUSH2 0x4397 SWAP2 SWAP1 PUSH2 0x66C7 JUMP JUMPDEST SWAP1 POP JUMPDEST PUSH1 0x4 DUP3 LT PUSH2 0x43B9 JUMPI PUSH1 0x2 DUP3 SWAP1 SHR SWAP2 POP PUSH1 0x2 DUP2 PUSH2 0x43B6 SWAP2 SWAP1 PUSH2 0x66C7 JUMP JUMPDEST SWAP1 POP JUMPDEST PUSH1 0x2 DUP3 LT PUSH2 0x43D1 JUMPI PUSH1 0x1 DUP2 PUSH2 0x43CE SWAP2 SWAP1 PUSH2 0x66C7 JUMP JUMPDEST SWAP1 POP JUMPDEST SWAP2 SWAP1 POP JUMP JUMPDEST PUSH0 DUP1 DUP3 GT PUSH2 0x43E2 JUMPI PUSH0 DUP1 REVERT JUMPDEST PUSH1 0xFF SWAP1 POP PUSH0 PUSH16 0xFFFFFFFFFFFFFFFFFFFFFFFFFFFFFFFF DUP1 AND DUP4 AND GT ISZERO PUSH2 0x4416 JUMPI PUSH1 0x80 DUP2 PUSH2 0x440F SWAP2 SWAP1 PUSH2 0x6125 JUMP JUMPDEST SWAP1 POP PUSH2 0x441E JUMP JUMPDEST PUSH1 0x80 DUP3 SWAP1 SHR SWAP2 POP JUMPDEST PUSH0 PUSH8 0xFFFFFFFFFFFFFFFF DUP1 AND DUP4 AND GT ISZERO PUSH2 0x4446 JUMPI PUSH1 0x40 DUP2 PUSH2 0x443F SWAP2 SWAP1 PUSH2 0x6125 JUMP JUMPDEST SWAP1 POP PUSH2 0x444E JUMP JUMPDEST PUSH1 0x40 DUP3 SWAP1 SHR SWAP2 POP JUMPDEST PUSH0 PUSH4 0xFFFFFFFF DUP1 AND DUP4 AND GT ISZERO PUSH2 0x4472 JUMPI PUSH1 0x20 DUP2 PUSH2 0x446B SWAP2 SWAP1 PUSH2 0x6125 JUMP JUMPDEST SWAP1 POP PUSH2 0x447A JUMP JUMPDEST PUSH1 0x20 DUP3 SWAP1 SHR SWAP2 POP JUMPDEST PUSH0 PUSH2 0xFFFF DUP1 AND DUP4 AND GT ISZERO PUSH2 0x449C JUMPI PUSH1 0x10 DUP2 PUSH2 0x4495 SWAP2 SWAP1 PUSH2 0x6125 JUMP JUMPDEST SWAP1 POP PUSH2 0x44A4 JUMP JUMPDEST PUSH1 0x10 DUP3 SWAP1 SHR SWAP2 POP JUMPDEST PUSH0 PUSH1 0xFF DUP1 AND DUP4 AND GT ISZERO PUSH2 0x44C5 JUMPI PUSH1 0x8 DUP2 PUSH2 0x44BE SWAP2 SWAP1 PUSH2 0x6125 JUMP JUMPDEST SWAP1 POP PUSH2 0x44CD JUMP JUMPDEST PUSH1 0x8 DUP3 SWAP1 SHR SWAP2 POP JUMPDEST PUSH0 PUSH1 0xF DUP4 AND GT ISZERO PUSH2 0x44EC JUMPI PUSH1 0x4 DUP2 PUSH2 0x44E5 SWAP2 SWAP1 PUSH2 0x6125 JUMP JUMPDEST SWAP1 POP PUSH2 0x44F4 JUMP JUMPDEST PUSH1 0x4 DUP3 SWAP1 SHR SWAP2 POP JUMPDEST PUSH0 PUSH1 0x3 DUP4 AND GT ISZERO PUSH2 0x4513 JUMPI PUSH1 0x2 DUP2 PUSH2 0x450C SWAP2 SWAP1 PUSH2 0x6125 JUMP JUMPDEST SWAP1 POP PUSH2 0x451B JUMP JUMPDEST PUSH1 0x2 DUP3 SWAP1 SHR SWAP2 POP JUMPDEST PUSH0 PUSH1 0x1 DUP4 AND GT ISZERO PUSH2 0x4536 JUMPI PUSH1 0x1 DUP2 PUSH2 0x4533 SWAP2 SWAP1 PUSH2 0x6125 JUMP JUMPDEST SWAP1 POP JUMPDEST SWAP2 SWAP1 POP JUMP JUMPDEST PUSH0 DUP4 PUSH20 0xFFFFFFFFFFFFFFFFFFFFFFFFFFFFFFFFFFFFFFFF AND DUP6 PUSH20 0xFFFFFFFFFFFFFFFFFFFFFFFFFFFFFFFFFFFFFFFF AND GT ISZERO PUSH2 0x457B JUMPI DUP4 DUP6 DUP1 SWAP6 POP DUP2 SWAP7 POP POP POP JUMPDEST DUP2 ISZERO PUSH2 0x45D3 JUMPI PUSH2 0x45CC DUP4 PUSH16 0xFFFFFFFFFFFFFFFFFFFFFFFFFFFFFFFF AND DUP7 DUP7 PUSH2 0x45A3 SWAP2 SWAP1 PUSH2 0x66FB JUMP JUMPDEST PUSH20 0xFFFFFFFFFFFFFFFFFFFFFFFFFFFFFFFFFFFFFFFF AND PUSH13 0x1000000000000000000000000 PUSH2 0x2985 JUMP JUMPDEST SWAP1 POP PUSH2 0x4621 JUMP JUMPDEST PUSH2 0x461E DUP4 PUSH16 0xFFFFFFFFFFFFFFFFFFFFFFFFFFFFFFFF AND DUP7 DUP7 PUSH2 0x45F5 SWAP2 SWAP1 PUSH2 0x66FB JUMP JUMPDEST PUSH20 0xFFFFFFFFFFFFFFFFFFFFFFFFFFFFFFFFFFFFFFFF AND PUSH13 0x1000000000000000000000000 PUSH2 0x3308 JUMP JUMPDEST SWAP1 POP JUMPDEST SWAP5 SWAP4 POP POP POP POP JUMP JUMPDEST PUSH0 DUP4 PUSH20 0xFFFFFFFFFFFFFFFFFFFFFFFFFFFFFFFFFFFFFFFF AND DUP6 PUSH20 0xFFFFFFFFFFFFFFFFFFFFFFFFFFFFFFFFFFFFFFFF AND GT ISZERO PUSH2 0x4669 JUMPI DUP4 DUP6 DUP1 SWAP6 POP DUP2 SWAP7 POP POP POP JUMPDEST PUSH0 DUP6 PUSH20 0xFFFFFFFFFFFFFFFFFFFFFFFFFFFFFFFFFFFFFFFF AND GT PUSH2 0x468A JUMPI PUSH0 DUP1 REVERT JUMPDEST PUSH0 PUSH1 0x60 PUSH1 0xFF AND DUP5 PUSH16 0xFFFFFFFFFFFFFFFFFFFFFFFFFFFFFFFF AND SWAP1 SHL SWAP1 POP PUSH0 DUP7 DUP7 PUSH2 0x46B4 SWAP2 SWAP1 PUSH2 0x66FB JUMP JUMPDEST PUSH20 0xFFFFFFFFFFFFFFFFFFFFFFFFFFFFFFFFFFFFFFFF AND SWAP1 POP DUP4 ISZERO PUSH2 0x4719 JUMPI PUSH2 0x4712 PUSH2 0x46F6 DUP4 DUP4 DUP10 PUSH20 0xFFFFFFFFFFFFFFFFFFFFFFFFFFFFFFFFFFFFFFFF AND PUSH2 0x2985 JUMP JUMPDEST DUP9 PUSH20 0xFFFFFFFFFFFFFFFFFFFFFFFFFFFFFFFFFFFFFFFF AND PUSH2 0x4A58 JUMP JUMPDEST SWAP3 POP PUSH2 0x475E JUMP JUMPDEST DUP7 PUSH20 0xFFFFFFFFFFFFFFFFFFFFFFFFFFFFFFFFFFFFFFFF AND PUSH2 0x4751 DUP4 DUP4 DUP10 PUSH20 0xFFFFFFFFFFFFFFFFFFFFFFFFFFFFFFFFFFFFFFFF AND PUSH2 0x3308 JUMP JUMPDEST PUSH2 0x475B SWAP2 SWAP1 PUSH2 0x626C JUMP JUMPDEST SWAP3 POP JUMPDEST POP POP SWAP5 SWAP4 POP POP POP POP JUMP JUMPDEST PUSH0 DUP2 PUSH2 0x477E JUMPI PUSH2 0x4779 DUP6 DUP6 DUP6 PUSH2 0x4A6A JUMP JUMPDEST PUSH2 0x478A JUMP JUMPDEST PUSH2 0x4789 DUP6 DUP6 DUP6 PUSH2 0x4ABF JUMP JUMPDEST JUMPDEST SWAP1 POP SWAP5 SWAP4 POP POP POP POP JUMP JUMPDEST PUSH2 0x479C PUSH2 0x4F0C JUMP JUMPDEST PUSH0 DUP5 PUSH0 ADD MLOAD DUP5 PUSH2 0x47AC SWAP2 SWAP1 PUSH2 0x6530 JUMP JUMPDEST PUSH4 0xFFFFFFFF AND SWAP1 POP PUSH1 0x40 MLOAD DUP1 PUSH1 0x60 ADD PUSH1 0x40 MSTORE DUP1 DUP6 PUSH4 0xFFFFFFFF AND DUP2 MSTORE PUSH1 0x20 ADD DUP3 DUP6 PUSH1 0x2 SIGNEXTEND PUSH2 0x47DA SWAP2 SWAP1 PUSH2 0x662D JUMP JUMPDEST DUP8 PUSH1 0x20 ADD MLOAD PUSH2 0x47E9 SWAP2 SWAP1 PUSH2 0x6669 JUMP JUMPDEST PUSH1 0x6 SIGNEXTEND DUP2 MSTORE PUSH1 0x20 ADD PUSH1 0x1 ISZERO ISZERO DUP2 MSTORE POP SWAP2 POP POP SWAP4 SWAP3 POP POP POP JUMP JUMPDEST PUSH2 0x480A PUSH2 0x4F0C JUMP JUMPDEST PUSH2 0x4812 PUSH2 0x4F0C JUMP JUMPDEST DUP8 DUP5 PUSH2 0xFFFF AND PUSH2 0xFFFF DUP2 LT PUSH2 0x482A JUMPI PUSH2 0x4829 PUSH2 0x5E7B JUMP JUMPDEST JUMPDEST ADD PUSH1 0x40 MLOAD DUP1 PUSH1 0x60 ADD PUSH1 0x40 MSTORE SWAP1 DUP2 PUSH0 DUP3 ADD PUSH0 SWAP1 SLOAD SWAP1 PUSH2 0x100 EXP SWAP1 DIV PUSH4 0xFFFFFFFF AND PUSH4 0xFFFFFFFF AND PUSH4 0xFFFFFFFF AND DUP2 MSTORE PUSH1 0x20 ADD PUSH0 DUP3 ADD PUSH1 0x4 SWAP1 SLOAD SWAP1 PUSH2 0x100 EXP SWAP1 DIV PUSH1 0x6 SIGNEXTEND PUSH1 0x6 SIGNEXTEND PUSH1 0x6 SIGNEXTEND DUP2 MSTORE PUSH1 0x20 ADD PUSH0 DUP3 ADD PUSH1 0xB SWAP1 SLOAD SWAP1 PUSH2 0x100 EXP SWAP1 DIV PUSH1 0xFF AND ISZERO ISZERO ISZERO ISZERO DUP2 MSTORE POP POP SWAP2 POP PUSH2 0x48A0 DUP8 DUP4 PUSH0 ADD MLOAD DUP9 PUSH2 0x4BAF JUMP JUMPDEST ISZERO PUSH2 0x48D1 JUMPI DUP6 PUSH4 0xFFFFFFFF AND DUP3 PUSH0 ADD MLOAD PUSH4 0xFFFFFFFF AND SUB ISZERO PUSH2 0x4A4D JUMPI DUP2 PUSH2 0x48C8 DUP4 DUP9 DUP9 PUSH2 0x4794 JUMP JUMPDEST SWAP2 POP SWAP2 POP PUSH2 0x4A4D JUMP JUMPDEST DUP8 DUP4 PUSH1 0x1 DUP7 PUSH2 0x48E0 SWAP2 SWAP1 PUSH2 0x64CB JUMP JUMPDEST PUSH2 0x48EA SWAP2 SWAP1 PUSH2 0x6500 JUMP JUMPDEST PUSH2 0xFFFF AND PUSH2 0xFFFF DUP2 LT PUSH2 0x4900 JUMPI PUSH2 0x48FF PUSH2 0x5E7B JUMP JUMPDEST JUMPDEST ADD PUSH1 0x40 MLOAD DUP1 PUSH1 0x60 ADD PUSH1 0x40 MSTORE SWAP1 DUP2 PUSH0 DUP3 ADD PUSH0 SWAP1 SLOAD SWAP1 PUSH2 0x100 EXP SWAP1 DIV PUSH4 0xFFFFFFFF AND PUSH4 0xFFFFFFFF AND PUSH4 0xFFFFFFFF AND DUP2 MSTORE PUSH1 0x20 ADD PUSH0 DUP3 ADD PUSH1 0x4 SWAP1 SLOAD SWAP1 PUSH2 0x100 EXP SWAP1 DIV PUSH1 0x6 SIGNEXTEND PUSH1 0x6 SIGNEXTEND PUSH1 0x6 SIGNEXTEND DUP2 MSTORE PUSH1 0x20 ADD PUSH0 DUP3 ADD PUSH1 0xB SWAP1 SLOAD SWAP1 PUSH2 0x100 EXP SWAP1 DIV PUSH1 0xFF AND ISZERO ISZERO ISZERO ISZERO DUP2 MSTORE POP POP SWAP2 POP DUP2 PUSH1 0x40 ADD MLOAD PUSH2 0x49EE JUMPI DUP8 PUSH0 PUSH2 0xFFFF DUP2 LT PUSH2 0x4985 JUMPI PUSH2 0x4984 PUSH2 0x5E7B JUMP JUMPDEST JUMPDEST ADD PUSH1 0x40 MLOAD DUP1 PUSH1 0x60 ADD PUSH1 0x40 MSTORE SWAP1 DUP2 PUSH0 DUP3 ADD PUSH0 SWAP1 SLOAD SWAP1 PUSH2 0x100 EXP SWAP1 DIV PUSH4 0xFFFFFFFF AND PUSH4 0xFFFFFFFF AND PUSH4 0xFFFFFFFF AND DUP2 MSTORE PUSH1 0x20 ADD PUSH0 DUP3 ADD PUSH1 0x4 SWAP1 SLOAD SWAP1 PUSH2 0x100 EXP SWAP1 DIV PUSH1 0x6 SIGNEXTEND PUSH1 0x6 SIGNEXTEND PUSH1 0x6 SIGNEXTEND DUP2 MSTORE PUSH1 0x20 ADD PUSH0 DUP3 ADD PUSH1 0xB SWAP1 SLOAD SWAP1 PUSH2 0x100 EXP SWAP1 DIV PUSH1 0xFF AND ISZERO ISZERO ISZERO ISZERO DUP2 MSTORE POP POP SWAP2 POP JUMPDEST PUSH2 0x49FC DUP8 DUP4 PUSH0 ADD MLOAD DUP9 PUSH2 0x4BAF JUMP JUMPDEST PUSH2 0x4A3B JUMPI PUSH1 0x40 MLOAD PUSH32 0x8C379A000000000000000000000000000000000000000000000000000000000 DUP2 MSTORE PUSH1 0x4 ADD PUSH2 0x4A32 SWAP1 PUSH2 0x678C JUMP JUMPDEST PUSH1 0x40 MLOAD DUP1 SWAP2 SUB SWAP1 REVERT JUMPDEST PUSH2 0x4A48 DUP9 DUP9 DUP9 DUP8 DUP8 PUSH2 0x4C86 JUMP JUMPDEST SWAP2 POP SWAP2 POP JUMPDEST SWAP7 POP SWAP7 SWAP5 POP POP POP POP POP JUMP JUMPDEST PUSH0 DUP1 DUP3 DUP5 MOD GT DUP3 DUP5 DIV ADD SWAP1 POP SWAP3 SWAP2 POP POP JUMP JUMPDEST PUSH0 PUSH2 0x4A95 DUP3 PUSH13 0x1000000000000000000000000 DUP6 PUSH16 0xFFFFFFFFFFFFFFFFFFFFFFFFFFFFFFFF AND PUSH2 0x3308 JUMP JUMPDEST DUP5 PUSH20 0xFFFFFFFFFFFFFFFFFFFFFFFFFFFFFFFFFFFFFFFF AND PUSH2 0x4AB6 SWAP2 SWAP1 PUSH2 0x5AA7 JUMP JUMPDEST SWAP1 POP SWAP4 SWAP3 POP POP POP JUMP JUMPDEST PUSH0 DUP1 PUSH1 0x60 PUSH1 0xFF AND DUP5 PUSH16 0xFFFFFFFFFFFFFFFFFFFFFFFFFFFFFFFF AND SWAP1 SHL SWAP1 POP PUSH0 DUP6 PUSH20 0xFFFFFFFFFFFFFFFFFFFFFFFFFFFFFFFFFFFFFFFF AND DUP5 PUSH2 0x4B00 SWAP2 SWAP1 PUSH2 0x622B JUMP JUMPDEST SWAP1 POP DUP6 PUSH20 0xFFFFFFFFFFFFFFFFFFFFFFFFFFFFFFFFFFFFFFFF AND DUP5 DUP3 PUSH2 0x4B25 SWAP2 SWAP1 PUSH2 0x626C JUMP JUMPDEST SUB PUSH2 0x4B6D JUMPI PUSH0 DUP2 DUP4 PUSH2 0x4B37 SWAP2 SWAP1 PUSH2 0x5AA7 JUMP JUMPDEST SWAP1 POP DUP3 DUP2 LT PUSH2 0x4B6B JUMPI PUSH2 0x4B61 DUP4 DUP9 PUSH20 0xFFFFFFFFFFFFFFFFFFFFFFFFFFFFFFFFFFFFFFFF AND DUP4 PUSH2 0x2985 JUMP JUMPDEST SWAP4 POP POP POP POP PUSH2 0x4BA8 JUMP JUMPDEST POP JUMPDEST PUSH2 0x4BA3 DUP3 DUP6 DUP9 PUSH20 0xFFFFFFFFFFFFFFFFFFFFFFFFFFFFFFFFFFFFFFFF AND DUP6 PUSH2 0x4B94 SWAP2 SWAP1 PUSH2 0x626C JUMP JUMPDEST PUSH2 0x4B9E SWAP2 SWAP1 PUSH2 0x5AA7 JUMP JUMPDEST PUSH2 0x4A58 JUMP JUMPDEST SWAP3 POP POP POP JUMPDEST SWAP4 SWAP3 POP POP POP JUMP JUMPDEST PUSH0 DUP4 PUSH4 0xFFFFFFFF AND DUP4 PUSH4 0xFFFFFFFF AND GT ISZERO DUP1 ISZERO PUSH2 0x4BD8 JUMPI POP DUP4 PUSH4 0xFFFFFFFF AND DUP3 PUSH4 0xFFFFFFFF AND GT ISZERO JUMPDEST ISZERO PUSH2 0x4BF4 JUMPI DUP2 PUSH4 0xFFFFFFFF AND DUP4 PUSH4 0xFFFFFFFF AND GT ISZERO SWAP1 POP PUSH2 0x4C7F JUMP JUMPDEST PUSH0 DUP5 PUSH4 0xFFFFFFFF AND DUP5 PUSH4 0xFFFFFFFF AND GT PUSH2 0x4C24 JUMPI PUSH5 0x100000000 DUP5 PUSH4 0xFFFFFFFF AND PUSH2 0x4C1F SWAP2 SWAP1 PUSH2 0x67BA JUMP JUMPDEST PUSH2 0x4C2C JUMP JUMPDEST DUP4 PUSH4 0xFFFFFFFF AND JUMPDEST PUSH5 0xFFFFFFFFFF AND SWAP1 POP PUSH0 DUP6 PUSH4 0xFFFFFFFF AND DUP5 PUSH4 0xFFFFFFFF AND GT PUSH2 0x4C65 JUMPI PUSH5 0x100000000 DUP5 PUSH4 0xFFFFFFFF AND PUSH2 0x4C60 SWAP2 SWAP1 PUSH2 0x67BA JUMP JUMPDEST PUSH2 0x4C6D JUMP JUMPDEST DUP4 PUSH4 0xFFFFFFFF AND JUMPDEST PUSH5 0xFFFFFFFFFF AND SWAP1 POP DUP1 DUP3 GT ISZERO SWAP3 POP POP POP JUMPDEST SWAP4 SWAP3 POP POP POP JUMP JUMPDEST PUSH2 0x4C8E PUSH2 0x4F0C JUMP JUMPDEST PUSH2 0x4C96 PUSH2 0x4F0C JUMP JUMPDEST PUSH0 DUP4 PUSH1 0x1 DUP7 PUSH2 0x4CA5 SWAP2 SWAP1 PUSH2 0x64CB JUMP JUMPDEST PUSH2 0x4CAF SWAP2 SWAP1 PUSH2 0x6500 JUMP JUMPDEST PUSH2 0xFFFF AND SWAP1 POP PUSH0 PUSH1 0x1 DUP6 PUSH2 0xFFFF AND DUP4 PUSH2 0x4CC8 SWAP2 SWAP1 PUSH2 0x5AA7 JUMP JUMPDEST PUSH2 0x4CD2 SWAP2 SWAP1 PUSH2 0x5D5F JUMP JUMPDEST SWAP1 POP PUSH0 JUMPDEST PUSH1 0x1 ISZERO PUSH2 0x4E98 JUMPI PUSH1 0x2 DUP3 DUP5 PUSH2 0x4CEB SWAP2 SWAP1 PUSH2 0x5AA7 JUMP JUMPDEST PUSH2 0x4CF5 SWAP2 SWAP1 PUSH2 0x626C JUMP JUMPDEST SWAP1 POP DUP10 DUP7 PUSH2 0xFFFF AND DUP3 PUSH2 0x4D08 SWAP2 SWAP1 PUSH2 0x629C JUMP JUMPDEST PUSH2 0xFFFF DUP2 LT PUSH2 0x4D1A JUMPI PUSH2 0x4D19 PUSH2 0x5E7B JUMP JUMPDEST JUMPDEST ADD PUSH1 0x40 MLOAD DUP1 PUSH1 0x60 ADD PUSH1 0x40 MSTORE SWAP1 DUP2 PUSH0 DUP3 ADD PUSH0 SWAP1 SLOAD SWAP1 PUSH2 0x100 EXP SWAP1 DIV PUSH4 0xFFFFFFFF AND PUSH4 0xFFFFFFFF AND PUSH4 0xFFFFFFFF AND DUP2 MSTORE PUSH1 0x20 ADD PUSH0 DUP3 ADD PUSH1 0x4 SWAP1 SLOAD SWAP1 PUSH2 0x100 EXP SWAP1 DIV PUSH1 0x6 SIGNEXTEND PUSH1 0x6 SIGNEXTEND PUSH1 0x6 SIGNEXTEND DUP2 MSTORE PUSH1 0x20 ADD PUSH0 DUP3 ADD PUSH1 0xB SWAP1 SLOAD SWAP1 PUSH2 0x100 EXP SWAP1 DIV PUSH1 0xFF AND ISZERO ISZERO ISZERO ISZERO DUP2 MSTORE POP POP SWAP5 POP DUP5 PUSH1 0x40 ADD MLOAD PUSH2 0x4D9F JUMPI PUSH1 0x1 DUP2 PUSH2 0x4D98 SWAP2 SWAP1 PUSH2 0x5AA7 JUMP JUMPDEST SWAP3 POP PUSH2 0x4CD6 JUMP JUMPDEST DUP10 DUP7 PUSH2 0xFFFF AND PUSH1 0x1 DUP4 PUSH2 0x4DB2 SWAP2 SWAP1 PUSH2 0x5AA7 JUMP JUMPDEST PUSH2 0x4DBC SWAP2 SWAP1 PUSH2 0x629C JUMP JUMPDEST PUSH2 0xFFFF DUP2 LT PUSH2 0x4DCE JUMPI PUSH2 0x4DCD PUSH2 0x5E7B JUMP JUMPDEST JUMPDEST ADD PUSH1 0x40 MLOAD DUP1 PUSH1 0x60 ADD PUSH1 0x40 MSTORE SWAP1 DUP2 PUSH0 DUP3 ADD PUSH0 SWAP1 SLOAD SWAP1 PUSH2 0x100 EXP SWAP1 DIV PUSH4 0xFFFFFFFF AND PUSH4 0xFFFFFFFF AND PUSH4 0xFFFFFFFF AND DUP2 MSTORE PUSH1 0x20 ADD PUSH0 DUP3 ADD PUSH1 0x4 SWAP1 SLOAD SWAP1 PUSH2 0x100 EXP SWAP1 DIV PUSH1 0x6 SIGNEXTEND PUSH1 0x6 SIGNEXTEND PUSH1 0x6 SIGNEXTEND DUP2 MSTORE PUSH1 0x20 ADD PUSH0 DUP3 ADD PUSH1 0xB SWAP1 SLOAD SWAP1 PUSH2 0x100 EXP SWAP1 DIV PUSH1 0xFF AND ISZERO ISZERO ISZERO ISZERO DUP2 MSTORE POP POP SWAP4 POP PUSH0 PUSH2 0x4E45 DUP11 DUP8 PUSH0 ADD MLOAD DUP12 PUSH2 0x4BAF JUMP JUMPDEST SWAP1 POP DUP1 DUP1 ISZERO PUSH2 0x4E5E JUMPI POP PUSH2 0x4E5D DUP11 DUP11 DUP8 PUSH0 ADD MLOAD PUSH2 0x4BAF JUMP JUMPDEST JUMPDEST ISZERO PUSH2 0x4E69 JUMPI POP PUSH2 0x4E98 JUMP JUMPDEST DUP1 PUSH2 0x4E82 JUMPI PUSH1 0x1 DUP3 PUSH2 0x4E7B SWAP2 SWAP1 PUSH2 0x5D5F JUMP JUMPDEST SWAP3 POP PUSH2 0x4E92 JUMP JUMPDEST PUSH1 0x1 DUP3 PUSH2 0x4E8F SWAP2 SWAP1 PUSH2 0x5AA7 JUMP JUMPDEST SWAP4 POP JUMPDEST POP PUSH2 0x4CD6 JUMP JUMPDEST POP POP POP SWAP6 POP SWAP6 SWAP4 POP POP POP POP JUMP JUMPDEST PUSH1 0x40 MLOAD DUP1 PUSH1 0xE0 ADD PUSH1 0x40 MSTORE DUP1 PUSH0 PUSH20 0xFFFFFFFFFFFFFFFFFFFFFFFFFFFFFFFFFFFFFFFF AND DUP2 MSTORE PUSH1 0x20 ADD PUSH0 PUSH1 0x2 SIGNEXTEND DUP2 MSTORE PUSH1 0x20 ADD PUSH0 ISZERO ISZERO DUP2 MSTORE PUSH1 0x20 ADD PUSH0 PUSH20 0xFFFFFFFFFFFFFFFFFFFFFFFFFFFFFFFFFFFFFFFF AND DUP2 MSTORE PUSH1 0x20 ADD PUSH0 DUP2 MSTORE PUSH1 0x20 ADD PUSH0 DUP2 MSTORE PUSH1 0x20 ADD PUSH0 DUP2 MSTORE POP SWAP1 JUMP JUMPDEST PUSH1 0x40 MLOAD DUP1 PUSH1 0x60 ADD PUSH1 0x40 MSTORE DUP1 PUSH0 PUSH4 0xFFFFFFFF AND DUP2 MSTORE PUSH1 0x20 ADD PUSH0 PUSH1 0x6 SIGNEXTEND DUP2 MSTORE PUSH1 0x20 ADD PUSH0 ISZERO ISZERO DUP2 MSTORE POP SWAP1 JUMP JUMPDEST PUSH0 PUSH20 0xFFFFFFFFFFFFFFFFFFFFFFFFFFFFFFFFFFFFFFFF DUP3 AND SWAP1 POP SWAP2 SWAP1 POP JUMP JUMPDEST PUSH0 PUSH2 0x4F5E DUP3 PUSH2 0x4F35 JUMP JUMPDEST SWAP1 POP SWAP2 SWAP1 POP JUMP JUMPDEST PUSH2 0x4F6E DUP2 PUSH2 0x4F54 JUMP JUMPDEST DUP3 MSTORE POP POP JUMP JUMPDEST PUSH0 PUSH1 0x20 DUP3 ADD SWAP1 POP PUSH2 0x4F87 PUSH0 DUP4 ADD DUP5 PUSH2 0x4F65 JUMP JUMPDEST SWAP3 SWAP2 POP POP JUMP JUMPDEST PUSH0 PUSH16 0xFFFFFFFFFFFFFFFFFFFFFFFFFFFFFFFF DUP3 AND SWAP1 POP SWAP2 SWAP1 POP JUMP JUMPDEST PUSH2 0x4FB1 DUP2 PUSH2 0x4F8D JUMP JUMPDEST DUP3 MSTORE POP POP JUMP JUMPDEST PUSH0 PUSH1 0x20 DUP3 ADD SWAP1 POP PUSH2 0x4FCA PUSH0 DUP4 ADD DUP5 PUSH2 0x4FA8 JUMP JUMPDEST SWAP3 SWAP2 POP POP JUMP JUMPDEST PUSH0 DUP1 REVERT JUMPDEST PUSH0 DUP1 REVERT JUMPDEST PUSH0 DUP2 SWAP1 POP SWAP2 SWAP1 POP JUMP JUMPDEST PUSH2 0x4FEA DUP2 PUSH2 0x4FD8 JUMP JUMPDEST DUP2 EQ PUSH2 0x4FF4 JUMPI PUSH0 DUP1 REVERT JUMPDEST POP JUMP JUMPDEST PUSH0 DUP2 CALLDATALOAD SWAP1 POP PUSH2 0x5005 DUP2 PUSH2 0x4FE1 JUMP JUMPDEST SWAP3 SWAP2 POP POP JUMP JUMPDEST PUSH0 PUSH1 0x20 DUP3 DUP5 SUB SLT ISZERO PUSH2 0x5020 JUMPI PUSH2 0x501F PUSH2 0x4FD0 JUMP JUMPDEST JUMPDEST PUSH0 PUSH2 0x502D DUP5 DUP3 DUP6 ADD PUSH2 0x4FF7 JUMP JUMPDEST SWAP2 POP POP SWAP3 SWAP2 POP POP JUMP JUMPDEST PUSH0 PUSH4 0xFFFFFFFF DUP3 AND SWAP1 POP SWAP2 SWAP1 POP JUMP JUMPDEST PUSH2 0x504E DUP2 PUSH2 0x5036 JUMP JUMPDEST DUP3 MSTORE POP POP JUMP JUMPDEST PUSH0 DUP2 PUSH1 0x6 SIGNEXTEND SWAP1 POP SWAP2 SWAP1 POP JUMP JUMPDEST PUSH2 0x5069 DUP2 PUSH2 0x5054 JUMP JUMPDEST DUP3 MSTORE POP POP JUMP JUMPDEST PUSH0 DUP2 ISZERO ISZERO SWAP1 POP SWAP2 SWAP1 POP JUMP JUMPDEST PUSH2 0x5083 DUP2 PUSH2 0x506F JUMP JUMPDEST DUP3 MSTORE POP POP JUMP JUMPDEST PUSH0 PUSH1 0x60 DUP3 ADD SWAP1 POP PUSH2 0x509C PUSH0 DUP4 ADD DUP7 PUSH2 0x5045 JUMP JUMPDEST PUSH2 0x50A9 PUSH1 0x20 DUP4 ADD DUP6 PUSH2 0x5060 JUMP JUMPDEST PUSH2 0x50B6 PUSH1 0x40 DUP4 ADD DUP5 PUSH2 0x507A JUMP JUMPDEST SWAP5 SWAP4 POP POP POP POP JUMP JUMPDEST PUSH0 PUSH2 0xFFFF DUP3 AND SWAP1 POP SWAP2 SWAP1 POP JUMP JUMPDEST PUSH2 0x50D4 DUP2 PUSH2 0x50BE JUMP JUMPDEST DUP2 EQ PUSH2 0x50DE JUMPI PUSH0 DUP1 REVERT JUMPDEST POP JUMP JUMPDEST PUSH0 DUP2 CALLDATALOAD SWAP1 POP PUSH2 0x50EF DUP2 PUSH2 0x50CB JUMP JUMPDEST SWAP3 SWAP2 POP POP JUMP JUMPDEST PUSH0 PUSH1 0x20 DUP3 DUP5 SUB SLT ISZERO PUSH2 0x510A JUMPI PUSH2 0x5109 PUSH2 0x4FD0 JUMP JUMPDEST JUMPDEST PUSH0 PUSH2 0x5117 DUP5 DUP3 DUP6 ADD PUSH2 0x50E1 JUMP JUMPDEST SWAP2 POP POP SWAP3 SWAP2 POP POP JUMP JUMPDEST PUSH2 0x5129 DUP2 PUSH2 0x4F35 JUMP JUMPDEST DUP3 MSTORE POP POP JUMP JUMPDEST PUSH0 DUP2 PUSH1 0x2 SIGNEXTEND SWAP1 POP SWAP2 SWAP1 POP JUMP JUMPDEST PUSH2 0x5144 DUP2 PUSH2 0x512F JUMP JUMPDEST DUP3 MSTORE POP POP JUMP JUMPDEST PUSH2 0x5153 DUP2 PUSH2 0x50BE JUMP JUMPDEST DUP3 MSTORE POP POP JUMP JUMPDEST PUSH0 PUSH1 0xA0 DUP3 ADD SWAP1 POP PUSH2 0x516C PUSH0 DUP4 ADD DUP9 PUSH2 0x5120 JUMP JUMPDEST PUSH2 0x5179 PUSH1 0x20 DUP4 ADD DUP8 PUSH2 0x513B JUMP JUMPDEST PUSH2 0x5186 PUSH1 0x40 DUP4 ADD DUP7 PUSH2 0x514A JUMP JUMPDEST PUSH2 0x5193 PUSH1 0x60 DUP4 ADD DUP6 PUSH2 0x514A JUMP JUMPDEST PUSH2 0x51A0 PUSH1 0x80 DUP4 ADD DUP5 PUSH2 0x514A JUMP JUMPDEST SWAP7 SWAP6 POP POP POP POP POP POP JUMP JUMPDEST PUSH2 0x51B3 DUP2 PUSH2 0x4F54 JUMP JUMPDEST DUP2 EQ PUSH2 0x51BD JUMPI PUSH0 DUP1 REVERT JUMPDEST POP JUMP JUMPDEST PUSH0 DUP2 CALLDATALOAD SWAP1 POP PUSH2 0x51CE DUP2 PUSH2 0x51AA JUMP JUMPDEST SWAP3 SWAP2 POP POP JUMP JUMPDEST PUSH2 0x51DD DUP2 PUSH2 0x512F JUMP JUMPDEST DUP2 EQ PUSH2 0x51E7 JUMPI PUSH0 DUP1 REVERT JUMPDEST POP JUMP JUMPDEST PUSH0 DUP2 CALLDATALOAD SWAP1 POP PUSH2 0x51F8 DUP2 PUSH2 0x51D4 JUMP JUMPDEST SWAP3 SWAP2 POP POP JUMP JUMPDEST PUSH2 0x5207 DUP2 PUSH2 0x4F8D JUMP JUMPDEST DUP2 EQ PUSH2 0x5211 JUMPI PUSH0 DUP1 REVERT JUMPDEST POP JUMP JUMPDEST PUSH0 DUP2 CALLDATALOAD SWAP1 POP PUSH2 0x5222 DUP2 PUSH2 0x51FE JUMP JUMPDEST SWAP3 SWAP2 POP POP JUMP JUMPDEST PUSH0 DUP1 REVERT JUMPDEST PUSH0 DUP1 REVERT JUMPDEST PUSH0 DUP1 REVERT JUMPDEST PUSH0 DUP1 DUP4 PUSH1 0x1F DUP5 ADD SLT PUSH2 0x5249 JUMPI PUSH2 0x5248 PUSH2 0x5228 JUMP JUMPDEST JUMPDEST DUP3 CALLDATALOAD SWAP1 POP PUSH8 0xFFFFFFFFFFFFFFFF DUP2 GT ISZERO PUSH2 0x5266 JUMPI PUSH2 0x5265 PUSH2 0x522C JUMP JUMPDEST JUMPDEST PUSH1 0x20 DUP4 ADD SWAP2 POP DUP4 PUSH1 0x1 DUP3 MUL DUP4 ADD GT ISZERO PUSH2 0x5282 JUMPI PUSH2 0x5281 PUSH2 0x5230 JUMP JUMPDEST JUMPDEST SWAP3 POP SWAP3 SWAP1 POP JUMP JUMPDEST PUSH0 DUP1 PUSH0 DUP1 PUSH0 DUP1 PUSH1 0xA0 DUP8 DUP10 SUB SLT ISZERO PUSH2 0x52A3 JUMPI PUSH2 0x52A2 PUSH2 0x4FD0 JUMP JUMPDEST JUMPDEST PUSH0 PUSH2 0x52B0 DUP10 DUP3 DUP11 ADD PUSH2 0x51C0 JUMP JUMPDEST SWAP7 POP POP PUSH1 0x20 PUSH2 0x52C1 DUP10 DUP3 DUP11 ADD PUSH2 0x51EA JUMP JUMPDEST SWAP6 POP POP PUSH1 0x40 PUSH2 0x52D2 DUP10 DUP3 DUP11 ADD PUSH2 0x51EA JUMP JUMPDEST SWAP5 POP POP PUSH1 0x60 PUSH2 0x52E3 DUP10 DUP3 DUP11 ADD PUSH2 0x5214 JUMP JUMPDEST SWAP4 POP POP PUSH1 0x80 DUP8 ADD CALLDATALOAD PUSH8 0xFFFFFFFFFFFFFFFF DUP2 GT ISZERO PUSH2 0x5304 JUMPI PUSH2 0x5303 PUSH2 0x4FD4 JUMP JUMPDEST JUMPDEST PUSH2 0x5310 DUP10 DUP3 DUP11 ADD PUSH2 0x5234 JUMP JUMPDEST SWAP3 POP SWAP3 POP POP SWAP3 SWAP6 POP SWAP3 SWAP6 POP SWAP3 SWAP6 JUMP JUMPDEST PUSH2 0x5328 DUP2 PUSH2 0x4FD8 JUMP JUMPDEST DUP3 MSTORE POP POP JUMP JUMPDEST PUSH0 PUSH1 0x40 DUP3 ADD SWAP1 POP PUSH2 0x5341 PUSH0 DUP4 ADD DUP6 PUSH2 0x531F JUMP JUMPDEST PUSH2 0x534E PUSH1 0x20 DUP4 ADD DUP5 PUSH2 0x531F JUMP JUMPDEST SWAP4 SWAP3 POP POP POP JUMP JUMPDEST PUSH0 PUSH1 0x20 DUP3 ADD SWAP1 POP PUSH2 0x5368 PUSH0 DUP4 ADD DUP5 PUSH2 0x531F JUMP JUMPDEST SWAP3 SWAP2 POP POP JUMP JUMPDEST PUSH0 DUP1 PUSH0 DUP1 PUSH1 0x60 DUP6 DUP8 SUB SLT ISZERO PUSH2 0x5386 JUMPI PUSH2 0x5385 PUSH2 0x4FD0 JUMP JUMPDEST JUMPDEST PUSH0 PUSH2 0x5393 DUP8 DUP3 DUP9 ADD PUSH2 0x4FF7 JUMP JUMPDEST SWAP5 POP POP PUSH1 0x20 PUSH2 0x53A4 DUP8 DUP3 DUP9 ADD PUSH2 0x4FF7 JUMP JUMPDEST SWAP4 POP POP PUSH1 0x40 DUP6 ADD CALLDATALOAD PUSH8 0xFFFFFFFFFFFFFFFF DUP2 GT ISZERO PUSH2 0x53C5 JUMPI PUSH2 0x53C4 PUSH2 0x4FD4 JUMP JUMPDEST JUMPDEST PUSH2 0x53D1 DUP8 DUP3 DUP9 ADD PUSH2 0x5234 JUMP JUMPDEST SWAP3 POP SWAP3 POP POP SWAP3 SWAP6 SWAP2 SWAP5 POP SWAP3 POP JUMP JUMPDEST PUSH0 DUP1 PUSH0 DUP1 PUSH0 PUSH1 0xA0 DUP7 DUP9 SUB SLT ISZERO PUSH2 0x53F8 JUMPI PUSH2 0x53F7 PUSH2 0x4FD0 JUMP JUMPDEST JUMPDEST PUSH0 PUSH2 0x5405 DUP9 DUP3 DUP10 ADD PUSH2 0x51C0 JUMP JUMPDEST SWAP6 POP POP PUSH1 0x20 PUSH2 0x5416 DUP9 DUP3 DUP10 ADD PUSH2 0x51EA JUMP JUMPDEST SWAP5 POP POP PUSH1 0x40 PUSH2 0x5427 DUP9 DUP3 DUP10 ADD PUSH2 0x51EA JUMP JUMPDEST SWAP4 POP POP PUSH1 0x60 PUSH2 0x5438 DUP9 DUP3 DUP10 ADD PUSH2 0x5214 JUMP JUMPDEST SWAP3 POP POP PUSH1 0x80 PUSH2 0x5449 DUP9 DUP3 DUP10 ADD PUSH2 0x5214 JUMP JUMPDEST SWAP2 POP POP SWAP3 SWAP6 POP SWAP3 SWAP6 SWAP1 SWAP4 POP JUMP JUMPDEST PUSH0 PUSH1 0x40 DUP3 ADD SWAP1 POP PUSH2 0x5469 PUSH0 DUP4 ADD DUP6 PUSH2 0x4FA8 JUMP JUMPDEST PUSH2 0x5476 PUSH1 0x20 DUP4 ADD DUP5 PUSH2 0x4FA8 JUMP JUMPDEST SWAP4 SWAP3 POP POP POP JUMP JUMPDEST PUSH0 DUP2 SWAP1 POP SWAP2 SWAP1 POP JUMP JUMPDEST PUSH2 0x548F DUP2 PUSH2 0x547D JUMP JUMPDEST DUP2 EQ PUSH2 0x5499 JUMPI PUSH0 DUP1 REVERT JUMPDEST POP JUMP JUMPDEST PUSH0 DUP2 CALLDATALOAD SWAP1 POP PUSH2 0x54AA DUP2 PUSH2 0x5486 JUMP JUMPDEST SWAP3 SWAP2 POP POP JUMP JUMPDEST PUSH0 PUSH1 0x20 DUP3 DUP5 SUB SLT ISZERO PUSH2 0x54C5 JUMPI PUSH2 0x54C4 PUSH2 0x4FD0 JUMP JUMPDEST JUMPDEST PUSH0 PUSH2 0x54D2 DUP5 DUP3 DUP6 ADD PUSH2 0x549C JUMP JUMPDEST SWAP2 POP POP SWAP3 SWAP2 POP POP JUMP JUMPDEST PUSH0 PUSH1 0xA0 DUP3 ADD SWAP1 POP PUSH2 0x54EE PUSH0 DUP4 ADD DUP9 PUSH2 0x4FA8 JUMP JUMPDEST PUSH2 0x54FB PUSH1 0x20 DUP4 ADD DUP8 PUSH2 0x531F JUMP JUMPDEST PUSH2 0x5508 PUSH1 0x40 DUP4 ADD DUP7 PUSH2 0x531F JUMP JUMPDEST PUSH2 0x5515 PUSH1 0x60 DUP4 ADD DUP6 PUSH2 0x4FA8 JUMP JUMPDEST PUSH2 0x5522 PUSH1 0x80 DUP4 ADD DUP5 PUSH2 0x4FA8 JUMP JUMPDEST SWAP7 SWAP6 POP POP POP POP POP POP JUMP JUMPDEST PUSH0 DUP2 PUSH1 0x1 SIGNEXTEND SWAP1 POP SWAP2 SWAP1 POP JUMP JUMPDEST PUSH2 0x5541 DUP2 PUSH2 0x552C JUMP JUMPDEST DUP2 EQ PUSH2 0x554B JUMPI PUSH0 DUP1 REVERT JUMPDEST POP JUMP JUMPDEST PUSH0 DUP2 CALLDATALOAD SWAP1 POP PUSH2 0x555C DUP2 PUSH2 0x5538 JUMP JUMPDEST SWAP3 SWAP2 POP POP JUMP JUMPDEST PUSH0 PUSH1 0x20 DUP3 DUP5 SUB SLT ISZERO PUSH2 0x5577 JUMPI PUSH2 0x5576 PUSH2 0x4FD0 JUMP JUMPDEST JUMPDEST PUSH0 PUSH2 0x5584 DUP5 DUP3 DUP6 ADD PUSH2 0x554E JUMP JUMPDEST SWAP2 POP POP SWAP3 SWAP2 POP POP JUMP JUMPDEST PUSH0 DUP1 DUP4 PUSH1 0x1F DUP5 ADD SLT PUSH2 0x55A2 JUMPI PUSH2 0x55A1 PUSH2 0x5228 JUMP JUMPDEST JUMPDEST DUP3 CALLDATALOAD SWAP1 POP PUSH8 0xFFFFFFFFFFFFFFFF DUP2 GT ISZERO PUSH2 0x55BF JUMPI PUSH2 0x55BE PUSH2 0x522C JUMP JUMPDEST JUMPDEST PUSH1 0x20 DUP4 ADD SWAP2 POP DUP4 PUSH1 0x20 DUP3 MUL DUP4 ADD GT ISZERO PUSH2 0x55DB JUMPI PUSH2 0x55DA PUSH2 0x5230 JUMP JUMPDEST JUMPDEST SWAP3 POP SWAP3 SWAP1 POP JUMP JUMPDEST PUSH0 DUP1 PUSH1 0x20 DUP4 DUP6 SUB SLT ISZERO PUSH2 0x55F8 JUMPI PUSH2 0x55F7 PUSH2 0x4FD0 JUMP JUMPDEST JUMPDEST PUSH0 DUP4 ADD CALLDATALOAD PUSH8 0xFFFFFFFFFFFFFFFF DUP2 GT ISZERO PUSH2 0x5615 JUMPI PUSH2 0x5614 PUSH2 0x4FD4 JUMP JUMPDEST JUMPDEST PUSH2 0x5621 DUP6 DUP3 DUP7 ADD PUSH2 0x558D JUMP JUMPDEST SWAP3 POP SWAP3 POP POP SWAP3 POP SWAP3 SWAP1 POP JUMP JUMPDEST PUSH0 DUP2 MLOAD SWAP1 POP SWAP2 SWAP1 POP JUMP JUMPDEST PUSH0 DUP3 DUP3 MSTORE PUSH1 0x20 DUP3 ADD SWAP1 POP SWAP3 SWAP2 POP POP JUMP JUMPDEST PUSH0 DUP2 SWAP1 POP PUSH1 0x20 DUP3 ADD SWAP1 POP SWAP2 SWAP1 POP JUMP JUMPDEST PUSH2 0x565F DUP2 PUSH2 0x5054 JUMP JUMPDEST DUP3 MSTORE POP POP JUMP JUMPDEST PUSH0 PUSH2 0x5670 DUP4 DUP4 PUSH2 0x5656 JUMP JUMPDEST PUSH1 0x20 DUP4 ADD SWAP1 POP SWAP3 SWAP2 POP POP JUMP JUMPDEST PUSH0 PUSH1 0x20 DUP3 ADD SWAP1 POP SWAP2 SWAP1 POP JUMP JUMPDEST PUSH0 PUSH2 0x5692 DUP3 PUSH2 0x562D JUMP JUMPDEST PUSH2 0x569C DUP2 DUP6 PUSH2 0x5637 JUMP JUMPDEST SWAP4 POP PUSH2 0x56A7 DUP4 PUSH2 0x5647 JUMP JUMPDEST DUP1 PUSH0 JUMPDEST DUP4 DUP2 LT ISZERO PUSH2 0x56D7 JUMPI DUP2 MLOAD PUSH2 0x56BE DUP9 DUP3 PUSH2 0x5665 JUMP JUMPDEST SWAP8 POP PUSH2 0x56C9 DUP4 PUSH2 0x567C JUMP JUMPDEST SWAP3 POP POP PUSH1 0x1 DUP2 ADD SWAP1 POP PUSH2 0x56AA JUMP JUMPDEST POP DUP6 SWAP4 POP POP POP POP SWAP3 SWAP2 POP POP JUMP JUMPDEST PUSH0 PUSH1 0x20 DUP3 ADD SWAP1 POP DUP2 DUP2 SUB PUSH0 DUP4 ADD MSTORE PUSH2 0x56FC DUP2 DUP5 PUSH2 0x5688 JUMP JUMPDEST SWAP1 POP SWAP3 SWAP2 POP POP JUMP JUMPDEST PUSH0 DUP1 PUSH0 PUSH1 0x60 DUP5 DUP7 SUB SLT ISZERO PUSH2 0x571B JUMPI PUSH2 0x571A PUSH2 0x4FD0 JUMP JUMPDEST JUMPDEST PUSH0 PUSH2 0x5728 DUP7 DUP3 DUP8 ADD PUSH2 0x51EA JUMP JUMPDEST SWAP4 POP POP PUSH1 0x20 PUSH2 0x5739 DUP7 DUP3 DUP8 ADD PUSH2 0x51EA JUMP JUMPDEST SWAP3 POP POP PUSH1 0x40 PUSH2 0x574A DUP7 DUP3 DUP8 ADD PUSH2 0x5214 JUMP JUMPDEST SWAP2 POP POP SWAP3 POP SWAP3 POP SWAP3 JUMP JUMPDEST PUSH0 PUSH3 0xFFFFFF DUP3 AND SWAP1 POP SWAP2 SWAP1 POP JUMP JUMPDEST PUSH2 0x576B DUP2 PUSH2 0x5754 JUMP JUMPDEST DUP3 MSTORE POP POP JUMP JUMPDEST PUSH0 PUSH1 0x20 DUP3 ADD SWAP1 POP PUSH2 0x5784 PUSH0 DUP4 ADD DUP5 PUSH2 0x5762 JUMP JUMPDEST SWAP3 SWAP2 POP POP JUMP JUMPDEST PUSH2 0x5793 DUP2 PUSH2 0x506F JUMP JUMPDEST DUP2 EQ PUSH2 0x579D JUMPI PUSH0 DUP1 REVERT JUMPDEST POP JUMP JUMPDEST PUSH0 DUP2 CALLDATALOAD SWAP1 POP PUSH2 0x57AE DUP2 PUSH2 0x578A JUMP JUMPDEST SWAP3 SWAP2 POP POP JUMP JUMPDEST PUSH2 0x57BD DUP2 PUSH2 0x4F35 JUMP JUMPDEST DUP2 EQ PUSH2 0x57C7 JUMPI PUSH0 DUP1 REVERT JUMPDEST POP JUMP JUMPDEST PUSH0 DUP2 CALLDATALOAD SWAP1 POP PUSH2 0x57D8 DUP2 PUSH2 0x57B4 JUMP JUMPDEST SWAP3 SWAP2 POP POP JUMP JUMPDEST PUSH0 DUP1 PUSH0 DUP1 PUSH0 DUP1 PUSH1 0xA0 DUP8 DUP10 SUB SLT ISZERO PUSH2 0x57F8 JUMPI PUSH2 0x57F7 PUSH2 0x4FD0 JUMP JUMPDEST JUMPDEST PUSH0 PUSH2 0x5805 DUP10 DUP3 DUP11 ADD PUSH2 0x51C0 JUMP JUMPDEST SWAP7 POP POP PUSH1 0x20 PUSH2 0x5816 DUP10 DUP3 DUP11 ADD PUSH2 0x57A0 JUMP JUMPDEST SWAP6 POP POP PUSH1 0x40 PUSH2 0x5827 DUP10 DUP3 DUP11 ADD PUSH2 0x4FF7 JUMP JUMPDEST SWAP5 POP POP PUSH1 0x60 PUSH2 0x5838 DUP10 DUP3 DUP11 ADD PUSH2 0x57CA JUMP JUMPDEST SWAP4 POP POP PUSH1 0x80 DUP8 ADD CALLDATALOAD PUSH8 0xFFFFFFFFFFFFFFFF DUP2 GT ISZERO PUSH2 0x5859 JUMPI PUSH2 0x5858 PUSH2 0x4FD4 JUMP JUMPDEST JUMPDEST PUSH2 0x5865 DUP10 DUP3 DUP11 ADD PUSH2 0x5234 JUMP JUMPDEST SWAP3 POP SWAP3 POP POP SWAP3 SWAP6 POP SWAP3 SWAP6 POP SWAP3 SWAP6 JUMP JUMPDEST PUSH0 DUP2 SWAP1 POP SWAP2 SWAP1 POP JUMP JUMPDEST PUSH2 0x5886 DUP2 PUSH2 0x5874 JUMP JUMPDEST DUP3 MSTORE POP POP JUMP JUMPDEST PUSH0 PUSH1 0x40 DUP3 ADD SWAP1 POP PUSH2 0x589F PUSH0 DUP4 ADD DUP6 PUSH2 0x587D JUMP JUMPDEST PUSH2 0x58AC PUSH1 0x20 DUP4 ADD DUP5 PUSH2 0x587D JUMP JUMPDEST SWAP4 SWAP3 POP POP POP JUMP JUMPDEST PUSH0 PUSH1 0x20 DUP3 DUP5 SUB SLT ISZERO PUSH2 0x58C8 JUMPI PUSH2 0x58C7 PUSH2 0x4FD0 JUMP JUMPDEST JUMPDEST PUSH0 PUSH2 0x58D5 DUP5 DUP3 DUP6 ADD PUSH2 0x51EA JUMP JUMPDEST SWAP2 POP POP SWAP3 SWAP2 POP POP JUMP JUMPDEST PUSH0 DUP2 PUSH1 0xF SIGNEXTEND SWAP1 POP SWAP2 SWAP1 POP JUMP JUMPDEST PUSH2 0x58F3 DUP2 PUSH2 0x58DE JUMP JUMPDEST DUP3 MSTORE POP POP JUMP JUMPDEST PUSH0 PUSH1 0xA0 DUP3 ADD SWAP1 POP PUSH2 0x590C PUSH0 DUP4 ADD DUP9 PUSH2 0x507A JUMP JUMPDEST PUSH2 0x5919 PUSH1 0x20 DUP4 ADD DUP8 PUSH2 0x4FA8 JUMP JUMPDEST PUSH2 0x5926 PUSH1 0x40 DUP4 ADD DUP7 PUSH2 0x58EA JUMP JUMPDEST PUSH2 0x5933 PUSH1 0x60 DUP4 ADD DUP6 PUSH2 0x531F JUMP JUMPDEST PUSH2 0x5940 PUSH1 0x80 DUP4 ADD DUP5 PUSH2 0x531F JUMP JUMPDEST SWAP7 SWAP6 POP POP POP POP POP POP JUMP JUMPDEST PUSH0 PUSH1 0x20 DUP3 DUP5 SUB SLT ISZERO PUSH2 0x595F JUMPI PUSH2 0x595E PUSH2 0x4FD0 JUMP JUMPDEST JUMPDEST PUSH0 PUSH2 0x596C DUP5 DUP3 DUP6 ADD PUSH2 0x57CA JUMP JUMPDEST SWAP2 POP POP SWAP3 SWAP2 POP POP JUMP JUMPDEST PUSH0 PUSH1 0x40 DUP3 ADD SWAP1 POP PUSH2 0x5988 PUSH0 DUP4 ADD DUP6 PUSH2 0x514A JUMP JUMPDEST PUSH2 0x5995 PUSH1 0x20 DUP4 ADD DUP5 PUSH2 0x514A JUMP JUMPDEST SWAP4 SWAP3 POP POP POP JUMP JUMPDEST PUSH32 0x4E487B7100000000000000000000000000000000000000000000000000000000 PUSH0 MSTORE PUSH1 0x11 PUSH1 0x4 MSTORE PUSH1 0x24 PUSH0 REVERT JUMPDEST PUSH0 PUSH2 0x59D3 DUP3 PUSH2 0x512F JUMP JUMPDEST SWAP2 POP PUSH32 0xFFFFFFFFFFFFFFFFFFFFFFFFFFFFFFFFFFFFFFFFFFFFFFFFFFFFFFFFFF800000 DUP3 SUB PUSH2 0x5A05 JUMPI PUSH2 0x5A04 PUSH2 0x599C JUMP JUMPDEST JUMPDEST DUP2 PUSH0 SUB SWAP1 POP SWAP2 SWAP1 POP JUMP JUMPDEST PUSH0 DUP3 DUP3 MSTORE PUSH1 0x20 DUP3 ADD SWAP1 POP SWAP3 SWAP2 POP POP JUMP JUMPDEST DUP3 DUP2 DUP4 CALLDATACOPY PUSH0 DUP4 DUP4 ADD MSTORE POP POP POP JUMP JUMPDEST PUSH0 PUSH1 0x1F NOT PUSH1 0x1F DUP4 ADD AND SWAP1 POP SWAP2 SWAP1 POP JUMP JUMPDEST PUSH0 PUSH2 0x5A48 DUP4 DUP6 PUSH2 0x5A0F JUMP JUMPDEST SWAP4 POP PUSH2 0x5A55 DUP4 DUP6 DUP5 PUSH2 0x5A1F JUMP JUMPDEST PUSH2 0x5A5E DUP4 PUSH2 0x5A2D JUMP JUMPDEST DUP5 ADD SWAP1 POP SWAP4 SWAP3 POP POP POP JUMP JUMPDEST PUSH0 PUSH1 0x60 DUP3 ADD SWAP1 POP PUSH2 0x5A7C PUSH0 DUP4 ADD DUP8 PUSH2 0x531F JUMP JUMPDEST PUSH2 0x5A89 PUSH1 0x20 DUP4 ADD DUP7 PUSH2 0x531F JUMP JUMPDEST DUP2 DUP2 SUB PUSH1 0x40 DUP4 ADD MSTORE PUSH2 0x5A9C DUP2 DUP5 DUP7 PUSH2 0x5A3D JUMP JUMPDEST SWAP1 POP SWAP6 SWAP5 POP POP POP POP POP JUMP JUMPDEST PUSH0 PUSH2 0x5AB1 DUP3 PUSH2 0x4FD8 JUMP JUMPDEST SWAP2 POP PUSH2 0x5ABC DUP4 PUSH2 0x4FD8 JUMP JUMPDEST SWAP3 POP DUP3 DUP3 ADD SWAP1 POP DUP1 DUP3 GT ISZERO PUSH2 0x5AD4 JUMPI PUSH2 0x5AD3 PUSH2 0x599C JUMP JUMPDEST JUMPDEST SWAP3 SWAP2 POP POP JUMP JUMPDEST PUSH0 PUSH1 0x80 DUP3 ADD SWAP1 POP PUSH2 0x5AED PUSH0 DUP4 ADD DUP8 PUSH2 0x4F65 JUMP JUMPDEST PUSH2 0x5AFA PUSH1 0x20 DUP4 ADD DUP7 PUSH2 0x4FA8 JUMP JUMPDEST PUSH2 0x5B07 PUSH1 0x40 DUP4 ADD DUP6 PUSH2 0x531F JUMP JUMPDEST PUSH2 0x5B14 PUSH1 0x60 DUP4 ADD DUP5 PUSH2 0x531F JUMP JUMPDEST SWAP6 SWAP5 POP POP POP POP POP JUMP JUMPDEST PUSH0 DUP2 MLOAD SWAP1 POP PUSH2 0x5B2B DUP2 PUSH2 0x4FE1 JUMP JUMPDEST SWAP3 SWAP2 POP POP JUMP JUMPDEST PUSH0 PUSH1 0x20 DUP3 DUP5 SUB SLT ISZERO PUSH2 0x5B46 JUMPI PUSH2 0x5B45 PUSH2 0x4FD0 JUMP JUMPDEST JUMPDEST PUSH0 PUSH2 0x5B53 DUP5 DUP3 DUP6 ADD PUSH2 0x5B1D JUMP JUMPDEST SWAP2 POP POP SWAP3 SWAP2 POP POP JUMP JUMPDEST PUSH0 PUSH1 0x40 DUP3 ADD SWAP1 POP PUSH2 0x5B6F PUSH0 DUP4 ADD DUP6 PUSH2 0x4F65 JUMP JUMPDEST PUSH2 0x5B7C PUSH1 0x20 DUP4 ADD DUP5 PUSH2 0x531F JUMP JUMPDEST SWAP4 SWAP3 POP POP POP JUMP JUMPDEST PUSH0 PUSH2 0x5B8D DUP3 PUSH2 0x4F8D JUMP JUMPDEST SWAP2 POP PUSH2 0x5B98 DUP4 PUSH2 0x4F8D JUMP JUMPDEST SWAP3 POP DUP3 DUP3 SUB SWAP1 POP PUSH16 0xFFFFFFFFFFFFFFFFFFFFFFFFFFFFFFFF DUP2 GT ISZERO PUSH2 0x5BC0 JUMPI PUSH2 0x5BBF PUSH2 0x599C JUMP JUMPDEST JUMPDEST SWAP3 SWAP2 POP POP JUMP JUMPDEST PUSH0 DUP2 SWAP1 POP SWAP2 SWAP1 POP JUMP JUMPDEST PUSH0 PUSH2 0x5BE9 PUSH2 0x5BE4 PUSH2 0x5BDF DUP5 PUSH2 0x4F8D JUMP JUMPDEST PUSH2 0x5BC6 JUMP JUMPDEST PUSH2 0x4FD8 JUMP JUMPDEST SWAP1 POP SWAP2 SWAP1 POP JUMP JUMPDEST PUSH2 0x5BF9 DUP2 PUSH2 0x5BCF JUMP JUMPDEST DUP3 MSTORE POP POP JUMP JUMPDEST PUSH0 PUSH1 0x40 DUP3 ADD SWAP1 POP PUSH2 0x5C12 PUSH0 DUP4 ADD DUP6 PUSH2 0x4F65 JUMP JUMPDEST PUSH2 0x5C1F PUSH1 0x20 DUP4 ADD DUP5 PUSH2 0x5BF0 JUMP JUMPDEST SWAP4 SWAP3 POP POP POP JUMP JUMPDEST PUSH0 PUSH1 0x60 DUP3 ADD SWAP1 POP PUSH2 0x5C39 PUSH0 DUP4 ADD DUP7 PUSH2 0x4F65 JUMP JUMPDEST PUSH2 0x5C46 PUSH1 0x20 DUP4 ADD DUP6 PUSH2 0x5BF0 JUMP JUMPDEST PUSH2 0x5C53 PUSH1 0x40 DUP4 ADD DUP5 PUSH2 0x5BF0 JUMP JUMPDEST SWAP5 SWAP4 POP POP POP POP JUMP JUMPDEST PUSH0 PUSH2 0x5C65 DUP3 PUSH2 0x58DE JUMP JUMPDEST SWAP2 POP PUSH32 0xFFFFFFFFFFFFFFFFFFFFFFFFFFFFFFFF80000000000000000000000000000000 DUP3 SUB PUSH2 0x5C97 JUMPI PUSH2 0x5C96 PUSH2 0x599C JUMP JUMPDEST JUMPDEST DUP2 PUSH0 SUB SWAP1 POP SWAP2 SWAP1 POP JUMP JUMPDEST PUSH0 PUSH2 0x5CAB DUP3 PUSH2 0x5874 JUMP JUMPDEST SWAP2 POP PUSH32 0x8000000000000000000000000000000000000000000000000000000000000000 DUP3 SUB PUSH2 0x5CDD JUMPI PUSH2 0x5CDC PUSH2 0x599C JUMP JUMPDEST JUMPDEST DUP2 PUSH0 SUB SWAP1 POP SWAP2 SWAP1 POP JUMP JUMPDEST PUSH0 PUSH2 0x5CF1 DUP3 PUSH2 0x4F8D JUMP JUMPDEST SWAP2 POP PUSH2 0x5CFC DUP4 PUSH2 0x4F8D JUMP JUMPDEST SWAP3 POP DUP3 DUP3 ADD SWAP1 POP PUSH16 0xFFFFFFFFFFFFFFFFFFFFFFFFFFFFFFFF DUP2 GT ISZERO PUSH2 0x5D24 JUMPI PUSH2 0x5D23 PUSH2 0x599C JUMP JUMPDEST JUMPDEST SWAP3 SWAP2 POP POP JUMP JUMPDEST PUSH0 PUSH1 0x60 DUP3 ADD SWAP1 POP PUSH2 0x5D3D PUSH0 DUP4 ADD DUP7 PUSH2 0x4FA8 JUMP JUMPDEST PUSH2 0x5D4A PUSH1 0x20 DUP4 ADD DUP6 PUSH2 0x531F JUMP JUMPDEST PUSH2 0x5D57 PUSH1 0x40 DUP4 ADD DUP5 PUSH2 0x531F JUMP JUMPDEST SWAP5 SWAP4 POP POP POP POP JUMP JUMPDEST PUSH0 PUSH2 0x5D69 DUP3 PUSH2 0x4FD8 JUMP JUMPDEST SWAP2 POP PUSH2 0x5D74 DUP4 PUSH2 0x4FD8 JUMP JUMPDEST SWAP3 POP DUP3 DUP3 SUB SWAP1 POP DUP2 DUP2 GT ISZERO PUSH2 0x5D8C JUMPI PUSH2 0x5D8B PUSH2 0x599C JUMP JUMPDEST JUMPDEST SWAP3 SWAP2 POP POP JUMP JUMPDEST PUSH0 PUSH2 0x5D9C DUP3 PUSH2 0x512F JUMP JUMPDEST SWAP2 POP PUSH2 0x5DA7 DUP4 PUSH2 0x512F JUMP JUMPDEST SWAP3 POP DUP3 DUP3 SUB SWAP1 POP PUSH3 0x7FFFFF DUP2 SGT PUSH32 0xFFFFFFFFFFFFFFFFFFFFFFFFFFFFFFFFFFFFFFFFFFFFFFFFFFFFFFFFFF800000 DUP3 SLT OR ISZERO PUSH2 0x5DE6 JUMPI PUSH2 0x5DE5 PUSH2 0x599C JUMP JUMPDEST JUMPDEST SWAP3 SWAP2 POP POP JUMP JUMPDEST PUSH0 PUSH1 0x60 DUP3 ADD SWAP1 POP PUSH2 0x5DFF PUSH0 DUP4 ADD DUP8 PUSH2 0x587D JUMP JUMPDEST PUSH2 0x5E0C PUSH1 0x20 DUP4 ADD DUP7 PUSH2 0x587D JUMP JUMPDEST DUP2 DUP2 SUB PUSH1 0x40 DUP4 ADD MSTORE PUSH2 0x5E1F DUP2 DUP5 DUP7 PUSH2 0x5A3D JUMP JUMPDEST SWAP1 POP SWAP6 SWAP5 POP POP POP POP POP JUMP JUMPDEST PUSH0 PUSH1 0xA0 DUP3 ADD SWAP1 POP PUSH2 0x5E3D PUSH0 DUP4 ADD DUP9 PUSH2 0x587D JUMP JUMPDEST PUSH2 0x5E4A PUSH1 0x20 DUP4 ADD DUP8 PUSH2 0x587D JUMP JUMPDEST PUSH2 0x5E57 PUSH1 0x40 DUP4 ADD DUP7 PUSH2 0x5120 JUMP JUMPDEST PUSH2 0x5E64 PUSH1 0x60 DUP4 ADD DUP6 PUSH2 0x4FA8 JUMP JUMPDEST PUSH2 0x5E71 PUSH1 0x80 DUP4 ADD DUP5 PUSH2 0x513B JUMP JUMPDEST SWAP7 SWAP6 POP POP POP POP POP POP JUMP JUMPDEST PUSH32 0x4E487B7100000000000000000000000000000000000000000000000000000000 PUSH0 MSTORE PUSH1 0x32 PUSH1 0x4 MSTORE PUSH1 0x24 PUSH0 REVERT JUMPDEST PUSH32 0x4E487B7100000000000000000000000000000000000000000000000000000000 PUSH0 MSTORE PUSH1 0x12 PUSH1 0x4 MSTORE PUSH1 0x24 PUSH0 REVERT JUMPDEST PUSH0 PUSH2 0x5EDF DUP3 PUSH2 0x4FD8 JUMP JUMPDEST SWAP2 POP PUSH32 0xFFFFFFFFFFFFFFFFFFFFFFFFFFFFFFFFFFFFFFFFFFFFFFFFFFFFFFFFFFFFFFFF DUP3 SUB PUSH2 0x5F11 JUMPI PUSH2 0x5F10 PUSH2 0x599C JUMP JUMPDEST JUMPDEST PUSH1 0x1 DUP3 ADD SWAP1 POP SWAP2 SWAP1 POP JUMP JUMPDEST PUSH0 DUP2 PUSH1 0x60 SHL SWAP1 POP SWAP2 SWAP1 POP JUMP JUMPDEST PUSH0 PUSH2 0x5F32 DUP3 PUSH2 0x5F1C JUMP JUMPDEST SWAP1 POP SWAP2 SWAP1 POP JUMP JUMPDEST PUSH0 PUSH2 0x5F43 DUP3 PUSH2 0x5F28 JUMP JUMPDEST SWAP1 POP SWAP2 SWAP1 POP JUMP JUMPDEST PUSH2 0x5F5B PUSH2 0x5F56 DUP3 PUSH2 0x4F54 JUMP JUMPDEST PUSH2 0x5F39 JUMP JUMPDEST DUP3 MSTORE POP POP JUMP JUMPDEST PUSH0 DUP2 PUSH1 0xE8 SHL SWAP1 POP SWAP2 SWAP1 POP JUMP JUMPDEST PUSH0 PUSH2 0x5F77 DUP3 PUSH2 0x5F61 JUMP JUMPDEST SWAP1 POP SWAP2 SWAP1 POP JUMP JUMPDEST PUSH2 0x5F8F PUSH2 0x5F8A DUP3 PUSH2 0x512F JUMP JUMPDEST PUSH2 0x5F6D JUMP JUMPDEST DUP3 MSTORE POP POP JUMP JUMPDEST PUSH0 PUSH2 0x5FA0 DUP3 DUP7 PUSH2 0x5F4A JUMP JUMPDEST PUSH1 0x14 DUP3 ADD SWAP2 POP PUSH2 0x5FB0 DUP3 DUP6 PUSH2 0x5F7E JUMP JUMPDEST PUSH1 0x3 DUP3 ADD SWAP2 POP PUSH2 0x5FC0 DUP3 DUP5 PUSH2 0x5F7E JUMP JUMPDEST PUSH1 0x3 DUP3 ADD SWAP2 POP DUP2 SWAP1 POP SWAP5 SWAP4 POP POP POP POP JUMP JUMPDEST PUSH32 0x4E487B7100000000000000000000000000000000000000000000000000000000 PUSH0 MSTORE PUSH1 0x41 PUSH1 0x4 MSTORE PUSH1 0x24 PUSH0 REVERT JUMPDEST PUSH0 PUSH2 0x6008 DUP3 PUSH2 0x512F JUMP JUMPDEST SWAP2 POP PUSH2 0x6013 DUP4 PUSH2 0x512F JUMP JUMPDEST SWAP3 POP DUP3 PUSH2 0x6023 JUMPI PUSH2 0x6022 PUSH2 0x5EA8 JUMP JUMPDEST JUMPDEST PUSH1 0x1 PUSH0 SUB DUP4 EQ PUSH32 0xFFFFFFFFFFFFFFFFFFFFFFFFFFFFFFFFFFFFFFFFFFFFFFFFFFFFFFFFFF800000 DUP4 EQ AND ISZERO PUSH2 0x605B JUMPI PUSH2 0x605A PUSH2 0x599C JUMP JUMPDEST JUMPDEST DUP3 DUP3 SDIV SWAP1 POP SWAP3 SWAP2 POP POP JUMP JUMPDEST PUSH0 PUSH2 0x6070 DUP3 PUSH2 0x512F JUMP JUMPDEST SWAP2 POP PUSH2 0x607B DUP4 PUSH2 0x512F JUMP JUMPDEST SWAP3 POP DUP3 PUSH2 0x608B JUMPI PUSH2 0x608A PUSH2 0x5EA8 JUMP JUMPDEST JUMPDEST DUP3 DUP3 SMOD SWAP1 POP SWAP3 SWAP2 POP POP JUMP JUMPDEST PUSH0 PUSH2 0x60A0 DUP3 PUSH2 0x512F JUMP JUMPDEST SWAP2 POP PUSH32 0xFFFFFFFFFFFFFFFFFFFFFFFFFFFFFFFFFFFFFFFFFFFFFFFFFFFFFFFFFF800000 DUP3 SUB PUSH2 0x60D2 JUMPI PUSH2 0x60D1 PUSH2 0x599C JUMP JUMPDEST JUMPDEST PUSH1 0x1 DUP3 SUB SWAP1 POP SWAP2 SWAP1 POP JUMP JUMPDEST PUSH0 PUSH2 0x60E7 DUP3 PUSH2 0x512F JUMP JUMPDEST SWAP2 POP PUSH2 0x60F2 DUP4 PUSH2 0x512F JUMP JUMPDEST SWAP3 POP DUP3 DUP3 MUL PUSH2 0x6100 DUP2 PUSH2 0x512F JUMP JUMPDEST SWAP2 POP DUP1 DUP3 EQ PUSH2 0x6112 JUMPI PUSH2 0x6111 PUSH2 0x599C JUMP JUMPDEST JUMPDEST POP SWAP3 SWAP2 POP POP JUMP JUMPDEST PUSH0 PUSH1 0xFF DUP3 AND SWAP1 POP SWAP2 SWAP1 POP JUMP JUMPDEST PUSH0 PUSH2 0x612F DUP3 PUSH2 0x6119 JUMP JUMPDEST SWAP2 POP PUSH2 0x613A DUP4 PUSH2 0x6119 JUMP JUMPDEST SWAP3 POP DUP3 DUP3 SUB SWAP1 POP PUSH1 0xFF DUP2 GT ISZERO PUSH2 0x6153 JUMPI PUSH2 0x6152 PUSH2 0x599C JUMP JUMPDEST JUMPDEST SWAP3 SWAP2 POP POP JUMP JUMPDEST PUSH0 PUSH2 0x6163 DUP3 PUSH2 0x512F JUMP JUMPDEST SWAP2 POP PUSH2 0x616E DUP4 PUSH2 0x512F JUMP JUMPDEST SWAP3 POP DUP3 DUP3 ADD SWAP1 POP PUSH32 0xFFFFFFFFFFFFFFFFFFFFFFFFFFFFFFFFFFFFFFFFFFFFFFFFFFFFFFFFFF800000 DUP2 SLT PUSH3 0x7FFFFF DUP3 SGT OR ISZERO PUSH2 0x61AD JUMPI PUSH2 0x61AC PUSH2 0x599C JUMP JUMPDEST JUMPDEST SWAP3 SWAP2 POP POP JUMP JUMPDEST PUSH0 DUP3 DUP3 MSTORE PUSH1 0x20 DUP3 ADD SWAP1 POP SWAP3 SWAP2 POP POP JUMP JUMPDEST PUSH32 0x5400000000000000000000000000000000000000000000000000000000000000 PUSH0 DUP3 ADD MSTORE POP JUMP JUMPDEST PUSH0 PUSH2 0x61F7 PUSH1 0x1 DUP4 PUSH2 0x61B3 JUMP JUMPDEST SWAP2 POP PUSH2 0x6202 DUP3 PUSH2 0x61C3 JUMP JUMPDEST PUSH1 0x20 DUP3 ADD SWAP1 POP SWAP2 SWAP1 POP JUMP JUMPDEST PUSH0 PUSH1 0x20 DUP3 ADD SWAP1 POP DUP2 DUP2 SUB PUSH0 DUP4 ADD MSTORE PUSH2 0x6224 DUP2 PUSH2 0x61EB JUMP JUMPDEST SWAP1 POP SWAP2 SWAP1 POP JUMP JUMPDEST PUSH0 PUSH2 0x6235 DUP3 PUSH2 0x4FD8 JUMP JUMPDEST SWAP2 POP PUSH2 0x6240 DUP4 PUSH2 0x4FD8 JUMP JUMPDEST SWAP3 POP DUP3 DUP3 MUL PUSH2 0x624E DUP2 PUSH2 0x4FD8 JUMP JUMPDEST SWAP2 POP DUP3 DUP3 DIV DUP5 EQ DUP4 ISZERO OR PUSH2 0x6265 JUMPI PUSH2 0x6264 PUSH2 0x599C JUMP JUMPDEST JUMPDEST POP SWAP3 SWAP2 POP POP JUMP JUMPDEST PUSH0 PUSH2 0x6276 DUP3 PUSH2 0x4FD8 JUMP JUMPDEST SWAP2 POP PUSH2 0x6281 DUP4 PUSH2 0x4FD8 JUMP JUMPDEST SWAP3 POP DUP3 PUSH2 0x6291 JUMPI PUSH2 0x6290 PUSH2 0x5EA8 JUMP JUMPDEST JUMPDEST DUP3 DUP3 DIV SWAP1 POP SWAP3 SWAP2 POP POP JUMP JUMPDEST PUSH0 PUSH2 0x62A6 DUP3 PUSH2 0x4FD8 JUMP JUMPDEST SWAP2 POP PUSH2 0x62B1 DUP4 PUSH2 0x4FD8 JUMP JUMPDEST SWAP3 POP DUP3 PUSH2 0x62C1 JUMPI PUSH2 0x62C0 PUSH2 0x5EA8 JUMP JUMPDEST JUMPDEST DUP3 DUP3 MOD SWAP1 POP SWAP3 SWAP2 POP POP JUMP JUMPDEST PUSH0 PUSH2 0x62D6 DUP3 PUSH2 0x5754 JUMP JUMPDEST SWAP2 POP PUSH2 0x62E1 DUP4 PUSH2 0x5754 JUMP JUMPDEST SWAP3 POP DUP3 DUP3 SUB SWAP1 POP PUSH3 0xFFFFFF DUP2 GT ISZERO PUSH2 0x62FC JUMPI PUSH2 0x62FB PUSH2 0x599C JUMP JUMPDEST JUMPDEST SWAP3 SWAP2 POP POP JUMP JUMPDEST PUSH0 PUSH1 0x60 DUP3 ADD SWAP1 POP PUSH2 0x6315 PUSH0 DUP4 ADD DUP7 PUSH2 0x531F JUMP JUMPDEST PUSH2 0x6322 PUSH1 0x20 DUP4 ADD DUP6 PUSH2 0x531F JUMP JUMPDEST PUSH2 0x632F PUSH1 0x40 DUP4 ADD DUP5 PUSH2 0x531F JUMP JUMPDEST SWAP5 SWAP4 POP POP POP POP JUMP JUMPDEST PUSH32 0x5200000000000000000000000000000000000000000000000000000000000000 PUSH0 DUP3 ADD MSTORE POP JUMP JUMPDEST PUSH0 PUSH2 0x636B PUSH1 0x1 DUP4 PUSH2 0x61B3 JUMP JUMPDEST SWAP2 POP PUSH2 0x6376 DUP3 PUSH2 0x6337 JUMP JUMPDEST PUSH1 0x20 DUP3 ADD SWAP1 POP SWAP2 SWAP1 POP JUMP JUMPDEST PUSH0 PUSH1 0x20 DUP3 ADD SWAP1 POP DUP2 DUP2 SUB PUSH0 DUP4 ADD MSTORE PUSH2 0x6398 DUP2 PUSH2 0x635F JUMP JUMPDEST SWAP1 POP SWAP2 SWAP1 POP JUMP JUMPDEST PUSH0 PUSH2 0x63A9 DUP3 PUSH2 0x5874 JUMP JUMPDEST SWAP2 POP PUSH2 0x63B4 DUP4 PUSH2 0x5874 JUMP JUMPDEST SWAP3 POP DUP3 DUP3 SUB SWAP1 POP DUP2 DUP2 SLT PUSH0 DUP5 SLT AND DUP3 DUP3 SGT PUSH0 DUP6 SLT ISZERO AND OR ISZERO PUSH2 0x63D9 JUMPI PUSH2 0x63D8 PUSH2 0x599C JUMP JUMPDEST JUMPDEST SWAP3 SWAP2 POP POP JUMP JUMPDEST PUSH0 PUSH2 0x63E9 DUP3 PUSH2 0x5874 JUMP JUMPDEST SWAP2 POP PUSH2 0x63F4 DUP4 PUSH2 0x5874 JUMP JUMPDEST SWAP3 POP DUP3 DUP3 MUL PUSH2 0x6402 DUP2 PUSH2 0x5874 JUMP JUMPDEST SWAP2 POP PUSH32 0x8000000000000000000000000000000000000000000000000000000000000000 DUP5 EQ PUSH0 DUP5 SLT AND ISZERO PUSH2 0x6439 JUMPI PUSH2 0x6438 PUSH2 0x599C JUMP JUMPDEST JUMPDEST DUP3 DUP3 SDIV DUP5 EQ DUP4 ISZERO OR PUSH2 0x644E JUMPI PUSH2 0x644D PUSH2 0x599C JUMP JUMPDEST JUMPDEST POP SWAP3 SWAP2 POP POP JUMP JUMPDEST PUSH0 PUSH2 0x645F DUP3 PUSH2 0x5874 JUMP JUMPDEST SWAP2 POP PUSH2 0x646A DUP4 PUSH2 0x5874 JUMP JUMPDEST SWAP3 POP DUP3 DUP3 ADD SWAP1 POP DUP3 DUP2 SLT ISZERO PUSH0 DUP4 SLT AND DUP4 DUP3 SLT PUSH0 DUP5 SLT ISZERO AND OR ISZERO PUSH2 0x6490 JUMPI PUSH2 0x648F PUSH2 0x599C JUMP JUMPDEST JUMPDEST SWAP3 SWAP2 POP POP JUMP JUMPDEST PUSH0 PUSH2 0x64A0 DUP3 PUSH2 0x50BE JUMP JUMPDEST SWAP2 POP PUSH2 0x64AB DUP4 PUSH2 0x50BE JUMP JUMPDEST SWAP3 POP DUP3 DUP3 SUB SWAP1 POP PUSH2 0xFFFF DUP2 GT ISZERO PUSH2 0x64C5 JUMPI PUSH2 0x64C4 PUSH2 0x599C JUMP JUMPDEST JUMPDEST SWAP3 SWAP2 POP POP JUMP JUMPDEST PUSH0 PUSH2 0x64D5 DUP3 PUSH2 0x50BE JUMP JUMPDEST SWAP2 POP PUSH2 0x64E0 DUP4 PUSH2 0x50BE JUMP JUMPDEST SWAP3 POP DUP3 DUP3 ADD SWAP1 POP PUSH2 0xFFFF DUP2 GT ISZERO PUSH2 0x64FA JUMPI PUSH2 0x64F9 PUSH2 0x599C JUMP JUMPDEST JUMPDEST SWAP3 SWAP2 POP POP JUMP JUMPDEST PUSH0 PUSH2 0x650A DUP3 PUSH2 0x50BE JUMP JUMPDEST SWAP2 POP PUSH2 0x6515 DUP4 PUSH2 0x50BE JUMP JUMPDEST SWAP3 POP DUP3 PUSH2 0x6525 JUMPI PUSH2 0x6524 PUSH2 0x5EA8 JUMP JUMPDEST JUMPDEST DUP3 DUP3 MOD SWAP1 POP SWAP3 SWAP2 POP POP JUMP JUMPDEST PUSH0 PUSH2 0x653A DUP3 PUSH2 0x5036 JUMP JUMPDEST SWAP2 POP PUSH2 0x6545 DUP4 PUSH2 0x5036 JUMP JUMPDEST SWAP3 POP DUP3 DUP3 SUB SWAP1 POP PUSH4 0xFFFFFFFF DUP2 GT ISZERO PUSH2 0x6561 JUMPI PUSH2 0x6560 PUSH2 0x599C JUMP JUMPDEST JUMPDEST SWAP3 SWAP2 POP POP JUMP JUMPDEST PUSH0 PUSH2 0x6571 DUP3 PUSH2 0x5054 JUMP JUMPDEST SWAP2 POP PUSH2 0x657C DUP4 PUSH2 0x5054 JUMP JUMPDEST SWAP3 POP DUP3 DUP3 SUB SWAP1 POP PUSH7 0x7FFFFFFFFFFFFF DUP2 SGT PUSH32 0xFFFFFFFFFFFFFFFFFFFFFFFFFFFFFFFFFFFFFFFFFFFFFFFFFF80000000000000 DUP3 SLT OR ISZERO PUSH2 0x65BF JUMPI PUSH2 0x65BE PUSH2 0x599C JUMP JUMPDEST JUMPDEST SWAP3 SWAP2 POP POP JUMP JUMPDEST PUSH0 PUSH2 0x65CF DUP3 PUSH2 0x5054 JUMP JUMPDEST SWAP2 POP PUSH2 0x65DA DUP4 PUSH2 0x5054 JUMP JUMPDEST SWAP3 POP DUP3 PUSH2 0x65EA JUMPI PUSH2 0x65E9 PUSH2 0x5EA8 JUMP JUMPDEST JUMPDEST PUSH1 0x1 PUSH0 SUB DUP4 EQ PUSH32 0xFFFFFFFFFFFFFFFFFFFFFFFFFFFFFFFFFFFFFFFFFFFFFFFFFF80000000000000 DUP4 EQ AND ISZERO PUSH2 0x6622 JUMPI PUSH2 0x6621 PUSH2 0x599C JUMP JUMPDEST JUMPDEST DUP3 DUP3 SDIV SWAP1 POP SWAP3 SWAP2 POP POP JUMP JUMPDEST PUSH0 PUSH2 0x6637 DUP3 PUSH2 0x5054 JUMP JUMPDEST SWAP2 POP PUSH2 0x6642 DUP4 PUSH2 0x5054 JUMP JUMPDEST SWAP3 POP DUP3 DUP3 MUL PUSH2 0x6650 DUP2 PUSH2 0x5054 JUMP JUMPDEST SWAP2 POP DUP1 DUP3 EQ PUSH2 0x6662 JUMPI PUSH2 0x6661 PUSH2 0x599C JUMP JUMPDEST JUMPDEST POP SWAP3 SWAP2 POP POP JUMP JUMPDEST PUSH0 PUSH2 0x6673 DUP3 PUSH2 0x5054 JUMP JUMPDEST SWAP2 POP PUSH2 0x667E DUP4 PUSH2 0x5054 JUMP JUMPDEST SWAP3 POP DUP3 DUP3 ADD SWAP1 POP PUSH32 0xFFFFFFFFFFFFFFFFFFFFFFFFFFFFFFFFFFFFFFFFFFFFFFFFFF80000000000000 DUP2 SLT PUSH7 0x7FFFFFFFFFFFFF DUP3 SGT OR ISZERO PUSH2 0x66C1 JUMPI PUSH2 0x66C0 PUSH2 0x599C JUMP JUMPDEST JUMPDEST SWAP3 SWAP2 POP POP JUMP JUMPDEST PUSH0 PUSH2 0x66D1 DUP3 PUSH2 0x6119 JUMP JUMPDEST SWAP2 POP PUSH2 0x66DC DUP4 PUSH2 0x6119 JUMP JUMPDEST SWAP3 POP DUP3 DUP3 ADD SWAP1 POP PUSH1 0xFF DUP2 GT ISZERO PUSH2 0x66F5 JUMPI PUSH2 0x66F4 PUSH2 0x599C JUMP JUMPDEST JUMPDEST SWAP3 SWAP2 POP POP JUMP JUMPDEST PUSH0 PUSH2 0x6705 DUP3 PUSH2 0x4F35 JUMP JUMPDEST SWAP2 POP PUSH2 0x6710 DUP4 PUSH2 0x4F35 JUMP JUMPDEST SWAP3 POP DUP3 DUP3 SUB SWAP1 POP PUSH20 0xFFFFFFFFFFFFFFFFFFFFFFFFFFFFFFFFFFFFFFFF DUP2 GT ISZERO PUSH2 0x673C JUMPI PUSH2 0x673B PUSH2 0x599C JUMP JUMPDEST JUMPDEST SWAP3 SWAP2 POP POP JUMP JUMPDEST PUSH32 0x4F4C440000000000000000000000000000000000000000000000000000000000 PUSH0 DUP3 ADD MSTORE POP JUMP JUMPDEST PUSH0 PUSH2 0x6776 PUSH1 0x3 DUP4 PUSH2 0x61B3 JUMP JUMPDEST SWAP2 POP PUSH2 0x6781 DUP3 PUSH2 0x6742 JUMP JUMPDEST PUSH1 0x20 DUP3 ADD SWAP1 POP SWAP2 SWAP1 POP JUMP JUMPDEST PUSH0 PUSH1 0x20 DUP3 ADD SWAP1 POP DUP2 DUP2 SUB PUSH0 DUP4 ADD MSTORE PUSH2 0x67A3 DUP2 PUSH2 0x676A JUMP JUMPDEST SWAP1 POP SWAP2 SWAP1 POP JUMP JUMPDEST PUSH0 PUSH5 0xFFFFFFFFFF DUP3 AND SWAP1 POP SWAP2 SWAP1 POP JUMP JUMPDEST PUSH0 PUSH2 0x67C4 DUP3 PUSH2 0x67AA JUMP JUMPDEST SWAP2 POP PUSH2 0x67CF DUP4 PUSH2 0x67AA JUMP JUMPDEST SWAP3 POP DUP3 DUP3 ADD SWAP1 POP PUSH5 0xFFFFFFFFFF DUP2 GT ISZERO PUSH2 0x67EC JUMPI PUSH2 0x67EB PUSH2 0x599C JUMP JUMPDEST JUMPDEST SWAP3 SWAP2 POP POP JUMP INVALID LOG2 PUSH5 0x6970667358 0x22 SLT KECCAK256 0x25 CALL 0xDF 0xE SGT 0x24 0x5E SWAP9 RETURNDATACOPY LOG4 PUSH22 0xC2CF9CB72940FC8144E8EF5C6015A01F5E6DAC692B64 PUSH20 0x6F6C63430008160033A2646970667358221220B8 0xCF LOG0 0x29 0xD9 SWAP14 0xBD JUMPI EXP TIMESTAMP PUSH18 0x1D52DCEDBCD411DDD19BD20AA429354AF3CE 0xE9 0xA7 0xFB PUSH5 0x736F6C6343 STOP ADDMOD AND STOP CALLER "
		},
		"gasEstimates": {
			"creation": {
				"codeDepositCost": "6142200",
				"executionCost": "56305",
				"totalCost": "6198505"
			},
			"external": {
				"createPool(address,address,uint24)": "infinite",
				"factoryParameters()": "infinite",
				"fees(uint24)": "infinite",
				"parameters()": "infinite",
				"pools(address,address,uint24)": "infinite"
			}
		},
		"methodIdentifiers": {
			"createPool(address,address,uint24)": "a1671295",
			"factoryParameters()": "8f14e2c6",
			"fees(uint24)": "6441c780",
			"parameters()": "89035730",
			"pools(address,address,uint24)": "bae0d918"
		}
	},
	"abi": [
		{
			"inputs": [],
			"stateMutability": "nonpayable",
			"type": "constructor"
		},
		{
			"inputs": [],
			"name": "PoolAlreadyExists",
			"type": "error"
		},
		{
			"inputs": [],
			"name": "TokensMustBeDifferent",
			"type": "error"
		},
		{
			"inputs": [],
			"name": "UnsupportedFee",
			"type": "error"
		},
		{
			"inputs": [],
			"name": "ZeroAddressNotAllowed",
			"type": "error"
		},
		{
			"anonymous": false,
			"inputs": [
				{
					"indexed": true,
					"internalType": "address",
					"name": "token0",
					"type": "address"
				},
				{
					"indexed": true,
					"internalType": "address",
					"name": "token1",
					"type": "address"
				},
				{
					"indexed": true,
					"internalType": "uint24",
					"name": "fee",
					"type": "uint24"
				},
				{
					"indexed": false,
					"internalType": "address",
					"name": "pool",
					"type": "address"
				}
			],
			"name": "PoolCreated",
			"type": "event"
		},
		{
			"inputs": [
				{
					"internalType": "address",
					"name": "tokenX",
					"type": "address"
				},
				{
					"internalType": "address",
					"name": "tokenY",
					"type": "address"
				},
				{
					"internalType": "uint24",
					"name": "fee",
					"type": "uint24"
				}
			],
			"name": "createPool",
			"outputs": [
				{
					"internalType": "address",
					"name": "pool",
					"type": "address"
				}
			],
			"stateMutability": "nonpayable",
			"type": "function"
		},
		{
			"inputs": [],
			"name": "factoryParameters",
			"outputs": [
				{
					"internalType": "address",
					"name": "factory",
					"type": "address"
				},
				{
					"internalType": "address",
					"name": "token0",
					"type": "address"
				},
				{
					"internalType": "address",
					"name": "token1",
					"type": "address"
				},
				{
					"internalType": "uint24",
					"name": "tickSpacing",
					"type": "uint24"
				},
				{
					"internalType": "uint24",
					"name": "fee",
					"type": "uint24"
				}
			],
			"stateMutability": "view",
			"type": "function"
		},
		{
			"inputs": [
				{
					"internalType": "uint24",
					"name": "",
					"type": "uint24"
				}
			],
			"name": "fees",
			"outputs": [
				{
					"internalType": "uint24",
					"name": "",
					"type": "uint24"
				}
			],
			"stateMutability": "view",
			"type": "function"
		},
		{
			"inputs": [],
			"name": "parameters",
			"outputs": [
				{
					"internalType": "address",
					"name": "factory",
					"type": "address"
				},
				{
					"internalType": "address",
					"name": "token0",
					"type": "address"
				},
				{
					"internalType": "address",
					"name": "token1",
					"type": "address"
				},
				{
					"internalType": "uint24",
					"name": "tickSpacing",
					"type": "uint24"
				},
				{
					"internalType": "uint24",
					"name": "fee",
					"type": "uint24"
				}
			],
			"stateMutability": "view",
			"type": "function"
		},
		{
			"inputs": [
				{
					"internalType": "address",
					"name": "",
					"type": "address"
				},
				{
					"internalType": "address",
					"name": "",
					"type": "address"
				},
				{
					"internalType": "uint24",
					"name": "",
					"type": "uint24"
				}
			],
			"name": "pools",
			"outputs": [
				{
					"internalType": "address",
					"name": "",
					"type": "address"
				}
			],
			"stateMutability": "view",
			"type": "function"
		}
	]
}