{
	"data": {
		"bytecode": {
			"linkReferences": {},
			"object": "608060405234801561000f575f80fd5b50611b938061001d5f395ff3fe608060405234801561000f575f80fd5b506004361061004a575f3560e01c8063190c17521461004e5780639f382e9b1461007f578063dd5a12d81461009b578063fa483e72146100cc575b5f80fd5b61006860048036038101906100639190610f83565b6100e8565b604051610076929190610fc6565b60405180910390f35b61009960048036038101906100949190611078565b610425565b005b6100b560048036038101906100b091906111a2565b610521565b6040516100c3929190611250565b60405180910390f35b6100e660048036038101906100e191906112a1565b610615565b005b5f805f835f0160208101906100fd9190611312565b90505f8173ffffffffffffffffffffffffffffffffffffffff16633850c7bd6040518163ffffffff1660e01b81526004016040805180830381865afa158015610148573d5f803e3d5ffd5b505050506040513d601f19601f8201168201806040525081019061016c9190611387565b5090505f61018b86602001602081019061018691906113d9565b610723565b90505f6101a98760400160208101906101a491906113d9565b610723565b90505f6101c18484848b606001358c60800135610bd7565b90508473ffffffffffffffffffffffffffffffffffffffff16633c8a7d8d338a60200160208101906101f391906113d9565b8b604001602081019061020691906113d9565b8560405180606001604052808c73ffffffffffffffffffffffffffffffffffffffff16630dfe16816040518163ffffffff1660e01b8152600401602060405180830381865afa15801561025b573d5f803e3d5ffd5b505050506040513d601f19601f8201168201806040525081019061027f9190611418565b73ffffffffffffffffffffffffffffffffffffffff1681526020018c73ffffffffffffffffffffffffffffffffffffffff1663d21220a76040518163ffffffff1660e01b8152600401602060405180830381865afa1580156102e3573d5f803e3d5ffd5b505050506040513d601f19601f820116820180604052508101906103079190611418565b73ffffffffffffffffffffffffffffffffffffffff1681526020013373ffffffffffffffffffffffffffffffffffffffff1681525060405160200161034c9190611492565b6040516020818303038152906040526040518663ffffffff1660e01b815260040161037b95949392919061157d565b60408051808303815f875af1158015610396573d5f803e3d5ffd5b505050506040513d601f19601f820116820180604052508101906103ba91906115e9565b80975081985050508760a001358710806103d757508760c0013586105b1561041b5786866040517fa8f6c8d0000000000000000000000000000000000000000000000000000000008152600401610412929190610fc6565b60405180910390fd5b5050505050915091565b5f82828101906104359190611704565b9050805f015173ffffffffffffffffffffffffffffffffffffffff166323b872dd826040015133886040518463ffffffff1660e01b815260040161047b9392919061172f565b5f604051808303815f87803b158015610492575f80fd5b505af11580156104a4573d5f803e3d5ffd5b50505050806020015173ffffffffffffffffffffffffffffffffffffffff166323b872dd826040015133876040518463ffffffff1660e01b81526004016104ed9392919061172f565b5f604051808303815f87803b158015610504575f80fd5b505af1158015610516573d5f803e3d5ffd5b505050505050505050565b5f808773ffffffffffffffffffffffffffffffffffffffff1663dd5a12d83389895f8a73ffffffffffffffffffffffffffffffffffffffff161461056557896105a4565b8b61059057600173fffd8963efd1fc6a506488495d951d5263988d2661058b9190611791565b6105a3565b60016401000276a36105a291906117d8565b5b5b89896040518763ffffffff1660e01b81526004016105c796959493929190611877565b60408051808303815f875af11580156105e2573d5f803e3d5ffd5b505050506040513d601f19601f8201168201806040525081019061060691906118e5565b91509150965096945050505050565b5f82828101906106259190611704565b90505f8513156106a157805f015173ffffffffffffffffffffffffffffffffffffffff166323b872dd826040015133886040518463ffffffff1660e01b81526004016106739392919061172f565b5f604051808303815f87803b15801561068a575f80fd5b505af115801561069c573d5f803e3d5ffd5b505050505b5f84131561071c57806020015173ffffffffffffffffffffffffffffffffffffffff166323b872dd826040015133876040518463ffffffff1660e01b81526004016106ee9392919061172f565b5f604051808303815f87803b158015610705575f80fd5b505af1158015610717573d5f803e3d5ffd5b505050505b5050505050565b5f805f8360020b12610738578260020b610746565b8260020b61074590611923565b5b90507ffffffffffffffffffffffffffffffffffffffffffffffffffffffffffff2761861077290611969565b62ffffff168111156107b9576040517f08c379a00000000000000000000000000000000000000000000000000000000081526004016107b090611a09565b60405180910390fd5b5f8060018316036107db577001000000000000000000000000000000006107ed565b6ffffcb933bd6fad37aa2d162d1a5940015b70ffffffffffffffffffffffffffffffffff1690505f600283161461082f5760806ffff97272373d413259a46990580e213a8261082a9190611a27565b901c90505b5f600483161461085c5760806ffff2e50f5f656932ef12357cf3c7fdcc826108579190611a27565b901c90505b5f60088316146108895760806fffe5caca7e10e4e61c3624eaa0941cd0826108849190611a27565b901c90505b5f60108316146108b65760806fffcb9843d60f6159c9db58835c926644826108b19190611a27565b901c90505b5f60208316146108e35760806fff973b41fa98c081472e6896dfb254c0826108de9190611a27565b901c90505b5f60408316146109105760806fff2ea16466c96a3843ec78b326b528618261090b9190611a27565b901c90505b5f608083161461093d5760806ffe5dee046a99a2a811c461f1969c3053826109389190611a27565b901c90505b5f61010083161461096b5760806ffcbe86c7900a88aedcffc83b479aa3a4826109669190611a27565b901c90505b5f6102008316146109995760806ff987a7253ac413176f2b074cf7815e54826109949190611a27565b901c90505b5f6104008316146109c75760806ff3392b0822b70005940c7a398e4b70f3826109c29190611a27565b901c90505b5f6108008316146109f55760806fe7159475a2c29b7443b29c7fa6e889d9826109f09190611a27565b901c90505b5f611000831614610a235760806fd097f3bdfd2022b8845ad8f792aa582582610a1e9190611a27565b901c90505b5f612000831614610a515760806fa9f746462d870fdf8a65dc1f90e061e582610a4c9190611a27565b901c90505b5f614000831614610a7f5760806f70d869a156d2a1b890bb3df62baf32f782610a7a9190611a27565b901c90505b5f618000831614610aad5760806f31be135f97d08fd981231505542fcfa682610aa89190611a27565b901c90505b5f62010000831614610adc5760806f09aa508b5b7a84e1c677de54f3e99bc982610ad79190611a27565b901c90505b5f62020000831614610b0a5760806e5d6af8dedb81196699c329225ee60482610b059190611a27565b901c90505b5f62040000831614610b375760806d2216e584f5fa1ea926041bedfe9882610b329190611a27565b901c90505b5f62080000831614610b625760806b048a170391f7dc42444e8fa282610b5d9190611a27565b901c90505b5f8460020b1315610b9c57807fffffffffffffffffffffffffffffffffffffffffffffffffffffffffffffffff610b999190611a95565b90505b5f64010000000082610bae9190611ac5565b14610bba576001610bbc565b5f5b60ff16602082901c610bce9190611af5565b92505050919050565b5f8373ffffffffffffffffffffffffffffffffffffffff168573ffffffffffffffffffffffffffffffffffffffff161115610c1757838580955081965050505b8473ffffffffffffffffffffffffffffffffffffffff168673ffffffffffffffffffffffffffffffffffffffff1611610c5c57610c55858585610cff565b9050610cf6565b8373ffffffffffffffffffffffffffffffffffffffff168673ffffffffffffffffffffffffffffffffffffffff1611610ce7575f610c9b878686610cff565b90505f610ca9878986610dbc565b9050806fffffffffffffffffffffffffffffffff16826fffffffffffffffffffffffffffffffff1610610cdc5780610cde565b815b92505050610cf5565b610cf2858584610dbc565b90505b5b95945050505050565b5f8273ffffffffffffffffffffffffffffffffffffffff168473ffffffffffffffffffffffffffffffffffffffff161115610d3f57828480945081955050505b5f610d848573ffffffffffffffffffffffffffffffffffffffff168573ffffffffffffffffffffffffffffffffffffffff166c01000000000000000000000000610e3e565b9050610db283828787610d979190611791565b73ffffffffffffffffffffffffffffffffffffffff16610e3e565b9150509392505050565b5f8273ffffffffffffffffffffffffffffffffffffffff168473ffffffffffffffffffffffffffffffffffffffff161115610dfc57828480945081955050505b610e35826c010000000000000000000000008686610e1a9190611791565b73ffffffffffffffffffffffffffffffffffffffff16610e3e565b90509392505050565b5f805f80198587098587029250828110838203039150505f8103610e7657838281610e6c57610e6b611a68565b5b0492505050610f49565b838110610ebe578585856040517f63a05778000000000000000000000000000000000000000000000000000000008152600401610eb593929190611b28565b60405180910390fd5b5f8486880990508281118203915080830392505f6001861901861690505f81870496508185049450600182835f0304019050808402851794505f60028860030218905080880260020381029050808802600203810290508088026002038102905080880260020381029050808802600203810290508088026002038102905080860296505050505050505b9392505050565b5f604051905090565b5f80fd5b5f80fd5b5f80fd5b5f60e08284031215610f7a57610f79610f61565b5b81905092915050565b5f60e08284031215610f9857610f97610f59565b5b5f610fa584828501610f65565b91505092915050565b5f819050919050565b610fc081610fae565b82525050565b5f604082019050610fd95f830185610fb7565b610fe66020830184610fb7565b9392505050565b610ff681610fae565b8114611000575f80fd5b50565b5f8135905061101181610fed565b92915050565b5f80fd5b5f80fd5b5f80fd5b5f8083601f84011261103857611037611017565b5b8235905067ffffffffffffffff8111156110555761105461101b565b5b6020830191508360018202830111156110715761107061101f565b5b9250929050565b5f805f80606085870312156110905761108f610f59565b5b5f61109d87828801611003565b94505060206110ae87828801611003565b935050604085013567ffffffffffffffff8111156110cf576110ce610f5d565b5b6110db87828801611023565b925092505092959194509250565b5f73ffffffffffffffffffffffffffffffffffffffff82169050919050565b5f611112826110e9565b9050919050565b61112281611108565b811461112c575f80fd5b50565b5f8135905061113d81611119565b92915050565b5f8115159050919050565b61115781611143565b8114611161575f80fd5b50565b5f813590506111728161114e565b92915050565b611181816110e9565b811461118b575f80fd5b50565b5f8135905061119c81611178565b92915050565b5f805f805f8060a087890312156111bc576111bb610f59565b5b5f6111c989828a0161112f565b96505060206111da89828a01611164565b95505060406111eb89828a01611003565b94505060606111fc89828a0161118e565b935050608087013567ffffffffffffffff81111561121d5761121c610f5d565b5b61122989828a01611023565b92509250509295509295509295565b5f819050919050565b61124a81611238565b82525050565b5f6040820190506112635f830185611241565b6112706020830184611241565b9392505050565b61128081611238565b811461128a575f80fd5b50565b5f8135905061129b81611277565b92915050565b5f805f80606085870312156112b9576112b8610f59565b5b5f6112c68782880161128d565b94505060206112d78782880161128d565b935050604085013567ffffffffffffffff8111156112f8576112f7610f5d565b5b61130487828801611023565b925092505092959194509250565b5f6020828403121561132757611326610f59565b5b5f6113348482850161112f565b91505092915050565b5f8151905061134b81611178565b92915050565b5f8160020b9050919050565b61136681611351565b8114611370575f80fd5b50565b5f815190506113818161135d565b92915050565b5f806040838503121561139d5761139c610f59565b5b5f6113aa8582860161133d565b92505060206113bb85828601611373565b9150509250929050565b5f813590506113d38161135d565b92915050565b5f602082840312156113ee576113ed610f59565b5b5f6113fb848285016113c5565b91505092915050565b5f8151905061141281611119565b92915050565b5f6020828403121561142d5761142c610f59565b5b5f61143a84828501611404565b91505092915050565b61144c81611108565b82525050565b606082015f8201516114665f850182611443565b5060208201516114796020850182611443565b50604082015161148c6040850182611443565b50505050565b5f6060820190506114a55f830184611452565b92915050565b6114b481611108565b82525050565b6114c381611351565b82525050565b5f6fffffffffffffffffffffffffffffffff82169050919050565b6114ed816114c9565b82525050565b5f81519050919050565b5f82825260208201905092915050565b5f5b8381101561152a57808201518184015260208101905061150f565b5f8484015250505050565b5f601f19601f8301169050919050565b5f61154f826114f3565b61155981856114fd565b935061156981856020860161150d565b61157281611535565b840191505092915050565b5f60a0820190506115905f8301886114ab565b61159d60208301876114ba565b6115aa60408301866114ba565b6115b760608301856114e4565b81810360808301526115c98184611545565b90509695505050505050565b5f815190506115e381610fed565b92915050565b5f80604083850312156115ff576115fe610f59565b5b5f61160c858286016115d5565b925050602061161d858286016115d5565b9150509250929050565b5f80fd5b7f4e487b71000000000000000000000000000000000000000000000000000000005f52604160045260245ffd5b61166182611535565b810181811067ffffffffffffffff821117156116805761167f61162b565b5b80604052505050565b5f611692610f50565b905061169e8282611658565b919050565b5f606082840312156116b8576116b7611627565b5b6116c26060611689565b90505f6116d18482850161112f565b5f8301525060206116e48482850161112f565b60208301525060406116f88482850161112f565b60408301525092915050565b5f6060828403121561171957611718610f59565b5b5f611726848285016116a3565b91505092915050565b5f6060820190506117425f8301866114ab565b61174f60208301856114ab565b61175c6040830184610fb7565b949350505050565b7f4e487b71000000000000000000000000000000000000000000000000000000005f52601160045260245ffd5b5f61179b826110e9565b91506117a6836110e9565b9250828203905073ffffffffffffffffffffffffffffffffffffffff8111156117d2576117d1611764565b5b92915050565b5f6117e2826110e9565b91506117ed836110e9565b9250828201905073ffffffffffffffffffffffffffffffffffffffff81111561181957611818611764565b5b92915050565b61182881611143565b82525050565b611837816110e9565b82525050565b828183375f83830152505050565b5f61185683856114fd565b935061186383858461183d565b61186c83611535565b840190509392505050565b5f60a08201905061188a5f8301896114ab565b611897602083018861181f565b6118a46040830187610fb7565b6118b1606083018661182e565b81810360808301526118c481848661184b565b9050979650505050505050565b5f815190506118df81611277565b92915050565b5f80604083850312156118fb576118fa610f59565b5b5f611908858286016118d1565b9250506020611919858286016118d1565b9150509250929050565b5f61192d82611238565b91507f8000000000000000000000000000000000000000000000000000000000000000820361195f5761195e611764565b5b815f039050919050565b5f61197382611351565b91507fffffffffffffffffffffffffffffffffffffffffffffffffffffffffff80000082036119a5576119a4611764565b5b815f039050919050565b5f82825260208201905092915050565b7f54000000000000000000000000000000000000000000000000000000000000005f82015250565b5f6119f36001836119af565b91506119fe826119bf565b602082019050919050565b5f6020820190508181035f830152611a20816119e7565b9050919050565b5f611a3182610fae565b9150611a3c83610fae565b9250828202611a4a81610fae565b91508282048414831517611a6157611a60611764565b5b5092915050565b7f4e487b71000000000000000000000000000000000000000000000000000000005f52601260045260245ffd5b5f611a9f82610fae565b9150611aaa83610fae565b925082611aba57611ab9611a68565b5b828204905092915050565b5f611acf82610fae565b9150611ada83610fae565b925082611aea57611ae9611a68565b5b828206905092915050565b5f611aff82610fae565b9150611b0a83610fae565b9250828201905080821115611b2257611b21611764565b5b92915050565b5f606082019050611b3b5f830186610fb7565b611b486020830185610fb7565b611b556040830184610fb7565b94935050505056fea2646970667358221220b113a47ad156366390b7f5bf4c3cdc07b84d33e6cfd8ffe61a56d163a9953d1064736f6c63430008180033",
			"opcodes": "PUSH1 0x80 PUSH1 0x40 MSTORE CALLVALUE DUP1 ISZERO PUSH2 0xF JUMPI PUSH0 DUP1 REVERT JUMPDEST POP PUSH2 0x1B93 DUP1 PUSH2 0x1D PUSH0 CODECOPY PUSH0 RETURN INVALID PUSH1 0x80 PUSH1 0x40 MSTORE CALLVALUE DUP1 ISZERO PUSH2 0xF JUMPI PUSH0 DUP1 REVERT JUMPDEST POP PUSH1 0x4 CALLDATASIZE LT PUSH2 0x4A JUMPI PUSH0 CALLDATALOAD PUSH1 0xE0 SHR DUP1 PUSH4 0x190C1752 EQ PUSH2 0x4E JUMPI DUP1 PUSH4 0x9F382E9B EQ PUSH2 0x7F JUMPI DUP1 PUSH4 0xDD5A12D8 EQ PUSH2 0x9B JUMPI DUP1 PUSH4 0xFA483E72 EQ PUSH2 0xCC JUMPI JUMPDEST PUSH0 DUP1 REVERT JUMPDEST PUSH2 0x68 PUSH1 0x4 DUP1 CALLDATASIZE SUB DUP2 ADD SWAP1 PUSH2 0x63 SWAP2 SWAP1 PUSH2 0xF83 JUMP JUMPDEST PUSH2 0xE8 JUMP JUMPDEST PUSH1 0x40 MLOAD PUSH2 0x76 SWAP3 SWAP2 SWAP1 PUSH2 0xFC6 JUMP JUMPDEST PUSH1 0x40 MLOAD DUP1 SWAP2 SUB SWAP1 RETURN JUMPDEST PUSH2 0x99 PUSH1 0x4 DUP1 CALLDATASIZE SUB DUP2 ADD SWAP1 PUSH2 0x94 SWAP2 SWAP1 PUSH2 0x1078 JUMP JUMPDEST PUSH2 0x425 JUMP JUMPDEST STOP JUMPDEST PUSH2 0xB5 PUSH1 0x4 DUP1 CALLDATASIZE SUB DUP2 ADD SWAP1 PUSH2 0xB0 SWAP2 SWAP1 PUSH2 0x11A2 JUMP JUMPDEST PUSH2 0x521 JUMP JUMPDEST PUSH1 0x40 MLOAD PUSH2 0xC3 SWAP3 SWAP2 SWAP1 PUSH2 0x1250 JUMP JUMPDEST PUSH1 0x40 MLOAD DUP1 SWAP2 SUB SWAP1 RETURN JUMPDEST PUSH2 0xE6 PUSH1 0x4 DUP1 CALLDATASIZE SUB DUP2 ADD SWAP1 PUSH2 0xE1 SWAP2 SWAP1 PUSH2 0x12A1 JUMP JUMPDEST PUSH2 0x615 JUMP JUMPDEST STOP JUMPDEST PUSH0 DUP1 PUSH0 DUP4 PUSH0 ADD PUSH1 0x20 DUP2 ADD SWAP1 PUSH2 0xFD SWAP2 SWAP1 PUSH2 0x1312 JUMP JUMPDEST SWAP1 POP PUSH0 DUP2 PUSH20 0xFFFFFFFFFFFFFFFFFFFFFFFFFFFFFFFFFFFFFFFF AND PUSH4 0x3850C7BD PUSH1 0x40 MLOAD DUP2 PUSH4 0xFFFFFFFF AND PUSH1 0xE0 SHL DUP2 MSTORE PUSH1 0x4 ADD PUSH1 0x40 DUP1 MLOAD DUP1 DUP4 SUB DUP2 DUP7 GAS STATICCALL ISZERO DUP1 ISZERO PUSH2 0x148 JUMPI RETURNDATASIZE PUSH0 DUP1 RETURNDATACOPY RETURNDATASIZE PUSH0 REVERT JUMPDEST POP POP POP POP PUSH1 0x40 MLOAD RETURNDATASIZE PUSH1 0x1F NOT PUSH1 0x1F DUP3 ADD AND DUP3 ADD DUP1 PUSH1 0x40 MSTORE POP DUP2 ADD SWAP1 PUSH2 0x16C SWAP2 SWAP1 PUSH2 0x1387 JUMP JUMPDEST POP SWAP1 POP PUSH0 PUSH2 0x18B DUP7 PUSH1 0x20 ADD PUSH1 0x20 DUP2 ADD SWAP1 PUSH2 0x186 SWAP2 SWAP1 PUSH2 0x13D9 JUMP JUMPDEST PUSH2 0x723 JUMP JUMPDEST SWAP1 POP PUSH0 PUSH2 0x1A9 DUP8 PUSH1 0x40 ADD PUSH1 0x20 DUP2 ADD SWAP1 PUSH2 0x1A4 SWAP2 SWAP1 PUSH2 0x13D9 JUMP JUMPDEST PUSH2 0x723 JUMP JUMPDEST SWAP1 POP PUSH0 PUSH2 0x1C1 DUP5 DUP5 DUP5 DUP12 PUSH1 0x60 ADD CALLDATALOAD DUP13 PUSH1 0x80 ADD CALLDATALOAD PUSH2 0xBD7 JUMP JUMPDEST SWAP1 POP DUP5 PUSH20 0xFFFFFFFFFFFFFFFFFFFFFFFFFFFFFFFFFFFFFFFF AND PUSH4 0x3C8A7D8D CALLER DUP11 PUSH1 0x20 ADD PUSH1 0x20 DUP2 ADD SWAP1 PUSH2 0x1F3 SWAP2 SWAP1 PUSH2 0x13D9 JUMP JUMPDEST DUP12 PUSH1 0x40 ADD PUSH1 0x20 DUP2 ADD SWAP1 PUSH2 0x206 SWAP2 SWAP1 PUSH2 0x13D9 JUMP JUMPDEST DUP6 PUSH1 0x40 MLOAD DUP1 PUSH1 0x60 ADD PUSH1 0x40 MSTORE DUP1 DUP13 PUSH20 0xFFFFFFFFFFFFFFFFFFFFFFFFFFFFFFFFFFFFFFFF AND PUSH4 0xDFE1681 PUSH1 0x40 MLOAD DUP2 PUSH4 0xFFFFFFFF AND PUSH1 0xE0 SHL DUP2 MSTORE PUSH1 0x4 ADD PUSH1 0x20 PUSH1 0x40 MLOAD DUP1 DUP4 SUB DUP2 DUP7 GAS STATICCALL ISZERO DUP1 ISZERO PUSH2 0x25B JUMPI RETURNDATASIZE PUSH0 DUP1 RETURNDATACOPY RETURNDATASIZE PUSH0 REVERT JUMPDEST POP POP POP POP PUSH1 0x40 MLOAD RETURNDATASIZE PUSH1 0x1F NOT PUSH1 0x1F DUP3 ADD AND DUP3 ADD DUP1 PUSH1 0x40 MSTORE POP DUP2 ADD SWAP1 PUSH2 0x27F SWAP2 SWAP1 PUSH2 0x1418 JUMP JUMPDEST PUSH20 0xFFFFFFFFFFFFFFFFFFFFFFFFFFFFFFFFFFFFFFFF AND DUP2 MSTORE PUSH1 0x20 ADD DUP13 PUSH20 0xFFFFFFFFFFFFFFFFFFFFFFFFFFFFFFFFFFFFFFFF AND PUSH4 0xD21220A7 PUSH1 0x40 MLOAD DUP2 PUSH4 0xFFFFFFFF AND PUSH1 0xE0 SHL DUP2 MSTORE PUSH1 0x4 ADD PUSH1 0x20 PUSH1 0x40 MLOAD DUP1 DUP4 SUB DUP2 DUP7 GAS STATICCALL ISZERO DUP1 ISZERO PUSH2 0x2E3 JUMPI RETURNDATASIZE PUSH0 DUP1 RETURNDATACOPY RETURNDATASIZE PUSH0 REVERT JUMPDEST POP POP POP POP PUSH1 0x40 MLOAD RETURNDATASIZE PUSH1 0x1F NOT PUSH1 0x1F DUP3 ADD AND DUP3 ADD DUP1 PUSH1 0x40 MSTORE POP DUP2 ADD SWAP1 PUSH2 0x307 SWAP2 SWAP1 PUSH2 0x1418 JUMP JUMPDEST PUSH20 0xFFFFFFFFFFFFFFFFFFFFFFFFFFFFFFFFFFFFFFFF AND DUP2 MSTORE PUSH1 0x20 ADD CALLER PUSH20 0xFFFFFFFFFFFFFFFFFFFFFFFFFFFFFFFFFFFFFFFF AND DUP2 MSTORE POP PUSH1 0x40 MLOAD PUSH1 0x20 ADD PUSH2 0x34C SWAP2 SWAP1 PUSH2 0x1492 JUMP JUMPDEST PUSH1 0x40 MLOAD PUSH1 0x20 DUP2 DUP4 SUB SUB DUP2 MSTORE SWAP1 PUSH1 0x40 MSTORE PUSH1 0x40 MLOAD DUP7 PUSH4 0xFFFFFFFF AND PUSH1 0xE0 SHL DUP2 MSTORE PUSH1 0x4 ADD PUSH2 0x37B SWAP6 SWAP5 SWAP4 SWAP3 SWAP2 SWAP1 PUSH2 0x157D JUMP JUMPDEST PUSH1 0x40 DUP1 MLOAD DUP1 DUP4 SUB DUP2 PUSH0 DUP8 GAS CALL ISZERO DUP1 ISZERO PUSH2 0x396 JUMPI RETURNDATASIZE PUSH0 DUP1 RETURNDATACOPY RETURNDATASIZE PUSH0 REVERT JUMPDEST POP POP POP POP PUSH1 0x40 MLOAD RETURNDATASIZE PUSH1 0x1F NOT PUSH1 0x1F DUP3 ADD AND DUP3 ADD DUP1 PUSH1 0x40 MSTORE POP DUP2 ADD SWAP1 PUSH2 0x3BA SWAP2 SWAP1 PUSH2 0x15E9 JUMP JUMPDEST DUP1 SWAP8 POP DUP2 SWAP9 POP POP POP DUP8 PUSH1 0xA0 ADD CALLDATALOAD DUP8 LT DUP1 PUSH2 0x3D7 JUMPI POP DUP8 PUSH1 0xC0 ADD CALLDATALOAD DUP7 LT JUMPDEST ISZERO PUSH2 0x41B JUMPI DUP7 DUP7 PUSH1 0x40 MLOAD PUSH32 0xA8F6C8D000000000000000000000000000000000000000000000000000000000 DUP2 MSTORE PUSH1 0x4 ADD PUSH2 0x412 SWAP3 SWAP2 SWAP1 PUSH2 0xFC6 JUMP JUMPDEST PUSH1 0x40 MLOAD DUP1 SWAP2 SUB SWAP1 REVERT JUMPDEST POP POP POP POP POP SWAP2 POP SWAP2 JUMP JUMPDEST PUSH0 DUP3 DUP3 DUP2 ADD SWAP1 PUSH2 0x435 SWAP2 SWAP1 PUSH2 0x1704 JUMP JUMPDEST SWAP1 POP DUP1 PUSH0 ADD MLOAD PUSH20 0xFFFFFFFFFFFFFFFFFFFFFFFFFFFFFFFFFFFFFFFF AND PUSH4 0x23B872DD DUP3 PUSH1 0x40 ADD MLOAD CALLER DUP9 PUSH1 0x40 MLOAD DUP5 PUSH4 0xFFFFFFFF AND PUSH1 0xE0 SHL DUP2 MSTORE PUSH1 0x4 ADD PUSH2 0x47B SWAP4 SWAP3 SWAP2 SWAP1 PUSH2 0x172F JUMP JUMPDEST PUSH0 PUSH1 0x40 MLOAD DUP1 DUP4 SUB DUP2 PUSH0 DUP8 DUP1 EXTCODESIZE ISZERO DUP1 ISZERO PUSH2 0x492 JUMPI PUSH0 DUP1 REVERT JUMPDEST POP GAS CALL ISZERO DUP1 ISZERO PUSH2 0x4A4 JUMPI RETURNDATASIZE PUSH0 DUP1 RETURNDATACOPY RETURNDATASIZE PUSH0 REVERT JUMPDEST POP POP POP POP DUP1 PUSH1 0x20 ADD MLOAD PUSH20 0xFFFFFFFFFFFFFFFFFFFFFFFFFFFFFFFFFFFFFFFF AND PUSH4 0x23B872DD DUP3 PUSH1 0x40 ADD MLOAD CALLER DUP8 PUSH1 0x40 MLOAD DUP5 PUSH4 0xFFFFFFFF AND PUSH1 0xE0 SHL DUP2 MSTORE PUSH1 0x4 ADD PUSH2 0x4ED SWAP4 SWAP3 SWAP2 SWAP1 PUSH2 0x172F JUMP JUMPDEST PUSH0 PUSH1 0x40 MLOAD DUP1 DUP4 SUB DUP2 PUSH0 DUP8 DUP1 EXTCODESIZE ISZERO DUP1 ISZERO PUSH2 0x504 JUMPI PUSH0 DUP1 REVERT JUMPDEST POP GAS CALL ISZERO DUP1 ISZERO PUSH2 0x516 JUMPI RETURNDATASIZE PUSH0 DUP1 RETURNDATACOPY RETURNDATASIZE PUSH0 REVERT JUMPDEST POP POP POP POP POP POP POP POP POP JUMP JUMPDEST PUSH0 DUP1 DUP8 PUSH20 0xFFFFFFFFFFFFFFFFFFFFFFFFFFFFFFFFFFFFFFFF AND PUSH4 0xDD5A12D8 CALLER DUP10 DUP10 PUSH0 DUP11 PUSH20 0xFFFFFFFFFFFFFFFFFFFFFFFFFFFFFFFFFFFFFFFF AND EQ PUSH2 0x565 JUMPI DUP10 PUSH2 0x5A4 JUMP JUMPDEST DUP12 PUSH2 0x590 JUMPI PUSH1 0x1 PUSH20 0xFFFD8963EFD1FC6A506488495D951D5263988D26 PUSH2 0x58B SWAP2 SWAP1 PUSH2 0x1791 JUMP JUMPDEST PUSH2 0x5A3 JUMP JUMPDEST PUSH1 0x1 PUSH5 0x1000276A3 PUSH2 0x5A2 SWAP2 SWAP1 PUSH2 0x17D8 JUMP JUMPDEST JUMPDEST JUMPDEST DUP10 DUP10 PUSH1 0x40 MLOAD DUP8 PUSH4 0xFFFFFFFF AND PUSH1 0xE0 SHL DUP2 MSTORE PUSH1 0x4 ADD PUSH2 0x5C7 SWAP7 SWAP6 SWAP5 SWAP4 SWAP3 SWAP2 SWAP1 PUSH2 0x1877 JUMP JUMPDEST PUSH1 0x40 DUP1 MLOAD DUP1 DUP4 SUB DUP2 PUSH0 DUP8 GAS CALL ISZERO DUP1 ISZERO PUSH2 0x5E2 JUMPI RETURNDATASIZE PUSH0 DUP1 RETURNDATACOPY RETURNDATASIZE PUSH0 REVERT JUMPDEST POP POP POP POP PUSH1 0x40 MLOAD RETURNDATASIZE PUSH1 0x1F NOT PUSH1 0x1F DUP3 ADD AND DUP3 ADD DUP1 PUSH1 0x40 MSTORE POP DUP2 ADD SWAP1 PUSH2 0x606 SWAP2 SWAP1 PUSH2 0x18E5 JUMP JUMPDEST SWAP2 POP SWAP2 POP SWAP7 POP SWAP7 SWAP5 POP POP POP POP POP JUMP JUMPDEST PUSH0 DUP3 DUP3 DUP2 ADD SWAP1 PUSH2 0x625 SWAP2 SWAP1 PUSH2 0x1704 JUMP JUMPDEST SWAP1 POP PUSH0 DUP6 SGT ISZERO PUSH2 0x6A1 JUMPI DUP1 PUSH0 ADD MLOAD PUSH20 0xFFFFFFFFFFFFFFFFFFFFFFFFFFFFFFFFFFFFFFFF AND PUSH4 0x23B872DD DUP3 PUSH1 0x40 ADD MLOAD CALLER DUP9 PUSH1 0x40 MLOAD DUP5 PUSH4 0xFFFFFFFF AND PUSH1 0xE0 SHL DUP2 MSTORE PUSH1 0x4 ADD PUSH2 0x673 SWAP4 SWAP3 SWAP2 SWAP1 PUSH2 0x172F JUMP JUMPDEST PUSH0 PUSH1 0x40 MLOAD DUP1 DUP4 SUB DUP2 PUSH0 DUP8 DUP1 EXTCODESIZE ISZERO DUP1 ISZERO PUSH2 0x68A JUMPI PUSH0 DUP1 REVERT JUMPDEST POP GAS CALL ISZERO DUP1 ISZERO PUSH2 0x69C JUMPI RETURNDATASIZE PUSH0 DUP1 RETURNDATACOPY RETURNDATASIZE PUSH0 REVERT JUMPDEST POP POP POP POP JUMPDEST PUSH0 DUP5 SGT ISZERO PUSH2 0x71C JUMPI DUP1 PUSH1 0x20 ADD MLOAD PUSH20 0xFFFFFFFFFFFFFFFFFFFFFFFFFFFFFFFFFFFFFFFF AND PUSH4 0x23B872DD DUP3 PUSH1 0x40 ADD MLOAD CALLER DUP8 PUSH1 0x40 MLOAD DUP5 PUSH4 0xFFFFFFFF AND PUSH1 0xE0 SHL DUP2 MSTORE PUSH1 0x4 ADD PUSH2 0x6EE SWAP4 SWAP3 SWAP2 SWAP1 PUSH2 0x172F JUMP JUMPDEST PUSH0 PUSH1 0x40 MLOAD DUP1 DUP4 SUB DUP2 PUSH0 DUP8 DUP1 EXTCODESIZE ISZERO DUP1 ISZERO PUSH2 0x705 JUMPI PUSH0 DUP1 REVERT JUMPDEST POP GAS CALL ISZERO DUP1 ISZERO PUSH2 0x717 JUMPI RETURNDATASIZE PUSH0 DUP1 RETURNDATACOPY RETURNDATASIZE PUSH0 REVERT JUMPDEST POP POP POP POP JUMPDEST POP POP POP POP POP JUMP JUMPDEST PUSH0 DUP1 PUSH0 DUP4 PUSH1 0x2 SIGNEXTEND SLT PUSH2 0x738 JUMPI DUP3 PUSH1 0x2 SIGNEXTEND PUSH2 0x746 JUMP JUMPDEST DUP3 PUSH1 0x2 SIGNEXTEND PUSH2 0x745 SWAP1 PUSH2 0x1923 JUMP JUMPDEST JUMPDEST SWAP1 POP PUSH32 0xFFFFFFFFFFFFFFFFFFFFFFFFFFFFFFFFFFFFFFFFFFFFFFFFFFFFFFFFFFF27618 PUSH2 0x772 SWAP1 PUSH2 0x1969 JUMP JUMPDEST PUSH3 0xFFFFFF AND DUP2 GT ISZERO PUSH2 0x7B9 JUMPI PUSH1 0x40 MLOAD PUSH32 0x8C379A000000000000000000000000000000000000000000000000000000000 DUP2 MSTORE PUSH1 0x4 ADD PUSH2 0x7B0 SWAP1 PUSH2 0x1A09 JUMP JUMPDEST PUSH1 0x40 MLOAD DUP1 SWAP2 SUB SWAP1 REVERT JUMPDEST PUSH0 DUP1 PUSH1 0x1 DUP4 AND SUB PUSH2 0x7DB JUMPI PUSH17 0x100000000000000000000000000000000 PUSH2 0x7ED JUMP JUMPDEST PUSH16 0xFFFCB933BD6FAD37AA2D162D1A594001 JUMPDEST PUSH17 0xFFFFFFFFFFFFFFFFFFFFFFFFFFFFFFFFFF AND SWAP1 POP PUSH0 PUSH1 0x2 DUP4 AND EQ PUSH2 0x82F JUMPI PUSH1 0x80 PUSH16 0xFFF97272373D413259A46990580E213A DUP3 PUSH2 0x82A SWAP2 SWAP1 PUSH2 0x1A27 JUMP JUMPDEST SWAP1 SHR SWAP1 POP JUMPDEST PUSH0 PUSH1 0x4 DUP4 AND EQ PUSH2 0x85C JUMPI PUSH1 0x80 PUSH16 0xFFF2E50F5F656932EF12357CF3C7FDCC DUP3 PUSH2 0x857 SWAP2 SWAP1 PUSH2 0x1A27 JUMP JUMPDEST SWAP1 SHR SWAP1 POP JUMPDEST PUSH0 PUSH1 0x8 DUP4 AND EQ PUSH2 0x889 JUMPI PUSH1 0x80 PUSH16 0xFFE5CACA7E10E4E61C3624EAA0941CD0 DUP3 PUSH2 0x884 SWAP2 SWAP1 PUSH2 0x1A27 JUMP JUMPDEST SWAP1 SHR SWAP1 POP JUMPDEST PUSH0 PUSH1 0x10 DUP4 AND EQ PUSH2 0x8B6 JUMPI PUSH1 0x80 PUSH16 0xFFCB9843D60F6159C9DB58835C926644 DUP3 PUSH2 0x8B1 SWAP2 SWAP1 PUSH2 0x1A27 JUMP JUMPDEST SWAP1 SHR SWAP1 POP JUMPDEST PUSH0 PUSH1 0x20 DUP4 AND EQ PUSH2 0x8E3 JUMPI PUSH1 0x80 PUSH16 0xFF973B41FA98C081472E6896DFB254C0 DUP3 PUSH2 0x8DE SWAP2 SWAP1 PUSH2 0x1A27 JUMP JUMPDEST SWAP1 SHR SWAP1 POP JUMPDEST PUSH0 PUSH1 0x40 DUP4 AND EQ PUSH2 0x910 JUMPI PUSH1 0x80 PUSH16 0xFF2EA16466C96A3843EC78B326B52861 DUP3 PUSH2 0x90B SWAP2 SWAP1 PUSH2 0x1A27 JUMP JUMPDEST SWAP1 SHR SWAP1 POP JUMPDEST PUSH0 PUSH1 0x80 DUP4 AND EQ PUSH2 0x93D JUMPI PUSH1 0x80 PUSH16 0xFE5DEE046A99A2A811C461F1969C3053 DUP3 PUSH2 0x938 SWAP2 SWAP1 PUSH2 0x1A27 JUMP JUMPDEST SWAP1 SHR SWAP1 POP JUMPDEST PUSH0 PUSH2 0x100 DUP4 AND EQ PUSH2 0x96B JUMPI PUSH1 0x80 PUSH16 0xFCBE86C7900A88AEDCFFC83B479AA3A4 DUP3 PUSH2 0x966 SWAP2 SWAP1 PUSH2 0x1A27 JUMP JUMPDEST SWAP1 SHR SWAP1 POP JUMPDEST PUSH0 PUSH2 0x200 DUP4 AND EQ PUSH2 0x999 JUMPI PUSH1 0x80 PUSH16 0xF987A7253AC413176F2B074CF7815E54 DUP3 PUSH2 0x994 SWAP2 SWAP1 PUSH2 0x1A27 JUMP JUMPDEST SWAP1 SHR SWAP1 POP JUMPDEST PUSH0 PUSH2 0x400 DUP4 AND EQ PUSH2 0x9C7 JUMPI PUSH1 0x80 PUSH16 0xF3392B0822B70005940C7A398E4B70F3 DUP3 PUSH2 0x9C2 SWAP2 SWAP1 PUSH2 0x1A27 JUMP JUMPDEST SWAP1 SHR SWAP1 POP JUMPDEST PUSH0 PUSH2 0x800 DUP4 AND EQ PUSH2 0x9F5 JUMPI PUSH1 0x80 PUSH16 0xE7159475A2C29B7443B29C7FA6E889D9 DUP3 PUSH2 0x9F0 SWAP2 SWAP1 PUSH2 0x1A27 JUMP JUMPDEST SWAP1 SHR SWAP1 POP JUMPDEST PUSH0 PUSH2 0x1000 DUP4 AND EQ PUSH2 0xA23 JUMPI PUSH1 0x80 PUSH16 0xD097F3BDFD2022B8845AD8F792AA5825 DUP3 PUSH2 0xA1E SWAP2 SWAP1 PUSH2 0x1A27 JUMP JUMPDEST SWAP1 SHR SWAP1 POP JUMPDEST PUSH0 PUSH2 0x2000 DUP4 AND EQ PUSH2 0xA51 JUMPI PUSH1 0x80 PUSH16 0xA9F746462D870FDF8A65DC1F90E061E5 DUP3 PUSH2 0xA4C SWAP2 SWAP1 PUSH2 0x1A27 JUMP JUMPDEST SWAP1 SHR SWAP1 POP JUMPDEST PUSH0 PUSH2 0x4000 DUP4 AND EQ PUSH2 0xA7F JUMPI PUSH1 0x80 PUSH16 0x70D869A156D2A1B890BB3DF62BAF32F7 DUP3 PUSH2 0xA7A SWAP2 SWAP1 PUSH2 0x1A27 JUMP JUMPDEST SWAP1 SHR SWAP1 POP JUMPDEST PUSH0 PUSH2 0x8000 DUP4 AND EQ PUSH2 0xAAD JUMPI PUSH1 0x80 PUSH16 0x31BE135F97D08FD981231505542FCFA6 DUP3 PUSH2 0xAA8 SWAP2 SWAP1 PUSH2 0x1A27 JUMP JUMPDEST SWAP1 SHR SWAP1 POP JUMPDEST PUSH0 PUSH3 0x10000 DUP4 AND EQ PUSH2 0xADC JUMPI PUSH1 0x80 PUSH16 0x9AA508B5B7A84E1C677DE54F3E99BC9 DUP3 PUSH2 0xAD7 SWAP2 SWAP1 PUSH2 0x1A27 JUMP JUMPDEST SWAP1 SHR SWAP1 POP JUMPDEST PUSH0 PUSH3 0x20000 DUP4 AND EQ PUSH2 0xB0A JUMPI PUSH1 0x80 PUSH15 0x5D6AF8DEDB81196699C329225EE604 DUP3 PUSH2 0xB05 SWAP2 SWAP1 PUSH2 0x1A27 JUMP JUMPDEST SWAP1 SHR SWAP1 POP JUMPDEST PUSH0 PUSH3 0x40000 DUP4 AND EQ PUSH2 0xB37 JUMPI PUSH1 0x80 PUSH14 0x2216E584F5FA1EA926041BEDFE98 DUP3 PUSH2 0xB32 SWAP2 SWAP1 PUSH2 0x1A27 JUMP JUMPDEST SWAP1 SHR SWAP1 POP JUMPDEST PUSH0 PUSH3 0x80000 DUP4 AND EQ PUSH2 0xB62 JUMPI PUSH1 0x80 PUSH12 0x48A170391F7DC42444E8FA2 DUP3 PUSH2 0xB5D SWAP2 SWAP1 PUSH2 0x1A27 JUMP JUMPDEST SWAP1 SHR SWAP1 POP JUMPDEST PUSH0 DUP5 PUSH1 0x2 SIGNEXTEND SGT ISZERO PUSH2 0xB9C JUMPI DUP1 PUSH32 0xFFFFFFFFFFFFFFFFFFFFFFFFFFFFFFFFFFFFFFFFFFFFFFFFFFFFFFFFFFFFFFFF PUSH2 0xB99 SWAP2 SWAP1 PUSH2 0x1A95 JUMP JUMPDEST SWAP1 POP JUMPDEST PUSH0 PUSH5 0x100000000 DUP3 PUSH2 0xBAE SWAP2 SWAP1 PUSH2 0x1AC5 JUMP JUMPDEST EQ PUSH2 0xBBA JUMPI PUSH1 0x1 PUSH2 0xBBC JUMP JUMPDEST PUSH0 JUMPDEST PUSH1 0xFF AND PUSH1 0x20 DUP3 SWAP1 SHR PUSH2 0xBCE SWAP2 SWAP1 PUSH2 0x1AF5 JUMP JUMPDEST SWAP3 POP POP POP SWAP2 SWAP1 POP JUMP JUMPDEST PUSH0 DUP4 PUSH20 0xFFFFFFFFFFFFFFFFFFFFFFFFFFFFFFFFFFFFFFFF AND DUP6 PUSH20 0xFFFFFFFFFFFFFFFFFFFFFFFFFFFFFFFFFFFFFFFF AND GT ISZERO PUSH2 0xC17 JUMPI DUP4 DUP6 DUP1 SWAP6 POP DUP2 SWAP7 POP POP POP JUMPDEST DUP5 PUSH20 0xFFFFFFFFFFFFFFFFFFFFFFFFFFFFFFFFFFFFFFFF AND DUP7 PUSH20 0xFFFFFFFFFFFFFFFFFFFFFFFFFFFFFFFFFFFFFFFF AND GT PUSH2 0xC5C JUMPI PUSH2 0xC55 DUP6 DUP6 DUP6 PUSH2 0xCFF JUMP JUMPDEST SWAP1 POP PUSH2 0xCF6 JUMP JUMPDEST DUP4 PUSH20 0xFFFFFFFFFFFFFFFFFFFFFFFFFFFFFFFFFFFFFFFF AND DUP7 PUSH20 0xFFFFFFFFFFFFFFFFFFFFFFFFFFFFFFFFFFFFFFFF AND GT PUSH2 0xCE7 JUMPI PUSH0 PUSH2 0xC9B DUP8 DUP7 DUP7 PUSH2 0xCFF JUMP JUMPDEST SWAP1 POP PUSH0 PUSH2 0xCA9 DUP8 DUP10 DUP7 PUSH2 0xDBC JUMP JUMPDEST SWAP1 POP DUP1 PUSH16 0xFFFFFFFFFFFFFFFFFFFFFFFFFFFFFFFF AND DUP3 PUSH16 0xFFFFFFFFFFFFFFFFFFFFFFFFFFFFFFFF AND LT PUSH2 0xCDC JUMPI DUP1 PUSH2 0xCDE JUMP JUMPDEST DUP2 JUMPDEST SWAP3 POP POP POP PUSH2 0xCF5 JUMP JUMPDEST PUSH2 0xCF2 DUP6 DUP6 DUP5 PUSH2 0xDBC JUMP JUMPDEST SWAP1 POP JUMPDEST JUMPDEST SWAP6 SWAP5 POP POP POP POP POP JUMP JUMPDEST PUSH0 DUP3 PUSH20 0xFFFFFFFFFFFFFFFFFFFFFFFFFFFFFFFFFFFFFFFF AND DUP5 PUSH20 0xFFFFFFFFFFFFFFFFFFFFFFFFFFFFFFFFFFFFFFFF AND GT ISZERO PUSH2 0xD3F JUMPI DUP3 DUP5 DUP1 SWAP5 POP DUP2 SWAP6 POP POP POP JUMPDEST PUSH0 PUSH2 0xD84 DUP6 PUSH20 0xFFFFFFFFFFFFFFFFFFFFFFFFFFFFFFFFFFFFFFFF AND DUP6 PUSH20 0xFFFFFFFFFFFFFFFFFFFFFFFFFFFFFFFFFFFFFFFF AND PUSH13 0x1000000000000000000000000 PUSH2 0xE3E JUMP JUMPDEST SWAP1 POP PUSH2 0xDB2 DUP4 DUP3 DUP8 DUP8 PUSH2 0xD97 SWAP2 SWAP1 PUSH2 0x1791 JUMP JUMPDEST PUSH20 0xFFFFFFFFFFFFFFFFFFFFFFFFFFFFFFFFFFFFFFFF AND PUSH2 0xE3E JUMP JUMPDEST SWAP2 POP POP SWAP4 SWAP3 POP POP POP JUMP JUMPDEST PUSH0 DUP3 PUSH20 0xFFFFFFFFFFFFFFFFFFFFFFFFFFFFFFFFFFFFFFFF AND DUP5 PUSH20 0xFFFFFFFFFFFFFFFFFFFFFFFFFFFFFFFFFFFFFFFF AND GT ISZERO PUSH2 0xDFC JUMPI DUP3 DUP5 DUP1 SWAP5 POP DUP2 SWAP6 POP POP POP JUMPDEST PUSH2 0xE35 DUP3 PUSH13 0x1000000000000000000000000 DUP7 DUP7 PUSH2 0xE1A SWAP2 SWAP1 PUSH2 0x1791 JUMP JUMPDEST PUSH20 0xFFFFFFFFFFFFFFFFFFFFFFFFFFFFFFFFFFFFFFFF AND PUSH2 0xE3E JUMP JUMPDEST SWAP1 POP SWAP4 SWAP3 POP POP POP JUMP JUMPDEST PUSH0 DUP1 PUSH0 DUP1 NOT DUP6 DUP8 MULMOD DUP6 DUP8 MUL SWAP3 POP DUP3 DUP2 LT DUP4 DUP3 SUB SUB SWAP2 POP POP PUSH0 DUP2 SUB PUSH2 0xE76 JUMPI DUP4 DUP3 DUP2 PUSH2 0xE6C JUMPI PUSH2 0xE6B PUSH2 0x1A68 JUMP JUMPDEST JUMPDEST DIV SWAP3 POP POP POP PUSH2 0xF49 JUMP JUMPDEST DUP4 DUP2 LT PUSH2 0xEBE JUMPI DUP6 DUP6 DUP6 PUSH1 0x40 MLOAD PUSH32 0x63A0577800000000000000000000000000000000000000000000000000000000 DUP2 MSTORE PUSH1 0x4 ADD PUSH2 0xEB5 SWAP4 SWAP3 SWAP2 SWAP1 PUSH2 0x1B28 JUMP JUMPDEST PUSH1 0x40 MLOAD DUP1 SWAP2 SUB SWAP1 REVERT JUMPDEST PUSH0 DUP5 DUP7 DUP9 MULMOD SWAP1 POP DUP3 DUP2 GT DUP3 SUB SWAP2 POP DUP1 DUP4 SUB SWAP3 POP PUSH0 PUSH1 0x1 DUP7 NOT ADD DUP7 AND SWAP1 POP PUSH0 DUP2 DUP8 DIV SWAP7 POP DUP2 DUP6 DIV SWAP5 POP PUSH1 0x1 DUP3 DUP4 PUSH0 SUB DIV ADD SWAP1 POP DUP1 DUP5 MUL DUP6 OR SWAP5 POP PUSH0 PUSH1 0x2 DUP9 PUSH1 0x3 MUL XOR SWAP1 POP DUP1 DUP9 MUL PUSH1 0x2 SUB DUP2 MUL SWAP1 POP DUP1 DUP9 MUL PUSH1 0x2 SUB DUP2 MUL SWAP1 POP DUP1 DUP9 MUL PUSH1 0x2 SUB DUP2 MUL SWAP1 POP DUP1 DUP9 MUL PUSH1 0x2 SUB DUP2 MUL SWAP1 POP DUP1 DUP9 MUL PUSH1 0x2 SUB DUP2 MUL SWAP1 POP DUP1 DUP9 MUL PUSH1 0x2 SUB DUP2 MUL SWAP1 POP DUP1 DUP7 MUL SWAP7 POP POP POP POP POP POP POP JUMPDEST SWAP4 SWAP3 POP POP POP JUMP JUMPDEST PUSH0 PUSH1 0x40 MLOAD SWAP1 POP SWAP1 JUMP JUMPDEST PUSH0 DUP1 REVERT JUMPDEST PUSH0 DUP1 REVERT JUMPDEST PUSH0 DUP1 REVERT JUMPDEST PUSH0 PUSH1 0xE0 DUP3 DUP5 SUB SLT ISZERO PUSH2 0xF7A JUMPI PUSH2 0xF79 PUSH2 0xF61 JUMP JUMPDEST JUMPDEST DUP2 SWAP1 POP SWAP3 SWAP2 POP POP JUMP JUMPDEST PUSH0 PUSH1 0xE0 DUP3 DUP5 SUB SLT ISZERO PUSH2 0xF98 JUMPI PUSH2 0xF97 PUSH2 0xF59 JUMP JUMPDEST JUMPDEST PUSH0 PUSH2 0xFA5 DUP5 DUP3 DUP6 ADD PUSH2 0xF65 JUMP JUMPDEST SWAP2 POP POP SWAP3 SWAP2 POP POP JUMP JUMPDEST PUSH0 DUP2 SWAP1 POP SWAP2 SWAP1 POP JUMP JUMPDEST PUSH2 0xFC0 DUP2 PUSH2 0xFAE JUMP JUMPDEST DUP3 MSTORE POP POP JUMP JUMPDEST PUSH0 PUSH1 0x40 DUP3 ADD SWAP1 POP PUSH2 0xFD9 PUSH0 DUP4 ADD DUP6 PUSH2 0xFB7 JUMP JUMPDEST PUSH2 0xFE6 PUSH1 0x20 DUP4 ADD DUP5 PUSH2 0xFB7 JUMP JUMPDEST SWAP4 SWAP3 POP POP POP JUMP JUMPDEST PUSH2 0xFF6 DUP2 PUSH2 0xFAE JUMP JUMPDEST DUP2 EQ PUSH2 0x1000 JUMPI PUSH0 DUP1 REVERT JUMPDEST POP JUMP JUMPDEST PUSH0 DUP2 CALLDATALOAD SWAP1 POP PUSH2 0x1011 DUP2 PUSH2 0xFED JUMP JUMPDEST SWAP3 SWAP2 POP POP JUMP JUMPDEST PUSH0 DUP1 REVERT JUMPDEST PUSH0 DUP1 REVERT JUMPDEST PUSH0 DUP1 REVERT JUMPDEST PUSH0 DUP1 DUP4 PUSH1 0x1F DUP5 ADD SLT PUSH2 0x1038 JUMPI PUSH2 0x1037 PUSH2 0x1017 JUMP JUMPDEST JUMPDEST DUP3 CALLDATALOAD SWAP1 POP PUSH8 0xFFFFFFFFFFFFFFFF DUP2 GT ISZERO PUSH2 0x1055 JUMPI PUSH2 0x1054 PUSH2 0x101B JUMP JUMPDEST JUMPDEST PUSH1 0x20 DUP4 ADD SWAP2 POP DUP4 PUSH1 0x1 DUP3 MUL DUP4 ADD GT ISZERO PUSH2 0x1071 JUMPI PUSH2 0x1070 PUSH2 0x101F JUMP JUMPDEST JUMPDEST SWAP3 POP SWAP3 SWAP1 POP JUMP JUMPDEST PUSH0 DUP1 PUSH0 DUP1 PUSH1 0x60 DUP6 DUP8 SUB SLT ISZERO PUSH2 0x1090 JUMPI PUSH2 0x108F PUSH2 0xF59 JUMP JUMPDEST JUMPDEST PUSH0 PUSH2 0x109D DUP8 DUP3 DUP9 ADD PUSH2 0x1003 JUMP JUMPDEST SWAP5 POP POP PUSH1 0x20 PUSH2 0x10AE DUP8 DUP3 DUP9 ADD PUSH2 0x1003 JUMP JUMPDEST SWAP4 POP POP PUSH1 0x40 DUP6 ADD CALLDATALOAD PUSH8 0xFFFFFFFFFFFFFFFF DUP2 GT ISZERO PUSH2 0x10CF JUMPI PUSH2 0x10CE PUSH2 0xF5D JUMP JUMPDEST JUMPDEST PUSH2 0x10DB DUP8 DUP3 DUP9 ADD PUSH2 0x1023 JUMP JUMPDEST SWAP3 POP SWAP3 POP POP SWAP3 SWAP6 SWAP2 SWAP5 POP SWAP3 POP JUMP JUMPDEST PUSH0 PUSH20 0xFFFFFFFFFFFFFFFFFFFFFFFFFFFFFFFFFFFFFFFF DUP3 AND SWAP1 POP SWAP2 SWAP1 POP JUMP JUMPDEST PUSH0 PUSH2 0x1112 DUP3 PUSH2 0x10E9 JUMP JUMPDEST SWAP1 POP SWAP2 SWAP1 POP JUMP JUMPDEST PUSH2 0x1122 DUP2 PUSH2 0x1108 JUMP JUMPDEST DUP2 EQ PUSH2 0x112C JUMPI PUSH0 DUP1 REVERT JUMPDEST POP JUMP JUMPDEST PUSH0 DUP2 CALLDATALOAD SWAP1 POP PUSH2 0x113D DUP2 PUSH2 0x1119 JUMP JUMPDEST SWAP3 SWAP2 POP POP JUMP JUMPDEST PUSH0 DUP2 ISZERO ISZERO SWAP1 POP SWAP2 SWAP1 POP JUMP JUMPDEST PUSH2 0x1157 DUP2 PUSH2 0x1143 JUMP JUMPDEST DUP2 EQ PUSH2 0x1161 JUMPI PUSH0 DUP1 REVERT JUMPDEST POP JUMP JUMPDEST PUSH0 DUP2 CALLDATALOAD SWAP1 POP PUSH2 0x1172 DUP2 PUSH2 0x114E JUMP JUMPDEST SWAP3 SWAP2 POP POP JUMP JUMPDEST PUSH2 0x1181 DUP2 PUSH2 0x10E9 JUMP JUMPDEST DUP2 EQ PUSH2 0x118B JUMPI PUSH0 DUP1 REVERT JUMPDEST POP JUMP JUMPDEST PUSH0 DUP2 CALLDATALOAD SWAP1 POP PUSH2 0x119C DUP2 PUSH2 0x1178 JUMP JUMPDEST SWAP3 SWAP2 POP POP JUMP JUMPDEST PUSH0 DUP1 PUSH0 DUP1 PUSH0 DUP1 PUSH1 0xA0 DUP8 DUP10 SUB SLT ISZERO PUSH2 0x11BC JUMPI PUSH2 0x11BB PUSH2 0xF59 JUMP JUMPDEST JUMPDEST PUSH0 PUSH2 0x11C9 DUP10 DUP3 DUP11 ADD PUSH2 0x112F JUMP JUMPDEST SWAP7 POP POP PUSH1 0x20 PUSH2 0x11DA DUP10 DUP3 DUP11 ADD PUSH2 0x1164 JUMP JUMPDEST SWAP6 POP POP PUSH1 0x40 PUSH2 0x11EB DUP10 DUP3 DUP11 ADD PUSH2 0x1003 JUMP JUMPDEST SWAP5 POP POP PUSH1 0x60 PUSH2 0x11FC DUP10 DUP3 DUP11 ADD PUSH2 0x118E JUMP JUMPDEST SWAP4 POP POP PUSH1 0x80 DUP8 ADD CALLDATALOAD PUSH8 0xFFFFFFFFFFFFFFFF DUP2 GT ISZERO PUSH2 0x121D JUMPI PUSH2 0x121C PUSH2 0xF5D JUMP JUMPDEST JUMPDEST PUSH2 0x1229 DUP10 DUP3 DUP11 ADD PUSH2 0x1023 JUMP JUMPDEST SWAP3 POP SWAP3 POP POP SWAP3 SWAP6 POP SWAP3 SWAP6 POP SWAP3 SWAP6 JUMP JUMPDEST PUSH0 DUP2 SWAP1 POP SWAP2 SWAP1 POP JUMP JUMPDEST PUSH2 0x124A DUP2 PUSH2 0x1238 JUMP JUMPDEST DUP3 MSTORE POP POP JUMP JUMPDEST PUSH0 PUSH1 0x40 DUP3 ADD SWAP1 POP PUSH2 0x1263 PUSH0 DUP4 ADD DUP6 PUSH2 0x1241 JUMP JUMPDEST PUSH2 0x1270 PUSH1 0x20 DUP4 ADD DUP5 PUSH2 0x1241 JUMP JUMPDEST SWAP4 SWAP3 POP POP POP JUMP JUMPDEST PUSH2 0x1280 DUP2 PUSH2 0x1238 JUMP JUMPDEST DUP2 EQ PUSH2 0x128A JUMPI PUSH0 DUP1 REVERT JUMPDEST POP JUMP JUMPDEST PUSH0 DUP2 CALLDATALOAD SWAP1 POP PUSH2 0x129B DUP2 PUSH2 0x1277 JUMP JUMPDEST SWAP3 SWAP2 POP POP JUMP JUMPDEST PUSH0 DUP1 PUSH0 DUP1 PUSH1 0x60 DUP6 DUP8 SUB SLT ISZERO PUSH2 0x12B9 JUMPI PUSH2 0x12B8 PUSH2 0xF59 JUMP JUMPDEST JUMPDEST PUSH0 PUSH2 0x12C6 DUP8 DUP3 DUP9 ADD PUSH2 0x128D JUMP JUMPDEST SWAP5 POP POP PUSH1 0x20 PUSH2 0x12D7 DUP8 DUP3 DUP9 ADD PUSH2 0x128D JUMP JUMPDEST SWAP4 POP POP PUSH1 0x40 DUP6 ADD CALLDATALOAD PUSH8 0xFFFFFFFFFFFFFFFF DUP2 GT ISZERO PUSH2 0x12F8 JUMPI PUSH2 0x12F7 PUSH2 0xF5D JUMP JUMPDEST JUMPDEST PUSH2 0x1304 DUP8 DUP3 DUP9 ADD PUSH2 0x1023 JUMP JUMPDEST SWAP3 POP SWAP3 POP POP SWAP3 SWAP6 SWAP2 SWAP5 POP SWAP3 POP JUMP JUMPDEST PUSH0 PUSH1 0x20 DUP3 DUP5 SUB SLT ISZERO PUSH2 0x1327 JUMPI PUSH2 0x1326 PUSH2 0xF59 JUMP JUMPDEST JUMPDEST PUSH0 PUSH2 0x1334 DUP5 DUP3 DUP6 ADD PUSH2 0x112F JUMP JUMPDEST SWAP2 POP POP SWAP3 SWAP2 POP POP JUMP JUMPDEST PUSH0 DUP2 MLOAD SWAP1 POP PUSH2 0x134B DUP2 PUSH2 0x1178 JUMP JUMPDEST SWAP3 SWAP2 POP POP JUMP JUMPDEST PUSH0 DUP2 PUSH1 0x2 SIGNEXTEND SWAP1 POP SWAP2 SWAP1 POP JUMP JUMPDEST PUSH2 0x1366 DUP2 PUSH2 0x1351 JUMP JUMPDEST DUP2 EQ PUSH2 0x1370 JUMPI PUSH0 DUP1 REVERT JUMPDEST POP JUMP JUMPDEST PUSH0 DUP2 MLOAD SWAP1 POP PUSH2 0x1381 DUP2 PUSH2 0x135D JUMP JUMPDEST SWAP3 SWAP2 POP POP JUMP JUMPDEST PUSH0 DUP1 PUSH1 0x40 DUP4 DUP6 SUB SLT ISZERO PUSH2 0x139D JUMPI PUSH2 0x139C PUSH2 0xF59 JUMP JUMPDEST JUMPDEST PUSH0 PUSH2 0x13AA DUP6 DUP3 DUP7 ADD PUSH2 0x133D JUMP JUMPDEST SWAP3 POP POP PUSH1 0x20 PUSH2 0x13BB DUP6 DUP3 DUP7 ADD PUSH2 0x1373 JUMP JUMPDEST SWAP2 POP POP SWAP3 POP SWAP3 SWAP1 POP JUMP JUMPDEST PUSH0 DUP2 CALLDATALOAD SWAP1 POP PUSH2 0x13D3 DUP2 PUSH2 0x135D JUMP JUMPDEST SWAP3 SWAP2 POP POP JUMP JUMPDEST PUSH0 PUSH1 0x20 DUP3 DUP5 SUB SLT ISZERO PUSH2 0x13EE JUMPI PUSH2 0x13ED PUSH2 0xF59 JUMP JUMPDEST JUMPDEST PUSH0 PUSH2 0x13FB DUP5 DUP3 DUP6 ADD PUSH2 0x13C5 JUMP JUMPDEST SWAP2 POP POP SWAP3 SWAP2 POP POP JUMP JUMPDEST PUSH0 DUP2 MLOAD SWAP1 POP PUSH2 0x1412 DUP2 PUSH2 0x1119 JUMP JUMPDEST SWAP3 SWAP2 POP POP JUMP JUMPDEST PUSH0 PUSH1 0x20 DUP3 DUP5 SUB SLT ISZERO PUSH2 0x142D JUMPI PUSH2 0x142C PUSH2 0xF59 JUMP JUMPDEST JUMPDEST PUSH0 PUSH2 0x143A DUP5 DUP3 DUP6 ADD PUSH2 0x1404 JUMP JUMPDEST SWAP2 POP POP SWAP3 SWAP2 POP POP JUMP JUMPDEST PUSH2 0x144C DUP2 PUSH2 0x1108 JUMP JUMPDEST DUP3 MSTORE POP POP JUMP JUMPDEST PUSH1 0x60 DUP3 ADD PUSH0 DUP3 ADD MLOAD PUSH2 0x1466 PUSH0 DUP6 ADD DUP3 PUSH2 0x1443 JUMP JUMPDEST POP PUSH1 0x20 DUP3 ADD MLOAD PUSH2 0x1479 PUSH1 0x20 DUP6 ADD DUP3 PUSH2 0x1443 JUMP JUMPDEST POP PUSH1 0x40 DUP3 ADD MLOAD PUSH2 0x148C PUSH1 0x40 DUP6 ADD DUP3 PUSH2 0x1443 JUMP JUMPDEST POP POP POP POP JUMP JUMPDEST PUSH0 PUSH1 0x60 DUP3 ADD SWAP1 POP PUSH2 0x14A5 PUSH0 DUP4 ADD DUP5 PUSH2 0x1452 JUMP JUMPDEST SWAP3 SWAP2 POP POP JUMP JUMPDEST PUSH2 0x14B4 DUP2 PUSH2 0x1108 JUMP JUMPDEST DUP3 MSTORE POP POP JUMP JUMPDEST PUSH2 0x14C3 DUP2 PUSH2 0x1351 JUMP JUMPDEST DUP3 MSTORE POP POP JUMP JUMPDEST PUSH0 PUSH16 0xFFFFFFFFFFFFFFFFFFFFFFFFFFFFFFFF DUP3 AND SWAP1 POP SWAP2 SWAP1 POP JUMP JUMPDEST PUSH2 0x14ED DUP2 PUSH2 0x14C9 JUMP JUMPDEST DUP3 MSTORE POP POP JUMP JUMPDEST PUSH0 DUP2 MLOAD SWAP1 POP SWAP2 SWAP1 POP JUMP JUMPDEST PUSH0 DUP3 DUP3 MSTORE PUSH1 0x20 DUP3 ADD SWAP1 POP SWAP3 SWAP2 POP POP JUMP JUMPDEST PUSH0 JUMPDEST DUP4 DUP2 LT ISZERO PUSH2 0x152A JUMPI DUP1 DUP3 ADD MLOAD DUP2 DUP5 ADD MSTORE PUSH1 0x20 DUP2 ADD SWAP1 POP PUSH2 0x150F JUMP JUMPDEST PUSH0 DUP5 DUP5 ADD MSTORE POP POP POP POP JUMP JUMPDEST PUSH0 PUSH1 0x1F NOT PUSH1 0x1F DUP4 ADD AND SWAP1 POP SWAP2 SWAP1 POP JUMP JUMPDEST PUSH0 PUSH2 0x154F DUP3 PUSH2 0x14F3 JUMP JUMPDEST PUSH2 0x1559 DUP2 DUP6 PUSH2 0x14FD JUMP JUMPDEST SWAP4 POP PUSH2 0x1569 DUP2 DUP6 PUSH1 0x20 DUP7 ADD PUSH2 0x150D JUMP JUMPDEST PUSH2 0x1572 DUP2 PUSH2 0x1535 JUMP JUMPDEST DUP5 ADD SWAP2 POP POP SWAP3 SWAP2 POP POP JUMP JUMPDEST PUSH0 PUSH1 0xA0 DUP3 ADD SWAP1 POP PUSH2 0x1590 PUSH0 DUP4 ADD DUP9 PUSH2 0x14AB JUMP JUMPDEST PUSH2 0x159D PUSH1 0x20 DUP4 ADD DUP8 PUSH2 0x14BA JUMP JUMPDEST PUSH2 0x15AA PUSH1 0x40 DUP4 ADD DUP7 PUSH2 0x14BA JUMP JUMPDEST PUSH2 0x15B7 PUSH1 0x60 DUP4 ADD DUP6 PUSH2 0x14E4 JUMP JUMPDEST DUP2 DUP2 SUB PUSH1 0x80 DUP4 ADD MSTORE PUSH2 0x15C9 DUP2 DUP5 PUSH2 0x1545 JUMP JUMPDEST SWAP1 POP SWAP7 SWAP6 POP POP POP POP POP POP JUMP JUMPDEST PUSH0 DUP2 MLOAD SWAP1 POP PUSH2 0x15E3 DUP2 PUSH2 0xFED JUMP JUMPDEST SWAP3 SWAP2 POP POP JUMP JUMPDEST PUSH0 DUP1 PUSH1 0x40 DUP4 DUP6 SUB SLT ISZERO PUSH2 0x15FF JUMPI PUSH2 0x15FE PUSH2 0xF59 JUMP JUMPDEST JUMPDEST PUSH0 PUSH2 0x160C DUP6 DUP3 DUP7 ADD PUSH2 0x15D5 JUMP JUMPDEST SWAP3 POP POP PUSH1 0x20 PUSH2 0x161D DUP6 DUP3 DUP7 ADD PUSH2 0x15D5 JUMP JUMPDEST SWAP2 POP POP SWAP3 POP SWAP3 SWAP1 POP JUMP JUMPDEST PUSH0 DUP1 REVERT JUMPDEST PUSH32 0x4E487B7100000000000000000000000000000000000000000000000000000000 PUSH0 MSTORE PUSH1 0x41 PUSH1 0x4 MSTORE PUSH1 0x24 PUSH0 REVERT JUMPDEST PUSH2 0x1661 DUP3 PUSH2 0x1535 JUMP JUMPDEST DUP2 ADD DUP2 DUP2 LT PUSH8 0xFFFFFFFFFFFFFFFF DUP3 GT OR ISZERO PUSH2 0x1680 JUMPI PUSH2 0x167F PUSH2 0x162B JUMP JUMPDEST JUMPDEST DUP1 PUSH1 0x40 MSTORE POP POP POP JUMP JUMPDEST PUSH0 PUSH2 0x1692 PUSH2 0xF50 JUMP JUMPDEST SWAP1 POP PUSH2 0x169E DUP3 DUP3 PUSH2 0x1658 JUMP JUMPDEST SWAP2 SWAP1 POP JUMP JUMPDEST PUSH0 PUSH1 0x60 DUP3 DUP5 SUB SLT ISZERO PUSH2 0x16B8 JUMPI PUSH2 0x16B7 PUSH2 0x1627 JUMP JUMPDEST JUMPDEST PUSH2 0x16C2 PUSH1 0x60 PUSH2 0x1689 JUMP JUMPDEST SWAP1 POP PUSH0 PUSH2 0x16D1 DUP5 DUP3 DUP6 ADD PUSH2 0x112F JUMP JUMPDEST PUSH0 DUP4 ADD MSTORE POP PUSH1 0x20 PUSH2 0x16E4 DUP5 DUP3 DUP6 ADD PUSH2 0x112F JUMP JUMPDEST PUSH1 0x20 DUP4 ADD MSTORE POP PUSH1 0x40 PUSH2 0x16F8 DUP5 DUP3 DUP6 ADD PUSH2 0x112F JUMP JUMPDEST PUSH1 0x40 DUP4 ADD MSTORE POP SWAP3 SWAP2 POP POP JUMP JUMPDEST PUSH0 PUSH1 0x60 DUP3 DUP5 SUB SLT ISZERO PUSH2 0x1719 JUMPI PUSH2 0x1718 PUSH2 0xF59 JUMP JUMPDEST JUMPDEST PUSH0 PUSH2 0x1726 DUP5 DUP3 DUP6 ADD PUSH2 0x16A3 JUMP JUMPDEST SWAP2 POP POP SWAP3 SWAP2 POP POP JUMP JUMPDEST PUSH0 PUSH1 0x60 DUP3 ADD SWAP1 POP PUSH2 0x1742 PUSH0 DUP4 ADD DUP7 PUSH2 0x14AB JUMP JUMPDEST PUSH2 0x174F PUSH1 0x20 DUP4 ADD DUP6 PUSH2 0x14AB JUMP JUMPDEST PUSH2 0x175C PUSH1 0x40 DUP4 ADD DUP5 PUSH2 0xFB7 JUMP JUMPDEST SWAP5 SWAP4 POP POP POP POP JUMP JUMPDEST PUSH32 0x4E487B7100000000000000000000000000000000000000000000000000000000 PUSH0 MSTORE PUSH1 0x11 PUSH1 0x4 MSTORE PUSH1 0x24 PUSH0 REVERT JUMPDEST PUSH0 PUSH2 0x179B DUP3 PUSH2 0x10E9 JUMP JUMPDEST SWAP2 POP PUSH2 0x17A6 DUP4 PUSH2 0x10E9 JUMP JUMPDEST SWAP3 POP DUP3 DUP3 SUB SWAP1 POP PUSH20 0xFFFFFFFFFFFFFFFFFFFFFFFFFFFFFFFFFFFFFFFF DUP2 GT ISZERO PUSH2 0x17D2 JUMPI PUSH2 0x17D1 PUSH2 0x1764 JUMP JUMPDEST JUMPDEST SWAP3 SWAP2 POP POP JUMP JUMPDEST PUSH0 PUSH2 0x17E2 DUP3 PUSH2 0x10E9 JUMP JUMPDEST SWAP2 POP PUSH2 0x17ED DUP4 PUSH2 0x10E9 JUMP JUMPDEST SWAP3 POP DUP3 DUP3 ADD SWAP1 POP PUSH20 0xFFFFFFFFFFFFFFFFFFFFFFFFFFFFFFFFFFFFFFFF DUP2 GT ISZERO PUSH2 0x1819 JUMPI PUSH2 0x1818 PUSH2 0x1764 JUMP JUMPDEST JUMPDEST SWAP3 SWAP2 POP POP JUMP JUMPDEST PUSH2 0x1828 DUP2 PUSH2 0x1143 JUMP JUMPDEST DUP3 MSTORE POP POP JUMP JUMPDEST PUSH2 0x1837 DUP2 PUSH2 0x10E9 JUMP JUMPDEST DUP3 MSTORE POP POP JUMP JUMPDEST DUP3 DUP2 DUP4 CALLDATACOPY PUSH0 DUP4 DUP4 ADD MSTORE POP POP POP JUMP JUMPDEST PUSH0 PUSH2 0x1856 DUP4 DUP6 PUSH2 0x14FD JUMP JUMPDEST SWAP4 POP PUSH2 0x1863 DUP4 DUP6 DUP5 PUSH2 0x183D JUMP JUMPDEST PUSH2 0x186C DUP4 PUSH2 0x1535 JUMP JUMPDEST DUP5 ADD SWAP1 POP SWAP4 SWAP3 POP POP POP JUMP JUMPDEST PUSH0 PUSH1 0xA0 DUP3 ADD SWAP1 POP PUSH2 0x188A PUSH0 DUP4 ADD DUP10 PUSH2 0x14AB JUMP JUMPDEST PUSH2 0x1897 PUSH1 0x20 DUP4 ADD DUP9 PUSH2 0x181F JUMP JUMPDEST PUSH2 0x18A4 PUSH1 0x40 DUP4 ADD DUP8 PUSH2 0xFB7 JUMP JUMPDEST PUSH2 0x18B1 PUSH1 0x60 DUP4 ADD DUP7 PUSH2 0x182E JUMP JUMPDEST DUP2 DUP2 SUB PUSH1 0x80 DUP4 ADD MSTORE PUSH2 0x18C4 DUP2 DUP5 DUP7 PUSH2 0x184B JUMP JUMPDEST SWAP1 POP SWAP8 SWAP7 POP POP POP POP POP POP POP JUMP JUMPDEST PUSH0 DUP2 MLOAD SWAP1 POP PUSH2 0x18DF DUP2 PUSH2 0x1277 JUMP JUMPDEST SWAP3 SWAP2 POP POP JUMP JUMPDEST PUSH0 DUP1 PUSH1 0x40 DUP4 DUP6 SUB SLT ISZERO PUSH2 0x18FB JUMPI PUSH2 0x18FA PUSH2 0xF59 JUMP JUMPDEST JUMPDEST PUSH0 PUSH2 0x1908 DUP6 DUP3 DUP7 ADD PUSH2 0x18D1 JUMP JUMPDEST SWAP3 POP POP PUSH1 0x20 PUSH2 0x1919 DUP6 DUP3 DUP7 ADD PUSH2 0x18D1 JUMP JUMPDEST SWAP2 POP POP SWAP3 POP SWAP3 SWAP1 POP JUMP JUMPDEST PUSH0 PUSH2 0x192D DUP3 PUSH2 0x1238 JUMP JUMPDEST SWAP2 POP PUSH32 0x8000000000000000000000000000000000000000000000000000000000000000 DUP3 SUB PUSH2 0x195F JUMPI PUSH2 0x195E PUSH2 0x1764 JUMP JUMPDEST JUMPDEST DUP2 PUSH0 SUB SWAP1 POP SWAP2 SWAP1 POP JUMP JUMPDEST PUSH0 PUSH2 0x1973 DUP3 PUSH2 0x1351 JUMP JUMPDEST SWAP2 POP PUSH32 0xFFFFFFFFFFFFFFFFFFFFFFFFFFFFFFFFFFFFFFFFFFFFFFFFFFFFFFFFFF800000 DUP3 SUB PUSH2 0x19A5 JUMPI PUSH2 0x19A4 PUSH2 0x1764 JUMP JUMPDEST JUMPDEST DUP2 PUSH0 SUB SWAP1 POP SWAP2 SWAP1 POP JUMP JUMPDEST PUSH0 DUP3 DUP3 MSTORE PUSH1 0x20 DUP3 ADD SWAP1 POP SWAP3 SWAP2 POP POP JUMP JUMPDEST PUSH32 0x5400000000000000000000000000000000000000000000000000000000000000 PUSH0 DUP3 ADD MSTORE POP JUMP JUMPDEST PUSH0 PUSH2 0x19F3 PUSH1 0x1 DUP4 PUSH2 0x19AF JUMP JUMPDEST SWAP2 POP PUSH2 0x19FE DUP3 PUSH2 0x19BF JUMP JUMPDEST PUSH1 0x20 DUP3 ADD SWAP1 POP SWAP2 SWAP1 POP JUMP JUMPDEST PUSH0 PUSH1 0x20 DUP3 ADD SWAP1 POP DUP2 DUP2 SUB PUSH0 DUP4 ADD MSTORE PUSH2 0x1A20 DUP2 PUSH2 0x19E7 JUMP JUMPDEST SWAP1 POP SWAP2 SWAP1 POP JUMP JUMPDEST PUSH0 PUSH2 0x1A31 DUP3 PUSH2 0xFAE JUMP JUMPDEST SWAP2 POP PUSH2 0x1A3C DUP4 PUSH2 0xFAE JUMP JUMPDEST SWAP3 POP DUP3 DUP3 MUL PUSH2 0x1A4A DUP2 PUSH2 0xFAE JUMP JUMPDEST SWAP2 POP DUP3 DUP3 DIV DUP5 EQ DUP4 ISZERO OR PUSH2 0x1A61 JUMPI PUSH2 0x1A60 PUSH2 0x1764 JUMP JUMPDEST JUMPDEST POP SWAP3 SWAP2 POP POP JUMP JUMPDEST PUSH32 0x4E487B7100000000000000000000000000000000000000000000000000000000 PUSH0 MSTORE PUSH1 0x12 PUSH1 0x4 MSTORE PUSH1 0x24 PUSH0 REVERT JUMPDEST PUSH0 PUSH2 0x1A9F DUP3 PUSH2 0xFAE JUMP JUMPDEST SWAP2 POP PUSH2 0x1AAA DUP4 PUSH2 0xFAE JUMP JUMPDEST SWAP3 POP DUP3 PUSH2 0x1ABA JUMPI PUSH2 0x1AB9 PUSH2 0x1A68 JUMP JUMPDEST JUMPDEST DUP3 DUP3 DIV SWAP1 POP SWAP3 SWAP2 POP POP JUMP JUMPDEST PUSH0 PUSH2 0x1ACF DUP3 PUSH2 0xFAE JUMP JUMPDEST SWAP2 POP PUSH2 0x1ADA DUP4 PUSH2 0xFAE JUMP JUMPDEST SWAP3 POP DUP3 PUSH2 0x1AEA JUMPI PUSH2 0x1AE9 PUSH2 0x1A68 JUMP JUMPDEST JUMPDEST DUP3 DUP3 MOD SWAP1 POP SWAP3 SWAP2 POP POP JUMP JUMPDEST PUSH0 PUSH2 0x1AFF DUP3 PUSH2 0xFAE JUMP JUMPDEST SWAP2 POP PUSH2 0x1B0A DUP4 PUSH2 0xFAE JUMP JUMPDEST SWAP3 POP DUP3 DUP3 ADD SWAP1 POP DUP1 DUP3 GT ISZERO PUSH2 0x1B22 JUMPI PUSH2 0x1B21 PUSH2 0x1764 JUMP JUMPDEST JUMPDEST SWAP3 SWAP2 POP POP JUMP JUMPDEST PUSH0 PUSH1 0x60 DUP3 ADD SWAP1 POP PUSH2 0x1B3B PUSH0 DUP4 ADD DUP7 PUSH2 0xFB7 JUMP JUMPDEST PUSH2 0x1B48 PUSH1 0x20 DUP4 ADD DUP6 PUSH2 0xFB7 JUMP JUMPDEST PUSH2 0x1B55 PUSH1 0x40 DUP4 ADD DUP5 PUSH2 0xFB7 JUMP JUMPDEST SWAP5 SWAP4 POP POP POP POP JUMP INVALID LOG2 PUSH5 0x6970667358 0x22 SLT KECCAK256 0xB1 SGT LOG4 PUSH27 0xD156366390B7F5BF4C3CDC07B84D33E6CFD8FFE61A56D163A9953D LT PUSH5 0x736F6C6343 STOP ADDMOD XOR STOP CALLER "
		},
		"gasEstimates": {
			"creation": {
				"codeDepositCost": "1411800",
				"executionCost": "1470",
				"totalCost": "1413270"
			},
			"external": {
				"mint((address,int24,int24,uint256,uint256,uint256,uint256))": "infinite",
				"mintCallback(uint256,uint256,bytes)": "infinite",
				"swap(address,bool,uint256,uint160,bytes)": "infinite",
				"swapCallback(int256,int256,bytes)": "infinite"
			}
		},
		"methodIdentifiers": {
			"mint((address,int24,int24,uint256,uint256,uint256,uint256))": "190c1752",
			"mintCallback(uint256,uint256,bytes)": "9f382e9b",
			"swap(address,bool,uint256,uint160,bytes)": "dd5a12d8",
			"swapCallback(int256,int256,bytes)": "fa483e72"
		}
	},
	"abi": [
		{
			"inputs": [
				{
					"internalType": "uint256",
					"name": "x",
					"type": "uint256"
				},
				{
					"internalType": "uint256",
					"name": "y",
					"type": "uint256"
				},
				{
					"internalType": "uint256",
					"name": "denominator",
					"type": "uint256"
				}
			],
			"name": "PRBMath_MulDiv_Overflow",
			"type": "error"
		},
		{
			"inputs": [
				{
					"internalType": "uint256",
					"name": "amount0",
					"type": "uint256"
				},
				{
					"internalType": "uint256",
					"name": "amount1",
					"type": "uint256"
				}
			],
			"name": "SlippageCheckFailed",
			"type": "error"
		},
		{
			"inputs": [
				{
					"components": [
						{
							"internalType": "address",
							"name": "poolAddress",
							"type": "address"
						},
						{
							"internalType": "int24",
							"name": "lowerTick",
							"type": "int24"
						},
						{
							"internalType": "int24",
							"name": "upperTick",
							"type": "int24"
						},
						{
							"internalType": "uint256",
							"name": "amount0Desired",
							"type": "uint256"
						},
						{
							"internalType": "uint256",
							"name": "amount1Desired",
							"type": "uint256"
						},
						{
							"internalType": "uint256",
							"name": "amount0Min",
							"type": "uint256"
						},
						{
							"internalType": "uint256",
							"name": "amount1Min",
							"type": "uint256"
						}
					],
					"internalType": "struct IManager.MintParams",
					"name": "params",
					"type": "tuple"
				}
			],
			"name": "mint",
			"outputs": [
				{
					"internalType": "uint256",
					"name": "amount0",
					"type": "uint256"
				},
				{
					"internalType": "uint256",
					"name": "amount1",
					"type": "uint256"
				}
			],
			"stateMutability": "nonpayable",
			"type": "function"
		},
		{
			"inputs": [
				{
					"internalType": "uint256",
					"name": "amount0",
					"type": "uint256"
				},
				{
					"internalType": "uint256",
					"name": "amount1",
					"type": "uint256"
				},
				{
					"internalType": "bytes",
					"name": "data",
					"type": "bytes"
				}
			],
			"name": "mintCallback",
			"outputs": [],
			"stateMutability": "nonpayable",
			"type": "function"
		},
		{
			"inputs": [
				{
					"internalType": "address",
					"name": "poolAddress_",
					"type": "address"
				},
				{
					"internalType": "bool",
					"name": "zeroForOne",
					"type": "bool"
				},
				{
					"internalType": "uint256",
					"name": "amountSpecified",
					"type": "uint256"
				},
				{
					"internalType": "uint160",
					"name": "sqrtPriceLimitX96",
					"type": "uint160"
				},
				{
					"internalType": "bytes",
					"name": "data",
					"type": "bytes"
				}
			],
			"name": "swap",
			"outputs": [
				{
					"internalType": "int256",
					"name": "",
					"type": "int256"
				},
				{
					"internalType": "int256",
					"name": "",
					"type": "int256"
				}
			],
			"stateMutability": "nonpayable",
			"type": "function"
		},
		{
			"inputs": [
				{
					"internalType": "int256",
					"name": "amount0",
					"type": "int256"
				},
				{
					"internalType": "int256",
					"name": "amount1",
					"type": "int256"
				},
				{
					"internalType": "bytes",
					"name": "data",
					"type": "bytes"
				}
			],
			"name": "swapCallback",
			"outputs": [],
			"stateMutability": "nonpayable",
			"type": "function"
		}
	]
}