{
	"data": {
		"bytecode": {
			"linkReferences": {},
			"object": "60c060405234801562000010575f80fd5b506040516200417d3803806200417d833981810160405281019062000036919062000214565b8373ffffffffffffffffffffffffffffffffffffffff1660808173ffffffffffffffffffffffffffffffffffffffff16815250508273ffffffffffffffffffffffffffffffffffffffff1660a08173ffffffffffffffffffffffffffffffffffffffff168152505060405180604001604052808373ffffffffffffffffffffffffffffffffffffffff1681526020018260020b8152505f80820151815f015f6101000a81548173ffffffffffffffffffffffffffffffffffffffff021916908373ffffffffffffffffffffffffffffffffffffffff1602179055506020820151815f0160146101000a81548162ffffff021916908360020b62ffffff1602179055509050505050505062000283565b5f80fd5b5f73ffffffffffffffffffffffffffffffffffffffff82169050919050565b5f620001748262000149565b9050919050565b620001868162000168565b811462000191575f80fd5b50565b5f81519050620001a4816200017b565b92915050565b620001b58162000149565b8114620001c0575f80fd5b50565b5f81519050620001d381620001aa565b92915050565b5f8160020b9050919050565b620001f081620001d9565b8114620001fb575f80fd5b50565b5f815190506200020e81620001e5565b92915050565b5f805f80608085870312156200022f576200022e62000145565b5b5f6200023e8782880162000194565b9450506020620002518782880162000194565b93505060406200026487828801620001c3565b92505060606200027787828801620001fe565b91505092959194509250565b60805160a051613e92620002eb5f395f81816108060152818161093a01528181610ad001528181610c150152818161136201526120c401525f818161022b0152818161076a015281816108a901528181610a2c015281816114bc01526120250152613e925ff3fe608060405234801561000f575f80fd5b506004361061009c575f3560e01c8063514ea4bf11610064578063514ea4bf146101485780635339c29614610178578063d21220a7146101a8578063dd5a12d8146101c6578063f30dba93146101f75761009c565b80630dfe1681146100a05780631a686502146100be5780633850c7bd146100dc5780633c8a7d8d146100fb5780634a1823921461012c575b5f80fd5b6100a8610229565b6040516100b59190612e3e565b60405180910390f35b6100c661024d565b6040516100d39190612e81565b60405180910390f35b6100e461026e565b6040516100f2929190612ec4565b60405180910390f35b61011560048036038101906101109190612fd2565b6102a9565b604051610123929190613080565b60405180910390f35b610146600480360381019061014191906130d1565b610767565b005b610162600480360381019061015d9190613175565b610bc9565b60405161016f9190612e81565b60405180910390f35b610192600480360381019061018d91906131d6565b610bfe565b60405161019f9190613201565b60405180910390f35b6101b0610c13565b6040516101bd9190612e3e565b60405180910390f35b6101e060048036038101906101db9190613279565b610c37565b6040516101ee929190613327565b60405180910390f35b610211600480360381019061020c919061334e565b6116c1565b604051610220939291906133a3565b60405180910390f35b7f000000000000000000000000000000000000000000000000000000000000000081565b60015f9054906101000a90046fffffffffffffffffffffffffffffffff1681565b5f805f015f9054906101000a900473ffffffffffffffffffffffffffffffffffffffff1690805f0160149054906101000a900460020b905082565b5f808560020b8760020b1215806102e557507ffffffffffffffffffffffffffffffffffffffffffffffffffffffffffff2761860020b8760020b125b8061031e57507ffffffffffffffffffffffffffffffffffffffffffffffffffffffffffff2761861031590613405565b60020b8660020b135b15610355576040517f064847d000000000000000000000000000000000000000000000000000000000815260040160405180910390fd5b5f856fffffffffffffffffffffffffffffffff16036103a0576040517f1007454800000000000000000000000000000000000000000000000000000000815260040160405180910390fd5b5f6103b988875f600261171a909392919063ffffffff16565b90505f6103d588886001600261171a909392919063ffffffff16565b905081156103f5576103f4896001600361189b9092919063ffffffff16565b5b801561041357610412886001600361189b9092919063ffffffff16565b5b5f61042c8b8b8b6004611904909392919063ffffffff16565b9050610441888261194990919063ffffffff16565b5f806040518060400160405290815f82015f9054906101000a900473ffffffffffffffffffffffffffffffffffffffff1673ffffffffffffffffffffffffffffffffffffffff1673ffffffffffffffffffffffffffffffffffffffff1681526020015f820160149054906101000a900460020b60020b60020b8152505090508a60020b816020015160020b12156104f4576104ed6104de8c6119b9565b6104e78c6119b9565b8b611e6d565b95506105b8565b8960020b816020015160020b12156105995761051c815f01516105168c6119b9565b8b611e6d565b9550610534815f015161052e8d6119b9565b8b611f51565b945061055d60015f9054906101000a90046fffffffffffffffffffffffffffffffff168a611fe5565b60015f6101000a8154816fffffffffffffffffffffffffffffffff02191690836fffffffffffffffffffffffffffffffff1602179055506105b7565b6105b46105a58c6119b9565b6105ae8c6119b9565b8b611f51565b94505b5b5f805f8811156105cd576105ca612022565b91505b5f8711156105e0576105dd6120c1565b90505b3373ffffffffffffffffffffffffffffffffffffffff16639f382e9b89898d8d6040518563ffffffff1660e01b815260040161061f94939291906134a5565b5f604051808303815f87803b158015610636575f80fd5b505af1158015610648573d5f803e3d5ffd5b505050505f8811801561066c575061065e612022565b888361066a91906134e3565b115b156106a3576040517f098fb56100000000000000000000000000000000000000000000000000000000815260040160405180910390fd5b5f871180156106c357506106b56120c1565b87826106c191906134e3565b115b156106fa576040517f098fb56100000000000000000000000000000000000000000000000000000000815260040160405180910390fd5b8b60020b8d60020b8f73ffffffffffffffffffffffffffffffffffffffff167f7a53080ba414158be7ec69b987b5fb7d07dee101fe85488f0853ae16239d0bde338f8d8d60405161074e9493929190613516565b60405180910390a4505050505050965096945050505050565b5f7f000000000000000000000000000000000000000000000000000000000000000073ffffffffffffffffffffffffffffffffffffffff166370a08231306040518263ffffffff1660e01b81526004016107c19190612e3e565b6020604051808303815f875af11580156107dd573d5f803e3d5ffd5b505050506040513d601f19601f82011682018060405250810190610801919061356d565b90505f7f000000000000000000000000000000000000000000000000000000000000000073ffffffffffffffffffffffffffffffffffffffff166370a08231306040518263ffffffff1660e01b815260040161085d9190612e3e565b6020604051808303815f875af1158015610879573d5f803e3d5ffd5b505050506040513d601f19601f8201168201806040525081019061089d919061356d565b90505f861115610930577f000000000000000000000000000000000000000000000000000000000000000073ffffffffffffffffffffffffffffffffffffffff1663a9059cbb33886040518363ffffffff1660e01b8152600401610902929190613598565b5f604051808303815f87803b158015610919575f80fd5b505af115801561092b573d5f803e3d5ffd5b505050505b5f8511156109c1577f000000000000000000000000000000000000000000000000000000000000000073ffffffffffffffffffffffffffffffffffffffff1663a9059cbb33876040518363ffffffff1660e01b8152600401610993929190613598565b5f604051808303815f87803b1580156109aa575f80fd5b505af11580156109bc573d5f803e3d5ffd5b505050505b3373ffffffffffffffffffffffffffffffffffffffff1663e373923885856040518363ffffffff1660e01b81526004016109fc9291906135bf565b5f604051808303815f87803b158015610a13575f80fd5b505af1158015610a25573d5f803e3d5ffd5b50505050817f000000000000000000000000000000000000000000000000000000000000000073ffffffffffffffffffffffffffffffffffffffff166370a08231306040518263ffffffff1660e01b8152600401610a839190612e3e565b6020604051808303815f875af1158015610a9f573d5f803e3d5ffd5b505050506040513d601f19601f82011682018060405250810190610ac3919061356d565b1015610acd575f80fd5b807f000000000000000000000000000000000000000000000000000000000000000073ffffffffffffffffffffffffffffffffffffffff166370a08231306040518263ffffffff1660e01b8152600401610b279190612e3e565b6020604051808303815f875af1158015610b43573d5f803e3d5ffd5b505050506040513d601f19601f82011682018060405250810190610b67919061356d565b1015610b71575f80fd5b3373ffffffffffffffffffffffffffffffffffffffff167f1c1db1f1d6a01e51fec24bb54087b65fe5430f692280e70d92f718eb72ae76b78787604051610bb9929190613080565b60405180910390a2505050505050565b6004602052805f5260405f205f91509050805f015f9054906101000a90046fffffffffffffffffffffffffffffffff16905081565b6003602052805f5260405f205f915090505481565b7f000000000000000000000000000000000000000000000000000000000000000081565b5f805f806040518060400160405290815f82015f9054906101000a900473ffffffffffffffffffffffffffffffffffffffff1673ffffffffffffffffffffffffffffffffffffffff1673ffffffffffffffffffffffffffffffffffffffff1681526020015f820160149054906101000a900460020b60020b60020b8152505090505f60015f9054906101000a90046fffffffffffffffffffffffffffffffff16905088610d5f57815f015173ffffffffffffffffffffffffffffffffffffffff168773ffffffffffffffffffffffffffffffffffffffff161080610d5a575073fffd8963efd1fc6a506488495d951d5263988d2673ffffffffffffffffffffffffffffffffffffffff168773ffffffffffffffffffffffffffffffffffffffff16115b610dcd565b815f015173ffffffffffffffffffffffffffffffffffffffff168773ffffffffffffffffffffffffffffffffffffffff161180610dcc57506401000276a373ffffffffffffffffffffffffffffffffffffffff168773ffffffffffffffffffffffffffffffffffffffff16105b5b15610e04576040517fb53bbacc00000000000000000000000000000000000000000000000000000000815260040160405180910390fd5b5f6040518060a001604052808a81526020015f8152602001845f015173ffffffffffffffffffffffffffffffffffffffff168152602001846020015160020b8152602001836fffffffffffffffffffffffffffffffff1681525090505b5f815f0151118015610ea357508773ffffffffffffffffffffffffffffffffffffffff16816040015173ffffffffffffffffffffffffffffffffffffffff1614155b1561121757610eb0612d9e565b8160400151815f019073ffffffffffffffffffffffffffffffffffffffff16908173ffffffffffffffffffffffffffffffffffffffff1681525050610f08826060015160018d6003612160909392919063ffffffff16565b826020018360400182151515158152508260020b60020b8152505050610f3181602001516119b9565b816060019073ffffffffffffffffffffffffffffffffffffffff16908173ffffffffffffffffffffffffffffffffffffffff1681525050610fff82604001518c610fad578a73ffffffffffffffffffffffffffffffffffffffff16836060015173ffffffffffffffffffffffffffffffffffffffff1611610fe1565b8a73ffffffffffffffffffffffffffffffffffffffff16836060015173ffffffffffffffffffffffffffffffffffffffff16105b610fef578260600151610ff1565b8a5b8460800151855f015161233e565b84604001846080018560a00183815250838152508373ffffffffffffffffffffffffffffffffffffffff1673ffffffffffffffffffffffffffffffffffffffff168152505050508060800151825f0181815161105b91906135e1565b915081815250508060a001518260200181815161107891906134e3565b91508181525050806060015173ffffffffffffffffffffffffffffffffffffffff16826040015173ffffffffffffffffffffffffffffffffffffffff16036111b757806040015115611180575f6110dd826020015160026123ea90919063ffffffff16565b90508b156110f257806110ef90613614565b90505b611100836080015182611fe5565b83608001906fffffffffffffffffffffffffffffffff1690816fffffffffffffffffffffffffffffffff16815250505f83608001516fffffffffffffffffffffffffffffffff160361117e576040517f4323a55500000000000000000000000000000000000000000000000000000000815260040160405180910390fd5b505b8a61118f5780602001516111a1565b600181602001516111a0919061365a565b5b826060019060020b908160020b81525050611211565b805f015173ffffffffffffffffffffffffffffffffffffffff16826040015173ffffffffffffffffffffffffffffffffffffffff1614611210576111fe826040015161241e565b826060019060020b908160020b815250505b5b50610e61565b826020015160020b816060015160020b146112a157806040015181606001515f80015f805f0160148491906101000a81548162ffffff021916908360020b62ffffff1602179055508391906101000a81548173ffffffffffffffffffffffffffffffffffffffff021916908373ffffffffffffffffffffffffffffffffffffffff16021790555050505b80608001516fffffffffffffffffffffffffffffffff16826fffffffffffffffffffffffffffffffff161461130d57806080015160015f6101000a8154816fffffffffffffffffffffffffffffffff02191690836fffffffffffffffffffffffffffffffff1602179055505b89611334578060200151611320906136b4565b815f01518a61132f91906135e1565b611352565b805f01518961134391906135e1565b8160200151611351906136b4565b5b809550819650505089156114ba577f000000000000000000000000000000000000000000000000000000000000000073ffffffffffffffffffffffffffffffffffffffff1663a9059cbb8c866113a7906136b4565b6040518363ffffffff1660e01b81526004016113c4929190613598565b5f604051808303815f87803b1580156113db575f80fd5b505af11580156113ed573d5f803e3d5ffd5b505050505f6113fa612022565b90503373ffffffffffffffffffffffffffffffffffffffff1663fa483e7287878b8b6040518563ffffffff1660e01b815260040161143b94939291906136fa565b5f604051808303815f87803b158015611452575f80fd5b505af1158015611464573d5f803e3d5ffd5b50505050611470612022565b868261147c91906134e3565b11156114b4576040517f098fb56100000000000000000000000000000000000000000000000000000000815260040160405180910390fd5b50611610565b7f000000000000000000000000000000000000000000000000000000000000000073ffffffffffffffffffffffffffffffffffffffff1663a9059cbb8c87611501906136b4565b6040518363ffffffff1660e01b815260040161151e929190613598565b5f604051808303815f87803b158015611535575f80fd5b505af1158015611547573d5f803e3d5ffd5b505050505f6115546120c1565b90503373ffffffffffffffffffffffffffffffffffffffff1663fa483e7287878b8b6040518563ffffffff1660e01b815260040161159594939291906136fa565b5f604051808303815f87803b1580156115ac575f80fd5b505af11580156115be573d5f803e3d5ffd5b505050506115ca6120c1565b85826115d691906134e3565b111561160e576040517f098fb56100000000000000000000000000000000000000000000000000000000815260040160405180910390fd5b505b8a73ffffffffffffffffffffffffffffffffffffffff163373ffffffffffffffffffffffffffffffffffffffff167fc42079f94a6350d7e6235f29174924f928cc2ac818eb64fed8004e115fbcca6787875f80015f9054906101000a900473ffffffffffffffffffffffffffffffffffffffff1686608001515f800160149054906101000a900460020b6040516116ab959493929190613738565b60405180910390a3505050965096945050505050565b6002602052805f5260405f205f91509050805f015f9054906101000a900460ff1690805f0160019054906101000a90046fffffffffffffffffffffffffffffffff1690806001015f9054906101000a9004600f0b905083565b5f80855f8660020b60020b81526020019081526020015f2090505f815f0160019054906101000a90046fffffffffffffffffffffffffffffffff1690505f6117628287611fe5565b90505f826fffffffffffffffffffffffffffffffff161415155f826fffffffffffffffffffffffffffffffff16141515141593505f826fffffffffffffffffffffffffffffffff16036117cb576001835f015f6101000a81548160ff0219169083151502179055505b80835f0160016101000a8154816fffffffffffffffffffffffffffffffff02191690836fffffffffffffffffffffffffffffffff160217905550846118315785600f0b836001015f9054906101000a9004600f0b600f0b61182c9190613789565b611854565b85600f0b836001015f9054906101000a9004600f0b600f0b61185391906137ca565b5b836001015f6101000a8154816fffffffffffffffffffffffffffffffff0219169083600f0b6fffffffffffffffffffffffffffffffff160217905550505050949350505050565b5f81836118a89190613837565b60020b146118b4575f80fd5b5f806118ca83856118c59190613867565b612815565b915091505f8160ff166001901b905080865f8560010b60010b81526020019081526020015f205f8282541892505081905550505050505050565b5f845f85858560405160200161191c93929190613948565b6040516020818303038152906040528051906020012081526020019081526020015f209050949350505050565b5f825f015f9054906101000a90046fffffffffffffffffffffffffffffffff1690505f82826119789190613984565b905080845f015f6101000a8154816fffffffffffffffffffffffffffffffff02191690836fffffffffffffffffffffffffffffffff16021790555050505050565b5f805f8360020b126119ce578260020b6119dc565b8260020b6119db906136b4565b5b90507ffffffffffffffffffffffffffffffffffffffffffffffffffffffffffff27618611a0890613405565b62ffffff16811115611a4f576040517f08c379a0000000000000000000000000000000000000000000000000000000008152600401611a4690613a21565b60405180910390fd5b5f806001831603611a7157700100000000000000000000000000000000611a83565b6ffffcb933bd6fad37aa2d162d1a5940015b70ffffffffffffffffffffffffffffffffff1690505f6002831614611ac55760806ffff97272373d413259a46990580e213a82611ac09190613a3f565b901c90505b5f6004831614611af25760806ffff2e50f5f656932ef12357cf3c7fdcc82611aed9190613a3f565b901c90505b5f6008831614611b1f5760806fffe5caca7e10e4e61c3624eaa0941cd082611b1a9190613a3f565b901c90505b5f6010831614611b4c5760806fffcb9843d60f6159c9db58835c92664482611b479190613a3f565b901c90505b5f6020831614611b795760806fff973b41fa98c081472e6896dfb254c082611b749190613a3f565b901c90505b5f6040831614611ba65760806fff2ea16466c96a3843ec78b326b5286182611ba19190613a3f565b901c90505b5f6080831614611bd35760806ffe5dee046a99a2a811c461f1969c305382611bce9190613a3f565b901c90505b5f610100831614611c015760806ffcbe86c7900a88aedcffc83b479aa3a482611bfc9190613a3f565b901c90505b5f610200831614611c2f5760806ff987a7253ac413176f2b074cf7815e5482611c2a9190613a3f565b901c90505b5f610400831614611c5d5760806ff3392b0822b70005940c7a398e4b70f382611c589190613a3f565b901c90505b5f610800831614611c8b5760806fe7159475a2c29b7443b29c7fa6e889d982611c869190613a3f565b901c90505b5f611000831614611cb95760806fd097f3bdfd2022b8845ad8f792aa582582611cb49190613a3f565b901c90505b5f612000831614611ce75760806fa9f746462d870fdf8a65dc1f90e061e582611ce29190613a3f565b901c90505b5f614000831614611d155760806f70d869a156d2a1b890bb3df62baf32f782611d109190613a3f565b901c90505b5f618000831614611d435760806f31be135f97d08fd981231505542fcfa682611d3e9190613a3f565b901c90505b5f62010000831614611d725760806f09aa508b5b7a84e1c677de54f3e99bc982611d6d9190613a3f565b901c90505b5f62020000831614611da05760806e5d6af8dedb81196699c329225ee60482611d9b9190613a3f565b901c90505b5f62040000831614611dcd5760806d2216e584f5fa1ea926041bedfe9882611dc89190613a3f565b901c90505b5f62080000831614611df85760806b048a170391f7dc42444e8fa282611df39190613a3f565b901c90505b5f8460020b1315611e3257807fffffffffffffffffffffffffffffffffffffffffffffffffffffffffffffffff611e2f9190613a80565b90505b5f64010000000082611e449190613ab0565b14611e50576001611e52565b5f5b60ff16602082901c611e6491906134e3565b92505050919050565b5f8273ffffffffffffffffffffffffffffffffffffffff168473ffffffffffffffffffffffffffffffffffffffff161115611ead57828480945081955050505b5f8473ffffffffffffffffffffffffffffffffffffffff1611611ece575f80fd5b611f48611f2c606060ff16846fffffffffffffffffffffffffffffffff16901b8686611efa9190613ae0565b73ffffffffffffffffffffffffffffffffffffffff168673ffffffffffffffffffffffffffffffffffffffff16612836565b8573ffffffffffffffffffffffffffffffffffffffff1661289e565b90509392505050565b5f8273ffffffffffffffffffffffffffffffffffffffff168473ffffffffffffffffffffffffffffffffffffffff161115611f9157828480945081955050505b611fdc826fffffffffffffffffffffffffffffffff168585611fb39190613ae0565b73ffffffffffffffffffffffffffffffffffffffff166c01000000000000000000000000612836565b90509392505050565b5f8082600f0b121561200d5781611ffb90613614565b836120069190613b27565b905061201c565b81836120199190613984565b90505b92915050565b5f7f000000000000000000000000000000000000000000000000000000000000000073ffffffffffffffffffffffffffffffffffffffff166370a08231306040518263ffffffff1660e01b815260040161207c9190612e3e565b6020604051808303815f875af1158015612098573d5f803e3d5ffd5b505050506040513d601f19601f820116820180604052508101906120bc919061356d565b905090565b5f7f000000000000000000000000000000000000000000000000000000000000000073ffffffffffffffffffffffffffffffffffffffff166370a08231306040518263ffffffff1660e01b815260040161211b9190612e3e565b6020604051808303815f875af1158015612137573d5f803e3d5ffd5b505050506040513d601f19601f8201168201806040525081019061215b919061356d565b905090565b5f805f848661216f9190613867565b90505f8660020b12801561219157505f858761218b9190613837565b60020b14155b156121a55780806121a190613b6a565b9150505b8315612262575f806121b683612815565b915091505f8160ff166001901b60018360ff166001901b6121d791906135e1565b6121e191906134e3565b90505f818b5f8660010b60010b81526020019081526020015f20541690505f81141595508561222957888360ff168661221a919061365a565b6122249190613bb1565b612257565b88612233826128b0565b8461223e9190613bf9565b60ff168661224c919061365a565b6122569190613bb1565b5b965050505050612334565b5f806122796001846122749190613c2d565b612815565b915091505f60018260ff166001901b61229291906135e1565b1990505f818b5f8660010b60010b81526020019081526020015f20541690505f8114159550856122f357888360ff6122ca9190613bf9565b60ff166001876122da9190613c2d565b6122e49190613c2d565b6122ee9190613bb1565b61232d565b88836122fe836129d1565b6123089190613bf9565b60ff166001876123189190613c2d565b6123229190613c2d565b61232c9190613bb1565b5b9650505050505b5094509492505050565b5f805f808673ffffffffffffffffffffffffffffffffffffffff168873ffffffffffffffffffffffffffffffffffffffff16101590508061238957612384888888611f51565b612395565b612394888888611e6d565b5b92508285106123a6578693506123b5565b6123b288878784612b36565b93505b6123c0888588611e6d565b92506123cd888588611f51565b9150806123df57818380935081945050505b509450945094915050565b5f80835f8460020b60020b81526020019081526020015f209050806001015f9054906101000a9004600f0b91505092915050565b5f6401000276a373ffffffffffffffffffffffffffffffffffffffff168273ffffffffffffffffffffffffffffffffffffffff161015801561249f575073fffd8963efd1fc6a506488495d951d5263988d2673ffffffffffffffffffffffffffffffffffffffff168273ffffffffffffffffffffffffffffffffffffffff16105b6124de576040517f08c379a00000000000000000000000000000000000000000000000000000000081526004016124d590613cd1565b60405180910390fd5b5f60208373ffffffffffffffffffffffffffffffffffffffff16901b90505f8190505f6fffffffffffffffffffffffffffffffff821160071b808217915082811c92505067ffffffffffffffff821160061b808217915082811c92505063ffffffff821160051b808217915082811c92505061ffff821160041b808217915082811c92505060ff821160031b808217915082811c925050600f821160021b808217915082811c9250506003821160011b808217915082811c92505060018211808217915050608081106125c257607f816125b891906135e1565b83901c91506125d5565b80607f6125cf91906135e1565b83901b91505b5f60406080836125e591906137ca565b901b9050828302607f1c92508260801c80603f1b8217915083811c935050828302607f1c92508260801c80603e1b8217915083811c935050828302607f1c92508260801c80603d1b8217915083811c935050828302607f1c92508260801c80603c1b8217915083811c935050828302607f1c92508260801c80603b1b8217915083811c935050828302607f1c92508260801c80603a1b8217915083811c935050828302607f1c92508260801c8060391b8217915083811c935050828302607f1c92508260801c8060381b8217915083811c935050828302607f1c92508260801c8060371b8217915083811c935050828302607f1c92508260801c8060361b8217915083811c935050828302607f1c92508260801c8060351b8217915083811c935050828302607f1c92508260801c8060341b8217915083811c935050828302607f1c92508260801c8060331b8217915083811c935050828302607f1c92508260801c8060321b82179150505f693627a301d71055774c85826127679190613cef565b90505f60806f028f6481ab7f045a5af012a19d003aaa8361278891906137ca565b901d90505f60806fdb2df09e81959a81455e260799a0632f846127ab9190613789565b901d90508060020b8260020b14612805578873ffffffffffffffffffffffffffffffffffffffff166127dc826119b9565b73ffffffffffffffffffffffffffffffffffffffff1611156127fe5781612800565b805b612807565b815b975050505050505050919050565b5f8060088360020b901d91506101008361282f9190613837565b9050915091565b5f612842848484612b62565b90505f82806128545761285361380a565b5b8486091115612897577fffffffffffffffffffffffffffffffffffffffffffffffffffffffffffffffff8110612888575f80fd5b808061289390613d65565b9150505b9392505050565b5f808284061182840401905092915050565b5f8082116128bc575f80fd5b70010000000000000000000000000000000082106128eb57608082901c91506080816128e89190613dac565b90505b68010000000000000000821061291257604082901c915060408161290f9190613dac565b90505b640100000000821061293557602082901c91506020816129329190613dac565b90505b62010000821061295657601082901c91506010816129539190613dac565b90505b610100821061297657600882901c91506008816129739190613dac565b90505b6010821061299557600482901c91506004816129929190613dac565b90505b600482106129b457600282901c91506002816129b19190613dac565b90505b600282106129cc576001816129c99190613dac565b90505b919050565b5f8082116129dd575f80fd5b60ff90505f6fffffffffffffffffffffffffffffffff801683161115612a1157608081612a0a9190613bf9565b9050612a19565b608082901c91505b5f67ffffffffffffffff801683161115612a4157604081612a3a9190613bf9565b9050612a49565b604082901c91505b5f63ffffffff801683161115612a6d57602081612a669190613bf9565b9050612a75565b602082901c91505b5f61ffff801683161115612a9757601081612a909190613bf9565b9050612a9f565b601082901c91505b5f60ff801683161115612ac057600881612ab99190613bf9565b9050612ac8565b600882901c91505b5f600f83161115612ae757600481612ae09190613bf9565b9050612aef565b600482901c91505b5f600383161115612b0e57600281612b079190613bf9565b9050612b16565b600282901c91505b5f600183161115612b3157600181612b2e9190613bf9565b90505b919050565b5f81612b4c57612b47858585612c74565b612b58565b612b57858585612cae565b5b9050949350505050565b5f805f80198587098587029250828110838203039150505f8103612b9a57838281612b9057612b8f61380a565b5b0492505050612c6d565b838110612be2578585856040517f63a05778000000000000000000000000000000000000000000000000000000008152600401612bd993929190613de0565b60405180910390fd5b5f8486880990508281118203915080830392505f6001861901861690505f81870496508185049450600182835f0304019050808402851794505f60028860030218905080880260020381029050808802600203810290508088026002038102905080880260020381029050808802600203810290508088026002038102905080860296505050505050505b9392505050565b5f826fffffffffffffffffffffffffffffffff16606060ff1683901b612c9a9190613a80565b84612ca59190613e15565b90509392505050565b5f80606060ff16846fffffffffffffffffffffffffffffffff16901b90505f8573ffffffffffffffffffffffffffffffffffffffff1684612cef9190613a3f565b90508573ffffffffffffffffffffffffffffffffffffffff168482612d149190613a80565b03612d5c575f8183612d2691906134e3565b9050828110612d5a57612d50838873ffffffffffffffffffffffffffffffffffffffff1683612836565b9350505050612d97565b505b612d9282858873ffffffffffffffffffffffffffffffffffffffff1685612d839190613a80565b612d8d91906134e3565b61289e565b925050505b9392505050565b6040518060c001604052805f73ffffffffffffffffffffffffffffffffffffffff1681526020015f60020b81526020015f151581526020015f73ffffffffffffffffffffffffffffffffffffffff1681526020015f81526020015f81525090565b5f73ffffffffffffffffffffffffffffffffffffffff82169050919050565b5f612e2882612dff565b9050919050565b612e3881612e1e565b82525050565b5f602082019050612e515f830184612e2f565b92915050565b5f6fffffffffffffffffffffffffffffffff82169050919050565b612e7b81612e57565b82525050565b5f602082019050612e945f830184612e72565b92915050565b612ea381612dff565b82525050565b5f8160020b9050919050565b612ebe81612ea9565b82525050565b5f604082019050612ed75f830185612e9a565b612ee46020830184612eb5565b9392505050565b5f80fd5b5f80fd5b612efc81612e1e565b8114612f06575f80fd5b50565b5f81359050612f1781612ef3565b92915050565b612f2681612ea9565b8114612f30575f80fd5b50565b5f81359050612f4181612f1d565b92915050565b612f5081612e57565b8114612f5a575f80fd5b50565b5f81359050612f6b81612f47565b92915050565b5f80fd5b5f80fd5b5f80fd5b5f8083601f840112612f9257612f91612f71565b5b8235905067ffffffffffffffff811115612faf57612fae612f75565b5b602083019150836001820283011115612fcb57612fca612f79565b5b9250929050565b5f805f805f8060a08789031215612fec57612feb612eeb565b5b5f612ff989828a01612f09565b965050602061300a89828a01612f33565b955050604061301b89828a01612f33565b945050606061302c89828a01612f5d565b935050608087013567ffffffffffffffff81111561304d5761304c612eef565b5b61305989828a01612f7d565b92509250509295509295509295565b5f819050919050565b61307a81613068565b82525050565b5f6040820190506130935f830185613071565b6130a06020830184613071565b9392505050565b6130b081613068565b81146130ba575f80fd5b50565b5f813590506130cb816130a7565b92915050565b5f805f80606085870312156130e9576130e8612eeb565b5b5f6130f6878288016130bd565b9450506020613107878288016130bd565b935050604085013567ffffffffffffffff81111561312857613127612eef565b5b61313487828801612f7d565b925092505092959194509250565b5f819050919050565b61315481613142565b811461315e575f80fd5b50565b5f8135905061316f8161314b565b92915050565b5f6020828403121561318a57613189612eeb565b5b5f61319784828501613161565b91505092915050565b5f8160010b9050919050565b6131b5816131a0565b81146131bf575f80fd5b50565b5f813590506131d0816131ac565b92915050565b5f602082840312156131eb576131ea612eeb565b5b5f6131f8848285016131c2565b91505092915050565b5f6020820190506132145f830184613071565b92915050565b5f8115159050919050565b61322e8161321a565b8114613238575f80fd5b50565b5f8135905061324981613225565b92915050565b61325881612dff565b8114613262575f80fd5b50565b5f813590506132738161324f565b92915050565b5f805f805f8060a0878903121561329357613292612eeb565b5b5f6132a089828a01612f09565b96505060206132b189828a0161323b565b95505060406132c289828a016130bd565b94505060606132d389828a01613265565b935050608087013567ffffffffffffffff8111156132f4576132f3612eef565b5b61330089828a01612f7d565b92509250509295509295509295565b5f819050919050565b6133218161330f565b82525050565b5f60408201905061333a5f830185613318565b6133476020830184613318565b9392505050565b5f6020828403121561336357613362612eeb565b5b5f61337084828501612f33565b91505092915050565b6133828161321a565b82525050565b5f81600f0b9050919050565b61339d81613388565b82525050565b5f6060820190506133b65f830186613379565b6133c36020830185612e72565b6133d06040830184613394565b949350505050565b7f4e487b71000000000000000000000000000000000000000000000000000000005f52601160045260245ffd5b5f61340f82612ea9565b91507fffffffffffffffffffffffffffffffffffffffffffffffffffffffffff8000008203613441576134406133d8565b5b815f039050919050565b5f82825260208201905092915050565b828183375f83830152505050565b5f601f19601f8301169050919050565b5f613484838561344b565b935061349183858461345b565b61349a83613469565b840190509392505050565b5f6060820190506134b85f830187613071565b6134c56020830186613071565b81810360408301526134d8818486613479565b905095945050505050565b5f6134ed82613068565b91506134f883613068565b92508282019050808211156135105761350f6133d8565b5b92915050565b5f6080820190506135295f830187612e2f565b6135366020830186612e72565b6135436040830185613071565b6135506060830184613071565b95945050505050565b5f81519050613567816130a7565b92915050565b5f6020828403121561358257613581612eeb565b5b5f61358f84828501613559565b91505092915050565b5f6040820190506135ab5f830185612e2f565b6135b86020830184613071565b9392505050565b5f6020820190508181035f8301526135d8818486613479565b90509392505050565b5f6135eb82613068565b91506135f683613068565b925082820390508181111561360e5761360d6133d8565b5b92915050565b5f61361e82613388565b91507fffffffffffffffffffffffffffffffff8000000000000000000000000000000082036136505761364f6133d8565b5b815f039050919050565b5f61366482612ea9565b915061366f83612ea9565b92508282039050627fffff81137fffffffffffffffffffffffffffffffffffffffffffffffffffffffffff800000821217156136ae576136ad6133d8565b5b92915050565b5f6136be8261330f565b91507f800000000000000000000000000000000000000000000000000000000000000082036136f0576136ef6133d8565b5b815f039050919050565b5f60608201905061370d5f830187613318565b61371a6020830186613318565b818103604083015261372d818486613479565b905095945050505050565b5f60a08201905061374b5f830188613318565b6137586020830187613318565b6137656040830186612e9a565b6137726060830185612e72565b61377f6080830184612eb5565b9695505050505050565b5f6137938261330f565b915061379e8361330f565b92508282019050828112155f8312168382125f8412151617156137c4576137c36133d8565b5b92915050565b5f6137d48261330f565b91506137df8361330f565b925082820390508181125f8412168282135f851215161715613804576138036133d8565b5b92915050565b7f4e487b71000000000000000000000000000000000000000000000000000000005f52601260045260245ffd5b5f61384182612ea9565b915061384c83612ea9565b92508261385c5761385b61380a565b5b828207905092915050565b5f61387182612ea9565b915061387c83612ea9565b92508261388c5761388b61380a565b5b60015f0383147fffffffffffffffffffffffffffffffffffffffffffffffffffffffffff800000831416156138c4576138c36133d8565b5b828205905092915050565b5f8160601b9050919050565b5f6138e5826138cf565b9050919050565b5f6138f6826138db565b9050919050565b61390e61390982612e1e565b6138ec565b82525050565b5f8160e81b9050919050565b5f61392a82613914565b9050919050565b61394261393d82612ea9565b613920565b82525050565b5f61395382866138fd565b6014820191506139638285613931565b6003820191506139738284613931565b600382019150819050949350505050565b5f61398e82612e57565b915061399983612e57565b925082820190506fffffffffffffffffffffffffffffffff8111156139c1576139c06133d8565b5b92915050565b5f82825260208201905092915050565b7f54000000000000000000000000000000000000000000000000000000000000005f82015250565b5f613a0b6001836139c7565b9150613a16826139d7565b602082019050919050565b5f6020820190508181035f830152613a38816139ff565b9050919050565b5f613a4982613068565b9150613a5483613068565b9250828202613a6281613068565b91508282048414831517613a7957613a786133d8565b5b5092915050565b5f613a8a82613068565b9150613a9583613068565b925082613aa557613aa461380a565b5b828204905092915050565b5f613aba82613068565b9150613ac583613068565b925082613ad557613ad461380a565b5b828206905092915050565b5f613aea82612dff565b9150613af583612dff565b9250828203905073ffffffffffffffffffffffffffffffffffffffff811115613b2157613b206133d8565b5b92915050565b5f613b3182612e57565b9150613b3c83612e57565b925082820390506fffffffffffffffffffffffffffffffff811115613b6457613b636133d8565b5b92915050565b5f613b7482612ea9565b91507fffffffffffffffffffffffffffffffffffffffffffffffffffffffffff8000008203613ba657613ba56133d8565b5b600182039050919050565b5f613bbb82612ea9565b9150613bc683612ea9565b9250828202613bd481612ea9565b9150808214613be657613be56133d8565b5b5092915050565b5f60ff82169050919050565b5f613c0382613bed565b9150613c0e83613bed565b9250828203905060ff811115613c2757613c266133d8565b5b92915050565b5f613c3782612ea9565b9150613c4283612ea9565b925082820190507fffffffffffffffffffffffffffffffffffffffffffffffffffffffffff8000008112627fffff82131715613c8157613c806133d8565b5b92915050565b7f52000000000000000000000000000000000000000000000000000000000000005f82015250565b5f613cbb6001836139c7565b9150613cc682613c87565b602082019050919050565b5f6020820190508181035f830152613ce881613caf565b9050919050565b5f613cf98261330f565b9150613d048361330f565b9250828202613d128161330f565b91507f800000000000000000000000000000000000000000000000000000000000000084145f84121615613d4957613d486133d8565b5b8282058414831517613d5e57613d5d6133d8565b5b5092915050565b5f613d6f82613068565b91507fffffffffffffffffffffffffffffffffffffffffffffffffffffffffffffffff8203613da157613da06133d8565b5b600182019050919050565b5f613db682613bed565b9150613dc183613bed565b9250828201905060ff811115613dda57613dd96133d8565b5b92915050565b5f606082019050613df35f830186613071565b613e006020830185613071565b613e0d6040830184613071565b949350505050565b5f613e1f82612dff565b9150613e2a83612dff565b9250828201905073ffffffffffffffffffffffffffffffffffffffff811115613e5657613e556133d8565b5b9291505056fea26469706673582212205c7e421dfe5ee22dbd532cc4e7f791ed530aa8e3b989dc13af6f3458eb53c67964736f6c63430008180033",
			"opcodes": "PUSH1 0xC0 PUSH1 0x40 MSTORE CALLVALUE DUP1 ISZERO PUSH3 0x10 JUMPI PUSH0 DUP1 REVERT JUMPDEST POP PUSH1 0x40 MLOAD PUSH3 0x417D CODESIZE SUB DUP1 PUSH3 0x417D DUP4 CODECOPY DUP2 DUP2 ADD PUSH1 0x40 MSTORE DUP2 ADD SWAP1 PUSH3 0x36 SWAP2 SWAP1 PUSH3 0x214 JUMP JUMPDEST DUP4 PUSH20 0xFFFFFFFFFFFFFFFFFFFFFFFFFFFFFFFFFFFFFFFF AND PUSH1 0x80 DUP2 PUSH20 0xFFFFFFFFFFFFFFFFFFFFFFFFFFFFFFFFFFFFFFFF AND DUP2 MSTORE POP POP DUP3 PUSH20 0xFFFFFFFFFFFFFFFFFFFFFFFFFFFFFFFFFFFFFFFF AND PUSH1 0xA0 DUP2 PUSH20 0xFFFFFFFFFFFFFFFFFFFFFFFFFFFFFFFFFFFFFFFF AND DUP2 MSTORE POP POP PUSH1 0x40 MLOAD DUP1 PUSH1 0x40 ADD PUSH1 0x40 MSTORE DUP1 DUP4 PUSH20 0xFFFFFFFFFFFFFFFFFFFFFFFFFFFFFFFFFFFFFFFF AND DUP2 MSTORE PUSH1 0x20 ADD DUP3 PUSH1 0x2 SIGNEXTEND DUP2 MSTORE POP PUSH0 DUP1 DUP3 ADD MLOAD DUP2 PUSH0 ADD PUSH0 PUSH2 0x100 EXP DUP2 SLOAD DUP2 PUSH20 0xFFFFFFFFFFFFFFFFFFFFFFFFFFFFFFFFFFFFFFFF MUL NOT AND SWAP1 DUP4 PUSH20 0xFFFFFFFFFFFFFFFFFFFFFFFFFFFFFFFFFFFFFFFF AND MUL OR SWAP1 SSTORE POP PUSH1 0x20 DUP3 ADD MLOAD DUP2 PUSH0 ADD PUSH1 0x14 PUSH2 0x100 EXP DUP2 SLOAD DUP2 PUSH3 0xFFFFFF MUL NOT AND SWAP1 DUP4 PUSH1 0x2 SIGNEXTEND PUSH3 0xFFFFFF AND MUL OR SWAP1 SSTORE POP SWAP1 POP POP POP POP POP POP PUSH3 0x283 JUMP JUMPDEST PUSH0 DUP1 REVERT JUMPDEST PUSH0 PUSH20 0xFFFFFFFFFFFFFFFFFFFFFFFFFFFFFFFFFFFFFFFF DUP3 AND SWAP1 POP SWAP2 SWAP1 POP JUMP JUMPDEST PUSH0 PUSH3 0x174 DUP3 PUSH3 0x149 JUMP JUMPDEST SWAP1 POP SWAP2 SWAP1 POP JUMP JUMPDEST PUSH3 0x186 DUP2 PUSH3 0x168 JUMP JUMPDEST DUP2 EQ PUSH3 0x191 JUMPI PUSH0 DUP1 REVERT JUMPDEST POP JUMP JUMPDEST PUSH0 DUP2 MLOAD SWAP1 POP PUSH3 0x1A4 DUP2 PUSH3 0x17B JUMP JUMPDEST SWAP3 SWAP2 POP POP JUMP JUMPDEST PUSH3 0x1B5 DUP2 PUSH3 0x149 JUMP JUMPDEST DUP2 EQ PUSH3 0x1C0 JUMPI PUSH0 DUP1 REVERT JUMPDEST POP JUMP JUMPDEST PUSH0 DUP2 MLOAD SWAP1 POP PUSH3 0x1D3 DUP2 PUSH3 0x1AA JUMP JUMPDEST SWAP3 SWAP2 POP POP JUMP JUMPDEST PUSH0 DUP2 PUSH1 0x2 SIGNEXTEND SWAP1 POP SWAP2 SWAP1 POP JUMP JUMPDEST PUSH3 0x1F0 DUP2 PUSH3 0x1D9 JUMP JUMPDEST DUP2 EQ PUSH3 0x1FB JUMPI PUSH0 DUP1 REVERT JUMPDEST POP JUMP JUMPDEST PUSH0 DUP2 MLOAD SWAP1 POP PUSH3 0x20E DUP2 PUSH3 0x1E5 JUMP JUMPDEST SWAP3 SWAP2 POP POP JUMP JUMPDEST PUSH0 DUP1 PUSH0 DUP1 PUSH1 0x80 DUP6 DUP8 SUB SLT ISZERO PUSH3 0x22F JUMPI PUSH3 0x22E PUSH3 0x145 JUMP JUMPDEST JUMPDEST PUSH0 PUSH3 0x23E DUP8 DUP3 DUP9 ADD PUSH3 0x194 JUMP JUMPDEST SWAP5 POP POP PUSH1 0x20 PUSH3 0x251 DUP8 DUP3 DUP9 ADD PUSH3 0x194 JUMP JUMPDEST SWAP4 POP POP PUSH1 0x40 PUSH3 0x264 DUP8 DUP3 DUP9 ADD PUSH3 0x1C3 JUMP JUMPDEST SWAP3 POP POP PUSH1 0x60 PUSH3 0x277 DUP8 DUP3 DUP9 ADD PUSH3 0x1FE JUMP JUMPDEST SWAP2 POP POP SWAP3 SWAP6 SWAP2 SWAP5 POP SWAP3 POP JUMP JUMPDEST PUSH1 0x80 MLOAD PUSH1 0xA0 MLOAD PUSH2 0x3E92 PUSH3 0x2EB PUSH0 CODECOPY PUSH0 DUP2 DUP2 PUSH2 0x806 ADD MSTORE DUP2 DUP2 PUSH2 0x93A ADD MSTORE DUP2 DUP2 PUSH2 0xAD0 ADD MSTORE DUP2 DUP2 PUSH2 0xC15 ADD MSTORE DUP2 DUP2 PUSH2 0x1362 ADD MSTORE PUSH2 0x20C4 ADD MSTORE PUSH0 DUP2 DUP2 PUSH2 0x22B ADD MSTORE DUP2 DUP2 PUSH2 0x76A ADD MSTORE DUP2 DUP2 PUSH2 0x8A9 ADD MSTORE DUP2 DUP2 PUSH2 0xA2C ADD MSTORE DUP2 DUP2 PUSH2 0x14BC ADD MSTORE PUSH2 0x2025 ADD MSTORE PUSH2 0x3E92 PUSH0 RETURN INVALID PUSH1 0x80 PUSH1 0x40 MSTORE CALLVALUE DUP1 ISZERO PUSH2 0xF JUMPI PUSH0 DUP1 REVERT JUMPDEST POP PUSH1 0x4 CALLDATASIZE LT PUSH2 0x9C JUMPI PUSH0 CALLDATALOAD PUSH1 0xE0 SHR DUP1 PUSH4 0x514EA4BF GT PUSH2 0x64 JUMPI DUP1 PUSH4 0x514EA4BF EQ PUSH2 0x148 JUMPI DUP1 PUSH4 0x5339C296 EQ PUSH2 0x178 JUMPI DUP1 PUSH4 0xD21220A7 EQ PUSH2 0x1A8 JUMPI DUP1 PUSH4 0xDD5A12D8 EQ PUSH2 0x1C6 JUMPI DUP1 PUSH4 0xF30DBA93 EQ PUSH2 0x1F7 JUMPI PUSH2 0x9C JUMP JUMPDEST DUP1 PUSH4 0xDFE1681 EQ PUSH2 0xA0 JUMPI DUP1 PUSH4 0x1A686502 EQ PUSH2 0xBE JUMPI DUP1 PUSH4 0x3850C7BD EQ PUSH2 0xDC JUMPI DUP1 PUSH4 0x3C8A7D8D EQ PUSH2 0xFB JUMPI DUP1 PUSH4 0x4A182392 EQ PUSH2 0x12C JUMPI JUMPDEST PUSH0 DUP1 REVERT JUMPDEST PUSH2 0xA8 PUSH2 0x229 JUMP JUMPDEST PUSH1 0x40 MLOAD PUSH2 0xB5 SWAP2 SWAP1 PUSH2 0x2E3E JUMP JUMPDEST PUSH1 0x40 MLOAD DUP1 SWAP2 SUB SWAP1 RETURN JUMPDEST PUSH2 0xC6 PUSH2 0x24D JUMP JUMPDEST PUSH1 0x40 MLOAD PUSH2 0xD3 SWAP2 SWAP1 PUSH2 0x2E81 JUMP JUMPDEST PUSH1 0x40 MLOAD DUP1 SWAP2 SUB SWAP1 RETURN JUMPDEST PUSH2 0xE4 PUSH2 0x26E JUMP JUMPDEST PUSH1 0x40 MLOAD PUSH2 0xF2 SWAP3 SWAP2 SWAP1 PUSH2 0x2EC4 JUMP JUMPDEST PUSH1 0x40 MLOAD DUP1 SWAP2 SUB SWAP1 RETURN JUMPDEST PUSH2 0x115 PUSH1 0x4 DUP1 CALLDATASIZE SUB DUP2 ADD SWAP1 PUSH2 0x110 SWAP2 SWAP1 PUSH2 0x2FD2 JUMP JUMPDEST PUSH2 0x2A9 JUMP JUMPDEST PUSH1 0x40 MLOAD PUSH2 0x123 SWAP3 SWAP2 SWAP1 PUSH2 0x3080 JUMP JUMPDEST PUSH1 0x40 MLOAD DUP1 SWAP2 SUB SWAP1 RETURN JUMPDEST PUSH2 0x146 PUSH1 0x4 DUP1 CALLDATASIZE SUB DUP2 ADD SWAP1 PUSH2 0x141 SWAP2 SWAP1 PUSH2 0x30D1 JUMP JUMPDEST PUSH2 0x767 JUMP JUMPDEST STOP JUMPDEST PUSH2 0x162 PUSH1 0x4 DUP1 CALLDATASIZE SUB DUP2 ADD SWAP1 PUSH2 0x15D SWAP2 SWAP1 PUSH2 0x3175 JUMP JUMPDEST PUSH2 0xBC9 JUMP JUMPDEST PUSH1 0x40 MLOAD PUSH2 0x16F SWAP2 SWAP1 PUSH2 0x2E81 JUMP JUMPDEST PUSH1 0x40 MLOAD DUP1 SWAP2 SUB SWAP1 RETURN JUMPDEST PUSH2 0x192 PUSH1 0x4 DUP1 CALLDATASIZE SUB DUP2 ADD SWAP1 PUSH2 0x18D SWAP2 SWAP1 PUSH2 0x31D6 JUMP JUMPDEST PUSH2 0xBFE JUMP JUMPDEST PUSH1 0x40 MLOAD PUSH2 0x19F SWAP2 SWAP1 PUSH2 0x3201 JUMP JUMPDEST PUSH1 0x40 MLOAD DUP1 SWAP2 SUB SWAP1 RETURN JUMPDEST PUSH2 0x1B0 PUSH2 0xC13 JUMP JUMPDEST PUSH1 0x40 MLOAD PUSH2 0x1BD SWAP2 SWAP1 PUSH2 0x2E3E JUMP JUMPDEST PUSH1 0x40 MLOAD DUP1 SWAP2 SUB SWAP1 RETURN JUMPDEST PUSH2 0x1E0 PUSH1 0x4 DUP1 CALLDATASIZE SUB DUP2 ADD SWAP1 PUSH2 0x1DB SWAP2 SWAP1 PUSH2 0x3279 JUMP JUMPDEST PUSH2 0xC37 JUMP JUMPDEST PUSH1 0x40 MLOAD PUSH2 0x1EE SWAP3 SWAP2 SWAP1 PUSH2 0x3327 JUMP JUMPDEST PUSH1 0x40 MLOAD DUP1 SWAP2 SUB SWAP1 RETURN JUMPDEST PUSH2 0x211 PUSH1 0x4 DUP1 CALLDATASIZE SUB DUP2 ADD SWAP1 PUSH2 0x20C SWAP2 SWAP1 PUSH2 0x334E JUMP JUMPDEST PUSH2 0x16C1 JUMP JUMPDEST PUSH1 0x40 MLOAD PUSH2 0x220 SWAP4 SWAP3 SWAP2 SWAP1 PUSH2 0x33A3 JUMP JUMPDEST PUSH1 0x40 MLOAD DUP1 SWAP2 SUB SWAP1 RETURN JUMPDEST PUSH32 0x0 DUP2 JUMP JUMPDEST PUSH1 0x1 PUSH0 SWAP1 SLOAD SWAP1 PUSH2 0x100 EXP SWAP1 DIV PUSH16 0xFFFFFFFFFFFFFFFFFFFFFFFFFFFFFFFF AND DUP2 JUMP JUMPDEST PUSH0 DUP1 PUSH0 ADD PUSH0 SWAP1 SLOAD SWAP1 PUSH2 0x100 EXP SWAP1 DIV PUSH20 0xFFFFFFFFFFFFFFFFFFFFFFFFFFFFFFFFFFFFFFFF AND SWAP1 DUP1 PUSH0 ADD PUSH1 0x14 SWAP1 SLOAD SWAP1 PUSH2 0x100 EXP SWAP1 DIV PUSH1 0x2 SIGNEXTEND SWAP1 POP DUP3 JUMP JUMPDEST PUSH0 DUP1 DUP6 PUSH1 0x2 SIGNEXTEND DUP8 PUSH1 0x2 SIGNEXTEND SLT ISZERO DUP1 PUSH2 0x2E5 JUMPI POP PUSH32 0xFFFFFFFFFFFFFFFFFFFFFFFFFFFFFFFFFFFFFFFFFFFFFFFFFFFFFFFFFFF27618 PUSH1 0x2 SIGNEXTEND DUP8 PUSH1 0x2 SIGNEXTEND SLT JUMPDEST DUP1 PUSH2 0x31E JUMPI POP PUSH32 0xFFFFFFFFFFFFFFFFFFFFFFFFFFFFFFFFFFFFFFFFFFFFFFFFFFFFFFFFFFF27618 PUSH2 0x315 SWAP1 PUSH2 0x3405 JUMP JUMPDEST PUSH1 0x2 SIGNEXTEND DUP7 PUSH1 0x2 SIGNEXTEND SGT JUMPDEST ISZERO PUSH2 0x355 JUMPI PUSH1 0x40 MLOAD PUSH32 0x64847D000000000000000000000000000000000000000000000000000000000 DUP2 MSTORE PUSH1 0x4 ADD PUSH1 0x40 MLOAD DUP1 SWAP2 SUB SWAP1 REVERT JUMPDEST PUSH0 DUP6 PUSH16 0xFFFFFFFFFFFFFFFFFFFFFFFFFFFFFFFF AND SUB PUSH2 0x3A0 JUMPI PUSH1 0x40 MLOAD PUSH32 0x1007454800000000000000000000000000000000000000000000000000000000 DUP2 MSTORE PUSH1 0x4 ADD PUSH1 0x40 MLOAD DUP1 SWAP2 SUB SWAP1 REVERT JUMPDEST PUSH0 PUSH2 0x3B9 DUP9 DUP8 PUSH0 PUSH1 0x2 PUSH2 0x171A SWAP1 SWAP4 SWAP3 SWAP2 SWAP1 PUSH4 0xFFFFFFFF AND JUMP JUMPDEST SWAP1 POP PUSH0 PUSH2 0x3D5 DUP9 DUP9 PUSH1 0x1 PUSH1 0x2 PUSH2 0x171A SWAP1 SWAP4 SWAP3 SWAP2 SWAP1 PUSH4 0xFFFFFFFF AND JUMP JUMPDEST SWAP1 POP DUP2 ISZERO PUSH2 0x3F5 JUMPI PUSH2 0x3F4 DUP10 PUSH1 0x1 PUSH1 0x3 PUSH2 0x189B SWAP1 SWAP3 SWAP2 SWAP1 PUSH4 0xFFFFFFFF AND JUMP JUMPDEST JUMPDEST DUP1 ISZERO PUSH2 0x413 JUMPI PUSH2 0x412 DUP9 PUSH1 0x1 PUSH1 0x3 PUSH2 0x189B SWAP1 SWAP3 SWAP2 SWAP1 PUSH4 0xFFFFFFFF AND JUMP JUMPDEST JUMPDEST PUSH0 PUSH2 0x42C DUP12 DUP12 DUP12 PUSH1 0x4 PUSH2 0x1904 SWAP1 SWAP4 SWAP3 SWAP2 SWAP1 PUSH4 0xFFFFFFFF AND JUMP JUMPDEST SWAP1 POP PUSH2 0x441 DUP9 DUP3 PUSH2 0x1949 SWAP1 SWAP2 SWAP1 PUSH4 0xFFFFFFFF AND JUMP JUMPDEST PUSH0 DUP1 PUSH1 0x40 MLOAD DUP1 PUSH1 0x40 ADD PUSH1 0x40 MSTORE SWAP1 DUP2 PUSH0 DUP3 ADD PUSH0 SWAP1 SLOAD SWAP1 PUSH2 0x100 EXP SWAP1 DIV PUSH20 0xFFFFFFFFFFFFFFFFFFFFFFFFFFFFFFFFFFFFFFFF AND PUSH20 0xFFFFFFFFFFFFFFFFFFFFFFFFFFFFFFFFFFFFFFFF AND PUSH20 0xFFFFFFFFFFFFFFFFFFFFFFFFFFFFFFFFFFFFFFFF AND DUP2 MSTORE PUSH1 0x20 ADD PUSH0 DUP3 ADD PUSH1 0x14 SWAP1 SLOAD SWAP1 PUSH2 0x100 EXP SWAP1 DIV PUSH1 0x2 SIGNEXTEND PUSH1 0x2 SIGNEXTEND PUSH1 0x2 SIGNEXTEND DUP2 MSTORE POP POP SWAP1 POP DUP11 PUSH1 0x2 SIGNEXTEND DUP2 PUSH1 0x20 ADD MLOAD PUSH1 0x2 SIGNEXTEND SLT ISZERO PUSH2 0x4F4 JUMPI PUSH2 0x4ED PUSH2 0x4DE DUP13 PUSH2 0x19B9 JUMP JUMPDEST PUSH2 0x4E7 DUP13 PUSH2 0x19B9 JUMP JUMPDEST DUP12 PUSH2 0x1E6D JUMP JUMPDEST SWAP6 POP PUSH2 0x5B8 JUMP JUMPDEST DUP10 PUSH1 0x2 SIGNEXTEND DUP2 PUSH1 0x20 ADD MLOAD PUSH1 0x2 SIGNEXTEND SLT ISZERO PUSH2 0x599 JUMPI PUSH2 0x51C DUP2 PUSH0 ADD MLOAD PUSH2 0x516 DUP13 PUSH2 0x19B9 JUMP JUMPDEST DUP12 PUSH2 0x1E6D JUMP JUMPDEST SWAP6 POP PUSH2 0x534 DUP2 PUSH0 ADD MLOAD PUSH2 0x52E DUP14 PUSH2 0x19B9 JUMP JUMPDEST DUP12 PUSH2 0x1F51 JUMP JUMPDEST SWAP5 POP PUSH2 0x55D PUSH1 0x1 PUSH0 SWAP1 SLOAD SWAP1 PUSH2 0x100 EXP SWAP1 DIV PUSH16 0xFFFFFFFFFFFFFFFFFFFFFFFFFFFFFFFF AND DUP11 PUSH2 0x1FE5 JUMP JUMPDEST PUSH1 0x1 PUSH0 PUSH2 0x100 EXP DUP2 SLOAD DUP2 PUSH16 0xFFFFFFFFFFFFFFFFFFFFFFFFFFFFFFFF MUL NOT AND SWAP1 DUP4 PUSH16 0xFFFFFFFFFFFFFFFFFFFFFFFFFFFFFFFF AND MUL OR SWAP1 SSTORE POP PUSH2 0x5B7 JUMP JUMPDEST PUSH2 0x5B4 PUSH2 0x5A5 DUP13 PUSH2 0x19B9 JUMP JUMPDEST PUSH2 0x5AE DUP13 PUSH2 0x19B9 JUMP JUMPDEST DUP12 PUSH2 0x1F51 JUMP JUMPDEST SWAP5 POP JUMPDEST JUMPDEST PUSH0 DUP1 PUSH0 DUP9 GT ISZERO PUSH2 0x5CD JUMPI PUSH2 0x5CA PUSH2 0x2022 JUMP JUMPDEST SWAP2 POP JUMPDEST PUSH0 DUP8 GT ISZERO PUSH2 0x5E0 JUMPI PUSH2 0x5DD PUSH2 0x20C1 JUMP JUMPDEST SWAP1 POP JUMPDEST CALLER PUSH20 0xFFFFFFFFFFFFFFFFFFFFFFFFFFFFFFFFFFFFFFFF AND PUSH4 0x9F382E9B DUP10 DUP10 DUP14 DUP14 PUSH1 0x40 MLOAD DUP6 PUSH4 0xFFFFFFFF AND PUSH1 0xE0 SHL DUP2 MSTORE PUSH1 0x4 ADD PUSH2 0x61F SWAP5 SWAP4 SWAP3 SWAP2 SWAP1 PUSH2 0x34A5 JUMP JUMPDEST PUSH0 PUSH1 0x40 MLOAD DUP1 DUP4 SUB DUP2 PUSH0 DUP8 DUP1 EXTCODESIZE ISZERO DUP1 ISZERO PUSH2 0x636 JUMPI PUSH0 DUP1 REVERT JUMPDEST POP GAS CALL ISZERO DUP1 ISZERO PUSH2 0x648 JUMPI RETURNDATASIZE PUSH0 DUP1 RETURNDATACOPY RETURNDATASIZE PUSH0 REVERT JUMPDEST POP POP POP POP PUSH0 DUP9 GT DUP1 ISZERO PUSH2 0x66C JUMPI POP PUSH2 0x65E PUSH2 0x2022 JUMP JUMPDEST DUP9 DUP4 PUSH2 0x66A SWAP2 SWAP1 PUSH2 0x34E3 JUMP JUMPDEST GT JUMPDEST ISZERO PUSH2 0x6A3 JUMPI PUSH1 0x40 MLOAD PUSH32 0x98FB56100000000000000000000000000000000000000000000000000000000 DUP2 MSTORE PUSH1 0x4 ADD PUSH1 0x40 MLOAD DUP1 SWAP2 SUB SWAP1 REVERT JUMPDEST PUSH0 DUP8 GT DUP1 ISZERO PUSH2 0x6C3 JUMPI POP PUSH2 0x6B5 PUSH2 0x20C1 JUMP JUMPDEST DUP8 DUP3 PUSH2 0x6C1 SWAP2 SWAP1 PUSH2 0x34E3 JUMP JUMPDEST GT JUMPDEST ISZERO PUSH2 0x6FA JUMPI PUSH1 0x40 MLOAD PUSH32 0x98FB56100000000000000000000000000000000000000000000000000000000 DUP2 MSTORE PUSH1 0x4 ADD PUSH1 0x40 MLOAD DUP1 SWAP2 SUB SWAP1 REVERT JUMPDEST DUP12 PUSH1 0x2 SIGNEXTEND DUP14 PUSH1 0x2 SIGNEXTEND DUP16 PUSH20 0xFFFFFFFFFFFFFFFFFFFFFFFFFFFFFFFFFFFFFFFF AND PUSH32 0x7A53080BA414158BE7EC69B987B5FB7D07DEE101FE85488F0853AE16239D0BDE CALLER DUP16 DUP14 DUP14 PUSH1 0x40 MLOAD PUSH2 0x74E SWAP5 SWAP4 SWAP3 SWAP2 SWAP1 PUSH2 0x3516 JUMP JUMPDEST PUSH1 0x40 MLOAD DUP1 SWAP2 SUB SWAP1 LOG4 POP POP POP POP POP POP SWAP7 POP SWAP7 SWAP5 POP POP POP POP POP JUMP JUMPDEST PUSH0 PUSH32 0x0 PUSH20 0xFFFFFFFFFFFFFFFFFFFFFFFFFFFFFFFFFFFFFFFF AND PUSH4 0x70A08231 ADDRESS PUSH1 0x40 MLOAD DUP3 PUSH4 0xFFFFFFFF AND PUSH1 0xE0 SHL DUP2 MSTORE PUSH1 0x4 ADD PUSH2 0x7C1 SWAP2 SWAP1 PUSH2 0x2E3E JUMP JUMPDEST PUSH1 0x20 PUSH1 0x40 MLOAD DUP1 DUP4 SUB DUP2 PUSH0 DUP8 GAS CALL ISZERO DUP1 ISZERO PUSH2 0x7DD JUMPI RETURNDATASIZE PUSH0 DUP1 RETURNDATACOPY RETURNDATASIZE PUSH0 REVERT JUMPDEST POP POP POP POP PUSH1 0x40 MLOAD RETURNDATASIZE PUSH1 0x1F NOT PUSH1 0x1F DUP3 ADD AND DUP3 ADD DUP1 PUSH1 0x40 MSTORE POP DUP2 ADD SWAP1 PUSH2 0x801 SWAP2 SWAP1 PUSH2 0x356D JUMP JUMPDEST SWAP1 POP PUSH0 PUSH32 0x0 PUSH20 0xFFFFFFFFFFFFFFFFFFFFFFFFFFFFFFFFFFFFFFFF AND PUSH4 0x70A08231 ADDRESS PUSH1 0x40 MLOAD DUP3 PUSH4 0xFFFFFFFF AND PUSH1 0xE0 SHL DUP2 MSTORE PUSH1 0x4 ADD PUSH2 0x85D SWAP2 SWAP1 PUSH2 0x2E3E JUMP JUMPDEST PUSH1 0x20 PUSH1 0x40 MLOAD DUP1 DUP4 SUB DUP2 PUSH0 DUP8 GAS CALL ISZERO DUP1 ISZERO PUSH2 0x879 JUMPI RETURNDATASIZE PUSH0 DUP1 RETURNDATACOPY RETURNDATASIZE PUSH0 REVERT JUMPDEST POP POP POP POP PUSH1 0x40 MLOAD RETURNDATASIZE PUSH1 0x1F NOT PUSH1 0x1F DUP3 ADD AND DUP3 ADD DUP1 PUSH1 0x40 MSTORE POP DUP2 ADD SWAP1 PUSH2 0x89D SWAP2 SWAP1 PUSH2 0x356D JUMP JUMPDEST SWAP1 POP PUSH0 DUP7 GT ISZERO PUSH2 0x930 JUMPI PUSH32 0x0 PUSH20 0xFFFFFFFFFFFFFFFFFFFFFFFFFFFFFFFFFFFFFFFF AND PUSH4 0xA9059CBB CALLER DUP9 PUSH1 0x40 MLOAD DUP4 PUSH4 0xFFFFFFFF AND PUSH1 0xE0 SHL DUP2 MSTORE PUSH1 0x4 ADD PUSH2 0x902 SWAP3 SWAP2 SWAP1 PUSH2 0x3598 JUMP JUMPDEST PUSH0 PUSH1 0x40 MLOAD DUP1 DUP4 SUB DUP2 PUSH0 DUP8 DUP1 EXTCODESIZE ISZERO DUP1 ISZERO PUSH2 0x919 JUMPI PUSH0 DUP1 REVERT JUMPDEST POP GAS CALL ISZERO DUP1 ISZERO PUSH2 0x92B JUMPI RETURNDATASIZE PUSH0 DUP1 RETURNDATACOPY RETURNDATASIZE PUSH0 REVERT JUMPDEST POP POP POP POP JUMPDEST PUSH0 DUP6 GT ISZERO PUSH2 0x9C1 JUMPI PUSH32 0x0 PUSH20 0xFFFFFFFFFFFFFFFFFFFFFFFFFFFFFFFFFFFFFFFF AND PUSH4 0xA9059CBB CALLER DUP8 PUSH1 0x40 MLOAD DUP4 PUSH4 0xFFFFFFFF AND PUSH1 0xE0 SHL DUP2 MSTORE PUSH1 0x4 ADD PUSH2 0x993 SWAP3 SWAP2 SWAP1 PUSH2 0x3598 JUMP JUMPDEST PUSH0 PUSH1 0x40 MLOAD DUP1 DUP4 SUB DUP2 PUSH0 DUP8 DUP1 EXTCODESIZE ISZERO DUP1 ISZERO PUSH2 0x9AA JUMPI PUSH0 DUP1 REVERT JUMPDEST POP GAS CALL ISZERO DUP1 ISZERO PUSH2 0x9BC JUMPI RETURNDATASIZE PUSH0 DUP1 RETURNDATACOPY RETURNDATASIZE PUSH0 REVERT JUMPDEST POP POP POP POP JUMPDEST CALLER PUSH20 0xFFFFFFFFFFFFFFFFFFFFFFFFFFFFFFFFFFFFFFFF AND PUSH4 0xE3739238 DUP6 DUP6 PUSH1 0x40 MLOAD DUP4 PUSH4 0xFFFFFFFF AND PUSH1 0xE0 SHL DUP2 MSTORE PUSH1 0x4 ADD PUSH2 0x9FC SWAP3 SWAP2 SWAP1 PUSH2 0x35BF JUMP JUMPDEST PUSH0 PUSH1 0x40 MLOAD DUP1 DUP4 SUB DUP2 PUSH0 DUP8 DUP1 EXTCODESIZE ISZERO DUP1 ISZERO PUSH2 0xA13 JUMPI PUSH0 DUP1 REVERT JUMPDEST POP GAS CALL ISZERO DUP1 ISZERO PUSH2 0xA25 JUMPI RETURNDATASIZE PUSH0 DUP1 RETURNDATACOPY RETURNDATASIZE PUSH0 REVERT JUMPDEST POP POP POP POP DUP2 PUSH32 0x0 PUSH20 0xFFFFFFFFFFFFFFFFFFFFFFFFFFFFFFFFFFFFFFFF AND PUSH4 0x70A08231 ADDRESS PUSH1 0x40 MLOAD DUP3 PUSH4 0xFFFFFFFF AND PUSH1 0xE0 SHL DUP2 MSTORE PUSH1 0x4 ADD PUSH2 0xA83 SWAP2 SWAP1 PUSH2 0x2E3E JUMP JUMPDEST PUSH1 0x20 PUSH1 0x40 MLOAD DUP1 DUP4 SUB DUP2 PUSH0 DUP8 GAS CALL ISZERO DUP1 ISZERO PUSH2 0xA9F JUMPI RETURNDATASIZE PUSH0 DUP1 RETURNDATACOPY RETURNDATASIZE PUSH0 REVERT JUMPDEST POP POP POP POP PUSH1 0x40 MLOAD RETURNDATASIZE PUSH1 0x1F NOT PUSH1 0x1F DUP3 ADD AND DUP3 ADD DUP1 PUSH1 0x40 MSTORE POP DUP2 ADD SWAP1 PUSH2 0xAC3 SWAP2 SWAP1 PUSH2 0x356D JUMP JUMPDEST LT ISZERO PUSH2 0xACD JUMPI PUSH0 DUP1 REVERT JUMPDEST DUP1 PUSH32 0x0 PUSH20 0xFFFFFFFFFFFFFFFFFFFFFFFFFFFFFFFFFFFFFFFF AND PUSH4 0x70A08231 ADDRESS PUSH1 0x40 MLOAD DUP3 PUSH4 0xFFFFFFFF AND PUSH1 0xE0 SHL DUP2 MSTORE PUSH1 0x4 ADD PUSH2 0xB27 SWAP2 SWAP1 PUSH2 0x2E3E JUMP JUMPDEST PUSH1 0x20 PUSH1 0x40 MLOAD DUP1 DUP4 SUB DUP2 PUSH0 DUP8 GAS CALL ISZERO DUP1 ISZERO PUSH2 0xB43 JUMPI RETURNDATASIZE PUSH0 DUP1 RETURNDATACOPY RETURNDATASIZE PUSH0 REVERT JUMPDEST POP POP POP POP PUSH1 0x40 MLOAD RETURNDATASIZE PUSH1 0x1F NOT PUSH1 0x1F DUP3 ADD AND DUP3 ADD DUP1 PUSH1 0x40 MSTORE POP DUP2 ADD SWAP1 PUSH2 0xB67 SWAP2 SWAP1 PUSH2 0x356D JUMP JUMPDEST LT ISZERO PUSH2 0xB71 JUMPI PUSH0 DUP1 REVERT JUMPDEST CALLER PUSH20 0xFFFFFFFFFFFFFFFFFFFFFFFFFFFFFFFFFFFFFFFF AND PUSH32 0x1C1DB1F1D6A01E51FEC24BB54087B65FE5430F692280E70D92F718EB72AE76B7 DUP8 DUP8 PUSH1 0x40 MLOAD PUSH2 0xBB9 SWAP3 SWAP2 SWAP1 PUSH2 0x3080 JUMP JUMPDEST PUSH1 0x40 MLOAD DUP1 SWAP2 SUB SWAP1 LOG2 POP POP POP POP POP POP JUMP JUMPDEST PUSH1 0x4 PUSH1 0x20 MSTORE DUP1 PUSH0 MSTORE PUSH1 0x40 PUSH0 KECCAK256 PUSH0 SWAP2 POP SWAP1 POP DUP1 PUSH0 ADD PUSH0 SWAP1 SLOAD SWAP1 PUSH2 0x100 EXP SWAP1 DIV PUSH16 0xFFFFFFFFFFFFFFFFFFFFFFFFFFFFFFFF AND SWAP1 POP DUP2 JUMP JUMPDEST PUSH1 0x3 PUSH1 0x20 MSTORE DUP1 PUSH0 MSTORE PUSH1 0x40 PUSH0 KECCAK256 PUSH0 SWAP2 POP SWAP1 POP SLOAD DUP2 JUMP JUMPDEST PUSH32 0x0 DUP2 JUMP JUMPDEST PUSH0 DUP1 PUSH0 DUP1 PUSH1 0x40 MLOAD DUP1 PUSH1 0x40 ADD PUSH1 0x40 MSTORE SWAP1 DUP2 PUSH0 DUP3 ADD PUSH0 SWAP1 SLOAD SWAP1 PUSH2 0x100 EXP SWAP1 DIV PUSH20 0xFFFFFFFFFFFFFFFFFFFFFFFFFFFFFFFFFFFFFFFF AND PUSH20 0xFFFFFFFFFFFFFFFFFFFFFFFFFFFFFFFFFFFFFFFF AND PUSH20 0xFFFFFFFFFFFFFFFFFFFFFFFFFFFFFFFFFFFFFFFF AND DUP2 MSTORE PUSH1 0x20 ADD PUSH0 DUP3 ADD PUSH1 0x14 SWAP1 SLOAD SWAP1 PUSH2 0x100 EXP SWAP1 DIV PUSH1 0x2 SIGNEXTEND PUSH1 0x2 SIGNEXTEND PUSH1 0x2 SIGNEXTEND DUP2 MSTORE POP POP SWAP1 POP PUSH0 PUSH1 0x1 PUSH0 SWAP1 SLOAD SWAP1 PUSH2 0x100 EXP SWAP1 DIV PUSH16 0xFFFFFFFFFFFFFFFFFFFFFFFFFFFFFFFF AND SWAP1 POP DUP9 PUSH2 0xD5F JUMPI DUP2 PUSH0 ADD MLOAD PUSH20 0xFFFFFFFFFFFFFFFFFFFFFFFFFFFFFFFFFFFFFFFF AND DUP8 PUSH20 0xFFFFFFFFFFFFFFFFFFFFFFFFFFFFFFFFFFFFFFFF AND LT DUP1 PUSH2 0xD5A JUMPI POP PUSH20 0xFFFD8963EFD1FC6A506488495D951D5263988D26 PUSH20 0xFFFFFFFFFFFFFFFFFFFFFFFFFFFFFFFFFFFFFFFF AND DUP8 PUSH20 0xFFFFFFFFFFFFFFFFFFFFFFFFFFFFFFFFFFFFFFFF AND GT JUMPDEST PUSH2 0xDCD JUMP JUMPDEST DUP2 PUSH0 ADD MLOAD PUSH20 0xFFFFFFFFFFFFFFFFFFFFFFFFFFFFFFFFFFFFFFFF AND DUP8 PUSH20 0xFFFFFFFFFFFFFFFFFFFFFFFFFFFFFFFFFFFFFFFF AND GT DUP1 PUSH2 0xDCC JUMPI POP PUSH5 0x1000276A3 PUSH20 0xFFFFFFFFFFFFFFFFFFFFFFFFFFFFFFFFFFFFFFFF AND DUP8 PUSH20 0xFFFFFFFFFFFFFFFFFFFFFFFFFFFFFFFFFFFFFFFF AND LT JUMPDEST JUMPDEST ISZERO PUSH2 0xE04 JUMPI PUSH1 0x40 MLOAD PUSH32 0xB53BBACC00000000000000000000000000000000000000000000000000000000 DUP2 MSTORE PUSH1 0x4 ADD PUSH1 0x40 MLOAD DUP1 SWAP2 SUB SWAP1 REVERT JUMPDEST PUSH0 PUSH1 0x40 MLOAD DUP1 PUSH1 0xA0 ADD PUSH1 0x40 MSTORE DUP1 DUP11 DUP2 MSTORE PUSH1 0x20 ADD PUSH0 DUP2 MSTORE PUSH1 0x20 ADD DUP5 PUSH0 ADD MLOAD PUSH20 0xFFFFFFFFFFFFFFFFFFFFFFFFFFFFFFFFFFFFFFFF AND DUP2 MSTORE PUSH1 0x20 ADD DUP5 PUSH1 0x20 ADD MLOAD PUSH1 0x2 SIGNEXTEND DUP2 MSTORE PUSH1 0x20 ADD DUP4 PUSH16 0xFFFFFFFFFFFFFFFFFFFFFFFFFFFFFFFF AND DUP2 MSTORE POP SWAP1 POP JUMPDEST PUSH0 DUP2 PUSH0 ADD MLOAD GT DUP1 ISZERO PUSH2 0xEA3 JUMPI POP DUP8 PUSH20 0xFFFFFFFFFFFFFFFFFFFFFFFFFFFFFFFFFFFFFFFF AND DUP2 PUSH1 0x40 ADD MLOAD PUSH20 0xFFFFFFFFFFFFFFFFFFFFFFFFFFFFFFFFFFFFFFFF AND EQ ISZERO JUMPDEST ISZERO PUSH2 0x1217 JUMPI PUSH2 0xEB0 PUSH2 0x2D9E JUMP JUMPDEST DUP2 PUSH1 0x40 ADD MLOAD DUP2 PUSH0 ADD SWAP1 PUSH20 0xFFFFFFFFFFFFFFFFFFFFFFFFFFFFFFFFFFFFFFFF AND SWAP1 DUP2 PUSH20 0xFFFFFFFFFFFFFFFFFFFFFFFFFFFFFFFFFFFFFFFF AND DUP2 MSTORE POP POP PUSH2 0xF08 DUP3 PUSH1 0x60 ADD MLOAD PUSH1 0x1 DUP14 PUSH1 0x3 PUSH2 0x2160 SWAP1 SWAP4 SWAP3 SWAP2 SWAP1 PUSH4 0xFFFFFFFF AND JUMP JUMPDEST DUP3 PUSH1 0x20 ADD DUP4 PUSH1 0x40 ADD DUP3 ISZERO ISZERO ISZERO ISZERO DUP2 MSTORE POP DUP3 PUSH1 0x2 SIGNEXTEND PUSH1 0x2 SIGNEXTEND DUP2 MSTORE POP POP POP PUSH2 0xF31 DUP2 PUSH1 0x20 ADD MLOAD PUSH2 0x19B9 JUMP JUMPDEST DUP2 PUSH1 0x60 ADD SWAP1 PUSH20 0xFFFFFFFFFFFFFFFFFFFFFFFFFFFFFFFFFFFFFFFF AND SWAP1 DUP2 PUSH20 0xFFFFFFFFFFFFFFFFFFFFFFFFFFFFFFFFFFFFFFFF AND DUP2 MSTORE POP POP PUSH2 0xFFF DUP3 PUSH1 0x40 ADD MLOAD DUP13 PUSH2 0xFAD JUMPI DUP11 PUSH20 0xFFFFFFFFFFFFFFFFFFFFFFFFFFFFFFFFFFFFFFFF AND DUP4 PUSH1 0x60 ADD MLOAD PUSH20 0xFFFFFFFFFFFFFFFFFFFFFFFFFFFFFFFFFFFFFFFF AND GT PUSH2 0xFE1 JUMP JUMPDEST DUP11 PUSH20 0xFFFFFFFFFFFFFFFFFFFFFFFFFFFFFFFFFFFFFFFF AND DUP4 PUSH1 0x60 ADD MLOAD PUSH20 0xFFFFFFFFFFFFFFFFFFFFFFFFFFFFFFFFFFFFFFFF AND LT JUMPDEST PUSH2 0xFEF JUMPI DUP3 PUSH1 0x60 ADD MLOAD PUSH2 0xFF1 JUMP JUMPDEST DUP11 JUMPDEST DUP5 PUSH1 0x80 ADD MLOAD DUP6 PUSH0 ADD MLOAD PUSH2 0x233E JUMP JUMPDEST DUP5 PUSH1 0x40 ADD DUP5 PUSH1 0x80 ADD DUP6 PUSH1 0xA0 ADD DUP4 DUP2 MSTORE POP DUP4 DUP2 MSTORE POP DUP4 PUSH20 0xFFFFFFFFFFFFFFFFFFFFFFFFFFFFFFFFFFFFFFFF AND PUSH20 0xFFFFFFFFFFFFFFFFFFFFFFFFFFFFFFFFFFFFFFFF AND DUP2 MSTORE POP POP POP POP DUP1 PUSH1 0x80 ADD MLOAD DUP3 PUSH0 ADD DUP2 DUP2 MLOAD PUSH2 0x105B SWAP2 SWAP1 PUSH2 0x35E1 JUMP JUMPDEST SWAP2 POP DUP2 DUP2 MSTORE POP POP DUP1 PUSH1 0xA0 ADD MLOAD DUP3 PUSH1 0x20 ADD DUP2 DUP2 MLOAD PUSH2 0x1078 SWAP2 SWAP1 PUSH2 0x34E3 JUMP JUMPDEST SWAP2 POP DUP2 DUP2 MSTORE POP POP DUP1 PUSH1 0x60 ADD MLOAD PUSH20 0xFFFFFFFFFFFFFFFFFFFFFFFFFFFFFFFFFFFFFFFF AND DUP3 PUSH1 0x40 ADD MLOAD PUSH20 0xFFFFFFFFFFFFFFFFFFFFFFFFFFFFFFFFFFFFFFFF AND SUB PUSH2 0x11B7 JUMPI DUP1 PUSH1 0x40 ADD MLOAD ISZERO PUSH2 0x1180 JUMPI PUSH0 PUSH2 0x10DD DUP3 PUSH1 0x20 ADD MLOAD PUSH1 0x2 PUSH2 0x23EA SWAP1 SWAP2 SWAP1 PUSH4 0xFFFFFFFF AND JUMP JUMPDEST SWAP1 POP DUP12 ISZERO PUSH2 0x10F2 JUMPI DUP1 PUSH2 0x10EF SWAP1 PUSH2 0x3614 JUMP JUMPDEST SWAP1 POP JUMPDEST PUSH2 0x1100 DUP4 PUSH1 0x80 ADD MLOAD DUP3 PUSH2 0x1FE5 JUMP JUMPDEST DUP4 PUSH1 0x80 ADD SWAP1 PUSH16 0xFFFFFFFFFFFFFFFFFFFFFFFFFFFFFFFF AND SWAP1 DUP2 PUSH16 0xFFFFFFFFFFFFFFFFFFFFFFFFFFFFFFFF AND DUP2 MSTORE POP POP PUSH0 DUP4 PUSH1 0x80 ADD MLOAD PUSH16 0xFFFFFFFFFFFFFFFFFFFFFFFFFFFFFFFF AND SUB PUSH2 0x117E JUMPI PUSH1 0x40 MLOAD PUSH32 0x4323A55500000000000000000000000000000000000000000000000000000000 DUP2 MSTORE PUSH1 0x4 ADD PUSH1 0x40 MLOAD DUP1 SWAP2 SUB SWAP1 REVERT JUMPDEST POP JUMPDEST DUP11 PUSH2 0x118F JUMPI DUP1 PUSH1 0x20 ADD MLOAD PUSH2 0x11A1 JUMP JUMPDEST PUSH1 0x1 DUP2 PUSH1 0x20 ADD MLOAD PUSH2 0x11A0 SWAP2 SWAP1 PUSH2 0x365A JUMP JUMPDEST JUMPDEST DUP3 PUSH1 0x60 ADD SWAP1 PUSH1 0x2 SIGNEXTEND SWAP1 DUP2 PUSH1 0x2 SIGNEXTEND DUP2 MSTORE POP POP PUSH2 0x1211 JUMP JUMPDEST DUP1 PUSH0 ADD MLOAD PUSH20 0xFFFFFFFFFFFFFFFFFFFFFFFFFFFFFFFFFFFFFFFF AND DUP3 PUSH1 0x40 ADD MLOAD PUSH20 0xFFFFFFFFFFFFFFFFFFFFFFFFFFFFFFFFFFFFFFFF AND EQ PUSH2 0x1210 JUMPI PUSH2 0x11FE DUP3 PUSH1 0x40 ADD MLOAD PUSH2 0x241E JUMP JUMPDEST DUP3 PUSH1 0x60 ADD SWAP1 PUSH1 0x2 SIGNEXTEND SWAP1 DUP2 PUSH1 0x2 SIGNEXTEND DUP2 MSTORE POP POP JUMPDEST JUMPDEST POP PUSH2 0xE61 JUMP JUMPDEST DUP3 PUSH1 0x20 ADD MLOAD PUSH1 0x2 SIGNEXTEND DUP2 PUSH1 0x60 ADD MLOAD PUSH1 0x2 SIGNEXTEND EQ PUSH2 0x12A1 JUMPI DUP1 PUSH1 0x40 ADD MLOAD DUP2 PUSH1 0x60 ADD MLOAD PUSH0 DUP1 ADD PUSH0 DUP1 PUSH0 ADD PUSH1 0x14 DUP5 SWAP2 SWAP1 PUSH2 0x100 EXP DUP2 SLOAD DUP2 PUSH3 0xFFFFFF MUL NOT AND SWAP1 DUP4 PUSH1 0x2 SIGNEXTEND PUSH3 0xFFFFFF AND MUL OR SWAP1 SSTORE POP DUP4 SWAP2 SWAP1 PUSH2 0x100 EXP DUP2 SLOAD DUP2 PUSH20 0xFFFFFFFFFFFFFFFFFFFFFFFFFFFFFFFFFFFFFFFF MUL NOT AND SWAP1 DUP4 PUSH20 0xFFFFFFFFFFFFFFFFFFFFFFFFFFFFFFFFFFFFFFFF AND MUL OR SWAP1 SSTORE POP POP POP JUMPDEST DUP1 PUSH1 0x80 ADD MLOAD PUSH16 0xFFFFFFFFFFFFFFFFFFFFFFFFFFFFFFFF AND DUP3 PUSH16 0xFFFFFFFFFFFFFFFFFFFFFFFFFFFFFFFF AND EQ PUSH2 0x130D JUMPI DUP1 PUSH1 0x80 ADD MLOAD PUSH1 0x1 PUSH0 PUSH2 0x100 EXP DUP2 SLOAD DUP2 PUSH16 0xFFFFFFFFFFFFFFFFFFFFFFFFFFFFFFFF MUL NOT AND SWAP1 DUP4 PUSH16 0xFFFFFFFFFFFFFFFFFFFFFFFFFFFFFFFF AND MUL OR SWAP1 SSTORE POP JUMPDEST DUP10 PUSH2 0x1334 JUMPI DUP1 PUSH1 0x20 ADD MLOAD PUSH2 0x1320 SWAP1 PUSH2 0x36B4 JUMP JUMPDEST DUP2 PUSH0 ADD MLOAD DUP11 PUSH2 0x132F SWAP2 SWAP1 PUSH2 0x35E1 JUMP JUMPDEST PUSH2 0x1352 JUMP JUMPDEST DUP1 PUSH0 ADD MLOAD DUP10 PUSH2 0x1343 SWAP2 SWAP1 PUSH2 0x35E1 JUMP JUMPDEST DUP2 PUSH1 0x20 ADD MLOAD PUSH2 0x1351 SWAP1 PUSH2 0x36B4 JUMP JUMPDEST JUMPDEST DUP1 SWAP6 POP DUP2 SWAP7 POP POP POP DUP10 ISZERO PUSH2 0x14BA JUMPI PUSH32 0x0 PUSH20 0xFFFFFFFFFFFFFFFFFFFFFFFFFFFFFFFFFFFFFFFF AND PUSH4 0xA9059CBB DUP13 DUP7 PUSH2 0x13A7 SWAP1 PUSH2 0x36B4 JUMP JUMPDEST PUSH1 0x40 MLOAD DUP4 PUSH4 0xFFFFFFFF AND PUSH1 0xE0 SHL DUP2 MSTORE PUSH1 0x4 ADD PUSH2 0x13C4 SWAP3 SWAP2 SWAP1 PUSH2 0x3598 JUMP JUMPDEST PUSH0 PUSH1 0x40 MLOAD DUP1 DUP4 SUB DUP2 PUSH0 DUP8 DUP1 EXTCODESIZE ISZERO DUP1 ISZERO PUSH2 0x13DB JUMPI PUSH0 DUP1 REVERT JUMPDEST POP GAS CALL ISZERO DUP1 ISZERO PUSH2 0x13ED JUMPI RETURNDATASIZE PUSH0 DUP1 RETURNDATACOPY RETURNDATASIZE PUSH0 REVERT JUMPDEST POP POP POP POP PUSH0 PUSH2 0x13FA PUSH2 0x2022 JUMP JUMPDEST SWAP1 POP CALLER PUSH20 0xFFFFFFFFFFFFFFFFFFFFFFFFFFFFFFFFFFFFFFFF AND PUSH4 0xFA483E72 DUP8 DUP8 DUP12 DUP12 PUSH1 0x40 MLOAD DUP6 PUSH4 0xFFFFFFFF AND PUSH1 0xE0 SHL DUP2 MSTORE PUSH1 0x4 ADD PUSH2 0x143B SWAP5 SWAP4 SWAP3 SWAP2 SWAP1 PUSH2 0x36FA JUMP JUMPDEST PUSH0 PUSH1 0x40 MLOAD DUP1 DUP4 SUB DUP2 PUSH0 DUP8 DUP1 EXTCODESIZE ISZERO DUP1 ISZERO PUSH2 0x1452 JUMPI PUSH0 DUP1 REVERT JUMPDEST POP GAS CALL ISZERO DUP1 ISZERO PUSH2 0x1464 JUMPI RETURNDATASIZE PUSH0 DUP1 RETURNDATACOPY RETURNDATASIZE PUSH0 REVERT JUMPDEST POP POP POP POP PUSH2 0x1470 PUSH2 0x2022 JUMP JUMPDEST DUP7 DUP3 PUSH2 0x147C SWAP2 SWAP1 PUSH2 0x34E3 JUMP JUMPDEST GT ISZERO PUSH2 0x14B4 JUMPI PUSH1 0x40 MLOAD PUSH32 0x98FB56100000000000000000000000000000000000000000000000000000000 DUP2 MSTORE PUSH1 0x4 ADD PUSH1 0x40 MLOAD DUP1 SWAP2 SUB SWAP1 REVERT JUMPDEST POP PUSH2 0x1610 JUMP JUMPDEST PUSH32 0x0 PUSH20 0xFFFFFFFFFFFFFFFFFFFFFFFFFFFFFFFFFFFFFFFF AND PUSH4 0xA9059CBB DUP13 DUP8 PUSH2 0x1501 SWAP1 PUSH2 0x36B4 JUMP JUMPDEST PUSH1 0x40 MLOAD DUP4 PUSH4 0xFFFFFFFF AND PUSH1 0xE0 SHL DUP2 MSTORE PUSH1 0x4 ADD PUSH2 0x151E SWAP3 SWAP2 SWAP1 PUSH2 0x3598 JUMP JUMPDEST PUSH0 PUSH1 0x40 MLOAD DUP1 DUP4 SUB DUP2 PUSH0 DUP8 DUP1 EXTCODESIZE ISZERO DUP1 ISZERO PUSH2 0x1535 JUMPI PUSH0 DUP1 REVERT JUMPDEST POP GAS CALL ISZERO DUP1 ISZERO PUSH2 0x1547 JUMPI RETURNDATASIZE PUSH0 DUP1 RETURNDATACOPY RETURNDATASIZE PUSH0 REVERT JUMPDEST POP POP POP POP PUSH0 PUSH2 0x1554 PUSH2 0x20C1 JUMP JUMPDEST SWAP1 POP CALLER PUSH20 0xFFFFFFFFFFFFFFFFFFFFFFFFFFFFFFFFFFFFFFFF AND PUSH4 0xFA483E72 DUP8 DUP8 DUP12 DUP12 PUSH1 0x40 MLOAD DUP6 PUSH4 0xFFFFFFFF AND PUSH1 0xE0 SHL DUP2 MSTORE PUSH1 0x4 ADD PUSH2 0x1595 SWAP5 SWAP4 SWAP3 SWAP2 SWAP1 PUSH2 0x36FA JUMP JUMPDEST PUSH0 PUSH1 0x40 MLOAD DUP1 DUP4 SUB DUP2 PUSH0 DUP8 DUP1 EXTCODESIZE ISZERO DUP1 ISZERO PUSH2 0x15AC JUMPI PUSH0 DUP1 REVERT JUMPDEST POP GAS CALL ISZERO DUP1 ISZERO PUSH2 0x15BE JUMPI RETURNDATASIZE PUSH0 DUP1 RETURNDATACOPY RETURNDATASIZE PUSH0 REVERT JUMPDEST POP POP POP POP PUSH2 0x15CA PUSH2 0x20C1 JUMP JUMPDEST DUP6 DUP3 PUSH2 0x15D6 SWAP2 SWAP1 PUSH2 0x34E3 JUMP JUMPDEST GT ISZERO PUSH2 0x160E JUMPI PUSH1 0x40 MLOAD PUSH32 0x98FB56100000000000000000000000000000000000000000000000000000000 DUP2 MSTORE PUSH1 0x4 ADD PUSH1 0x40 MLOAD DUP1 SWAP2 SUB SWAP1 REVERT JUMPDEST POP JUMPDEST DUP11 PUSH20 0xFFFFFFFFFFFFFFFFFFFFFFFFFFFFFFFFFFFFFFFF AND CALLER PUSH20 0xFFFFFFFFFFFFFFFFFFFFFFFFFFFFFFFFFFFFFFFF AND PUSH32 0xC42079F94A6350D7E6235F29174924F928CC2AC818EB64FED8004E115FBCCA67 DUP8 DUP8 PUSH0 DUP1 ADD PUSH0 SWAP1 SLOAD SWAP1 PUSH2 0x100 EXP SWAP1 DIV PUSH20 0xFFFFFFFFFFFFFFFFFFFFFFFFFFFFFFFFFFFFFFFF AND DUP7 PUSH1 0x80 ADD MLOAD PUSH0 DUP1 ADD PUSH1 0x14 SWAP1 SLOAD SWAP1 PUSH2 0x100 EXP SWAP1 DIV PUSH1 0x2 SIGNEXTEND PUSH1 0x40 MLOAD PUSH2 0x16AB SWAP6 SWAP5 SWAP4 SWAP3 SWAP2 SWAP1 PUSH2 0x3738 JUMP JUMPDEST PUSH1 0x40 MLOAD DUP1 SWAP2 SUB SWAP1 LOG3 POP POP POP SWAP7 POP SWAP7 SWAP5 POP POP POP POP POP JUMP JUMPDEST PUSH1 0x2 PUSH1 0x20 MSTORE DUP1 PUSH0 MSTORE PUSH1 0x40 PUSH0 KECCAK256 PUSH0 SWAP2 POP SWAP1 POP DUP1 PUSH0 ADD PUSH0 SWAP1 SLOAD SWAP1 PUSH2 0x100 EXP SWAP1 DIV PUSH1 0xFF AND SWAP1 DUP1 PUSH0 ADD PUSH1 0x1 SWAP1 SLOAD SWAP1 PUSH2 0x100 EXP SWAP1 DIV PUSH16 0xFFFFFFFFFFFFFFFFFFFFFFFFFFFFFFFF AND SWAP1 DUP1 PUSH1 0x1 ADD PUSH0 SWAP1 SLOAD SWAP1 PUSH2 0x100 EXP SWAP1 DIV PUSH1 0xF SIGNEXTEND SWAP1 POP DUP4 JUMP JUMPDEST PUSH0 DUP1 DUP6 PUSH0 DUP7 PUSH1 0x2 SIGNEXTEND PUSH1 0x2 SIGNEXTEND DUP2 MSTORE PUSH1 0x20 ADD SWAP1 DUP2 MSTORE PUSH1 0x20 ADD PUSH0 KECCAK256 SWAP1 POP PUSH0 DUP2 PUSH0 ADD PUSH1 0x1 SWAP1 SLOAD SWAP1 PUSH2 0x100 EXP SWAP1 DIV PUSH16 0xFFFFFFFFFFFFFFFFFFFFFFFFFFFFFFFF AND SWAP1 POP PUSH0 PUSH2 0x1762 DUP3 DUP8 PUSH2 0x1FE5 JUMP JUMPDEST SWAP1 POP PUSH0 DUP3 PUSH16 0xFFFFFFFFFFFFFFFFFFFFFFFFFFFFFFFF AND EQ ISZERO ISZERO PUSH0 DUP3 PUSH16 0xFFFFFFFFFFFFFFFFFFFFFFFFFFFFFFFF AND EQ ISZERO ISZERO EQ ISZERO SWAP4 POP PUSH0 DUP3 PUSH16 0xFFFFFFFFFFFFFFFFFFFFFFFFFFFFFFFF AND SUB PUSH2 0x17CB JUMPI PUSH1 0x1 DUP4 PUSH0 ADD PUSH0 PUSH2 0x100 EXP DUP2 SLOAD DUP2 PUSH1 0xFF MUL NOT AND SWAP1 DUP4 ISZERO ISZERO MUL OR SWAP1 SSTORE POP JUMPDEST DUP1 DUP4 PUSH0 ADD PUSH1 0x1 PUSH2 0x100 EXP DUP2 SLOAD DUP2 PUSH16 0xFFFFFFFFFFFFFFFFFFFFFFFFFFFFFFFF MUL NOT AND SWAP1 DUP4 PUSH16 0xFFFFFFFFFFFFFFFFFFFFFFFFFFFFFFFF AND MUL OR SWAP1 SSTORE POP DUP5 PUSH2 0x1831 JUMPI DUP6 PUSH1 0xF SIGNEXTEND DUP4 PUSH1 0x1 ADD PUSH0 SWAP1 SLOAD SWAP1 PUSH2 0x100 EXP SWAP1 DIV PUSH1 0xF SIGNEXTEND PUSH1 0xF SIGNEXTEND PUSH2 0x182C SWAP2 SWAP1 PUSH2 0x3789 JUMP JUMPDEST PUSH2 0x1854 JUMP JUMPDEST DUP6 PUSH1 0xF SIGNEXTEND DUP4 PUSH1 0x1 ADD PUSH0 SWAP1 SLOAD SWAP1 PUSH2 0x100 EXP SWAP1 DIV PUSH1 0xF SIGNEXTEND PUSH1 0xF SIGNEXTEND PUSH2 0x1853 SWAP2 SWAP1 PUSH2 0x37CA JUMP JUMPDEST JUMPDEST DUP4 PUSH1 0x1 ADD PUSH0 PUSH2 0x100 EXP DUP2 SLOAD DUP2 PUSH16 0xFFFFFFFFFFFFFFFFFFFFFFFFFFFFFFFF MUL NOT AND SWAP1 DUP4 PUSH1 0xF SIGNEXTEND PUSH16 0xFFFFFFFFFFFFFFFFFFFFFFFFFFFFFFFF AND MUL OR SWAP1 SSTORE POP POP POP POP SWAP5 SWAP4 POP POP POP POP JUMP JUMPDEST PUSH0 DUP2 DUP4 PUSH2 0x18A8 SWAP2 SWAP1 PUSH2 0x3837 JUMP JUMPDEST PUSH1 0x2 SIGNEXTEND EQ PUSH2 0x18B4 JUMPI PUSH0 DUP1 REVERT JUMPDEST PUSH0 DUP1 PUSH2 0x18CA DUP4 DUP6 PUSH2 0x18C5 SWAP2 SWAP1 PUSH2 0x3867 JUMP JUMPDEST PUSH2 0x2815 JUMP JUMPDEST SWAP2 POP SWAP2 POP PUSH0 DUP2 PUSH1 0xFF AND PUSH1 0x1 SWAP1 SHL SWAP1 POP DUP1 DUP7 PUSH0 DUP6 PUSH1 0x1 SIGNEXTEND PUSH1 0x1 SIGNEXTEND DUP2 MSTORE PUSH1 0x20 ADD SWAP1 DUP2 MSTORE PUSH1 0x20 ADD PUSH0 KECCAK256 PUSH0 DUP3 DUP3 SLOAD XOR SWAP3 POP POP DUP2 SWAP1 SSTORE POP POP POP POP POP POP POP JUMP JUMPDEST PUSH0 DUP5 PUSH0 DUP6 DUP6 DUP6 PUSH1 0x40 MLOAD PUSH1 0x20 ADD PUSH2 0x191C SWAP4 SWAP3 SWAP2 SWAP1 PUSH2 0x3948 JUMP JUMPDEST PUSH1 0x40 MLOAD PUSH1 0x20 DUP2 DUP4 SUB SUB DUP2 MSTORE SWAP1 PUSH1 0x40 MSTORE DUP1 MLOAD SWAP1 PUSH1 0x20 ADD KECCAK256 DUP2 MSTORE PUSH1 0x20 ADD SWAP1 DUP2 MSTORE PUSH1 0x20 ADD PUSH0 KECCAK256 SWAP1 POP SWAP5 SWAP4 POP POP POP POP JUMP JUMPDEST PUSH0 DUP3 PUSH0 ADD PUSH0 SWAP1 SLOAD SWAP1 PUSH2 0x100 EXP SWAP1 DIV PUSH16 0xFFFFFFFFFFFFFFFFFFFFFFFFFFFFFFFF AND SWAP1 POP PUSH0 DUP3 DUP3 PUSH2 0x1978 SWAP2 SWAP1 PUSH2 0x3984 JUMP JUMPDEST SWAP1 POP DUP1 DUP5 PUSH0 ADD PUSH0 PUSH2 0x100 EXP DUP2 SLOAD DUP2 PUSH16 0xFFFFFFFFFFFFFFFFFFFFFFFFFFFFFFFF MUL NOT AND SWAP1 DUP4 PUSH16 0xFFFFFFFFFFFFFFFFFFFFFFFFFFFFFFFF AND MUL OR SWAP1 SSTORE POP POP POP POP POP JUMP JUMPDEST PUSH0 DUP1 PUSH0 DUP4 PUSH1 0x2 SIGNEXTEND SLT PUSH2 0x19CE JUMPI DUP3 PUSH1 0x2 SIGNEXTEND PUSH2 0x19DC JUMP JUMPDEST DUP3 PUSH1 0x2 SIGNEXTEND PUSH2 0x19DB SWAP1 PUSH2 0x36B4 JUMP JUMPDEST JUMPDEST SWAP1 POP PUSH32 0xFFFFFFFFFFFFFFFFFFFFFFFFFFFFFFFFFFFFFFFFFFFFFFFFFFFFFFFFFFF27618 PUSH2 0x1A08 SWAP1 PUSH2 0x3405 JUMP JUMPDEST PUSH3 0xFFFFFF AND DUP2 GT ISZERO PUSH2 0x1A4F JUMPI PUSH1 0x40 MLOAD PUSH32 0x8C379A000000000000000000000000000000000000000000000000000000000 DUP2 MSTORE PUSH1 0x4 ADD PUSH2 0x1A46 SWAP1 PUSH2 0x3A21 JUMP JUMPDEST PUSH1 0x40 MLOAD DUP1 SWAP2 SUB SWAP1 REVERT JUMPDEST PUSH0 DUP1 PUSH1 0x1 DUP4 AND SUB PUSH2 0x1A71 JUMPI PUSH17 0x100000000000000000000000000000000 PUSH2 0x1A83 JUMP JUMPDEST PUSH16 0xFFFCB933BD6FAD37AA2D162D1A594001 JUMPDEST PUSH17 0xFFFFFFFFFFFFFFFFFFFFFFFFFFFFFFFFFF AND SWAP1 POP PUSH0 PUSH1 0x2 DUP4 AND EQ PUSH2 0x1AC5 JUMPI PUSH1 0x80 PUSH16 0xFFF97272373D413259A46990580E213A DUP3 PUSH2 0x1AC0 SWAP2 SWAP1 PUSH2 0x3A3F JUMP JUMPDEST SWAP1 SHR SWAP1 POP JUMPDEST PUSH0 PUSH1 0x4 DUP4 AND EQ PUSH2 0x1AF2 JUMPI PUSH1 0x80 PUSH16 0xFFF2E50F5F656932EF12357CF3C7FDCC DUP3 PUSH2 0x1AED SWAP2 SWAP1 PUSH2 0x3A3F JUMP JUMPDEST SWAP1 SHR SWAP1 POP JUMPDEST PUSH0 PUSH1 0x8 DUP4 AND EQ PUSH2 0x1B1F JUMPI PUSH1 0x80 PUSH16 0xFFE5CACA7E10E4E61C3624EAA0941CD0 DUP3 PUSH2 0x1B1A SWAP2 SWAP1 PUSH2 0x3A3F JUMP JUMPDEST SWAP1 SHR SWAP1 POP JUMPDEST PUSH0 PUSH1 0x10 DUP4 AND EQ PUSH2 0x1B4C JUMPI PUSH1 0x80 PUSH16 0xFFCB9843D60F6159C9DB58835C926644 DUP3 PUSH2 0x1B47 SWAP2 SWAP1 PUSH2 0x3A3F JUMP JUMPDEST SWAP1 SHR SWAP1 POP JUMPDEST PUSH0 PUSH1 0x20 DUP4 AND EQ PUSH2 0x1B79 JUMPI PUSH1 0x80 PUSH16 0xFF973B41FA98C081472E6896DFB254C0 DUP3 PUSH2 0x1B74 SWAP2 SWAP1 PUSH2 0x3A3F JUMP JUMPDEST SWAP1 SHR SWAP1 POP JUMPDEST PUSH0 PUSH1 0x40 DUP4 AND EQ PUSH2 0x1BA6 JUMPI PUSH1 0x80 PUSH16 0xFF2EA16466C96A3843EC78B326B52861 DUP3 PUSH2 0x1BA1 SWAP2 SWAP1 PUSH2 0x3A3F JUMP JUMPDEST SWAP1 SHR SWAP1 POP JUMPDEST PUSH0 PUSH1 0x80 DUP4 AND EQ PUSH2 0x1BD3 JUMPI PUSH1 0x80 PUSH16 0xFE5DEE046A99A2A811C461F1969C3053 DUP3 PUSH2 0x1BCE SWAP2 SWAP1 PUSH2 0x3A3F JUMP JUMPDEST SWAP1 SHR SWAP1 POP JUMPDEST PUSH0 PUSH2 0x100 DUP4 AND EQ PUSH2 0x1C01 JUMPI PUSH1 0x80 PUSH16 0xFCBE86C7900A88AEDCFFC83B479AA3A4 DUP3 PUSH2 0x1BFC SWAP2 SWAP1 PUSH2 0x3A3F JUMP JUMPDEST SWAP1 SHR SWAP1 POP JUMPDEST PUSH0 PUSH2 0x200 DUP4 AND EQ PUSH2 0x1C2F JUMPI PUSH1 0x80 PUSH16 0xF987A7253AC413176F2B074CF7815E54 DUP3 PUSH2 0x1C2A SWAP2 SWAP1 PUSH2 0x3A3F JUMP JUMPDEST SWAP1 SHR SWAP1 POP JUMPDEST PUSH0 PUSH2 0x400 DUP4 AND EQ PUSH2 0x1C5D JUMPI PUSH1 0x80 PUSH16 0xF3392B0822B70005940C7A398E4B70F3 DUP3 PUSH2 0x1C58 SWAP2 SWAP1 PUSH2 0x3A3F JUMP JUMPDEST SWAP1 SHR SWAP1 POP JUMPDEST PUSH0 PUSH2 0x800 DUP4 AND EQ PUSH2 0x1C8B JUMPI PUSH1 0x80 PUSH16 0xE7159475A2C29B7443B29C7FA6E889D9 DUP3 PUSH2 0x1C86 SWAP2 SWAP1 PUSH2 0x3A3F JUMP JUMPDEST SWAP1 SHR SWAP1 POP JUMPDEST PUSH0 PUSH2 0x1000 DUP4 AND EQ PUSH2 0x1CB9 JUMPI PUSH1 0x80 PUSH16 0xD097F3BDFD2022B8845AD8F792AA5825 DUP3 PUSH2 0x1CB4 SWAP2 SWAP1 PUSH2 0x3A3F JUMP JUMPDEST SWAP1 SHR SWAP1 POP JUMPDEST PUSH0 PUSH2 0x2000 DUP4 AND EQ PUSH2 0x1CE7 JUMPI PUSH1 0x80 PUSH16 0xA9F746462D870FDF8A65DC1F90E061E5 DUP3 PUSH2 0x1CE2 SWAP2 SWAP1 PUSH2 0x3A3F JUMP JUMPDEST SWAP1 SHR SWAP1 POP JUMPDEST PUSH0 PUSH2 0x4000 DUP4 AND EQ PUSH2 0x1D15 JUMPI PUSH1 0x80 PUSH16 0x70D869A156D2A1B890BB3DF62BAF32F7 DUP3 PUSH2 0x1D10 SWAP2 SWAP1 PUSH2 0x3A3F JUMP JUMPDEST SWAP1 SHR SWAP1 POP JUMPDEST PUSH0 PUSH2 0x8000 DUP4 AND EQ PUSH2 0x1D43 JUMPI PUSH1 0x80 PUSH16 0x31BE135F97D08FD981231505542FCFA6 DUP3 PUSH2 0x1D3E SWAP2 SWAP1 PUSH2 0x3A3F JUMP JUMPDEST SWAP1 SHR SWAP1 POP JUMPDEST PUSH0 PUSH3 0x10000 DUP4 AND EQ PUSH2 0x1D72 JUMPI PUSH1 0x80 PUSH16 0x9AA508B5B7A84E1C677DE54F3E99BC9 DUP3 PUSH2 0x1D6D SWAP2 SWAP1 PUSH2 0x3A3F JUMP JUMPDEST SWAP1 SHR SWAP1 POP JUMPDEST PUSH0 PUSH3 0x20000 DUP4 AND EQ PUSH2 0x1DA0 JUMPI PUSH1 0x80 PUSH15 0x5D6AF8DEDB81196699C329225EE604 DUP3 PUSH2 0x1D9B SWAP2 SWAP1 PUSH2 0x3A3F JUMP JUMPDEST SWAP1 SHR SWAP1 POP JUMPDEST PUSH0 PUSH3 0x40000 DUP4 AND EQ PUSH2 0x1DCD JUMPI PUSH1 0x80 PUSH14 0x2216E584F5FA1EA926041BEDFE98 DUP3 PUSH2 0x1DC8 SWAP2 SWAP1 PUSH2 0x3A3F JUMP JUMPDEST SWAP1 SHR SWAP1 POP JUMPDEST PUSH0 PUSH3 0x80000 DUP4 AND EQ PUSH2 0x1DF8 JUMPI PUSH1 0x80 PUSH12 0x48A170391F7DC42444E8FA2 DUP3 PUSH2 0x1DF3 SWAP2 SWAP1 PUSH2 0x3A3F JUMP JUMPDEST SWAP1 SHR SWAP1 POP JUMPDEST PUSH0 DUP5 PUSH1 0x2 SIGNEXTEND SGT ISZERO PUSH2 0x1E32 JUMPI DUP1 PUSH32 0xFFFFFFFFFFFFFFFFFFFFFFFFFFFFFFFFFFFFFFFFFFFFFFFFFFFFFFFFFFFFFFFF PUSH2 0x1E2F SWAP2 SWAP1 PUSH2 0x3A80 JUMP JUMPDEST SWAP1 POP JUMPDEST PUSH0 PUSH5 0x100000000 DUP3 PUSH2 0x1E44 SWAP2 SWAP1 PUSH2 0x3AB0 JUMP JUMPDEST EQ PUSH2 0x1E50 JUMPI PUSH1 0x1 PUSH2 0x1E52 JUMP JUMPDEST PUSH0 JUMPDEST PUSH1 0xFF AND PUSH1 0x20 DUP3 SWAP1 SHR PUSH2 0x1E64 SWAP2 SWAP1 PUSH2 0x34E3 JUMP JUMPDEST SWAP3 POP POP POP SWAP2 SWAP1 POP JUMP JUMPDEST PUSH0 DUP3 PUSH20 0xFFFFFFFFFFFFFFFFFFFFFFFFFFFFFFFFFFFFFFFF AND DUP5 PUSH20 0xFFFFFFFFFFFFFFFFFFFFFFFFFFFFFFFFFFFFFFFF AND GT ISZERO PUSH2 0x1EAD JUMPI DUP3 DUP5 DUP1 SWAP5 POP DUP2 SWAP6 POP POP POP JUMPDEST PUSH0 DUP5 PUSH20 0xFFFFFFFFFFFFFFFFFFFFFFFFFFFFFFFFFFFFFFFF AND GT PUSH2 0x1ECE JUMPI PUSH0 DUP1 REVERT JUMPDEST PUSH2 0x1F48 PUSH2 0x1F2C PUSH1 0x60 PUSH1 0xFF AND DUP5 PUSH16 0xFFFFFFFFFFFFFFFFFFFFFFFFFFFFFFFF AND SWAP1 SHL DUP7 DUP7 PUSH2 0x1EFA SWAP2 SWAP1 PUSH2 0x3AE0 JUMP JUMPDEST PUSH20 0xFFFFFFFFFFFFFFFFFFFFFFFFFFFFFFFFFFFFFFFF AND DUP7 PUSH20 0xFFFFFFFFFFFFFFFFFFFFFFFFFFFFFFFFFFFFFFFF AND PUSH2 0x2836 JUMP JUMPDEST DUP6 PUSH20 0xFFFFFFFFFFFFFFFFFFFFFFFFFFFFFFFFFFFFFFFF AND PUSH2 0x289E JUMP JUMPDEST SWAP1 POP SWAP4 SWAP3 POP POP POP JUMP JUMPDEST PUSH0 DUP3 PUSH20 0xFFFFFFFFFFFFFFFFFFFFFFFFFFFFFFFFFFFFFFFF AND DUP5 PUSH20 0xFFFFFFFFFFFFFFFFFFFFFFFFFFFFFFFFFFFFFFFF AND GT ISZERO PUSH2 0x1F91 JUMPI DUP3 DUP5 DUP1 SWAP5 POP DUP2 SWAP6 POP POP POP JUMPDEST PUSH2 0x1FDC DUP3 PUSH16 0xFFFFFFFFFFFFFFFFFFFFFFFFFFFFFFFF AND DUP6 DUP6 PUSH2 0x1FB3 SWAP2 SWAP1 PUSH2 0x3AE0 JUMP JUMPDEST PUSH20 0xFFFFFFFFFFFFFFFFFFFFFFFFFFFFFFFFFFFFFFFF AND PUSH13 0x1000000000000000000000000 PUSH2 0x2836 JUMP JUMPDEST SWAP1 POP SWAP4 SWAP3 POP POP POP JUMP JUMPDEST PUSH0 DUP1 DUP3 PUSH1 0xF SIGNEXTEND SLT ISZERO PUSH2 0x200D JUMPI DUP2 PUSH2 0x1FFB SWAP1 PUSH2 0x3614 JUMP JUMPDEST DUP4 PUSH2 0x2006 SWAP2 SWAP1 PUSH2 0x3B27 JUMP JUMPDEST SWAP1 POP PUSH2 0x201C JUMP JUMPDEST DUP2 DUP4 PUSH2 0x2019 SWAP2 SWAP1 PUSH2 0x3984 JUMP JUMPDEST SWAP1 POP JUMPDEST SWAP3 SWAP2 POP POP JUMP JUMPDEST PUSH0 PUSH32 0x0 PUSH20 0xFFFFFFFFFFFFFFFFFFFFFFFFFFFFFFFFFFFFFFFF AND PUSH4 0x70A08231 ADDRESS PUSH1 0x40 MLOAD DUP3 PUSH4 0xFFFFFFFF AND PUSH1 0xE0 SHL DUP2 MSTORE PUSH1 0x4 ADD PUSH2 0x207C SWAP2 SWAP1 PUSH2 0x2E3E JUMP JUMPDEST PUSH1 0x20 PUSH1 0x40 MLOAD DUP1 DUP4 SUB DUP2 PUSH0 DUP8 GAS CALL ISZERO DUP1 ISZERO PUSH2 0x2098 JUMPI RETURNDATASIZE PUSH0 DUP1 RETURNDATACOPY RETURNDATASIZE PUSH0 REVERT JUMPDEST POP POP POP POP PUSH1 0x40 MLOAD RETURNDATASIZE PUSH1 0x1F NOT PUSH1 0x1F DUP3 ADD AND DUP3 ADD DUP1 PUSH1 0x40 MSTORE POP DUP2 ADD SWAP1 PUSH2 0x20BC SWAP2 SWAP1 PUSH2 0x356D JUMP JUMPDEST SWAP1 POP SWAP1 JUMP JUMPDEST PUSH0 PUSH32 0x0 PUSH20 0xFFFFFFFFFFFFFFFFFFFFFFFFFFFFFFFFFFFFFFFF AND PUSH4 0x70A08231 ADDRESS PUSH1 0x40 MLOAD DUP3 PUSH4 0xFFFFFFFF AND PUSH1 0xE0 SHL DUP2 MSTORE PUSH1 0x4 ADD PUSH2 0x211B SWAP2 SWAP1 PUSH2 0x2E3E JUMP JUMPDEST PUSH1 0x20 PUSH1 0x40 MLOAD DUP1 DUP4 SUB DUP2 PUSH0 DUP8 GAS CALL ISZERO DUP1 ISZERO PUSH2 0x2137 JUMPI RETURNDATASIZE PUSH0 DUP1 RETURNDATACOPY RETURNDATASIZE PUSH0 REVERT JUMPDEST POP POP POP POP PUSH1 0x40 MLOAD RETURNDATASIZE PUSH1 0x1F NOT PUSH1 0x1F DUP3 ADD AND DUP3 ADD DUP1 PUSH1 0x40 MSTORE POP DUP2 ADD SWAP1 PUSH2 0x215B SWAP2 SWAP1 PUSH2 0x356D JUMP JUMPDEST SWAP1 POP SWAP1 JUMP JUMPDEST PUSH0 DUP1 PUSH0 DUP5 DUP7 PUSH2 0x216F SWAP2 SWAP1 PUSH2 0x3867 JUMP JUMPDEST SWAP1 POP PUSH0 DUP7 PUSH1 0x2 SIGNEXTEND SLT DUP1 ISZERO PUSH2 0x2191 JUMPI POP PUSH0 DUP6 DUP8 PUSH2 0x218B SWAP2 SWAP1 PUSH2 0x3837 JUMP JUMPDEST PUSH1 0x2 SIGNEXTEND EQ ISZERO JUMPDEST ISZERO PUSH2 0x21A5 JUMPI DUP1 DUP1 PUSH2 0x21A1 SWAP1 PUSH2 0x3B6A JUMP JUMPDEST SWAP2 POP POP JUMPDEST DUP4 ISZERO PUSH2 0x2262 JUMPI PUSH0 DUP1 PUSH2 0x21B6 DUP4 PUSH2 0x2815 JUMP JUMPDEST SWAP2 POP SWAP2 POP PUSH0 DUP2 PUSH1 0xFF AND PUSH1 0x1 SWAP1 SHL PUSH1 0x1 DUP4 PUSH1 0xFF AND PUSH1 0x1 SWAP1 SHL PUSH2 0x21D7 SWAP2 SWAP1 PUSH2 0x35E1 JUMP JUMPDEST PUSH2 0x21E1 SWAP2 SWAP1 PUSH2 0x34E3 JUMP JUMPDEST SWAP1 POP PUSH0 DUP2 DUP12 PUSH0 DUP7 PUSH1 0x1 SIGNEXTEND PUSH1 0x1 SIGNEXTEND DUP2 MSTORE PUSH1 0x20 ADD SWAP1 DUP2 MSTORE PUSH1 0x20 ADD PUSH0 KECCAK256 SLOAD AND SWAP1 POP PUSH0 DUP2 EQ ISZERO SWAP6 POP DUP6 PUSH2 0x2229 JUMPI DUP9 DUP4 PUSH1 0xFF AND DUP7 PUSH2 0x221A SWAP2 SWAP1 PUSH2 0x365A JUMP JUMPDEST PUSH2 0x2224 SWAP2 SWAP1 PUSH2 0x3BB1 JUMP JUMPDEST PUSH2 0x2257 JUMP JUMPDEST DUP9 PUSH2 0x2233 DUP3 PUSH2 0x28B0 JUMP JUMPDEST DUP5 PUSH2 0x223E SWAP2 SWAP1 PUSH2 0x3BF9 JUMP JUMPDEST PUSH1 0xFF AND DUP7 PUSH2 0x224C SWAP2 SWAP1 PUSH2 0x365A JUMP JUMPDEST PUSH2 0x2256 SWAP2 SWAP1 PUSH2 0x3BB1 JUMP JUMPDEST JUMPDEST SWAP7 POP POP POP POP POP PUSH2 0x2334 JUMP JUMPDEST PUSH0 DUP1 PUSH2 0x2279 PUSH1 0x1 DUP5 PUSH2 0x2274 SWAP2 SWAP1 PUSH2 0x3C2D JUMP JUMPDEST PUSH2 0x2815 JUMP JUMPDEST SWAP2 POP SWAP2 POP PUSH0 PUSH1 0x1 DUP3 PUSH1 0xFF AND PUSH1 0x1 SWAP1 SHL PUSH2 0x2292 SWAP2 SWAP1 PUSH2 0x35E1 JUMP JUMPDEST NOT SWAP1 POP PUSH0 DUP2 DUP12 PUSH0 DUP7 PUSH1 0x1 SIGNEXTEND PUSH1 0x1 SIGNEXTEND DUP2 MSTORE PUSH1 0x20 ADD SWAP1 DUP2 MSTORE PUSH1 0x20 ADD PUSH0 KECCAK256 SLOAD AND SWAP1 POP PUSH0 DUP2 EQ ISZERO SWAP6 POP DUP6 PUSH2 0x22F3 JUMPI DUP9 DUP4 PUSH1 0xFF PUSH2 0x22CA SWAP2 SWAP1 PUSH2 0x3BF9 JUMP JUMPDEST PUSH1 0xFF AND PUSH1 0x1 DUP8 PUSH2 0x22DA SWAP2 SWAP1 PUSH2 0x3C2D JUMP JUMPDEST PUSH2 0x22E4 SWAP2 SWAP1 PUSH2 0x3C2D JUMP JUMPDEST PUSH2 0x22EE SWAP2 SWAP1 PUSH2 0x3BB1 JUMP JUMPDEST PUSH2 0x232D JUMP JUMPDEST DUP9 DUP4 PUSH2 0x22FE DUP4 PUSH2 0x29D1 JUMP JUMPDEST PUSH2 0x2308 SWAP2 SWAP1 PUSH2 0x3BF9 JUMP JUMPDEST PUSH1 0xFF AND PUSH1 0x1 DUP8 PUSH2 0x2318 SWAP2 SWAP1 PUSH2 0x3C2D JUMP JUMPDEST PUSH2 0x2322 SWAP2 SWAP1 PUSH2 0x3C2D JUMP JUMPDEST PUSH2 0x232C SWAP2 SWAP1 PUSH2 0x3BB1 JUMP JUMPDEST JUMPDEST SWAP7 POP POP POP POP POP JUMPDEST POP SWAP5 POP SWAP5 SWAP3 POP POP POP JUMP JUMPDEST PUSH0 DUP1 PUSH0 DUP1 DUP7 PUSH20 0xFFFFFFFFFFFFFFFFFFFFFFFFFFFFFFFFFFFFFFFF AND DUP9 PUSH20 0xFFFFFFFFFFFFFFFFFFFFFFFFFFFFFFFFFFFFFFFF AND LT ISZERO SWAP1 POP DUP1 PUSH2 0x2389 JUMPI PUSH2 0x2384 DUP9 DUP9 DUP9 PUSH2 0x1F51 JUMP JUMPDEST PUSH2 0x2395 JUMP JUMPDEST PUSH2 0x2394 DUP9 DUP9 DUP9 PUSH2 0x1E6D JUMP JUMPDEST JUMPDEST SWAP3 POP DUP3 DUP6 LT PUSH2 0x23A6 JUMPI DUP7 SWAP4 POP PUSH2 0x23B5 JUMP JUMPDEST PUSH2 0x23B2 DUP9 DUP8 DUP8 DUP5 PUSH2 0x2B36 JUMP JUMPDEST SWAP4 POP JUMPDEST PUSH2 0x23C0 DUP9 DUP6 DUP9 PUSH2 0x1E6D JUMP JUMPDEST SWAP3 POP PUSH2 0x23CD DUP9 DUP6 DUP9 PUSH2 0x1F51 JUMP JUMPDEST SWAP2 POP DUP1 PUSH2 0x23DF JUMPI DUP2 DUP4 DUP1 SWAP4 POP DUP2 SWAP5 POP POP POP JUMPDEST POP SWAP5 POP SWAP5 POP SWAP5 SWAP2 POP POP JUMP JUMPDEST PUSH0 DUP1 DUP4 PUSH0 DUP5 PUSH1 0x2 SIGNEXTEND PUSH1 0x2 SIGNEXTEND DUP2 MSTORE PUSH1 0x20 ADD SWAP1 DUP2 MSTORE PUSH1 0x20 ADD PUSH0 KECCAK256 SWAP1 POP DUP1 PUSH1 0x1 ADD PUSH0 SWAP1 SLOAD SWAP1 PUSH2 0x100 EXP SWAP1 DIV PUSH1 0xF SIGNEXTEND SWAP2 POP POP SWAP3 SWAP2 POP POP JUMP JUMPDEST PUSH0 PUSH5 0x1000276A3 PUSH20 0xFFFFFFFFFFFFFFFFFFFFFFFFFFFFFFFFFFFFFFFF AND DUP3 PUSH20 0xFFFFFFFFFFFFFFFFFFFFFFFFFFFFFFFFFFFFFFFF AND LT ISZERO DUP1 ISZERO PUSH2 0x249F JUMPI POP PUSH20 0xFFFD8963EFD1FC6A506488495D951D5263988D26 PUSH20 0xFFFFFFFFFFFFFFFFFFFFFFFFFFFFFFFFFFFFFFFF AND DUP3 PUSH20 0xFFFFFFFFFFFFFFFFFFFFFFFFFFFFFFFFFFFFFFFF AND LT JUMPDEST PUSH2 0x24DE JUMPI PUSH1 0x40 MLOAD PUSH32 0x8C379A000000000000000000000000000000000000000000000000000000000 DUP2 MSTORE PUSH1 0x4 ADD PUSH2 0x24D5 SWAP1 PUSH2 0x3CD1 JUMP JUMPDEST PUSH1 0x40 MLOAD DUP1 SWAP2 SUB SWAP1 REVERT JUMPDEST PUSH0 PUSH1 0x20 DUP4 PUSH20 0xFFFFFFFFFFFFFFFFFFFFFFFFFFFFFFFFFFFFFFFF AND SWAP1 SHL SWAP1 POP PUSH0 DUP2 SWAP1 POP PUSH0 PUSH16 0xFFFFFFFFFFFFFFFFFFFFFFFFFFFFFFFF DUP3 GT PUSH1 0x7 SHL DUP1 DUP3 OR SWAP2 POP DUP3 DUP2 SHR SWAP3 POP POP PUSH8 0xFFFFFFFFFFFFFFFF DUP3 GT PUSH1 0x6 SHL DUP1 DUP3 OR SWAP2 POP DUP3 DUP2 SHR SWAP3 POP POP PUSH4 0xFFFFFFFF DUP3 GT PUSH1 0x5 SHL DUP1 DUP3 OR SWAP2 POP DUP3 DUP2 SHR SWAP3 POP POP PUSH2 0xFFFF DUP3 GT PUSH1 0x4 SHL DUP1 DUP3 OR SWAP2 POP DUP3 DUP2 SHR SWAP3 POP POP PUSH1 0xFF DUP3 GT PUSH1 0x3 SHL DUP1 DUP3 OR SWAP2 POP DUP3 DUP2 SHR SWAP3 POP POP PUSH1 0xF DUP3 GT PUSH1 0x2 SHL DUP1 DUP3 OR SWAP2 POP DUP3 DUP2 SHR SWAP3 POP POP PUSH1 0x3 DUP3 GT PUSH1 0x1 SHL DUP1 DUP3 OR SWAP2 POP DUP3 DUP2 SHR SWAP3 POP POP PUSH1 0x1 DUP3 GT DUP1 DUP3 OR SWAP2 POP POP PUSH1 0x80 DUP2 LT PUSH2 0x25C2 JUMPI PUSH1 0x7F DUP2 PUSH2 0x25B8 SWAP2 SWAP1 PUSH2 0x35E1 JUMP JUMPDEST DUP4 SWAP1 SHR SWAP2 POP PUSH2 0x25D5 JUMP JUMPDEST DUP1 PUSH1 0x7F PUSH2 0x25CF SWAP2 SWAP1 PUSH2 0x35E1 JUMP JUMPDEST DUP4 SWAP1 SHL SWAP2 POP JUMPDEST PUSH0 PUSH1 0x40 PUSH1 0x80 DUP4 PUSH2 0x25E5 SWAP2 SWAP1 PUSH2 0x37CA JUMP JUMPDEST SWAP1 SHL SWAP1 POP DUP3 DUP4 MUL PUSH1 0x7F SHR SWAP3 POP DUP3 PUSH1 0x80 SHR DUP1 PUSH1 0x3F SHL DUP3 OR SWAP2 POP DUP4 DUP2 SHR SWAP4 POP POP DUP3 DUP4 MUL PUSH1 0x7F SHR SWAP3 POP DUP3 PUSH1 0x80 SHR DUP1 PUSH1 0x3E SHL DUP3 OR SWAP2 POP DUP4 DUP2 SHR SWAP4 POP POP DUP3 DUP4 MUL PUSH1 0x7F SHR SWAP3 POP DUP3 PUSH1 0x80 SHR DUP1 PUSH1 0x3D SHL DUP3 OR SWAP2 POP DUP4 DUP2 SHR SWAP4 POP POP DUP3 DUP4 MUL PUSH1 0x7F SHR SWAP3 POP DUP3 PUSH1 0x80 SHR DUP1 PUSH1 0x3C SHL DUP3 OR SWAP2 POP DUP4 DUP2 SHR SWAP4 POP POP DUP3 DUP4 MUL PUSH1 0x7F SHR SWAP3 POP DUP3 PUSH1 0x80 SHR DUP1 PUSH1 0x3B SHL DUP3 OR SWAP2 POP DUP4 DUP2 SHR SWAP4 POP POP DUP3 DUP4 MUL PUSH1 0x7F SHR SWAP3 POP DUP3 PUSH1 0x80 SHR DUP1 PUSH1 0x3A SHL DUP3 OR SWAP2 POP DUP4 DUP2 SHR SWAP4 POP POP DUP3 DUP4 MUL PUSH1 0x7F SHR SWAP3 POP DUP3 PUSH1 0x80 SHR DUP1 PUSH1 0x39 SHL DUP3 OR SWAP2 POP DUP4 DUP2 SHR SWAP4 POP POP DUP3 DUP4 MUL PUSH1 0x7F SHR SWAP3 POP DUP3 PUSH1 0x80 SHR DUP1 PUSH1 0x38 SHL DUP3 OR SWAP2 POP DUP4 DUP2 SHR SWAP4 POP POP DUP3 DUP4 MUL PUSH1 0x7F SHR SWAP3 POP DUP3 PUSH1 0x80 SHR DUP1 PUSH1 0x37 SHL DUP3 OR SWAP2 POP DUP4 DUP2 SHR SWAP4 POP POP DUP3 DUP4 MUL PUSH1 0x7F SHR SWAP3 POP DUP3 PUSH1 0x80 SHR DUP1 PUSH1 0x36 SHL DUP3 OR SWAP2 POP DUP4 DUP2 SHR SWAP4 POP POP DUP3 DUP4 MUL PUSH1 0x7F SHR SWAP3 POP DUP3 PUSH1 0x80 SHR DUP1 PUSH1 0x35 SHL DUP3 OR SWAP2 POP DUP4 DUP2 SHR SWAP4 POP POP DUP3 DUP4 MUL PUSH1 0x7F SHR SWAP3 POP DUP3 PUSH1 0x80 SHR DUP1 PUSH1 0x34 SHL DUP3 OR SWAP2 POP DUP4 DUP2 SHR SWAP4 POP POP DUP3 DUP4 MUL PUSH1 0x7F SHR SWAP3 POP DUP3 PUSH1 0x80 SHR DUP1 PUSH1 0x33 SHL DUP3 OR SWAP2 POP DUP4 DUP2 SHR SWAP4 POP POP DUP3 DUP4 MUL PUSH1 0x7F SHR SWAP3 POP DUP3 PUSH1 0x80 SHR DUP1 PUSH1 0x32 SHL DUP3 OR SWAP2 POP POP PUSH0 PUSH10 0x3627A301D71055774C85 DUP3 PUSH2 0x2767 SWAP2 SWAP1 PUSH2 0x3CEF JUMP JUMPDEST SWAP1 POP PUSH0 PUSH1 0x80 PUSH16 0x28F6481AB7F045A5AF012A19D003AAA DUP4 PUSH2 0x2788 SWAP2 SWAP1 PUSH2 0x37CA JUMP JUMPDEST SWAP1 SAR SWAP1 POP PUSH0 PUSH1 0x80 PUSH16 0xDB2DF09E81959A81455E260799A0632F DUP5 PUSH2 0x27AB SWAP2 SWAP1 PUSH2 0x3789 JUMP JUMPDEST SWAP1 SAR SWAP1 POP DUP1 PUSH1 0x2 SIGNEXTEND DUP3 PUSH1 0x2 SIGNEXTEND EQ PUSH2 0x2805 JUMPI DUP9 PUSH20 0xFFFFFFFFFFFFFFFFFFFFFFFFFFFFFFFFFFFFFFFF AND PUSH2 0x27DC DUP3 PUSH2 0x19B9 JUMP JUMPDEST PUSH20 0xFFFFFFFFFFFFFFFFFFFFFFFFFFFFFFFFFFFFFFFF AND GT ISZERO PUSH2 0x27FE JUMPI DUP2 PUSH2 0x2800 JUMP JUMPDEST DUP1 JUMPDEST PUSH2 0x2807 JUMP JUMPDEST DUP2 JUMPDEST SWAP8 POP POP POP POP POP POP POP POP SWAP2 SWAP1 POP JUMP JUMPDEST PUSH0 DUP1 PUSH1 0x8 DUP4 PUSH1 0x2 SIGNEXTEND SWAP1 SAR SWAP2 POP PUSH2 0x100 DUP4 PUSH2 0x282F SWAP2 SWAP1 PUSH2 0x3837 JUMP JUMPDEST SWAP1 POP SWAP2 POP SWAP2 JUMP JUMPDEST PUSH0 PUSH2 0x2842 DUP5 DUP5 DUP5 PUSH2 0x2B62 JUMP JUMPDEST SWAP1 POP PUSH0 DUP3 DUP1 PUSH2 0x2854 JUMPI PUSH2 0x2853 PUSH2 0x380A JUMP JUMPDEST JUMPDEST DUP5 DUP7 MULMOD GT ISZERO PUSH2 0x2897 JUMPI PUSH32 0xFFFFFFFFFFFFFFFFFFFFFFFFFFFFFFFFFFFFFFFFFFFFFFFFFFFFFFFFFFFFFFFF DUP2 LT PUSH2 0x2888 JUMPI PUSH0 DUP1 REVERT JUMPDEST DUP1 DUP1 PUSH2 0x2893 SWAP1 PUSH2 0x3D65 JUMP JUMPDEST SWAP2 POP POP JUMPDEST SWAP4 SWAP3 POP POP POP JUMP JUMPDEST PUSH0 DUP1 DUP3 DUP5 MOD GT DUP3 DUP5 DIV ADD SWAP1 POP SWAP3 SWAP2 POP POP JUMP JUMPDEST PUSH0 DUP1 DUP3 GT PUSH2 0x28BC JUMPI PUSH0 DUP1 REVERT JUMPDEST PUSH17 0x100000000000000000000000000000000 DUP3 LT PUSH2 0x28EB JUMPI PUSH1 0x80 DUP3 SWAP1 SHR SWAP2 POP PUSH1 0x80 DUP2 PUSH2 0x28E8 SWAP2 SWAP1 PUSH2 0x3DAC JUMP JUMPDEST SWAP1 POP JUMPDEST PUSH9 0x10000000000000000 DUP3 LT PUSH2 0x2912 JUMPI PUSH1 0x40 DUP3 SWAP1 SHR SWAP2 POP PUSH1 0x40 DUP2 PUSH2 0x290F SWAP2 SWAP1 PUSH2 0x3DAC JUMP JUMPDEST SWAP1 POP JUMPDEST PUSH5 0x100000000 DUP3 LT PUSH2 0x2935 JUMPI PUSH1 0x20 DUP3 SWAP1 SHR SWAP2 POP PUSH1 0x20 DUP2 PUSH2 0x2932 SWAP2 SWAP1 PUSH2 0x3DAC JUMP JUMPDEST SWAP1 POP JUMPDEST PUSH3 0x10000 DUP3 LT PUSH2 0x2956 JUMPI PUSH1 0x10 DUP3 SWAP1 SHR SWAP2 POP PUSH1 0x10 DUP2 PUSH2 0x2953 SWAP2 SWAP1 PUSH2 0x3DAC JUMP JUMPDEST SWAP1 POP JUMPDEST PUSH2 0x100 DUP3 LT PUSH2 0x2976 JUMPI PUSH1 0x8 DUP3 SWAP1 SHR SWAP2 POP PUSH1 0x8 DUP2 PUSH2 0x2973 SWAP2 SWAP1 PUSH2 0x3DAC JUMP JUMPDEST SWAP1 POP JUMPDEST PUSH1 0x10 DUP3 LT PUSH2 0x2995 JUMPI PUSH1 0x4 DUP3 SWAP1 SHR SWAP2 POP PUSH1 0x4 DUP2 PUSH2 0x2992 SWAP2 SWAP1 PUSH2 0x3DAC JUMP JUMPDEST SWAP1 POP JUMPDEST PUSH1 0x4 DUP3 LT PUSH2 0x29B4 JUMPI PUSH1 0x2 DUP3 SWAP1 SHR SWAP2 POP PUSH1 0x2 DUP2 PUSH2 0x29B1 SWAP2 SWAP1 PUSH2 0x3DAC JUMP JUMPDEST SWAP1 POP JUMPDEST PUSH1 0x2 DUP3 LT PUSH2 0x29CC JUMPI PUSH1 0x1 DUP2 PUSH2 0x29C9 SWAP2 SWAP1 PUSH2 0x3DAC JUMP JUMPDEST SWAP1 POP JUMPDEST SWAP2 SWAP1 POP JUMP JUMPDEST PUSH0 DUP1 DUP3 GT PUSH2 0x29DD JUMPI PUSH0 DUP1 REVERT JUMPDEST PUSH1 0xFF SWAP1 POP PUSH0 PUSH16 0xFFFFFFFFFFFFFFFFFFFFFFFFFFFFFFFF DUP1 AND DUP4 AND GT ISZERO PUSH2 0x2A11 JUMPI PUSH1 0x80 DUP2 PUSH2 0x2A0A SWAP2 SWAP1 PUSH2 0x3BF9 JUMP JUMPDEST SWAP1 POP PUSH2 0x2A19 JUMP JUMPDEST PUSH1 0x80 DUP3 SWAP1 SHR SWAP2 POP JUMPDEST PUSH0 PUSH8 0xFFFFFFFFFFFFFFFF DUP1 AND DUP4 AND GT ISZERO PUSH2 0x2A41 JUMPI PUSH1 0x40 DUP2 PUSH2 0x2A3A SWAP2 SWAP1 PUSH2 0x3BF9 JUMP JUMPDEST SWAP1 POP PUSH2 0x2A49 JUMP JUMPDEST PUSH1 0x40 DUP3 SWAP1 SHR SWAP2 POP JUMPDEST PUSH0 PUSH4 0xFFFFFFFF DUP1 AND DUP4 AND GT ISZERO PUSH2 0x2A6D JUMPI PUSH1 0x20 DUP2 PUSH2 0x2A66 SWAP2 SWAP1 PUSH2 0x3BF9 JUMP JUMPDEST SWAP1 POP PUSH2 0x2A75 JUMP JUMPDEST PUSH1 0x20 DUP3 SWAP1 SHR SWAP2 POP JUMPDEST PUSH0 PUSH2 0xFFFF DUP1 AND DUP4 AND GT ISZERO PUSH2 0x2A97 JUMPI PUSH1 0x10 DUP2 PUSH2 0x2A90 SWAP2 SWAP1 PUSH2 0x3BF9 JUMP JUMPDEST SWAP1 POP PUSH2 0x2A9F JUMP JUMPDEST PUSH1 0x10 DUP3 SWAP1 SHR SWAP2 POP JUMPDEST PUSH0 PUSH1 0xFF DUP1 AND DUP4 AND GT ISZERO PUSH2 0x2AC0 JUMPI PUSH1 0x8 DUP2 PUSH2 0x2AB9 SWAP2 SWAP1 PUSH2 0x3BF9 JUMP JUMPDEST SWAP1 POP PUSH2 0x2AC8 JUMP JUMPDEST PUSH1 0x8 DUP3 SWAP1 SHR SWAP2 POP JUMPDEST PUSH0 PUSH1 0xF DUP4 AND GT ISZERO PUSH2 0x2AE7 JUMPI PUSH1 0x4 DUP2 PUSH2 0x2AE0 SWAP2 SWAP1 PUSH2 0x3BF9 JUMP JUMPDEST SWAP1 POP PUSH2 0x2AEF JUMP JUMPDEST PUSH1 0x4 DUP3 SWAP1 SHR SWAP2 POP JUMPDEST PUSH0 PUSH1 0x3 DUP4 AND GT ISZERO PUSH2 0x2B0E JUMPI PUSH1 0x2 DUP2 PUSH2 0x2B07 SWAP2 SWAP1 PUSH2 0x3BF9 JUMP JUMPDEST SWAP1 POP PUSH2 0x2B16 JUMP JUMPDEST PUSH1 0x2 DUP3 SWAP1 SHR SWAP2 POP JUMPDEST PUSH0 PUSH1 0x1 DUP4 AND GT ISZERO PUSH2 0x2B31 JUMPI PUSH1 0x1 DUP2 PUSH2 0x2B2E SWAP2 SWAP1 PUSH2 0x3BF9 JUMP JUMPDEST SWAP1 POP JUMPDEST SWAP2 SWAP1 POP JUMP JUMPDEST PUSH0 DUP2 PUSH2 0x2B4C JUMPI PUSH2 0x2B47 DUP6 DUP6 DUP6 PUSH2 0x2C74 JUMP JUMPDEST PUSH2 0x2B58 JUMP JUMPDEST PUSH2 0x2B57 DUP6 DUP6 DUP6 PUSH2 0x2CAE JUMP JUMPDEST JUMPDEST SWAP1 POP SWAP5 SWAP4 POP POP POP POP JUMP JUMPDEST PUSH0 DUP1 PUSH0 DUP1 NOT DUP6 DUP8 MULMOD DUP6 DUP8 MUL SWAP3 POP DUP3 DUP2 LT DUP4 DUP3 SUB SUB SWAP2 POP POP PUSH0 DUP2 SUB PUSH2 0x2B9A JUMPI DUP4 DUP3 DUP2 PUSH2 0x2B90 JUMPI PUSH2 0x2B8F PUSH2 0x380A JUMP JUMPDEST JUMPDEST DIV SWAP3 POP POP POP PUSH2 0x2C6D JUMP JUMPDEST DUP4 DUP2 LT PUSH2 0x2BE2 JUMPI DUP6 DUP6 DUP6 PUSH1 0x40 MLOAD PUSH32 0x63A0577800000000000000000000000000000000000000000000000000000000 DUP2 MSTORE PUSH1 0x4 ADD PUSH2 0x2BD9 SWAP4 SWAP3 SWAP2 SWAP1 PUSH2 0x3DE0 JUMP JUMPDEST PUSH1 0x40 MLOAD DUP1 SWAP2 SUB SWAP1 REVERT JUMPDEST PUSH0 DUP5 DUP7 DUP9 MULMOD SWAP1 POP DUP3 DUP2 GT DUP3 SUB SWAP2 POP DUP1 DUP4 SUB SWAP3 POP PUSH0 PUSH1 0x1 DUP7 NOT ADD DUP7 AND SWAP1 POP PUSH0 DUP2 DUP8 DIV SWAP7 POP DUP2 DUP6 DIV SWAP5 POP PUSH1 0x1 DUP3 DUP4 PUSH0 SUB DIV ADD SWAP1 POP DUP1 DUP5 MUL DUP6 OR SWAP5 POP PUSH0 PUSH1 0x2 DUP9 PUSH1 0x3 MUL XOR SWAP1 POP DUP1 DUP9 MUL PUSH1 0x2 SUB DUP2 MUL SWAP1 POP DUP1 DUP9 MUL PUSH1 0x2 SUB DUP2 MUL SWAP1 POP DUP1 DUP9 MUL PUSH1 0x2 SUB DUP2 MUL SWAP1 POP DUP1 DUP9 MUL PUSH1 0x2 SUB DUP2 MUL SWAP1 POP DUP1 DUP9 MUL PUSH1 0x2 SUB DUP2 MUL SWAP1 POP DUP1 DUP9 MUL PUSH1 0x2 SUB DUP2 MUL SWAP1 POP DUP1 DUP7 MUL SWAP7 POP POP POP POP POP POP POP JUMPDEST SWAP4 SWAP3 POP POP POP JUMP JUMPDEST PUSH0 DUP3 PUSH16 0xFFFFFFFFFFFFFFFFFFFFFFFFFFFFFFFF AND PUSH1 0x60 PUSH1 0xFF AND DUP4 SWAP1 SHL PUSH2 0x2C9A SWAP2 SWAP1 PUSH2 0x3A80 JUMP JUMPDEST DUP5 PUSH2 0x2CA5 SWAP2 SWAP1 PUSH2 0x3E15 JUMP JUMPDEST SWAP1 POP SWAP4 SWAP3 POP POP POP JUMP JUMPDEST PUSH0 DUP1 PUSH1 0x60 PUSH1 0xFF AND DUP5 PUSH16 0xFFFFFFFFFFFFFFFFFFFFFFFFFFFFFFFF AND SWAP1 SHL SWAP1 POP PUSH0 DUP6 PUSH20 0xFFFFFFFFFFFFFFFFFFFFFFFFFFFFFFFFFFFFFFFF AND DUP5 PUSH2 0x2CEF SWAP2 SWAP1 PUSH2 0x3A3F JUMP JUMPDEST SWAP1 POP DUP6 PUSH20 0xFFFFFFFFFFFFFFFFFFFFFFFFFFFFFFFFFFFFFFFF AND DUP5 DUP3 PUSH2 0x2D14 SWAP2 SWAP1 PUSH2 0x3A80 JUMP JUMPDEST SUB PUSH2 0x2D5C JUMPI PUSH0 DUP2 DUP4 PUSH2 0x2D26 SWAP2 SWAP1 PUSH2 0x34E3 JUMP JUMPDEST SWAP1 POP DUP3 DUP2 LT PUSH2 0x2D5A JUMPI PUSH2 0x2D50 DUP4 DUP9 PUSH20 0xFFFFFFFFFFFFFFFFFFFFFFFFFFFFFFFFFFFFFFFF AND DUP4 PUSH2 0x2836 JUMP JUMPDEST SWAP4 POP POP POP POP PUSH2 0x2D97 JUMP JUMPDEST POP JUMPDEST PUSH2 0x2D92 DUP3 DUP6 DUP9 PUSH20 0xFFFFFFFFFFFFFFFFFFFFFFFFFFFFFFFFFFFFFFFF AND DUP6 PUSH2 0x2D83 SWAP2 SWAP1 PUSH2 0x3A80 JUMP JUMPDEST PUSH2 0x2D8D SWAP2 SWAP1 PUSH2 0x34E3 JUMP JUMPDEST PUSH2 0x289E JUMP JUMPDEST SWAP3 POP POP POP JUMPDEST SWAP4 SWAP3 POP POP POP JUMP JUMPDEST PUSH1 0x40 MLOAD DUP1 PUSH1 0xC0 ADD PUSH1 0x40 MSTORE DUP1 PUSH0 PUSH20 0xFFFFFFFFFFFFFFFFFFFFFFFFFFFFFFFFFFFFFFFF AND DUP2 MSTORE PUSH1 0x20 ADD PUSH0 PUSH1 0x2 SIGNEXTEND DUP2 MSTORE PUSH1 0x20 ADD PUSH0 ISZERO ISZERO DUP2 MSTORE PUSH1 0x20 ADD PUSH0 PUSH20 0xFFFFFFFFFFFFFFFFFFFFFFFFFFFFFFFFFFFFFFFF AND DUP2 MSTORE PUSH1 0x20 ADD PUSH0 DUP2 MSTORE PUSH1 0x20 ADD PUSH0 DUP2 MSTORE POP SWAP1 JUMP JUMPDEST PUSH0 PUSH20 0xFFFFFFFFFFFFFFFFFFFFFFFFFFFFFFFFFFFFFFFF DUP3 AND SWAP1 POP SWAP2 SWAP1 POP JUMP JUMPDEST PUSH0 PUSH2 0x2E28 DUP3 PUSH2 0x2DFF JUMP JUMPDEST SWAP1 POP SWAP2 SWAP1 POP JUMP JUMPDEST PUSH2 0x2E38 DUP2 PUSH2 0x2E1E JUMP JUMPDEST DUP3 MSTORE POP POP JUMP JUMPDEST PUSH0 PUSH1 0x20 DUP3 ADD SWAP1 POP PUSH2 0x2E51 PUSH0 DUP4 ADD DUP5 PUSH2 0x2E2F JUMP JUMPDEST SWAP3 SWAP2 POP POP JUMP JUMPDEST PUSH0 PUSH16 0xFFFFFFFFFFFFFFFFFFFFFFFFFFFFFFFF DUP3 AND SWAP1 POP SWAP2 SWAP1 POP JUMP JUMPDEST PUSH2 0x2E7B DUP2 PUSH2 0x2E57 JUMP JUMPDEST DUP3 MSTORE POP POP JUMP JUMPDEST PUSH0 PUSH1 0x20 DUP3 ADD SWAP1 POP PUSH2 0x2E94 PUSH0 DUP4 ADD DUP5 PUSH2 0x2E72 JUMP JUMPDEST SWAP3 SWAP2 POP POP JUMP JUMPDEST PUSH2 0x2EA3 DUP2 PUSH2 0x2DFF JUMP JUMPDEST DUP3 MSTORE POP POP JUMP JUMPDEST PUSH0 DUP2 PUSH1 0x2 SIGNEXTEND SWAP1 POP SWAP2 SWAP1 POP JUMP JUMPDEST PUSH2 0x2EBE DUP2 PUSH2 0x2EA9 JUMP JUMPDEST DUP3 MSTORE POP POP JUMP JUMPDEST PUSH0 PUSH1 0x40 DUP3 ADD SWAP1 POP PUSH2 0x2ED7 PUSH0 DUP4 ADD DUP6 PUSH2 0x2E9A JUMP JUMPDEST PUSH2 0x2EE4 PUSH1 0x20 DUP4 ADD DUP5 PUSH2 0x2EB5 JUMP JUMPDEST SWAP4 SWAP3 POP POP POP JUMP JUMPDEST PUSH0 DUP1 REVERT JUMPDEST PUSH0 DUP1 REVERT JUMPDEST PUSH2 0x2EFC DUP2 PUSH2 0x2E1E JUMP JUMPDEST DUP2 EQ PUSH2 0x2F06 JUMPI PUSH0 DUP1 REVERT JUMPDEST POP JUMP JUMPDEST PUSH0 DUP2 CALLDATALOAD SWAP1 POP PUSH2 0x2F17 DUP2 PUSH2 0x2EF3 JUMP JUMPDEST SWAP3 SWAP2 POP POP JUMP JUMPDEST PUSH2 0x2F26 DUP2 PUSH2 0x2EA9 JUMP JUMPDEST DUP2 EQ PUSH2 0x2F30 JUMPI PUSH0 DUP1 REVERT JUMPDEST POP JUMP JUMPDEST PUSH0 DUP2 CALLDATALOAD SWAP1 POP PUSH2 0x2F41 DUP2 PUSH2 0x2F1D JUMP JUMPDEST SWAP3 SWAP2 POP POP JUMP JUMPDEST PUSH2 0x2F50 DUP2 PUSH2 0x2E57 JUMP JUMPDEST DUP2 EQ PUSH2 0x2F5A JUMPI PUSH0 DUP1 REVERT JUMPDEST POP JUMP JUMPDEST PUSH0 DUP2 CALLDATALOAD SWAP1 POP PUSH2 0x2F6B DUP2 PUSH2 0x2F47 JUMP JUMPDEST SWAP3 SWAP2 POP POP JUMP JUMPDEST PUSH0 DUP1 REVERT JUMPDEST PUSH0 DUP1 REVERT JUMPDEST PUSH0 DUP1 REVERT JUMPDEST PUSH0 DUP1 DUP4 PUSH1 0x1F DUP5 ADD SLT PUSH2 0x2F92 JUMPI PUSH2 0x2F91 PUSH2 0x2F71 JUMP JUMPDEST JUMPDEST DUP3 CALLDATALOAD SWAP1 POP PUSH8 0xFFFFFFFFFFFFFFFF DUP2 GT ISZERO PUSH2 0x2FAF JUMPI PUSH2 0x2FAE PUSH2 0x2F75 JUMP JUMPDEST JUMPDEST PUSH1 0x20 DUP4 ADD SWAP2 POP DUP4 PUSH1 0x1 DUP3 MUL DUP4 ADD GT ISZERO PUSH2 0x2FCB JUMPI PUSH2 0x2FCA PUSH2 0x2F79 JUMP JUMPDEST JUMPDEST SWAP3 POP SWAP3 SWAP1 POP JUMP JUMPDEST PUSH0 DUP1 PUSH0 DUP1 PUSH0 DUP1 PUSH1 0xA0 DUP8 DUP10 SUB SLT ISZERO PUSH2 0x2FEC JUMPI PUSH2 0x2FEB PUSH2 0x2EEB JUMP JUMPDEST JUMPDEST PUSH0 PUSH2 0x2FF9 DUP10 DUP3 DUP11 ADD PUSH2 0x2F09 JUMP JUMPDEST SWAP7 POP POP PUSH1 0x20 PUSH2 0x300A DUP10 DUP3 DUP11 ADD PUSH2 0x2F33 JUMP JUMPDEST SWAP6 POP POP PUSH1 0x40 PUSH2 0x301B DUP10 DUP3 DUP11 ADD PUSH2 0x2F33 JUMP JUMPDEST SWAP5 POP POP PUSH1 0x60 PUSH2 0x302C DUP10 DUP3 DUP11 ADD PUSH2 0x2F5D JUMP JUMPDEST SWAP4 POP POP PUSH1 0x80 DUP8 ADD CALLDATALOAD PUSH8 0xFFFFFFFFFFFFFFFF DUP2 GT ISZERO PUSH2 0x304D JUMPI PUSH2 0x304C PUSH2 0x2EEF JUMP JUMPDEST JUMPDEST PUSH2 0x3059 DUP10 DUP3 DUP11 ADD PUSH2 0x2F7D JUMP JUMPDEST SWAP3 POP SWAP3 POP POP SWAP3 SWAP6 POP SWAP3 SWAP6 POP SWAP3 SWAP6 JUMP JUMPDEST PUSH0 DUP2 SWAP1 POP SWAP2 SWAP1 POP JUMP JUMPDEST PUSH2 0x307A DUP2 PUSH2 0x3068 JUMP JUMPDEST DUP3 MSTORE POP POP JUMP JUMPDEST PUSH0 PUSH1 0x40 DUP3 ADD SWAP1 POP PUSH2 0x3093 PUSH0 DUP4 ADD DUP6 PUSH2 0x3071 JUMP JUMPDEST PUSH2 0x30A0 PUSH1 0x20 DUP4 ADD DUP5 PUSH2 0x3071 JUMP JUMPDEST SWAP4 SWAP3 POP POP POP JUMP JUMPDEST PUSH2 0x30B0 DUP2 PUSH2 0x3068 JUMP JUMPDEST DUP2 EQ PUSH2 0x30BA JUMPI PUSH0 DUP1 REVERT JUMPDEST POP JUMP JUMPDEST PUSH0 DUP2 CALLDATALOAD SWAP1 POP PUSH2 0x30CB DUP2 PUSH2 0x30A7 JUMP JUMPDEST SWAP3 SWAP2 POP POP JUMP JUMPDEST PUSH0 DUP1 PUSH0 DUP1 PUSH1 0x60 DUP6 DUP8 SUB SLT ISZERO PUSH2 0x30E9 JUMPI PUSH2 0x30E8 PUSH2 0x2EEB JUMP JUMPDEST JUMPDEST PUSH0 PUSH2 0x30F6 DUP8 DUP3 DUP9 ADD PUSH2 0x30BD JUMP JUMPDEST SWAP5 POP POP PUSH1 0x20 PUSH2 0x3107 DUP8 DUP3 DUP9 ADD PUSH2 0x30BD JUMP JUMPDEST SWAP4 POP POP PUSH1 0x40 DUP6 ADD CALLDATALOAD PUSH8 0xFFFFFFFFFFFFFFFF DUP2 GT ISZERO PUSH2 0x3128 JUMPI PUSH2 0x3127 PUSH2 0x2EEF JUMP JUMPDEST JUMPDEST PUSH2 0x3134 DUP8 DUP3 DUP9 ADD PUSH2 0x2F7D JUMP JUMPDEST SWAP3 POP SWAP3 POP POP SWAP3 SWAP6 SWAP2 SWAP5 POP SWAP3 POP JUMP JUMPDEST PUSH0 DUP2 SWAP1 POP SWAP2 SWAP1 POP JUMP JUMPDEST PUSH2 0x3154 DUP2 PUSH2 0x3142 JUMP JUMPDEST DUP2 EQ PUSH2 0x315E JUMPI PUSH0 DUP1 REVERT JUMPDEST POP JUMP JUMPDEST PUSH0 DUP2 CALLDATALOAD SWAP1 POP PUSH2 0x316F DUP2 PUSH2 0x314B JUMP JUMPDEST SWAP3 SWAP2 POP POP JUMP JUMPDEST PUSH0 PUSH1 0x20 DUP3 DUP5 SUB SLT ISZERO PUSH2 0x318A JUMPI PUSH2 0x3189 PUSH2 0x2EEB JUMP JUMPDEST JUMPDEST PUSH0 PUSH2 0x3197 DUP5 DUP3 DUP6 ADD PUSH2 0x3161 JUMP JUMPDEST SWAP2 POP POP SWAP3 SWAP2 POP POP JUMP JUMPDEST PUSH0 DUP2 PUSH1 0x1 SIGNEXTEND SWAP1 POP SWAP2 SWAP1 POP JUMP JUMPDEST PUSH2 0x31B5 DUP2 PUSH2 0x31A0 JUMP JUMPDEST DUP2 EQ PUSH2 0x31BF JUMPI PUSH0 DUP1 REVERT JUMPDEST POP JUMP JUMPDEST PUSH0 DUP2 CALLDATALOAD SWAP1 POP PUSH2 0x31D0 DUP2 PUSH2 0x31AC JUMP JUMPDEST SWAP3 SWAP2 POP POP JUMP JUMPDEST PUSH0 PUSH1 0x20 DUP3 DUP5 SUB SLT ISZERO PUSH2 0x31EB JUMPI PUSH2 0x31EA PUSH2 0x2EEB JUMP JUMPDEST JUMPDEST PUSH0 PUSH2 0x31F8 DUP5 DUP3 DUP6 ADD PUSH2 0x31C2 JUMP JUMPDEST SWAP2 POP POP SWAP3 SWAP2 POP POP JUMP JUMPDEST PUSH0 PUSH1 0x20 DUP3 ADD SWAP1 POP PUSH2 0x3214 PUSH0 DUP4 ADD DUP5 PUSH2 0x3071 JUMP JUMPDEST SWAP3 SWAP2 POP POP JUMP JUMPDEST PUSH0 DUP2 ISZERO ISZERO SWAP1 POP SWAP2 SWAP1 POP JUMP JUMPDEST PUSH2 0x322E DUP2 PUSH2 0x321A JUMP JUMPDEST DUP2 EQ PUSH2 0x3238 JUMPI PUSH0 DUP1 REVERT JUMPDEST POP JUMP JUMPDEST PUSH0 DUP2 CALLDATALOAD SWAP1 POP PUSH2 0x3249 DUP2 PUSH2 0x3225 JUMP JUMPDEST SWAP3 SWAP2 POP POP JUMP JUMPDEST PUSH2 0x3258 DUP2 PUSH2 0x2DFF JUMP JUMPDEST DUP2 EQ PUSH2 0x3262 JUMPI PUSH0 DUP1 REVERT JUMPDEST POP JUMP JUMPDEST PUSH0 DUP2 CALLDATALOAD SWAP1 POP PUSH2 0x3273 DUP2 PUSH2 0x324F JUMP JUMPDEST SWAP3 SWAP2 POP POP JUMP JUMPDEST PUSH0 DUP1 PUSH0 DUP1 PUSH0 DUP1 PUSH1 0xA0 DUP8 DUP10 SUB SLT ISZERO PUSH2 0x3293 JUMPI PUSH2 0x3292 PUSH2 0x2EEB JUMP JUMPDEST JUMPDEST PUSH0 PUSH2 0x32A0 DUP10 DUP3 DUP11 ADD PUSH2 0x2F09 JUMP JUMPDEST SWAP7 POP POP PUSH1 0x20 PUSH2 0x32B1 DUP10 DUP3 DUP11 ADD PUSH2 0x323B JUMP JUMPDEST SWAP6 POP POP PUSH1 0x40 PUSH2 0x32C2 DUP10 DUP3 DUP11 ADD PUSH2 0x30BD JUMP JUMPDEST SWAP5 POP POP PUSH1 0x60 PUSH2 0x32D3 DUP10 DUP3 DUP11 ADD PUSH2 0x3265 JUMP JUMPDEST SWAP4 POP POP PUSH1 0x80 DUP8 ADD CALLDATALOAD PUSH8 0xFFFFFFFFFFFFFFFF DUP2 GT ISZERO PUSH2 0x32F4 JUMPI PUSH2 0x32F3 PUSH2 0x2EEF JUMP JUMPDEST JUMPDEST PUSH2 0x3300 DUP10 DUP3 DUP11 ADD PUSH2 0x2F7D JUMP JUMPDEST SWAP3 POP SWAP3 POP POP SWAP3 SWAP6 POP SWAP3 SWAP6 POP SWAP3 SWAP6 JUMP JUMPDEST PUSH0 DUP2 SWAP1 POP SWAP2 SWAP1 POP JUMP JUMPDEST PUSH2 0x3321 DUP2 PUSH2 0x330F JUMP JUMPDEST DUP3 MSTORE POP POP JUMP JUMPDEST PUSH0 PUSH1 0x40 DUP3 ADD SWAP1 POP PUSH2 0x333A PUSH0 DUP4 ADD DUP6 PUSH2 0x3318 JUMP JUMPDEST PUSH2 0x3347 PUSH1 0x20 DUP4 ADD DUP5 PUSH2 0x3318 JUMP JUMPDEST SWAP4 SWAP3 POP POP POP JUMP JUMPDEST PUSH0 PUSH1 0x20 DUP3 DUP5 SUB SLT ISZERO PUSH2 0x3363 JUMPI PUSH2 0x3362 PUSH2 0x2EEB JUMP JUMPDEST JUMPDEST PUSH0 PUSH2 0x3370 DUP5 DUP3 DUP6 ADD PUSH2 0x2F33 JUMP JUMPDEST SWAP2 POP POP SWAP3 SWAP2 POP POP JUMP JUMPDEST PUSH2 0x3382 DUP2 PUSH2 0x321A JUMP JUMPDEST DUP3 MSTORE POP POP JUMP JUMPDEST PUSH0 DUP2 PUSH1 0xF SIGNEXTEND SWAP1 POP SWAP2 SWAP1 POP JUMP JUMPDEST PUSH2 0x339D DUP2 PUSH2 0x3388 JUMP JUMPDEST DUP3 MSTORE POP POP JUMP JUMPDEST PUSH0 PUSH1 0x60 DUP3 ADD SWAP1 POP PUSH2 0x33B6 PUSH0 DUP4 ADD DUP7 PUSH2 0x3379 JUMP JUMPDEST PUSH2 0x33C3 PUSH1 0x20 DUP4 ADD DUP6 PUSH2 0x2E72 JUMP JUMPDEST PUSH2 0x33D0 PUSH1 0x40 DUP4 ADD DUP5 PUSH2 0x3394 JUMP JUMPDEST SWAP5 SWAP4 POP POP POP POP JUMP JUMPDEST PUSH32 0x4E487B7100000000000000000000000000000000000000000000000000000000 PUSH0 MSTORE PUSH1 0x11 PUSH1 0x4 MSTORE PUSH1 0x24 PUSH0 REVERT JUMPDEST PUSH0 PUSH2 0x340F DUP3 PUSH2 0x2EA9 JUMP JUMPDEST SWAP2 POP PUSH32 0xFFFFFFFFFFFFFFFFFFFFFFFFFFFFFFFFFFFFFFFFFFFFFFFFFFFFFFFFFF800000 DUP3 SUB PUSH2 0x3441 JUMPI PUSH2 0x3440 PUSH2 0x33D8 JUMP JUMPDEST JUMPDEST DUP2 PUSH0 SUB SWAP1 POP SWAP2 SWAP1 POP JUMP JUMPDEST PUSH0 DUP3 DUP3 MSTORE PUSH1 0x20 DUP3 ADD SWAP1 POP SWAP3 SWAP2 POP POP JUMP JUMPDEST DUP3 DUP2 DUP4 CALLDATACOPY PUSH0 DUP4 DUP4 ADD MSTORE POP POP POP JUMP JUMPDEST PUSH0 PUSH1 0x1F NOT PUSH1 0x1F DUP4 ADD AND SWAP1 POP SWAP2 SWAP1 POP JUMP JUMPDEST PUSH0 PUSH2 0x3484 DUP4 DUP6 PUSH2 0x344B JUMP JUMPDEST SWAP4 POP PUSH2 0x3491 DUP4 DUP6 DUP5 PUSH2 0x345B JUMP JUMPDEST PUSH2 0x349A DUP4 PUSH2 0x3469 JUMP JUMPDEST DUP5 ADD SWAP1 POP SWAP4 SWAP3 POP POP POP JUMP JUMPDEST PUSH0 PUSH1 0x60 DUP3 ADD SWAP1 POP PUSH2 0x34B8 PUSH0 DUP4 ADD DUP8 PUSH2 0x3071 JUMP JUMPDEST PUSH2 0x34C5 PUSH1 0x20 DUP4 ADD DUP7 PUSH2 0x3071 JUMP JUMPDEST DUP2 DUP2 SUB PUSH1 0x40 DUP4 ADD MSTORE PUSH2 0x34D8 DUP2 DUP5 DUP7 PUSH2 0x3479 JUMP JUMPDEST SWAP1 POP SWAP6 SWAP5 POP POP POP POP POP JUMP JUMPDEST PUSH0 PUSH2 0x34ED DUP3 PUSH2 0x3068 JUMP JUMPDEST SWAP2 POP PUSH2 0x34F8 DUP4 PUSH2 0x3068 JUMP JUMPDEST SWAP3 POP DUP3 DUP3 ADD SWAP1 POP DUP1 DUP3 GT ISZERO PUSH2 0x3510 JUMPI PUSH2 0x350F PUSH2 0x33D8 JUMP JUMPDEST JUMPDEST SWAP3 SWAP2 POP POP JUMP JUMPDEST PUSH0 PUSH1 0x80 DUP3 ADD SWAP1 POP PUSH2 0x3529 PUSH0 DUP4 ADD DUP8 PUSH2 0x2E2F JUMP JUMPDEST PUSH2 0x3536 PUSH1 0x20 DUP4 ADD DUP7 PUSH2 0x2E72 JUMP JUMPDEST PUSH2 0x3543 PUSH1 0x40 DUP4 ADD DUP6 PUSH2 0x3071 JUMP JUMPDEST PUSH2 0x3550 PUSH1 0x60 DUP4 ADD DUP5 PUSH2 0x3071 JUMP JUMPDEST SWAP6 SWAP5 POP POP POP POP POP JUMP JUMPDEST PUSH0 DUP2 MLOAD SWAP1 POP PUSH2 0x3567 DUP2 PUSH2 0x30A7 JUMP JUMPDEST SWAP3 SWAP2 POP POP JUMP JUMPDEST PUSH0 PUSH1 0x20 DUP3 DUP5 SUB SLT ISZERO PUSH2 0x3582 JUMPI PUSH2 0x3581 PUSH2 0x2EEB JUMP JUMPDEST JUMPDEST PUSH0 PUSH2 0x358F DUP5 DUP3 DUP6 ADD PUSH2 0x3559 JUMP JUMPDEST SWAP2 POP POP SWAP3 SWAP2 POP POP JUMP JUMPDEST PUSH0 PUSH1 0x40 DUP3 ADD SWAP1 POP PUSH2 0x35AB PUSH0 DUP4 ADD DUP6 PUSH2 0x2E2F JUMP JUMPDEST PUSH2 0x35B8 PUSH1 0x20 DUP4 ADD DUP5 PUSH2 0x3071 JUMP JUMPDEST SWAP4 SWAP3 POP POP POP JUMP JUMPDEST PUSH0 PUSH1 0x20 DUP3 ADD SWAP1 POP DUP2 DUP2 SUB PUSH0 DUP4 ADD MSTORE PUSH2 0x35D8 DUP2 DUP5 DUP7 PUSH2 0x3479 JUMP JUMPDEST SWAP1 POP SWAP4 SWAP3 POP POP POP JUMP JUMPDEST PUSH0 PUSH2 0x35EB DUP3 PUSH2 0x3068 JUMP JUMPDEST SWAP2 POP PUSH2 0x35F6 DUP4 PUSH2 0x3068 JUMP JUMPDEST SWAP3 POP DUP3 DUP3 SUB SWAP1 POP DUP2 DUP2 GT ISZERO PUSH2 0x360E JUMPI PUSH2 0x360D PUSH2 0x33D8 JUMP JUMPDEST JUMPDEST SWAP3 SWAP2 POP POP JUMP JUMPDEST PUSH0 PUSH2 0x361E DUP3 PUSH2 0x3388 JUMP JUMPDEST SWAP2 POP PUSH32 0xFFFFFFFFFFFFFFFFFFFFFFFFFFFFFFFF80000000000000000000000000000000 DUP3 SUB PUSH2 0x3650 JUMPI PUSH2 0x364F PUSH2 0x33D8 JUMP JUMPDEST JUMPDEST DUP2 PUSH0 SUB SWAP1 POP SWAP2 SWAP1 POP JUMP JUMPDEST PUSH0 PUSH2 0x3664 DUP3 PUSH2 0x2EA9 JUMP JUMPDEST SWAP2 POP PUSH2 0x366F DUP4 PUSH2 0x2EA9 JUMP JUMPDEST SWAP3 POP DUP3 DUP3 SUB SWAP1 POP PUSH3 0x7FFFFF DUP2 SGT PUSH32 0xFFFFFFFFFFFFFFFFFFFFFFFFFFFFFFFFFFFFFFFFFFFFFFFFFFFFFFFFFF800000 DUP3 SLT OR ISZERO PUSH2 0x36AE JUMPI PUSH2 0x36AD PUSH2 0x33D8 JUMP JUMPDEST JUMPDEST SWAP3 SWAP2 POP POP JUMP JUMPDEST PUSH0 PUSH2 0x36BE DUP3 PUSH2 0x330F JUMP JUMPDEST SWAP2 POP PUSH32 0x8000000000000000000000000000000000000000000000000000000000000000 DUP3 SUB PUSH2 0x36F0 JUMPI PUSH2 0x36EF PUSH2 0x33D8 JUMP JUMPDEST JUMPDEST DUP2 PUSH0 SUB SWAP1 POP SWAP2 SWAP1 POP JUMP JUMPDEST PUSH0 PUSH1 0x60 DUP3 ADD SWAP1 POP PUSH2 0x370D PUSH0 DUP4 ADD DUP8 PUSH2 0x3318 JUMP JUMPDEST PUSH2 0x371A PUSH1 0x20 DUP4 ADD DUP7 PUSH2 0x3318 JUMP JUMPDEST DUP2 DUP2 SUB PUSH1 0x40 DUP4 ADD MSTORE PUSH2 0x372D DUP2 DUP5 DUP7 PUSH2 0x3479 JUMP JUMPDEST SWAP1 POP SWAP6 SWAP5 POP POP POP POP POP JUMP JUMPDEST PUSH0 PUSH1 0xA0 DUP3 ADD SWAP1 POP PUSH2 0x374B PUSH0 DUP4 ADD DUP9 PUSH2 0x3318 JUMP JUMPDEST PUSH2 0x3758 PUSH1 0x20 DUP4 ADD DUP8 PUSH2 0x3318 JUMP JUMPDEST PUSH2 0x3765 PUSH1 0x40 DUP4 ADD DUP7 PUSH2 0x2E9A JUMP JUMPDEST PUSH2 0x3772 PUSH1 0x60 DUP4 ADD DUP6 PUSH2 0x2E72 JUMP JUMPDEST PUSH2 0x377F PUSH1 0x80 DUP4 ADD DUP5 PUSH2 0x2EB5 JUMP JUMPDEST SWAP7 SWAP6 POP POP POP POP POP POP JUMP JUMPDEST PUSH0 PUSH2 0x3793 DUP3 PUSH2 0x330F JUMP JUMPDEST SWAP2 POP PUSH2 0x379E DUP4 PUSH2 0x330F JUMP JUMPDEST SWAP3 POP DUP3 DUP3 ADD SWAP1 POP DUP3 DUP2 SLT ISZERO PUSH0 DUP4 SLT AND DUP4 DUP3 SLT PUSH0 DUP5 SLT ISZERO AND OR ISZERO PUSH2 0x37C4 JUMPI PUSH2 0x37C3 PUSH2 0x33D8 JUMP JUMPDEST JUMPDEST SWAP3 SWAP2 POP POP JUMP JUMPDEST PUSH0 PUSH2 0x37D4 DUP3 PUSH2 0x330F JUMP JUMPDEST SWAP2 POP PUSH2 0x37DF DUP4 PUSH2 0x330F JUMP JUMPDEST SWAP3 POP DUP3 DUP3 SUB SWAP1 POP DUP2 DUP2 SLT PUSH0 DUP5 SLT AND DUP3 DUP3 SGT PUSH0 DUP6 SLT ISZERO AND OR ISZERO PUSH2 0x3804 JUMPI PUSH2 0x3803 PUSH2 0x33D8 JUMP JUMPDEST JUMPDEST SWAP3 SWAP2 POP POP JUMP JUMPDEST PUSH32 0x4E487B7100000000000000000000000000000000000000000000000000000000 PUSH0 MSTORE PUSH1 0x12 PUSH1 0x4 MSTORE PUSH1 0x24 PUSH0 REVERT JUMPDEST PUSH0 PUSH2 0x3841 DUP3 PUSH2 0x2EA9 JUMP JUMPDEST SWAP2 POP PUSH2 0x384C DUP4 PUSH2 0x2EA9 JUMP JUMPDEST SWAP3 POP DUP3 PUSH2 0x385C JUMPI PUSH2 0x385B PUSH2 0x380A JUMP JUMPDEST JUMPDEST DUP3 DUP3 SMOD SWAP1 POP SWAP3 SWAP2 POP POP JUMP JUMPDEST PUSH0 PUSH2 0x3871 DUP3 PUSH2 0x2EA9 JUMP JUMPDEST SWAP2 POP PUSH2 0x387C DUP4 PUSH2 0x2EA9 JUMP JUMPDEST SWAP3 POP DUP3 PUSH2 0x388C JUMPI PUSH2 0x388B PUSH2 0x380A JUMP JUMPDEST JUMPDEST PUSH1 0x1 PUSH0 SUB DUP4 EQ PUSH32 0xFFFFFFFFFFFFFFFFFFFFFFFFFFFFFFFFFFFFFFFFFFFFFFFFFFFFFFFFFF800000 DUP4 EQ AND ISZERO PUSH2 0x38C4 JUMPI PUSH2 0x38C3 PUSH2 0x33D8 JUMP JUMPDEST JUMPDEST DUP3 DUP3 SDIV SWAP1 POP SWAP3 SWAP2 POP POP JUMP JUMPDEST PUSH0 DUP2 PUSH1 0x60 SHL SWAP1 POP SWAP2 SWAP1 POP JUMP JUMPDEST PUSH0 PUSH2 0x38E5 DUP3 PUSH2 0x38CF JUMP JUMPDEST SWAP1 POP SWAP2 SWAP1 POP JUMP JUMPDEST PUSH0 PUSH2 0x38F6 DUP3 PUSH2 0x38DB JUMP JUMPDEST SWAP1 POP SWAP2 SWAP1 POP JUMP JUMPDEST PUSH2 0x390E PUSH2 0x3909 DUP3 PUSH2 0x2E1E JUMP JUMPDEST PUSH2 0x38EC JUMP JUMPDEST DUP3 MSTORE POP POP JUMP JUMPDEST PUSH0 DUP2 PUSH1 0xE8 SHL SWAP1 POP SWAP2 SWAP1 POP JUMP JUMPDEST PUSH0 PUSH2 0x392A DUP3 PUSH2 0x3914 JUMP JUMPDEST SWAP1 POP SWAP2 SWAP1 POP JUMP JUMPDEST PUSH2 0x3942 PUSH2 0x393D DUP3 PUSH2 0x2EA9 JUMP JUMPDEST PUSH2 0x3920 JUMP JUMPDEST DUP3 MSTORE POP POP JUMP JUMPDEST PUSH0 PUSH2 0x3953 DUP3 DUP7 PUSH2 0x38FD JUMP JUMPDEST PUSH1 0x14 DUP3 ADD SWAP2 POP PUSH2 0x3963 DUP3 DUP6 PUSH2 0x3931 JUMP JUMPDEST PUSH1 0x3 DUP3 ADD SWAP2 POP PUSH2 0x3973 DUP3 DUP5 PUSH2 0x3931 JUMP JUMPDEST PUSH1 0x3 DUP3 ADD SWAP2 POP DUP2 SWAP1 POP SWAP5 SWAP4 POP POP POP POP JUMP JUMPDEST PUSH0 PUSH2 0x398E DUP3 PUSH2 0x2E57 JUMP JUMPDEST SWAP2 POP PUSH2 0x3999 DUP4 PUSH2 0x2E57 JUMP JUMPDEST SWAP3 POP DUP3 DUP3 ADD SWAP1 POP PUSH16 0xFFFFFFFFFFFFFFFFFFFFFFFFFFFFFFFF DUP2 GT ISZERO PUSH2 0x39C1 JUMPI PUSH2 0x39C0 PUSH2 0x33D8 JUMP JUMPDEST JUMPDEST SWAP3 SWAP2 POP POP JUMP JUMPDEST PUSH0 DUP3 DUP3 MSTORE PUSH1 0x20 DUP3 ADD SWAP1 POP SWAP3 SWAP2 POP POP JUMP JUMPDEST PUSH32 0x5400000000000000000000000000000000000000000000000000000000000000 PUSH0 DUP3 ADD MSTORE POP JUMP JUMPDEST PUSH0 PUSH2 0x3A0B PUSH1 0x1 DUP4 PUSH2 0x39C7 JUMP JUMPDEST SWAP2 POP PUSH2 0x3A16 DUP3 PUSH2 0x39D7 JUMP JUMPDEST PUSH1 0x20 DUP3 ADD SWAP1 POP SWAP2 SWAP1 POP JUMP JUMPDEST PUSH0 PUSH1 0x20 DUP3 ADD SWAP1 POP DUP2 DUP2 SUB PUSH0 DUP4 ADD MSTORE PUSH2 0x3A38 DUP2 PUSH2 0x39FF JUMP JUMPDEST SWAP1 POP SWAP2 SWAP1 POP JUMP JUMPDEST PUSH0 PUSH2 0x3A49 DUP3 PUSH2 0x3068 JUMP JUMPDEST SWAP2 POP PUSH2 0x3A54 DUP4 PUSH2 0x3068 JUMP JUMPDEST SWAP3 POP DUP3 DUP3 MUL PUSH2 0x3A62 DUP2 PUSH2 0x3068 JUMP JUMPDEST SWAP2 POP DUP3 DUP3 DIV DUP5 EQ DUP4 ISZERO OR PUSH2 0x3A79 JUMPI PUSH2 0x3A78 PUSH2 0x33D8 JUMP JUMPDEST JUMPDEST POP SWAP3 SWAP2 POP POP JUMP JUMPDEST PUSH0 PUSH2 0x3A8A DUP3 PUSH2 0x3068 JUMP JUMPDEST SWAP2 POP PUSH2 0x3A95 DUP4 PUSH2 0x3068 JUMP JUMPDEST SWAP3 POP DUP3 PUSH2 0x3AA5 JUMPI PUSH2 0x3AA4 PUSH2 0x380A JUMP JUMPDEST JUMPDEST DUP3 DUP3 DIV SWAP1 POP SWAP3 SWAP2 POP POP JUMP JUMPDEST PUSH0 PUSH2 0x3ABA DUP3 PUSH2 0x3068 JUMP JUMPDEST SWAP2 POP PUSH2 0x3AC5 DUP4 PUSH2 0x3068 JUMP JUMPDEST SWAP3 POP DUP3 PUSH2 0x3AD5 JUMPI PUSH2 0x3AD4 PUSH2 0x380A JUMP JUMPDEST JUMPDEST DUP3 DUP3 MOD SWAP1 POP SWAP3 SWAP2 POP POP JUMP JUMPDEST PUSH0 PUSH2 0x3AEA DUP3 PUSH2 0x2DFF JUMP JUMPDEST SWAP2 POP PUSH2 0x3AF5 DUP4 PUSH2 0x2DFF JUMP JUMPDEST SWAP3 POP DUP3 DUP3 SUB SWAP1 POP PUSH20 0xFFFFFFFFFFFFFFFFFFFFFFFFFFFFFFFFFFFFFFFF DUP2 GT ISZERO PUSH2 0x3B21 JUMPI PUSH2 0x3B20 PUSH2 0x33D8 JUMP JUMPDEST JUMPDEST SWAP3 SWAP2 POP POP JUMP JUMPDEST PUSH0 PUSH2 0x3B31 DUP3 PUSH2 0x2E57 JUMP JUMPDEST SWAP2 POP PUSH2 0x3B3C DUP4 PUSH2 0x2E57 JUMP JUMPDEST SWAP3 POP DUP3 DUP3 SUB SWAP1 POP PUSH16 0xFFFFFFFFFFFFFFFFFFFFFFFFFFFFFFFF DUP2 GT ISZERO PUSH2 0x3B64 JUMPI PUSH2 0x3B63 PUSH2 0x33D8 JUMP JUMPDEST JUMPDEST SWAP3 SWAP2 POP POP JUMP JUMPDEST PUSH0 PUSH2 0x3B74 DUP3 PUSH2 0x2EA9 JUMP JUMPDEST SWAP2 POP PUSH32 0xFFFFFFFFFFFFFFFFFFFFFFFFFFFFFFFFFFFFFFFFFFFFFFFFFFFFFFFFFF800000 DUP3 SUB PUSH2 0x3BA6 JUMPI PUSH2 0x3BA5 PUSH2 0x33D8 JUMP JUMPDEST JUMPDEST PUSH1 0x1 DUP3 SUB SWAP1 POP SWAP2 SWAP1 POP JUMP JUMPDEST PUSH0 PUSH2 0x3BBB DUP3 PUSH2 0x2EA9 JUMP JUMPDEST SWAP2 POP PUSH2 0x3BC6 DUP4 PUSH2 0x2EA9 JUMP JUMPDEST SWAP3 POP DUP3 DUP3 MUL PUSH2 0x3BD4 DUP2 PUSH2 0x2EA9 JUMP JUMPDEST SWAP2 POP DUP1 DUP3 EQ PUSH2 0x3BE6 JUMPI PUSH2 0x3BE5 PUSH2 0x33D8 JUMP JUMPDEST JUMPDEST POP SWAP3 SWAP2 POP POP JUMP JUMPDEST PUSH0 PUSH1 0xFF DUP3 AND SWAP1 POP SWAP2 SWAP1 POP JUMP JUMPDEST PUSH0 PUSH2 0x3C03 DUP3 PUSH2 0x3BED JUMP JUMPDEST SWAP2 POP PUSH2 0x3C0E DUP4 PUSH2 0x3BED JUMP JUMPDEST SWAP3 POP DUP3 DUP3 SUB SWAP1 POP PUSH1 0xFF DUP2 GT ISZERO PUSH2 0x3C27 JUMPI PUSH2 0x3C26 PUSH2 0x33D8 JUMP JUMPDEST JUMPDEST SWAP3 SWAP2 POP POP JUMP JUMPDEST PUSH0 PUSH2 0x3C37 DUP3 PUSH2 0x2EA9 JUMP JUMPDEST SWAP2 POP PUSH2 0x3C42 DUP4 PUSH2 0x2EA9 JUMP JUMPDEST SWAP3 POP DUP3 DUP3 ADD SWAP1 POP PUSH32 0xFFFFFFFFFFFFFFFFFFFFFFFFFFFFFFFFFFFFFFFFFFFFFFFFFFFFFFFFFF800000 DUP2 SLT PUSH3 0x7FFFFF DUP3 SGT OR ISZERO PUSH2 0x3C81 JUMPI PUSH2 0x3C80 PUSH2 0x33D8 JUMP JUMPDEST JUMPDEST SWAP3 SWAP2 POP POP JUMP JUMPDEST PUSH32 0x5200000000000000000000000000000000000000000000000000000000000000 PUSH0 DUP3 ADD MSTORE POP JUMP JUMPDEST PUSH0 PUSH2 0x3CBB PUSH1 0x1 DUP4 PUSH2 0x39C7 JUMP JUMPDEST SWAP2 POP PUSH2 0x3CC6 DUP3 PUSH2 0x3C87 JUMP JUMPDEST PUSH1 0x20 DUP3 ADD SWAP1 POP SWAP2 SWAP1 POP JUMP JUMPDEST PUSH0 PUSH1 0x20 DUP3 ADD SWAP1 POP DUP2 DUP2 SUB PUSH0 DUP4 ADD MSTORE PUSH2 0x3CE8 DUP2 PUSH2 0x3CAF JUMP JUMPDEST SWAP1 POP SWAP2 SWAP1 POP JUMP JUMPDEST PUSH0 PUSH2 0x3CF9 DUP3 PUSH2 0x330F JUMP JUMPDEST SWAP2 POP PUSH2 0x3D04 DUP4 PUSH2 0x330F JUMP JUMPDEST SWAP3 POP DUP3 DUP3 MUL PUSH2 0x3D12 DUP2 PUSH2 0x330F JUMP JUMPDEST SWAP2 POP PUSH32 0x8000000000000000000000000000000000000000000000000000000000000000 DUP5 EQ PUSH0 DUP5 SLT AND ISZERO PUSH2 0x3D49 JUMPI PUSH2 0x3D48 PUSH2 0x33D8 JUMP JUMPDEST JUMPDEST DUP3 DUP3 SDIV DUP5 EQ DUP4 ISZERO OR PUSH2 0x3D5E JUMPI PUSH2 0x3D5D PUSH2 0x33D8 JUMP JUMPDEST JUMPDEST POP SWAP3 SWAP2 POP POP JUMP JUMPDEST PUSH0 PUSH2 0x3D6F DUP3 PUSH2 0x3068 JUMP JUMPDEST SWAP2 POP PUSH32 0xFFFFFFFFFFFFFFFFFFFFFFFFFFFFFFFFFFFFFFFFFFFFFFFFFFFFFFFFFFFFFFFF DUP3 SUB PUSH2 0x3DA1 JUMPI PUSH2 0x3DA0 PUSH2 0x33D8 JUMP JUMPDEST JUMPDEST PUSH1 0x1 DUP3 ADD SWAP1 POP SWAP2 SWAP1 POP JUMP JUMPDEST PUSH0 PUSH2 0x3DB6 DUP3 PUSH2 0x3BED JUMP JUMPDEST SWAP2 POP PUSH2 0x3DC1 DUP4 PUSH2 0x3BED JUMP JUMPDEST SWAP3 POP DUP3 DUP3 ADD SWAP1 POP PUSH1 0xFF DUP2 GT ISZERO PUSH2 0x3DDA JUMPI PUSH2 0x3DD9 PUSH2 0x33D8 JUMP JUMPDEST JUMPDEST SWAP3 SWAP2 POP POP JUMP JUMPDEST PUSH0 PUSH1 0x60 DUP3 ADD SWAP1 POP PUSH2 0x3DF3 PUSH0 DUP4 ADD DUP7 PUSH2 0x3071 JUMP JUMPDEST PUSH2 0x3E00 PUSH1 0x20 DUP4 ADD DUP6 PUSH2 0x3071 JUMP JUMPDEST PUSH2 0x3E0D PUSH1 0x40 DUP4 ADD DUP5 PUSH2 0x3071 JUMP JUMPDEST SWAP5 SWAP4 POP POP POP POP JUMP JUMPDEST PUSH0 PUSH2 0x3E1F DUP3 PUSH2 0x2DFF JUMP JUMPDEST SWAP2 POP PUSH2 0x3E2A DUP4 PUSH2 0x2DFF JUMP JUMPDEST SWAP3 POP DUP3 DUP3 ADD SWAP1 POP PUSH20 0xFFFFFFFFFFFFFFFFFFFFFFFFFFFFFFFFFFFFFFFF DUP2 GT ISZERO PUSH2 0x3E56 JUMPI PUSH2 0x3E55 PUSH2 0x33D8 JUMP JUMPDEST JUMPDEST SWAP3 SWAP2 POP POP JUMP INVALID LOG2 PUSH5 0x6970667358 0x22 SLT KECCAK256 TLOAD PUSH31 0x421DFE5EE22DBD532CC4E7F791ED530AA8E3B989DC13AF6F3458EB53C67964 PUSH20 0x6F6C634300081800330000000000000000000000 "
		},
		"gasEstimates": {
			"creation": {
				"codeDepositCost": "3203600",
				"executionCost": "infinite",
				"totalCost": "infinite"
			},
			"external": {
				"flash(uint256,uint256,bytes)": "infinite",
				"liquidity()": "2489",
				"mint(address,int24,int24,uint128,bytes)": "infinite",
				"positions(bytes32)": "2808",
				"slot0()": "4829",
				"swap(address,bool,uint256,uint160,bytes)": "infinite",
				"tickBitmap(int16)": "2784",
				"ticks(int24)": "7462",
				"token0()": "infinite",
				"token1()": "infinite"
			},
			"internal": {
				"balance0()": "infinite",
				"balance1()": "infinite"
			}
		},
		"methodIdentifiers": {
			"flash(uint256,uint256,bytes)": "4a182392",
			"liquidity()": "1a686502",
			"mint(address,int24,int24,uint128,bytes)": "3c8a7d8d",
			"positions(bytes32)": "514ea4bf",
			"slot0()": "3850c7bd",
			"swap(address,bool,uint256,uint160,bytes)": "dd5a12d8",
			"tickBitmap(int16)": "5339c296",
			"ticks(int24)": "f30dba93",
			"token0()": "0dfe1681",
			"token1()": "d21220a7"
		}
	},
	"abi": [
		{
			"inputs": [
				{
					"internalType": "address",
					"name": "token0_",
					"type": "address"
				},
				{
					"internalType": "address",
					"name": "token1_",
					"type": "address"
				},
				{
					"internalType": "uint160",
					"name": "sqrtPriceX96",
					"type": "uint160"
				},
				{
					"internalType": "int24",
					"name": "tick",
					"type": "int24"
				}
			],
			"stateMutability": "nonpayable",
			"type": "constructor"
		},
		{
			"inputs": [],
			"name": "InsufficientInputAmount",
			"type": "error"
		},
		{
			"inputs": [],
			"name": "InvalidPriceLimit",
			"type": "error"
		},
		{
			"inputs": [],
			"name": "InvalidTickRange",
			"type": "error"
		},
		{
			"inputs": [],
			"name": "NotEnoughLiquidity",
			"type": "error"
		},
		{
			"inputs": [
				{
					"internalType": "uint256",
					"name": "x",
					"type": "uint256"
				},
				{
					"internalType": "uint256",
					"name": "y",
					"type": "uint256"
				},
				{
					"internalType": "uint256",
					"name": "denominator",
					"type": "uint256"
				}
			],
			"name": "PRBMath_MulDiv_Overflow",
			"type": "error"
		},
		{
			"inputs": [],
			"name": "ZeroLiquidity",
			"type": "error"
		},
		{
			"anonymous": false,
			"inputs": [
				{
					"indexed": true,
					"internalType": "address",
					"name": "recipient",
					"type": "address"
				},
				{
					"indexed": false,
					"internalType": "uint256",
					"name": "amount0",
					"type": "uint256"
				},
				{
					"indexed": false,
					"internalType": "uint256",
					"name": "amount1",
					"type": "uint256"
				}
			],
			"name": "Flash",
			"type": "event"
		},
		{
			"anonymous": false,
			"inputs": [
				{
					"indexed": false,
					"internalType": "address",
					"name": "sender",
					"type": "address"
				},
				{
					"indexed": true,
					"internalType": "address",
					"name": "owner",
					"type": "address"
				},
				{
					"indexed": true,
					"internalType": "int24",
					"name": "tickLower",
					"type": "int24"
				},
				{
					"indexed": true,
					"internalType": "int24",
					"name": "tickUpper",
					"type": "int24"
				},
				{
					"indexed": false,
					"internalType": "uint128",
					"name": "amount",
					"type": "uint128"
				},
				{
					"indexed": false,
					"internalType": "uint256",
					"name": "amount0",
					"type": "uint256"
				},
				{
					"indexed": false,
					"internalType": "uint256",
					"name": "amount1",
					"type": "uint256"
				}
			],
			"name": "Mint",
			"type": "event"
		},
		{
			"anonymous": false,
			"inputs": [
				{
					"indexed": true,
					"internalType": "address",
					"name": "sender",
					"type": "address"
				},
				{
					"indexed": true,
					"internalType": "address",
					"name": "recipient",
					"type": "address"
				},
				{
					"indexed": false,
					"internalType": "int256",
					"name": "amount0",
					"type": "int256"
				},
				{
					"indexed": false,
					"internalType": "int256",
					"name": "amount1",
					"type": "int256"
				},
				{
					"indexed": false,
					"internalType": "uint160",
					"name": "sqrtPriceX96",
					"type": "uint160"
				},
				{
					"indexed": false,
					"internalType": "uint128",
					"name": "liquidity",
					"type": "uint128"
				},
				{
					"indexed": false,
					"internalType": "int24",
					"name": "tick",
					"type": "int24"
				}
			],
			"name": "Swap",
			"type": "event"
		},
		{
			"inputs": [
				{
					"internalType": "uint256",
					"name": "amount0",
					"type": "uint256"
				},
				{
					"internalType": "uint256",
					"name": "amount1",
					"type": "uint256"
				},
				{
					"internalType": "bytes",
					"name": "data",
					"type": "bytes"
				}
			],
			"name": "flash",
			"outputs": [],
			"stateMutability": "nonpayable",
			"type": "function"
		},
		{
			"inputs": [],
			"name": "liquidity",
			"outputs": [
				{
					"internalType": "uint128",
					"name": "",
					"type": "uint128"
				}
			],
			"stateMutability": "view",
			"type": "function"
		},
		{
			"inputs": [
				{
					"internalType": "address",
					"name": "owner",
					"type": "address"
				},
				{
					"internalType": "int24",
					"name": "lowerTick",
					"type": "int24"
				},
				{
					"internalType": "int24",
					"name": "upperTick",
					"type": "int24"
				},
				{
					"internalType": "uint128",
					"name": "amount",
					"type": "uint128"
				},
				{
					"internalType": "bytes",
					"name": "data",
					"type": "bytes"
				}
			],
			"name": "mint",
			"outputs": [
				{
					"internalType": "uint256",
					"name": "amount0",
					"type": "uint256"
				},
				{
					"internalType": "uint256",
					"name": "amount1",
					"type": "uint256"
				}
			],
			"stateMutability": "nonpayable",
			"type": "function"
		},
		{
			"inputs": [
				{
					"internalType": "bytes32",
					"name": "",
					"type": "bytes32"
				}
			],
			"name": "positions",
			"outputs": [
				{
					"internalType": "uint128",
					"name": "liquidity",
					"type": "uint128"
				}
			],
			"stateMutability": "view",
			"type": "function"
		},
		{
			"inputs": [],
			"name": "slot0",
			"outputs": [
				{
					"internalType": "uint160",
					"name": "sqrtPriceX96",
					"type": "uint160"
				},
				{
					"internalType": "int24",
					"name": "tick",
					"type": "int24"
				}
			],
			"stateMutability": "view",
			"type": "function"
		},
		{
			"inputs": [
				{
					"internalType": "address",
					"name": "recipient",
					"type": "address"
				},
				{
					"internalType": "bool",
					"name": "zeroForOne",
					"type": "bool"
				},
				{
					"internalType": "uint256",
					"name": "amountSpecified",
					"type": "uint256"
				},
				{
					"internalType": "uint160",
					"name": "sqrtPriceLimitX96",
					"type": "uint160"
				},
				{
					"internalType": "bytes",
					"name": "data",
					"type": "bytes"
				}
			],
			"name": "swap",
			"outputs": [
				{
					"internalType": "int256",
					"name": "amount0",
					"type": "int256"
				},
				{
					"internalType": "int256",
					"name": "amount1",
					"type": "int256"
				}
			],
			"stateMutability": "nonpayable",
			"type": "function"
		},
		{
			"inputs": [
				{
					"internalType": "int16",
					"name": "",
					"type": "int16"
				}
			],
			"name": "tickBitmap",
			"outputs": [
				{
					"internalType": "uint256",
					"name": "",
					"type": "uint256"
				}
			],
			"stateMutability": "view",
			"type": "function"
		},
		{
			"inputs": [
				{
					"internalType": "int24",
					"name": "",
					"type": "int24"
				}
			],
			"name": "ticks",
			"outputs": [
				{
					"internalType": "bool",
					"name": "initialized",
					"type": "bool"
				},
				{
					"internalType": "uint128",
					"name": "liquidityGross",
					"type": "uint128"
				},
				{
					"internalType": "int128",
					"name": "liquidityNet",
					"type": "int128"
				}
			],
			"stateMutability": "view",
			"type": "function"
		},
		{
			"inputs": [],
			"name": "token0",
			"outputs": [
				{
					"internalType": "address",
					"name": "",
					"type": "address"
				}
			],
			"stateMutability": "view",
			"type": "function"
		},
		{
			"inputs": [],
			"name": "token1",
			"outputs": [
				{
					"internalType": "address",
					"name": "",
					"type": "address"
				}
			],
			"stateMutability": "view",
			"type": "function"
		}
	]
}